:100000000C949C030C94E3030C94E3030C94E3031F
:100010000C94E3030C94E3030C94E3030C94E303C8
:100020000C94E3030C94E3030C94081C0C94C41B81
:100030000C94AC310C94E3030C94E3030C94E303B1
:100040000C94E3030C94E3030C94E3030C94E30398
:100050000C94E3030C94DF1C0C94E3030C94E30373
:100060000C94E3030C94E3030C94E3030C94E30378
:100070000C94E3030C94E3030C94E3030C94E30368
:100080000C94E3030C94E3030C94E3030C94E30358
:100090000C94E3030C94E3030C94E3030C94E30348
:1000A0000C94E3030C94E3030C94E303050109802F
:1000B000A101850319012AB700150126B700950192
:1000C00075108100C0050C0901A101850419012AE0
:1000D000A002150126A002950175108100C005013E
:1000E0000906A1018505050719E029E71500250185
:1000F0009508750181020507190029EF15002501F2
:1001000095F075018102050819012905950575010C
:100110009102950175039101C00660FF0961A1017B
:100120000962150026FF00952075088102096315F4
:100130000026FF00952075089102C005010906A15F
:1001400001050719E029E7150025019508750181CA
:10015000029501750881010507190029FF15002680
:10016000FF00950675088100050819012905950508
:1001700075019102950175039101C0000101010112
:100180000101010101020202020202020202030352
:100190000303030303030404040404040405050522
:1001A00005050606060606070707070708080808E4
:1001B000090909090A0A0A0B0B0B0C0C0C0D0D0D91
:1001C0000E0E0E0F0F0F1010111111121213131427
:1001D00014151516161717181819191A1A1B1B1C9F
:1001E0001D1D1E1E1F2020212222232424252626F9
:1001F000272829292A2B2C2D2D2E2F30313232332E
:100200003435363738393A3B3C3D3E3F4041424336
:100210004445464748494A4C4D4E4F50515354551A
:100220005658595A5B5D5E5F616264656668696BCA
:100230006C6D6F7072737577787A7B7D7E80828348
:100240008587888A8C8E8F91939596989A9C9EA08C
:10025000A2A3A5A7A9ABADAFB1B3B5B7BABCBEC099
:10026000C2C4C6C9CBCDCFD1D4D6D8DBDDDFE2E462
:10027000E7E9EBEEF0F3F5F8FAFDFFFFAA7F554052
:100280002223252628292A2C2D2F303233353638A3
:100290003A3B3D3E4042434547494A4C4E505153FC
:1002A0005557595A5C5E6062646668696B6D6F7120
:1002B000737577797B7D7F81838587898A8C8E9022
:1002C000929496989A9C9E9FA1A3A5A7A8AAACAE2B
:1002D000AFB1B3B4B6B8B9BBBCBEBFC1C2C3C5C66B
:1002E000C7C9CACBCCCDCED0D1D2D2D3D4D5D6D714
:1002F000D7D8D9D9DADADBDBDBDCDCDCDCDCDDDD52
:10030000DDDDDCDCDCDCDCDBDBDBDADAD9D9D8D741
:10031000D7D6D5D4D3D2D2D1D0CECDCCCBCAC9C7E3
:10032000C6C5C3C2C1BFBEBCBBB9B8B6B4B3B1AF1A
:10033000AEACAAA8A7A5A3A19F9E9C9A98969492BA
:10034000908E8C8A89878583817F7D7B7977757391
:10035000716F6D6B6968666462605E5C5A5957556F
:100360005351504E4C4A4947454342403E3D3B3A2B
:100370003836353332302F2D2C2A292826252322B2
:10038000165C1E001F002000210022002300240014
:100390002500260027002D002E002A004A002B00F1
:1003A00014001A000800150017001C0018000C00AB
:1003B000120013002F00300031004B003900040000
:1003C0001600070009000A000B000D000E000F00C8
:1003D00033003400000028004E00E10000001D0042
:1003E0001B00060019000500110010003600370040
:1003F0003800E50052004D00E000E300E20000009C
:10040000000000002C00000000000000E600015188
:10041000500051004F00165C3A003B003C003D008C
:100420003E003F00400041004200430044004500C0
:100430004C00005C0100C25CC35CC55CC65CC75C70
:10044000C85CC95CCA5CCB5CCC5C010001000100EB
:10045000010039006B006C006D006E006F007000D1
:1004600071007200010001000100000001000100A4
:100470000100000001000100010001000100145C06
:1004800001000100010001000100A90001000100BC
:100490000100010000000000000001000000000059
:1004A0000000010001000100AA000100010001009C
:1004B0000100010001000100010001000100010034
:1004C0000100010001000100010001000100010024
:1004D0000100010001000100010001000100010014
:1004E0000100010001000100010001000100010004
:1004F00001000100010001000100010001000100F4
:1005000000000100010001000000010001000100E5
:1005100001000100010001000100010001000100D3
:1005200001000100010001000100000000000000C6
:1005300001000000000000000100010001000100B6
:1005400001000100010001000100010001000100A3
:100550000100010001000100010001000100010093
:100560000100010001000100010001000100010083
:100570000100010001000100010001000100010073
:100580000100010001000100010001000100010063
:100590000100010001000000010001000100000055
:1005A0000100010001000100010001000100010043
:1005B0000100010001000100010001000100010033
:1005C0000000000000000100000000000000010029
:1005D0000100010001000100000000000000000017
:1005E000000000000000000000000000000000000B
:1005F0000000000000000000000000007E0F00D49A
:10060000FFFFFFC7000000780000000000000000AE
:100610002A2B28000000000000000000000000005D
:1006200000000029000000002C1E34202122243468
:100630002627252E362D3738271E1F20212223243A
:1006400025263333362E37381F0405060708090AD6
:100650000B0C0D0E0F101112131415161718191A72
:100660001B1C1D2F3130232D350405060708090AF0
:100670000B0C0D0E0F101112131415161718191A52
:100680001B1C1D2F3130354C1E0F0500047F3F1FF2
:10069000643214643214783C1E1E140A0509025B8D
:1006A00000030100A0FA0904000001030101000990
:1006B00021110100012240000705810308000A09F9
:1006C000040100020300000009211101000122229F
:1006D000000705820320000107050303200001092C
:1006E0000402000103000000092111010001226D34
:1006F000000705840320000A120110010000000811
:10070000504B33110200010200010E0362006D0024
:100710003600350076003200000018034B00500010
:100720002000720065007000750062006C006900B6
:10073000630000000403090411241FBECFEFDAE0B8
:10074000DEBFCDBF04B603FE27C080914008909164
:100750004108A0914208B09143088730904BA740D0
:10076000B04BD1F410924008109241081092420808
:100770001092430814BE84B7877F84BF0FB6F894E5
:10078000A89580916000886180936000109260005D
:100790000FBEE0E0F8E3099528E0A2EEB3E001C067
:1007A0001D92A034B207E1F713E0A0E0B1E0E6EF5C
:1007B000F8E602C005900D92A23EB107D9F70E945B
:1007C000D2280C9416340C940000E8EDF0E08081FF
:1007D0008E7F80831092E2001092DA001092E10086
:1007E000A0EEB0E08C9181608C9380818F778083C4
:1007F00019BCA7EDB0E08C918E7F8C9380818F7EA9
:1008000080831092D30708952091E4003091E50091
:1008100095E6A9012091EC00822F817020FF06C08F
:100820008091E80080FF06C080E008952091E800F4
:1008300022FD1AC08091F807882389F0853089F05D
:100840008091EB0085FD0FC02091E4003091E50020
:1008500042175307F9F29150E1F684E0089582E0DF
:10086000089583E0089581E00895EF92FF920F9339
:100870001F93CF937C018B010E940404C82F811128
:1008800017C08091E80085FD0BC08091E8008E774D
:100890008093E8000E940404882399F3C82F08C0BD
:1008A000F70181917F018093F1000150110949F70F
:1008B0008C2FCF911F910F91FF90EF900895809111
:1008C000FA0787FF13C08091E80082FF06C080917D
:1008D000E8008B778093E80004C08091F8078111CD
:1008E000F2CF08958091F8078823D9F38091E8002A
:1008F00080FFF8CF8091E8008E77ECCF982F90930F
:10090000E900242F762F50E0891731F07091EC0028
:100910002091ED005091F00021FD07C09F5F9730BE
:1009200071F78093E90081E008953091EB003E7FFC
:100930003093EB003091ED003D7F3093ED0030912E
:10094000EB0031603093EB007093EC002093ED00EE
:100950005093F0002091EE0027FDE0CF80E0089555
:10096000CF92DF92EF92FF920F931F93CF93DF937B
:10097000C8EDD0E088818F7E8883E7EDF0E080814C
:100980008160808384E082BF81E08093D307888187
:100990008E7F888302EE10E0F80110821092DA0058
:1009A00081EEC82ED12CF601108288818F77888342
:1009B00088818068888388818F7D888319BC1092A4
:1009C000F8071092F9071092F7071092F60790EEC9
:1009D000E92EF12CF70180818B7F808388818160F3
:1009E000888342E060E080E00E947E04F60180811E
:1009F0008E7F8083F8018081816080838081886020
:100A00008083F70180818E7F8083888180618883E5
:100A1000DF91CF911F910F91FF90EF90DF90CF90DA
:100A20000895FC01809100089091010886179707AE
:100A3000A0F06115710529F49091E8009E779093DC
:100A4000E80090E06115710551F4911108C08091A2
:100A5000E80082FF34C080E00895BC01F2CF8091AD
:100A6000F8078823C1F18530C1F18091E80083FD4A
:100A700030C08091E80082FDEACF8091E80080FFDD
:100A8000E1CF8091F3002091F200382F61157105BC
:100A900019F02830310558F091E02830310509F07F
:100AA00090E02091E8002E772093E800CBCF819151
:100AB0008093F100615071092F5F3F4FE7CF809124
:100AC000F807882341F0853041F08091E80083FFEA
:100AD000BECF81E0089582E0089583E00895EF920B
:100AE000FF920F939701201B31092F3F310519F019
:100AF00010F02FEF30E02095382F320F08F43FEF41
:100B0000832F0F91FF90EF900895EF92FF920F9334
:100B10009701201B31092F3F310519F010F02FEFFD
:100B200030E0322F3095482F430F08F44FEF842FD9
:100B3000620F0F91FF90EF900895EF92FF920F9345
:100B4000972F093438F4B701601B71096F3F7105A5
:100B500019F010F06FEF70E0485F5F4F41315105C1
:100B600040F0A901485F5F4F4131510510F06FEF30
:100B700070E06095482F460F08F44FEF842F37FF41
:100B800002C02D5F3F4F359527953595279560918C
:100B90003B08620F792F0F91FF90EF900895EF922D
:100BA000FF920F931F930E0D1F2D111DF90137FF9B
:100BB00003C0F195E195F10924E0EE0FFF1F2A959E
:100BC000E1F7EF3FF10519F014F0EFEFF0E09A01D3
:100BD00057FF03C031952195310994E0220F331F4F
:100BE0009A95E1F72E173F070CF4F901E00FF11F7A
:100BF000EF3FF10519F010F0EFEFF0E0E095282F4E
:100C00003E2F230F08F42FEF822F1F910F91FF909B
:100C1000EF900895EF92FF920F93970195E0099F4F
:100C2000200D311D11242F3F310519F010F02FEF49
:100C300030E02095382F320F08F43FEF832F0F91CB
:100C4000FF90EF90089522E8241B08F420E0620F43
:100C500008954095282F429F412D1124842F0895F7
:100C6000E42FF0E0EE0FFF1FE85EFC4F9081921B37
:100C700097FD9195292F38E1239F212D1124620F93
:100C800008950F931F9310E0F801EE0FFF1FE85E29
:100C9000FC4F9081905797FD9195000F111FF8011F
:100CA000E75EFC4F00810052110B2003F001219FF1
:100CB000F00D112408E310E0091B110997FD1395AD
:100CC00040039001419F300D1124E20FF31F9F015B
:100CD000220F331F2E0F3F1F37FF02C021583F4FF7
:100CE000220F232F221F330B620F1F910F910895A4
:100CF0000F931F93522F10E0F801EE0FFF1FE75ED6
:100D0000FC4FA081A052BB0B9D015203F001539FE9
:100D1000F00D1124000F111FD801A85EBC4F0C91DB
:100D20000057110B40039001419F300D11242E0FED
:100D30003F1F37FF02C0215C3F4F96E03595279556
:100D40009A95E1F7620F1F910F9108950F931F93EA
:100D5000522F10E0F801EE0FFF1FE75EFC4FA0815D
:100D6000A052BB0B9D015203F001539FF00D1124C3
:100D7000000F111FD801A85EBC4F0C910057110B3A
:100D800040039001419F300D11242E0F3F1F37FF6C
:100D900002C021583F4F220F232F221F330B620F17
:100DA0001F910F910895EF920F93972F23E0029FC9
:100DB000B0011124759567956E0D792F0F91EF9005
:100DC0000895322F50E0FA01EE0FFF1FE75EFC4F4F
:100DD0009081905297FD9195440F551FFA01E85E5E
:100DE000FC4F2081231B330B290F311D97FD3A95B2
:100DF000620F0895E42FF0E0EE0FFF1FE75EFC4F57
:100E00006081621B0895E42FF0E0EE0FFF1FE85EA3
:100E1000FC4F6081621B0895622F0895E42FF0E07B
:100E2000EE0FFF1FE85EFC4F408134EE439F412DE3
:100E30001124E82FF0E050E0445E5F4FDA01A21B7E
:100E4000B1099D01B7FF03C031952195310993E0A8
:100E5000220F331F9A95E1F7AF01421B530B9A0102
:100E600057FD20E0582F259F212D1124822F089512
:100E7000E42FF0E0EE0FFF1FE85EFC4F408134EE00
:100E8000439F412D1124E72FF0E050E0445E5F4F77
:100E9000DA01A21BB1099D01B7FF03C0319521956D
:100EA000310993E0220F331F9A95E1F7AF01421BFE
:100EB000530B9A0157FD20E0279F212D1124722FFB
:100EC0000895089580E0089508958091D5070895C4
:100ED00020911F012223C9F02091720727FF15C01E
:100EE000E62FE695E695E695EE31D8F4E80FF92F72
:100EF000F11D677021E030E001C0220F6A95EAF72A
:100F000020958281282322830895FC013296089639
:100F10002191621303C0DF0111971C92E817F907B2
:100F2000B9F7089520911F012223C1F02091720783
:100F300027FF14C0E62FE695E695E695EE31F8F426
:100F4000E80FF92FF11D677021E030E001C0220F9A
:100F50006A95EAF78281822B82830895FC0132969A
:100F60002FEF30E04191641751F02F3F19F44111F8
:100F700001C0232F3F5F3630A9F72F3F09F40895B2
:100F8000820F911D27FD9A95FC016283089580913F
:100F90006D07811110926D07089580916C079091F3
:100FA0006B07892B90916A07892B8093E4039091BA
:100FB0006D079923A1F0892B8093E40380911F0191
:100FC000882341F18091720787FF24C08EE1E6EE0D
:100FD000F3E090E0815000F591110E94C707E09185
:100FE000B307F091B4073097E1F080911F01882397
:100FF00059F08091720787FF07C08091E4038093C6
:10100000E50385E08093E4030280F381E02D84EE24
:1010100093E0099486E0DBCF21912223D9F29F5FF0
:10102000D9CF08952FE0929F800D1124982F9770AB
:1010300086958695869525E0829FF0011124E95CCE
:10104000F84F50E040E080E0219130E0092E02C0EE
:10105000369527950A94E2F721703327042E01C0B4
:10106000220F0A94EAF7822B4F5F5F4F45305105FC
:1010700059F708952FE0929F800D1124982F9770B3
:1010800041E001C0440F9A95EAF7869586958695CA
:1010900095E0899FF0011124E95CF84F90E080E031
:1010A00070E05191DF0111979B01082E02C0369527
:1010B00027950A94E2F721702195252724232527D7
:1010C0002C9301968530910561F70895809136073C
:1010D00090910507981301C008958F5F8770FACF2C
:1010E000882341F0809590916C07892380936C0749
:1010F0000C94CD070895882339F090916C07982BB4
:1011000090936C070C94CD0708952091FC063091C4
:10111000FD062817390771F09093FD068093FC06B1
:10112000E091B307F091B407309721F00084F18586
:10113000E02D099408952091FA063091FB062817B6
:10114000390771F09093FB068093FA06E091B3079C
:10115000F091B407309721F00680F781E02D0994D3
:10116000089590E080E00E949B0890E080E00E945B
:10117000850810926B0710926A070C94CD07609354
:1011800036087093370880933808909339080C9488
:10119000B1080F931F9360913608709137088091C2
:1011A0003808909139088B019C010670112722277D
:1011B0003327063011052105310529F468601F9198
:1011C0000F910C94BF08677FFACF0F931F9341E0F4
:1011D00050E060E070E004C0440F551F661F771FA9
:1011E0008A95D2F7CB01BA0160957095809590955C
:1011F000009136081091370820913808309139084D
:1012000060237123822393231F910F910C94BF08B5
:10121000909169078095892380936907282F27700B
:1012200039F4282F082E000C330B9217130621F4E3
:101230009091730792FF07C08595859585950E94CB
:10124000E5081092690708950F931F9341E050E05D
:1012500060E070E004C0440F551F661F771F8A9539
:10126000D2F78091360890913708A0913808B09154
:1012700039088A019B01082B192B2A2B3B2BC9010A
:10128000B8011F910F910C94BF0860936E07709383
:101290006F0780937007909371070C94B1088823AF
:1012A00079F19CEF980F913A38F4682F84EE93E02F
:1012B0000E9468070C94CD0790E2980F983088F44C
:1012C000877021E030E0A90102C0440F551F8A95C4
:1012D000E2F7CA01809590916C07892380936C078F
:1012E000E9CF9BE5980F933020F490E080E00C94D8
:1012F0009B08885A873120F490E080E00C948508A0
:101300000895CF93C82F882309F467C08CEF8C0F02
:10131000813AC0F580911F01882311F180917207F5
:1013200087FF1EC0EC2FE695E695E695F0E0EC51C0
:10133000FC4F828190E04C2F477021E030E002C0EA
:10134000220F331F4A95E2F782239323892B91F0D2
:101350006C2F84EE93E00E9468070E94CD070AC0BC
:10136000E6EEF3E08CEE93E02191C21789F38E173D
:101370009F07D1F76C2F84EE93E00E949207CF91E4
:101380000C94CD0780E28C0F883068F4C77021E0A0
:1013900030E001C0220FCA95EAF780916C07822BDA
:1013A00080936C07ECCFEBE5EC0FE33040F4F0E01A
:1013B000E758FD4F808190E0CF910C949B08C85A6C
:1013C000C73158F4EC2FF0E0EE0FFF1FE458FD4F4B
:1013D00080819181CF910C948508CF910895E091FF
:1013E000B307F091B407309721F00190F081E02D20
:1013F000099480E00895FA01811101C0FB0109946C
:101400000F931F93CF93DF938334910508F051C05E
:10141000880F991F880F991FFC01E259FE4F5081D8
:1014200052955F703181732F7295707FA72FA52B16
:1014300032953F70B32FB370FC01E159FE4F3081FC
:1014400032953695369533705181752F770F770F1A
:10145000072F032B152F1295169516951370FC0167
:10146000E359FE4F8081382F3370869586959181A0
:10147000592F5295550F550F507CC52FC82B969557
:101480009695D92FD370EFE5F1E03E9FC0013F9FC5
:10149000900D112485569A4FC80FD91F6883A80F45
:1014A000B91F4C93800F911FFC01208381E0809332
:1014B0009A05DF91CF911F910F910895FF920F939D
:1014C0001F93CF93DF93182F062FF42ED0E0C0E0A8
:1014D0002F2D402F612FCE010E94000A2196C33488
:1014E000D105B1F7DF91CF911F910F91FF90089532
:1014F0000C945E0A0C94000AFC019B01009729F4ED
:1015000080E077FF2BC080E80895AC0197FF04C00E
:1015100044275527481B590BB901640F751F37FD28
:1015200010C0241B350BC901A5E0880F991FAA958F
:10153000E1F70E94B93280E2861BF7FF0FC0819568
:101540000895CB0165E0880F991F6A95E1F7BA010C
:10155000621B730B0E94B93280E6EECF0895EF92C2
:101560000F93CF93DF93D72FC82FC9010E19BA015C
:101570000E947C0A602F681B7D2F8C2FDF91CF91FA
:101580000F91EF9008950F93CF93DF93D72FC82F2C
:10159000C901BA010E947C0A682F600F7D2F8C2F31
:1015A000DF91CF910F910895EF920F931F93CF93F7
:1015B000DF93D62FC72F182FC9010E19010FBA01BB
:1015C0000E947C0A081B202F219F212D1124822F8D
:1015D0006D2F7C2FDF91CF911F910F91EF90089588
:1015E0000F931F93CF93DF93D62FC72F182FC901C7
:1015F000212F201B022FBA010E947C0A982F990FDD
:10160000990F891B800F282F219F212D1124822FB4
:101610006D2F7C2FDF91CF911F910F910895E82FAF
:1016200086FDE0952E2F2F7086FD2F5FE695E695BF
:10163000E695E670F0E0EB59FE4F9181929F902D78
:10164000212D112492959F702295207F922B20812D
:10165000920F87FD919580E8890F08950F931F934E
:10166000CF93DF938B01D82FC42F822F0E940F0BB3
:10167000EC2FF0E0EE0FFF1FE85EFC4F90819058DA
:10168000890F87FD8195880F682F2CE0629F612D5F
:101690001124600F712F8D2FDF91CF911F910F912A
:1016A0000895AC018230910508F408959FEF413E02
:1016B0008EE1580740F49A0195E0369527959A9562
:1016C000E1F798E0920F61E0E62FE90FFF27FF1F97
:1016D0009F0135952795822F229FF001239FF00DC2
:1016E000F00D11244E175F0738F49FEF920F9617F5
:1016F00058F78FEF860F08952F3FE9F361E0620FEF
:10170000F6CF0F93CF93DF93D72FC82F47FD419587
:1017100088E390E0841B910947FD9395889FB00171
:10172000899F700D700D1124229FC001239F900D81
:10173000900D1124860F971F0E94510B982F990F1F
:10174000890F682F600F7D2F8C2FDF91CF910F9124
:10175000089530E020E0869F212D969F200D311DB9
:101760001124C90108958091C407982F9E7F61F4C8
:10177000817082608093C4078091C707873918F011
:1017800086E98093C70708958635B0F38170846534
:10179000F1CFAF92BF92CF92DF92FF920F931F9340
:1017A000CF93DF93362F472FE82FF0E0E558FE4F19
:1017B00071110FC0E4918E2F2E2F6E2F722FDF919B
:1017C000CF911F910F91FF90DF90CF90BF90AF907E
:1017D0000895C72FD0E02491F22E022F10E056E09A
:1017E000659FC0011124EFEFF0E0BF010E94A53218
:1017F000832F90E0880F991F35E5369FD001379FE2
:10180000B00D11248A1B9B0B982F990F980F6F0115
:10181000CC1ADD0AC09ED001C19EB00DD09EB00D85
:1018200011248B2F499FA0011124452F55276F01AB
:10183000C41AD50AC09EA001C19E500DD09E500D65
:1018400011245F01A91AB108AC9E6001AD9ED00CB5
:10185000BC9ED00C1124CD2CDD24EC19FD09E09F99
:10186000E001E19FD00DF09FD00D1124ED2F6230EB
:101870007105A1F050F46115710509F49ECF613036
:10188000710581F0EB2F852F98CF6430710569F0D9
:1018900080F06630710509F490CFF4CFE22F2B2F42
:1018A0008D2F8BCFE22F252F88CFEB2F822F2D2F3F
:1018B00084CF2B2F8F2DE52F80CF7F928F929F92F9
:1018C000AF92BF92CF92DF92EF92FF920F931F934E
:1018D000CF93DF935C01C09134018EE0C89FC02D8F
:1018E00011241EE01C0FF12E143410F033E4F32EFB
:1018F00060913E08669580912B0890912C080E947B
:10190000A90B782ED0E0CF1590F081E0133408F0C9
:1019100080E0DF91CF911F910F91FF90EF90DF90CA
:10192000CF90BF90AF909F908F907F900895FE01D1
:10193000E256FC4F8081909135018923C9F1CE0197
:10194000880F991F83539D4FFC01E55BFF4F20815A
:10195000422F4057550B6A01845B9F4FFC018081E9
:10196000282F2052330B4901449F9001459F300D91
:10197000300D1124889CC001899C900D900D11247C
:10198000820F931F0E94510B082F60913B087091AA
:101990003C0880913D08E72C9401A601F5010995CA
:1019A0000E94C90B462F282F672FCE010E947A0A6A
:1019B0002196A9CFCF92DF92EF92FF920F931F93C0
:1019C000CF93DF937C01C09134018EE0C89FC02D7E
:1019D00011241EE01C0FD12E143410F033E4D32E4A
:1019E00060913E08669580912B0890912C080E948A
:1019F000A90BC82ED0E0CD1568F081E0133408F0B3
:101A000080E0DF91CF911F910F91FF90EF90DF90D9
:101A1000CF900895FE01E256FC4F808190913501F0
:101A2000892311F1CE01880F991F83539D4FFC012B
:101A3000E45BFF4F20812052330B855B9F4FFC01FD
:101A400040814057550B60913B0870913C08809154
:101A50003D080C2DF70109950E94C90B462F282F30
:101A6000672FCE010E947A0A2196C5CFDF92EF92AE
:101A7000FF920F931F93CF93DF937C01C0913401AA
:101A80008EE0C89FC02D11241EE01C0F012F1434BE
:101A900008F003E460913E086695669521E0620FC8
:101AA00008F46FEF80912B0890912C080E94A90BED
:101AB000D82ED0E0C01760F081E0133408F080E049
:101AC000DF91CF911F910F91FF90EF90DF900895DC
:101AD000FE01E256FC4F808190913501892391F0FF
:101AE00060913B0870913C0880913D082D2D4C2F52
:101AF000F70109950E94C90B462F282F672FCE01A9
:101B00000E947A0A2196D6CF9F92AF92BF92CF922F
:101B1000DF92EF92FF920F931F93CF93DF936C01AD
:101B2000C09134018EE0C89FC02D11241EE01C0F0F
:101B3000B12E143410F033E4B32E60913E08669554
:101B4000669580912B0890912C080E94A90BF82E85
:101B500080E48F0D0E940F0B90E8A92EA80E8F2D08
:101B60000E940F0B20E8922E980ED0E0CB1580F04B
:101B700081E0133408F080E0DF91CF911F910F9145
:101B8000FF90EF90DF90CF90BF90AF909F9008951F
:101B9000FE01E256FC4F8081909135018923A1F02E
:101BA00060913B0870913C0880913D08EF2C0C2F10
:101BB000292D4A2DF60109950E94C90B462F282F81
:101BC000672FCE010E947A0A2196D0CFCF92DF9262
:101BD000EF92FF920F931F93CF93DF938C01C091ED
:101BE00034018EE0C89FC02D11242EE0D22EDC0ED1
:101BF000CD2C23E42D1510F493E4C92E20913E083A
:101C000031E0230F08F42FEF30E050E040E06FEFB9
:101C10007FEF80E090E00E94B3337901D0E02C2F79
:101C2000CC1570F081E0F2E4FD1508F480E0DF915E
:101C3000CF911F910F91FF90EF90DF90CF9008957B
:101C4000FE01E256FC4F808190913501892311F10C
:101C5000409102084150042E000C550B47FF1CC058
:101C6000C70160913E0821E0620F08F46FEF0E9407
:101C7000A90BAC0160913B0870913C0880913D0834
:101C8000F80109950E94C90B462F282F672FCE0116
:101C90000E947A0A2196C3CFFA01EE5FF74F81893D
:101CA00082130AC0FA01EE0FFF1FEE5FF74F818D1E
:101CB000928D8E159F05A8F241505109CFCF2F92DA
:101CC0003F925F926F927F928F929F92AF92BF925C
:101CD000CF92DF92EF92FF920F931F93CF93DF93F8
:101CE000CDB7DEB72A970FB6F894DEBF0FBECDBFD3
:101CF0008B837E836D83209134018EE0289F802D1D
:101D000011248F83825F89838A83843410F033E4C3
:101D10003A83809102088C83FF81EF2FF0E0FA87ED
:101D2000E987CF01880F991F9C01285E3C4F69010C
:101D30003B81832F90E0FC013196F887EF838A8105
:101D400099859817E8F081E0E981E33408F080E0B4
:101D50002A960FB6F894DEBF0FBECDBFDF91CF91AC
:101D60001F910F91FF90EF90DF90CF90BF90AF90B9
:101D70009F908F907F906F905F903F902F900895ED
:101D8000E985FA85E256FC4F8081909135018923DF
:101D9000F1F020903B0830903C082F8138852E5F71
:101DA000374F39015B8010E0FC815F16D0F0209145
:101DB0003D08129F112D1124B101812F0E94C90BE2
:101DC000462F282F672F89859A850E947A0A2985B0
:101DD0003A852F5F3F4F3A87298732E0C30ED11CE7
:101DE000AECFF30181913F01F601A080A81ABB0894
:101DF0008180F3018781881A9908AA9C9001AB9C85
:101E0000300D300D1124889CC001899C900D900DDF
:101E10001124820F931F0E94510B082F60913E08DE
:101E200021E0620F08F46FEFF301EE0FFF1FE250A5
:101E3000F840858996890E94A90B7C019401A5012F
:101E4000B101812FED81FE8109951B015394182F5B
:101E5000ABCFCF93DF93762FE901473908F046E9FE
:101E6000682F842F0E94C90B798368838A83DF914E
:101E7000CF910895F894E82FE295EF70F0E031A14A
:101E8000282F2F7081E090E001C0880F2A95EAF793
:101E9000982F9095932391A392A1892B82A3789454
:101EA00008959091720792FF06C0282F287128305C
:101EB000F9F4877F846093FF06C0282F28712831AA
:101EC000F1F4877E84612091730720FF06C0382FCC
:101ED00038713830D9F4877F816021FF06C0282F00
:101EE00028712831D1F4877E816194FD877E089521
:101EF000282F24712430F9F68B7F8860DCCF282FBF
:101F00002471243101F78B7E8861DDCF382F317148
:101F1000313019F78E7F8860E0CF282F2171213171
:101F200021F78E7E8861E1CFE0E2F1E0808361837A
:101F300024E630E042E050E0BF0180E60C946432D9
:101F4000CF9384E090E00E946B33C82F82E290E050
:101F50000E946B33982F8C2FCF9108950F931F936E
:101F6000CF93DF93C42FD0E0CC0FDD1F2EE1629F13
:101F7000C00DD11D112436E9839FC00DD11D112440
:101F8000CE0187960E946B33082F10E0102F002798
:101F9000CE0188960E946B339801282BC901DF91EE
:101FA000CF911F910F910895462F843038F47530EA
:101FB00028F46F3018F4672F0C94AE0F90E080E097
:101FC0000895CF93DF930E94D40FEC0182389105DE
:101FD000A9F1D8F58133910509F496C048F5893205
:101FE000910509F48AC08A9709F495C0C11522E5C4
:101FF000D20708F0B6C0C11531E5D30708F026C1F5
:10200000C83ED10508F09CC0C03ED10560F5C83A75
:10201000D10508F087C0C53AD10508F0EFC0C1303E
:10202000D10509F12097F9F0C430D105E0F440C0A2
:102030008533910509F45AC0C997C1F6809172079A
:10204000837089F0C0EED0E00EC0833E910599F117
:1020500070F4803E910501F1823E910539F6809140
:10206000720782FD21C0CE01DF91CF910895863E97
:10207000910561F1873E910571F1843E910509F06A
:10208000B5CF8091730781FFEECF80917207C7EEC5
:10209000D0E084FD0DC0E7CF8091720780FD07C1BD
:1020A0009091730790FFDFCFC3EED0E084FFDBCFCA
:1020B000D0E0C0E0D8CF8091720782FDFBC0909144
:1020C000730790FDBFCF84FFCECFF2CF8091720710
:1020D00083FDDDCFC8CF8091720783FDEEC0909164
:1020E000730791FFF0CFC4EED0E0BDCF80917207AF
:1020F00085FFB9CFC9E2D0E0B6CF8091720785FFE6
:10210000B2CFC5E3D0E0AFCF8091720786FFABCFEF
:10211000CAE2D0E0A8CF8091720786FFA4CFC1E3C6
:10212000D0E0A1CFCF3BD10518F6C85AD0E0CC0FF4
:10213000DD1FC458DD4F0990D881C02DD46493CFE2
:10214000C11540E5D40708F064C0C11580E4D80784
:1021500008F05CC0CE019A9581159F4108F483CFA9
:10216000A7CFC11536E5D30718F5C11545E5D40746
:1021700008F084C0C11584E5D80708F07AC09C2F08
:10218000969596959E0123703327C115D34508F483
:1021900062C0C1E0D0E002C0CC0FDD1F2A95E2F79B
:1021A00030E2939FC0011124C82BD92BDA685BCF92
:1021B000C1158AE5D80778F4C11599E5D90708F063
:1021C00068C0C11528E5D20708F472CFDC2FCC27F0
:1021D000C06FD06A48CFCE0190568115904208F06A
:1021E00067CF8D2F8F710E94510F90E0982F882715
:1021F00088279F719C012C2BE90149C0C55AD0E06A
:10220000C758DD4FC881D0E0D0642DCFDF70D06AD1
:102210002ACFCE01E4E096958795EA95E1F78370A1
:102220002C2F26952695237040E2249F900111249F
:10223000382B8C2F8370C1E0D0E002C0CC0FDD1FA3
:102240008A95E2F7C22BD32BDC680DCFDC2FCC278D
:10225000C16FD06A08CFC1E0D0E002C0CC0FDD1F53
:102260002A95E2F720E2929FC0011124C82BD92BB6
:10227000EBCFDC2FCC27C46FD06AF5CE8C2F0E9419
:10228000510FC82FD0E0DC2FCC27CC27DF71D062D4
:10229000EACE8C2F8F700E94510F34E0D695C795EF
:1022A0003A95E1F7CF709C2FEC01D069DCCEC9E301
:1022B000D0E0D9CEC2EED0E0D6CEC6EED0E0D3CEBE
:1022C000BF92CF92DF92EF92FF920F931F93CF9323
:1022D000DF938C01C0903608D0903708E090380822
:1022E000F090390880916E0790916F07A091700768
:1022F000B0917107C82AD92AEA2AFB2ACFE1D0E097
:10230000BC2ED701C6010C2E04C0B695A795979593
:1023100087950A94D2F780FD0EC0219788F7B12CDB
:102320008B2DDF91CF911F910F91FF90EF90DF9058
:10233000CF90BF900895B8018C2F0E94E10F0197B4
:1023400061F3EECFCF93DF93EC010E946011BE01E9
:10235000DF91CF910C94E10F0E94A211292F2F70D1
:1023600092959F7092509E3078F4E92FF0E0E85EED
:10237000FB4C0C94CD32803F19F020F4883E20F4C1
:1023800081E00895843FE1F380E00895883EC0F342
:10239000813FD1F7F5CF822F869586958695089552
:1023A0006F927F928F929F92AF92BF92CF92DF9265
:1023B000EF92FF920F931F93CF93DF9380E8C82E85
:1023C00083E0D82E9BEDE92EF12CE701C659D10907
:1023D00036011BC0F50185909490692DC8010E94BB
:1023E0008F33682DC80101960E948F3382E0A80EBA
:1023F000B11C0E5F1F4FC017D10761F78EE1680E49
:10240000711C6E96CE15DF0529F08E010E51110953
:102410005301E0CF7E0186E9E80EF11C86E9C80E83
:10242000D11C83E3E81683E0F80679F6DF91CF91BB
:102430001F910F91FF90EF90DF90CF90BF90AF90E2
:102440009F908F907F906F900895CF93C091730766
:10245000C2FB992790F9981781F080FBC2F9C093CD
:1024600073076091720784E090E00E948F336C2FB5
:1024700082E290E0CF910C948F33CF910895CF9367
:10248000DF93CFE7D2E060E0CE010E948F33219648
:10249000C11584E0D807B9F7DF91CF910895CF93A4
:1024A000DF9300D00F92CDB7DEB79091F80794304C
:1024B00011F589837B836A839093E9008FEF909174
:1024C000E800815095FD06C095ED9A95F1F7000062
:1024D0008111F5CF8091E80085FF0DC050E040E00C
:1024E00063E070E0CE0101960E9435048091E8001F
:1024F0008E778093E8000F900F900F90DF91CF912F
:102500000895BC0184E00C944F12BC0183E00C944C
:102510004F12CF93DF93EC0180911F018823B1F11B
:102520008091720787FF32C060E284E08093E90007
:102530008FEF9091E800815095FD06C095ED9A953A
:10254000F1F700008111F5CF8091E80085FF1BC0F5
:1025500080911F0170E050E040E0811104C050E024
:1025600040E068E070E0CE010E9435048091E80010
:102570008E778093E80080E2FE01A6EDB7E001903F
:102580000D928A95E1F7DF91CF91089568E081E09F
:10259000CDCF81E08093E00080E28093D80010925C
:1025A000C9008FE19EE40197F1F700C0000087E0C9
:1025B00090EBDC018093400890934108A09342087F
:1025C000B093430888E19CE00FB6F894A8958093F7
:1025D00060000FBE90936000FFCF1F93CF93DF93F7
:1025E000182FD0E0C0E0893311F4C0E5D0E0812F8E
:1025F0000E948109209731F4812FDF91CF911F91A3
:102600000C944F098FE99FE00197F1F700C000009B
:102610002197F0CF8091C40780FD0AC0EAE0F4E082
:10262000118210821282339654E0EC31F507C1F723
:102630006A9A3EB13B7F2EB124604FB7F8948AE08E
:1026400094E0FC015191CF0168E02EB9000000C078
:1026500057FF3EB9550F000000C000C000C03EB992
:1026600000C06A9591F7F4E08C319F0751F74FBF96
:102670008FE594E00197F1F700C000000895EF9214
:10268000FF921F93CF93DF93EC018AE0E82E84E062
:10269000F82E10E08C8197014091C7076091C60722
:1026A000810F0E94290F165D83E0E80EF11C1C3F8C
:1026B00089F70E940A139A818C8190FF08C08F5F6E
:1026C0008C83DF91CF911F91FF90EF9008958150FF
:1026D000F7CFBF92CF92DF92EF92FF920F931F93AB
:1026E000CF93DF93FC018281DD24DA9480FD02C068
:1026F000DD24D3940AE014E0D0E0C0E026E0B22E5E
:10270000F80111821082128294E0E92EF12CC12C82
:10271000809107048C0D87300CF43DC06B2D0E9416
:102720009732892F082E000C990B8C179D0791F476
:102730008091C7078E9DA0018F9D500D1124559546
:1027400047955595479598016091C6078091C507B3
:102750000E94290FCD0CF1E0EF1AF108C9F621967D
:102760000D5F1F4FC630D10559F60E940A138091A4
:10277000070491E0D91215C0811111C085E0809342
:102780000704DF91CF911F910F91FF90EF90DF90A1
:10279000CF90BF90089587FFC5CF8A5FC3CF815088
:1027A000EECF90E00196BE010E94B932E8CF0F93C0
:1027B0001F93CF93DF93CAE0D4E0FE011182108211
:1027C0001282339684E0EC31F807C1F710E000E0A4
:1027D00080910804082E000C990B081719078CF13A
:1027E00080911001082E000C990B801791074CF175
:1027F0009E014091C7076091C6078091C5070E945E
:10280000290F0F5F1F4F23960630110509F70E940D
:102810000A1380910F0190910804980F9093080477
:1028200020911001280F20931001121614F49530F6
:102830001CF0819580930F01DF91CF911F910F9133
:102840000895198218821A82DCCF8F929F92AF92DC
:10285000BF92CF92DF92EF92FF920F931F93CF938D
:10286000DF93EC014C81042F10E09801D8010E9405
:1028700007349B01AC010E94D2334B015C01E0E2C2
:10288000F0E0E01BF10BA5E5B0E0AC019B010E947C
:10289000D2336B017C019F01DF010E94DA329B0180
:1028A000AC010E94DD339B01AC01280D391D4A1D8E
:1028B0005B1DC701B6010E94E533F22E822F90E026
:1028C00039E23F15D8F143E0249F9001112435955A
:1028D0002795122F10959AE0C92E94E0D92E00E08A
:1028E00085E5E82EEF188E2D01FD8F2D9601412FE5
:1028F0006091C6070E94290F0F5F53E0C50ED11CDF
:10290000063089F70E940A139C8181E0992319F00F
:10291000903219F48FEF8093110180911101890F8A
:102920008C83DF91CF911F910F91FF90EF90DF90FB
:10293000CF90BF90AF909F908F90089525E530E0A5
:10294000A901481B590BCA019A01220F331F280FF6
:10295000391F37FFBCCF2F5F3F4FB9CFEF92FF92A8
:102960000F931F93CF93DF938C01CAE0D4E0F12C37
:10297000E12CF80194816091C6078091C507F3E0CE
:10298000EF16F104FCF49923F9F09E014091C7077A
:102990000E94290F2FEFE21AF20A239686E0E8162A
:1029A000F10439F70E940A13F801848190E001963E
:1029B000817099278483DF91CF911F910F91FF90B0
:1029C000EF900895992309F39E0140E0E1CF9091A3
:1029D000C40790FF0CC0EAE0F4E081836083428387
:1029E000339694E0EC31F907C1F70C940A1308957B
:1029F0000F931F93CF93DF9300D00F92CDB7DEB725
:102A00008C018091090481110AC09E012F5F3F4F04
:102A100046E96FEF0E94290F8A8180930904F8012B
:102A20006481613069F08091090440E0662361F0BF
:102A300040E0623011F44091090480E060E004C09D
:102A40006091090440E080E00E94E714F80184816D
:102A500090E0019663E070E00E94B93284830F90A9
:102A60000F900F90DF91CF911F910F910895CF9309
:102A7000DF9300D00F92CDB7DEB79091C40790FFDF
:102A80000AC09E012F5F3F4F0E94290F4B81698131
:102A90008A810E94E7140F900F900F90DF91CF91E1
:102AA0000895CF93DF93EC01EC81F0E0E058FD4F07
:102AB0004491E4ECF7E0628181810E9437158C81BA
:102AC0008F5F8C83DF91CF910895CF93DF93EC01DB
:102AD000E4ECF7E0438162818C810E9437158C81A0
:102AE0008F5F8C83DF91CF9108954F925F926F92A9
:102AF0007F928F929F92AF92BF92CF92DF92EF928E
:102B0000FF920F931F93CF93DF93FC016280448069
:102B100081E08483E0E8F2E07490EFEFF2E0E4918A
:102B2000CCE1D4E03AE0E32E34E0F32E4AE3C42EC5
:102B300044E0D42E52E0A52EBB24B39488248A947A
:102B4000912C55245A94E7190E2F10E082E0861537
:102B500030F08091C50788838091C6078983411032
:102B600021C01B821A8297014A81698188810E9453
:102B7000290F259683E0E80EF11CCC16DD0631F70F
:102B8000DF91CF911F910F91FF90EF90DF90CF9049
:102B9000BF90AF909F908F907F906F905F904F907D
:102BA0000C940A138B818823E9F081508B83859DD7
:102BB000C00111246C8170E00E94A532FB01FF2747
:102BC000E058FD4F8491E82FE719E59DC0011124DD
:102BD000B8010E94A5328091C707689FB0011124F7
:102BE0007A83C1CF0E9435332091C707269521589B
:102BF0002A9DA0012B9D500D1124452F5527841788
:102C000095070CF0B0CF82E0861588F40E9435332A
:102C1000B4010E94B93288830E9435332091C607DF
:102C20002695622F70E00E94B932280F29831A82FC
:102C30008091C707893C20F088EC8C838B8393CFED
:102C40008431D8F784E1F9CF0F931F93CF93DF93AB
:102C500080919A05882309F441C065EC8EEF0E94AB
:102C6000940F60E08DEF0E94940FD0E0C0E004EB81
:102C700010E0CE01B8010E94B9328093200182E1B8
:102C8000FE01E556FA4FA1E2B1E001900D928A955E
:102C9000E1F724E630E043E150E060E271E080E6F5
:102CA0000E946432892BD1F46296C63581E0D80740
:102CB000E1F482EA8093200189E0E1EFF6E0A1E20D
:102CC000B1E001900D928A95E1F724E630E04AE008
:102CD00050E060E271E080E60E94643210929A0552
:102CE000DF91CF911F910F910895C43BD10509F653
:102CF00065EC8EEF0E94940F61E08DEF0E94940FBF
:102D0000B8CF6AEE7EEF90E080E00E94AD3360E0E5
:102D100082E090E00E948F3360E083E090E00E94C8
:102D20008F3310926E0710926F07109270071092F7
:102D3000710760E084E090E00E948F3360E082E2FF
:102D400090E00E948F3360E085E090E00E948F3336
:102D500060E086E090E00E948F336FEF87E090E0C4
:102D60000E948F3340E050E0BA0188E090E00E947A
:102D7000A13360E08DE090E00E948F3340E050E0AE
:102D8000BA0188E190E00E94A13360E087E190E021
:102D90000E948F3340E050E0BA018CE190E00E9445
:102DA000A13370E060E080E290E00E94AD3340E04B
:102DB00050E0BA0188E190E00E94A13340E050E089
:102DC000BA018FE090E00E94A13340E050E0BA01E8
:102DD00083E190E00C94A133CF92DF92EF92FF92C7
:102DE0006B017C010E94B30BB701A60188E090E063
:102DF000FF90EF90DF90CF900C94A1335F926F9291
:102E00007F928F929F92AF92BF92CF92DF92EF927A
:102E1000FF920F931F93CF93DF9300D00F92CDB704
:102E2000DEB7182F762E042F622E9091C40790FFE4
:102E300029C0E92FE695AE2FB0E0A65CBE4F8C917D
:102E40008093C2079E7F923081F59E012F5F3F4F96
:102E5000812F0E94290F4B8169818A810E94E7148A
:102E60001093C5077092C6070093C707662051F0FC
:102E70006091C4077091C5078091C6079091C707FC
:102E80000E94EC160F900F900F90DF91CF911F9141
:102E90000F91FF90EF90DF90CF90BF90AF909F90F9
:102EA0008F907F906F905F900895823019F4009119
:102EB000C707D6CF863019F41091C507D1CF893016
:102EC000D9F3893169F6E9518E2F8170582EE69534
:102ED000F0E0E558FD4FA590B490BB248AE0E82EC1
:102EE00084E0F82ED12CC12C96E0892E912CC601BD
:102EF000B4010E94A532812F511013C0860F970193
:102F0000402F672D0E94290FCA0CDB1C83E0E80EBE
:102F1000F11C8CE1E81684E0F80649F70E940A13D8
:102F20009FCF861BECCFE4ECF7E0438128E0421B07
:102F300008F440E021E0628181810C94FE16E4EC0B
:102F4000F7E0438128E0420F08F44FEF21E062816F
:102F500081810C94FE16E4ECF7E0628128E0621BAC
:102F600008F460E021E0438181810C94FE16E4ECDA
:102F7000F7E0628128E0620F08F46FEF21E04381FF
:102F800081810C94FE16E4ECF7E0818121E043811D
:102F9000628188500C94FE16E4ECF7E0818121E018
:102FA00043816281885F0C94FE168091C807882354
:102FB00019F081508093C8076091C4077091C507CC
:102FC0008091C6079091C7070C94EC168091C807B2
:102FD000833018F48F5F8093C8076091C4077091A5
:102FE000C5078091C6079091C7070C94EC16E4ECD6
:102FF000F7E08DE0808311828FEF828386E98383FF
:10300000148260817181828193810C94EC161092FC
:103010006C0780911F01E6EEF3E0882359F0809160
:10302000720787FF07C08EE1DF011D928A95E9F7DD
:103030000C94B10886E0F8CF1F93CF93DF93CDB700
:10304000DEB7AA970FB6F894DEBF0FBECDBF8AEFEA
:1030500097E02091F100DC012D93CD01B8E08230A2
:103060009B07B9F78091FB07833009F471C0B8F46E
:10307000813009F448C0823009F4B2C08091E80080
:1030800083FF3AC18091FA079091FB079A3008F0CC
:1030900033C1E92FF0E0EA5DFB4C0C94CD328A306D
:1030A00009F48DC08B3009F470C0893039F78091F4
:1030B000FA07813219F78091FE079091FF07009778
:1030C00011F00297D9F68091E800877F8093E8009D
:1030D0008091E80082FF37C09091F3008091F20068
:1030E000029729F48091F1008B7F813021F4809147
:1030F000F1008093D5078091E8008B778093E800FA
:103100000E945F04BBCF8091FA07813A09F0B6CFE5
:103110008091E800877F8093E8008091FE0790917E
:10312000FF07892B61F460E286ED97E070E00E9472
:1031300011058091E8008B778093E8009FCF60E0D5
:1031400090E080E0F3CF8091F8078111C1CF96CF56
:103150008091FA07813A09F091CF8091FE07909112
:10316000FF07892B09F08ACF8091E800877F809341
:10317000E8008091E80080FFFCCF80911F018093E0
:10318000F1008091E8008E77B9CF8091FA07813203
:1031900009F074CF8091FE079091FF07892B09F009
:1031A0006DCF8091E800877F8093E8000E945F04E4
:1031B0008091FC0780931F010E9407185FCF8091C8
:1031C000FA07813209F05ACF8091E800877F809317
:1031D000E8000E945F048091FD078093D4074ECFE2
:1031E0008091FA07813A09F049CF8091E800877F02
:1031F0008093E8008091E80080FFFCCF8091D407A5
:10320000BECF803899F0823809F076C08091FE07F1
:103210008F70873008F070C08093E9008091EB00D8
:1032200085FB882780F91092E90006C08091F60797
:103230009091F707911182609091E800977F9093A9
:10324000E8008093F1001092F1008091E8008E7701
:10325000B5C1882309F4A2C1823009F04DC0809124
:10326000FC078111A6C18091FE078F702FEF280FF8
:10327000263008F041C08093E9002091EB0020FF48
:1032800098C1933031F48091EB0080628093EB0021
:1032900090C19091EB0090619093EB0021E030E0C1
:1032A00001C0220F8A95EAF72093EA001092EA0003
:1032B0008091EB008860EACF81111EC01091FC075D
:1032C0001F778091E3008078812B8093E3008091C9
:1032D000E800877F8093E8000E945F048091E80007
:1032E00080FFFCCF8091E30080688093E30082E060
:1032F000111183E08093F8078091E80083FF0AC0F2
:103300008091E800877F8093E8008091EB008062E5
:103310008093EB00AA960FB6F894DEBF0FBECDBF28
:10332000DF91CF911F9108958058823028F7209126
:10333000FC073091FD072C3DE3E03E07A1F583E05B
:103340008A838AE289834FB7F894DE01139620E0DE
:103350003EE051E2E32FF0E050935700E49120FF6C
:1033600003C0E295EF703F5FEF708E2F90E0EA3080
:10337000C0F0C7968D939D932F5F243159F74FBFAF
:103380008091E800877F8093E8006AE270E0CE01D8
:1033900001960E9411058091E8008B778093E800E8
:1033A000ABCFC096E7CF8091FE079091FF07432FE8
:1033B00055274330510509F44AC078F5413051058D
:1033C00009F47AC08BE590E0EDE9F6E04230510572
:1033D00009F092CF2091E800277F2093E800209108
:1033E0000008309101088217930708F49C0140E01F
:1033F0002115310509F065C0411163C08091E800D5
:1034000082FDC9CF8091F807882329F2853019F20F
:103410008091E80083FFF2CFBECF4132510509F41D
:103420003CC04232510509F067CF8330910508F066
:1034300063CFFC01EE0FFF1FEF53FD4F0190F081B2
:10344000E02D82549D4FDC018C9190E01AC033270F
:1034500021303105D1F02115310561F022303105DF
:1034600009F04ACFEAE0F7E0E4918E2F90E0EAE03D
:10347000F7E007C0E4E3F7E0E4918E2F90E0E4E3A7
:10348000F7E0009709F438CFA5CFEAE1F7E0E4913F
:103490008E2F90E0EAE1F7E0F4CF8330910508F059
:1034A0002BCF880F991FFC01E953FD4F0190F0814C
:1034B000E02D89E090E08ECF82E190E0E8EFF6E049
:1034C00089CF8091F807882309F465CF853009F406
:1034D00062CF8091E80083FD5ECF8091E80082FD9D
:1034E0008DCF8091E80080FF83CF9091F300809191
:1034F000F2002115310519F08830910550F041E0B6
:10350000089709F040E08091E8008E778093E8000A
:103510006FCF44914093F1003196215031090196CB
:10352000E8CF803809F0E8CE8091E800877F80936B
:10353000E8008091F9078093F10087CE8111DCCEFD
:103540001091FC07123008F0D7CE8091E800877FF9
:103550008093E8001093F9070E945F04112311F093
:1035600084E005C08091E30087FDFACF81E080937D
:10357000F80742E061EC81E00E947E0442E261ECE7
:1035800084E00E947E0442E261EC82E00E947E04BC
:1035900042E260EC83E00E947E04AECE8091FC07A4
:1035A000813009F0A9CE81E0933009F080E080936A
:1035B000F7071092E9008091E800877F8093E80088
:1035C0000E945F0499CEEF92FF920F931F93CF93C7
:1035D000DF930E94D33165EC8EEF0E94940F64E07C
:1035E0008DEF0E94940F61E080E00E94940F6FEFD6
:1035F00081E00E94940F67E782E00E94940F8FE3BE
:103600009CE90197F1F700C0000070E060E0AFE5D1
:10361000B1E0FF24FA94EE24E3949B01220F331FC0
:10362000220F331FF901E259FE4F908192959F704E
:103630008181E82FE295E07F4E2F492B82958F7094
:10364000582F5370F901E159FE4F8081829586957C
:10365000869583709181E92FEE0FEE0FCE2FC82B48
:10366000D92FD295D695D695D370F901E359FE4F4F
:103670009081292F237030E0969596958181E82FCF
:10368000E295EE0FEE0FE07C0E2F092B86958695C6
:10369000182F13702A9FC0012B9F900D3A9F900DF9
:1036A0001124865C9B4FFC01E00FF11FF082480F54
:1036B000591FFA01F082C80FD91FF88227563A4FD6
:1036C000F901E0826F5F7F4F6334710509F0A5CF88
:1036D00065EC8EEF0E94940F62E08DEF0E94940FD4
:1036E0000AE314E0C0E0F80161918F018C2F0E9481
:1036F000940FCF5FC43BB9F765EC8EEF0E94940F37
:1037000063E08DEF0E94940F0EEE14E0C0E0F8012C
:1037100061918F018C2F0E94940FCF5FCB3AB9F744
:1037200010929905DF91CF911F910F91FF90EF902B
:10373000089546E050E06CE170E08AE398E00C9474
:103740007F3390913A08937059F080933B086093CF
:103750003C08453B08F044EB40933D080C94991B12
:103760000895EAE3F8E089E280838091370190913F
:103770003801A091390181839283A3838FE78483E9
:103780008FEF85830C94991B1F920F920FB60F92A7
:1037900011242F933F934F935F936F937F938F9356
:1037A0009F93AF93BF93CF93DF93EF93FF93D0910A
:1037B000E900DF708091EC00C82FC17080FDC0E887
:1037C0001092E9008091F000877F8093F000789458
:1037D0000E941C181092E9008091F000886080938C
:1037E000F000CD2BCF70C093E900FF91EF91DF91F6
:1037F000CF91BF91AF919F918F917F916F915F9189
:103800004F913F912F910F900FBE0F901F901895E1
:103810001F920F920FB60F9211242F933F934F9345
:103820005F936F937F938F939F93AF93BF93EF9328
:10383000FF938091E10082FF09C08091E20082FF46
:1038400005C08091E1008B7F8093E1008091DA00D8
:1038500080FF24C08091D80080FF20C08091DA00D2
:103860008E7F8093DA008091D90080FF9BC080E139
:1038700089BD82E189BD09B400FEFDCF81E080935E
:10388000F8078091D307811109C00E94E5030E94C7
:10389000B0048091E20084608093E2008091E100B6
:1038A00080FF17C08091E20080FF13C08091E2008A
:1038B0008E7F8093E2008091E20080618093E2003D
:1038C0008091D80080628093D80019BC85E08093F5
:1038D000F8078091E10084FF29C08091E20084FF15
:1038E00025C080E189BD82E189BD89B5982F91709D
:1038F00080FFFBCF8091D8008F7D8093D80080918E
:10390000E1008F7E8093E1008091E2008F7E8093C2
:10391000E2008091E20081608093E2008091F907EB
:10392000882309F445C084E08093F8078091E10082
:1039300083FF27C08091E20083FF23C08091E100D4
:10394000877F8093E10082E08093F8071092F90767
:103950008091E1008E7F8093E1008091E2008E7F74
:103960008093E2008091E20080618093E20042E077
:1039700060E080E00E947E048091F0008860809387
:10398000F000FF91EF91BF91AF919F918F917F9147
:103990006F915F914F913F912F910F900FBE0F90BC
:1039A0001F90189519BC1092F8071092D30776CF84
:1039B0008091E30087FD93E09093F807B7CF789468
:1039C0001F921FB61F9211248F939F93AF93BF93A3
:1039D00080912F0890913008A0913108B091320861
:1039E0000196A11DB11D80932F0890933008A093DC
:1039F0003108B0933208BF91AF919F918F911F9082
:103A00001FBE1F9018952FB7F89480912F089091A2
:103A10003008A0913108B09132082FBF08950F935C
:103A20001F93CF93DF93C62FD42F022FFC018281E7
:103A30008823A1F0609335080E94031D90933408F9
:103A400080933308C77081E001C0880FCA95EAF7F8
:103A5000DF91CF911F910F910C947B0880913508D5
:103A6000681340C020913308309134084FB7F89460
:103A700080912F0890913008A0913108B0913208C0
:103A80004FBF821B930B883C910560F510E21D0F20
:103A90006D17B9F080E2860F883040F4C77081E07E
:103AA00001C0880FCA95EAF70E947008183048F4E0
:103AB00081E09D2F977001C0880F9A95EAF70E94C8
:103AC0007B08802F0E94ED12183098F4D77081E0A7
:103AD00001C0880FDA95EAF7DF91CF911F910F911E
:103AE0000C947008C77081E001C0880FCA95EAF78E
:103AF000F3CFDF91CF911F910F9108959091C4075B
:103B000090FF3DC09170811129C092609093C407CD
:103B1000662351F06091C4077091C5078091C60774
:103B20009091C7070E94EC166091C407669570E0FB
:103B30004BE050E084E091E00E944533892BA9F0EE
:103B40001092C30781E08093830720E04091C7076C
:103B50006091C6078091C5070C94FE168B3210F059
:103B60009465D4CF880F982BD1CF81E08093C30781
:103B70000E94031D9093810780938007E3CF0895EF
:103B80008091C4078695815009F48AE261E00C9423
:103B90007E1D8091C40786958F5F8B3208F081E08F
:103BA00061E00C947E1D9091C40790FF07C096952C
:103BB000981720F0961710F40C94C91D61E00C942E
:103BC0007E1D3F924F925F926F927F928F929F9253
:103BD000AF92BF92CF92DF92EF92FF920F931F931B
:103BE000CF93DF9300D000D00F92CDB7DEB78C011A
:103BF000FC0183819481892B31F08081918189231B
:103C00008F3F09F0E8C50F900F900F900F900F9025
:103C1000DF91CF911F910F91FF90EF90DF90CF90A8
:103C2000BF90AF909F908F907F906F905F904F90DC
:103C30003F9008950E946011F82E682F89819A8123
:103C40000E943A0869817A818F2D0E94D40F7C01ED
:103C5000F8018281882309F491C5C70182519F45EB
:103C6000409708F074C58FEF93E00E946B33FEEE2F
:103C7000EF0E5FE7852E52E0952E882381F180912B
:103C80006907877009F4BFCFF8018281882309F49E
:103C9000BACF82E00F900F900F900F900F90DF91AE
:103CA000CF911F910F91FF90EF90DF90CF90BF9039
:103CB000AF909F908F907F906F905F904F903F90CC
:103CC0000C940809811424E09206C9F2C4010E94F0
:103CD0006B33811101C0EA943FEF831A930AE1101C
:103CE000F1CF1C821B82442443944AE0342E740199
:103CF0008FEFE81AF80AC4010E946B3389831A8295
:103D0000882309F4BCCF9FEF980F933000F58A8386
:103D1000498292E0890E911CC7010E946B338B830C
:103D2000882309F4ACCFFE0131967F01F701208191
:103D30002223E9F2213009F049C09181828191303A
:103D400041F4F2E0EF0EF11C0E94ED1209C04701B0
:103D5000EACF923049F422E0E20EF11C0E94810980
:103D60003FEFE31AF30AE2CF933031F432E0E30E8F
:103D7000F11C0E944F09F4CF943021F08FEFE81A24
:103D8000F80AEECF92E0E90EF11C30E020E0B70136
:103D90006F5F7F4FF70141818053990B8A30910506
:103DA00050F021503109E0F28FE99FE00197F1F7DF
:103DB00000C00000F6CF329EF001339EF00D1124BA
:103DC0009C012E0F3F1F842F7B01E1CFE22FF0E0FB
:103DD000E85FF94F5490822F86958695869590E0FE
:103DE000FC01E850FA4F64902770712C022E02C03B
:103DF000759467940A94E2F7E1E06E227724FC015F
:103E0000E851FA4FA490B12C022E02C0B594A794A9
:103E10000A94E2F7F1E0AF22BB24FC01E852FA4F2A
:103E2000C490D12C02C0D594C7942A95E2F721E022
:103E3000C222DD246114710419F081EE0E9481090F
:103E4000A114B10419F086EE0E948109852D0E940B
:103E5000ED12AB2819F086EE0E944F09672819F081
:103E600081EE0E944F09CD2809F47ACF8CE26CCF05
:103E700081E00E9424090E94C90801CF81E00E94CC
:103E8000E508F9CF82E0F5CF82E0F9CF80913A08DA
:103E900091E0892780933A08109214010E94991B9F
:103EA000EECE80913A08982F969596959F5F943222
:103EB00008F091E0837009F4E2CE990F990F892BF5
:103EC000E9CF80913B0890E040913D0860913C082B
:103ED00008960E94A11BD3CE80913B0840913D08DB
:103EE00060913C088850990BF4CF60913C0820E128
:103EF000620F08F46FEF80913B0840913D0890E01D
:103F0000E8CF60913C0820E1621B08F460E0F3CF49
:103F100040913D0820E1420F08F44FEF80913B08AB
:103F200060913C08ECCF40913D0820E1421B08F431
:103F300040E0F4CF27E245EE65EE49C426E241EECB
:103F400060EE45C427E245EE64EE41C426E241EE50
:103F500062EE3DC428E241E0EFCF809172078061BC
:103F600026E0E2162CE5F20609F498C0809172076B
:103F7000886037E0E3163CE5F30608F48FC08091D3
:103F8000720780628BC08CE0E8168CE5F80609F4B5
:103F90009AC078F4809172078C60EAE0EE16ECE546
:103FA000FE0609F47BC008F488C0809172078E7FFA
:103FB00075C080917207877F2EE0E2162CE5F2062D
:103FC00009F46CC0809172078B7F3FE0E3163CE5FB
:103FD000F30608F463C0809172078F7E5FC08BEF99
:103FE000E8168CE5F80609F460C068F5E3E1EE1622
:103FF000ECE5FE0609F477C090F421E1E2162CE529
:10400000F20609F46CC032E1E3163CE5F30609F070
:104010005BC50E940718809172078F773FC085E1CA
:10402000E8168CE5F80609F466C008F47AC08091B9
:1040300073078160EAEFEE16ECE5FE0609F044C571
:104040008093730741C5FFEFEF16FCE5FF0609F407
:104050004EC068F4809173078D7F3DEFE3163CE519
:10406000F30671F3A0F1809173078360E9CF91E0CB
:10407000E9169DE5F90609F45DC008F448C060E062
:10408000F2E0EF16FDE5FF0609F01EC58EE090E0B8
:104090000E948F3319C580917207816080937207E7
:1040A00013C5809172078460F9CF80917307826095
:1040B000C7CF809172078064F1CF0E94071880916A
:1040C00072078068EBCF809172078D7FE7CF809178
:1040D00073078E7FB5CF809172078F7DDFCF809180
:1040E00072078F7BDBCF80917207837FD7CF809160
:1040F00073078C7FA5CF8091720782FB992790F977
:1041000021E0922790FB82F990FB83F9C7CF809141
:104110007307982F909591708E7F892B90FB81F972
:104120008FCF0E94071890917207892F97FB87F90C
:104130008058B4CF61E0AACF80916C0726E1E216E7
:104140002CE5F20609F058C38A7A91E009F490E070
:104150009093FE0669E2811165E384EE93E00E948C
:1041600092070E94CD078BCD8091C40780FF1BC0B2
:104170008E7F8093C4076091C4077091C5078091BA
:10418000C6079091C7070E94EC161092C3073FEF35
:1041900080E792E0315080409040E1F700C000009D
:1041A0000E940A136CCD81608093C40761E08695FC
:1041B0000E947E1D64CD40EC5DE169EC7DE10E94D2
:1041C000FB095DCD49EC5DE160EC7DE1F8CF4CECA5
:1041D00057E163EC77E1F3CF4BEA57E167EB77E127
:1041E000EECF43E957E16FE977E1E9CF4FE957E1D6
:1041F00063E977E1E4CF46EE57E165ED77E1DFCFA4
:1042000061E081E0D5CF65E082E00E94D31D37CD2B
:1042100068E086E0FACF64E18FE0F7CF67E185E1FF
:10422000F4CF62E289E1F1CF61E083E2C1CF8BE5B7
:10423000E8168DE5F80611F19CE5E9169DE5F9060D
:1042400009F00CC38091730782FB882780F991E005
:1042500089270E94251202C30E940718EFEFF4E39A
:104260002CE0E150F0402040E1F700C000000E9447
:10427000C9120E94811603CD81E0EBCF80E0E9CF27
:10428000C7010E941208D82EF8C22F2D2F70A22E1F
:104290008F2D807F19F0A29490EFA922DD20C9F024
:1042A000AA2069F080E28E0D883010F081100BC0DA
:1042B00080916C07A82AA0926C070E94CD078E2DD2
:1042C0000E94810919C080916B07A82AA0926B07F0
:1042D000F4CF8E2D0E944F09AA2071F0A09480E2A5
:1042E0008E0D883010F081103DC080916C07A8229F
:1042F000A0926C070E94CD07232D2850330B243049
:10430000310510F40E94EF09CC2009F47CCC809197
:10431000690780FD78CCF801128285958595859591
:104320000E942409C8010E94E11D809169078595BA
:10433000859585950F900F900F900F900F90DF91BE
:10434000CF911F910F91FF90EF90DF90CF90BF9092
:10435000AF909F908F907F906F905F904F903F9025
:104360000C94E50880916B07A822A0926B07C2CF3E
:104370003F2D3F70932E8F2D807F803219F09294C5
:1043800080EF9822882071F081E0881681F1DD208D
:10439000D9F1AA2091F1F801858180FF90CF8F702B
:1043A00085832BC0DD20B1F090916D07892D892B7D
:1043B000A11003C00E947B089FCFE1E0AE12FACFAC
:1043C0002091730722FD98CF981709F495CF809319
:1043D0006D0792CFA11006C00E94C707892D0E94C9
:1043E00070088ACFF1E0AF1609F486CFF5CFDD2053
:1043F00031F025E02A1508F47FCF892DDBCF34E09A
:104400003A1508F479CFEACFAA2041F3F9E38F12E5
:1044100009C02FEF37EE83E0215030408040E1F7B4
:1044200000C000008E2D0E944F0966CF8F2D86950B
:104430008695837061F0813009F05ECFC70193707B
:10444000D11002C090E080E00E94850855CFC701DE
:104450009370D11002C090E080E00E949B084CCF86
:104460008F2D837009F066C0D11046CF8E2D8295B6
:1044700086958770880F880F6E2D6F70462E512C91
:10448000712C612C082E04C0440C551C661C771C32
:104490000A94D2F740E050E0BA01E4FE0FC04FE0CA
:1044A00050E060E070E004C0440F551F661F771FA6
:1044B0008A95D2F740955095609570958F2D869589
:1044C00086958370823019F1D8F480906E079090B1
:1044D0006F07A0907007B0907107813069F0442990
:1044E000552966297729CB01BA01682179218A21CA
:1044F0009B210E94450900CF482859286A287B281B
:10450000CB01BA016429752986299729F2CF44295C
:1045100055296629772940906E0750906F07609063
:10452000700770907107CB01BA0164257525862547
:104530009725DFCF8695DD2011F08F2D81708823A0
:1045400009F4DACE8E2D829586958770880F880FB4
:104550006E2D6F70462E512C712C612C082E04C0CC
:10456000440C551C661C771C0A94D2F740E050E0BE
:10457000BA01E4FE0FC04FE050E060E070E004C01C
:10458000440F551F661F771F8A95D2F740955095A7
:10459000609570958F2D869586958370823019F180
:1045A000D8F48090360890903708A0903808B090E2
:1045B0003908813069F04429552966297729CB01CA
:1045C000BA01682179218A219B210E94BF0894CEDB
:1045D000482859286A287B28CB01BA016429752903
:1045E00086299729F2CF44295529662977294090B1
:1045F0003608509037086090380870903908CB0121
:10460000BA016425752586259725DFCF9F2D9F70DC
:10461000F92EDD2029F0892F0E9424098E2DCACE83
:104620008E2D0E9470088F2D0E94E50865CE8E2D7C
:10463000E2EF8E1609F457C0E81578F0F0EF8F1608
:1046400049F121EF821609F446C0DD2009F46FC05C
:10465000A11035CE8F2D8F7143C033EF831609F42F
:1046600047C094EF8912F1CFDD2009F455C02F2DFA
:104670002F71F22E822F0E9424098091730782FDF0
:1046800007C038E0F39EC00111248360809369075E
:104690008F2D26C0DD20D1F0E4E0EA1508F42CCE01
:1046A0002F2D2F7161E070E080E090E004C0660F74
:1046B000771F881F991F2A95D2F74090360850908F
:1046C000370860903808709039089BCFF5E0FA15EC
:1046D00008F412CEE5CF8F2D8F71DD2009F4A4CF21
:1046E0000E94240909CE8F2D8F71DD20C9F39CCF44
:1046F00060E070E0CB01DD2009F467CF2F2D2F7132
:1047000061E070E080E090E004C0660F771F881FD2
:10471000991F2A95D2F759CF81E00E94080981E0BC
:104720008A1508F0E9CD82E00E940809E5CDAA20AB
:1047300059F0893309F076CE9FEFE7EEF3E0915020
:10474000E040F040E1F76CCE8F2D8F716DCFF0E13E
:10475000EF16FFE5FF0609F48BCB21E1E2162FE50A
:10476000F20609F48FCBF701EB56F109E830F105B9
:1047700008F050C1E05DFB4C0C94CD3230E1E31603
:104780003FE5F30609F47ACB81E1E8168FE5F806F8
:1047900009F47ACB23EFE2162CE5F20609F4CECB2E
:1047A00008F01AC188EDE8168CE5F80609F4C2CBCA
:1047B00099EDE9169CE5F90609F4CCCBE7EDEE1688
:1047C000ECE5FE0609F016C126E241EE61EEC801F5
:1047D0000E940F1D54CA85E0DE01119601900D92D2
:1047E0008A95E1F7F801228189819A81211122CAF3
:1047F0000E941208F82E26CA82722CECE2162CE5D2
:10480000F20609F4F8CC08F0A5C096ECE9169CE590
:10481000F90609F4DCCC08F074C0F3ECEF16FCE503
:10482000FF0609F4C8CC08F05BC032ECE3163CE5A7
:10483000F30609F499CCEAE5EE16EDE5FE0609F477
:104840001BCD08F0F4CCE1142CE5F20609F404CDFC
:104850003EEDE3163CE5F30609F40BCDF801828149
:10486000E080F180882309F40BCDC7010E9460111C
:10487000D82E682FC7010E943A08B7018D2D0E94DB
:10488000E10F7C01882EF801D280A580A2943FE040
:10489000A322809169078770A1F0CD2CDD2091F0D3
:1048A0008F2D807F803421F080E28E0D883048F09B
:1048B00082E00E940809809169078770CC24C39424
:1048C0008111C12C3F2C32942FE03222FBE0F315F2
:1048D00008F412CDE32DF0E0E85CFB4C0C94CD32F3
:1048E00094ECE9169CE5F90609F46CCC43EC57E12D
:1048F0006CEC77E1E5ECEE16ECE5FE0609F45FCC36
:104900009ACFF9ECEF16FCE5FF0609F46ACC88F4BF
:1049100037ECE3163CE5F30609F45ECC47EB57E1D0
:104920006BEA77E198ECE9169CE5F90609F447CCC7
:1049300082CFEAECEE16ECE5FE0609F457CC45ED25
:1049400057E166EE77E1FBECEF16FCE5FF0609F4B4
:1049500036CC71CF21EDE2162CE5F20609F45BCCE2
:10496000B8F48EECE8168CE5F80609F44CCC08F4A3
:1049700047CCEFECEE16ECE5FE0609F449CC6EE010
:1049800089E0F0EDEF16FCE5FF0609F43ECC53CFCD
:1049900024EDE2162CE5F20609F443CC78F482ED1E
:1049A000E8168CE5F80609F439CC61E088E193ED6E
:1049B000E9169CE5F90609F4FBCB3DCFE5EDEE16D3
:1049C000ECE5FE0609F430CC6AE285E2FDE5EF167F
:1049D000FF0609F41ACC2FCFF5EFEF16FCE5FF0622
:1049E00009F4B4CA08F4AECA36EFE3163CE5F306A0
:1049F00009F488C0F6E1EF16FCE5FF0609F02ECFBA
:104A00008091FE0669E2811165E384EE93E00E94E5
:104A10006807A7CB83EFE8168CE5F80609F48ECA81
:104A200008F062C0E8EDEE16ECE5FE0609F482CA75
:104A3000F9EDEF16FCE5FF0609F48CCA27EDE21646
:104A40002CE5F20609F4C0CE1092350882E0E81693
:104A50008CE5F80608F470CB96E1E9169CE5F906BA
:104A600030F0C7018A5F9C45099708F065CB0E942A
:104A7000A00F9093730780937207E0E1EE16ECE5C8
:104A8000FE0609F428CB08F0AACA28E0E2162CE5B5
:104A9000F20609F40ECB08F076CA84E0E8168CE53D
:104AA000F80609F4FECA08F058CAE2E0EE16ECE592
:104AB000FE0609F4F0CA809172078260F3E0EF16F7
:104AC000FCE5FF0609F4EACA60917207F0907307EB
:104AD00084E090E00E948F336F2D82E290E00E948C
:104AE0008F330E940718CBC835EFE3163CE5F30679
:104AF00009F42CCA08F426CA96EFE9169CE5F906D3
:104B000009F0A2CF27E245EE66EE61CE1F93CF9368
:104B1000DF9380910407807FA9F4809101078823A7
:104B200089F080913607D09105076091FF0670915A
:104B30000007A0910207B0910307C62FC72316E014
:104B4000D81304C0DF91CF911F91089590E0109782
:104B500011F0CF3F19F401968770F2CF189F9001A2
:104B6000199F300D1124F901EA5FF84F4181471375
:104B7000F2CF40814613EFCF42814111ECCF438108
:104B800054814A1B5B0B483C510528F78091040770
:104B90008F70806180930407F901E55FF84F808191
:104BA0008F70806180838FEF96E00E94E11DDF911E
:104BB000CF911F910C946608AF92BF92CF92DF9273
:104BC000EF92FF920F931F93CF93DF93CDB7DEB792
:104BD00061970FB6F894DEBF0FBECDBF8C0185E0A4
:104BE000F801DE011D9601900D928A95E1F7F8011A
:104BF00080819181E2802FEFA22E26E0B22E60917B
:104C00000207709103076115710509F43EC13091E7
:104C1000FF0640910007232F24232F3F09F435C1BD
:104C2000C380D480F0900107F601E61BF70BFF204C
:104C300009F4FBC020910407522F507FE83CF10596
:104C400008F0BBC0511178C0FE2C491321C03813A5
:104C50001FC0E1101DC02F70206120930407C50103
:104C60000E94E11D80910407F80185838F2D6196D4
:104C70000FB6F894DEBF0FBECDBFDF91CF911F916D
:104C80000F91FF90EF90DF90CF90BF90AF9008957D
:104C9000CD2829F0282F29232F3F09F014C120E027
:104CA000F22FF170DF2E20FF3DC02091360740919A
:104CB000050756E0241315C08D879E878D859E8538
:104CC0000E94A211292F22952F702230F8F0243053
:104CD00020F59F70F9F0F8019581907FD9F4D12CDF
:104CE0001FC030E0529FF001539FF00D1124EA5F86
:104CF000F84F6181961306C06081861303C06281FC
:104D0000E61210C02F5F3F4F2770D4CF9F7011F075
:104D1000882329F3805E883010F3C8010E94E11DCA
:104D2000FD2CA4CFEE2009F4A1CF8091040781606F
:104D300080930407F12C9ACF491312C0381310C086
:104D4000E1100EC0F8012583C8010E94E11D86E034
:104D5000F801AFEFB6E001900D928A95E1F786CFAA
:104D60008D879E878D859E850E94AC11882309F1D1
:104D7000EE20F9F080910407803270F02091FF0658
:104D80003091000738872F831986DB86CA868C8787
:104D9000CE0107960E94E11D86E0F801AFEFB6E074
:104DA00001900D928A95E1F70E948625FF24F394E5
:104DB0005DCFC8010E94E11DF9CF51110AC08FEFEC
:104DC00096E00E94E11D86E0F50111928A95E9F7CF
:104DD000B1CF49130FC038130DC0E1100BC0F8015B
:104DE0002583C8010E94E11D86E0F50111928A9594
:104DF000E9F73CCF8D879E878D859E850E94AC11FB
:104E00008823B9F2EE20A9F280910407803220F2C3
:104E10002091FF06309100073A8329831B82DD82AF
:104E2000CC828E83CE010196B5CFE83CF105E0F649
:104E3000FE2CEE2009F4BDCF491316C0381314C060
:104E40008091040780FD83CF982F907F09F47FCF56
:104E5000F8018583903F09F477CF982F907F905F7A
:104E60008F70892B858370CF8D879E878D859E85DA
:104E70000E94AC11811190CF8091040781608093D2
:104E80000407C8010E94E11DF1CEEE2009F491CF84
:104E90008D879E878D859E850E94AC11F82E882374
:104EA00009F487CF86E0F801AFEFB6E001900D92EC
:104EB0008A95E1F78091FF06909100070E94A21168
:104EC0000E948625D3CE21E02E25EACE1F93CF93D4
:104ED000DF93CDB7DEB767970FB6F894DEBF0FBE8E
:104EE000CDBF342F4B8B252F5C8B6D8B7E8B8F8BA7
:104EF0008E899F89611110926B071A8A198A3D87E2
:104F00002E876F87998B888B86E0FE013D96DE01A8
:104F1000179601900D928A95E1F7CE0107960E94AF
:104F2000DC25882389F016E08091360790910507EB
:104F3000891349C067960FB6F894DEBF0FBECDBF88
:104F4000DF91CF911F91089586E0FE013796DE0133
:104F5000119601900D928A95E1F78A859B85892BA0
:104F600011F38F81988589238F3FE9F220910507FE
:104F700030E0C9010196877099274091360748179C
:104F8000190671F40E94071810920507109236074F
:104F900086E0EFEFF6E0DF011D928A95E9F7C3CFD7
:104FA00096E0929FD001939FB00D1124AA5FB84F55
:104FB000FE01319601900D929A95E1F780930507D5
:104FC0000E946608B0CF819FC00111248A5F984F6C
:104FD0000E94DC25882309F4ADCF8091360790E04C
:104FE000019687709927809336079ECF6F927F92A4
:104FF0009F92AF92BF92CF92DF92EF92FF920F9368
:105000001F93CF93DF939AEAE92E92E0F92E10E0F6
:1050100000E0C0E0CC24C394D12C3EE7A32E37E0BF
:10502000B32ED7018D917D01F894E82FE295EF70B2
:10503000F0E021A18F70A60102C0440F551F8A9590
:10504000E2F7CA01922F982B91A392A18095892310
:1050500082A3789400C0A601002E02C0440F551F01
:105060000A94E2F7BA0160957095E4E7F7E089EBFE
:10507000682E82E0782ED0E021913191D3019D906D
:105080003D01892D82958F7090E0DC0190968C9186
:1050900090E0B92DBF7002C095958795BA95E2F75B
:1050A00080FD69C0C901842B952B2817390739F079
:1050B0009F0122503109D9018D939C93D1E0AE1606
:1050C000BF06D1F6F701319780810E943A0FB0EA0E
:1050D000BA95F1F7CD2B0F5F1F4F0F30110509F077
:1050E000A0CFCC2309F44BC081E0809306040E943A
:1050F000031D9093050480930404209104043091CF
:1051000005044FB7F89480912F0890913008A09132
:105110003108B09132084FBF821B930B069798F16C
:1051200080917407909175079093CA078093C9077F
:1051300080917607909177079093CC078093CB0767
:1051400080917807909179079093CE078093CD074F
:1051500080917A0790917B079093D0078093CF0737
:1051600080917C0790917D079093D2078093D1071F
:105170001092060408C0C9018623972396CF809118
:1051800006048111BACF8C2FDF91CF911F910F911F
:10519000FF90EF90DF90CF90BF90AF909F907F9067
:1051A0006F900895CDB7DEB7AA970FB6F894DEBF1B
:1051B0000FBECDBF84B7877F84BF0FB6F894A89584
:1051C00080916000886180936000109260000FBE43
:1051D00080E890E00FB6F8948093610090936100AE
:1051E0000FBE85B7806885BF85B7806885BF82E6BA
:1051F00097E09093E3038093E2030E94E5030E940B
:10520000B0048091E20084608093E2007894809101
:10521000F8078823A1F01091E9001F709091EC002D
:10522000892F817090FD80E8182B1092E900809101
:10523000E80083FD0E941C181F701093E90082E0B3
:1052400084BD93E095BD9AEF97BD80936E000AEA06
:1052500012E0D8018D918D010E943A0FB2E0093B16
:105260001B07B9F786E90E943A0F84E90E943A0FBA
:1052700085E90E943A0F83E90E943A0F86EF0E9467
:105280003A0F10927507109274071092CA07109285
:10529000C90710927707109276071092CC071092E8
:1052A000CB0710927907109278071092CE071092D0
:1052B000CD0710927B0710927A071092D0071092B8
:1052C000CF0710927D0710927C071092D2071092A0
:1052D000D10790E080E00E9479338A3E9E4F11F022
:1052E0000E94811682E090E00E946B338093B707A2
:1052F0000E94A00F90937307809372070E94F62775
:105300008FE39CE90197F1F700C000000E94F627A7
:105310008091C90780FF17C06FEF83E290E00E9481
:105320008F336FEF84E290E00E948F336FEF85E25E
:1053300090E00E948F336FEF7FEF90E080E00E945B
:10534000AD330E94C91283E090E00E946B33682F56
:1053500070E090E080E00E9445090E94E31A1092FC
:1053600002088FEF9FEF90931C0880931B08909387
:105370001E0880931D089093200880931F08909327
:105380002208809321089093240880932308909307
:1053900026088093250890932808809327089093E7
:1053A0002A0880932908109286079093A00780937B
:1053B0009F079093A2078093A1079093A4078093DF
:1053C000A3079093A6078093A5079093A8078093BF
:1053D000A7079093AA078093A9079093AC0780939F
:1053E000AB079093AE078093AD0790E080E00E94FA
:1053F00079338A3E9E4F21F00E9481160E94B11B94
:1054000046E050E06CE170E08AE398E00E945B3394
:1054100080913A088C7F11F40E94B11B83E290E0E6
:105420000E946B33813209F075C784E290E00E94DC
:105430006B33893009F06EC785E290E00E946B33D0
:10544000833009F067C780917E07811136C090E0F4
:1054500080E00E9479338A3E9E4F21F00E9481169F
:105460000E94F71788E090E00E9473336093C407AE
:105470007093C5078093C6079093C7076E7F71F43A
:105480000E94F71788E090E00E9473336093C4078E
:105490007093C5078093C6079093C7070E94B30B0C
:1054A0001092C3078091C40780FF04C060E0869516
:1054B0000E947E1D81E080937E0785E191E09093BC
:1054C000B4078093B30728E0222E312C8091F8078F
:1054D00090E4F92E00E112E1853009F4E0C00E9469
:1054E000F627882359F08FB7F89440912F085091F0
:1054F000300860913108709132088FBFA9ECB7E095
:10550000E8EBF7E010E000E0602FED90FD902191D6
:1055100031912E153F0509F4C2C12E253F25D12C0E
:10552000AA24A394B12CA9014A215B21452B09F49B
:10553000B0C1D9A26AA3EA20FB2081E0E114F10402
:1055400009F480E08BA30E94031D8160782F9DA346
:105550008CA349A15AA16BA18DA10E946627F801D5
:10556000EE0FFF1FE854F84F80819181A826B926DD
:10557000B182A082EF2871F08FE0809FF001819FBF
:10558000F00D1124E353FD4FED0DF11D80818F3F90
:1055900009F091C0D12CB09086070D2D10E0C80104
:1055A0008B0D911D099754F17101E01AF10AB801B0
:1055B0006957784FA70187E897E00E945233B801F6
:1055C0006157784FA7018FE897E00E945233A701F7
:1055D000440F551FB801660F771F6156784F8FE94A
:1055E00097E00E945233B8016956784FA70187E9C6
:1055F00097E00E945233BA94B09286078091860752
:1056000090E0AC2DB0E09D01220F331F285E3C4F8F
:10561000AA0FBB1FBD01675E7C4F65C08091F80774
:10562000843059F140E060E080E00E94780AE1E0D7
:10563000E093B50710927F0728E130E00FB6F894A9
:10564000A895209360000FBEF092600083B7817F21
:10565000846083BF83B7816083BF7894889583B764
:105660008E7F83BF0FB6F894A89580916000886103
:1056700080936000109260000FBE8091F70788232E
:1056800071F00E94F627E9ECF7E081919191892B66
:1056900009F02AC683ED97E08E179F07B1F7809136
:1056A000F807853009F4BACF0E9407180E94EF0965
:1056B0001092B50714CFC82EDD24D3946CCF90E0A0
:1056C000FC01EA57F84FD9015C915183DB015C91F1
:1056D0005187C18A880F991FFC01EA57F84F128E33
:1056E000118E91E0842F41E0480F9D1540F3809387
:1056F00086078091C3078823D1F18091C207E0918A
:10570000C407E695E81BE0938207823009F0DEC00B
:10571000F0E0E756F94FE4910E2F10E071E5E72E27
:1057200075E1F72E80918307882361F0109283073B
:105730000E94031D90938107809380071092850734
:10574000109284070E94031DE0918007F091810769
:105750008E1B9F0B8F3F9F4750F4E00FF11FF0937C
:105760008107E093800780E897E0F7010995809131
:10577000AF079091B007A091B107B091B2074FB7B2
:10578000F89400912F081091300820913108309141
:1057900032084FBF48015901881A990AAA0ABB0A60
:1057A0004FB7F89440902F0850903008609031081F
:1057B000709032084FBF4092AF075092B00760928E
:1057C000B1077092B20760918607E6E8F7E0462FCE
:1057D00050E00197AF4FBF4F801B910BA20BB30B53
:1057E0006513E0C0409386078091B507F12C8111C5
:1057F00009C080913A08F82FF370FF2E19F0F82EA7
:10580000F694F69480911401813009F4F5C0882350
:1058100009F4DBC0823009F46AC3833009F474C32D
:105820000E94EF099091B607891721F00E94EF09B5
:105830008093B6078091F807843009F047CE83E063
:105840008093E9008091E80082FF40CE8091E800DB
:1058500090E085FF0CC00E94040430E2E32EF12C9E
:105860008E010F5F1F4F882309F477C391E0809169
:10587000E8008B778093E800992309F427CEE9812B
:10588000E150E33108F0F8C3F0E0EC5BFB4C0C9422
:10589000CD32D394AA0CBB1C8FE0D81244CE0F5F3C
:1058A0001F4F0530110509F02FCE8FEF8EA38FA368
:1058B00018A60E94031D8160782F9AA789A74EA180
:1058C0005FA168A58AA50E94662713CF863059F488
:1058D000F0E0EA56F94FE4910E2F10E065E6E62E6F
:1058E00065E1F62E1FCF893061F4E695F0E0ED56C4
:1058F000F94FE4910E2F10E05FE3E52E53E1F52E12
:1059000011CF8F3061F4E695F0E0E057F94FE49164
:105910000E2F10E049E6E42E43E1F42E03CF85314B
:1059200059F4F0E0E357F94FE4910E2F10E037ED12
:10593000E32E33E1F32EF6CE883169F1833249F458
:10594000EBE8F6E00591149128EFE22E24E1F22E27
:10595000E9CE04EF11E0BEEAEB2EB4E1FB2E843277
:1059600009F4E0CE00ED17E0A1E6EA2EA7E0FA2E5A
:10597000853209F0D7CE8E2F63E00E948B32E92F5B
:10598000F0E0E857F94FE4910E2F10E095E7E92E8B
:1059900095E1F92EC7CE08E210E085E2E82E84E119
:1059A000F82EC0CE218D328D790110E000E08E15E9
:1059B0009F05A007B10720F441505F5F329610CFDA
:1059C000280D391D328F218FF8CF1092340140926B
:1059D0002B0850922C0860922D0870922E0889E2B4
:1059E000E6E8F7E0A2E0B8E001900D928A95E1F7D1
:1059F00021E02093140114CF80911301F81224C0E8
:105A000090913A0893702091120130E081E0921752
:105A1000130609F480E081708093360180913F087D
:105A200090913501981739F08093350140E060E09E
:105A300080E00E94780A33E23F1588F0EF2DF0E015
:105A4000E95AFB4C0C94CD3281E0E5CF80913601D0
:105A5000882341F140E060E080E00E94780A80E025
:105A600021C0009134018EE0089F002D1124FEE03A
:105A7000EF2EE00EDE2C83E48E1510F4E3E4DE2E30
:105A800060913B0870913C0880913D080E94C90BD1
:105A9000B62EA72E782E10E00D1550F181E092E47D
:105AA0009E15E8F2909134019F5F9093340181112B
:105AB0001AC282E08093140180913601811113C2D1
:105AC000FF2009F41DC2E091B307F091B4073097AD
:105AD00009F4A6CE0190F081E02D099581FFA0CEBA
