:100000000C9456070C94522E0C9473070C9473079F
:100010000C9473070C9473070C9473070C94730778
:100020000C9473070C9473070C94DA260C949626A0
:100030000C942D280C9473070C9473070C9473077D
:100040000C9473070C9473070C9473070C94730748
:100050000C9473070C9409280C9473070C94730781
:100060000C9473070C9473070C9473070C94730728
:100070000C9473070C9473070C9473070C94730718
:100080000C9473070C9473070C9473070C94730708
:100090000C9473070C9473070C9473070C947307F8
:1000A0000C9473070C9473070C9473070631FF09C3
:1000B00074A1010975150026FF00952075088102BD
:1000C0000976150026FF00952075089102C00501EC
:1000D0000980A101850319012AB700150126B7007F
:1000E000950175108100C0050C0901A10185041955
:1000F000012AA002150126A002950175108100C0F9
:1001000005010906A1018506050719E029E7150083
:1001100025019508750181020507190029EF1500D1
:10012000250195F07501810205081901290595053C
:1001300075019102950175039101C00660FF096187
:10014000A1010962150026FF0095207508810209AA
:1001500063150026FF00952075089102C00501096E
:1001600006A101050719E029E71500250195087585
:100170000181029501750881010507190029FF1504
:100180000026FF009506750881000508190129055C
:1001900015002501950575019102950175039101E1
:1001A000C00000000000000000000000000000008F
:1001B000000000000000000000000000000000003F
:1001C00000000000007E0F00D4FFFFFFC70000000A
:1001D0007800000000000000002A2B28000000002A
:1001E00000000000000000000000000029000000E6
:1001F000002C1E3420212224342627252E362D378C
:1002000038271E1F202122232425263333362E375C
:10021000381F0405060708090A0B0C0D0E0F1011F4
:1002200012131415161718191A1B1C1D2F31302301
:100230002D350405060708090A0B0C0D0E0F1011C9
:1002400012131415161718191A1B1C1D2F313035CF
:100250004C7267626C696768742064697361626C70
:1002600065205B454550524F4D5D3A207267626C88
:10027000696768745F636F6E6669672E656E616239
:100280006C65203D2025750A007267626C6967689D
:100290007420656E61626C65205B454550524F4D20
:1002A0005D3A207267626C696768745F636F6E663F
:1002B00069672E656E61626C65203D2025750A00B8
:1002C0007267626C6967687420746F67676C652019
:1002D0005B454550524F4D5D3A207267626C6967CD
:1002E00068745F636F6E6669672E656E61626C65C8
:1002F000203D2025750A0044454255473A2064694F
:100300007361626C65642E0A0044454255473A2089
:10031000656E61626C65642E0A003F00433E2000FA
:100320004F6E6573686F743A206163746976653ADD
:100330002025640A000A002530325820006E6B72B6
:100340006F5F7265706F72743A2025303258207C6E
:1003500020000A002530325820006B6579626F61F9
:1003600072645F7265706F72743A20253032582063
:100370007C200054617267657420636F6E6E6563E4
:100380007465640D0A005461726765742064697352
:10039000636F6E6E65637465642C207468726F742D
:1003A000746C696E6720636F6E6E656374696F6EDF
:1003B00020617474656D7074730D0A004661696C18
:1003C000656420746F206578656375746520257396
:1003D0000A007267626C696768745F636F6E666952
:1003E000672E7370656564203D2025640A0072677E
:1003F000626C696768745F636F6E6669672E7661A9
:100400006C203D2025640A007267626C696768741D
:100410005F636F6E6669672E736174203D2025648B
:100420000A007267626C696768745F636F6E666901
:10043000672E687565203D2025640A007267686C28
:10044000696768745F636F6E6669672E6D6F646558
:10045000203D2025640A007267626C696768745FDA
:10046000636F6E6669672E76656C6F63696B65791D
:10047000203D2025640A007267626C696768745FBA
:10048000636F6E6669672E656E61626C65203D20E4
:1004900025640A007267626C696768745F636F6ED7
:1004A00066696720454550524F4D3A0A00726762AF
:1004B0006C696768745F696E6974207267626C69E1
:1004C0006768745F636F6E6669672E6D6F64652021
:1004D0003D20302E20577269746520646566617511
:1004E0006C742076616C75657320746F204545507F
:1004F000524F4D2E0A007267626C696768745F69BB
:100500006E6974206565636F6E6669672069732024
:100510006E6F7420656E61626C65642E0A0072678E
:10052000626C696768745F696E6974207374617264
:1005300074210A007267626C696768745F696E692A
:10054000742063616C6C65642E0A0073757370654A
:100550006E64696E67206B6579626F6172640D0A03
:10056000000A0025303862003A2000253032580059
:100570000A722F632030313233343536370A000A9D
:100580000025303258006C65645F7461736B3A20EB
:10059000007267626C696768742073657420737099
:1005A000656564205B4E4F454550524F4D5D3A2086
:1005B00025750A007267626C6967687420746F67DA
:1005C000676C65205B4E4F454550524F4D5D3A205C
:1005D0007267626C696768745F636F6E6669672EC5
:1005E000656E61626C65203D2025750A0072676248
:1005F0006C69676874206D6F6465205B4E4F45457C
:1006000050524F4D5D3A2025750A007267626C6941
:10061000676874206D6F6465205B454550524F4D8F
:100620005D3A2025750A007267626C6967687420FC
:10063000656E61626C65205B4E4F454550524F4D73
:100640005D3A207267626C696768745F636F6E669B
:1006500069672E656E61626C65203D2025750A0014
:100660007267626C696768742064697361626C6543
:10067000205B4E4F454550524F4D5D3A20726762A8
:100680006C696768745F636F6E6669672E656E611B
:10069000626C65203D2025750A0000010101010101
:1006A000010101010202020202020202020303032B
:1006B00003030303030404040404040405050505FB
:1006C00005060606060607070707070808080809BB
:1006D0000909090A0A0A0B0B0B0C0C0C0D0D0D0E67
:1006E0000E0E0F0F0F1010111111121213131414FC
:1006F000151516161717181819191A1A1B1B1C1D71
:100700001D1E1E1F202021222223242425262627C9
:100710002829292A2B2C2D2D2E2F303132323334FB
:1007200035363738393A3B3C3D3E3F404142434401
:1007300045464748494A4C4D4E4F505153545556E3
:1007400058595A5B5D5E5F616264656668696B6C8F
:100750006D6F7072737577787A7B7D7E808283850A
:1007600087888A8C8E8F91939596989A9C9EA0A24A
:10077000A3A5A7A9ABADAFB1B3B5B7BABCBEC0C254
:10078000C4C6C9CBCDCFD1D4D6D8DBDDDFE2E4E718
:10079000E9EBEEF0F3F5F8FAFDFF7267626C69675A
:1007A00068742073657420687376205B4E4F4545EE
:1007B00050524F4D5D3A2025752C25752C25750A14
:1007C000007267626C69676874207365742068736F
:1007D00076205B454550524F4D5D3A2025752C25BE
:1007E000752C25750A006B65796D61705F636F6E9E
:1007F0006669672E7261773A20253032580A2E7367
:100800007761705F636F6E74726F6C5F636170733A
:100810006C6F636B3A2025750A2E636170736C6F81
:10082000636B5F746F5F636F6E74726F6C3A2025D9
:10083000750A2E737761705F6C63746C5F6C67759B
:10084000693A2025750A2E737761705F7263746C44
:100850005F726775693A2025750A2E737761705F3C
:100860006C616C745F6C6775693A2025750A2E732C
:100870007761705F72616C745F726775693A202589
:10088000750A2E6E6F5F6775693A2025750A2E739B
:100890007761705F67726176655F6573633A202583
:1008A000750A2E737761705F6261636B736C61733D
:1008B000685F6261636B73706163653A2025750AD6
:1008C0002E6E6B726F3A2025750A2E737761705FFA
:1008D0006573636170655F636170736C6F636B3ABE
:1008E0002025750A0064656275675F636F6E6669CF
:1008F000672E7261773A20253032580A2E656E6174
:10090000626C653A2025750A2E6D61747269783AB9
:100910002025750A2E6B6579626F6172643A202515
:10092000750A2E6D6F7573653A2025750A00656529
:10093000636F6E6669673A0A64656661756C745FB9
:100940006C617965723A2025750A000A092D204DDF
:1009500061676963202D0A443A094465627567201E
:100960004D65737361676520546F67676C650A58DE
:100970003A094D6174726978204465627567204D4B
:100980006F646520546F67676C65202D2053686F16
:1009900077206B65797072657373657320696E205B
:1009A0006D617472697820677269640A4B3A094B09
:1009B0006579626F61726420446562756720546F67
:1009C00067676C65202D2053686F77206B657970A1
:1009D00072657373207265706F72740A4D3A0944C0
:1009E00065627567204D6F75736520546F67676C1E
:1009F000650A563A0956657273696F6E0A533A0969
:100A00005374617475730A433A094163746976617A
:100A1000746520436F6E736F6C65204D6F64650A5B
:100A200046312D4631303A09537769746368207432
:100A30006F204C6179657220302D39202846313085
:100A4000203D204C30290A302D393A0953776974FA
:100A5000636820746F204C6179657220302D390AEB
:100A600047524156453A0953776974636820746F59
:100A7000204C6179657220302028616C7465726E3B
:100A8000617465290A423A094A756D7020746F20B5
:100A9000426F6F746C6F616465720A4553433A0923
:100AA0004A756D7020746F20426F6F746C6F616453
:100AB00065722028616C7465726E617465290A45DF
:100AC0003A095072696E7420454550524F4D20537B
:100AD000657474696E67730A4241434B53504143D6
:100AE000453A09436C65617220454550524F4D0AA5
:100AF0004E3A094E4B524F20546F67676C650A009F
:100B00000A092D20436F6E736F6C65202D0A4553C3
:100B1000432F713A09717569740A002573000A0937
:100B20002D20537461747573202D0A686F73745F80
:100B30006B6579626F6172645F6C65647328293AD2
:100B400020253032580A6B6579626F6172645F707C
:100B5000726F746F636F6C3A20253032580A6B6580
:100B600079626F6172645F69646C653A2025303226
:100B7000580A6B65796D61705F636F6E6669672E89
:100B80006E6B726F3A20253032580A74696D657247
:100B90005F72656164333228293A202530386C58F9
:100BA0000A003F004E4B524F3A206F66660A004ED5
:100BB0004B524F3A206F6E0A000A6D6F7573653A9B
:100BC000206F66660A000A6D6F7573653A206F6E56
:100BD0000A000A6B6579626F6172643A206F66661B
:100BE0000A000A6B6579626F6172643A206F6E0A5F
:100BF000000A6D61747269783A206F66660A000AAD
:100C00006D61747269783A206F6E0A000A646562D9
:100C100075673A206F66660A000A64656275673A0E
:100C2000206F6E0A000A0A4A756D70696E6720743B
:100C30006F20626F6F746C6F616465722E2E2E2050
:100C400000433E2000436C656172696E6720454534
:100C500050524F4D0A004C25640A00290014001A16
:100C60000008001500170000002B00040016000704
:100C70000009000A000000E1001D001B0006001929
:100C80000005000000E000E200E30021522C4100DA
:100C90000000001C0018000C00120013004C002A79
:100CA000000B000D000E000F0034000000280011A2
:100CB0000000001000360037003800E5002A42002E
:100CC000000000E700E6002252E40035001E001F8D
:100CD000002000210022000000017C2378257827D5
:100CE00078A9002F0000002178247826782878AA97
:100CF000002F020000207801000100010001000027
:100D0000000000230024002500260027002D002ECF
:100D100000300021002200230033000000010030D9
:100D20000200001E001F002000520001004C0000C5
:100D30000000002700500051004F0035021E021F26
:100D400002200221022202000001000100010049EC
:100D5000004B004A0000000100010001004C004E61
:100D6000004D00000001000100010001004C0000E6
:100D7000000000230224022502260227022D022E53
:100D80000201000100010001003302000001000126
:100D9000000000010001000100010001000100004D
:100DA00000000001000100010001006164645F6B4C
:100DB00065795F6269743A2063616E2774206164AB
:100DC000643A20253032580A0064656C5F6B65799F
:100DD0005F6269743A2063616E27742064656C3ABF
:100DE00020253032580A005B435D005B445D005BA8
:100DF000535D005B575D005B525D0009027B0004A0
:100E00000100A0FA090400000103010100092111F9
:100E100001000122440007058103080001090401C3
:100E20000002030000000921110100012222000735
:100E300005820320000107050303200001090402C5
:100E4000000103000000092111010001226D0007CB
:100E500005840320000109040300020300000009C7
:100E6000211101000122220007058503200001074E
:100E7000050503200001120100020000000810CB4C
:100E80004712010001020001100346006F007500C7
:100E9000720069006500720000000C034B00450001
:100EA00045004200440000000403090411241FBE51
:100EB000CFEFDAE0DEBFCDBF12E0A0E0B1E0ECE3BF
:100EC000F2E602C005900D92AA36B107D9F723E0E9
:100ED000AAE6B2E001C01D92AE3CB207E1F70E9463
:100EE00054280C9476300C940000FF93EF93E0911B
:100EF0006A02F0916B02309709F00995EF91FF912A
:100F00000895FC018591803011F0EFDFFBCF08954B
:100F1000FF27E0E230E247FF0CC0419597FF09C090
:100F2000EDE26095709580959095611D711D811D14
:100F3000911D27FF02C0219530E350E2AA27660FDA
:100F4000771F881F991FAA1FA41710F0A41B639571
:100F50005A95A9F7AA3008F0A95FA05DAF93F39561
:100F6000611571058105910541F7ED3211F4EF939B
:100F7000F395F21718F43F93F395FBCF8F91B5DFFC
:100F8000FA95E1F70895E991F9918591803021F082
:100F9000853219F0AADFF9CF089520E0E894559141
:100FA0005532C1F3503311F4689455915A3348F4D3
:100FB000505390F3220F022E220F220F200D250FE7
:100FC000F4CF0EF4219589919991533619F3533743
:100FD00029F1533559F1BC0188279927E8945C36EB
:100FE00021F48991999168945591543639F446EFDA
:100FF0007EF077FF0DC08FEF9FEF0AC055374AE0B4
:1010000039F0583540E121F0523642E009F00895B8
:10101000FF93EF937DDFEF91FF91B7CFFF93EF93B6
:10102000FC0181918030B9F360DFFBCFFF93EF9338
:1010300068DFF1CFDF93CF93CDB7DEB72596A3DF7F
:10104000CF91DF910895482F2091CA039091910389
:1010500057E0291302C080E0089530E0529FF0016C
:10106000539FF00D1124EE56FC4F8181681306C08A
:101070008081481303C085818111EECF2F5F3F4FE0
:101080002770E7CFFC01AC014C5F5F4F8FEF91E31E
:101090002191822728E030E087FF09C0880F892747
:1010A00021503109C9F7E417F50791F70895880F22
:1010B000F7CFE8EDF0E080818E7F80831092E20030
:1010C0001092DA001092E100A0EEB0E08C91816005
:1010D0008C9380818F77808319BCA7EDB0E08C91D1
:1010E0008E7F8C9380818F7E808310927A03089507
:1010F0002091E4003091E50095E6A9012091EC00F3
:10110000822F817020FF06C08091E80080FF06C01A
:1011100080E008952091E80022FD1AC080918703A5
:10112000882389F0853089F08091EB0085FD0FC020
:101130002091E4003091E50042175307F9F29150F5
:10114000E1F684E0089582E0089583E0089581E067
:1011500008958091890387FF13C08091E80082FF82
:1011600006C08091E8008B778093E80004C08091EE
:1011700087038111F2CF0895809187038823D9F3E3
:101180008091E80080FFF8CF8091E8008E77ECCF67
:10119000982F9093E900242F762F50E0891731F093
:1011A0007091EC002091ED005091F00021FD07C0FE
:1011B0009F5F973071F78093E90081E00895309147
:1011C000EB003E7F3093EB003091ED003D7F30939C
:1011D000ED003091EB0031603093EB007093EC0048
:1011E0002093ED005093F0002091EE0027FDE0CF1A
:1011F00080E00895B0E0A0E0E0E0F9E00C94782F02
:10120000C8EDD0E088818F7E8883E7EDF0E08081B3
:101210008160808384E082BF81E080937A0388814B
:101220008E7F888302EE10E0F80110821092DA00BF
:1012300081EEC82ED12CF601108288818F778883A9
:1012400088818068888388818F7D888319BC10920B
:10125000870310928803109286031092850390EE04
:10126000E92EF12CF70180818B7F8083888181605A
:10127000888342E060E080E00E94C808F601808137
:101280008E7F8083F8018081816080838081886087
:101290008083F70180818E7F80838881806188834D
:1012A000CDB7DEB7E8E00C94942FFC0180918F035A
:1012B0009091900386179707A0F06115710529F4A6
:1012C0009091E8009E779093E80090E06115710599
:1012D00051F4911108C08091E80082FF34C080E091
:1012E0000895BC01F2CF809187038823C1F1853036
:1012F000C1F18091E80083FD30C08091E80082FD5B
:10130000EACF8091E80080FFE1CF8091F300209147
:10131000F200382F6115710519F02830310558F0A9
:1013200091E02830310509F090E02091E8002E7717
:101330002093E800CBCF81918093F1006150710937
:101340002F5F3F4FE7CF80918703882341F085309F
:1013500041F08091E80083FFBECF81E0089582E0F4
:10136000089583E00895089580917C03089587E7A8
:1013700097E7909301088093000888E19AE00FB600
:10138000F894A895809360000FBE90936000FFCF03
:101390009C014FB7F8948091730390917403A091CE
:1013A0007503B09176034FBF821B930B08952FB73F
:1013B000F894609173037091740380917503909118
:1013C00076032FBF08952FB7F894809173039091FF
:1013D0007403A0917503B09176032FBF0895A3E025
:1013E000B0E0E5EFF9E00C947E2F20916D03309191
:1013F0006E0328173907A1F090936E0380936D0355
:10140000E0916B03F0916C03309751F024E0298355
:101410009B838A830084F185E02DCE010196099596
:101420002396E2E00C949A2FA3E0B0E0EAE1FAE020
:101430000C947E2F2091690330916A032817390795
:10144000A1F090936A0380936903E0916B03F0919C
:101450006C03309751F023E029839B838A830084B7
:10146000F185E02DCE01019609952396E2E00C94DA
:101470009A2F80916703882359F0E0916B03F091D4
:101480006C03309729F00190F081E02D09950895C3
:1014900080E00895FA01811101C0FB0109950895CA
:1014A00080915E03982F9C7F39F480915E03837056
:1014B000846080935E0308958830B8F70895F894A7
:1014C000E82FE295EF70F0E031A1282F2F7081E036
:1014D00090E001C0880F2A95EAF7982F9095932302
:1014E00091A392A1892B82A3789408950F931F93BF
:1014F00080916703882329F00E94D7091F910F91DB
:1015000008950E94D70900911003109111032091B2
:10151000120330911303600F711F821F931FEECFD0
:101520009091700392FF10C041E0282F2471243065
:1015300009F040E031E0282F2871283009F030E030
:10154000431711F02CE0822793FF10C041E0282FB1
:101550002471243109F040E031E0282F287128312E
:1015600009F030E0431711F02CE08227309171032D
:1015700030FF10C051E0282F2171213009F050E0D8
:1015800041E0282F2871283009F040E0541711F06D
:1015900029E0822731FF10C041E0282F217121313D
:1015A00009F040E031E0282F2871283109F030E0BF
:1015B000431711F029E0822794FD877E0895823831
:1015C0009105B9F1B0F48133910509F47DC048F477
:1015D0008932910509F46DC08A32910509F47BC006
:1015E00008958533910509F45FC08933910509F1A8
:1015F0000895833E9105D9F138F4803E910529F193
:10160000823E910579F10895863E9105D9F1873E94
:10161000910509F43EC0843E910541F52091710386
:1016200021FF24C08091700384FD19C087EE90E0F3
:10163000089520917003237009F05AC0209171031E
:1016400023FF14C089E290E008952091700320FDEB
:1016500038C03091710330FF09C024FF43C090E0CF
:1016600080E008952091700322FDF7CF0895209126
:10167000700322FD3AC03091710330FD39C024FF60
:10168000F5CFEDCF2091700323FFF0CF24FDE7CFFE
:10169000CDCF2091700323FD2EC03091710331FF17
:1016A000EECF84EE90E008952091700325FFDECF09
:1016B000C9CF2091700325FD21C02091710323FF24
:1016C000D5CF89E390E0D2CF2091700326FFCECF13
:1016D0008AE290E008952091700326FFC7CF81E34E
:1016E00090E0089583EE90E0089582EE90E00895F2
:1016F00080EE90E0089586EE90E0089585E390E016
:1017000008951F93CF93DF930E94DF0AEC01C11568
:1017100080E5D807F0F5C11580E4D80708F09CC033
:10172000C03ED10520F5CD3CD10508F082C0C83AB5
:10173000D10578F4C53AD10508F073C0C130D105A0
:1017400019F1209709F1C430D105F0F4D0E0C0E0E0
:101750001BC0C33CD105D0F7C85AD0E0CC0FDD1F69
:10176000CF5EDD4F0990D881C02DD4640DC0C11566
:1017700080E2D80708F0D1C0C11581E0D80708F091
:101780005AC0C83ED10510F7CE01DF91CF911F910D
:101790000895C03682E5D80718F5C03482E5D80729
:1017A00008F06BC0C03282E5D80708F05FC0C115F1
:1017B00082E5D80708F497C02C2F2695269580E25D
:1017C000289F900111248C2F8370C1E0D0E002C0CB
:1017D000CC0FDD1F8A95E2F7C22BD32BDD68D4CF67
:1017E000C03A82E5D80760F4C03882E5D80708F42B
:1017F00059C0CF71D0E0DC2FCC27C46FD06AC4CFE2
:10180000C03C82E5D80708F462C0C03E82E5D80734
:1018100008F09CCFDC2FCC27CC27DF71C06FD06ABB
:10182000B3CFC55AD0E0C25FDD4FC881D0E0D064ED
:10183000ABCFD065A9CF8D2F0E94900A182FCE0173
:1018400099270E94DF0AC12FD0E0DC2FCC27CC27BC
:10185000DF71C82BD92B98CFCE0199270E94DF0AC0
:10186000CC27DF70C82BD92BD06A8ECFCF71D0E0B8
:10187000DC2FCC27C16FD06A87CF2C2F26952695D9
:10188000277080E2289F900111248C2F8370C1E083
:10189000D0E002C0CC0FDD1F8A95E2F7C22BD32B1C
:1018A000DC6872CF2C2F26952695277080E2289F22
:1018B000900111248C2F8370C1E0D0E002C0CC0FC6
:1018C000DD1F8A95E2F7C22BD32BDA685DCF8C2F10
:1018D0008F710E94900AC82FD0E0DC2FCC27CC2734
:1018E000DF71D06251CF8C2F8F710E94900A55E02A
:1018F000D695C7955A95E1F7CF70D0E0DC2FCC276D
:10190000282F30E084FF05C044E0220F331F4A95A2
:10191000E1F7C22BD32BD06937CF8D2F8F710E9467
:10192000900A182FCE0199270E94DF0AC12FD0E01C
:10193000DC2FCC27CC27DF71C82BD92BD2CF8095B9
:101940009091DD0298239093DD0208958091DD024D
:101950009091B402892B9091B302992391F0892B35
:1019600090913001992371F09091700397FF0AC014
:101970009EE126E732E040E0915040F441111092A0
:10198000B302089596E02EE632E0F5CFF9015191C9
:101990009F01552389F34F5FEFCF8091CA03909148
:1019A0009103981301C008958F5F8770FACF292F94
:1019B000983078F5873068F590E037E0239F800D08
:1019C000911D1124682F677023E0969587952A95BD
:1019D000E1F7FC01EE0FFF1FE80FF91FEA56FD4F7C
:1019E00050E040E080E0219130E0062E02C03695C4
:1019F00027950A94E2F721703327042E01C0220FA5
:101A00000A94EAF7822B4F5F5F4F4330510559F735
:101A1000089580E00895292F983098F5873088F54B
:101A200090E037E0239F800D911D1124282F27700F
:101A300041E001C0440F2A95EAF723E09695879587
:101A40002A95E1F7FC01EE0FFF1FE80FF91FEA5698
:101A5000FD4F30E020E070E05191DF011197CB01A4
:101A6000022E02C0969587950A94E2F781708195BF
:101A70008527842385278C932F5F3F4F23303105A3
:101A800059F7089580931E03089590911E0321E055
:101A900030E0F90101C0EE0F8A95EAF7D90102C0E2
:101AA000AA0FBB1F6A95E2F7EA2B01C0220F4A95E5
:101AB000EAF7892F8E23E81305C0292B822F0E9475
:101AC000420D089520952923F9CF21E030E001C08F
:101AD000220F8A95EAF7209580911E0382230E94A7
:101AE000420D08959091B202809589238093B202AD
:101AF000282F277069F4891759F09091710392FF8C
:101B000007C08695869586950E94650D1092B20253
:101B1000089521E030E001C0220F8A95EAF7809114
:101B20001E03822B0E94420D08958093DE020895C9
:101B3000829590E09C01220F331F220F331F2C7CD3
:101B400095958795959587958373282B30E0C901E6
:101B5000880F991F8A7A359527952575822B0895C8
:101B60009FB7F894109278039FBF909187039430A9
:101B700009F048C02091E9002F703091EC00932FBC
:101B8000917030FD90E8922B25E02093E9002091A0
:101B9000EB0020FF34C02091EE0027FF30C02091E1
:101BA0007703222321F02091E80025FF28C010921E
:101BB000770326E03091E80035FF14C08093F100F0
:101BC0008091E80085FD27C08091E80080FFFCCF70
:101BD0008091E8008E778093E8009F709093E900F1
:101BE00080E0089530918703343049F43091EB0060
:101BF00035FD05C0215041F481E0809377039F704B
:101C00009093E9008FEF0895EFE9FFE03197F1F746
:101C100000C00000CFCF8FB7F89421E02093780365
:101C20008FBFDBCF0F931F93CF93DF938B01EA011D
:101C300090918703943061F58093E9008FEF909144
:101C4000E800815095FD06C095ED9A95F1F70000EA
:101C50008111F5CF8091E80085FF1AC00E947808B5
:101C6000811111C08091E80085FD06C08091E800D7
:101C70008E778093E800F2CFF80181918F018093F5
:101C8000F100219779F78091E8008E778093E80042
:101C9000DF91CF911F910F91089543E050E0BC0177
:101CA00084E00E94120E089540E250E0BC0184E0FE
:101CB0000E94120E0895CF93DF93EC0148E050E0AC
:101CC000BC0181E00E94120E88E0FE01ADE7B3E0A6
:101CD00001900D928A95E1F7DF91CF91089560917F
:101CE0002C0180915E0380FF20C080912B0143E096
:101CF000849FC00111248C5C9C4F539A2BB1277F89
:101D00003BB138605FB7F894FC01649FE00DF11DB2
:101D10001124BF0168177907D1F45FBF8FE594E004
:101D20000197F1F700C00000089580912D01909176
:101D30002E0123E0829FF0011124EC5CFC4F8917F7
:101D4000A0F61182108212828F5F3396F8CFFC01C9
:101D50004191CF01E8E03BB9000000C047FF2BB93B
:101D6000440F000000C000C000C02BB900C0EA95BD
:101D700091F7D0CF90913001992359F19091700350
:101D800097FF27C0E82FE695E695E695EE3180F4BB
:101D9000F0E0EC58FD4F282F277081E090E001C063
:101DA000880F2A95EAF78095928189238283089586
:101DB00090916F0390FF19C01F928F9389EC9DE063
:101DC0009F938F930E941A080F900F900F900F907F
:101DD0000895EEE6F2E09191891303C0DF011197B7
:101DE0001C9292E0E437F907B1F708959091300121
:101DF000992349F19091700397FF25C0E82FE6954C
:101E0000E695E695EE3170F4F0E0EC58FD4F877002
:101E100021E030E001C0220F8A95EAF78281822B0F
:101E20008283089590916F0390FF1EC01F928F933D
:101E30008BEA9DE09F938F930E941A080F900F905A
:101E40000F900F900895AEE6B2E0EFEF90E02D9185
:101E5000821751F0EF3F19F4211101C0E92F9F5F64
:101E60009630A9F7EF3F09F408950E2E000CFF0BF2
:101E7000E459FD4FD5CF80915E038E7F80935E0342
:101E800080916F0380FF0CC01F921F9280E696E046
:101E90009F938F930E941A080F900F900F900F90AE
:101EA000809133038160809333030E946F0E089505
:101EB000B0E0A0E0EEE5FFE00C94732F7C015B0145
:101EC000842E752E69018091EB0201E010E08A30CA
:101ED00010F40AE010E0C1E0D0E0B501C701F6015E
:101EE0000995982E811114C021960C171D07B4F482
:101EF00080916F0380FF0CC07F928F928CEB93E0F8
:101F00009F938F930E941A080F900F900F900F903D
:101F1000892DCDB7DEB7EDE00C948F2FCC9F9001CB
:101F2000CD9F300D300D112490E080E045E34A95BF
:101F3000F1F70000019628173907C1F7CECFCF93EC
:101F4000C82F6FEF811163E285E290E00E942C3090
:101F50006FEFC11162E186E290E00E942C306FEFDA
:101F6000C11165E087E290E00E942C30CF91089586
:101F7000CF93DF93C9EED1E060E0CE010E942C3018
:101F80002196C11584E0D807B9F7DF91CF91089564
:101F90001F93CF93DF93122F8430E0F46830D0F496
:101FA0004730C0F4C42FD0E0CC0FDD1F9EE0699F06
:101FB000C00DD11D112490E7899FC00DD11D1124A2
:101FC000632FCE0189960E942C30612FCE018A9614
:101FD0000E942C30DF91CF911F910895B0E0A0E0D6
:101FE000E4EFFFE00C94782F9BE5E92E9CE0F92EBE
:101FF000D12C8701C12C1CC04C2F83E021E030E0A4
:10200000D81641F0FE01EE0FFF1FE00FF11F859182
:1020100094919C016C2D8D2D0E94C80F2196C73084
:10202000D10551F7C394025F1F4F88E0C81619F01D
:10203000D0E0C0E0E1CFD39480E7E80EF11C84E06B
:10204000D812D7CFCDB7DEB7E8E00C94942F80E05C
:102050000E949F0F60E088E290E00E942C300E9476
:10206000EE0F0E94B80F81E00E949F0F089585E255
:1020700090E00E940830833289F486E290E00E946A
:102080000830823159F487E290E00E94083091E0F4
:10209000853009F090E0892F8170089580E0FCCFB1
:1020A0000F931F93CF93DF93843030F5683020F582
:1020B000473010F5C42FD0E0CC0FDD1F2EE0629F1B
:1020C000C00DD11D112430E7839FC00DD11D1124F7
:1020D000CE0189960E940830082F10E0102F0027AB
:1020E000CE018A960E9408309801282BC901DF9101
:1020F000CF911F910F91089590E080E0F8CF462F87
:10210000783040F4673030F4843020F4672F0E9438
:102110005010089590E080E00895CF92DF92FF92F2
:102120000F931F93CF93DF936C0100911E03809157
:10213000DE02082BC3E0D0E010E0FC2EC8010C2E1C
:1021400002C0959587950A94E2F780FD0CC021970F
:10215000A0F7F12C8F2DDF91CF911F910F91FF9060
:10216000DF90CF900895B6018C2F0E947F100E94BF
:10217000810B019761F3EECFCF93DF93EC010E94C7
:102180008D10BE010E947F100E94810BDF91CF91C4
:102190000895FC0124812223C1F0808191810E9455
:1021A000BC1092959F70963091F058F4925F9F709A
:1021B000923058F4803F19F030F4883E30F481E0DA
:1021C00008959A5FF4CF843FD1F380E00895883E6C
:1021D000B0F3813FD1F7F3CFA6E0B0E0E2EFF0E15A
:1021E0000C947D2F49835A8349815A819923A1F008
:1021F000222391F0CA010E948D10182F682F898127
:102200009A810E940B0D69817A81812F0E947F1033
:102210002696E3E00C94992FCA010E94D70C182F40
:10222000F2CF90E080E00E941630863E9E4F19F477
:102230000E943710089580E00895B0E0A0E0E3E246
:10224000F1E10C94742F49015A016B017C010E9449
:10225000500A8401A4016A2D7B2D88E090E00E9441
:102260003E3094014A2D5B2DB601C70100E20E9469
:10227000ED2F622F84E290E00E942C30CDB7DEB7C4
:10228000ECE00C94902FB0E0A0E0E9E4F1E10C94D4
:10229000742FD82FC62F142F822E00915E0300FFBB
:1022A0006EC080915F038D1308C080916003861318
:1022B00004C080916103841729F080913303826008
:1022C00080933303E02FE695E695F0E0EC5AFD4F5E
:1022D000808180933103802F8C7F8430D1F4E12F73
:1022E000F0E0E656F94FC1114FC02491F22FE22FD2
:1022F00000FF0FC080912D0190912E0133E0839F4C
:10230000D0011124AC5CBC4F891708F4B2C00E9404
:102310006F0ED0935F03C093600310936103882016
:1023200009F4B1C020915E03609162037091630370
:102330003D2F4C2F512F80916403909165030E9493
:102340001D1180916F0380FF1AC0809161031F925D
:102350008F93809160031F928F9380915F031F92F0
:102360008F9381EC97E09F938F930E941A088DB70B
:102370009EB708960FB6F8949EBF0FBE8DBFCDB71F
:10238000DEB7ECE00C94902FEC2EF12CE4919E2E15
:10239000CE2ED12C26E0D29FC00111242FEF30E0A9
:1023A000B9010E94B12F8D2F90E0880F991FF5E59C
:1023B000F69FA001F79F500D1124841B950BB82E9A
:1023C000BB0CB80EA9014E195F094C9DC0014D9D73
:1023D000900D5C9D900D1124F92FCB9DA00111242F
:1023E000452F5527D901A41BB50BAC9DA001AD9D70
:1023F000500DBC9D500D1124D901AB19B1095D01DF
:10240000AE9CD001AF9CB00DBE9CB00D1124AB2F83
:10241000BB272A1B3B0B2C9DD0012D9DB00D3C9D55
:10242000B00D11242B2F62307105A1F050F461150D
:10243000710509F45DCF6130710581F0292FF52F09
:1024400057CF6430710569F080F06630710509F48A
:102450004FCFF4CF2E2FE92FFB2F4ACF2E2FE52F72
:1024600047CF292FFE2FEB2F43CFE92FF92D252F13
:102470003FCF1196EC9311972C931296FC931297E1
:102480008F5F139641CF80916F0380FF78CF1F92AB
:102490001F931F92CF931F92DF938AE997E09F9338
:1024A0008F930E941A08ADB7BEB718960FB6F8946E
:1024B000BEBF0FBEADBF63CFEEE5F3E0438121E1C8
:1024C000421B08F440E021E0628181810E944311B7
:1024D0000895EEE5F3E0438121E1420F08F44FEF68
:1024E00021E0628181810E9443110895EEE5F3E0CD
:1024F000628121E1621B08F460E021E04381818177
:102500000E9443110895EEE5F3E0628121E1620F3C
:1025100008F46FEF21E0438181810E944311089507
:10252000EEE5F3E0818121E04381628188500E94E1
:1025300043110895EEE5F3E0818121E0438162815A
:10254000885F0E944311089580916203882319F0E7
:1025500081508093620320915E0330915F0340912C
:1025600060035091610360916203709163038091F5
:102570006403909165030E941D1108958091620388
:10258000833018F48F5F8093620320915E03309153
:102590005F03409160035091610360916203709109
:1025A000630380916403909165030E941D11089557
:1025B00020915E0320FF38C02370246020935E03C7
:1025C00080913303816080933303662371F13091EE
:1025D0005F034091600350916103609162037091C9
:1025E000630380916403909165030E941D118091A3
:1025F0006F0380FF10C080915E03869586951F92C1
:102600008F938BE096E09F938F930E941A080F9010
:102610000F900F900F9020E0409161036091600354
:1026200080915F030E944311089580916F0380FFA2
:10263000F2CF1F9281E08F938DEE95E0E4CF8091F1
:102640005E03816080935E0380916F0380FF0DC005
:102650001F9281E08F9387E296E09F938F930E9471
:102660001A080F900F900F900F9080915E0360E01A
:10267000869586950E94D812089580915E0386956E
:102680008695815009F481E061E00E94D812089596
:1026900061E081E00E94D8120895EEE5F3E085E064
:1026A000808311828FEF828383831482A1E3B3E05E
:1026B00012968C911297836012968C93758125E007
:1026C00030E04FEF5FEF60E0868197810E941D113F
:1026D0000895CF93C82F8091710382FB992790F9B9
:1026E0009C17F9F0C0FB82F980937103609170032D
:1026F0007091710384E090E00E944A3082E00E9471
:10270000720D80916F0380FF0CC01F92CF9380E207
:1027100093E09F938F930E941A080F900F900F9051
:102720000F90CF910895A4E0B0E0E9E9F3E10C94B3
:102730007D2F4091F4025091F5026091F602709164
:10274000F7022FB7F8948091730390917403A091CE
:102750007503B09176032FBF841B950BA60BB70BA7
:1027600011E084369105A105B10570F10E94760A49
:102770006E5F7F4F8F4F9F4F69837A838B839C83DC
:10278000809111019091120188509D4F409110014C
:1027900050E04530510510F044E050E0BE016F5F5D
:1027A0007F4F0E946D3082E090E00E94F82E182F3B
:1027B000882351F00E94D7096093F4027093F502C8
:1027C0008093F6029093F702812F2496E3E00C9415
:1027D000992FABE0B0E0EFEEF3E10C947E2F88E0B0
:1027E000EEE5F3E0DE01119601900D928A95E1F796
:1027F0008091310390913203A091330389879A87A6
:10280000AB872B8540910C0350910D0360910E0313
:1028100070910F033FB7F894809173039091740304
:10282000A0917503B09176033FBF841B950BA60B57
:10283000B70B84369105A105B10510F4222319F1D7
:102840008091190190911A0188509D4F4091180173
:1028500050E04C30510510F04BE050E0BE016F5F8E
:102860007F4F0E946D3083E090E00E94F82E882315
:1028700069F00E94D70960930C0370930D03809355
:102880000E0390930F031092330381E02B96E2E046
:102890000C949A2FEF92FF921F93CF93DF9300D067
:1028A00000D00F92CDB7DEB77B0190E080E00E94B0
:1028B000F82E182F882309F487C04091030150E0B7
:1028C0004115510511F041E050E060910401709113
:1028D000050168507D4FCE0105960E946D304091F4
:1028E000F0025091F1026091F2027091F3022FB761
:1028F000F8948091730390917403A0917503B09143
:1029000076032FBF841B950BA60BB70B843691055E
:10291000A105B10540F489EF92E00E9442089D8133
:10292000891709F451C081E090E00E94F82E8111CE
:102930001AC010E08091EC029091ED02A091EE029D
:10294000B091EF02F70180839183A283B383812F3B
:102950000F900F900F900F900F90DF91CF911F91DC
:10296000FF90EF90089540910B0150E045305105E4
:1029700010F044E050E060910C0170910D0168503E
:102980007D4FCE0101960E946D3089EF92E00E944A
:1029900042089D818913CDCF0E94D7096093F00230
:1029A0007093F1028093F2029093F30289819A81ED
:1029B000AB81BC818093EC029093ED02A093EE0278
:1029C000B093EF0211E0B6CF8091F9029091FA0234
:1029D000A091FB02B091FC0289839A83AB83BC83F4
:1029E0001111E4CFA7CFA3E1B0E0E9EFF4E10C943B
:1029F000732F8E01045F1F4F88E0D8011D928A95C6
:102A0000E9F789E4C82E82E0D82EF12CE12CAA2423
:102A1000A394B12C24E5822E22E0922EF60181911E
:102A20006F018F3F09F442C0F894E82FE295EF70F0
:102A3000F0E021A18F70A50102C0440F551F8A95B7
:102A4000E2F7CA01922F982B91A392A18095892336
:102A500082A3789400C0EDE4F2E0712C31E0219182
:102A60002F3F09F4A3C0A22FA295AF70B0E09096BB
:102A70008C9190E02F7002C0959587952A95E2F78A
:102A800080FD94C0832F782A330F8E169F0639F766
:102A9000F601319780818F3F11F00E945F0A50EA62
:102AA0005A95F1F7F801EE0DFF1D70828FEFE81ACD
:102AB000F80AA4E0EA16F10409F0B0CF48E050E0CB
:102AC000B80184E193E00E946030009741F028E073
:102AD000F801A4E1B3E001900D922A95E1F700918D
:102AE0001D0310E0075D1C4F892B09F461C081E0D4
:102AF0008093E3020E94E3099093E2028093E10253
:102B0000E12CF0906703FF2009F4BDC019821A82FE
:102B10001B821C82D090EB02B9E0BD1508F46CC09A
:102B20002AE434E141E351E0BE016F5F7F4FC80109
:102B30000E94580F882309F484C023E933E14EE34F
:102B400051E0BE016F5F7F4FC8010E94580F88237C
:102B500009F477C029EE33E149E451E0BE016F5F2B
:102B60007F4FC8010E94580F882309F46AC0F9E01A
:102B7000FD1508F47FC01092EB0280911C0390E0D9
:102B800044E050E0BE016F5F7F4F875D9C4F0E9425
:102B9000603021E02093EA02892B09F044C0F12C37
:102BA0008F2D8E296396EDE00C948F2F80E06BCFF4
:102BB000E090E302EE2009F4A3CF8091E10290912E
:102BC000E2020E94C809059708F49ACF44E050E059
:102BD00064E173E0C8010E946030892B59F084E001
:102BE000E4E1F3E0D80101900D928A95E1F71092AB
:102BF000E30287CFE12CFBCF8091E4029091E502C4
:102C00000E94C809843F914008F08ACF8091EA026F
:102C1000882329F284E0FE013196DF011D928A9516
:102C2000E9F71092EA02E0911C03F0E0E75DFC4F47
:102C300089819A81AB81BC8180839183A283B38394
:102C4000AFCF8091EB028F3F31F08F5F8093EB022B
:102C50008A3008F492CF0E94E3099093E5028093B2
:102C6000E40280916F0380FFD1CF86E893E00E9459
:102C70008107CCCF80916F0380FF7DCF83E793E006
:102C80000E94810778CF84E0F801A9EFB2E00190BB
:102C90000D928A95E1F789EF92E00E9442088093B5
:102CA000F8028090FD029090FE02A090FF02B0908A
:102CB00000038091E6029091E702A091E802B091B2
:102CC000E90288169906AA06BB06B1F08092E602D0
:102CD0009092E702A092E802B092E9020E94D7091E
:102CE000861A970AA80AB90A8092100390921103D3
:102CF000A0921203B09213038BE0E1E0F3E0DE0157
:102D0000119601900D928A95E1F7809101038695C5
:102D1000869500910203D0900303C09004031091A4
:102D20000B0310920B03112309F43ACF10FF0BC0D1
:102D3000998190FF11C090915E03916090935E0322
:102D400060E00E94D81211FF2BCF20E04C2D6D2D9A
:102D5000802F0E94431124CF0E943B0FF4CF0F938A
:102D60001F93CF93DF9380913001882309F464C0CF
:102D70008091700387FF60C00E94A60C809375024B
:102D800040E250E065EB72E084E792E00E94603040
:102D9000892B09F44CC080E2E4E7F2E0A5EBB2E055
:102DA00001900D928A95E1F7E0916B03F0916C032D
:102DB0003097E9F186E0809374020480F581E02D7C
:102DC00084E792E0099580916F0382FF30C080FF15
:102DD0000EC0809175021F928F938DE393E09F93B5
:102DE0008F930E941A080F900F900F900F90C4E7D6
:102DF000D2E007E313E080916F0380FF0BC08A816C
:102E00001F928F931F930F930E941A080F900F9099
:102E10000F900F90219682E0C239D80761F7809118
:102E20006F0380FF04C085E393E00E948107DF9178
:102E3000CF911F910F9108950E94A60C80936C0270
:102E400048E050E065ED72E08CE692E00E94603070
:102E5000892B69F388E0ECE6F2E0A5EDB2E00190A1
:102E60000D928A95E1F7E0916B03F0916C03309736
:102E7000F1F20280F381E02D8CE692E009958091D9
:102E80006F0382FFD4CF80FF0EC080916C021F922F
:102E90008F938AE593E09F938F930E941A080F9077
:102EA0000F900F900F90CCE6D2E004E513E08091F4
:102EB0006F0380FF0BC08A811F928F931F930F9324
:102EC0000E941A080F900F900F900F90219682E0A9
:102ED000C237D80761F780916F0380FFA8CF82E5E2
:102EE00093E0A3CF1092DD02809130018823C1F0DE
:102EF0008091700387FF14C0E6E7F2E08EE1DF0106
:102F00001D928A95E9F790E080E00E94140A90E013
:102F100080E00E94EF091092B4020E94AF1608955B
:102F2000EEE6F2E086E0EBCFAAE2B0E0EAE9F7E114
:102F30000C947D2F89E893E02091F100DC012D9322
:102F4000CD01B3E081399B07B9F780918A038330C3
:102F500009F472C0B8F4813009F449C0823009F430
:102F6000B3C08091E80083FF91C280918903909162
:102F70008A039A3008F08AC2E92FF0E0E858FF4C43
:102F80000C94C52F8A3009F48EC08B3009F471C0BF
:102F9000893039F780918903813219F780918D0347
:102FA00090918E03009711F00297D9F68091E80076
:102FB000877F8093E8008091E80082FF38C090917D
:102FC000F3008091F200029731F48091F10081309A
:102FD00011F0863021F48091F10080937C03809180
:102FE000E8008B778093E8000E94A908BACF80910F
:102FF0008903813A09F0B5CF8091E800877F8093FB
:10300000E80080918D0390918E03892B61F468E034
:103010008DE793E070E00E9455098091E8008B777E
:103020008093E8009ECF60E090E080E0F3CF809155
:1030300087038111C0CF95CF80918903813A09F030
:1030400090CF80918D0390918E03892B09F089CFC9
:103050008091E800877F8093E8008091E80080FFFE
:10306000FCCF809130018093F1008091E8008E7751
:10307000B9CF80918903813209F073CF80918D039C
:1030800090918E03892B09F06CCF8091E800877FA7
:103090008093E8000E94A90880918B0380933001FF
:1030A0000E9472175ECF80918903813209F059CF57
:1030B0008091E800877F8093E8000E94A9088091B2
:1030C0008C0380937B034DCF80918903813A09F073
:1030D00048CF8091E800877F8093E8008091E800E6
:1030E00080FFFCCF80917B03BECF803899F082387F
:1030F00009F0CCC180918D038F70873008F0C6C174
:103100008093E9008091EB0085FB882780F910927D
:10311000E90006C080918503909186039111826039
:103120009091E800977F9093E8008093F1001092CF
:10313000F1008091E8008E77A5C1882309F493C13E
:10314000823009F0A3C180918B03811196C18091D7
:103150008D038F702FEF280F263008F097C18093D2
:10316000E9002091EB0020FF88C1933031F4809179
:10317000EB0080628093EB0080C19091EB00906146
:103180009093EB0021E030E001C0220F8A95EAF72E
:103190002093EA001092EA008091EB008860EACF69
:1031A000811174C110918B031F778091E3008078A7
:1031B000812B8093E3008091E800877F8093E80073
:1031C0000E94A9088091E80080FFFCCF8091E30075
:1031D00080688093E30082E0111183E0809387038D
:1031E00055C18058823008F051C120918B03309135
:1031F0008C032C3DE3E03E07A1F583E08A838AE25D
:1032000089834FB7F894DE01139620E03EE051E247
:10321000E32FF0E050935700E49120FF03C0E295C4
:10322000EF703F5FEF708E2F90E0EA30C0F0C796EE
:103230008D939D932F5F243159F74FBF8091E80004
:10324000877F8093E8006AE270E0CE0101960E94D9
:1032500055098091E8008B778093E80017C1C096EC
:10326000E7CF80918D0390918E03432F55274330F4
:10327000510509F44AC078F54130510509F47AC086
:103280008BE790E0EBEFFDE04230510509F0FEC026
:103290002091E800277F2093E80020918F03309150
:1032A00090038217930708F49C0140E02115310533
:1032B00009F065C0411163C08091E80082FDC9CF6B
:1032C00080918703882329F2853019F28091E800E4
:1032D00083FFF2CFBECF4132510509F43CC04232E8
:1032E000510509F0D3C08430910508F0CFC0FC012E
:1032F000EE0FFF1FE65AFD4F0190F081E02D8A5A34
:103300009D4FDC018C9190E01AC0332721303105AC
:10331000D1F02115310561F02230310509F0B6C038
:10332000E8E8FEE0E4918E2F90E0E8E8FEE007C0D8
:10333000E8EAFEE0E4918E2F90E0E8EAFEE00097F4
:1033400009F4A4C0A5CFEAE9FEE0E4918E2F90E055
:10335000EAE9FEE0F4CF8430910508F097C0880FC9
:10336000991FFC01EE59FD4F0190F081E02D89E09D
:1033700090E08ECF82E190E0E6E7FEE089CF809199
:103380008703882309F465CF853009F462CF8091E3
:10339000E80083FD5ECF8091E80082FD8DCF8091B3
:1033A000E80080FF83CF9091F3008091F200211517
:1033B000310519F08830910550F041E0089709F087
:1033C00040E08091E8008E778093E8006FCF4491D1
:1033D0004093F1003196215031090196E8CF8038B1
:1033E00009F054C08091E800877F8093E8008091C5
:1033F00088038093F1009DCE811148C010918B030A
:10340000123008F043C08091E800877F8093E80085
:10341000109388030E94A908112311F084E005C0CD
:103420008091E30087FDFACF81E08093870342E03B
:1034300061EC81E00E94C80842E261EC84E00E94F5
:10344000C80842E261EC82E00E94C80842E260ECF7
:1034500083E00E94C80842E261EC85E00E94C8084F
:103460008091870313C080918B03813079F481E0D0
:10347000933009F080E0809386031092E9008091F8
:10348000E800877F8093E8000E94A9088091E80007
:1034900083FF0AC08091E800877F8093E8008091D5
:1034A000EB0080628093EB00AA96E3E00C94992FE6
:1034B000CF93C82F1F928F9386E59CE09F938F93A5
:1034C0000E941A0881E001C0880FCA95EAF70E949D
:1034D000950D0E9472170F900F900F900F90CF9143
:1034E00008950E9472172FEF84E39CE021508040E2
:1034F0009040E1F700C0000088E19AE00FB6F89430
:10350000A895809360000FBE90936000FFCF882342
:1035100021F00E949F0C0E94AF160895882339F075
:103520009091DD02982B9093DD020E94AF160895D2
:10353000882309F44DC0823879F40E94390A81FF4A
:1035400047C089E30E94F60E0E94AF1689E30E94ED
:10355000BA0E0E94AF160895833859F40E94390AB2
:1035600080FF36C083E50E94F60E0E94AF1683E509
:10357000EECF843859F40E94390A82FF29C087E4CB
:103580000E94F60E0E94AF1687E4E1CF9CEF980FE1
:10359000913AE8F290E2980F983050F4877091E0F9
:1035A00001C0990F8A95EAF7892F0E949F0CD1CF0D
:1035B0009BE5980F933028F490E080E00E94140A75
:1035C0000895885A8B3120F490E080E00E94EF0942
:1035D0000895A8E0B0E0EFEEFAE10C947E2F66EEDD
:1035E0007EEF90E080E00E944A3060E082E090E070
:1035F0000E942C3081E08093DE0261E083E090E065
:103600000E942C3060E074E184E090E00E944A3037
:1036100060E086E090E00E942C306FEF87E090E061
:103620000E942C3040E050E0BA0188E090E00E9417
:103630003E3060E084E290E00E942C3060E087E160
:1036400090E00E942C3060E08CE090E00E942C30F2
:1036500060E08DE090E00E942C3019821A821B827B
:103660001C821D821E821F82188648E050E068E19D
:1036700070E0CE0101960E941C3040E050E0BA019B
:1036800080E290E00E943E3080E00E949F0F0E9406
:10369000271040E050E0BA018FE090E00E943E30F9
:1036A00040E050E0BA0183E190E00E943E3028966D
:1036B000E2E00C949A2FB0E0A0E0E1E6FBE10C948C
:1036C000792FEBEFE80FEF3308F04EC1F0E0EE5743
:1036D000FF4C0C94C52F83E090E00E9408301F92AD
:1036E0008F938EE299E09F938F930E941A0882E055
:1036F00090E00E94083083FB992790F91F929F93D6
:1037000082FB992790F91F929F9381FB992790F94B
:103710001F929F93982F91701F929F931F928F9348
:1037200085EE98E09F938F930E941A0884E090E0C2
:103730000E94163093FB222720F91F922F9387FBBC
:10374000222720F91F922F9386FB222720F91F9210
:103750002F9385FB222720F91F922F9384FB22278A
:1037600020F91F922F9383FB222720F91F922F937A
:1037700082FB222720F91F922F9391FB222720F909
:103780001F922F93292F21701F922F9381FB2227A5
:1037900020F91F922F93282F21701F922F939F9310
:1037A0008F9386EE97E09F938F930E941A088DB7B0
:1037B0009EB78A960FB6F8949EBF0FBE8DBF81E06C
:1037C0001CC085E49CE00E9481070E94E91AF7CFA3
:1037D0008BE499E00E948107F2CF80916F03807F94
:1037E00080936F0380E09BE00E94810781E49CE06E
:1037F0000E94810781E080936603CDB7DEB7E7E0E2
:103800000C94952F85E29CE00E9481070E9472171C
:103810009FEF24E38CE0915020408040E1F700C00E
:1038200000000E94B70990916F03892F8E7F90FF4F
:10383000816080936F0380FF03C089E19CE0CACF61
:103840008CE09CE00E94810780916F03817F8093D0
:103850006F03B5CF90916F03892F8D7F91FF8260A9
:1038600080936F0381FF08C08FEF9BE00E94810768
:1038700080916F038160EBCF81EF9BE0ABCF9091A4
:103880006F03892F8B7F92FF846080936F0382FF89
:1038900003C082EE9BE0EACF82ED9BE09BCF90914C
:1038A0006F03892F877F93FF886080936F0383FF67
:1038B00003C086EC9BE0DACF89EB9BE08BCF82E5FF
:1038C00091E09F938F938BE19BE09F938F930E9456
:1038D0001A080F900F900F900F9071CF0E94D70988
:1038E000062FF72EE82ED92EC0917003C7FBCC27E8
:1038F000C0F910917B03D09130010E94390ADF9208
:10390000EF92FF920F931F92CF931F921F931F92DC
:10391000DF931F928F938EE19BE09F938F930E9482
:103920001A088DB79EB70E960FB6F8949EBF0FBEBD
:103930008DBF45CF0E94721790917003892F97FB1E
:1039400087F980588093700387FF03C08FEA9BE05C
:1039500041CF84EA9BE03ECF80E00E94581A2FCFEF
:103960008953FBCF8D51F9CF82EA9BE00E948107FA
:1039700080E043CFCF93C82F8823C9F08238C9F4A1
:103980000E94390A81FD13C089E30E94F60E0E944D
:10399000AF162FEF87EE93E0215080409040E1F783
:1039A00000C0000089E30E94BA0E0E94AF16CF91BA
:1039B00008958338A1F40E94390A80FDF8CF83E589
:1039C0000E94F60E0E94AF162FEF81EE94E0215078
:1039D00080409040E1F700C0000083E5E4CF8438E8
:1039E000A1F40E94390A82FDE2CF87E40E94F60E1C
:1039F0000E94AF162FEF81EE94E02150804090405E
:103A0000E1F700C0000087E4CECF8CEF8C0F813A45
:103A100008F065C080916603882349F1813089F1FF
:103A20001092660380913001882309F44BC0809185
:103A3000700387FF47C0EC2FE695E695E695F0E02A
:103A4000EC58FD4F828190E04C2F477021E030E030
:103A500002C0220F331F4A95E2F782239323892B5A
:103A6000D1F18C2F0E94BA0E0E94AF1634C0809103
:103A7000DD028232B9F68C2F0E945B1B811197CF39
:103A8000D1CF8091DD028232B1F3C431B9F038F484
:103A9000CB3049F08AE193E00E94810711C0C9321E
:103AA00069F0C833B9F780E09BE00E9481078CE1A0
:103AB00093E00E94810781E08170E0CF109266035D
:103AC00080E0FACFEEE6F2E08191C81751F222E0F1
:103AD000E437F207C9F78C2F0E94F60E66CF80E21A
:103AE0008C0F883068F4C77021E030E001C0220FED
:103AF000CA95EAF78091DD02822B8093DD0255CFD3
:103B0000EBE5EC0FE33040F4F0E0E25FFD4F808145
:103B100090E00E94140A4BCFC85ACB3108F047CF2F
:103B2000EC2FF0E0EE0FFF1FEF5EFD4F80819181E3
:103B30000E94EF093CCF1F93CF93DF93182FD0E063
:103B4000C0E0893311F4C0E5D0E0812F0E94BA1C97
:103B5000209739F4812F0E94981ADF91CF911F91FD
:103B600008958FE99FE00197F1F700C000002197C9
:103B7000EFCF0F931F93CF93DF93C62FD42F022F36
:103B8000FC0185818823A9F06093CD030E94E3099D
:103B90009093CC038093CB03C77081E001C0880F62
:103BA000CA95EAF70E948E1ADF91CF911F910F916B
:103BB00008958091CD03681332C08091CB0390911A
:103BC000CC030E94C809883C910548F510E21D0FFE
:103BD000CD17B9F080E28C0F883040F4C77081E0D7
:103BE00001C0880FCA95EAF70E94871A183048F476
:103BF00081E09D2F977001C0880F9A95EAF70E9487
:103C00008E1A802F0E949B1D183070F6D77081E0AD
:103C100001C0880FDA95EAF70E94871AC5CFC770EE
:103C200081E001C0880FCA95EAF7F6CFA8E0B0E0BE
:103C3000ECE1FEE10C94702F8C01DC0114968C9168
:103C40001497882309F4B7C021E04C9111965C9138
:103C5000119712966C91129713967C911397159663
:103C60009C910E94EC107C01F8018581882309F465
:103C70003BC1C70197578038910508F0C5C5FFE0E3
:103C8000FE1508F489C08FEF93E00E94083081117F
:103C900083C069EEA62EBB24B394E11047C0FE0199
:103CA000339686E0DF011D928A95E9F75AE0452EAA
:103CB0007501BFEFEB1AFB0AC5010E94083089832A
:103CC0001A82882309F468C0813009F078C0650140
:103CD000E2E0CE0ED11CC7010E9408308A838823FF
:103CE00009F45AC09FEF980F933070F5F3E0AF0ED0
:103CF000B11CC6010E9408308B83882309F44CC094
:103D00001C82DE0111967D01F7012081222381F2C0
:103D1000213009F094C091818281913009F051C025
:103D2000F2E0EF0EF11C0E949B1D52C0A11424E092
:103D3000B20691F1C5010E940830811101C0EA94D8
:103D40003FEFA31AB30AA9CF56018430D1F642E05F
:103D5000E42EF12C56012FEFA21AB20AC6010E94DE
:103D60000830E1E0F0E0EC0FFD1FEE0DFF1D808359
:103D7000882391F08C3741F4E2E0F0E0EC0FFD1F76
:103D8000EE0DFF1D1082BDCF3FEFE31AF30A650170
:103D900087E0E816F104F1F68091B202877059F0DD
:103DA000F8018581882339F08091710382FF03C077
:103DB00082E00E94720D2896E0E10C948C2F57014E
:103DC000A0CF923049F422E0E20EF11C0E94BA1C0E
:103DD000EFEFEE1AFE0A98CF933031F432E0E30EA3
:103DE000F11C0E94981AF4CF943021F08FEFE81A5A
:103DF000F80AEECF92E0E90EF11C30E020E0B701C6
:103E00006F5F7F4FD70111964C918053990B8A3089
:103E1000910550F021503109D8F2EFE9FFE03197D8
:103E2000F1F700C00000F6CF429EF001439EF00D76
:103E300011249C012E0F3F1F842F7B01E0CFE22F26
:103E4000F0E0EF52FE4F5490822F8695869586952E
:103E500090E0FC01EF53FE4F64902770712C022E0E
:103E600002C0759467940A94E2F731E063227724E4
:103E7000FC01EF54FE4F8490912C022E02C09594C9
:103E800087940A94E2F7A1E08A229924FC01EF5575
:103E9000FE4FC490D12C02C0D594C7942A95E2F766
:103EA000B1E0CB22DD246114710419F081EE0E948F
:103EB000BA1C8114910419F086EE0E94BA1C852D5B
:103EC0000E949B1D8114910419F086EE0E94981A9D
:103ED0006114710419F081EE0E94981AC114D10482
:103EE00009F476CF8CE21FCFF701E851FC47E730A9
:103EF000F10508F075C4EF53FF4C0C94C52F26E272
:103F000041EE61EEC8010E94B91D46CF27E245EEA1
:103F100065EEF8CF26E241EE60EEF4CF27E245EE03
:103F200064EEF0CF26E241EE62EEECCF27E245EE02
:103F300066EEE8CF28E241E0EBCF8091700381602C
:103F40008093700395C080917103886080937103A2
:103F50008FC0809170038260F3CF80917003846082
:103F6000EFCF809170038860EBCF80917103816007
:103F7000EDCF809171038260E9CF80917003806101
:103F8000DFCF809170038062DBCF8091700380640B
:103F9000D7CF0E947217809170038068D1CF809133
:103FA00070038C60CDCF809171038360CFCF8091FF
:103FB00070038E7FC5CF80917103877FC7CF8091BB
:103FC00070038D7FBDCF809170038B7FB9CF8091BF
:103FD0007003877FB5CF809171038E7FB7CF8091BB
:103FE00071038D7FB3CF809170038F7EA9CF8091B5
:103FF00070038F7DA5CF809170038F7BA1CF0E942E
:104000007217809170038F779BCF80917003837FAD
:1040100097CF809171038C7F99CF8091700382FB41
:10402000992790F921E0922790FB82F990FB83F980
:1040300087CF80917103982F909591708E7F892BF7
:1040400090FB81F983CF90917003892F8F7B96FF2E
:10405000806476CF0E94721790917003892F97FB2E
:1040600087F980586DCF61E08EE090E00E942C309F
:10407000609170037091710384E090E00E944A3077
:104080000E94721789CE60E0EFCF90917003892F64
:104090008F7E94FF806154CF90917003892F8E7F23
:1040A00090FF81604DCF90917103892F877F93FF9F
:1040B00088604CCF85E38FC380919402811104C046
:1040C00089E20E94BA0E89C385E3FBCFF7E7EF16BA
:1040D000FCE7FF0609F045C381E00E94890D43E03B
:1040E00062E081E00E94450D57CE80916F0380FF12
:1040F00010C080915E03809581701F928F9380EC39
:1041000092E09F938F930E941A080F900F900F9048
:104110000F9020915E0320FF2EC02E7F20935E0320
:1041200030915F034091600350916103609162039D
:104130007091630380916403909165030E941D1147
:1041400080916F0380FF0FC080915E0381701F928A
:104150008F9381E592E09F938F930E941A080F90AE
:104160000F900F900F908091330381608093330301
:104170000E946F0E11CE216020935E0380916F0329
:1041800080FF0DC01F9281E08F9389E892E09F939A
:104190008F930E941A080F900F900F900F908091AC
:1041A0005E0361E0869586950E94D812F5CD4DE3B9
:1041B00053E168E473E10E944A0AEECD48E453E11A
:1041C0006DE373E1F8CF40E952E16AE972E1F3CFC0
:1041D0004AE952E160E972E1EECF46E752E163E875
:1041E00072E1E9CF43E852E166E772E1E4CF4CE5E2
:1041F00052E169E672E1DFCF49E652E16CE572E136
:10420000DACF44EA52E16EEB72E1D5CF4EEB52E1E8
:1042100064EA72E1D0CF61E081E0C6CF27E7E21621
:104220002CE7F20609F459C038E7E3163CE7F30639
:1042300009F457C0D80115968C911597ED90FC9014
:10424000882309F488C0C7010E948D10D82E682FDA
:10425000C7010E940B0DB7018D2D0E947F100E9497
:10426000810B7C01882EF801A580968092943FE016
:1042700093228091B202877009F1CA2CAA20F9F02A
:104280008F2D807F803469F080E28E0D8830B0F011
:104290008F2D807E803229F4F1E0FE1578F499208C
:1042A00069F08091710382FF09C082E00E94720D63
:1042B0008091B2028770CC24C3948111C12CBF2C91
:1042C000B2942FE0B2222BE02B1508F4ACC0EB2DFA
:1042D000F0E0E853FF4C0C94C52F81E00E94650D7F
:1042E000FECE82E0FBCFFBE5EF16FCE7FF0689F18F
:1042F0002CE5E2162CE7F20611F13AE5E3163CE76D
:10430000F30609F097CF81E021C090916F03892FC8
:104310008E7F90FF816080936F0380FF05C089E0EE
:1043200093E00E94810738CD87EF92E0FACF6FEFDC
:104330007FEF90E080E00E944A300E94711A8091E5
:10434000710382FB882780F991E089270E94691315
:1043500071CF80E0FBCFC7010E94D70CD82E7BCF56
:104360003F2D3F70D32E8F2D807F19F0D29490EF88
:10437000D922AA20B9F0DD2069F080E28E0D8830C4
:1043800010F0811009C08091DD02D82AD092DD02A0
:104390000E94AF168E2D45C08091B402D82AD092CB
:1043A000B402F6CF8E2D0E94981ADD20E1F180E252
:1043B0008E0D883010F0811004C08D2D0E949F0C4E
:1043C00006C0D0948091B402D822D092B4020E9448
:1043D000AF1629C08F2D8F70D82E8F2D807F803201
:1043E00019F0D29480EFD822882059F091E08916F4
:1043F00009F481C0AA2009F48DC0992009F44FC0A6
:10440000C9CF8091710382FD46C0AA20F1F1DD2061
:1044100039F08091DD02D82AD092DD020E94AF16D9
:1044200080E00E94BA1CAB2DA850BB0B149710F46F
:104430000E94390ACC20A9F08091B20280FD11C0FF
:10444000F80115828695869586950E94890DC8018A
:104450000E94161E8091B2028695869586950E94CE
:10446000650D20E0D8014C9111965C911197129640
:104470006C91129713967C91139714968C911497C4
:1044800015969C910E94EC1096CC80E00E94981AA0
:10449000DD2049F292CFAA20A1F0911004C08D2D09
:1044A0000E948E1AC0CFA1E09A12BDCF8091B302B4
:1044B0009D2D9823D91609F4B6CFD82AD092B302ED
:1044C000B2CF9110B0CF8D2D0E94871A9091B30278
:1044D0008D2D892329F08D2D809589238093B3021A
:1044E000809195029D2D982309F49DCFD094D822D8
:1044F000D092950298CFAA2029F0B5E0B91508F41A
:1045000092CFCDCFE4E0E91508F48DCF8D2D0E9438
:10451000871A89CF9920D1F3F9E38F1209C02FEFC1
:1045200037EE83E0215030408040E1F700C00000CA
:104530008E2D0E94981A77CF8F2D86958695837041
:1045400061F0813009F06FCFC7019370A11002C0F4
:1045500080E090E00E94EF0966CFC7019370A11040
:1045600002C080E090E00E94140A5DCF8F2D83701E
:1045700091F5A11058CF4E2D429546954770440FA6
:10458000440F8E2D8F70042E01C0880F0A94EAF715
:104590002E2D2071E4FE07C02FE030E001C0220F75
:1045A0004A95EAF720953F2D36953695337032308F
:1045B00069F050F44091DE02313029F0822B8423DF
:1045C0000E94950D30CF842B822BFACF282B80911F
:1045D000DE028227F5CF8695AA2011F08F2D8170FB
:1045E000882309F420CF4E2D429546954770440FFD
:1045F000440F8E2D8F70042E01C0880F0A94EAF7A5
:104600002E2D2071E4FE07C02FE030E001C0220F04
:104610004A95EAF720953F2D36953695337032301E
:1046200069F050F440911E03313029F0822B84232D
:104630000E94420DF8CE842B822BFACF282B80913A
:104640001E038227F5CF9F2D9F70F92EAA2029F0F7
:10465000892F0E94890D8E2D23CF8E2D0E94871ABF
:104660008F2D0E94650DDFCE8E2DA2EF8A16B1F13F
:10467000A81570F0B0EF8B16D1F0E1EF8E1691F027
:10468000AA2009F45EC0911085CE8F2D8F712AC0AB
:10469000F3EF8F1651F124EF8212F2CF8091710364
:1046A00082FD2FC08F2D8F71AA20D9F21BC0AA20A6
:1046B00081F034E0391508F4B6CE2F2D2F7181E04A
:1046C00090E001C0880F2A95EAF790911E03892790
:1046D000AFCF85E0891508F4A6CEEFCF8F2D8F716F
:1046E000A110BFCF0E94890D9ECE80E0AA2009F4C0
:1046F0009FCF9F2D9F7181E001C0880F9A95EAF7A7
:1047000097CFAA2099F09F2D9F71F92E892F0E9493
:10471000890D8091710382FF07C0A8E0FA9EC00155
:10472000112483608093B2028F2DDCCF81E00E9440
:10473000720DB1E0B91508F076CE82E00E94720DDC
:1047400072CE992059F0893309F0F2CEEFEFF7EEEF
:1047500023E0E150F0402040E1F7E8CE8F2D8F714B
:1047600080CF82E0B8E7EB16BCE7FB0609F4B5CCD6
:1047700083E0E8168CE7F80609F4D9CD08F0B3CD4C
:10478000A1E0EA16ACE7FA0609F4D7CD08F0BDCDF2
:10479000E114ECE7FE0609F04DCD0E9472178FEF91
:1047A00094E3ACE081509040A040E1F700C00000ED
:1047B0000E94B709E6E1EE16ECE7FE0609F086CCAA
:1047C0008091DD028A7A91E009F490E0909394025E
:1047D000811170CC89E20E94F60E0E94AF16DCCAED
:1047E000F6E1EF16FCE7FF0609F466CC8091DD02E6
:1047F0008272F701E052F847E531F10508F00ECD7D
:10480000EC52FF4C0C94C52FF701E851FC47E73000
:10481000F10508F470CB1092CD03C7019057839730
:1048200048F684E090E00E941630909371038093E4
:104830007003F701E150F047E232F10508F07DCB5B
:10484000E751FF4C0C94C52FCF93DF938091B102B9
:10485000807F09F04DC08091B002882309F448C0E0
:10486000E091CA0350919103C091AC02D091AB0288
:104870006091AD027091AE0247E05E17C9F18E2FD4
:1048800090E0E49FF0011124EE56FC4F2481222396
:1048900091F1489FF001499FF00D1124DF01AE56C0
:1048A000BC4F11962C9111972C1325C02C912D13D0
:1048B00022C015962C91159721111DC012962D918D
:1048C0003C91261B370B283C3105A8F48091B1029E
:1048D0008F7080618093B102E856FC4F80818F70A9
:1048E000806180838BEA92E00E94161E0E94CD0CAC
:1048F000DF91CF910895FC013196E770BECFA4E11E
:10490000B0E0E5E8F4E20C94742F8C0186E0F80145
:10491000DE011F9601900D928A95E1F7F8018481DE
:10492000E5809BEAA92E92E0B92E9091AF029111F9
:1049300028C0882319F1EE20F1F0C8010E94C910A7
:10494000F82E8823C1F087E0F801D50101900D927F
:104950008A95E1F78091AF02813031F48091AB020A
:104960009091AC020E94BC100E9424248F2D64966A
:10497000ECE00C94902FC8010E94161EFF24F394C3
:10498000F5CFD080C18082809380F090B0022091DA
:10499000AD023091AE02A401421B530BFF2009F47B
:1049A000D9C0483C510508F092C08823F9F2909193
:1049B000AC028091B102282F207F09F056C0C912A5
:1049C00014C09091AB02D91210C0E11048C08F7092
:1049D00080618093B1028BEA92E00E94161E809162
:1049E000B102F8018683F12CC1CFE11038C06C2DE3
:1049F0008D2D0E9423086C2D8D2D0E942308E82EFA
:104A00008111F1CFDF86C88A8F8598890E94BC10FA
:104A1000292F22952F70243058F49F70223088F06F
:104A2000992399F0F8019681907F79F4FE2C9ECF1E
:104A30002A5F2F70223068F0C8010E94161EEF2CEA
:104A4000F5CF992311F0882389F3805E883070F3C5
:104A5000F3CF803F58F3815F833070F7E7CF8091C9
:104A6000B10281608093B102BECFC91207C090919C
:104A7000AB02D91203C0EE2009F48DC0C8010E9418
:104A8000C910882309F477CFEE2009F474CF809100
:104A9000B102803288F02091AB023091AC023987AC
:104AA00028879B868A869091AF029C871D868E8779
:104AB000CE0108960E94161E87E0F801ABEAB2E02C
:104AC00001900D928A95E1F70E94242457CF90918E
:104AD000B102292F207F51F48BEA92E00E94161E2A
:104AE00087E0F50111928A95E9F77DCF882309F4D3
:104AF0003DCF8091AC028C1110C08091AB02D812D6
:104B00000CC0E1100AC09683C8010E94161E87E0FF
:104B1000F50111928A95E9F729CFC8010E94C910C1
:104B2000882309F428CFEE2009F425CF8091B10223
:104B3000803210F22091AB023091AC023A8329838B
:104B40009C828B829091AF029D831E828F83CE01C7
:104B50000196B0CF483C5105D0F6882309F40ECF1A
:104B6000FE2CEE2009F407CF8091AC028C1120C0FE
:104B70008091AB02D8121CC08091B10280FD0FC0A1
:104B8000982F907F61F08683903F31F0982F907F2F
:104B9000905F8F70892B8683C8010E94161E87E064
:104BA000F801ABEAB2E001900D928A95E1F7DECE12
:104BB000C8010E94C91081117FCF8091B10281602C
:104BC0008093B102C8010E94161ED0CEABE1B0E0C6
:104BD000ECEEF5E20C947C2F4E8B5F8B688F798F17
:104BE0008A8F9B8F192F91111092B4021D8A86E033
:104BF000FE017696DE011F9601900D928A95E1F7EF
:104C00000A8D002341F021E04F85588969897A890E
:104C1000C8010E94EC100B8B1C8B87E0FE013F96B5
:104C2000DE01189601900D928A95E1F7CE01089663
:104C30000E947F2481110CC087E0FE013896DE01BE
:104C4000119601900D928A95E1F78C8581110BC028
:104C500017E08091CA0390919103891331C06B963C
:104C6000E4E00C94982F2091910330E0C901019663
:104C7000877099274091CA034817190699F097E061
:104C8000929FD001939FB00D1124AE56BC4FFE01F0
:104C9000319601900D929A95E1F7809391030E94CD
:104CA000CD0CD6CF0E947217109291031092CA03B6
:104CB00087E0EBEAF2E0DF011D928A95E9F7C8CFC1
:104CC000819FC00111248E569C4F0E947F2488230F
:104CD00031F28091CA0390E0019687709927809302
:104CE000CA03B7CFA6E0B0E0E8E7F6E20C947C2F69
:104CF0000E94E3098C018091DF029091E00280170D
:104D0000910781F019821A820E94E309682F498174
:104D10005A81792F80E090E00E94E6251093E0020E
:104D20000093DF022696E4E00C94982F1F920F92D6
:104D30000FB60F9211242F933F934F935F936F936E
:104D40007F938F939F93AF93BF93CF93DF93EF9313
:104D5000FF93D091E900DF708091EC00C82FC17003
:104D600080FDC0E81092E9008091F000877F809379
:104D7000F00078940E9494171092E9008091F0005E
:104D800088608093F000CD2BCF70C093E900FF9135
:104D9000EF91DF91CF91BF91AF919F918F917F91D3
:104DA0006F915F914F913F912F910F900FBE0F9098
:104DB0001F9018951F920F920FB60F9211242F93E8
:104DC0003F934F935F936F937F938F939F93AF9393
:104DD000BF93EF93FF938091E10082FF15C0809114
:104DE000E20082FF11C08091E1008B7F8093E1009F
:104DF000209179032F5F822F62E30E94A52F9923D0
:104E000009F4C0C0209379038091DA0080FF28C0A4
:104E10008091D80080FF24C08091DA008E7F80933B
:104E2000DA008091D90080FFE3C080E189BD82E192
:104E300089BD09B400FEFDCF81E08093870387EE32
:104E40009DE00E94810780917A03811109C00E9430
:104E500059080E94FA088091E20084608093E20081
:104E60008091E10080FF1BC08091E20080FF17C0AD
:104E70008091E2008E7F8093E2008091E200806169
:104E80008093E2008091D80080628093D80019BCA2
:104E900085E0809387038FEE9DE00E9481078091DB
:104EA000E10084FF2FC08091E20084FF2BC080E1ED
:104EB00089BD82E189BD89B5982F917080FFFBCFB4
:104EC0008091D8008F7D8093D8008091E1008F7E03
:104ED0008093E1008091E2008F7E8093E2008091D8
:104EE000E20081608093E20080918803882309F4C6
:104EF00089C084E08093870383EF9DE00E9481074F
:104F0000809187038091E10083FF2BC08091E200B4
:104F100083FF27C08091E100877F8093E10082E0DA
:104F200080938703109288038091E1008E7F8093A5
:104F3000E1008091E2008E7F8093E2008091E200A8
:104F400080618093E20042E060E080E00E94C80857
:104F50008091F00088608093F00087EF9DE00E94D0
:104F60008107FF91EF91BF91AF919F918F917F91B9
:104F70006F915F914F913F912F910F900FBE0F90C6
:104F80001F9018951092790380917803882309F473
:104F90003BCF809187038430C1F49091E9009F70EA
:104FA0002091EC00822F817020FD80E8892B95E014
:104FB0009093E9009091EB0090FF04C09091EE0077
:104FC00097FD08C08F708093E900109278031CCF82
:104FD0001092F1009091E80095FDFACF9091E800D1
:104FE00090FFF0CF9091E8009E779093E800EACF91
:104FF00019BC109287038BEE9DE00E9481071092EE
:105000007A032ECF8091E30087FD93E0909387038E
:1050100073CF78941F921FB61F9211248F939F9382
:10502000AF93BF938091730390917403A091750324
:10503000B09176030196A11DB11D809373039093E7
:105040007403A0937503B0937603BF91AF919F91C2
:105050008F911F901FBE1F9018951F921FB61F9211
:1050600011248F939F93AF93BF938091720381110B
:1050700013C08091730390917403A0917503B09154
:1050800076034196A11DB11D809373039093740321
:10509000A0937503B0937603BF91AF919F918F91C9
:1050A0001F901FBE1F901895CDB7DEB7A6970FB6FD
:1050B000F894DEBF0FBECDBF85B7806885BF85B7CA
:1050C000806885BF84B7877F84BF0FB6F894A895A2
:1050D00080916000886180936000109260000FBE34
:1050E00080E890E00FB6F89480936100909361009F
:1050F0000FBE80EB9DE090936B0280936A020E944A
:1051000059080E94FA088091E20084608093E200CE
:105110007894809187038823A1F01091E9001F7093
:105120009091EC00892F817090FD80E8182B1092EF
:10513000E9008091E80083FD0E9494171F7010938E
:10514000E90082E084BD93E095BD9AEF97BD80931E
:105150006E0010921003109211031092120310921D
:1051600013030E943710811102C00E942710809102
:10517000D80080618093D8002AE12A95F1F700C019
:105180008091D900182F117080FD04C00E94590829
:10519000109287031093670352985A988FE891E012
:1051A0000197F1F700C0000099B1292F247092FBFC
:1051B000882780F98093680380932001222309F4D3
:1051C0006BC010922B0187E080932C0180916703C4
:1051D00081110E940C2E809120018091200194E089
:1051E000811190E090931D0384E0891B80931C0340
:1051F00084EF0E945F0A87E90E945F0A86EC0E94A2
:105200005F0A84E30E945F0A0DE412E0E4E5EE2EFB
:10521000E2E0FE2ED8018D918D018F3F11F00E94AA
:105220005F0AE016F106B1F788E0E9E2F3E0DF019A
:10523000282F1D922A95E9F7E4E1F3E0DF011D92A2
:105240008A95E9F70E941111811102C00E94E91AA2
:1052500082E090E00E94083080936F0384E090E049
:105260000E94163090937103809370030E94F31490
:10527000EFE3FCE93197F1F700C000000E94F3145E
:105280008091290380FF0CC06FEF7FEF90E080E0FA
:105290000E944A300E94B70987E080932B0194CF87
:1052A00083E090E00E9408300E94950D80911F03DA
:1052B000811137C180916F0380FF14C084E395E0B2
:1052C0009F938F930E941A0880916F030F900F9005
:1052D00080FF08C08EE195E09F938F930E941A088B
:1052E0000F900F900E941111811110C080916F03D7
:1052F00080FF08C086EF94E09F938F930E941A0866
:105300000F900F900E94E91A0E944D1388E090E0E0
:105310000E9410304B015C0184E290E00E94083052
:10532000282F30E040E050E060E070E080E090E066
:1053300000E20E94D22F282939294A295B2920938B
:105340005E0330935F034093600350936103609367
:105350006203709363038093640390936503809169
:1053600033038360809333032C7FF1F580916F03C7
:1053700080FF08C08DEA94E09F938F930E941A08E3
:105380000F900F900E944D1388E090E00E94103023
:105390006B017C0184E290E00E940830282F30E00D
:1053A00040E050E060E070E080E090E000E20E94C9
:1053B000D22FB22FA32FF42FE52F5B019701860187
:1053C000BC29A12BFE29E32BB0935E03A0935F03BE
:1053D000F0936003E093610360936203B092630310
:1053E00080936403909365030E94500A80916F0339
:1053F00080FF8BC084E994E09F938F930E941A08EA
:1054000080916F030F900F9080FF7FC080915E03AB
:1054100081701F928F9387E794E09F938F930E94F0
:105420001A0880916F030F900F900F900F9080FFDC
:105430006CC080915E03869581701F928F9387E583
:1054400094E09F938F930E941A0880916F030F90AE
:105450000F900F900F9080FF58C080915E0386954B
:1054600086951F928F938CE394E09F938F930E9475
:105470001A0880916F030F900F900F900F9080FF8C
:1054800044C080915F031F928F9382E294E09F93C8
:105490008F930E941A0880916F030F900F900F90C6
:1054A0000F9080FF32C0809160031F928F9388E03D
:1054B00094E09F938F930E941A0880916F030F903E
:1054C0000F900F900F9080FF20C0809161031F927A
:1054D0008F938EEE93E09F938F930E941A08809192
:1054E0006F030F900F900F900F9080FF0EC0809170
:1054F00062031F928F9382ED93E09F938F930E949C
:105500001A080F900F900F900F9080915E0380FF0C
:1055100005C060E0869586950E94D81281E0809350
:105520001F0380916703811102C00E940F2E81E248
:1055300091E090936C0380936B0358E1252E312CFE
:1055400061E3462E63E0562E7BE6672E75E0772EEC
:1055500080918703853099F480916F0380FF04C0A8
:105560008BE495E00E94810700E112E180918703BE
:10557000853009F454C00E9472170E94390A0E94B3
:10558000F31430E2E32E33E0F32E49E2C42E43E07D
:10559000D42ED601F70191918D9123E0E832F207E4
:1055A00009F473C09817B9F380916F0381FDC8C0E7
:1055B0008090670310E0D6010D916D01F701919085
:1055C0007F01901631F19026B12CAA24A3948A2D44
:1055D0008921B9F08820A9F0B9A21AA30E94E30991
:1055E0009CA38BA3F1E0FDA391E08A2D802309F415
:1055F00090E09EA349A15AA16BA17CA18DA10E941C
:10560000E625B394AA0C27E0B212E1CFF701319757
:1056100000831F5F183079F60E94760A3AC08091A5
:105620008703843011F110927203F0E40FB6F894FE
:10563000A895209260000FBEF093600083B7817F31
:10564000846083BF83B7816083BF7894889583B774
:105650008E7F83BF0FB6F894A89580916000886113
:1056600080936000109260000FBE809186038823B3
:1056700009F47CCF0E94F314E9E2F3E081918111F7
:1056800054C24E165F06D1F771CF98138DCF0E948A
:1056900072260E94390A182F80912803181731F1B9
:1056A000109328030E94D70980916F0382FF1EC0C8
:1056B00080FF1CC086E895E00E94810780916F03FF
:1056C00080FF14C01F921F9381E895E09F938F93F2
:1056D0000E941A0880916F030F900F900F900F9007
:1056E00080FF04C08FE795E00E94810780918703C7
:1056F000843009F02DCF83E08093E9008091E800A9
:1057000082FF26CF8091E80090E085FF06C00E94CE
:105710007808882309F446C091E08091E8008B77EF
:105720008093E800992309F413CF8981EFEFE80F04
:10573000E33108F060C0F0E0E55FFE4C0C94C52F4B
:1057400080E795E00E94810799E2892E93E0992EE7
:1057500010E000E023E6A22E25E0B22E1F930F9367
:105760007F926F920E941A0888E695E00E94810756
:10577000D4018D914D010E94980D1F928F93BF927D
:10578000AF920E941A0881E695E00E9481070F5FA0
:105790001F4F0FB6F894DEBF0FBECDBF0830110506
:1057A000E9F606CF80E2E82EF12C8E010F5F1F4F45
:1057B0008091E80085FD0AC08091E8008B77809396
:1057C000E8000E947808882399F3A6CF8091F10021
:1057D000D8018D938D01B1E0EB1AF10849F79CCF08
:1057E0001A828CE08B831BC08A81823009F4B3C19A
:1057F00028F4813061F08FEF898311C08330C1F0CC
:105800008430C9F71B821C821D821E8208C00E9440
:10581000D7090E94CB2F6B837C838D839E8340E2CC
:1058200050E0BE016F5F7F4F82E00E94120E90CE6B
:105830002B81822F90E0FE013496245E8830910502
:1058400070F7DC01A75DBC4F3C91319301962813A2
:10585000F5CFE5CF8A818230E9F0853061F680911D
:105860006F0380FF10C080915E03809581701F924E
:105870008F9384EB95E09F938F930E941A080F906B
:105880000F900F900F9080915E0380FF0EC00E94DA
:105890003B0FC5CF6B817C818D819E810E94CB2F78
:1058A00088E290E00E942C30BACF0E941F13B7CF3D
:1058B0004C816B818A810E945010982789279827F4
:1058C0009E838D83ACCF2D813E81322723273227C3
:1058D0004C816B818A810E94C80FA1CF0E94EE0F7C
:1058E0009ECF9A81923009F086CF883009F446C065
:1058F000893009F46FC08B81823009F1A8F48130BE
:1059000009F08DCF8C81EFEF8E9FC00111246FEFD6
:1059100070E00E94B12F462F20E0609160038091DB
:105920005F030E9443117BCF8330A1F0843009F0E4
:1059300076CF20E0409161036D818C81F2CF8C8124
:10594000882309F4A4CF0E941F1360E08C810E9479
:10595000D81265CF8C818093620390916F0390FF82
:105960005ECF1F928F9381E995E09F938F930E9462
:105970001A080F900F900F900F9051CF8B818230AB
:10598000E1F078F4813009F04ACF80916103FFEFB4
:105990008F9FC00111246FEF70E00E94B12F6C83C4
:1059A0003ECF8330A1F0843009F039CF80915F037E
:1059B0008C83809160038D8332CF80915E0380FF62
:1059C00004C0869586958C832ACF80E0FCCF809199
:1059D0006203F9CF20915E0330915F034091600331
:1059E000509161036091620370916303809164033D
:1059F000909165030E941D1112CF80E18A830FCF21
:105A000082E08A8387E1EECEEA80FB80FE24EF24E9
:105A1000FE248E010F5F1F4FCC80C00ED12ED11CF3
:105A2000C70187519E4FC016D10609F4F8CE27E171
:105A3000E21622E0F20658F40E940830D8011496CB
:105A40008C93FFEFEF1AFF0A0F5F1F4FE9CFF801AA
:105A50001482F7CF0A811B81102701271027CE015E
:105A600001966C01EC80E00EF12EF11CC80187510B
:105A70009E4FE016F10609F4D2CE0731A2E01A07D4
:105A800020F4F60164810E942C30FFEFCF1ADF0A68
:105A90000F5F1F4FEBCF0E94B80FC1CE84E0AECF97
:105AA000EA80FB80FE24EF24FE248E010F5F1F4F4F
:105AB000CC80C00ED12ED11CC7018996C016D1064C
:105AC00009F4ADCE20ECE21621E0F20658F40E9473
:105AD0000830D80114968C93FFEFEF1AFF0A0F5F7E
