:100000000C947D050C949A050C949A050C944C2F35
:100010000C949A050C949A050C949A050C949A05E4
:100020000C949A050C949A050C947D140C940B195D
:100030000C943E260C949A050C949A050C949A05FF
:100040000C949A050C949A050C949A050C949A05B4
:100050000C949A050C9456150C949A050C949A05D8
:100060000C949A050C949A050C949A050C949A0594
:100070000C949A050C949A050C949A050C949A0584
:100080000C949A050C949A050C949A050C949A0574
:100090000C949A050C949A050C949A050C949A0564
:1000A0000C949A050C949A050C949A050501090282
:1000B000A10185020901A1000509190129081500FE
:1000C0002501950875018102050109300931158165
:1000D000257F95027508810609381581257F9501D0
:1000E00075088106050C0A38021581257F95017572
:1000F000088106C0C005010906A10185060507198A
:10010000E029E71500250195087501810205071909
:100110000029EF1500250195F075018102050819E8
:10012000012905950575019102950175039101C09D
:100130000660FF0961A1010962150026FF009520F4
:10014000750881020963150026FF00952075089146
:1001500002C005010906A101050719E029E71500FC
:100160002501950875018102950175088101050732
:10017000190029FF150026FF009506750881000566
:1001800008190129059505750191029501750391DD
:1001900001C000000000000000000000000000009E
:1001A000000000000000000000000000000000004F
:1001B0000000000000007E0F00D4FFFFFFC700001A
:1001C000007800000000000000002A2B280000003A
:1001D00000000000000000000000000000290000F6
:1001E00000002C1E3420212224342627252E362DD3
:1001F0003738271E1F202122232425263333362E6D
:1002000037381F0405060708090A0B0C0D0E0F10DE
:100210001112131415161718191A1B1C1D2F313023
:10022000232D350405060708090A0B0C0D0E0F10C7
:100230001112131415161718191A1B1C1D2F313003
:10024000354C0102E3200103E3000102E2600103F7
:10025000E20000DA0281FFD9F1DB20A4A62EAF0074
:10026000A0C000A1C800AED580A81FD300408D1447
:1002700020007F3F1F643214783C1E0A00536372D3
:100280006C004361707320004E756D20004C6F63ED
:100290006B3A00808182838485868788898A8B8CEB
:1002A0008D8E8F9091929394A0A1A2A3A4A5A6A7AE
:1002B000A8A9AAABACADAEAFB0B1B2B3B4C0C1C225
:1002C000C3C4C5C6C7C8C9CACBCCCDCECFD0D1D286
:1002D000D3D4000001010101010101010102020268
:1002E00002020202020203030303030303030404E2
:1002F00004040404040505050505060606060607AC
:100300000707070708080808090909090A0A0A0B64
:100310000B0B0C0C0C0D0D0D0E0E0E0F0F0F101005
:10032000111111121213131414151516161717188C
:100330001819191A1A1B1B1C1D1D1E1E1F202021F7
:100340002222232424252626272829292A2B2C2D3E
:100350002D2E2F30313232333435363738393A3B5F
:100360003C3D3E3F404142434445464748494A4C54
:100370004D4E4F50515354555658595A5B5D5E5F20
:10038000616264656668696B6C6D6F7072737577B6
:10039000787A7B7D7E8082838587888A8C8E8F9118
:1003A000939596989A9C9EA0A2A3A5A7A9ABADAF42
:1003B000B1B3B5B7BABCBEC0C2C4C6C9CBCDCFD12C
:1003C000D4D6D8DBDDDFE2E4E7E9EBEEF0F3F5F8D5
:1003D000FAFDFFFFAA7F554000AF00AE14001A00DF
:1003E00008001500170004611600070009000A0044
:1003F0001D621B00060019000500E000E200E3009A
:100400002A412A41130012000C0018001C00287118
:100410000F000E000D000B00387237003600100080
:100420001100E4006500E7002C422C423A003B003A
:100430003C003D003E003F6140004100420043005F
:100440004462450029002B00AD5D01000100010060
:1004500001004C00310030002F002E002D003471BF
:1004600033000000000000008772350089000000A2
:100470004C00010001000100035103511E001F0048
:10048000200021002200E000000000000000000029
:10049000E100000000000000000001000100010078
:1004A0000351035127002600250024002300E0000B
:1004B0004F005200510050003872370036000000E3
:1004C000000001000100010001000100005CAE5DC0
:1004D000135C0A5C0000C25CC55CC75CC95C0000C0
:1004E000C35CC65CC85CCA5C00000100010001007E
:1004F0000100010046004900000000000000530018
:100500004D004B004E004A00390000000000000082
:1005100000000100010001000100010009025B0070
:10052000030100A0FA0904000001030101000921F0
:1005300011010001224000070581030800010904A0
:100540000100020300000009211101000122220024
:1005500007058203200001070503032000010904A9
:1005600002000103000000092111010001228400A2
:10057000070584032000011201000200000008EDBD
:10058000FEA1DF200001020001160352006800797D
:10059000006D006500730074006F006E0065000060
:1005A0000012036D00610072006B00730061007245
:1005B0000064000000040309040000000000003E85
:1005C0005B4F5B3E003E6B4F6B3E001C3E7C3E1C17
:1005D00000183C7E3C18001C577D571C001C5E7F99
:1005E0005E1C0000183C180000FFE7C3E7FF000096
:1005F0001824180000FFE7DBE7FF0030483A060E3A
:1006000000262979292600407F05050700407F053F
:10061000253F005A3CE73C5A007F3E1C1C0800085E
:100620001C1C3E7F0014227F2214005F5F005F5F6E
:100630000006097F017F00006689956A006060609E
:1006400060600094A2FFA2940008047E04080010D9
:10065000207E20100008082A1C0800081C2A080810
:10066000001E10101010000C1E0C1E0C0030383E26
:10067000383000060E3E0E060000000000000000AC
:10068000005F000000000700070000147F147F14C3
:1006900000242A7F2A120023130864620036495678
:1006A000205000000807030000001C224100000049
:1006B00041221C00002A1C7F1C2A0008083E080852
:1006C0000000807030000008080808080000006082
:1006D0006000002010080402003E5149453E000021
:1006E000427F4000007249494946002141494D334B
:1006F000001814127F10002745454539003C4A492F
:10070000493100412111090700364949493600465F
:100710004949291E00000014000000004034000078
:100720000000081422410014141414140000412283
:100730001408000201590906003E415D594E007C33
:100740001211127C007F49494936003E4141412245
:10075000007F4141413E007F49494941007F0909ED
:100760000901003E41415173007F0808087F0000E5
:10077000417F4100002040413F01007F0814224199
:10078000007F40404040007F021C027F007F040841
:10079000107F003E4141413E007F09090906003EAD
:1007A0004151215E007F09192946002649494932F5
:1007B0000003017F0103003F4040403F001F2040F5
:1007C000201F003F4038403F0063140814630003BB
:1007D00004780403006159494D4300007F414141C1
:1007E00000020408102000004141417F0004020182
:1007F0000204004040404040000003070800002081
:1008000054547840007F28444438003844444428F5
:1008100000384444287F0038545454180000087E9F
:100820000902001824241C78007F080404780000C2
:10083000447D4000002040403D00007F10284400DF
:100840000000417F4000007C04780478007C0804AC
:10085000047800384444443800FC18242418001854
:10086000242418FC007C0804040800485454542430
:100870000004043F4424003C4040207C001C2040F5
:10088000201C003C4030403C004428102844004CD0
:100890001010107C004464544C44000008364100A1
:1008A000000000770000000041360800000201024D
:1008B0000402003C2623263C000000D8DEDEDE1EBB
:1008C0001E1E1EFEFEFEFE00F0FFFFFFE3E0E0E066
:1008D000E0E0E00080E0E0E000000000E0E0E0E0D8
:1008E00000E0E0E0E0E0E0E0E0E0E0E0E0E0E0E0E8
:1008F000E0E000C0E0E0E0E0E0E0E0E0E0E0008038
:10090000E0E0E0E0E0E0E0E0E0E0E000FCFCFCFC57
:10091000E0E080E0E0E0E0E0E0E0E0E0E0C000E037
:10092000E0E0E0E0E0E0E0E0E0E08000C0E0E0E027
:10093000E0E0E0E0E0E00000000000000000000077
:1009400000000000000000000000000000000000A7
:100950000000000000000000000000000000000097
:100960000000000000000000000000000000000087
:1009700000000000000000000080FEFFFF7F0F0E5F
:100980000ECEFFFFFF7F80FEFFFF3F01010181FFD1
:10099000FFFF3FE0FFFFFF8F808080F8FFFF7FC1F8
:1009A000FEFFFF1F0101E1FFFFFF0F0101F1FFFF4C
:1009B000FF07FCFFFFFF9D9D9D9D9F9F9F1F809FA9
:1009C0009F9F9F9D9DDDFDFDFD39C0FFFFFF9F8126
:1009D00001F1FFFFFF87818181F9FFFFFF03FCFF2A
:1009E000FF3F01010101FFFFFF7FC0FFFFFF9F9D50
:1009F0009D9D9D9F9F1F00000000000000000000C3
:100A000000000000000000000000000000000000E6
:100A100000000000000000000000000000000000D6
:100A200000000000000000000000000000000000C6
:100A3000000000000000000000070707070000009A
:100A40000007070707000707070700000000070760
:100A5000070760737777777777777F7F7F1F000748
:100A60000707070000000707070300000007070744
:100A70000100070707070707070707070000070721
:100A80000707070707070707030003070707070705
:100A900000030707070707070707070300070707FC
:100AA00007000000000707070700030707070707FD
:100AB0000707070707000000000000000000000013
:100AC0000000000000000000000000000000000026
:100AD0000000000000000000000000000000000016
:100AE0000000000000000000000000000000000006
:100AF0000000000000000000000011241FBECFEF26
:100B0000DAE0DEBFCDBF12E0A0E0B1E0ECE3F8E652
:100B100002C005900D92A238B107D9F726E0A2E8ED
:100B2000B2E001C01D92A237B207E1F70E9465262C
:100B30000C94F3330C9400008A3221E4920731F0D4
:100B40008C32924419F08EEB90E008958CE890E09E
:100B50000895FC01AC014C5F5F4F8FEF91E3219151
:100B6000822728E030E087FF09C0880F89272150BD
:100B70003109C9F7E417F50791F70895880FF7CF02
:100B8000E8EDF0E080818E7F80831092E200109289
:100B9000DA001092E100A0EEB0E08C9181608C93BD
:100BA00080818F77808319BCA7EDB0E08C918E7F18
:100BB0008C9380818F7E80831092370408952091DA
:100BC000E4003091E50095E6A9012091EC00822F28
:100BD000817020FF06C08091E80080FF06C080E0A1
:100BE00008952091E80022FD1AC080915C048823BA
:100BF00089F0853089F08091EB0085FD0FC0209150
:100C0000E4003091E50042175307F9F29150E1F604
:100C100084E0089582E0089583E0089581E00895D6
:100C2000EF92FF920F931F93CF937C018B010E9451
:100C3000DF05C82F811117C08091E80085FD0BC02A
:100C40008091E8008E778093E8000E94DF0588237A
:100C500099F3C82F08C0F70181917F018093F100BB
:100C60000150110949F78C2FCF911F910F91FF90DF
:100C7000EF90089580915E0487FF13C08091E80093
:100C800082FF06C08091E8008B778093E80004C063
:100C900080915C048111F2CF089580915C048823D7
:100CA000D9F38091E80080FFF8CF8091E8008E773B
:100CB000ECCF982F9093E900242F762F50E08917DE
:100CC00031F07091EC002091ED005091F00021FD89
:100CD00007C09F5F973071F78093E90081E0089526
:100CE0003091EB003E7F3093EB003091ED003D7F83
:100CF0003093ED003091EB0031603093EB00709356
:100D0000EC002093ED005093F0002091EE0027FDC1
:100D1000E0CF80E00895B0E0A0E0E1E9F6E00C94D7
:100D20008630C8EDD0E088818F7E8883E7EDF0E0E3
:100D300080818160808384E082BF81E0809337047A
:100D400088818E7F888302EE10E0F8011082109275
:100D5000DA0081EEC82ED12CF601108288818F77BF
:100D6000888388818068888388818F7D888319BC87
:100D700010925C0410925D0410925B0410925A046D
:100D800090EEE92EF12CF70180818B7F80838881A2
:100D90008160888342E060E080E00E945906F601AD
:100DA00080818E7F8083F801808181608083808153
:100DB00088608083F70180818E7F80838881806155
:100DC0008883CDB7DEB7E8E00C94A230FC018091B7
:100DD00064049091650486179707A0F0611571056A
:100DE00029F49091E8009E779093E80090E06115D7
:100DF000710551F4911108C08091E80082FF34C060
:100E000080E00895BC01F2CF80915C048823C1F199
:100E10008530C1F18091E80083FD30C08091E80009
:100E200082FDEACF8091E80080FFE1CF8091F3005E
:100E30002091F200382F6115710519F02830310525
:100E400058F091E02830310509F090E02091E80059
:100E50002E772093E800CBCF81918093F1006150F1
:100E600071092F5F3F4FE7CF80915C04882341F0E9
:100E7000853041F08091E80083FFBECF81E0089586
:100E800082E0089583E0089508950895089580917B
:100E90003904089587E797E7909301088093000845
:100EA00088E19AE00FB6F894A895809360000FBE91
:100EB00090936000FFCF2FB7F89460913104709148
:100EC000320480913304909134042FBF089520910F
:100ED0008E012223C9F02091350427FF15C0E62F8B
:100EE000E695E695E695EE31D8F4E80FF92FF11D79
:100EF000677021E030E001C0220F6A95EAF7209583
:100F00008281282322830895FC013296089621913C
:100F1000621303C0DF0111971C92E817F907B9F7B4
:100F2000089520918E012223C1F02091350427FFDE
:100F300014C0E62FE695E695E695EE31F8F4E80F55
:100F4000F92FF11D677021E030E001C0220F6A9592
:100F5000EAF78281822B82830895FC0132962FEF7B
:100F600030E04191641751F02F3F19F4411101C055
:100F7000232F3F5F3630A9F72F3F09F40895820FE2
:100F8000911D27FD9A95FC0162830895FA01811154
:100F900001C0FB01099508950895E4EAF3E0118288
:100FA000828184608283089580912004982F9E7F9F
:100FB00061F48170826080932004809123048739DA
:100FC00018F086E98093230408958033B0F381708C
:100FD0008E62F1CFAF92BF92DF92EF92FF920F93AA
:100FE0001F93CF93DF93082F162FE901E42FF0E032
:100FF000ED52FD4F611110C0E4915E2F4E2F4983D9
:10100000E8835A83DF91CF911F910F91FF90EF906A
:10101000DF90BF90AF900895E62EF12C4491D42E2E
:10102000E42FF0E026E0829FC00111242FEF30E092
:10103000B9010E946830802F90E0880F991F55E514
:10104000569FD001579FB00D11248A1B9B0B982FE0
:10105000990F890F5901AE18BF08AE9ED001AF9EFF
:10106000B00DBE9EB00D11245B2F189F800111247E
:10107000012F11275901A01AB10AAE9E8001AF9E1F
:10108000100DBE9E100D11245901A81AB108AE9C76
:10109000C001AF9C900DBE9C900D1124892F992703
:1010A000281B390B2E9FC0012F9F900D3E9F900D46
:1010B0001124E92F62307105A1F050F4611571051A
:1010C00009F49DCF6130710581F0EB2F512F97CF3F
:1010D0006430710569F080F06630710509F48FCFD6
:1010E000F4CFE42F4B2F592F8ACFE42F412F87CFF6
:1010F000EB2F542F492F83CF4B2F5D2DE12F7FCF27
:1011000040919A03803F59F480919B0387FF0DC063
:1011100010929B0341110BC01092920308C0813FB3
:1011200081F480919B0318169CF3442381F08091F5
:101130009C0390919D03892B09F05AC01092910352
:101140000895823F49F447FFF0CF10929A038091AF
:101150009B038111ECCFE0CF833F19F41416ACF35D
:10116000E4CF90919C03893F29F41916F4F610926C
:101170009C03DBCF8A3F19F497FFD7CFF8CF90912C
:101180009D038B3F29F497FFD0CF10929D03CDCFC5
:101190008C3F19F41916CCF3C8CF9CE0980F95300A
:1011A00090F4845F990B21E030E0B90102C0660F32
:1011B000771F8A95E2F7CB01809590919903892357
:1011C00080939903B2CF8D3F31F4809193038E7F4A
:1011D00080939303AACF8E3F21F4809193038D7F58
:1011E000F7CF8F3F09F0A1CF809193038B7FF0CF92
:1011F00008958091930380FD16C081FD16C082FD85
:1012000016C0809191038823A1F0883280F428E0F1
:10121000829FC001112468E270E00E94BF30862FD7
:10122000672B39F0089582E0089584E0089588E0FE
:10123000089581E008958091930380FD16C081FD9B
:1012400016C082FD18C080919203882391F08639E0
:1012500090F42CE0829FC001112466E970E00E94A6
:10126000BF30862F672B49F0089583E0089586E00C
:10127000089584E008958CE0089581E00895803F0A
:1012800031F40E941B09819580939B030895813F4F
:1012900019F40E941B09F8CF823F31F40E941B0908
:1012A000819580939A030895833F19F40E941B0946
:1012B000F8CF893F29F40E94F90880939C03089590
:1012C0008A3F21F40E94F9088195F7CF8B3F31F4D2
:1012D0000E94F908819580939D0308958C3F19F42D
:1012E0000E94F908F8CF9CE0980F953070F4845F65
:1012F000990B21E030E001C0220F8A95EAF7809136
:101300009903822B8093990308958D3F31F4809146
:10131000930381608093930308958E3F21F480911D
:1013200093038260F7CF8F3FB9F780919303846076
:10133000F1CF80E00895F894E82FE295EF70F0E0A7
:1013400031A1282F2F7081E090E001C0880F2A95ED
:10135000EAF7982F9095932391A392A1892B82A3CA
:10136000789408959091350492FF06C0282F287133
:101370002830F9F4877F846093FF06C0282F2871F6
:101380002831F1F4877E84612091360420FF06C065
:10139000382F38713830D9F4877F816021FF06C03B
:1013A000282F28712831D1F4877E816194FD877EB2
:1013B0000895282F24712430F9F68B7F8860DCCFC4
:1013C000282F2471243101F78B7E8861DDCF382FDF
:1013D0003171313019F78E7F8860E0CF282F21716D
:1013E000213121F78E7E8861E1CFCF93DF93EC012D
:1013F0008238910589F1B8F58133910509F492C0DD
:1014000028F58932910509F486C08A9709F491C0BC
:10141000C11522E5D20708F0AAC0C11531E5D307EE
:1014200008F014C1CF3FD10511F008F090C0C03FC3
:10143000D10508F0E9C0C53AD10508F081C0C43033
:10144000D105F8F4C130D105E1F040C085339105F4
:1014500009F45AC0C997E1F680913504837089F088
:10146000C0EED0E00EC0833E910599F170F4803E4D
:10147000910501F1823E910559F68091350482FD76
:1014800021C0CE01DF91CF910895863E910561F193
:10149000873E910571F1843E910509F0B9CF8091A5
:1014A000360481FFEECF80913504C7EED0E084FD95
:1014B0000DC0E7CF8091350480FDF9C090913604CE
:1014C00090FFDFCFC3EED0E084FFDBCFD0E0C0E001
:1014D000D8CF8091350482FDEDC09091360490FD07
:1014E000BFCF84FFCECFF2CF8091350483FDDDCF17
:1014F000C8CF8091350483FDE0C09091360491FF00
:10150000F0CFC4EED0E0BDCF8091350485FFB9CFD8
:10151000C9E2D0E0B6CF8091350485FFB2CFC5E3F4
:10152000D0E0AFCF8091350486FFABCFCAE2D0E0E8
:10153000A8CF8091350486FFA4CFC1E3D0E0A1CF2E
:10154000CE01815E9109079708F49BCFBFCFC115EB
:1015500040E5D40708F05DC0C11580E4D80708F065
:1015600055C0C11590E2D90708F48BCFAFCFC11594
:1015700026E5D20718F5C11535E5D30708F07EC07A
:10158000C11544E5D40708F074C09C2F9695969534
:101590009E0123703327C115D34508F45CC0C1E018
:1015A000D0E002C0CC0FDD1F2A95E2F730E2939F16
:1015B000C0011124C82BD92BDA6863CFC1159AE575
:1015C000D90778F4C11529E5D20708F062C0C11522
:1015D00038E5D30708F47ACFDC2FCC27C06FD06A68
:1015E00050CFCE0190568115904208F06FCF8D2FCD
:1015F0008F710E94B20990E0982F882788279F71E9
:101600009C012C2BE90143C0D0653BCFDF70D06A31
:1016100038CFCE01E4E096958795EA95E1F783709F
:101620002C2F26952695237090E2299F9001112456
:10163000382B8C2F8370C1E0D0E002C0CC0FDD1FAF
:101640008A95E2F7C22BD32BDC681BCFDC2FCC278B
:10165000C16FD06A16CFC1E0D0E002C0CC0FDD1F51
:101660002A95E2F720E2929FC0011124C82BD92BC2
:10167000EBCFDC2FCC27C46FD06A03CF8C2F0E9416
:10168000B209C82FD0E0DC2FCC27CC27DF71D06285
:10169000F8CE8C2F8F700E94B20934E0D695C79592
:1016A0003A95E1F7CF709C2FEC01D069EACEC9E3FF
:1016B000D0E0E7CEC2EED0E0E4CEC6EED0E0E1CEA0
:1016C00080911303811110921303089580959091D6
:1016D000120398239093120308952091EF029091A2
:1016E000BE0256E0291302C080E0089530E0529F08
:1016F000F001539FF00D1124E154FD4F71817613D9
:1017000006C07081781303C07281741304C02F5F08
:101710003F4F2770E7CF81E00895452B39F06823CC
:1017200081E06F3F09F080E08170089581E0FCCF97
:101730008091EF029091BE02981301C008958F5FCF
:101740008770FACF292F983078F5853068F590E0CA
:1017500035E0239F800D911D1124682F677023E0D1
:10176000969587952A95E1F7FC01EE0FFF1FE80F8C
:10177000F91FE755FD4F50E040E080E0219130E057
:10178000062E02C0369527950A94E2F7217033277A
:10179000042E01C0220F0A94EAF7822B4F5F5F4F9D
:1017A0004330510559F7089580E00895292F983066
:1017B00098F5853088F590E035E0239F800D911DE8
:1017C0001124282F277041E001C0440F2A95EAF721
:1017D00023E0969587952A95E1F7FC01EE0FFF1F10
:1017E000E80FF91FE755FD4F30E020E070E0519120
:1017F000DF011197CB01022E02C0969587950A94BE
:10180000E2F7817081958527842385278C932F5F4C
:101810003F4F2330310559F70895CF93DF93C0919F
:101820007006D09171068A30C1F420916704CE0110
:101830008A569440622F70E00E946830281B822FE5
:1018400066E00E94B330C82FC15018F4DF91CF91E9
:10185000089580E20E940D0CF7CF8D30E9F4CA564E
:10186000D44020916704622F70E0CE010E9468305E
:10187000281B822F9E01280F311D2115324018F0A0
:1018800080E0D0E0C0E0C80FD11DC659DB4FD09337
:101890007106C0937006DACF96E0FE01AAE6B6E0C4
:1018A00001900D929A95E1F7803E08F458C086E0C9
:1018B000FE0111928A95E9F7C0917006D0917106E8
:1018C00046E050E0BE018AE696E00E94F6309E01B6
:1018D0002A563440892B41F1C90145E096958795F8
:1018E0004A95E1F741E050E0BA0102C0660F771F68
:1018F0008A95E2F7CB016091680470916904862BA8
:10190000972BB9016B5F7F4FE5E076956795EA9578
:10191000E1F702C0440F551F6A95E2F7842B952B1F
:1019200090936904809368042A5F3F4F4091670455
:10193000642F70E0C9010E946830481B463010F4E3
:10194000240F311D211572E0370710F030E020E040
:1019500026593B4F309371062093700677CFF6E0FF
:101960008F9FB001112467547A4F46E050E0CE01BA
:101970000E94E030A1CFCF93DF93EC01FE01849170
:10198000811103C0DF91CF9108950E940D0C219623
:10199000F5CF8091120390911103892B80938402DB
:1019A000909113039923A1F0892B80938402809155
:1019B0008E018823E1F18091350487FF38C08EE1E4
:1019C000E6E8F2E090E08150A0F591110E94600BF2
:1019D00040E250E061EF72E084E892E00E94F6306D
:1019E000892B21F180E2E4E8F2E0A1EFB2E001907E
:1019F0000D928A95E1F7E0912E04F0912F04309733
:101A0000A9F080918E01882359F08091350487FFD9
:101A100007C0809184028093850286E080938402CF
:101A20000280F381E02D84E892E00995089586E034
:101A3000C7CF2191222339F29F5FC5CF882321F0A0
:101A40000E94660B0E94C90C0895882339F090917A
:101A50001203982B909312030E94C90C08950F93C0
:101A60001F93CF93DF93EC01FC0101900020E9F775
:101A70008F0101501109C017D10728F0DF91CF91D4
:101A80001F910F91089589910E940D0CF4CFB0E041
:101A9000A0E0EDE4FDE00C9486306C017B0164E68F
:101AA00070E088E70E94C32DEC0197FD12C010E0A2
:101AB00000E0F601E00FF11F849164E670E00E94FF
:101AC000312EEC01892B29F40F5F1F4F0E151F05D6
:101AD00081F70E94A82ECE01CDB7DEB7E8E00C94C6
:101AE000A2308091290490912A04911103C091E0C1
:101AF00089270895882369F062E070E08AED93E019
:101B00000E94470D892B19F08091290408951092A5
:101B1000290480912904EBCFCF93C09129048091AF
:101B20002A048823D1F00E945B07605A75418F4FC9
:101B30009F4F60932504709326048093270490930D
:101B40002804C11108C062E070E088ED93E00E94B3
:101B5000470D892B29F0C09129048C2FCF9108952E
:101B600081E080932904F7CF9C0184E08093E90011
:101B70009FEF8091E800915085FD06C085ED8A9524
:101B8000F1F700009111F5CF8091E80085FF0CC0BE
:101B900050E040E066E070E0C9010E9410068091CC
:101BA000E8008E778093E8000895CF93DF93EC01EF
:101BB00080918E018823B1F18091350487FF32C076
:101BC00060E284E08093E9008FEF9091E80081501B
:101BD00095FD06C095ED9A95F1F700008111F5CFBE
:101BE0008091E80085FF1BC080918E0170E050E07D
:101BF00040E0811104C050E040E068E070E0CE01B8
:101C00000E9410068091E8008E778093E80080E2C1
:101C1000FE01AAE3B4E001900D928A95E1F7DF910D
:101C2000CF91089568E081E0CDCF609188018091E7
:101C3000200480FF20C08091870143E0849FC00181
:101C4000112489559C4F539A2BB1277F3BB13860A3
:101C50005FB7F894FC01649FE00DF11D1124BF01F2
:101C600068177907D1F45FBF8FE594E00197F1F72A
:101C700000C0000008958091890190918A0123E0BD
:101C8000829FF0011124E955FC4F8917A0F61182BB
:101C9000108212828F5F3396F8CFFC014191CF0101
:101CA000E8E03BB9000000C047FF2BB9440F00003B
:101CB00000C000C000C02BB900C0EA9591F7D0CF9A
:101CC000EF92FF920F931F93CF93DF93EC018C81E0
:101CD000811109C081E08C8310921F0492E09093DF
:101CE0008D0180938C018091890190918A0123E07C
:101CF000829FF0011124E955FC4F891758F110E03B
:101D000003E060918B01161758F10E94150E809127
:101D10008C0120911F04280F20931F0490918D01A6
:101D2000980F90938D01191654F4022E000C330B6A
:101D300040918B014150550B2417350734F08195A4
:101D400080938C01813009F41C82CDB7DEB7E6E0C8
:101D50000C94A4301182108212828F5F3396CDCF03
:101D6000E12EF12C70E0C7010E94BF302091890163
:101D7000820F482F50E020911F04022E000C330BDD
:101D8000E216F306D4F020918D01022E000C330BE5
:101D90002E153F0594F0809F9001112429553C4F4A
:101DA00040912304473908F046E96091220480916C
:101DB00021040E94EA071F5FA4CFFA01EE0FFF1F64
:101DC000E40FF51FE955FC4F118210821282F3CF08
:101DD000EF92FF921F93CF93DF93EC0110E0EE247C
:101DE000EA94F12C60918B01161770F00E94150E89
:101DF0009A818C8190FF2AC08F5F8C83DF91CF9175
:101E00001F91FF90EF90089520918901422F410F7B
:101E10005527551FCA019A01220F331F280F391F5A
:101E200029553C4F40912304473908F046E970E0BA
:101E3000C7010E94BF30962F8C8160912204199FA8
:101E4000800D11240E94EA071F5FCCCF8150D5CFAF
:101E50009091200490FF0EC09091890120918A01F9
:101E600033E0939FF0011124E955FC4F921718F0CD
:101E70000E94150E08958183608342839F5F33968D
:101E8000F5CFA3E0B0E0E7E4FFE00C948A308C01EA
:101E90008091200480FF13C040912304473908F04B
:101EA00046E99E012F5F3F4F60912204F801848133
:101EB0000E94EA074B8169818A810E94280FF801FC
:101EC00084818F5F84832396E4E00C94A630E0E263
:101ED000F4E080818E7F80830E94CD07E4EAF3E006
:101EE0008281816082832FEF80E792E021508040E1
:101EF0009040E1F700C000000E94150E0895B0E088
:101F0000A0E0E5E8FFE00C9484307C015B016A010D
:101F10008091400301E010E08A3010F40AE010E004
:101F2000C1E0D0E0B501C701F6010995811104C0F7
:101F300021960C171D072CF4CDB7DEB7EAE00C9400
:101F4000A030CC9F9001CD9F300D300D112490E03A
:101F500080E045E34A95F1F7000001968217930768
:101F6000C1F7E0CF80911E03811110C08091D8008D
:101F700080618093D8008AE18A95F1F700C0809152
:101F8000D90080FF0AC081E080931E0381E0909118
:101F90001E03913009F080E0089582E080931E03D3
:101FA0000E94C00510925C04F1CF0E94B20F8823FA
:101FB00059F0E0912E04F0912F04309729F0019010
:101FC000F081E02D0995089580E008950F931F9307
:101FD0000E94B20F882329F00E945B071F910F9186
:101FE00008950E945B0700914103109142032091E4
:101FF000430330914403600F711F821F931FEECF84
:10200000CF93DF93C7E6D1E060E0CE010E94BF33FB
:102010002196C11584E0D807B9F7DF91CF910895D3
:102020001F93CF93DF93122F8430E0F46830D0F405
:102030004530C0F4C42FD0E0CC0FDD1F9AE0699F7B
:10204000C00DD11D112490E5899FC00DD11D112413
:10205000632FCE0187960E94BF33612FCE018896F1
:102060000E94BF33DF91CF911F910895AF92BF922D
:10207000CF92DF92EF92FF921F93CF93DF938CED7D
:10208000C82E83E0D82ED0E07601C0E014C0F50160
:1020900025913491412F6C2F8D2F0E94101082E0DA
:1020A000A80EB11C1F5F153091F78AE0E80EF11CF5
:1020B000CF5FC83019F0570110E0E9CFDF5F80E54E
:1020C000C80ED11CD43001F7DF91CF911F91FF9042
:1020D000EF90DF90CF90BF90AF900895CF93C82F2F
:1020E0006FEF811162E283E290E00E94BF336FEFF5
:1020F000C11166E084E290E00E94BF336FEFC1112E
:1021000068E185E290E00E94BF33CF91089580E0BE
:102110000E946E1060E086E290E00E94BF330E9451
:1021200036100E94001081E00E946E1008950F93F7
:102130001F93CF93DF93843030F5683020F545301E
:1021400010F5C42FD0E0CC0FDD1F2AE0629FC00D38
:10215000D11D112430E5839FC00DD11D1124CE0166
:1021600087960E94AB33082F10E0102F0027CE0176
:1021700088960E94AB339801282BC901DF91CF913B
:102180001F910F91089590E080E0F8CF462F8430A2
:1021900040F4783030F4653020F4672F0E949710B7
:1021A000089590E080E00895CF92DF92FF920F9320
:1021B0001F93CF93DF936C010091660480916303BA
:1021C000082BC7E0D0E010E0FC2EC8010C2E02C0A6
:1021D000959587950A94E2F780FD0CC02197A0F7AA
:1021E000F12C8F2DDF91CF911F910F91FF90DF90F8
:1021F000CF900895B6018C2F0E94C6100E94F50959
:10220000019761F3EECFCF93DF93EC010E94D410DE
:10221000BE010E94C6100E94F509DF91CF9108957A
:10222000FC01808191810E94031192959F709630EC
:1022300091F058F4925F9F70923058F4803F19F0FB
:1022400030F4883E30F481E008959A5FF4CF843F03
:10225000D1F380E00895883EB0F3813FD1F7F3CF0A
:10226000A5E0B0E0E6E3F1E10C948B3025E0FC0161
:10227000DE01119601900D922A95E1F7FC01228171
:1022800089819A81222399F0662389F00E94D410D3
:10229000182F682F89819A810E94D60B69817A81D3
:1022A000812F0E94C6102596E3E00C94A7300E946F
:1022B000A20B182FF3CF83E290E00E94AB3382325F
:1022C00089F484E290E00E94AB33863059F485E2D1
:1022D00090E00E94AB3391E0883109F090E0892FC3
:1022E0008170089580E0FCCFCF9384E090E00E945D
:1022F000AB33C82F82E290E00E94AB33982F8C2F33
:10230000CF910895CF92DF92EF92FF926B017C0103
:102310000E94D407B701A60188E090E00E94D13363
:10232000FF90EF90DF90CF900895A3E0B0E0EBE94D
:10233000F1E10C948530F82ED62E042FC22E809118
:10234000200480FF3EC0E82FE695AE2FB0E0A55AEE
:10235000BD4F9C919093A4038E7F8230B1F5473995
:1023600008F046E99E012F5F3F4F6D2D8F2D0E9493
:10237000EA074B8169818A810E94280F809121049C
:102380008F1108C0809122048D1104C08091230414
:10239000801729F08091A60382608093A603F092B3
:1023A0002104D092220400932304CC2051F06091A8
:1023B00020047091210480912204909123040E94B2
:1023C00082112396E9E00C94A130923019F4F09038
:1023D0002104D4CF9530D9F39E3081F6EE506E2F84
:1023E0006170B62EE695F0E0ED52FC4F1491E12CB1
:1023F00060918B01E61618F00E94150EBFCFE19E8A
:10240000C001112470E00E9468308F2DB11017C0F8
:10241000860F20918901622F6E0D7727771F9B0110
:10242000220F331F260F371F29553C4F402F0739E6
:1024300008F046E96D2D0E94EA07E394D9CF861B88
:10244000E8CFE0E2F4E0438128E0421B08F440E0FA
:1024500021E0628181810E9495110895E0E2F4E01B
:10246000438128E0420F08F44FEF21E0628181812F
:102470000E9495110895E0E2F4E0628128E0621B79
:1024800008F460E021E0438181810E949511089564
:10249000E0E2F4E0628128E0620F08F46FEF21E0EF
:1024A000438181810E9495110895E0E2F4E08181E9
:1024B00021E04381628188500E9495110895E0E2F5
:1024C000F4E0818121E043816281885F0E9495115F
:1024D000089580912404882319F081508093240466
:1024E0006091200470912104809122049091230432
:1024F0000E948211089580912404833018F48F5F24
:10250000809324046091200470912104809122041E
:10251000909123040E9482110895E0E2F4E083E0A8
:10252000808311828FEF828386E983831482A4EAF9
:10253000B3E012968C911297836012968C9360810F
:102540007181828193810E948211089568EE7EEFED
:1025500090E080E00E94DD3360E082E090E00E9445
:10256000BF3360E083E090E00E94BF3310926303CA
:1025700060E084E090E00E94BF3364E082E290E09B
:102580000E94BF3360E085E090E00E94BF3360E0CE
:1025900086E090E00E94BF336FEF87E090E00E94FA
:1025A000BF3340E050E0BA0188E090E00E94D133B0
:1025B00060E08DE090E00E94BF3340E050E0BA015F
:1025C00088E190E00E94D13360E087E190E00E94D2
:1025D000BF3340E050E0BA018CE190E00E94D1337B
:1025E00070E060E080E290E00E94DD3340E050E087
:1025F000BA0188E190E00E94D13380E00E946E1021
:102600000E94871040E050E0BA018FE090E00E9405
:10261000D13340E050E0BA0183E190E00E94D13331
:102620000895A4E0B0E0E7E1F3E10C948B30409131
:102630002703509128036091290370912A032FB733
:10264000F8948091310490913204A0913304B091B8
:1026500034042FBF841B950BA60BB70B11E08436F7
:102660009105A105B10570F10E94E60F6E5F7F4FE5
:102670008F4F9F4F69837A838B839C838091110155
:1026800090911201855D9C4F4091100150E04530C2
:10269000510510F044E050E0BE016F5F7F4F0E9493
:1026A000033182E090E00E94F22F182F882351F02E
:1026B0000E945B076093270370932803809329038C
:1026C00090932A03812F2496E3E00C94A730A8E08E
:1026D000B0E0EDE6F3E10C948C3085E0E0E2F4E06C
:1026E000DE01119601900D928A95E1F78091A40385
:1026F0009091A503A091A6038E839F83A887288528
:1027000040913C0350913D0360913E0370913F0323
:102710003FB7F8948091310490913204A091330432
:10272000B09134043FBF841B950BA60BB70B8436C6
:102730009105A105B10510F4222319F18091190129
:1027400090911A01855D9C4F4091180150E04930ED
:10275000510510F048E050E0BE016F5F7F4F0E94CE
:10276000033183E090E00E94F22F882369F00E94F9
:102770005B0760933C0370933D0380933E0390930B
:102780003F031092A60381E02896E2E00C94A83063
:10279000EF92FF921F93CF93DF9300D000D00F9260
:1027A000CDB7DEB77B0190E080E00E94F22F182FBA
:1027B000882309F46DC04091030150E04115510593
:1027C00011F041E050E06091040170910501655DF8
:1027D0007C4FCE0105960E94033140912303509116
:1027E000240360912503709126032FB7F8948091FC
:1027F000310490913204A0913304B09134042FBF7E
:10280000841B950BA60BB70B84369105A105B1056A
:1028100038F48CE293E00E94A9059D818917C1F1EB
:1028200081E090E00E94F22F882309F458C0409183
:102830000B0150E04530510510F044E050E060914C
:102840000C0170910D01655D7C4FCE0101960E94D7
:1028500003318CE293E00E94A9059D8189133FC05A
:102860000E945B07609323037093240380932503E6
:102870009093260389819A81AB81BC8180931F0349
:1028800090932003A0932103B093220311E00EC084
:1028900080912C0390912D03A0912E03B0912F03D2
:1028A00089839A83AB83BC831111E4CF80911F038A
:1028B00090912003A0912103B0912203F70180831E
:1028C0009183A283B383812F0F900F900F900F906D
:1028D0000F90DF91CF911F91FF90EF90089510E03E
:1028E000E5CF90E080E00E94B933883E9E4F19F416
:1028F0000E945B11089580E008951F920F920FB619
:102900000F9211242F933F934F935F936F937F9375
:102910008F939F93AF93BF93EF93FF938091E100C9
:1029200082FF09C08091E20082FF05C08091E10032
:102930008B7F8093E1008091DA0080FF24C080913A
:10294000D80080FF20C08091DA008E7F8093DA006B
:102950008091D90080FF9DC080E189BD82E189BD61
:1029600009B400FEFDCF81E080935C0480913704C0
:10297000811109C00E94C0050E948B068091E2006F
:1029800084608093E2008091E10080FF17C0809115
:10299000E20080FF13C08091E2008E7F8093E2000E
:1029A0008091E20080618093E2008091D800806293
:1029B0008093D80019BC85E080935C048091E1008D
:1029C00084FF2BC08091E20084FF27C080E189BD95
:1029D00082E189BD89B5982F917080FFFBCF8091EE
:1029E000D8008F7D8093D8008091E1008F7E809306
:1029F000E1008091E2008F7E8093E2008091E2000E
:102A000081608093E20080915D04882309F447C0CF
:102A100084E080935C0480915C048091E10083FFFA
:102A200027C08091E20083FF23C08091E100877F6F
:102A30008093E10082E080935C0410925D048091B9
:102A4000E1008E7F8093E1008091E2008E7F809391
:102A5000E2008091E20080618093E20042E060E069
:102A600080E00E9459068091F00088608093F00019
:102A7000FF91EF91BF91AF919F918F917F916F9156
:102A80005F914F913F912F910F900FBE0F901F902C
:102A9000189519BC10925C041092370474CF809181
:102AA000E30087FD93E090935C04B5CF78941F9288
:102AB0001FB61F9211248F939F93AF93BF93809162
:102AC000310490913204A0913304B0913404019602
:102AD000A11DB11D8093310490933204A09333045F
:102AE000B0933404BF91AF919F918F911F901FBEFF
:102AF0001F9018959C014FB7F894809131049091E4
:102B00003204A0913304B09134044FBF821B930B65
:102B100008952FB7F8948091310490913204A091D8
:102B20003304B09134042FBF08950E9489159C018D
:102B300090919A0380919B03982B21F030939703F7
:102B40002093960390919C0380919D03982B21F0F4
:102B50003093950320939403E0912E04F0912F0479
:102B6000309749F082E0809398030480F581E02D4E
:102B700088E993E009950895109211030E94C90C09
:102B800086E0E8E9F3E0DF011D928A95E9F710920B
:102B9000920310929103109293030E949515089549
:102BA000809366040E94BC15089580916604982F56
:102BB0009670963021F488600E94D0150895877F22
:102BC000FBCF21E030E001C0220F8A95EAF7209583
:102BD0008091660482230E94D01508959091F0029E
:102BE000809589238093F002282F277091F4282F55
:102BF000082E000C330B9217130659F090913604EF
:102C000092FF07C08595859585950E94E1151092E4
:102C1000F0020895CF93C0913604C2FB992790F932
:102C2000981791F080FBC2F9C09336046091350487
:102C300084E090E00E94BF336C2F82E290E00E941B
:102C4000BF3382E00E94EE15CF91089521E030E07D
:102C500001C0220F8A95EAF780916604822B0E94B8
:102C6000D0150895809363030E94BC1508951092B7
:102C7000120380918E01E6E8F2E0882361F08091F2
:102C8000350487FF08C08EE1DF011D928A95E9F7C0
:102C90000E94BC15089586E0F7CFAAE2B0E0E3E514
:102CA000F6E10C948B308EE594E02091F100DC018C
:102CB0002D93CD01B4E086369B07B9F780915F0470
:102CC000833009F472C0B8F4813009F449C082300D
:102CD00009F4B3C08091E80083FF8BC280915E0449
:102CE00090915F049A3008F084C2E92FF0E0EB5035
:102CF000FC4C0C94D3308A3009F48EC08B3009F42C
:102D000071C0893039F780915E04813219F7809162
:102D1000620490916304009711F00297D9F68091B4
:102D2000E800877F8093E8008091E80082FF38C048
:102D30009091F3008091F200029731F48091F100BC
:102D4000813011F0863021F48091F10080933904B4
:102D50008091E8008B778093E8000E943A06BACF12
:102D600080915E04813A09F0B5CF8091E800877FB9
:102D70008093E8008091620490916304892B61F450
:102D800060E28AE394E070E00E94E6068091E80049
:102D90008B778093E8009ECF60E090E080E0F3CFF7
:102DA00080915C048111C0CF95CF80915E04813AFF
:102DB00009F090CF8091620490916304892B09F00F
:102DC00089CF8091E800877F8093E8008091E800B8
:102DD00080FFFCCF80918E018093F1008091E8000C
:102DE0008E77B9CF80915E04813209F073CF8091E4
:102DF000620490916304892B09F06CCF8091E80004
:102E0000877F8093E8000E943A0680916004809357
:102E10008E010E9437165ECF80915E04813209F0E8
:102E200059CF8091E800877F8093E8000E943A069E
:102E300080916104809338044DCF80915E04813A83
:102E400009F048CF8091E800877F8093E800809167
:102E5000E80080FFFCCF80913804BECF803899F025
:102E6000823809F0C6C1809162048F70873008F003
:102E7000C0C18093E9008091EB0085FB882780F931
:102E80001092E90006C080915A0490915B04911160
:102E900082609091E800977F9093E8008093F10022
:102EA0001092F1008091E8008E779FC1882309F489
:102EB0008DC1823009F09DC180916004811190C163
:102EC000809162048F702FEF280F263008F091C197
:102ED0008093E9002091EB0020FF82C1933031F410
:102EE0008091EB0080628093EB007AC19091EB00BF
:102EF00090619093EB0021E030E001C0220F8A95B1
:102F0000EAF72093EA001092EA008091EB008860D3
:102F1000EACF81116EC1109160041F778091E300A8
:102F20008078812B8093E3008091E800877F8093F5
:102F3000E8000E943A068091E80080FFFCCF809173
:102F4000E30080688093E30082E0111183E08093C6
:102F50005C044FC18058823008F04BC1209160045E
:102F6000309161042C3DE3E03E07A1F583E08A83C4
:102F70008AE289834FB7F894DE01139620E03EE0A1
:102F800051E2E32FF0E050935700E49120FF03C09B
:102F9000E295EF703F5FEF708E2F90E0EA30C0F067
:102FA000C7968D939D932F5F243159F74FBF809122
:102FB000E800877F8093E8006AE270E0CE01019626
:102FC0000E94E6068091E8008B778093E80011C1AB
:102FD000C096E7CF8091620490916304432F5527F8
:102FE0004330510509F44AC078F54130510509F4E0
:102FF0007AC08BE590E0ECE1F5E04230510509F054
:10300000F8C02091E800277F2093E8002091640415
:10301000309165048217930708F49C0140E0211564
:10302000310509F065C0411163C08091E80082FD5F
:10303000C9CF80915C04882329F2853019F28091F0
:10304000E80083FFF2CFBECF4132510509F43CC006
:103050004232510509F0CDC08330910508F0C9C056
:10306000FC01EE0FFF1FEA58FD4F0190F081E02DAB
:103070008D589D4FDC018C9190E01AC03327213090
:103080003105D1F02115310561F02230310509F00B
:10309000B0C0E9E8F5E0E4918E2F90E0E9E8F5E0D2
:1030A00007C0E5EBF5E0E4918E2F90E0E5EBF5E06D
:1030B000009709F49EC0A5CFE1EAF5E0E4918E2FD8
:1030C00090E0E1EAF5E0F4CF8330910508F091C09B
:1030D000880F991FFC01E458FD4F0190F081E02D0D
:1030E00089E090E08ECF82E190E0E7E7F5E089CFDC
:1030F00080915C04882309F465CF853009F462CFA0
:103100008091E80083FD5ECF8091E80082FD8DCF45
:103110008091E80080FF83CF9091F3008091F200CE
:103120002115310519F08830910550F041E00897DC
:1031300009F040E08091E8008E778093E8006FCF3F
:1031400044914093F1003196215031090196E8CF26
:10315000803809F04EC08091E800877F8093E800B6
:1031600080915D048093F1009DCE811142C0109149
:1031700060041230F0F58091E800877F8093E800CA
:1031800010935D040E943A06112311F084E005C0FB
:103190008091E30087FDFACF81E080935C0442E0F8
:1031A00061EC81E00E94590642E261EC84E00E94F9
:1031B000590642E261EC82E00E94590642E260EC6C
:1031C00083E00E94590680915C0413C080916004E2
:1031D000813079F481E0933009F080E080935B04E2
:1031E0001092E9008091E800877F8093E8000E94B8
:1031F0003A068091E80083FF0AC08091E800877F4B
:103200008093E8008091EB0080628093EB00AA96A7
:10321000E3E00C94A7301F920F920FB60F92112487
:103220002F933F934F935F936F937F938F939F93CE
:10323000AF93BF93CF93DF93EF93FF93D091E900C8
:10324000DF708091EC00C82FC17080FDC0E8109243
:10325000E9008091F000877F8093F00078940E94CD
:103260004D161092E9008091F00088608093F00084
:10327000CD2BCF70C093E900FF91EF91DF91CF91FB
:10328000BF91AF919F918F917F916F915F914F917E
:103290003F912F910F900FBE0F901F9018950E9495
:1032A00037162FEF84E39CE0215080409040E1F7F7
:1032B00000C0000088E19AE00FB6F894A8958093CA
:1032C00060000FBE90936000FFCF882309F453C0C5
:1032D0009CEF980F913A40F4682F84E892E00E94A6
:1032E00067070E94C90C089590E2980F983050F437
:1032F000877091E001C0990F8A95EAF7892F0E94A3
:10330000660BEFCF9BE5980F9330B8F48091A50240
:103310009091A602892B79F11092A6021092A50233
:10332000E0912E04F0912F04309729F10680F78167
:10333000E02D90E080E00995089598E5980F973189
:10334000A0F48091A7029091A802892BA1F010927D
:10335000A8021092A702E0912E04F0912F0430975A
:1033600051F00084F185E02DE4CF803F20F00E94F1
:1033700080080E9495150895CF93C82F8823D1F116
:103380008CEF8C0F813AC0F580918E01882311F16A
:103390008091350487FF1EC0EC2FE695E695E695F3
:1033A000F0E0EC57FD4F828190E04C2F477021E018
:1033B00030E002C0220F331F4A95E2F782239323A5
:1033C000892B89F06C2F84E892E00E9467070E94A5
:1033D000C90C09C0E6E8F2E08191C81799F382E0D0
:1033E000EC38F807C9F76C2F84E892E00E94910747
:1033F0000E94C90CCF91089580E28C0F883068F448
:10340000C77021E030E001C0220FCA95EAF7809131
:103410001203822B80931203EBCFC03F58F38C2F03
:103420000E943F090E949515E5CF1F93CF93DF932C
:10343000182FD0E0C0E0893311F4C0E5D0E0812F2F
:103440000E94BC19209739F4812F0E946519DF91E1
:10345000CF911F9108958FE99FE00197F1F700C088
:1034600000002197EFCFB0E0A0E0E9E3FAE10C948F
:1034700086306B01C42FD22FFC0182818823A9F0F2
:1034800040932D040E94891590932C0480932B0463
:10349000C77081E001C0880FCA95EAF70E94250D28
:1034A000CDB7DEB7E8E00C94A23010912D041413D0
:1034B00037C080912B0490912C040E947A157C01D6
:1034C000C6010E949C05E816F90650F5C0E2CD0F32
:1034D0001D17C1F080E2810F883048F4177081E039
:1034E000012E01C0880F0A94EAF70E941E0DC83011
:1034F00048F481E09D2F977001C0880F9A95EAF7F4
:103500000E94250D802F0E94151AC83048F6D770EA
:1035100081E001C0880FDA95EAF70E941E0DC0CF46
:10352000C77081E001C0880FCA95EAF7F6CFB0E016
:10353000A0E0EDE9FAE10C948730E82FF0E0EE53DB
:10354000FE4FD490282F26952695269530E0F90138
:10355000EE54FE4F0491877010E0082E02C01595BE
:1035600007950A94E2F701701127F901EE55FE4F15
:10357000E490F12C082E02C0F594E7940A94E2F747
:1035800091E0E922FF24F901EE56FE4FC491D0E00C
:1035900002C0D595C7958A95E2F7C170DD27011560
:1035A000110519F081EE0E94BC19E114F10419F023
:1035B00086EE0E94BC198D2D0E94151AE114F104AB
:1035C00019F086EE0E9465190115110519F081EEBA
:1035D0000E946519CD2B19F08CE20E94151ACDB707
:1035E000DEB7E7E00C94A330FF920F931F93CF93C5
:1035F000DF938C018AE0F82EF8018491882309F486
:103600004BC0813009F044C0E8012196FE0184914D
:10361000813049F42196FE0184910E94151A8E0191
:103620000F5F1F4FE9CF823039F4E8012296FE0187
:1036300084910E94BC19F3CF833039F4E8012296BB
:10364000FE0184910E946519EACF843041F7E801B8
:103650002296FE01249190E080E0FE0131962053F5
:10366000330B2A30310548F00197C8F2EFE9FFE04B
:103670003197F1F700C00000F7CFF89EA001F99E46
:10368000500D1124C901840F951F2491EF01E5CF3E
:103690000E94971AE801C3CFCDB7DEB7E5E00C94DE
:1036A000A5300E94B20F882319F00E948915089551
:1036B0000E94E60FCB01089560912004669570E0AA
:1036C0004BE050E08CE791E00E94E930892B19F43F
:1036D00081E08093A5030E94511B90939F038093E8
:1036E0009E038091A60384608093A6030895909121
:1036F000200490FF31C0917081112FC0926090938F
:1037000020048091A60381608093A603662351F074
:1037100060912004709121048091220490912304EF
:103720000E94821160912004669570E04BE050E0A9
:103730008CE791E00E94E930892BB1F00E94CD071F
:1037400081E08093A10320E0409123046091220452
:10375000809121040E9495110895883110F09E6295
:10376000CECF880F982BCBCF0E945C1BE9CF8091E6
:1037700020048695815009F487E161E00E94771B5F
:1037800008958091200486958F5F883108F081E04C
:1037900061E00E94771B08959091200490FF08C07B
:1037A0009695981728F0961718F40E94C11B089553
:1037B00061E00E94771B0895A4E0B0E0E2EEFBE137
:1037C0000C9482307C01FC014381548161818081B1
:1037D0000E948D0BA82E81114BC061E0C7010E9491
:1037E00030118C01F7018281882309F41BC5C801BF
:1037F00082519F45409708F0BDC48FEF93E00E942F
:10380000AB33811126C0025157E6C52EDD24D39477
:10381000011132C01C821B82BB24B3944AE0A42E47
:1038200086010F5F1F4FC6010E94AB3389831A8246
:10383000882379F09FEF980F933060F58A83B982DF
:1038400032E0C30ED11CC8010E94AB338B838111BF
:1038500022C08091F002877059F0F701828188239D
:1038600039F08091360482FF03C082E00E94EE1599
:103870002496ECE00C949E30C114F4E0DF0649F38A
:10388000C6010E94AB33811101C001502FEFC21A53
:10389000D20ABECF68018E010F5F1F4FF8018081F1
:1038A000882309F4BDCF813009F041C09181828124
:1038B000913039F40E5F1F4F0E94151A0F5F1F4F92
:1038C000EDCF923029F40E5F1F4F0E94BC19F6CF46
:1038D000933029F40E5F1F4F0E946519EFCF94308B
:1038E00019F00F5F1F4FEACF0E5F1F4F30E020E04F
:1038F000B8016F5F7F4FF80141818053990B8A3087
:10390000910550F021503109C8F28FE99FE00197ED
:10391000F1F700C00000F6CFA29EF001A39EF00DCB
:1039200011249C012E0F3F1F842F8B01E1CF0E9499
:10393000971AC4CF81E00E9426160E94D51589CF20
:1039400081E00E94E115F9CF82E0F5CFF701828195
:10395000882309F47ECF8091350482FF05C08AE474
:1039600092E00E94F41A75CF82E492E0FACFF70158
:103970008281882309F46DCF0E948D1280912004EA
:1039800081608093200461E086950E94771B61CF5F
:10399000053FECE51E0709F469C008F461C0063F65
:1039A0002CE5120709F468C0F7018281882309F425
:1039B00044C410922D040330FDE51F0708F068C0D1
:1039C0000A3F2CE5120730F4C80182509C45449709
:1039D00008F068C00E9474119093360480933504F7
:1039E00001319CE5190709F438C108F0B4C0093069
:1039F000FCE51F0709F41BC108F07FC005303CE55A
:103A0000130709F40CC108F064C003309CE51907E2
:103A100009F4FBC008F0FFC08091350481600230DA
:103A2000FCE51F0709F4F4C06091350410913604D9
:103A300084E090E00E94BF33612F82E290E00E9418
:103A4000BF330E94371605CF07E225EE45EE68ED3D
:103A50007CE5E4C306E221EE40EE63EF7CE5DEC3E5
:103A600007E225EE44EE64EF7CE5D8C306E221EEE2
:103A700042EE65EF7CE5D2C307E225EE46EE66EF47
:103A80007CE5CCC308E221E045EE69ED7CE5C6C3E8
:103A900001363DE5130709F49DCF053A8DE518077A
:103AA00009F498CF06312CE5120709F0D4C38091B0
:103AB00012038A7A91E009F490E09093A40269E2FB
:103AC000811165E384E892E00E9491070E94C90C8D
:103AD000C0CE80913504806207302CE5120709F4CE
:103AE00097C080913504806108303CE5130708F4E5
:103AF0008FC08091350480648BC00D308CE5180731
:103B000009F49FC0A0F4809135048E7F0B30ECE562
:103B10001E0709F47DC0809135048C600C30FCE5F3
:103B20001F0708F475C0809135048D7F71C08091A6
:103B300035048F7E0F302CE5120709F469C080919F
:103B40003504877F00313CE5130708F461C080919C
:103B500035048F7D5DC00D3F8CE5180709F479C0F1
:103B600058F50531ECE51E0709F481C098F4809101
:103B70003504837F03312CE5120709F449C008F4AA
:103B800070C00E94371690913504892F97FB87F9F2
:103B900080583EC00B3F8CE5180709F444C008F07C
:103BA00054C08091360481600A3FECE51E0709F09D
:103BB0003BCF8093360438CF0130FDE51F0709F471
:103BC00062C090F4809136048C7F0F3F3CE5130770
:103BD00081F398F180913604982F909591708E7FA3
:103BE000892B90FB81F9E5CF01369DE5190709F492
:103BF00050C0053AEDE51E0709F452C00230FDE55C
:103C00001F0709F011CF60E03FC08091350482604A
:103C10008093350409CF809135048460F9CF809179
:103C200035048860F5CF809136048260C2CF0E944F
:103C30003716809135048068EBCF8091360483601D
:103C4000B8CF809135048B7FE3CF809136048E7F8F
:103C5000B0CF809136048D7FACCF809135048F7BBF
:103C6000D7CF0E943716809135048F77D1CF8091BE
:103C7000350482FB992790F921E0922790FB82F985
:103C800090FB83F9C5CF61E08EE090E00E94BF33E6
:103C9000CBCE90913504892F8F7E94FF8061B8CF71
:103CA00090913504892F8E7F90FF8160B1CF47EBD3
:103CB0005BE161EC7BE10E94C607CBCD41EC5BE1AF
:103CC00067EB7BE1F8CF4FE552E165E572E1F3CFB9
:103CD0004BE352E168E472E1EECF41E252E16EE281
:103CE00072E1E9CF4EE252E161E272E1E4CF4BE7EB
:103CF00052E169E672E1DFCF61E081E046CE64E047
:103D000082E00E94CC1BA5CD6DE08BE0FACF67E18D
:103D10008EE0F7CF0E943716EFEFF4E32CE0E1508E
:103D2000F0402040E1F700C000000E944A07809167
:103D3000360482FB882780F991E089270E940A16C1
:103D4000F701828100811181882309F444C0C801F0
:103D50000E94D410D82E682FC8010E94D60BB8013B
:103D60008D2D0E94C6100E94F5098C01882EF70146
:103D7000C280B580B2943FE0B3228091F002877098
:103D8000C1F0CC20A9F0812F807F803421F080E227
:103D9000800F883070F08091360482FF0AC082E084
:103DA0000E94EE158091F0028770AA24A3948111DD
:103DB000A12C912E92942FE09222FBE0F91508F4A9
:103DC0006FC0E92DF0E0E150FC4C0C94D33081E061
:103DD000B5CF80E0B3CFC8010E94A20BD82EBFCFD1
:103DE000212F2F70D22E107F19F0D29490EFD9226C
:103DF000CC20B9F0DD2069F080E2800F883010F02F
:103E0000811009C080911203D82AD09212030E9417
:103E1000C90C802F43C080911103D82AD09211037E
:103E2000F6CF802F0E946519DD20D1F1005E0830A9
:103E300010F0811004C08D2D0E94660B06C0D09436
:103E400080911103D822D09211030E94C90C28C07E
:103E5000312F3F70D32E107F103219F0D29480EFA3
:103E6000D822882059F081E0881609F464C0CC205B
:103E700009F46EC0BB2009F464C0CBCF2091360496
:103E800022FD37C0CC2079F1DD2039F0809112037A
:103E9000D82AD09212030E94C90C80E00E94BC195B
:103EA000E92DE850FF0B349710F40E94D50FAA209B
:103EB000A9F08091F00280FD11C0F7011282859572
:103EC000859585950E942616C7010E94DC1B80916E
:103ED000F0028595859585950E94E11560E0C70102
:103EE0000E943011C5CC80E00E946519DD20C1F22E
:103EF000A2CFCC2099F0909113038D2D892BB11076
:103F000003C00E94250DCCCFE1E0BE12FACF22FF04
:103F1000C7CF891729F280931303C2CFB11006C00F
:103F20000E94600B8D2D0E941E0DBACFF1E0BF16CE
:103F300009F4B6CFF5CFCC2031F025E02B1508F4ED
:103F4000AFCF8D2DDECF34E03B1508F4A9CFEACFFB
:103F5000BB2041F389E3881209C09FEFE7EEF3E04D
:103F60009150E040F040E1F700C00000802F0E9437
:103F7000651996CF802FCC2029F00E943F090E941E
:103F800095158ECF0E948008FACF812F837089F516
:103F9000C11086CF402F429546954770440F440F7D
:103FA000802F8F70042E01C0880F0A94EAF7202F0B
:103FB000207104FF07C02FE030E001C0220F4A95B6
:103FC000EAF72095169516951370123069F050F4A3
:103FD00030916303113029F0822B83230E94321623
:103FE0005FCF832B822BFACF282B8091630382270C
:103FF000F5CF8695CC2011F0812F8170882309F4AC
:104000004FCF402F429546954770440F440F802F65
:104010008F70042E01C0880F0A94EAF7202F2071B8
:1040200004FF07C02FE030E001C0220F4A95EAF7F5
:104030002095169516951370123069F050F4309152
:104040006604113029F0822B83230E94D01528CFDB
:10405000832B822BFACF282B809166048227F5CF01
:104060001F70CC2029F0812F0E942616802F49CF67
:10407000802F0E941E0D812F0E94E11511CF802FED
:1040800022EF8216B1F1281570F030EF8316D1F0CF
:1040900091EF891691F0CC2009F45CC0B110B9CE33
:1040A000812F8F712AC0E3EF8E1651F1F4EF8F123A
:1040B000F2CF8091360482FD2FC0812F8F71CC20EA
:1040C000D9F21BC0CC2081F024E02B1508F4E8CEF7
:1040D0001F7181E090E0012E01C0880F0A94EAF779
:1040E000909166048927B1CF35E03B1508F4D8CE0E
:1040F000EFCF812F8F71C110BFCF0E942616D0CE77
:1041000080E0CC2009F4A1CF1F7181E0012E01C015
:10411000880F0A94EAF799CFCC2089F01F71812F7C
:104120000E9426168091360482FF07C0E8E01E9F99
:10413000C001112483608093F002812FDECF81E0E3
:104140000E94EE15F1E0FB1508F0AACE82E00E9475
:10415000EE15A6CEBB2059F0893309F007CF2FEF1B
:1041600037EE83E0215030408040E1F7FDCE812FD3
:104170008F7182CF0031FFE51F0709F4DBCB0131DE
:104180002FE5120709F4E0CB80E20C33110520F48F
:10419000F801EA52FE4F80811F928F931F930F9375
:1041A000F70180811F928F9381811F928F938FE8F7
:1041B00091E09F938F931F9287E18F938DE591E01C
:1041C0009F938F930E940C310FB6F894DEBF0FBE01
:1041D000CDBF0D3A3DE5130709F4B8CB0E3A8DE596
:1041E000180709F4C4CB033FFCE51F0709F432CCE0
:1041F00008F0CECB083D3CE5130709F425CC093D7A
:104200008CE5180709F43ECC073D9CE5190709F039
:10421000CBCB06E221EE41EE67ED7CE5C7010E94C3
:10422000331A17CB00313FE5130709F489CB01316D
:104230008FE5180771F682E084CB06319CE51907FB
:1042400041F58091A40269E2811165E384E892E07E
:104250000E9467073BCC0A35EDE51E0709F4B7CD90
:1042600068F401152CE5120709F454CD0E3D1C45E8
:1042700009F066CD0E94A6120E944F190C358DE5FB
:10428000180709F454CD08F4A4CD073A1D45A1F34D
:1042900057CD8091120382720C3CFCE51F0709F494
:1042A00026CD08F068C0063C3CE5130709F40BCDA9
:1042B000F0F5033CECE51E0709F4F9CC48F5023CA7
:1042C0002CE5120709F03CCD8091200480FF58CBEB
:1042D0008E7F80932004609120047091210480914E
:1042E0002204909123040E9482110E94CD078091A4
:1042F000A60381608093A6033FEF80E792E03150F0
:1043000080409040E1F700C000000E94150EA1CA55
:10431000043C3CE5130709F4D1CC45E552E16FE5D7
:1043200072E1053C9CE5190709F4C5CC09CD093CAF
:10433000ECE51E0709F4D1CC78F4073C2CE5120714
:1043400009F4C6CC48E452E16BE372E1083C3CE579
:10435000130709F4B0CCF4CC0A3C9CE5190709F426
:10436000C1CC49E652E16BE772E10B3CECE51E077C
:1043700009F4A1CCE5CC013DFCE51F0709F469CAAD
:10438000A0F40E3C3CE5130709F463CA08F4B4CC6E
:104390000F3C9CE5190709F4B2CC6AE085E0003DCA
:1043A000ECE51E0709F4ADCCCBCC043DFCE51F07C2
:1043B00009F4ADCC58F4023D3CE5130709F4A4CC54
:1043C000033D8CE5180709F444CABACC053D9CE5C9
:1043D000190709F43ECA0D35100709F43ACAB0CCE2
:1043E000B0E0A0E0E6EFF1E20C9485308091BD02F0
:1043F000807F09F050C08091BA02882309F44BC035
:10440000C091EF0286E0B82E8091BE028C1709F4AD
:1044100042C0F090B802E090B902C090BB02D090C8
:10442000BC02A6016E2D8F2D0E948D0BD0E0811154
:1044300037C0BC9E8001BD9E100D1124F801E154CF
:10444000FD4F81818E112CC080818F1129C0828106
:10445000811126C0E380F480EC18FD0860E088EB51
:1044600092E00E9430110E949C05E816F906C0F403
:104470008091BD028F7080618093BD02F801EC5382
:10448000FD4F80818F708061808388EB92E00E9475
:10449000DC1B0E94980BCDB7DEB7E9E00C94A1308D
:1044A0002196C770B1CFA1E1B0E0E9E5F2E20C944A
:1044B0007D308C0185E0F801DE011D9601900D92A2
:1044C0008A95E1F7D8016C9011967C90119712961D
:1044D000EC9012971396CD90DC9060E088EB92E020
:1044E0000E9430114C0188EB482E82E0582EA0909B
:1044F000BB02B090BC02A5016091B9028091B802E4
:104500000E948D0B811171C1F090BA02F601EA1977
:10451000FB095F0160E0FF2009F424C1C2010E9491
:1045200030110E949C053090BD02A816B90608F013
:10453000DBC04091BB025091BC02B090B802A09089
:10454000B902832D807F6A2D09F086C08B2D0E94D1
:104550008D0BFE2C81111CC0D80111968C911197E6
:104560008A1116C08C918B1113C0E11011C0832DDC
:104570008F7080618093BD02C2010E94DC1B80911C
:10458000BD02F80185838F2D6196E1E10C9499308D
:10459000C4010E949C055C01A601672D862D0E9426
:1045A0008D0BD82EF4EFAF16F1E0BF06D0F081E00E
:1045B0008E25D11080E080FF14C04E2D672D862DF2
:1045C0000E946D0B882369F088EB92E00E94DC1B4F
:1045D00086E0E8EBF2E0DF011D928A95E9F7F12C25
:1045E000D2CF81E08E25D11080E0B82FB170CB2ED4
:1045F00080FF29C04E2D672D862D0E946D0BD82E71
:10460000811121C06D867E868D859E850E94031155
:10461000292F22952F70223050F0243078F49F708B
:1046200051F0F8019581907F31F4FD2CACCF9F7053
:1046300011F08823D1F3805E8830B8F3C8010E945E
:10464000DC1BDC2CF2CFEE2009F49DCF8091BD0263
:1046500081608093BD02C3CF8B2D0E948D0B811191
:1046600019C0D80111968C9111978A1113C08C91A1
:104670008B1110C0E1100EC015963C92C8010E942B
:10468000DC1B86E0F801A8EBB2E001900D928A9560
:10469000E1F779CFC8010E941011882309F1EE20BB
:1046A000F9F08091BD02803270F02091B802309113
:1046B000B90238872F831986DB86CA868C87CE019C
:1046C00007960E94DC1B86E0F801A8EBB2E001909F
:1046D0000D928A95E1F70E94F021FF24F39453CFC5
:1046E000C8010E94DC1BF9CF832D807F09F46CCFB9
:1046F000B090B802A090B9024091BB025091BC02A8
:104700006A2D8B2D0E948D0B811113C0F8018181C0
:104710008A110FC080818B110CC0E1100AC0358254
:10472000C8010E94DC1B86E0D2011D928A95E9F740
:104730002ACFC8010E941011882391F2EE2081F245
:104740008091BD02803208F4BECF2091B802309132
:10475000B9023A8329831B82DD82CC828E83CE010B
:104760000196AFCF88EB92E00E9430110E949C0529
:10477000A816B906C0F6FE2CEE2009F4B1CFE090E1
:10478000B802D090B9024091BB025091BC026D2D8D
:104790008E2D0E948D0B81111AC0F80181818D111F
:1047A00016C080818E1113C08091BD0280FD69CF3B
:1047B000982F907F09F465CF8583903F09F45ECFF1
:1047C000982F907F905F8F70892B858357CFC8017A
:1047D0000E941011811177CF8091BD02816080937A
:1047E000BD02C8010E94DC1BCECEEE2009F478CFBA
:1047F000C8010E941011F82E882309F471CF86E0B9
:10480000F801A8EBB2E001900D928A95E1F7809152
:10481000B8029091B9020E9403110E94F021B3CE18
:10482000A7E1B0E0E6E1F4E20C948B304B8B5C8BBB
:104830006D8B7E8B8F8B6111109211031A8A198AEE
:1048400085E0FE017396DE011D9601900D928A951A
:10485000E1F786E0FE013D96DE01179601900D928C
:104860008A95E1F7CE0107960E94532281112FC04D
:1048700086E0FE013796DE01119601900D928A9531
:10488000E1F74A855B8568858F810E948D0B8111D8
:104890001EC02091BE0230E0C901019687709927A1
:1048A0004091EF0248171906E9F096E0929FD00177
:1048B000939FB00D1124A154BD4FFE01319601907C
:1048C0000D929A95E1F78093BE020E94980B16E034
:1048D0008091EF029091BE02891312C06796E3E0C7
:1048E0000C94A7300E9437161092BE021092EF026D
:1048F00086E0E8EBF2E0DF011D928A95E9F7E7CF69
:10490000819FC001112481549D4F0E94532288230E
:1049100029F38091EF0290E00196877099278093A8
:10492000EF02D6CFACE0B0E0E8E9F4E20C948130DD
:104930008E010F5F1F4F88E0D8011D928A95E9F71D
:1049400084E1C82E82E0D82EF12CE12CAA24A39475
:10495000B12C2DE1822E22E0922EF60181916F0181
:104960008F3F09F442C0F894E82FE295EF70F0E031
:1049700021A18F70A50102C0440F551F8A95E2F74F
:10498000CA01922F982B91A392A18095892382A38B
:10499000789400C0E8E1F2E0712C31E021912F3FE2
:1049A00009F46EC0A22FA295AF70B0E090968C91E2
:1049B00090E02F7002C0959587952A95E2F780FDCB
:1049C0005FC0832F782A330F8E169F0639F7F601C2
:1049D000319780818F3F11F00E949B0950EA5A95D0
:1049E000F1F7F801EE0DFF1D70828FEFE81AF80A5B
:1049F000A4E0EA16F10409F0B0CF48E050E0B801B5
:104A000085E493E00E94F6307C01892B41F088E038
:104A1000F801A5E4B3E001900D928A95E1F71091B9
:104A20004E03E114F10471F181E0809316030E94BA
:104A3000891590931503809314038091140390912A
:104A400015030E947A15059790F0E12FF0E0E757E3
:104A5000FC4F809145038083809146038183809140
:104A6000470382838091480383831092160381E079
:104A700090E0E114F10451F02C96EDE00C949D309F
:104A800080E0A0CF809116038111D7CF0E94B20F92
:104A9000F82EE0914E03882309F476C019861A8611
:104AA0001B861C860E2F10E007571C4F8091400379
:104AB0008A30A0F548EC53E1BE01675F7F4FC80123
:104AC0000E947F0F8823C9F141E153E1BE01675F76
:104AD0007F4FC8010E947F0F882379F147E653E199
:104AE000BE01675F7F4FC8010E947F0F882329F1B5
:104AF0001092400380914D0390E044E050E0BE01ED
:104B0000675F7F4F87579C4F0E94F63021E02093CC
:104B10001D03892B59F5F12C8F2DAECF80911703F2
:104B2000909118030E947A15843F914018F6809165
:104B30001D03811112C080E09FCF809140038F3F01
:104B400029F08F5F809340038A30A0F20E9489157C
:104B50009093180380931703EACFFE01399684E0FF
:104B6000DF011D928A95E9F710921D03E0914D0334
:104B7000F0E0E757FC4F89859A85AB85BC8580833B
:104B80009183A283B383C8CFF0E0E757FC4F84E062
:104B9000ACE2B3E001900D928A95E1F78CE293E0EC
:104BA0000E94A90580932B03C0903003D09031035D
:104BB000E0903203F09033038091190390911A032F
:104BC000A0911B03B0911C03C816D906EA06FB0688
:104BD000D1F0C0921903D0921A03E0921B03F09215
:104BE0001C030E94B20F81110EC00E945B07C61AFF
:104BF000D70AE80AF90AC0924103D0924203E09230
:104C00004303F092440380913B03882309F493CF3C
:104C100080FF0DC08091340380FF2AC09091200452
:104C200091609093200460E086950E94771B8091AC
:104C30003B0381FF09C020E04091370360913603B8
:104C4000809135030E94951180913B0382FF06C03D
:104C500080913A03882379F00E945C1B80913B038A
:104C600083FF03C081E08093A10310923B0363CFD5
:104C70000E94670FDCCF0E94CD07F0CF1F921FB6B6
:104C80001F9211248F939F93AF93BF938091300411
:104C9000811113C08091310490913204A0913304AA
:104CA000B09134044196A11DB11D809331049093BD
:104CB0003204A0933304B0933404BF91AF919F9119
:104CC0008F911F901FBE1F901895CDB7DEB7AC9780
:104CD0000FB6F894DEBF0FBECDBF85B7806885BF25
:104CE00085B7806885BF84B7877F84BF0FB6F89487
:104CF000A8958091600088618093600010926000A8
:104D00000FBE80E890E00FB6F89480936100909316
:104D100061000FBE89E999E090938302809382023B
:104D20000E94C0050E948B068091E20084608093FF
:104D3000E200789480915C048823A1F01091E9004E
:104D40001F709091EC00892F817090FD80E8182BE6
:104D50001092E9008091E80083FD0E944D161F70BB
:104D60001093E90082E084BD93E095BD9AEF97BD72
:104D700080936E00109241031092420310924303FD
:104D8000109244030E945B11811102C00E9487109F
:104D90000E94B20F8093200180912001882309F4A2
:104DA00066C01092870184E1809388010E94B20F4F
:104DB00081110E94062F809120018091200194E0B2
:104DC000811190E090934E0384E0891B80934D0302
:104DD00084EF0E949B0985EF0E949B0986EF0E9449
:104DE0009B0987EF0E949B0908E112E0D8018D9191
:104DF0008D018F3F11F00E949B09B2E00D311B071E
:104E0000A9F788E0E9E8F3E0DF01282F1D922A9551
:104E1000E9F7E5E4F3E0DF011D928A95E9F70E94E6
:104E20007114811102C00E94A61282E090E00E94DB
:104E3000AB33809352030E94741190933604809395
:104E400035040E949224EFE3FCE93197F1F700C0AA
:104E500000000E9492248091890380FF0CC06FEFB4
:104E60007FEF90E080E00E94DD330E944A0784E1FA
:104E70008093870199CF83E090E00E94AB330E943A
:104E800032160E94B20F882309F46FC282E0809329
:104E9000840380E8809367040E94BD2D6DE070E07C
:104EA00085E692E00E94470D892BE9F58091840305
:104EB00063E070E081FD5BC282E692E00E94470DF4
:104EC000892B89F56DE070E082E592E00E94470D44
:104ED000892B49F50E945B07605A75418F4F9F4FA0
:104EE00060932504709326048093270490932804EC
:104EF000EAE6F4E080E092E0DF019C011D9221509F
:104F00003040E1F7F0937106E09370068FEF9FEF6A
:104F1000909369048093680481E080932A048093CD
:104F200029041092850380914F03811138C00E949B
:104F30007114811104C00E94A6120E948D1288E093
:104F400090E00E94B3336093200470932104809317
:104F50002204909323048091A60383608093A60388
:104F60006E7F71F40E948D1288E090E00E94B3334E
:104F7000609320047093210480932204909323046F
:104F80000E94D4070E94CD078091200480FF04C0B6
:104F900060E086950E94771B81E080934F030E941A
:104FA000B20F811102C00E94092F81E291E090931B
:104FB0002F0480932E04A8E18A2E912C80915C040A
:104FC000FF24F39400E112E1853009F41BC20E9432
:104FD0009224D82E81110E945B07F9E84F2EF3E04E
:104FE0005F2EE3E5F3E0D20110E000E0B02EED909B
:104FF00081918E1509F426C2C12CFF24F3948E25CD
:10500000982F9F2109F419C20E94B20F882399F0AA
:10501000C9A2BAA2EF2081E009F480E08BA30E942C
:1050200089158160782F9DA38CA349A15AA16BA1FA
:105030008DA10E941024F801ED5AFC4F8081F826C2
:10504000F0820E94B20F8091A503882309F464C006
:105050008091A403E0912004E695E81BE093A0036F
:10506000823009F006C2F0E0E858FD4FE4910E2FBF
:1050700010E0E1E4EE2EEFE0FE2E8091A103882304
:1050800061F01092A1030E94511B90939F038093A3
:105090009E031092A3031092A2030E94511BE09161
:1050A0009E03F0919F039C012E1B3F0B2F3F3F4718
:1050B00098F520915D032223B1F010925D032091B9
:1050C0005B0330915C03821B930B8F3F9F4758F427
:1050D000205D3A4830935C0320935B038091A603E4
:1050E00088608093A603A090A203B090A3030E0F44
:1050F0001F1F10939F0300939E038EE993E0F70117
:1051000009958091A2039091A303892B29F4AB28E0
:1051100019F081E080935D0380912A04882351F186
:1051200080918603909187030E947A15C29708F0B8
:10513000C2C120916804309169042115310509F03C
:105140008DC2809129048823A9F00E945B070091F9
:105150002504109126042091270430912804601B17
:10516000710B820B930B6F3F7F4F8F4F9F4710F454
:105170000E94710DD1100E948C0D86E0E8E9F3E0E9
:10518000DE01119601900D928A95E1F710929A0333
:1051900010929B0310929C0310929D038B819C8123
:1051A000892B09F44DC080919603909197030E943A
:1051B0007A15AC019091920321E030E0911102C088
:1051C00030E020E024173507D8F59F3F19F09F5FA6
:1051D000909392031B81112359F00E941B099FEFAA
:1051E00011160CF491E0899F802D112480939A036D
:1051F0001C81112359F00E941B099FEF11160CF41A
:1052000091E0899F802D112480939B0330919A0314
:105210003323B1F020919B03222391F045EB34031B
:10522000C0011124992309F4E9C290939A0345EB34
:10523000240390011124332309F4E4C230939B0327
:105240008D819E81892B09F44AC0809194039091AD
:1052500095030E947A159C0190919103992309F47A
:1052600087C421353105D8F19F3F19F09F5F909396
:1052700091031D81112359F00E94F9089FEF111627
:105280000CF491E0899F802D112480939C031E8152
:10529000112359F00E94F9089FEF11160CF491E0C8
:1052A000899F802D112480939D0330919C0333238B
:1052B000B1F020919D03222391F045EB3403C0010E
:1052C0001124992309F4A2C290939C0345EB240373
:1052D00090011124332309F49DC230939D0346E0CD
:1052E00050E0BE016F5F7F4F88E993E00E94F63087
:1052F000892B11F00E94951586E0FE013196A8E9F0
:10530000B3E001900D928A95E1F70E94D50F90913C
:10531000880389138093880380915C04843009F0AA
:105320004DCE83E08093E9008091E80082FF46CE75
:105330008091E80090E085FF06C00E94DF05882389
:1053400009F46CC291E08091E8008B778093E800CB
:10535000992309F433CEE981E150E33108F0D2C258
:10536000F0E0E55FFB4C0C94D33080E090CD8FE50E
:1053700092E0A4CD80915C04843009F433C00E9493
:10538000CD0780915103811109C0F09251038091A2
:1053900020048170809350030E94670F0E94710D5A
:1053A0001092300430E40FB6F894A8958092600013
:1053B0000FBE3093600083B7817F846083BF83B763
:1053C000816083BF7894889583B78E7F83BF0FB643
:1053D000F894A89580916000886180936000109295
:1053E00060000FBE80915B04882361F00E949224CC
:1053F000E9E8F3E0819181119CC381E993E08E1784
:105400009F07C1F780915C04853009F4B3CF0E94F7
:1054100037160E94D50F10925103809150038823B4
:1054200049F08091200481608093200460E086959B
:105430000E94771B0E945C1BCACDC394FF0C95E0B1
:10544000C912DECD0F5F1F4F0830110509F0CECD18
:105450008FEF8EA38FA318A60E9489158160782FE5
:105460009AA789A74EA15FA168A58AA50E941024CA
:10547000E8CD853061F4E695F0E0EB58FD4FE4911E
:105480000E2F10E078EEE72E7EE0F72EF6CD00ED41
:1054900017E05CECE52E57E0F52E8B3009F0EDCDF2
:1054A000F0E0EE58FD4FE4910E2F10E060E6E62E9E
:1054B0006EE0F62EE2CD0E948915909387038093CB
:1054C00086038AE694E090937106809370060E94AA
:1054D000B20F882309F4BDC03091200480912104CB
:1054E000909122042091230440915E0343130CC049
:1054F00040915F03841308C040916003941304C07B
:1055000040916103421799F1269526952695969527
:1055100096959695869586958695432F469530FD6A
:1055200086C03EE21F922F931F929F931F928F93EC
:105530001F924F931F923F938BEA91E09F938F931B
:105540001F9287E18F938DE291E09F938F930E944A
:105550000C3185E0E0E2F4E0AEE5B3E001900D92BD
:105560008A95E1F70FB6F894DEBF0FBECDBF8DE28E
:1055700091E00E942F0D8091660440916303EDE15C
:10558000F2E030E020E09081811153C0941354C0C8
:1055900049E0429FC001439F900D1124825E9D4FC0
:1055A0002091350422FD52C027EA31E09F938F936A
:1055B0003F932F9386EC91E09F938F931F9287E107
:1055C0008F9385E491E09F938F930E940C3185E443
:1055D00091E00E942F0D0E94D50F182F8DE892E0C8
:1055E0000E94BB0C0FB6F894DEBF0FBECDBF10FFFC
:1055F00004C088E892E00E94BB0C11FF04C082E85E
:1056000092E00E94BB0C12FF04C08DE792E00E9462
:10561000BB0C8BE792E00E94BB0C8DE591E00E94F1
:105620002F0D80912A04882309F48BCD82CD3AE294
:1056300079CF981709F4ACCF2F5F3F4F39962630BA
:10564000310509F0A0CF81EA91E0AACF23EA31E049
:10565000ADCF83E992E00E94BB0CE3CF809185033C
:1056600061E070E081116DCD082F10E07B01082E04
:1056700002C0EE0CFF1C0A94E2F7A9014E215F2143
:10568000452B09F447C09091840390FD45C0829555
:10569000880F807680937701980136952795369507
:1056A000279520937A01815E8093780110927B0187
:1056B00024E630E047E050E065E771E088E70E94CB
:1056C000602E892B09F03DCDA80125E0440F551F20
:1056D0002A95E1F78091840380FD2CC046595B4FE9
:1056E00004E610E020E230E060E488E70E94812ECA
:1056F000892B09F026CD0E948C0DE094F0948091C6
:10570000680490916904E822F922F0926904E09219
:10571000680417CD8F5FA8CF880F880F880F8093FC
:10572000770110927A01895F8093780183E08093FA
:105730007B01BECFE4E6F3E080E2DF011D928A95B3
:10574000E9F7E7E5F2E0FCA7EBA703E512E0ABA57C
:10575000BCA52D91BCA7ABA7F80121908F01240E09
:10576000352E311CC10186599B4F1C01E22FF0E000
:10577000EC59FC4F30E020E097E0692E621ACC240F
:10578000C394022E01C0CC0C0A94EAF7510190E0B8
:10579000D5018D915D018C21662D691B6770762E78
:1057A000062E000C770BB82F01C0BB0F7A94EAF7D6
:1057B0007B2E7195619571096770772701C0869579
:1057C0006A95EAF7782A8081782A70829F5F9830FC
:1057D000F9F62F5F3F4F31962830310569F6EBE53A
:1057E000F2E02BA53CA5E217F30709F0B0CF04E6E1
:1057F00010E020E230E044E653E076CF81E0809391
:105800009A0315CD81E080939B031ACD81E08093AC
:105810009C035CCD81E080939D0361CD80E2E82E06
:10582000F12C8E010F5F1F4F8091E80085FD0AC0AB
:105830008091E8008B778093E8000E94DF05882341
:1058400099F380CD8091F100D8018D938D01B1E065
:10585000EB1AF10849F776CD1A8289E08B8311C0E3
:105860008A81823009F47BC1833091F1813009F063
:1058700049C00E945B070E94D9306B837C838D8373
:105880009E8380915C04843009F098CB1091E900EC
:105890001F709091EC00892F817090FD80E8182B8B
:1058A00082E08093E9008091E80080FF0DC050E025
:1058B00040E060E270E0CE0101960E941006809107
:1058C000E8008E778093E8001F701093E90076CB94
:1058D000FE013396D2018D912D018193B1E94B16D2
:1058E000B3E05B06B9F7CDCF8A81823059F46B8182
:1058F0007C818D819E810E94D93086E290E00E9459
:10590000BF33BFCF8FEF8983BCCF4C816B818A813E
:105910000E9497109827892798279E838D83B1CF5F
:105920002D813E813227232732274C816B818A814A
:105930000E941010A6CF0E943610A3CF8A81813812
:10594000C1F060F4803809F09CCF20E04B81609179
:105950002204809121040E94951193CF8238E9F0AE
:10596000833809F08ECF20E0409123046C818B8135
:10597000F2CF60E08B810E94771B8B81811103C085
:105980000E94670F7ECF8091200481608093200465
:1059900060E086950E94771B74CF8B8180932404EE
:1059A00070CF8A81813899F030F4803809F069CF5E
:1059B0008091230453CF823891F0833809F061CF6E
:1059C000809121048B83809122048C835ACF809113
:1059D000200480FF02C0869541CF80E03FCF8091B8
:1059E00024043CCF60912004709121048091220412
:1059F000909123040E94821144CF80E18A8341CF99
:105A000082E08A8389E92ACF0A811B811027012736
:105A10001027FE0131966F01EC809F012E0D311D84
:105A20007901C80189599E4FEC14FD0409F429CF6E
:105A3000093932E0130758F40E94AB33D6011496AB
:105A40008C930F5F1F4FFFEFCF1ADF0AEACFF601EB
:105A50001482F7CF0A811B811027012710279E018E
:105A60002F5F3F4F6901EC80E00EF12EF11CC80161
:105A700089599E4FE016F10609F403CF093932E047
:105A8000130728F4D60114966C910E94BF33BFEF20
:105A9000CB1ADB0A0F5F1F4FEACF0E940010F1CE36
:105AA00084E0ACCF0A811B81102701271027FE015B
:105AB00031966F01EC809F012E0D311D7901C801D7
:105AC0008796EC14FD0409F4DCCE003431E01307B2
:105AD00058F40E94AB33D60114968C930F5F1F4F7E
