:100000000C94FE030C941B040C941B040C941B0412
:100010000C941B040C941B040C941B040C941B04E4
:100020000C941B040C941B040C941A0E0C942214B4
:100030000C94A4210C941B040C941B040C941B041E
:100040000C941B040C941B040C941B040C941B04B4
:100050000C941B040C94F30E0C941B040C941B04C2
:100060000C941B040C941B040C941B040C941B0494
:100070000C941B040C941B040C941B040C941B0484
:100080000C941B040C941B040C941B040C941B0474
:100090000C941B040C941B040C941B040C941B0464
:1000A0000C941B040C941B040C941B040E000F00F6
:1000B00000000D000E0000001600070000000900FF
:1000C0000D0000005200510000571A0008001500F2
:1000D0001700000001571600070009000A00000081
:1000E0001D001B0006681961056400001300120062
:1000F0000C0018001C00000034000F000E000D0062
:100100000B0000003800370036001000110000001E
:10011000000000000000000000002C0000DA028156
:10012000FFD9F1DB20A4A62EAF00A0C000A1C8001B
:10013000AED580A81FD300408D142000434E5452EA
:100140004C0053484946540007087F0807003E5BAF
:100150004F5B3E003E6B4F6B3E001C3E7C3E1C00E6
:10016000183C7E3C18001C577D571C001C5E7F5EAF
:100170001C0000183C180000FFE7C3E7FF00001850
:1001800024180000FFE7DBE7FF0030483A060E00C6
:10019000262979292600407F05050700407F05258F
:1001A0003F005A3CE73C5A007F3E1C1C0800081CDC
:1001B0001C3E7F0014227F2214005F5F005F5F00FF
:1001C00006097F017F00006689956A0060606060B3
:1001D000600094A2FFA2940008047E04080010208E
:1001E0007E20100008082A1C0800081C2A080800A5
:1001F0001E10101010000C1E0C1E0C0030383E3863
:100200003000060E3E0E0600000000000000000058
:100210005F000000000700070000147F147F140037
:10022000242A7F2A120023130864620036495620CC
:100230005000000807030000001C2241000000419C
:10024000221C00002A1C7F1C2A0008083E08080007
:100250000080703000000808080808000000606096
:1002600000002010080402003E5149453E000042B3
:100270007F4000007249494946002141494D330001
:100280001814127F10002745454539003C4A49495A
:1002900031004121110907003649494936004649D4
:1002A00049291E0000001400000000403400000036
:1002B00000081422410014141414140000412214E4
:1002C00008000201590906003E415D594E007C12AA
:1002D00011127C007F49494936003E4141412200CC
:1002E0007F4141413E007F49494941007F09090959
:1002F00001003E41415173007F0808087F00004122
:100300007F4100002040413F01007F08142241004E
:100310007F40404040007F021C027F007F040810A5
:100320007F003E4141413E007F09090906003E41F0
:1003300051215E007F0919294600264949493200AA
:1003400003017F0103003F4040403F001F20402049
:100350001F003F4038403F0063140814630003044B
:10036000780403006159494D4300007F4141410039
:10037000020408102000004141417F0004020102F4
:1003800004004040404040000003070800002054A3
:10039000547840007F2844443800384444442800BE
:1003A000384444287F0038545454180000087E090B
:1003B000020018A4A49C78007F080404780000447C
:1003C0007D4000002040403D00007F102844000098
:1003D00000417F4000007C04780478007C0804041D
:1003E0007800384444443800FC18242418001824A9
:1003F0002418FC007C0804040800485454542400C9
:1004000004043F4424003C4040207C001C20402049
:100410001C003C4030403C004428102844004C90D4
:1004200090907C004464544C440000083641000025
:1004300000007700000000413608000002010204BD
:1004400002003C2623263C00000000000000404043
:1004500040F0F8F8FF38FFF8F83FF8F8FF38FFF8F9
:10046000F8F040404000000000000080C0C0C080A4
:100470000000C0C08000000080C0C000C0C00000FC
:1004800080C0C00000000000C0C0C0C0C000C0C02C
:10049000000000000000000000000000000000005C
:1004A000000000000000000000000000000000004C
:1004B000000000000000000000000000000000003C
:1004C00000000000000000C0F0F8FC3E1E06010025
:1004D00000007F4141417F007F4141417F0000801A
:1004E000C0E07E5B4F5BFEC00000C000DCD7DEDEFC
:1004F000DED7DC00C00000000000000000000000AB
:100500000000000000000000000000000000494959
:1005100049FFFFFFFFE0DFBFBF00BFBFDFE0FFFF1E
:10052000FFFF49494900000000001F3F6060E0BF35
:100530001F007F7F071E381E077F7F007F7F0E1FF3
:100540003B716000000000007F7F0C0C0C007E7E81
:10055000007F7E0303007F7E03037E7E03037F7E96
:10056000000F3E703C063C703E0F00327B49493F15
:100570007E007F7E0303001E3F69696F2600000036
:1005800000000000000000030F1F3F3C7870600077
:1005900000007F4141417F007F4141417F00307B2E
:1005A0007F7830202030787F3B0003000F7F0F0FD3
:1005B0000F7F0F000300000000000000000000009B
:1005C0000000000000000000000000000000010129
:1005D00001070F0F7F0F7F0F0F7E0F0F7F0F7F0F12
:1005E0000F070101010000000000000000000001F1
:1005F00001000000000000000000000000000000FA
:1006000000000000000000000000000000000000EA
:1006100000000000000000000000000000000000DA
:1006200000000000000000000000000000000000CA
:1006300000000000000000000000000000000000BA
:1006400000000000000000000000000000000000AA
:10065000000000000000000000000000000000009A
:10066000000000000000000000000000000000008A
:10067000000000000000000000000000000000007A
:10068000000000000000000000AF00AE05010902FC
:10069000A10185020901A100050919012908150018
:1006A000250195087501810205010930093115817F
:1006B000257F95027508810609381581257F9501EA
:1006C00075088106050C0A38021581257F9501758C
:1006D000088106C0C005010980A101850319012A0E
:1006E000B700150126B700950175108100C0050CF3
:1006F0000901A101850419012AA002150126A00201
:10070000950175108100C005010906A10185060546
:100710000719E029E71500250195087501810205F3
:1007200007190029EF1500250195F07501810205D3
:100730000819012905950575019102950175039127
:1007400001C005010906A101050719E029E7150007
:10075000250195087501810295017508810105073C
:10076000190029FF150026FF009506750881000570
:1007700008190129059505750191029501750391E7
:1007800001C009023B00020100A0FA0904000001B7
:100790000301010009211101000122400007058128
:1007A00003080001090401000103000000092111F0
:1007B00001000122B600070582032000011201009A
:1007C0000200000008484A70730100010200010E97
:1007D00003530061007400500061006400000016C3
:1007E000036A00610073006F006E00680061007AA8
:1007F0000065006C000000040309040011241FBE02
:10080000CFEFDAE0DEBFCDBF11E0A0E0B1E0E4E180
:10081000F2E502C005900D92AC3AB107D9F725E098
:10082000ACEAB1E001C01D92A139B207E1F70E9424
:10083000CB210C94F2280C940000E8EDF0E08081CC
:100840008E7F80831092E2001092DA001092E10015
:10085000A0EEB0E08C9181608C9380818F77808353
:1008600019BCA7EDB0E08C918E7F8C9380818F7E38
:1008700080831092610508952091E4003091E50095
:1008800095E6A9012091EC00822F817020FF06C01F
:100890008091E80080FF06C080E008952091E80084
:1008A00022FD1AC080918705882389F0853089F060
:1008B0008091EB0085FD0FC02091E4003091E500B0
:1008C00042175307F9F29150E1F684E0089582E06F
:1008D000089583E0089581E00895EF92FF920F93C9
:1008E0001F93CF937C018B010E943C04C82F811180
:1008F00017C08091E80085FD0BC08091E8008E77DD
:100900008093E8000E943C04882399F3C82F08C014
:10091000F70181917F018093F1000150110949F79E
:100920008C2FCF911F910F91FF90EF9008958091A0
:10093000890587FF13C08091E80082FF06C080917F
:10094000E8008B778093E80004C0809187058111CF
:10095000F2CF0895809187058823D9F38091E8002C
:1009600080FFF8CF8091E8008E77ECCF982F90939E
:10097000E900242F762F50E0891731F07091EC00B8
:100980002091ED005091F00021FD07C09F5F97304E
:1009900071F78093E90081E008953091EB003E7F8C
:1009A0003093EB003091ED003D7F3093ED003091BE
:1009B000EB0031603093EB007093EC002093ED007E
:1009C0005093F0002091EE0027FDE0CF80E00895E5
:1009D000B0E0A0E0EEEEF4E00C944728C8EDD0E0E3
:1009E00088818F7E8883E7EDF0E08081816080835D
:1009F00084E082BF81E08093610588818E7F888357
:100A000002EE10E0F80110821092DA0081EEC82E9A
:100A1000D12CF601108288818F7788838881806845
:100A2000888388818F7D888319BC109287051092F6
:100A30008805109286051092850590EEE92EF12C1E
:100A4000F70180818B7F808388818160888342E089
:100A500060E080E00E94B604F60180818E7F808392
:100A6000F801808181608083808188608083F701C4
:100A700080818E7F8083888180618883CDB7DEB757
:100A8000E8E00C946328FC0180918F05909190051B
:100A900086179707A0F06115710529F49091E80079
:100AA0009E779093E80090E06115710551F49111E3
:100AB00008C08091E80082FF34C080E00895BC0146
:100AC000F2CF809187058823C1F18530C1F18091F3
:100AD000E80083FD30C08091E80082FDEACF80917C
:100AE000E80080FFE1CF8091F3002091F200382FE1
:100AF0006115710519F02830310558F091E0283062
:100B0000310509F090E02091E8002E772093E8006D
:100B1000CBCF81918093F100615071092F5F3F4FDE
:100B2000E7CF80918705882341F0853041F080919F
:100B3000E80083FFBECF81E0089582E0089583E05E
:100B40000895089580916405089587E797E7909345
:100B500001088093000888E19AE00FB6F894A89500
:100B6000809360000FBE90936000FFCF2FB7F89482
:100B7000609158057091590580915A0590915B05D7
:100B80002FBF0895209155012223C1F020915C05CB
:100B900027FF14C0E62FE695E695E695EE31F8F4CA
:100BA000E80FF92FF11D677021E030E001C0220F3E
:100BB0006A95EAF78281822B82830895FC0132963E
:100BC0002FEF30E04191641751F02F3F19F441119C
:100BD00001C0232F3F5F3630A9F72F3F09F4089556
:100BE000820F911D27FD9A95FC0162830895209143
:100BF0005505309156052817390771F09093560521
:100C000080935505E0915305F0915405309721F0FC
:100C10000084F185E02D09950895209151053091CA
:100C200052052817390771F09093520580935105AA
:100C3000E0915305F0915405309721F00680F7813B
:100C4000E02D09950895E0915305F09154053097F2
:100C500029F00190F081E02D0995089580E0089534
:100C6000CF93DF93EC01409143055091440560918F
:100C70004505709146052FB7F894809158059091DD
:100C80005905A0915A05B0915B052FBF841B950BA8
:100C9000A60BB70B843F9140A105B10518F58091D3
:100CA000430590914405A0914505B0914605809378
:100CB0003F0590934005A0934105B093420584EF12
:100CC00091E0A0E0B0E080933B0590933C05A093B9
:100CD0003D05B0933E05D0934B05C0934A05DF9187
:100CE000CF9108950E94B60560933F05709340052B
:100CF000809341059093420582E390E0A0E0B0E04C
:100D0000E2CFFC018581862351F492819923B9F0C9
:100D10006923818583FF05C081E061110FC080E0F8
:100D20000895892F8F7092959F70982B862F8F70C2
:100D300062956F70682B81E09613F1CF089581E082
:100D4000FDCFDC016091370580913805962F89131E
:100D500001C00895292F30E0F901EE0FFF1FE15D7A
:100D6000FA4F408151814A175B07A1F487E08A9FBF
:100D7000A0018B9F500D1124485C5E4F81E0FA0169
:100D800084839613E6CF2F5F3F4F23703327209342
:100D9000370508952F5F3F4F922F9370D8CF109251
:100DA000CC041092CB04E8E3F1E08581811102C00C
:100DB00014821682379681E0E435F807B1F708957A
:100DC0004091B3028D3E59F48091B40287FF0DC06B
:100DD0001092B40241110BC01092AB0208C08E3EBB
:100DE00081F48091B40218169CF3442381F0809121
:100DF000B5029091B602892B09F05AC01092AA024E
:100E000008958F3E49F447FFF0CF1092B3028091CE
:100E1000B4028111ECCFE0CF803F19F41416ACF38B
:100E2000E4CF9091B502893F29F41916F4F6109297
:100E3000B502DBCF8A3F19F497FFD7CFF8CF909157
:100E4000B6028B3F29F497FFD0CF1092B602CDCFD8
:100E50008C3F19F41916CCF3C8CF9FE0980F983047
:100E600090F4815F990B21E030E0B90102C0660F78
:100E7000771F8A95E2F7CB0180959091B202892382
:100E80008093B202B2CF8D3F31F48091AC028E7F5D
:100E90008093AC02AACF8E3F21F48091AC028D7F6B
:100EA000F7CF8F3F09F0A1CF8091AC028B7FF0CFBD
:100EB00008958091AC0280FD16C081FD16C082FDB0
:100EC00016C08091AA028823A1F0883280F428E01D
:100ED000829FC001112468E270E00E948028862F62
:100EE000672B39F0089582E0089584E0089588E042
:100EF000089581E008958091AC0280FD14C081FDC9
:100F000014C082FD16C08091AB02882381F08E311F
:100F100080F420E5829FC00111246EE170E00E9400
:100F20008028862F089584E1089588E2089588E056
:100F3000089580E508958D3E31F40E947B078195E8
:100F40008093B40208958E3E19F40E947B07F8CF77
:100F50008F3E31F40E947B0781958093B302089500
:100F6000803F19F40E947B07F8CF893F29F40E9443
:100F700059078093B50208958A3F21F40E945907CA
:100F80008195F7CF8B3F31F40E945907819580936B
:100F9000B60208958C3F19F40E945907F8CF9FE0DC
:100FA000980F983070F4815F990B21E030E001C018
:100FB000220F8A95EAF78091B202822B8093B202C7
:100FC00008958D3F31F48091AC0281608093AC0232
:100FD00008958E3F21F48091AC028260F7CF8F3F5D
:100FE000B9F78091AC028460F1CF80E00895F89465
:100FF000E82FE295EF70F0E031A1282F2F7081E00B
:1010000090E001C0880F2A95EAF7982F90959323D6
:1010100091A392A1892B82A37894089590915C0565
:1010200092FF06C0282F28712830F9F4877F84604A
:1010300093FF06C0282F28712831F1F4877E846140
:1010400020915D0520FF06C0382F38713830D9F463
:10105000877F816021FF06C0282F28712831D1F4B5
:10106000877E816194FD877E0895282F2471243026
:10107000F9F68B7F8860DCCF282F2471243101F7AB
:101080008B7E8861DDCF382F3171313019F78E7F3B
:101090008860E0CF282F2171213121F78E7E886171
:1010A000E1CF972F7730A8F4663048F570E026E05E
:1010B000929F600D711D1124FB019AE2899FE00D42
:1010C000F11D1124EE0FFF1FE853FF4F85919491FE
:1010D00008957D3F49F4611112C024E0829FF00120
:1010E0001124EC53FF4FF2CF7C3F49F4611107C04C
:1010F00094E0899FF0011124EA53FF4FE7CF80E08D
:1011000090E00895CF93DF93EC0182389105B1F11F
:1011100008F040C08133910509F49DC048F589323B
:10112000910509F48DC08A9709F49CC0C11521E589
:10113000D20708F0C3C0C11530E5D30708F01EC1BF
:10114000C83ED10508F0A3C0C03ED10588F5C83A15
:10115000D10508F08EC0C53AD10508F007C1C130ED
:10116000D10531F1209721F1C430D10508F545C0F2
:101170008533910509F45FC0C997C1F680915C057C
:10118000837009F043C180915D0583FF11C0C9E2FE
:10119000D0E00EC0833E910599F170F4803E910538
:1011A00001F1823E910511F680915C0582FD21C01E
:1011B000CE01DF91CF910895863E910561F1873E82
:1011C000910571F1843E910509F0B0CF80915D05E4
:1011D00081FFEECF80915C05C7EED0E084FD0DC0AD
:1011E000E7CF80915C0580FD33C090915D0590FF55
:1011F000DFCFC3EED0E084FFDBCFD0E0C0E0D8CFBC
:1012000080915C0582FDFFC090915D0590FDFEC060
:1012100084FFCECFF2CF80915C0583FDDDCFC8CFB8
:1012200080915C0583FDF5C090915D0591FFF0CF45
:10123000C4EED0E0BDCF80915C0585FFB9CFA7CFCC
:1012400080915C0585FDE8C080915D0583FFB0CF8E
:10125000C9E3D0E0ADCF80915C0586FFA9CFCAE29B
:10126000D0E0A6CF80915C0586FFA2CFC1E3D0E09D
:101270009FCFCF3BD10508F6C85AD0E0CC0FDD1F79
:10128000C75ADE4F0990D881C02DD46491CFC115C3
:1012900040E2D40758F4C11581E0D80708F088CFA0
:1012A000CD3ED10508F4A9CFD06582CFC11520E489
:1012B000D20708F4A2CFDF70D06A7ACFC11535E526
:1012C000D30718F5C11544E5D40708F084C0C1154B
:1012D00083E5D80708F06BC0C11522E5D20708F4F2
:1012E00061C0CE018370992721E030E002C0220F57
:1012F000331F8A95E2F7C695C69580E2C89FE00144
:101300001124C22BD32BDC6853CFC11539E5D30789
:10131000A8F4C11548E5D40708F062C0C11586E5F8
:10132000D80708F06ACF8C2F0E940E08C82FD0E093
:10133000DC2FCC27CC27DF71D0623ACFC1152AE54C
:10134000D20708F452C0CE0190568115904208F0A1
:1013500054CF8D2F8F710E940E0890E0982F882710
:1013600088279F719C012C2BE901E6CFC55AD0E05C
:10137000CA5ADE4FC881D0E0D0641ACFCE01837044
:10138000992721E030E002C0220F331F8A95E2F74F
:10139000C695C69540E2C49FE0011124C22BD32B11
:1013A000DD6806CFDC2FCC27C16FD06A01CFCE011C
:1013B0008370992721E030E002C0220F331F8A9505
:1013C000E2F7C695C69540E2C49FE0011124C22B06
:1013D000D32BDA68EDCEDC2FCC27C46FD06AE8CEF1
:1013E000DC2FCC27C06FD06AE3CE8C2F8F700E9489
:1013F0000E0834E0D695C7953A95E1F7CF709C2F4B
:10140000EC01D069D5CEC2EED0E0D2CEC0EED0E0B5
:10141000CFCEC6EED0E0CCCEC5E3D0E0C9CE809131
:101420008602882331F01092860210926002109298
:101430005F020895809590914E05982390934E05F4
:101440000895809590916205982390936205089580
:1014500010923E0210923D0210923C02089590912B
:1014600055019923D1F090915C0597FF16C0E82FA4
:10147000E695E695E695EE31E0F4F0E0E055FE4FB6
:10148000282F277081E090E001C0880F2A95EAF7A5
:1014900080959281892382830895E2EBF1E0919116
:1014A000891303C0DF0111971C9291E0E83BF90713
:1014B000B1F7089520913B029091FA01291302C0DF
:1014C00080E0089530E0F90153E0EE0FFF1F5A95D8
:1014D000E1F7E550FE4F5181561306C05081581375
:1014E00003C05281541304C02F5F3F4F2770E6CFD3
:1014F00081E0089580913B029091FA01981301C018
:1015000008958F5F8770FACFB0E0A0E0EAE8FAE0D4
:101510000C9446287C0100916D0210916E0280911E
:10152000610290916202082B192BCFE0D0E0CC240D
:10153000C394D12CBC2EC6010C2E02C0880F991F5B
:101540000A94E2F780239123892B49F4219790F79D
:10155000B12C8B2DCDB7DEB7E9E00C946228B70132
:101560008C2F0E9451080E948208019779F3F1CFD5
:10157000CF93DF93EC010E94840ABE010E945108C0
:101580000E948208DF91CF910895A82FA77023E0D1
:10159000969587952A95E1F7880F991F880F991FCF
:1015A000FB01E80FF91F50E040E080E0219130E0BE
:1015B0000A2E02C0369527950A94E2F72170332748
:1015C000042E01C0220F0A94EAF7822B4F5F5F4F6F
:1015D0004430510559F70895292F973068F4863023
:1015E00090F490E06AED71E036E0239F800D911D4C
:1015F00011240E94C50A08952C5F223020F466ED64
:1016000071E090E0F6CF80E00895262F277091E0FA
:1016100001C0990F2A95EAF723E0769567952A95F8
:10162000E1F7660F771F660F771FFA01E60FF71FC6
:1016300050E040E0682F70E08191DF0111979B013D
:10164000042E02C0369527950A94E2F72170219561
:101650002827292328272C934F5F5F4F44305105BB
:1016600059F70895282F862F973070F4263058F4B4
:10167000622F70E026E0929F600D711D11244AEDEB
:1016800051E00E94050B08959C5F9230E0F7622FB5
:1016900070E046ED51E0F5CFFC0183819481892B08
:1016A00029F08081918189238F3FF1F480E00895B2
:1016B0000E94820892959F70963089F058F4925F4C
:1016C0009F70923098F7803F19F030F4883E70F7A1
:1016D00081E008959A5FF4CF843F41F7F9CF883EC7
:1016E000B8F3813F19F7F4CF86819781009701F70E
:1016F000808191810E94B80ADDCFA5E0B0E0E3E8E7
:10170000FBE00C944C289C01FC018681978100979A
:10171000E1F485E0DE01119601900D928A95E1F7E2
:10172000F901228189819A81222399F0662389F027
:101730000E94840A182F682F89819A810E94320B97
:1017400069817A81812F0E9451082596E3E00C94EB
:1017500068280E94EC0A182FF3CF9C013A952115B6
:101760003F4150F5FC01EE27F170BC016627727015
:10177000AC01442754709C012227387094FF0EC09E
:1017800080E1EF2B09F480E0672B09F08062452BA4
:1017900009F08064232B89F08068089581E0EF2BA5
:1017A00009F480E0672B09F08260452B09F0846022
:1017B000232B19F08860089580E00895B0E0A0E040
:1017C000E4EEFBE00C9447286C017B0164E670E0DA
:1017D00088E70E944327EC0197FD12C010E000E06B
:1017E000F601E00FF11F849164E670E00E94AF27DC
:1017F000EC01892B29F40F5F1F4F0E151F0581F790
:101800000E942528CE01CDB7DEB7E8E00C9463280E
:101810008091C6049091C704911103C091E089277B
:101820000895882369F062E070E08AE896E00E94FB
:10183000DE0B892B19F08091C60408951092C6041E
:101840008091C604EBCFCF93C091C6048091C704AA
:101850008823D1F00E94B605605A75418F4F9F4F83
:101860006093C2047093C3048093C4049093C5042E
:10187000C11108C062E070E088E896E00E94DE0BCB
:10188000892B29F0C091C6048C2FCF91089581E057
:101890008093C604F7CF80935E05709360056093D4
:1018A0005F0580918705843001F582E08093E9002F
:1018B0008FEF9091E800815095FD06C095ED9A95C7
:1018C000F1F700008111F5CF8091E80085FF0DC090
:1018D00050E040E063E070E08EE595E00E946D042A
:1018E0008091E8008E778093E8000895BC0184E041
:1018F0000E944B0C0895BC0183E00E944B0C08959C
:101900009C0182E08093E9009FEF8091E800915074
:1019100085FD06C085ED8A95F1F700009111F5CFA0
:101920008091E80085FF0CC050E040E066E070E088
:10193000C9010E946D048091E8008E778093E800D1
:101940000895CF93DF93EC01809155018823B1F185
:1019500080915C0587FF32C060E282E08093E900FD
:101960008FEF9091E800815095FD06C095ED9A9516
:10197000F1F700008111F5CF8091E80085FF1BC0D1
:101980008091550170E050E040E0811104C050E0CA
:1019900040E068E070E0CE010E946D048091E800B4
:1019A0008E778093E80080E2FE01A5E6B5E0019025
:1019B0000D928A95E1F7DF91CF91089568E081E07B
:1019C000CDCF1F93CF93DF93162FC091C004D0913A
:1019D000C1048A30D1F42091B702CE018A5B9240D3
:1019E000622F70E00E942928281B822F66E00E9447
:1019F0007428C82FC15020F4DF91CF911F91089512
:101A000060E080E20E94E10CF5CF8D30E9F4CA5B22
:101A1000D2402091B702622F70E0CE010E942928A7
:101A2000281B822F9E01280F311D2115324018F0EE
:101A300080E0D0E0C0E0C80FD11DC654DD4FD09388
:101A4000C104C093C004D8CF96E0FE01AAEBB4E075
:101A500001900D929A95E1F7803E90F186E0FE01AB
:101A600011928A95E9F7C091C004D091C104111177
:101A700033C046E050E0BE018AEB94E00E94A32808
:101A80009E012A5B3240892B91F52A5F3F4F40919E
:101A9000B702642F70E0C9010E942928481B463014
:101AA00010F4240F311D211572E0370710F030E0DB
:101AB00020E026543D4F3093C1042093C0049CCFB6
:101AC000F6E08F9FB0011124685B7E4F46E050E046
:101AD000CE010E949A28C7CF9E012A5F3F4FFE0188
:101AE0002E173F0731F2808180958193F9CFC9018C
:101AF00045E0969587954A95E1F741E050E0BA01B7
:101B000002C0660F771F8A95E2F7CB016091B80299
:101B10007091B902862B972BB9016B5F7F4FE5E07F
:101B200076956795EA95E1F702C0440F551F6A95CF
:101B3000E2F7842B952B9093B9028093B802A5CF3E
:101B40001F93CF93DF93EC01162FFE018491811137
:101B500004C0DF91CF911F910895612F0E94E10C85
:101B60002196F3CF68EE7EEF90E080E00E94DC28C3
:101B700060E082E090E00E94BE2860E083E090E0B8
:101B80000E94BE28109262021092610260E084E01E
:101B900090E00E94BE2864E082E290E00E94BE28AD
:101BA00060E085E090E00E94BE2860E086E090E082
:101BB0000E94BE286FEF87E090E00E94BE2840E0C0
:101BC00050E0BA0188E090E00E94D02860E08DE00B
:101BD00090E00E94BE2840E050E0BA0188E190E029
:101BE0000E94D02860E087E190E00E94BE2840E09B
:101BF00050E0BA018CE190E00E94D02870E060E0F3
:101C000080E290E00E94DC2840E050E0BA0188E1E8
:101C100090E00E94D02840E050E0BA018FE090E0D0
:101C20000E94D02840E050E0BA0183E190E00E9499
:101C3000D02808951F920F920FB60F9211242F9360
:101C40003F934F935F936F937F938F939F93AF9344
:101C5000BF93EF93FF938091E10082FF09C08091D1
:101C6000E20082FF05C08091E1008B7F8093E1005C
:101C70008091DA0080FF24C08091D80080FF20C0CE
:101C80008091DA008E7F8093DA008091D90080FF06
:101C90009DC080E189BD82E189BD09B400FEFDCF10
:101CA00081E08093870580916105811109C00E94C0
:101CB0001D040E94E8048091E20084608093E200A9
:101CC0008091E10080FF17C08091E20080FF13C087
:101CD0008091E2008E7F8093E2008091E20080613B
:101CE0008093E2008091D80080628093D80019BC74
:101CF00085E0809387058091E10084FF2BC080916F
:101D0000E20084FF27C080E189BD82E189BD89B5F9
:101D1000982F917080FFFBCF8091D8008F7D8093AA
:101D2000D8008091E1008F7E8093E1008091E200F5
:101D30008F7E8093E2008091E20081608093E200D8
:101D400080918805882309F447C084E08093870543
:101D5000809187058091E10083FF27C08091E20098
:101D600083FF23C08091E100877F8093E10082E0C0
:101D700080938705109288058091E1008E7F809383
:101D8000E1008091E2008E7F8093E2008091E2008A
:101D900080618093E20042E060E080E00E94B6044F
:101DA0008091F00088608093F000FF91EF91BF91E7
:101DB000AF919F918F917F916F915F914F913F91E3
:101DC0002F910F900FBE0F901F90189519BC109275
:101DD00087051092610574CF8091E30087FD93E041
:101DE00090938705B5CF78941F921FB61F92112448
:101DF0008F939F93AF93BF9380915805909159050E
:101E0000A0915A05B0915B050196A11DB11D80936B
:101E1000580590935905A0935A05B0935B05BF915F
:101E2000AF919F918F911F901FBE1F9018959C019D
:101E30004FB7F8948091580590915905A0915A0593
:101E4000B0915B054FBF821B930B08952FB7F89499
:101E50008091580590915905A0915A05B0915B0564
:101E60002FBF08958091CA0481110FC0109262059E
:101E70000E940F0A0E94260F88579C4E9093C90417
:101E80008093C80481E08093CA0408950E94260FBD
:101E90009C019091B3028091B402982B21F0309371
:101EA000B0022093AF029091B5028091B602982BB8
:101EB00021F03093AE022093AD02E0915305F091F2
:101EC0005405309749F082E08093B1020480F58197
:101ED000E02D81EB92E009950895A7E0B0E0E3E7FB
:101EE000FFE00C9442288E010F5F1F4F87E0F8013E
:101EF00011928A95E9F787E8C82E81E0D82EF12C57
:101F0000E12CAA24A394B12C24E9822E21E0922E64
:101F1000F60181916F018F3F09F442C0F894E82FD8
:101F2000E295EF70F0E021A18F70A50102C0440F8F
:101F3000551F8A95E2F7CA01922F982B91A392A17F
:101F40008095892382A3789400C0EEE8F1E0712C9B
:101F500031E021912F3F09F464C0A22FA295AF7008
:101F6000B0E090968C9190E02F7002C09595879587
:101F70002A95E2F780FD55C0832F782A330F8E16FD
:101F80009F0639F7F601319780818F3F11F00E944B
:101F9000F70750EA5A95F1F7F801EE0DFF1D708230
:101FA0008FEFE81AF80AE7E0EE16F10409F0B0CF77
:101FB00047E050E0B80186E692E00E94A328892B12
:101FC00091F187E0F801A6E6B2E001900D928A95C2
:101FD000E1F781E0809365020E94260F90936402EE
:101FE0008093630280916302909164020E94170FB4
:101FF0000597E8F047E050E066E672E081E792E09E
:102000000E94A328892BC1F087E0E6E6F2E0A1E771
:10201000B2E001900D928A95E1F781E0109265029D
:1020200007C080E0AACF809165028111DBCF80E0FC
:102030002796EDE00C945E2880E0F0CFCF9380915E
:10204000620590914E05892B8093B00180918602A4
:10205000882339F10E94260F20915F02309160029F
:10206000821B930B843F914010F00E940F0A8091D5
:10207000B00190918602892B8093B0018091550127
:10208000882309F447C080915C0587FF43C08EE137
:10209000E2EBF1E090E0815008F03EC091110E9427
:1020A0000F0AC0914705C0958091B001C823809167
:1020B0004805C82BC093B00140E250E06FE372E0E6
:1020C00080EB91E00E94A328892B11F180E2E0EBE4
:1020D000F1E0AFE3B2E001900D928A95E1F7E09173
:1020E0005305F0915405309799F08091550188235C
:1020F00049F080915C0587FF05C0C093B10186E07F
:102100008093B0010280F381E02D80EB91E009958E
:10211000CF91089586E0BCCF2191222309F4BBCF53
:102120009F5FB9CFCF93DF93EC01EA85FB853097B2
:1021300019F06C857D8509958B810E941A0A8C8126
:102140000E94210A0E941E1086E0FE0111928A95CB
:10215000E9F7DF91CF910895CF93DF93EC018D8163
:1021600081FD18C082608D8380914E059B81892BF3
:1021700080934E05809162059C81892B8093620536
:102180000E941E10E885F985309721F06C857D85C9
:10219000CE0109951092500510924F058D8180FD5A
:1021A00003C0CE010E949210DF91CF91089590E07C
:1021B00080E00E940D0690E080E00E94F7051092FA
:1021C0004E050E941E1086E0E1EBF2E0DF011D9259
:1021D0008A95E9F71092AB021092AA021092AC0213
:1021E0000E94460F089590936E0280936D020E94A4
:1021F000D710089521E030E002C0220F331F8A95E6
:10220000E2F72095309580916D0290916E028223C5
:1022100093230E94F310089590913E0280958923A4
:1022200080933E02282F277091F4282F082E000C4F
:10223000330B9217130659F090915D0592FF07C07A
:102240008595859585950E94FA100E94280A089523
:10225000CF93C0915D05C2FB992790F9981791F033
:1022600080FBC2F9C0935D0560915C0584E090E05D
:102270000E94BE286C2F82E290E00E94BE2882E07D
:102280000E940C11CF91089521E030E002C0220F8E
:10229000331F8A95E2F780916D0290916E02822B36
:1022A000932B0E94F3100895909362028093610231
:1022B0000E94D710089580915501E2EBF1E0882348
:1022C00061F080915C0587FF08C08EE1DF011D92FF
:1022D0008A95E9F70E94D710089586E0F7CFAAE221
:1022E000B0E0E5E7F1E10C944C2889E895E0209115
:1022F000F100FC012193CF01F5E081399F07B9F787
:1023000080918A05833009F470C0B8F4813009F4F3
:1023100047C0823009F4B3C08091E80083FF80C2D7
:102320008091890590918A059A3008F079C2E92F49
:10233000F0E0EC50F74D0C9494288A3009F48EC0EC
:102340008B3009F46FC0893039F78091890581326B
:1023500019F780918D0590918E050297E8F680918E
:10236000E800877F8093E8008091E80082FF38C012
:102370009091F3008091F200029731F48091F10086
:10238000813011F0863021F48091F1008093640552
:102390008091E8008B778093E8000E949704BCCF7F
:1023A00080918905813A09F0B7CF8091E800877F55
:1023B0008093E80080918D0590918E05892B61F4C2
:1023C00060E285E695E070E00E9443058091E800B8
:1023D0008B778093E800A0CF60E090E080E0F3CFBF
:1023E000809187058111C0CF97CF80918905813A6F
:1023F00009F092CF80918D0590918E05892B09F07F
:102400008BCF8091E800877F8093E8008091E8007F
:1024100080FFFCCF809155018093F1008091E8000E
:102420008E77B9CF80918905813209F075CF80917F
:102430008D0590918E05892B09F06ECF8091E80073
:10244000877F8093E8000E94970480918B0580939A
:102450005501109262050E945B115ECF8091890543
:10246000813209F059CF8091E800877F8093E8009E
:102470000E94970480918C05809363054DCF8091D5
:102480008905813A09F048CF8091E800877F8093E1
:10249000E8008091E80080FFFCCF80916305BCCF0D
:1024A000803899F0823809F0BBC180918D058F701A
:1024B000873008F0B5C18093E9008091EB0085FB7F
:1024C000882780F91092E90006C0809185059091D7
:1024D0008605911182609091E800977F9093E800C3
:1024E0008093F1001092F1008091E8008E7794C102
:1024F000882309F482C1823009F092C180918B0552
:10250000811185C180918D058F702FEF280F2630A6
:1025100008F086C18093E9002091EB0020FF77C18D
:10252000933031F48091EB0080628093EB006FC1B7
:102530009091EB0090619093EB0021E030E001C0BE
:10254000220F8A95EAF72093EA001092EA00809120
:10255000EB008860EACF811163C110918B051F7772
:102560008091E3008078812B8093E3008091E800E4
:10257000877F8093E8000E9497048091E80080FFA5
:10258000FCCF8091E30080688093E30082E011112A
:1025900083E08093870544C18058823008F040C1B1
:1025A00080918B0590918C058C3D23E09207A1F5DD
:1025B00083E08A838AE289834FB7F894DE01139619
:1025C00020E03EE051E2E32FF0E050935700E49129
:1025D00020FF03C0E295EF703F5FEF708E2F90E019
:1025E000EA30C0F0C7968D939D932F5F243159F741
:1025F0004FBF8091E800877F8093E8006AE270E037
:10260000CE0101960E9443058091E8008B7780936C
:10261000E80006C1C096E7CF40918D0550918E0528
:10262000292F33272330310509F444C078F52130B0
:10263000310509F46FC08BE390E0E2E8F7E0223067
:10264000310509F0EDC02091E800277F2093E800D4
:1026500020918F05309190058217930708F49C0113
:1026600040E02115310509F064C0411162C080913C
:10267000E80082FDC9CF80918705882329F2853043
:1026800019F28091E80083FFF2CFBECF21323105ED
:10269000A9F12232310509F0C3C04115510509F4F1
:1026A00043C04130510509F0BBC086EB90E0ECE837
:1026B000F6E0C9CF992781309105C1F0009759F014
:1026C000029709F0ADC0EFECF7E0E4918E2F90E0B7
:1026D000EFECF7E007C0E7EFF7E0E4918E2F90E032
:1026E000E7EFF7E0009709F49BC0ADCFEFEDF7E01F
:1026F000E4918E2F90E0EFEDF7E0F4CF4115510516
:1027000071F04130510509F08BC089E090E0EDEAAD
:10271000F7E099CF82E190E0EDEBF7E094CF89E02C
:1027200090E0E4E9F7E08FCF80E490E0E2E4F7E0C6
:102730008ACF80918705882309F466CF853009F414
:1027400063CF8091E80083FD5FCF8091E80082FD38
:102750008ECF8091E80080FF84CF9091F30080912C
:10276000F2002115310519F08830910550F041E053
:10277000089709F040E08091E8008E778093E800A8
:1027800070CF44914093F100319621503109019668
:10279000E8CF803809F044C08091E800877F8093BB
:1027A000E800809188058093F1009ECE811138C0A9
:1027B00010918B051230A0F58091E800877F8093FF
:1027C000E800109388050E949704112311F084E01B
:1027D00005C08091E30087FDFACF81E080938705F3
:1027E00042E061EC81E00E94B60442E261EC82E0EA
:1027F0000E94B6048091870513C080918B058130BB
:1028000079F481E0933009F080E08093860510929E
:10281000E9008091E800877F8093E8000E94970498
:102820008091E80083FF0AC08091E800877F809351
:10283000E8008091EB0080628093EB00AA96E3E0D1
:102840000C9468281F920F920FB60F9211242F93A9
:102850003F934F935F936F937F938F939F93AF9328
:10286000BF93CF93DF93EF93FF93D091E900DF7095
:102870008091EC00C82FC17080FDC0E81092E90083
:102880008091F000877F8093F00078940E946F1110
:102890001092E9008091F00088608093F000CD2BC9
:1028A000CF70C093E900FF91EF91DF91CF91BF917D
:1028B000AF919F918F917F916F915F914F913F91D8
:1028C0002F910F900FBE0F901F90189510926205D8
:1028D0000E945B112FEF84E39CE0215080409040E8
:1028E000E1F700C0000088E19AE00FB6F894A895DF
:1028F000809360000FBE90936000FFCF882321F08B
:102900000E941A0A0E941E1008958091CA0488230A
:1029100029F082E20E947E141092CA04089588234E
:1029200039F090914E05982B90934E050E941E1001
:102930000895882321F00E94210A0E941E10089504
:10294000882339F090916205982B909362050E943C
:102950001E100895882379F19CEF980F913A28F47E
:102960000E942F0A0E941E10089590E2980F98303E
:1029700050F4877091E001C0990F8A95EAF7892F8A
:102980000E94210AEFCF9BE5980F933028F490E046
:1029900080E00E940D06089598E5980F973128F47D
:1029A00090E080E00E94F70508958D3E20F00E949F
:1029B000E0060E94460F0895FF920F931F93CF9356
:1029C000DF93F82E00914C0510914D05011511056E
:1029D00009F449C010924B0510924A051092470520
:1029E00010924805D8011796CD91DC919E013A9539
:1029F00021153F4108F4D07ED1E0C11101C0D0E0E3
:102A0000D8011A96ED91FC911B97309731F01C96E6
:102A10006D917C9180E00995D823DD2339F08CEF0E
:102A20008C0F813A30F58C2F0E942F0AFF2099F0ED
:102A3000E0914C05F0914D05818584FD0CC080919D
:102A40004905882341F0808191819C012150310901
:102A5000213B3D45A0F00E941E1010924D051092A2
:102A60004C0510924905C801CDB7DEB7E5E00C94DE
:102A700066280E941E108C2F0E94AA14D7CF0E9495
:102A80003006E9CFCF93DF93EC010E94AA14CE0168
:102A90000E94AD0B9E01205E31092830310510F0F7
:102AA000CD2B29F40E949914DF91CF9108950E94B3
:102AB0007E14FACFFC018281813031F4FB018081E8
:102AC00091810E94421508958230E9F7FB018281CD
:102AD0009381F7CFCF93C82F8823C1F18CEF8C0F50
:102AE000813AB0F580915501882301F180915C0510
:102AF00087FF1CC0EC2FE695E695E695F0E0E055E3
:102B0000FE4F828190E04C2F477021E030E002C000
:102B1000220F331F4A95E2F782239323892B79F002
:102B20008C2F0E942F0A0E941E1009C0E2EBF1E0D8
:102B30008191C817A9F381E0E83BF807C9F76C2F2A
:102B400080EB91E00E94C2050E941E10CF91089573
:102B500080E28C0F883068F4C77021E030E001C05B
:102B6000220FCA95EAF780916205822B8093620555
:102B7000EBCFEBE5EC0FE33040F4F0E0EA5AFE4F28
:102B8000808190E00E940D06E1CFE8E5EC0FE7318F
:102B900050F4F0E0EE0FFF1FE75AFE4F8081918165
:102BA0000E94F705D3CFCD3E88F28C2F0E949B0761
:102BB0000E94460FCBCFCF93DF93EC010E94AD0B69
:102BC0009E01205E31092830310510F0209741F434
:102BD0000E94A0148C2F0E946A15DF91CF91089556
:102BE0000E948F14F7CFFB01808191810E94DB1539
:102BF0000895CF93DF93EC018A81823041F4FB0189
:102C0000828193810E94DB158D8182608D83DF91AB
:102C1000CF91089590915D0592FF10C098E0899F33
:102C200090011124622B60933E020E9444110E9485
:102C3000260F90933D0280933C0208950E94441118
:102C40000895A3E0B0E0E7E2F6E10C943D288C01A2
:102C5000DC0113968D919C911497892B39F08C91FE
:102C600011969C9189238F3F09F048C52396E2E194
:102C70000C94592881E08093080180913E0287706E
:102C8000A9F3D80112968C91882381F380915D0578
:102C900082FFECCF82E00E940C11E8CF8091080106
:102CA000882309F429C48A809B8050EE851A9108F4
:102CB000209086028091D501282A80916205282AD9
:102CC00068E08616910408F088C02A813B8127704D
:102CD000332781E090E001C0880F2A95EAF733207E
:102CE00009F478C0282AD8018D919C910E94EC0AA1
:102CF00021E030E0290102C0440C551C8A95E2F71E
:102D000060904C0570904D05A090D001B090D1011D
:102D10001982B981EB2FF0E0EE0FFF1FE255FE4F55
:102D2000E080F180E114F10409F44FC4211004C0E3
:102D3000F701828181118FC0D70113968D919C91EB
:102D4000149784219521892B09F485C019968C91BB
:102D5000982F977009F487E0B8E08B16910408F07B
:102D600058C0332009F451C086958170882309F436
:102D700072C0F701C080D1802A813B812C153D05AE
:102D800019F4332009F467C0E614F70409F463C0AA
:102D9000D7011E96ED91FC91309721F08081882318
:102DA00009F459C0622DC7010E948106882309F4E5
:102DB00052C0EA81FB81EC15FD0509F0FEC4EF2B42
:102DC00009F400C5311000C5CA14DB0409F043C082
:102DD000312CFAC48095282286CF332009F4DCC335
:102DE0008A819B819093D1018093D0010E94B60586
:102DF0006093430570934405809345059093460581
:102E000010924B0510924A056ECF82FB882780F9FD
:102E1000ADCF332001F18170A9CF0E94AA14F3C471
:102E20000497813A910558F46C2D80EB91E00E9453
:102E3000C205332009F460C30E941E101ECF0E94F9
:102E40001E108FE39CE90197F1F700C000008C2D64
:102E50000E946A15EECF99819F5F99835ACFFC013A
:102E6000208131814A815B814217530709F03DC3BC
:102E700031103DC31092490580E00E94DC143CC330
:102E80009A818B8184C3FA01858181FFB2C3CA0113
:102E90000E949210AEC30E94320FEFCE1092D40166
:102EA000D8C3E0906205F09086020E94260F8857F2
:102EB0009C4E9093C9048093C804D80112968C91BB
:102EC0001297882309F4C5C38F2D8E298D7909F0B7
:102ED00053C0EA81FB81E11525E5F20760F5E115B4
:102EE00033E5F30708F0B5C3E11540E5F407D0F486
:102EF000E11550E4F50708F04AC0E63EF10509F493
:102F0000A8C3CF0110924E058832910508F048C041
:102F10008E31910508F04BC0049770F182E08093E8
:102F20004E0545C08A819B818115924508F491C365
:102F30008A819B81E7CFEA81FB81E11529E5F207D0
:102F400050F4E11538E5F30708F083C3E43145E5B3
:102F5000F407B9F67EC38A819B8190568115904211
:102F600038F715968C91807FB9F48B818F718231FF
:102F700059F028F4823041F00E9485146AC38431EC
:102F800009F467C38631C1F710924E05F5CFF801F9
:102F90008581807F09F45DC38A819B819927B2CFA7
:102FA0008D32910509F4BACF28F48A9729F70E9447
:102FB0001E104FC38C349105D1F38D329240B9F37A
:102FC000DBCF8A819B818D35ADE59A07C9F020F171
:102FD000883A9D4509F054C30E9466141092620518
:102FE0000E945B11FFEF24E33CE0F15020403040B1
:102FF000E1F700C000000E94A5050E94B20DECCFD1
:1030000080915D0582FB882780F991E089270E94E5
:10301000281136C381E0FBCF80E0F9CF8281019097
:10302000F081E02DFB83EA83882379F0CF010E94B1
:10303000840AF82E682F8A819B810E94320B6A8154
:103040007B818F2D0E94510821C38A819B810E9420
:10305000EC0AF82EF4CFE981EF70FE2EF981F07FB3
:1030600019F0F29490EFF922EE20C1F0FF2071F0F8
:103070008A81805E883018F02A81211109C08091F0
:103080006205F82AF09262050E941E108A8143C0F0
:1030900080914E05F82AF0924E05F6CF8A810E9463
:1030A000AA14FF20D1F18A81805E883018F03A811D
:1030B000311104C08F2D0E94210A03C08F2D0E9460
:1030C0001A0A0E941E1029C049814F70F42E59819E
:1030D000507F503219F0F29480EFF8226A81662313
:1030E00051F0613009F48DC0EE2009F496C0DD2066
:1030F00009F463C0CBCF80915D0582FD37C0EE201F
:1031000079F1FF2039F080916205F82AF09262058A
:103110000E941E1080E00E946A15AB2DA850BB0BC8
:10312000149710F40E942306CC20A9F080913E024F
:1031300080FD11C0F80112828595859585950E94C4
:103140004411C8010E94211680913E028595859503
:1031500085950E94FA1060E0C8010E947D0B86CD23
:1031600080E00E94AA14FF20C1F2A4CFEE2049F112
:10317000D11004C0809186028F2920C091E0D9121D
:1031800010C082FFCACF80918602F82AF81629F271
:103190000E94260F9093600280935F02F092860255
:1031A000BCCFAAE0DA12E6CF0E940F0A9091D501B7
:1031B0008F2D892B89138093D5018F2D0E94A01408
:1031C000ACCFD11003C00E940F0A12C0B1E0DB12D5
:1031D00013C0809162058F2109F49FCF0E940F0ACE
:1031E0009091D5018F2D8095892389138093D501E6
:1031F0008F2D0E94991491CFEAE0DE1609F48DCF4D
:10320000E2CFEE2029F0F5E0FD1508F486CFD5CF0A
:1032100024E02D1508F481CFEBCFDD2049F33A816E
:10322000393349F44FEF57EE63E04150504060406E
:10323000E1F700C000008A810E94AA146ECF898144
:1032400086958695837069F0813009F066CF8A8112
:1032500099819370E11002C090E080E00E94F70530
:103260005CCF8A8199819370E11002C090E080E088
:103270000E940D0652CF8A81EE2029F00E949B0702
:103280000E94460F4ACF0E94E006FACF89818370E0
:1032900009F042C0E11041CF4A81429546954770FE
:1032A000440F440F2A812F7030E0042E02C0220FF9
:1032B000331F0A94E2F78A8184FF1DC08FE090E0FB
:1032C00002C0880F991F4A95E2F780959095A981D1
:1032D000A695A695A370A230B1F090F4409161023A
:1032E00050916202A13051F0822B932B84239523BD
:1032F0000E94541112CF90E080E0E9CF242B352BAF
:10330000822B932BF5CF822B932B2091610230914E
:10331000620282279327ECCF8695EE2011F08981F7
:103320008170882309F4F9CE4A8142954695477009
:10333000440F440F2A812F7030E0042E02C0220F68
:10334000331F0A94E2F7BA8190E080E0B4FF09C02D
:103350008FE090E002C0880F991F4A95E2F78095B0
:103360009095E981E695E695E370E23099F078F47E
:1033700040916D0250916E02E13039F0822B932B17
:10338000842395230E94F310C8CE242B352B822B47
:10339000932BF8CF822B932B20916D0230916E02EC
:1033A00082279327EFCFF981FF70F983EE2029F070
:1033B0008F2F0E9444118A8101CF8A810E94991423
:1033C00089810E94FA10A9CE2A81223FD9F160F4A6
:1033D000203FC1F0213F89F0EE2009F475C0D110E3
:1033E00055CE89818F7132C03A81333F91F1343F9C
:1033F00099F780915D0582FD3DC089818F71EE2036
:1034000001F324C0EE2071F044E04D1508F485CEA0
:1034100059815F7181E090E002C0880F991F5A9531
:10342000E2F7BACF65E06D1508F477CE89818F7128
:10343000898381E090E0098002C0880F991F0A9477
:10344000E2F7AACF89818F71E110BBCF0E944411AE
:1034500064CE90E080E0EE2009F494CF99819F71D2
:10346000998381E090E0098002C0880F991F0A9437
:10347000E2F788CFEE20D9F080913E028770843049
:1034800041F40E94280A89818F710E94FA10C12C90
:1034900044CEA9E0AD15D8F3B981BF71B9838B2FA4
:1034A0000E94441163E089810E940A16F0CFE9E08E
:1034B000ED1530F40E94280A64E089818F71F4CF01
:1034C00081E00E940C11E3CFDD2061F0FA81F93335
:1034D00009F0B1CE2FEF37EE43E0215030404040AD
:1034E000E1F7A7CE89818F716CCF332029F0DC0101
:1034F00019968C9185FFC0CC8A819B8197558F3F0F
:10350000910511F008F045C1CA80DB80DD242A81D5
:10351000BEE02B9FF0011124AF014B5E5E4F7A019C
:10352000D80112968C91E65EFE4F908180FB90F957
:103530009083882309F4A7CC0E94260F90938102E0
:1035400080938002F70182818F5F828380914E0594
:1035500090916205892B8383809186028483068003
:10356000F781E02D309731F0D7011C966D917C9159
:10357000C70109958EE08C9DF0018D9DF00D112401
:10358000EB5EFE4F858181FF7BCC90E080E09093E5
:103590004F05809350052DC08091D0019091D101AD
:1035A000EA81FB81E817F90781F41092D1011092AA
:1035B000D0011092430510924405109245051092D7
:1035C000460510924B0510924A0580914C0590914A
:1035D0004D05009709F490CFA8E08A16910408F0F1
:1035E0003ECC622D0E948106811103C081E00E94C1
:1035F000DC148091CA04811154CCF80182818823A3
:1036000041F12A813B81213E310521F022303545AF
:1036100009F044CC8091D401882379F0D801139625
:103620008D919C912091D2013091D301821B930BFB
:103630008F3F9F4710F00E94320F81E08093D401AA
:10364000F8018381948188539F4F9093D301809395
:10365000D201D80112968C91882391F0EA81FB81E6
:10366000EB352DE5F20709F4D5CC08F0AACCE1152D
:103670004CE5F40709F4B2CCEF3DFC4509F4BDCCB0
:10368000F80186819781009709F4C8CC0E948208CE
:103690008A839983D8011296EC9012971596DC9044
:1036A000D2943FE0D32280913E028770C1F0CE2CAD
:1036B000EE20B1F0892F807F803421F08A81805EF6
:1036C000883068F080915D0582FF09C082E00E9429
:1036D0000C1180913E028770CC24C3948111C12CBF
:1036E000B980B2942FE0B222BBE0BB1508F415CD2F
:1036F000EB2DF0E0E250F74D0C94942861E0C80106
:103700000E947D0B9B838A83D80112968C9188231B
:1037100001F180914F05909150050097D1F0EA8119
:10372000FB81E817F907A9F0FEE08F9FC001112483
:10373000FC01E65EFE4F2081246020838B5E9E4F5D
:10374000EA81FB81DC01ED93FC930E94AC101092A6
:103750004E05D80112963C90332009F49FCAEA81A5
:10376000FB81E0362DE5F20709F484CAE1363DE538
:10377000F30749F0EF35FD4509F090CA8091080143
:10378000882309F477CA1092080180E00E94DC14B3
:1037900074CAEA81FB81ED3AFD4509F02ACFD801D0
:1037A00012968C91882309F468CA8091CA048823F0
:1037B00009F471CB0E94851460CAC114D10409F0C8
:1037C00003CB312CD12CC12C80E00E94DC14F09270
:1037D0004D05E0924C0581E080934905D70116968E
:1037E0008C918093470531100EC0CD2861F0D70130
:1037F0008D919C919C0124503109213A310508F0AA
:103800000CCB0E942F0AF701C780D084C6019A957D
:1038100081159F4110F420EED222BB24B394C6013F
:103820000197813B9D4508F0B12CD7011A96ED9187
:10383000FC911B97309731F01C966D917C9181E043
:103840000995B822BB2079F0F701878190850E9405
:10385000AD0B80934805C601F8E08F16910408F07F
:10386000DFCA0E9430060E941E10E3CACF93DF9386
:103870008091F701807F09F049C08091F40188238D
:1038800009F444C080913B02D091FA016091F201A9
:103890007091F301A091F501B091F601C62FC723F5
:1038A000D817A1F190E0109711F0CF3F19F40196CD
:1038B0008770F6CF9C0143E0220F331F4A95E1F752
:1038C000F901E550FE4F41814713F1CF4081461386
:1038D000EECF42814111EBCF438154814A1B5B0BF8
:1038E000483C510520F78091F7018F7080618093EB
:1038F000F701F901E050FE4F80818F708061808375
:1039000082EF91E00E9421160E947A0ADF91CF9106
:103910000895A5E1B0E0EFE8FCE10C9443288C01A8
:1039200085E0F801DE01519601900D928A95E1F74C
:10393000D8011296EC90129782EF882E81E0982E93
:103940004091F5015091F6014115510509F453C11B
:103950009091F2012091F301892F82238F3F09F486
:103960004AC1DC901196CC9011971396AD90BC9003
:103970001497F090F401F501E41BF50BFF2009F416
:1039800015C18091F701382F307FE83CF10508F030
:10399000D2C0311181C0FE2C2C111FC09D111DC041
:1039A0004091F8015091F90116962D913C914217E2
:1039B000530799F4E11011C08F7080618093F70173
:1039C000C4010E9421168091F701D80115968C93AD
:1039D0008F2D6596ECE00C945F28A114B10429F0BA
:1039E0008D2D8C218F3F09F024C180E080FF14C011
:1039F0004E2D6C2D8D2D0E945A0A882369F082EF7E
:103A000091E00E94211688E0E2EFF1E0DF011D92D3
:103A10008A95E9F7F12CDCCFA114B10429F08D2DA2
:103A20008C218F3F09F002C180E0B82FB170AB2E1E
:103A300080FF29C04E2D6C2D8D2D0E945A0AB82E64
:103A4000811121C0D98ACA8A89899A890E94B80AB3
:103A5000292F22952F70223050F0243078F49F7057
:103A600051F0F8019581907F31F4FB2CB1CF9F701C
:103A700011F08823D1F3805E8830B8F3C8010E942A
:103A80002116BA2CF2CFEE2009F4A2CF8091F701D3
:103A900081608093F701BECF2C111DC09D111BC00A
:103AA0004091F8015091F90116962D913C9117978C
:103AB0004217530781F4E1100EC015968C93C8018C
:103AC0000E94211688E0F801A2EFB1E001900D926A
:103AD0008A95E1F77DCFC8010E944C0B882339F10C
:103AE000EE2029F18091F7018032A0F02091F201BF
:103AF0003091F3013A8729871B86BD86AC868E8775
:103B00008091F8019091F901988B8F87CE010996E9
:103B10000E94211688E0F801A2EFB1E001900D9219
:103B20008A95E1F70E94361CFF24F39451CFC80117
:103B30000E942116F9CF332309F461CF2C1118C04C
:103B40009D1116C04091F8015091F901F8012681AC
:103B500037814217530761F4E1100AC08583C80119
:103B60000E94211688E0D4011D928A95E9F730CF92
:103B7000C8010E944C0B8823D1F2EE20C1F2809143
:103B8000F701803238F22091F2013091F3013A834B
:103B900029831B82BD82AC828E838091F801909133
:103BA000F90198878F83CE010196B2CFE83CF105E9
:103BB000C8F6FE2CEE2009F4BACF2C110EC09D11D0
:103BC0000CC02091F8013091F901F80186819781AC
:103BD0002817390711F488E077CFC8010E944C0BF1
:103BE000811198CF8091F70181608093F701C8011E
:103BF0000E942116EDCEEE2009F499CFC8010E9453
:103C00004C0BF82E882309F492CF88E0F801A2EF3C
:103C1000B1E001900D928A95E1F78091F2019091C7
:103C2000F3010E94B80A0E94361CD2CE81E08E2594
:103C3000FCCE81E08E25DACEA0E1B0E0E2E2FEE14A
:103C40000C944D2829873A874B875C876D877E8740
:103C50008F87988BCE0109960E94891C811112C012
:103C600088E0FE013996DE01119601900D928A9549
:103C7000E1F78C859D85892B29F089859A85892393
:103C80008F3F81F580913B029091FA01891317C013
:103C90006096E2E00C94692893E0AA0FBB1F9A9506
:103CA000E1F7A550BE4F98E0FE01319601900D92CC
:103CB0009A95E1F78093FA010E947A0AE3CFB8E07F
:103CC0008B9FC001112485509E4F0E94891C882320
:103CD000F9F280913B0290E00196877099278093DA
:103CE0003B02D0CFA091FA01B0E0CD0101968770E0
:103CF000992720913B022817190671F61092620548
:103D00000E945B111092FA0110923B0288E0E2EFF0
:103D1000F1E0DF011D928A95E9F7B4CF0F931F936D
:103D2000CF93DF938091CE04E091CD04CCE081115C
:103D30001AC0DF91CF911F910F910895D1E0DE0F4E
:103D4000D093CD040E2F10E0EC9FF0011124E1532D
:103D5000FB4F83819481892B29F080819181892374
:103D60008F3F51F4ED2F8091CE04E81738F3109275
:103D7000CE041092CD04DDCFC09FD001C19FB00D05
:103D80001124A153BB4F16968D919C911797892BA7
:103D900029F418968D919C91019651F420813181DE
:103DA0004281538164817581868197810E941C1EA6
:103DB000C09FF001C19FF00D1124E153FB4F14820D
:103DC000138210924E05CECF10923A05109239050B
:103DD0001092540180913805809337050E94CF06D8
:103DE0000E948E1E0895B0E0A0E0E9EFFEE10C9481
:103DF0003D28C0913705E7E0FE2E01E010E0FCE031
:103E00002F2EAEEFEA2E809138058C1309C00E9448
:103E10008E1E0E94CF06CDB7DEB7E2E10C94592882
:103E2000D0E0FE01EE0FFF1FE15DFA4F808191812E
:103E3000F89EF001F99EF00D1124E85CFE4F2481FC
:103E4000211159C03090CE04AFECB4E030E020E056
:103E5000412C5F01231508F04CC01A966D907C90A0
:103E60001B97F501808091804FEF5FEF512CC52C9F
:103E7000D12CF601EE0FFF1FE80DF91D659174912D
:103E80006616770609F4A601672B11F05394EFCF5D
:103E90004F3F5407B9F1B80102C0660F771F4A952A
:103EA000E2F7462AA801052C02C0440F551F0A94C8
:103EB000E2F7415051094416150601F5229EF00122
:103EC000239EF00D1124E153FB4FF89ED001F99E83
:103ED000B00D1124A85CBE4F12962D913C91139702
:103EE00037832683E082E1829187808771E015968F
:103EF0007C930E94A1062196C37085CF14961C92D4
:103F00001E9213972F5F3F4F1C96A4CFA9E1B0E0FC
:103F1000ECE8FFE10C943D28498B5A8B6B8B7C8B32
:103F20008D8B611110924E051D861E861F86188A84
:103F300085E0FE017196DE01199601900D928A9539
:103F4000E1F780915D0582FF1CC00E94260F209141
:103F50003C0230913D02821B930B843F914020F044
:103F600080913E0282FFECC10E94260F20915F02E9
:103F700030916002821B930B843F914010F00E94AD
:103F80000F0A8C859D85892B31F089859A85892337
:103F90008F3F09F0C1C129853A854B855C856D85C8
:103FA0007E858F8598890E941C1EC4C049EFC41667
:103FB0004CE5D40629F4882379F00E94E41EEBCF67
:103FC0005AEFC5165CE5D50639F4882329F08091AF
:103FD00054018111F2CFB0C108E311E0E12CB12C02
:103FE000A12C88248394912C9EEF592E4424439431
:103FF000F8016081718166246A94762C20E0422F5A
:1040000050E0FA01EE0FFF1FE60FF71F8591949124
:10401000C816D90609F43A01892B11F02F5FEFCFAA
:10402000F12CFFEF6F167F0609F446C0F8014481BA
:10403000F09054018F2D411180E0F82FF170FF2E88
:10404000F801258086819B85992309F4F4C0FF201F
:1040500009F4F1C0211015C0A401062C01C0440FC1
:104060000A94EAF7842B86838091CB049091CC0448
:10407000883C910530F448EC50E05093CC044093D8
:10408000CB04C40102C0880F991F2A95E2F701975B
:10409000F80126812817190679F480913905909145
:1040A0003A05009709F44AC00E94170F893C910510
:1040B00008F444C0F8014482EF28FFEFAF1ABF0AAA
:1040C000095F1F4F24E0A216B10409F091CF8B8540
:1040D000882309F40CC1EE2009F409C10E94260FBF
:1040E00090933A05809339058091CE04883010F57D
:1040F00091E0980F9093CE0498E0FE013996DE018E
:10410000119601900D929A95E1F73CE0839FC001D2
:10411000112481539B4F28E0FE013196DC01019070
:104120000D922A95E1F72FEF3FEFFC0131872087B1
:10413000D386C2866996E2E10C94592880913705AE
:1041400060903805982FF0E0E0E0861114C090935D
:1041500037050E171F0709F4AFCF90E0FC01EE0FF3
:10416000FF1FE15DFA4FB182A0820196837099270B
:1041700080933805A1CF282E312CF101EE0FFF1FBF
:10418000E15DFA4F20813181F7E0F29FD001F39F8A
:10419000B00D1124A85CBE4F2D913C911197398F21
:1041A000288F712C60E070E0E72FF0E0EE0FFF1F2A
:1041B000288D398DE20FF31F25913491211531059A
:1041C000E1F0F8010190F081E02DFF8BEE8B60E0D3
:1041D00005C02417350709F47F2C6F5FE62FF0E048
:1041E000EE0FFF1F4E895F89E40FF51F4591549133
:1041F0004115510571F77F5FD7CF7720C9F0F801DE
:10420000671708F0FD0144820E171F0721F49093F1
:104210003705F72C51CF981305C0AE17BF0711F41F
:104220009F5F937091012F5F3F4F822F83708DCFDF
:10423000F0E0E0E0F7CF90E0211020C0B40102C030
:10424000660F771F2A95E2F79B0121503109281745
:10425000390731F4442309F448C0C5010E94A1067E
:10426000C401062C01C0880F0A94EAF7982F909594
:10427000F801868189238683F22C1ECF9C01062CAF
:1042800002C0359527950A94E2F7A9014170552798
:10429000BC016150710986239723892B11F5452BA9
:1042A00001F1F80182819381892BC1F01B821C826C
:1042B0001D821E8259825A820E94260F8160582FC9
:1042C0009D838C83F801828193818F8398872981D4
:1042D0003A814B816D817E810E941C1EF8011582FE
:1042E000BFCFF22FF1702F2EBBCF2F2CB9CF9091D3
:1042F000370580913805981731F00E94F31EEE20A3
:1043000009F449CE17CF0E948E1E10923A051092E2
:1043100039050E94CF06F3CF61E0CE0109960E94D5
:104320007D0B6C018B85F8EFCF16FCE5DF0609F0FD
:104330003DCE882309F450CE81E0809354012BCEEA
:1043400082E00E940C1110CE1F921FB61F92112402
:104350008F939F93AF93BF9380915705811113C0A3
:104360008091580590915905A0915A05B0915B052F
:104370004196A11DB11D8093580590935905A093B6
:104380005A05B0935B05BF91AF919F918F911F909C
:104390001FBE1F901895CDB7DEB7A6970FB6F8943D
:1043A000DEBF0FBECDBF85B7806885BF85B780688B
:1043B00085BF84B7877F84BF0FB6F894A895809196
:1043C0006000886180936000109260000FBE80E8FA
:1043D00090E00FB6F89480936100909361000FBE57
:1043E00085EF97E09093AD018093AC010E941D048E
:1043F0000E94E8048091E20084608093E200789457
:10440000809187058823A1F01091E9001F70909199
:10441000EC00892F817090FD80E8182B1092E90044
:104420008091E80083FD0E946F111F701093E900D6
:1044300082E084BD93E095BD9AEF97BD80936E00B6
:1044400007E811E0D8018D918D018F3F11F00E9496
:10445000F707B1E00E381B07A9F70EE811E0F4E901
:10446000EF2EF1E0FF2EF80181918F018F3F11F0C7
:104470000E94F707E016F106B1F787E0E1E7F2E006
:10448000DF01282F1D922A95E9F7E6E6F2E0DF0129
:104490001D928A95E9F790E080E00E94B828883E56
:1044A0009E4F11F00E94B20D82E090E00E94B02871
:1044B0008093780284E090E00E94B028182F82E276
:1044C00090E00E94B028982F812F90935D058093F3
:1044D0005C050E946D0FEFE3FCE93197F1F700C036
:1044E00000000E946D0F8091710280FF08C06FEF85
:1044F0007FEF90E080E00E94DC280E94A50583E029
:1045000090E00E94B02890E00E94541183E08093D4
:10451000A70280E28093B7020E943D276DE070E021
:104520008FE291E00E94DE0B892BE9F58091A702D2
:1045300063E070E081FDA6C08CE291E00E94DE0B9A
:10454000892B89F56DE070E08CE191E00E94DE0B33
:10455000892B49F50E94B605605A75418F4F9F4FD0
:104560006093C2047093C3048093C4049093C50401
:10457000EAEBF2E080E092E0DF019C011D92215025
:104580003040E1F7F093C104E093C0048FEF9FEF58
:104590009093B9028093B80281E08093C70480931E
:1045A000C6041092A80281E08093840224982C9A79
:1045B00025982D9A8FE891E00197F1F700C000004F
:1045C0002091840245E852E0FA018E2F841B821765
:1045D00008F45BC089E091E0909354058093530503
:1045E000E0E46E2E8091870500E112E1853009F448
:1045F00090C00E946D0F79E7E72E72E0F72E01E779
:1046000012E020E832E0D801F70191918D912E1748
:104610003F0709F48AC09817C1F3D12CD801CD9077
:104620008D01F70191907F019C1419F1B12CAA24FE
:10463000A3949C24892D8A21A1F0B8A2D9A291E04B
:104640008C2D8A2109F490E09AA30E94260F8160A4
:10465000782F9CA38BA348A159A16AA18CA10E9489
:10466000861FB394AA0CF6E0BF12E4CFF70131978E
:10467000C082D39427E0D212D1CF0E94B605EE2497
:10468000E39474C089E291E059CF83B1829581703F
:104690001D9904C090E0892B819397CF92E0FBCFC6
:1046A00080918705843029F10E94080C10925705EB
:1046B000A8E1B0E00FB6F894A895A09360000FBEF3
:1046C0006092600083B7817F846083BF83B781601D
:1046D00083BF7894889583B78E7F83BF0FB6F89495
:1046E000A8958091600088618093600010926000BE
:1046F0000FBE80918605882361F00E946D0FE1E76F
:10470000F2E08191811197C328E732E02E173F072D
:10471000C1F780918705853009F4C2CF10926205F8
:104720000E945B110E94230664CF981376CF0E94EB
:10473000260F8C0180916F02909170020817190763
:10474000A1F08FEF8B8F8C8F1D8E0E94260F8160C2
:10475000782F9F8F8E8F4B8D5C8D6D8D8F8D0E94EE
:10476000861F1093700200936F02E12C80914A051E
:1047700090914B05892B09F43EC040913F05509123
:10478000400560914105709142052FB7F8948091E2
:10479000580590915905A0915A05B0915B052FBF1E
:1047A000841B950BA60BB70B40913B0550913C0524
:1047B00060913D0570913E0584179507A607B707E0
:1047C000D0F080914A0590914B050E94DB15109224
:1047D0004B0510924A0510923F0510924005109229
:1047E00041051092420510923B0510923C05109233
:1047F0003D0510923E0500914F05109150050115A1
:104800001105B9F080918002909181020E94170FEA
:10481000893C910570F03EE0039FC0011124FC012A
:10482000E65EFE4F208122FD04C08B5E9E4F0E94FB
:10483000AC10809154018823F9F080913905909152
:104840003A050097C9F00E94170F2091CB043091D0
:10485000CC042817390780F49091370580913805EA
:10486000981721F10E94F31E1092CC041092CB04F1
:1048700010923A05109239058091CA04882369F094
:104880000E94260F2091C8043091C904821B930B0B
:104890008F3F9F4710F40E948514B12CF12C5DEFDF
:1048A000A52E992493946CEF862EA2C00E948E1E92
:1048B00010923A05109239050E94CF06DDCF0B2DDC
:1048C00010E0E3B1E295E1701D99D8C180E08E2B34
:1048D000D801AB57BD4FEC919E2F9370891709F407
:1048E00086C0EE0FEE0FE82BEC93EF70F0E0EC5685
:1048F000FE4FC8018D579D4F6C018081D6019C9160
:10490000890F8C9320E084308CF1F801EE57FD4F35
:1049100080818F5F80830E94260FB98A8A8A9B8A52
:104920008160782F9D8B8C8B4B2D5CEF61E08D89A6
:104930000E94861FEFE3FFE13197F1F700C000000E
:104940000E94260FBE8A8F8A188E8160782F9A8FD8
:10495000898F4B2D5CEF60E08A8D0E94861F8FE36C
:104960009FE10197F1F700C0000021E0D6018C9192
:104970008D3F8CF5F801EE57FD4F8081815080838B
:104980000E94260FBF82A88699868160782F9B8718
:104990008A874B2D5DEF61E08B850E94861FEFE3D8
:1049A000FFE13197F1F700C000000E94260FBC869E
:1049B000AD861E868160782F988B8F874B2D5DEF9B
:1049C00060E088890E94861F8FE39FE10197F1F7DD
:1049D00000C0000021E0D6018C91082E000C990B3C
:1049E00064E070E00E948028F6018083F22AB3948C
:1049F00080918402B81608F462CFF1100E94B605C7
:104A00008091C704882309F457C0109186028091D1
:104A10006205182B8091B702FBE08F9FC001112423
:104A2000811522E0920714F090E080E086549D4FBB
:104A30009093C1048093C004812F82726091CA0454
:104A4000882311F061E070E0617082E491E00E94DF
:104A5000A00D117161E009F460E08CE391E00E9427
:104A6000A00D8091C704882371F02091B802309185
:104A7000B9022115310539F08091A80261E070E09A
:104A8000882309F4FEC08091C6048823A9F00E94FF
:104A9000B6050091C2041091C3042091C404309162
:104AA000C504601B710B820B930B6F3F7F4F8F4FC1
:104AB0009F4710F40E94080CE11001C0F1100E9401
:104AC000230C86E0E1EBF2E0DE01119601900D92FD
:104AD0008A95E1F71092B3021092B4021092B502D7
:104AE0001092B6028B819C81892B09F44AC0809177
:104AF000AF029091B0020E94170F9C019091AB02FF
:104B0000992309F4B5C125313105D8F19F3F19F03A
:104B10009F5F9093AB021B81112359F00E947B078A
:104B20009FEF11160CF491E0899F802D1124809342
:104B3000B3021C81112359F00E947B079FEF1116CD
:104B40000CF491E0899F802D11248093B402309160
:104B5000B3023323B1F02091B402222391F045EB4C
:104B60003403C0011124992309F455C19093B30271
:104B700045EB240390011124332309F450C13093F1
:104B8000B4028D819E81892B09F44AC08091AD02C7
:104B90009091AE020E94170F9C019091AA02992356
:104BA00009F461C121353105D8F19F3F19F09F5FAC
:104BB0009093AA021D81112359F00E9459079FEF7B
:104BC00011160CF491E0899F802D11248093B50279
:104BD0001E81112359F00E9459079FEF11160CF402
:104BE00091E0899F802D11248093B6023091B50207
:104BF0003323B1F02091B602222391F045EB340328
:104C0000C0011124992309F40EC19093B50245EB1C
:104C1000240390011124332309F409C13093B6020F
:104C200046E050E0BE016F5F7F4F81EB92E00E9453
:104C3000A328892B61F48091B3029091B402892B4F
:104C40009091B502892B9091B602892B11F00E94A8
:104C5000460F86E0FE013196A1EBB2E001900D9285
:104C60008A95E1F70E9423069091A902891709F419
:104C7000B9CC8093A9020E94B605B4CC82E027CEBD
:104C80008F5F082F10E02B01082E02C0440C551C2A
:104C90000A94E2F7A90144215521452B89F390910B
:104CA000A70290FD44C08295880F807680933301DF
:104CB0009801369527953695279520933601815E84
:104CC000809334011092370124E630E047E050E051
:104CD00061E371E088E70E94DD27892B09F0D3CEDC
:104CE000A80195E0440F551F9A95E1F78091A7021E
:104CF00080FD2BC046545D4F04E610E020E230E01A
:104D000060E488E70E94FE27892B09F0BCCE0E9450
:104D1000230CC201809590954090B8025090B90242
:104D2000482259225092B9024092B802ACCE880F64
:104D3000880F880F8093330110923601895F80932A
:104D4000340183E080933701BFCFE7E8F2E080E2EF
:104D5000DF011D928A95E9F7E8EAF1E0FEA3EDA3F1
:104D600004EA11E087E0A82E99249394ADA1BEA196
:104D70002D91BEA3ADA3F80121908F01240E352EF5
:104D8000311CC10186549D4F1C01E22FF0E0E95710
:104D9000FD4F30E020E07A2C721AB92C022E01C0AF
:104DA000BB0C0A94EAF7610190E0D6018D916D0188
:104DB0008B21672D691B6770862E062E000C770BE2
:104DC000B82F01C0BB0F8A94EAF78B2E71956195BD
:104DD00071096770772701C086956A95EAF7882A76
:104DE0008081882A80829F5F9830F9F62F5F3F4F3D
:104DF00031962830310579F6ECEAF1E02DA13EA19B
:104E0000E217F30709F0B2CF04E610E020E230E049
:104E100047E852E075CF81E08093B302A9CE81E0EC
:104E20008093B402AECE81E08093B502F0CE81E0F3
:104E30008093B602F5CE09BD19BD09B400FEFDCFC1
:104E40008091D8008F7D8093D8008091E0008260AF
:104E50008093E0008091E00081FDFCCF109262051C
:104E60000E945B1156CC2B30310508F0A0CED8CE75
:104E70002B30310508F04CCE84CE1092B9008CE076
:104E80008093B8000895B0E0A0E0E9E4F7E20C9464
:104E90004428B82EEB010E94260F6C01EE24E39407
:104EA000F12CC431D10560F025E0E22EF12CCF3F8A
:104EB000DC0731F0CE0164E170E00E9429287B011B
:104EC00084EAA82E94E8992E1092BC00A092BC000F
:104ED0000E94260F8C018091BC0087FF0DC080913D
:104EE000B900887F8830F9F08091B900887F8031DF
:104EF000D1F00FEF1FEF08C0C8010E94170FE8168E
:104F0000F90648F70EEF1FEFCF3FDC07E9F2C601C5
:104F10000E94170FC817D907B8F6C801CDB7DEB77A
:104F2000EBE00C946028B092BB009092BC000E9411
:104F3000260F8C018091BC0087FF0AC08091B900C8
:104F4000887F883111F08034A1F610E000E0E5CFD1
:104F5000C8010E94170FE816F90660F7D3CF0F9328
:104F60001F93CF93DF93EB018093BB0084E8809382
:104F7000BC000E94260F8C018091BC0087FF11C0ED
:104F80002091B900287F81E090E0283211F490E070
:104F900080E0919581959109DF91CF911F910F91BB
:104FA0000895CF3FDC0741F3C8010E94170FC817CF
:104FB000D90710F78EEF9FEFEFCFB0E0A0E0E3EE60
:104FC000F7E20C9447286B018A017901B9010E942C
:104FD0004327E6010C0D1D1DC017D10711F097FFE7
:104FE00008C024E92093BC00CDB7DEB7E8E00C94FC
:104FF0006328B70189910E94AF27EECFB0E0A0E00F
:10500000E4E0F8E20C944728C62F6A017901B80160
:105010000E94432797FD0CC0B8018C2F0E94AF2738
:10502000E601EC0CFD1CCE15DF0511F097FF08C062
:1050300024E92093BC00CDB7DEB7E8E00C946328E8
:10504000B80189910E94AF27EECF84E98093BC001C
:105050000895AA1BBB1B51E107C0AA1FBB1FA617BF
:10506000B70710F0A61BB70B881F991F5A95A9F711
:1050700080959095BC01CD0108952F923F924F925B
:105080005F926F927F928F929F92AF92BF92CF92D8
:10509000DF92EF92FF920F931F93CF93DF93CDB7E1
:1050A000DEB7CA1BDB0B0FB6F894DEBF0FBECDBF59
:1050B00009942A88398848885F846E847D848C842A
:1050C0009B84AA84B984C884DF80EE80FD800C8133
:1050D0001B81AA81B981CE0FD11D0FB6F894DEBF16
:1050E0000FBECDBFED010895991B79E004C0991F53
:1050F000961708F0961B881F7A95C9F78095089532
:1051000097FB072E16F4009407D077FD09D00E9474
:10511000292807FC05D03EF4909581959F4F08956E
:10512000709561957F4F0895EE0FFF1F0590F491E4
:10513000E02D0994FB01DC0102C005900D92415065
:105140005040D8F70895FB01DC0104C08D91019017
:10515000801921F441505040C8F7881B990B0895DD
:10516000F999FECF92BD81BDF89A992780B508952F
:10517000A8E1B0E042E050E00C94E428262FF99931
:10518000FECF92BD81BDF89A019700B4021639F0A6
:105190001FBA20BD0FB6F894FA9AF99A0FBE089577
:1051A0000396272F0E94BF280E94BE28252F0E9409
:1051B000BF28242F0C94BF280196272F0E94BF28B8
:1051C0000C94BE28DC01CB01FC01F999FECF06C08E
:1051D000F2BDE1BDF89A319600B40D9241505040B5
:1051E000B8F70895F894FFCF50127812101478127F
:1051F0001014AB12CC121014C913D6132B182B1881
:10520000641864181F193B198D188D184619D31985
:04521000E419E419A0
:1052140004002B001400290001A205A10C800C7BC2
:105224000C760CA105000000000000F915F3155AD6
:10523400150401000000000000F915F3155A1500CB
:10524400010021007F220003BE002C00000000B8F2
:10525400000255000000B2002A00000000AC002843
:10526400000000000101818283E200E900EA00B548
:1052740000B600B700CD008301CC008A01920194EE
:10528400012102230224022502260227022A02B354
:1052940000B4006F007000333236939294C6F4F574
:1052A400F6F7319700FF0100010000FFFF00000145
:0C52B4000001FF0000081018181008008E
:00000001FF
