:100000000C9411060C942E060C942E060C9424309D
:100010000C942E060C942E060C942E060C942E0690
:100020000C942E060C942E060C944C140C9400196F
:100030000C94DB260C942E060C942E060C942E06A3
:100040000C942E060C942E060C942E060C942E0660
:100050000C942E060C9425150C942E060C942E064A
:100060000C942E060C942E060C942E060C942E0640
:100070000C942E060C942E060C942E060C942E0630
:100080000C942E060C942E060C942E060C942E0620
:100090000C942E060C942E060C942E060C942E0610
:1000A0000C942E060C942E060C942E0605010902C3
:1000B000A10185020901A1000509190129081500FE
:1000C0002501950875018102050109300931158165
:1000D000257F95027508810609381581257F9501D0
:1000E00075088106050C0A38021581257F95017572
:1000F000088106C0C00660FF0961A1010962150000
:1001000026FF009520750881020963150026FF006F
:10011000952075089102C005010906A1010507197E
:10012000E029E71500250195087501810295017503
:100130000881010507190029FF150026FF00950613
:1001400075088100050819012905950575019102B9
:10015000950175039101C00000000000000000003F
:10016000000000000000000000000000000000008F
:1001700000000000000000000000007E0F00D4FF1F
:10018000FFFFC70000007800000000000000002A08
:100190002B2800000000000000000000000000000C
:1001A000000029000000002C1E34202122243426C7
:1001B00027252E362D3738271E1F202122232425C0
:1001C000263333362E37381F0405060708090A0B75
:1001D0000C0D0E0F101112131415161718191A1BE7
:1001E0001C1D2F3130232D350405060708090A0B85
:1001F0000C0D0E0F101112131415161718191A1BC7
:100200001C1D2F3130354C0102E2600103E2000079
:10021000DA0281FFD9F1DB20A4A62EAF00A0C00036
:10022000A1C800AED580A81FD300408D1420007F48
:100230003F1F643214783C1E0001010101010101DD
:10024000010102020202020202020203030303038B
:10025000030303040404040404040505050505065A
:100260000606060607070707070808080809090918
:10027000090A0A0A0B0B0B0C0C0C0D0D0D0E0E0EC1
:100280000F0F0F1010111111121213131414151552
:1002900016161717181819191A1A1B1B1C1D1D1EC4
:1002A0001E1F202021222223242425262627282918
:1002B000292A2B2C2D2D2E2F303132323334353646
:1002C0003738393A3B3C3D3E3F4041424344454646
:1002D0004748494A4C4D4E4F505153545556585922
:1002E0005A5B5D5E5F616264656668696B6C6D6FC9
:1002F0007072737577787A7B7D7E8082838587883C
:100300008A8C8E8F91939596989A9C9EA0A2A3A575
:10031000A7A9ABADAFB1B3B5B7BABCBEC0C2C4C676
:10032000C9CBCDCFD1D4D6D8DBDDDFE2E4E7E9EB32
:10033000EEF0F3F5F8FAFDFFFFAA7F554000AF009D
:10034000AE2A00130012000C0018001C0028003315
:10035000000F000E000D000B005200380037003671
:10036000001000110035724F00510050006564A765
:100370005D1700150008001A00140029000A000982
:10038000000700160004002B620500190006001B80
:10039000001D00E1002C002A00A65DE300E200E061
:1003A000000000000000000000000000000000004D
:1003B000000000000000000000000000000000003D
:1003C000000000000000000000000000000000002D
:1003D000000000000000000000000000000000001D
:1003E000000000000000000000000000000000000D
:1003F00000000000000000000000000000000000FD
:10040000004C00310030002F002E002D0001003480
:100410000033000000000000004B003500370036BC
:10042000000000000001004D004E004A00000001E5
:10043000003E003D003C003B003A0001004300420A
:1004400000410040003F000100A95D0000000045A0
:10045000004400010001004C000100010001000106
:10046000000000000000000000000000000000008C
:10047000000000000000000000000000000000007C
:10048000000000000000000000000000000000006C
:10049000000000000000000000000000000000005C
:1004A000000000000000000000000000000000004C
:1004B000000000000000000000000000000000003C
:1004C000000000270026002500240023000100343E
:1004D0000023002200210000000000870020001FF0
:1004E000001E000000010038003600370027000120
:1004F000002200210020001F001E0001000000005B
:1005000000000000000000010000000000000000EA
:1005100000000001000100010001000100010001D4
:1005200000000000000000000000000000000000CB
:1005300000000000000000000000000000000000BB
:1005400000000000000000000000000000000000AB
:10055000000000000000000000000000000000009B
:10056000000000000000000000000000000000008B
:10057000000000000000000000000000000000007B
:100580000000004B004A00F900FB00000000004E94
:10059000004D00FA00FC000000F0000000F500F43F
:1005A00000000000000100F300F100F20000000173
:1005B0000000000A5C135CAA5D005C00000000C93A
:1005C0005CC75CC55CC25C00000000CA5CC85CC65D
:1005D0005CC35C010000000000010001000100019B
:1005E000000000000000000000000000000000000B
:1005F00000000000000000000000000000000000FB
:1006000000000000000000000000000000000000EA
:1006100000000000000000000000000000000000DA
:1006200000000000000000000000000000000000CA
:1006300000000000000000000000000000000000BA
:100640000009025B00030100A0FA09040000010395
:100650000101000921110100012240000705810369
:100660000800010904010002030000000921110132
:100670000001222200070582032000010705030371
:1006800020000109040200010300000009211101FA
:100690000001224900070584032000011201000225
:1006A00000000008EDFEA3DF1000010200011A03A4
:1006B00074007200650061006400730074006F00D4
:1006C0006E00650034003800000012036D00610008
:1006D00072006B007300610072006400000004038C
:1006E00009040000000000003E5B4F5B3E003E6BD3
:1006F0004F6B3E001C3E7C3E1C00183C7E3C1800AC
:100700001C577D571C001C5E7F5E1C0000183C18A7
:100710000000FFE7C3E7FF00001824180000FFE710
:10072000DBE7FF0030483A060E002629792926002B
:10073000407F05050700407F05253F005A3CE73C08
:100740005A007F3E1C1C0800081C1C3E7F0014221F
:100750007F2214005F5F005F5F0006097F017F005A
:10076000006689956A0060606060600094A2FFA2E4
:10077000940008047E04080010207E201000080861
:100780002A1C0800081C2A0808001E10101010005F
:100790000C1E0C1E0C0030383E383000060E3E0E8B
:1007A000060000000000000000005F0000000007DD
:1007B00000070000147F147F1400242A7F2A1200EF
:1007C00023130864620036495620500000080703CE
:1007D0000000001C224100000041221C00002A1CD5
:1007E0007F1C2A0008083E080800008070300000C6
:1007F00008080808080000006060000020100804D5
:1008000002003E5149453E0000427F4000007249CF
:10081000494946002141494D33001814127F100008
:100820002745454539003C4A4949310041211109D4
:100830000700364949493600464949291E0000004B
:1008400014000000004034000000000814224100A1
:100850001414141414000041221408000201590950
:1008600006003E415D594E007C1211127C007F490A
:10087000494936003E41414122007F4141413E000D
:100880007F49494941007F09090901003E41415121
:1008900073007F0808087F0000417F41000020406E
:1008A000413F01007F08142241007F40404040004A
:1008B0007F021C027F007F0408107F003E414141FF
:1008C0003E007F09090906003E4151215E007F0973
:1008D0001929460026494949320003017F010300D6
:1008E0003F4040403F001F2040201F003F40384015
:1008F0003F00631408146300030478040300615983
:10090000494D4300007F414141000204081020008E
:10091000004141417F000402010204004040404088
:1009200040000003070800002054547840007F284E
:1009300044443800384444442800384444287F0064
:1009400038545454180000087E0902001824241C4E
:1009500078007F080404780000447D4000002040B7
:10096000403D00007F102844000000417F4000000F
:100970007C04780478007C080404780038444444FB
:100980003800FC182424180018242418FC007C08C3
:100990000404080048545454240004043F44240030
:1009A0003C4040207C001C2040201C003C4030404B
:1009B0003C004428102844004C1010107C00446473
:1009C000544C44000008364100000000770000004D
:1009D0000041360800000201020402003C262326E2
:1009E0003C000000000000000000000000000000CB
:1009F00000000000000000000000000000000000F7
:100A000000000000000000000000000000000000E6
:100A100000000000000000000000000000000000D6
:100A200000000000000000000000000000000000C6
:100C2000000011241FBECFEFDAE0DEBFCDBF12E01F
:100C3000A0E0B1E0E0E0FAE602C005900D92A43F2A
:100C4000B107D9F726E0A4EFB2E001C01D92AD379D
:100C5000B207E1F70E9402270C94D5340C940000EF
:100C6000FC01AC01485F5F4F8FEF91E32191822738
:100C700028E030E087FF09C0880F8927215031091B
:100C8000C9F7E417F50791F70895880FF7CFE8ED56
:100C9000F0E080818E7F80831092E2001092DA0073
:100CA0001092E100A0EEB0E08C9181608C93808185
:100CB0008F77808319BCA7EDB0E08C918E7F8C93E9
:100CC00080818F7E80831092570408952091E400E4
:100CD0003091E50095E6A9012091EC00822F81700A
:100CE00020FF06C08091E80080FF06C080E00895E4
:100CF0002091E80022FD1AC080916404882389F0C5
:100D0000853089F08091EB0085FD0FC02091E400D3
:100D10003091E50042175307F9F29150E1F684E073
:100D2000089582E0089583E0089581E00895EF92A8
:100D3000FF920F931F93CF937C018B010E94660655
:100D4000C82F811117C08091E80085FD0BC08091EC
:100D5000E8008E778093E8000E946606882399F366
:100D6000C82F08C0F70181917F018093F1000150E5
:100D7000110949F78C2FCF911F910F91FF90EF90A0
:100D800008958091660487FF13C08091E80082FF78
:100D900006C08091E8008B778093E80004C08091C2
:100DA00064048111F2CF0895809164048823D9F3FB
:100DB0008091E80080FFF8CF8091E8008E77ECCF3B
:100DC000982F9093E900242F762F50E0891731F067
:100DD0007091EC002091ED005091F00021FD07C0D2
:100DE0009F5F973071F78093E90081E0089530911B
:100DF000EB003E7F3093EB003091ED003D7F309370
:100E0000ED003091EB0031603093EB007093EC001B
:100E10002093ED005093F0002091EE0027FDE0CFED
:100E200080E00895CF92DF92EF92FF920F931F938D
:100E3000CF93DF93C8EDD0E088818F7E8883E7ED84
:100E4000F0E080818160808384E082BF81E08093D4
:100E5000570488818E7F888302EE10E0F8011082AB
:100E60001092DA0081EEC82ED12CF6011082888112
:100E70008F77888388818068888388818F7D888345
:100E800019BC1092640410926504109263041092CD
:100E9000620490EEE92EF12CF70180818B7F808334
:100EA00088818160888342E060E080E00E94E00603
:100EB000F60180818E7F8083F8018081816080834C
:100EC000808188608083F70180818E7F8083888124
:100ED00080618883DF91CF911F910F91FF90EF90F8
:100EE000DF90CF900895FC0180916C0490916D0487
:100EF00086179707A0F06115710529F49091E80015
:100F00009E779093E80090E06115710551F491117E
:100F100008C08091E80082FF34C080E00895BC01E1
:100F2000F2CF809164048823C1F18530C1F18091B2
:100F3000E80083FD30C08091E80082FDEACF809117
:100F4000E80080FFE1CF8091F3002091F200382F7C
:100F50006115710519F02830310558F091E02830FD
:100F6000310509F090E02091E8002E772093E80009
:100F7000CBCF81918093F100615071092F5F3F4F7A
:100F8000E7CF80916404882341F0853041F080915F
:100F9000E80083FFBECF81E0089582E0089583E0FA
:100FA000089508950895089580915904089587E754
:100FB00097E7909301088093000888E19AE00FB6C4
:100FC000F894A895809360000FBE90936000FFCFC7
:100FD0002FB7F89460915304709154048091550494
:100FE000909156042FBF0895FA01811101C0FB01B1
:100FF00009940895EDE1F4E0118282818460828396
:10100000089580914504982F9E7F61F481708260DD
:101010008093450480914804853B18F084EB8093CD
:10102000480408958033B0F381708E62F1CFAF929F
:10103000BF92DF92EF92FF920F931F93CF93DF93B4
:10104000082F162FE901E42FF0E0E85CFD4F611155
:1010500010C0E4915E2F4E2F4983E8835A83DF91BD
:10106000CF911F910F91FF90EF90DF90BF90AF90C5
:101070000895E62EF12C4491D42EE42FF0E026E0E2
:10108000829FC00111242FEF30E0B9010E9440314E
:10109000802F90E0880F991F55E5569FD001579FEC
:1010A000B00D11248A1B9B0B982F990F890F5901A2
:1010B000AE18BF08AE9ED001AF9EB00DBE9EB00D63
:1010C00011245B2F189F80011124012F1127590132
:1010D000A01AB10AAE9E8001AF9E100DBE9E100DEB
:1010E00011245901A81AB108AE9CC001AF9C900D03
:1010F000BE9C900D1124892F9927281B390B2E9FF8
:10110000C0012F9F900D3E9F900D1124E92F62305A
:101110007105A1F050F46115710509F49DCF61309E
:10112000710581F0EB2F512F97CF6430710569F075
:1011300080F06630710509F48FCFF4CFE42F4B2F88
:10114000592F8ACFE42F412F87CFEB2F542F492FD0
:1011500083CF4B2F5D2DE12F7FCF40911304803F34
:1011600059F48091140487FF0DC0109214044111AA
:101170000BC010920B0408C0813F81F480911404CD
:1011800018169CF3442381F0809115049091160465
:10119000892B09F05AC010920A040895823F49F43D
:1011A00047FFF0CF10921304809114048111ECCF0B
:1011B000E0CF833F19F41416ACF3E4CF90911504FB
:1011C000893F29F41916F4F610921504DBCF8A3FF3
:1011D00019F497FFD7CFF8CF909116048B3F29F4DD
:1011E00097FFD0CF10921604CDCF8C3F19F419166B
:1011F000CCF3C8CF9CE0980F953090F4845F990BA6
:1012000021E030E0B90102C0660F771F8A95E2F74E
:10121000CB01809590911204892380931204B2CF60
:101220008D3F31F480910C048E7F80930C04AACF03
:101230008E3F21F480910C048D7FF7CF8F3F09F012
:10124000A1CF80910C048B7FF0CF089580910C0486
:1012500080FD16C081FD16C082FD16C080910A0473
:101260008823A1F0883280F428E0829FC0011124F5
:1012700068E270E00E946031862F672B39F0089594
:1012800082E0089584E0089588E0089581E008955B
:1012900080910C0480FD16C081FD16C082FD18C02F
:1012A00080910B04882391F0863990F42CE0829F82
:1012B000C001112466E970E00E946031862F672B1F
:1012C00049F0089583E0089586E0089584E0089544
:1012D0008CE0089581E00895803F31F40E94480930
:1012E0008195809314040895813F19F40E94480960
:1012F000F8CF823F31F40E9448098195809313040E
:101300000895833F19F40E944809F8CF893F29F4D2
:101310000E9426098093150408958A3F21F40E94B3
:1013200026098195F7CF8B3F31F40E9426098195DC
:101330008093160408958C3F19F40E942609F8CF73
:101340009CE0980F953070F4845F990B21E030E0B9
:1013500001C0220F8A95EAF780911204822B8093B4
:10136000120408958D3F31F480910C0481608093C4
:101370000C0408958E3F21F480910C048260F7CF15
:101380008F3FB9F780910C048460F1CF80E008951D
:1013900078940895F894E82FE295EF70F0E031A189
:1013A000282F2F7081E090E001C0880F2A95EAF77E
:1013B000982F9095932391A392A1892B82A30C94AB
:1013C000C8099091B70392FF06C0282F28712830D2
:1013D000F9F4877F846093FF06C0282F2871283195
:1013E000F1F4877E84612091B80320FF06C0382F76
:1013F00038713830D9F4877F816021FF06C0282FEB
:1014000028712831D1F4877E816194FD877E08950B
:10141000282F24712430F9F68B7F8860DCCF282FA9
:101420002471243101F78B7E8861DDCF382F317133
:10143000313019F78E7F8860E0CF282F217121315C
:1014400021F78E7E8861E1CFCF93DF93EC01823864
:10145000910589F1B8F58133910509F492C028F519
:101460008932910509F486C08A9709F491C0C115A3
:1014700022E5D20708F0AAC0C11531E5D30708F06C
:1014800014C1CF3FD10511F008F090C0C03FD10585
:1014900008F0E9C0C53AD10508F081C0C430D105D3
:1014A000F8F4C130D105E1F040C08533910509F46D
:1014B0005AC0C997E1F68091B703837089F0C0EEF6
:1014C000D0E00EC0833E910599F170F4803E910505
:1014D00001F1823E910559F68091B70382FD21C04A
:1014E000CE01DF91CF910895863E910561F1873E4F
:1014F000910571F1843E910509F0B9CF8091B8034F
:1015000081FFEECF8091B703C7EED0E084FD0DC020
:10151000E7CF8091B70380FDF9C09091B80390FFA9
:10152000DFCFC3EED0E084FFDBCFD0E0C0E0D8CF88
:101530008091B70382FDEDC09091B80390FDBFCFBD
:1015400084FFCECFF2CF8091B70383FDDDCFC8CF2C
:101550008091B70383FDE0C09091B80391FFF0CF75
:10156000C4EED0E0BDCF8091B70385FFB9CFC9E20B
:10157000D0E0B6CF8091B70385FFB2CFC5E3D0E00E
:10158000AFCF8091B70386FFABCFCAE2D0E0A8CF40
:101590008091B70386FFA4CFC1E3D0E0A1CFCE01F5
:1015A000815E9109079708F49BCFBFCFC11540E535
:1015B000D40708F05DC0C11580E4D80708F055C015
:1015C000C11590E2D90708F48BCFAFCFC11526E53E
:1015D000D20718F5C11535E5D30708F07EC0C1154F
:1015E00044E5D40708F074C09C2F969596959E010B
:1015F00023703327C115D34508F45CC0C1E0D0E0A7
:1016000002C0CC0FDD1F2A95E2F730E2939FC001A4
:101610001124C82BD92BDA6863CFC1159AE5D907F5
:1016200078F4C11529E5D20708F062C0C11538E584
:10163000D30708F47ACFDC2FCC27C06FD06A50CF05
:10164000CE0190568115904208F06FCF8D2F8F718B
:101650000E94E10990E0982F882788279F719C01BC
:101660002C2BE90143C0D0653BCFDF70D06A38CF67
:10167000CE01E4E096958795EA95E1F783702C2FEB
:1016800026952695237090E2299F90011124382BEE
:101690008C2F8370C1E0D0E002C0CC0FDD1F8A9593
:1016A000E2F7C22BD32BDC681BCFDC2FCC27C16F1A
:1016B000D06A16CFC1E0D0E002C0CC0FDD1F2A9562
:1016C000E2F720E2929FC0011124C82BD92BEBCF67
:1016D000DC2FCC27C46FD06A03CF8C2F0E94E10986
:1016E000C82FD0E0DC2FCC27CC27DF71D062F8CE1A
:1016F0008C2F8F700E94E10934E0D695C7953A95FA
:10170000E1F7CF709C2FEC01D069EACEC9E3D0E0BD
:10171000E7CEC2EED0E0E4CEC6EED0E0E1CE8091DE
:101720006A03811110926A0308958095909169036C
:101730009823909369030895E8EFF2E0919189135B
:1017400003C0DF0111971C9292E0EE3FF907B1F759
:101750000895A8EFB2E0EFEF90E02D91821751F0DD
:10176000EF3F19F4211101C0E92F9F5F9630A9F7CF
:10177000EF3F09F408950E2E000CFF0BEA50FD4FC9
:101780008283089580915E0390912D03981301C088
:1017900008958F5F8770FACFE92FEE0FE90FEE0FF4
:1017A0008E0F982F977086958695869523E0829F59
:1017B000F0011124ED5FFC4F50E040E080E021910A
:1017C00030E0092E02C0369527950A94E2F7217081
:1017D0003327042E01C0220F0A94EAF7822B4F5FB1
:1017E0005F4F4330510559F70895E92FEE0FE90F88
:1017F000EE0F8E0F982F977041E001C0440F9A951D
:10180000EAF786958695869593E0899FF0011124E5
:10181000ED5FFC4F30E020E070E05191DF01119767
:10182000CB01022E02C0969587950A94E2F781704B
:1018300081958527842385278C932F5F3F4F233005
:10184000310559F70895CF93DF93C0917B06D0916E
:101850007C068A30C1F420917204CE0185579440F1
:10186000622F70E00E944031281B822F66E00E94A8
:101870005431C82FC15018F4DF91CF91089580E200
:101880000E94230CF7CF8D30E9F4C557D440209146
:101890007204622F70E0CE010E944031281B822F1B
:1018A0009E01280F311D2115324018F080E0D0E054
:1018B000C0E0C80FD11DCB58DB4FD0937C06C0933E
:1018C0007B06DACF96E0FE01A5E7B6E001900D9227
:1018D0009A95E1F7803E08F458C086E0FE01119227
:1018E0008A95E9F7C0917B06D0917C0646E050E0EE
:1018F000BE0185E796E00E94CE319E012557344017
:10190000892B41F1C90145E0969587954A95E1F704
:1019100041E050E0BA0102C0660F771F8A95E2F7F6
:10192000CB016091730470917404862B972BB901DD
:101930006B5F7F4FE5E076956795EA95E1F702C02A
:10194000440F551F6A95E2F7842B952B90937404EE
:10195000809373042A5F3F4F40917204642F70E0BC
:10196000C9010E944031481B463010F4240F311D3C
:10197000211572E0370710F030E020E02B583B4F84
:1019800030937C0620937B0677CFF6E08F9FB001E3
:1019900011246E51794F46E050E0CE010E94B831DB
:1019A000A1CF8091690390916803892B8093F602FF
:1019B00090916A03992391F0892B8093F60220E09D
:1019C00088EF92E0FC013191CF0131112F5FF2E0FD
:1019D0008E3F9F07B9F721110E948F0B48E050E01E
:1019E00060E673E086EF92E00E94CE31892BA9F089
:1019F00088E0E6EFF2E0A0E6B3E001900D928A9570
:101A0000E1F7E0915004F0915104309731F00280F9
:101A1000F381E02D86EF92E009940895882321F068
:101A20000E94950B0C94D10C0895882339F0909165
:101A30006903982B909369030C94D10C08950F932C
:101A40001F93CF93DF93EC01FC0101900020E9F795
:101A50008F0101501109C017D10728F0DF91CF91F4
:101A60001F910F91089589910E94230CF4CFCF927A
:101A7000DF92EF92FF920F931F93CF93DF936C014E
:101A80007B0164E670E088E70E947B2EEC0197FD05
:101A900012C010E000E0F601E00FF11F849164E64F
:101AA00070E00E94F52EEC01892B29F40F5F1F4F87
:101AB0000E151F0581F70E94782FCE01DF91CF917F
:101AC0001F910F91FF90EF90DF90CF90089580913C
:101AD0004E0490914F04911103C091E0892708951D
:101AE000882369F062E070E08FE393E00E94370D95
:101AF000892B19F080914E04089510924E04809124
:101B00004E04EBCFCF93C0914E0480914F048823B5
:101B1000D1F00E94E807605A75418F4F9F4F609344
:101B20004A0470934B0480934C0490934D04C1116C
:101B300008C062E070E08DE393E00E94370D892BCE
:101B400029F0C0914E048C2FCF91089581E08093AD
:101B50004E04F7CF9C0184E08093E9009FEF8091D1
:101B6000E800915085FD06C085ED8A95F1F70000EB
:101B70009111F5CF8091E80085FF0CC050E040E066
:101B800066E070E0C9010E9497068091E8008E77B8
:101B90008093E8000895CF93DF93EC0181E0809378
:101BA000E9008FEF9091E800815095FD06C095ED1A
:101BB0009A95F1F700008111F5CF8091E80085FF3B
:101BC00014C050E040E068E070E0CE010E9497064B
:101BD0008091E8008E778093E80088E0FE01AAE516
:101BE000B4E001900D928A95E1F7DF91CF910895CD
:101BF0006091A0018091450480FF20C080919F01E9
:101C000043E0849FC0011124805E9B4F539A2BB107
:101C1000277F3BB138605FB7F894FC01649FE00D0B
:101C2000F11D1124BF0168177907D1F45FBF8FE55B
:101C300094E00197F1F700C0000008958091A101A0
:101C40009091A20123E0829FF0011124E05EFB4FFE
:101C50008917A0F61182108212828F5F3396F8CF17
:101C6000FC014191CF01E8E03BB9000000C047FF13
:101C70002BB9440F000000C000C000C02BB900C049
:101C8000EA9591F7D0CFEF92FF920F931F93CF93E6
:101C9000DF93EC018C81811109C081E08C8310926B
:101CA000440492E09093A5018093A4018091A10146
:101CB0009091A20123E0829FF0011124E05EFB4F8E
:101CC000891768F110E003E06091A301161768F12D
:101CD0000E94F80D8091A40120914404280F2093C4
:101CE00044049091A501980F9093A501191654F4FE
:101CF000022E000C330B4091A3014150550B2417C9
:101D0000350734F081958093A401813009F41C8259
:101D1000DF91CF911F910F91FF90EF900895118265
:101D2000108212828F5F3396CBCFE12EF12C70E0C0
:101D3000C7010E9460312091A101820F482F50E01D
:101D400020914404022E000C330BE216F306D4F06B
:101D50002091A501022E000C330B2E153F0594F0A7
:101D6000809F90011124205E3B4F40914804453BE9
:101D700008F044EB60914704809146040E941708E4
:101D80001F5FA2CFFA01EE0FFF1FE40FF51FE05E09
:101D9000FB4F118210821282F3CFEF92FF921F93BA
:101DA000CF93DF93EC0110E0EE24EA94F12C6091E4
:101DB000A301161770F00E94F80D9A818C8190FF94
:101DC0002AC08F5F8C83DF91CF911F91FF90EF909E
:101DD00008952091A101422F410F5527551FCA0197
:101DE0009A01220F331F280F391F205E3B4F40916D
:101DF0004804453B08F044EB70E0C7010E946031A5
:101E0000962F8C8160914704199F800D11240E94A8
:101E100017081F5FCCCF8150D5CF9091450490FF1C
:101E200014C09091A1012091A20133E0939FF00191
:101E30001124E05EFB4F921710F00C94F80D818393
:101E4000608342839F5F3396F6CF08950F931F936D
:101E5000CF93DF9300D00F92CDB7DEB78C01809186
:101E6000450480FF13C040914804453B08F044EB13
:101E70009E012F5F3F4F60914704F80184810E94CB
:101E800017084B8169818A810E940D0FF8018481B6
:101E90008F5F84830F900F900F90DF91CF911F91F0
:101EA0000F910895E5E4F4E080818E7F80830E94A5
:101EB000FA07EDE1F4E08281816082832FEF80E711
:101EC00092E0215080409040E1F700C000000C9467
:101ED000F80D9F92AF92BF92CF92DF92EF92FF9256
:101EE0000F931F93CF93DF937C015B016A01809175
:101EF000A00301E010E08A3010F40AE010E0C1E035
:101F0000D0E0F894B501C701F6010995982E0E941A
:101F1000C809911004C021960C171D076CF4892D77
:101F2000DF91CF911F910F91FF90EF90DF90CF90B5
:101F3000BF90AF909F900895CC9F9001CD9F300DA2
:101F4000300D112490E080E045E34A95F1F7000060
:101F5000019682179307C1F7D4CF80917603811140
:101F600010C08091D80080618093D8008AE18A9562
:101F7000F1F700C08091D90080FF0AC081E0809312
:101F8000760381E090917603913009F080E0089526
:101F900082E0809376030E94470610926404F1CF9A
:101FA0000E94AD0F882351F0E0915004F09151044C
:101FB000309721F00190F081E02D099480E00895A0
:101FC0000F931F930E94AD0F882321F01F910F9153
:101FD0000C94E8070E94E8070091A1031091A20366
:101FE0002091A3033091A403600F711F821F931FE0
:101FF0001F910F910895CF93DF93C7E2D3E060E084
:10200000CE010E94A1342196C11584E0D807B9F70A
:10201000DF91CF9108956F927F928F929F92AF92AE
:10202000BF92CF92DF92EF92FF920F931F93CF93C5
:10203000DF9381E4C82E83E0D82E93EFE92EF12CB4
:10204000E701C05CD10936011BC0F5018590949071
:10205000692DC8010E94A134682DC80101960E9413
:10206000A13482E0A80EB11C0E5F1F4FC017D1072C
:1020700061F78CE0680E711C2C96CE15DF0529F0F7
:102080008E010C5011095301E0CF7E0180ECE80E67
:10209000F11C80ECC80ED11C83EFE81683E0F80633
:1020A00079F6DF91CF911F910F91FF90EF90DF9024
:1020B000CF90BF90AF909F908F907F906F9008953A
:1020C000CF93C82F6FEF811162E283E290E00E940C
:1020D000A1346FEFC11169E084E290E00E94A13465
:1020E0006FEFC11164E085E290E0CF910C94A134D0
:1020F00080E00E94601060E086E290E00E94A134DF
:102100000E940B100E94FB0F81E00C9460100F9353
:102110001F93CF93DF93C42FD0E0CC0FDD1F2CE0B3
:10212000629FC00DD11D112430EC839FC00DD11DC5
:102130001124CE0187960E948D34082F10E0102FB5
:102140000027CE0188960E948D349801282BC90162
:10215000DF91CF911F910F910895462F843038F46D
:10216000703128F4663018F4672F0C94871090E0D3
:1021700080E00895CF92DF92FF920F931F93CF9349
:10218000DF936C010091710480916B03082BC7E011
:10219000D0E010E0FC2EC8010C2E02C0959587956A
:1021A0000A94E2F780FD0CC02197A0F7F12C8F2D47
:1021B000DF91CF911F910F91FF90DF90CF90089505
:1021C000B6018C2F0E94AD100E94240A019761F382
:1021D000EECFCF93DF93EC010E94BA10BE010E94B4
:1021E000AD10DF91CF910C94240AFC018081918184
:1021F0000E94E91092959F70963091F058F4925F8A
:102200009F70923058F4803F19F030F4883E30F4DB
:1022100081E008959A5FF4CF843FD1F380E0089580
:10222000883EB0F3813FD1F7F3CF83E290E00E9484
:102230008D34823289F484E290E00E948D348930BA
:1022400059F485E290E00E948D3491E0843009F0E9
:1022500090E0892F8170089580E0FCCFCF9384E0D7
:1022600090E00E948D34C82F82E290E00E948D346D
:10227000982F8C2FCF910895CF92DF92EF92FF92FB
:102280006B017C010E940108B701A60188E090E083
:10229000FF90EF90DF90CF900C94B334AF92BF9249
:1022A000CF92DF92EF92FF920F931F93CF93DF9322
:1022B00000D00F92CDB7DEB7082FF62E142FE22EE6
:1022C0008091450480FF3FC0E82FE695AE2FB0E037
:1022D000A453BD4F9C9190931D048E7F823009F0D2
:1022E00040C0453B08F044EB9E012F5F3F4F6F2DF0
:1022F000802F0E9417084B8169818A810E940D0FEF
:1023000080914604801308C0809147048F1104C057
:1023100080914804811729F080911F048260809386
:102320001F0400934604F092470410934804EE20E3
:1023300051F060914504709146048091470490915A
:1023400048040E943C110F900F900F90DF91CF91A5
:102350001F910F91FF90EF90DF90CF90BF90AF90C3
:102360000895923019F400914604CACF9530D9F3FC
:102370009E3031F6EE508E2F8170D82EE695F0E02B
:10238000E85CFC4FA590B490C12CBB246091A301E4
:10239000C61618F00E94F80DB3CF2C2D30E0A29E87
:1023A000C001A39E900DB29E900D112470E00E947A
:1023B0004031802FD11016C0860F4091A101420FED
:1023C000532F511D9A01220F331F240F351F205EFA
:1023D0003B4F412F153B08F044EB6F2D0E9417082F
:1023E000C394D4CF861BE9CFE5E4F4E0438128E031
:1023F000421B08F440E021E0628181810C944E117F
:10240000E5E4F4E0438128E0420F08F44FEF21E0D7
:10241000628181810C944E11E5E4F4E0628128E050
:10242000621B08F460E021E0438181810C944E112D
:10243000E5E4F4E0628128E0620F08F46FEF21E048
:10244000438181810C944E11E5E4F4E0818121E027
:102450004381628188500C944E11E5E4F4E081815F
:1024600021E043816281885F0C944E118091490480
:10247000882319F08150809349046091450470913C
:10248000460480914704909148040C943C1180913B
:102490004904833018F48F5F8093490460914504A8
:1024A0007091460480914704909148040C943C112B
:1024B000E5E4F4E083E0808311828FEF828384EB94
:1024C00083831482ADE1B4E012968C9112978360FD
:1024D00012968C9360817181828193810C943C115E
:1024E00069EE7EEF90E080E00E94BF3460E082E021
:1024F00090E00E94A13460E083E090E00E94A1346B
:1025000010926B0360E084E090E00E94A13460E0F0
:1025100082E290E00E94A13460E085E090E00E94B9
:10252000A13460E086E090E00E94A1346FEF87E084
:1025300090E00E94A13440E050E0BA0188E090E0D1
:102540000E94B33460E08DE090E00E94A13440E04E
:1025500050E0BA0188E190E00E94B33460E087E186
:1025600090E00E94A13440E050E0BA018CE190E09C
:102570000E94B33470E060E080E290E00E94BF34DB
:1025800040E050E0BA0188E190E00E94B33480E07E
:102590000E9460100E94781040E050E0BA018FE085
:1025A00090E00E94B33440E050E0BA0183E190E053
:1025B0000C94B3341F93CF93DF9300D000D0CDB7EA
:1025C000DEB740918303509184036091850370913D
:1025D00086032FB7F8948091530490915404A091EE
:1025E0005504B09156042FBF841B950BA60BB70B57
:1025F00011E084369105A105B10570F10E94E00F4C
:102600006E5F7F4F8F4F9F4F69837A838B839C834D
:10261000809111019091120189579C4F40911001B6
:1026200050E04530510510F044E050E0BE016F5FCE
:102630007F4F0E94DB3182E090E00E94CA30182F69
:10264000882351F00E94E80760938303709384030A
:102650008093850390938603812F0F900F900F90A6
:102660000F90DF91CF911F910895CF93DF93CDB756
:10267000DEB728970FB6F894DEBF0FBECDBF85E05A
:10268000E5E4F4E0DE01119601900D928A95E1F700
:1026900080911D0490911E04A0911F048E839F833E
:1026A000A887288540919C0350919D0360919E03CB
:1026B00070919F033FB7F894809153049091540414
:1026C000A0915504B09156043FBF841B950BA60BF7
:1026D000B70B84369105A105B10510F4222319F139
:1026E0008091190190911A0189579C4F40911801CE
:1026F00050E04930510510F048E050E0BE016F5FF6
:102700007F4F0E94DB3183E090E00E94CA30882333
:1027100069F00E94E80760939C0370939D03809387
:102720009E0390939F0310921F0481E028960FB69A
:10273000F894DEBF0FBECDBFDF91CF910895EF9229
:10274000FF921F93CF93DF93CDB7DEB729970FB6D4
:10275000F894DEBF0FBECDBF7B0190E080E00E9409
:10276000CA30182F882309F46AC04091030150E051
:102770004115510511F041E050E060910401709164
:10278000050169577C4FCE0109960E94DB314091CB
:102790007F035091800360918103709182032FB772
:1027A000F8948091530490915404A0915504B091F1
:1027B00056042FBF841B950BA60BB70B84369105CF
:1027C000A105B10538F488E893E00E9430069985A8
:1027D0008917A9F181E090E00E94CA30882309F4AA
:1027E0004EC040910B0150E04930510510F048E0D7
:1027F00050E060910C0170910D0169577C4FCE0142
:1028000001960E94DB3188E893E00E9430069985AA
:10281000891335C00E94E80760937F03709380039B
:10282000809381039093820388E0FE013196A7E7AD
:10283000B3E001900D928A95E1F711E00BC088E0BA
:10284000E8E8F3E0DE01119601900D928A95E1F738
:102850001111EACF88E0E7E7F3E0D70101900D928C
:102860008A95E1F7812F29960FB6F894DEBF0FBE47
:10287000CDBFDF91CF911F91FF90EF90089510E0B1
:10288000E9CF90E080E00E949B34893E9E4F11F496
:102890000C94151180E008951F920F920FB60F92BD
:1028A00011242F933F934F935F936F937F938F9355
:1028B0009F93AF93BF93EF93FF938091E10082FFCB
:1028C00009C08091E20082FF05C08091E1008B7F0A
:1028D0008093E1008091DA0080FF24C08091D800CD
:1028E00080FF20C08091DA008E7F8093DA00809193
:1028F000D90080FF9DC080E189BD82E189BD09B416
:1029000000FEFDCF81E08093640480915704811123
:1029100009C00E9447060E9412078091E20084606D
:102920008093E2008091E10080FF17C08091E20077
:1029300080FF13C08091E2008E7F8093E20080913F
:10294000E20080618093E2008091D80080628093F1
:10295000D80019BC85E0809364048091E10084FF75
:102960002BC08091E20084FF27C080E189BD82E115
:1029700089BD89B5982F917080FFFBCF8091D800D9
:102980008F7D8093D8008091E1008F7E8093E1005D
:102990008091E2008F7E8093E2008091E20081606E
:1029A0008093E20080916504882309F447C084E0A5
:1029B00080936404809164048091E10083FF27C0C8
:1029C0008091E20083FF23C08091E100877F8093A4
:1029D000E10082E080936404109265048091E1003C
:1029E0008E7F8093E1008091E2008E7F8093E200F1
:1029F0008091E20080618093E20042E060E080E04C
:102A00000E94E0068091F00088608093F000FF91C2
:102A1000EF91BF91AF919F918F917F916F915F9156
:102A20004F913F912F910F900FBE0F901F901895CF
:102A300019BC109264041092570474CF8091E30083
:102A400087FD93E090936404B5CF78941F921FB6EE
:102A50001F9211248F939F93AF93BF938091530440
:102A600090915404A0915504B09156040196A11D73
:102A7000B11D8093530490935404A0935504B093D4
:102A80005604BF91AF919F918F911F901FBE1F90D1
:102A900018959C014FB7F894809153049091540479
:102AA000A0915504B09156044FBF821B930B08951B
:102AB0002FB7F8948091530490915404A091550439
:102AC000B09156042FBF08950E9458159C01909113
:102AD000130480911404982B21F030931004209358
:102AE0000F049091150480911604982B21F03093D7
:102AF0000E0420930D04E0915004F091510430979E
:102B000049F082E0809311040480F581E02D81E199
:102B100094E009940895109268030E94D10C86E015
:102B2000E1E1F4E0DF011D928A95E9F710920B04D0
:102B300010920A0410920C040C9464158093710492
:102B40000C948B1580917104982F9670963019F41F
:102B500088600C949E15877FFCCF21E030E001C097
:102B6000220F8A95EAF720958091710482230C94B4
:102B70009E1590915F038095892380935F03282F92
:102B8000277091F4282F082E000C330B9217130690
:102B900059F09091B80392FD07C08595859585956C
:102BA0000E94AD1510925F030895CF93C091B803B2
:102BB000C2FB992790F9981799F080FBC2F9C0934E
:102BC000B8036091B70384E090E00E94A1346C2FB9
:102BD00082E290E00E94A13482E0CF910C94B9157A
:102BE000CF91089521E030E001C0220F8A95EAF7E5
:102BF00080917104822B0C949E15CF93DF93C62F86
:102C0000D42F8823E1F0862F0E94F2158091710461
:102C10008823C9F090E09C0102C035952795CA959C
:102C2000E2F720FF10C002C095958795DA95E2F78C
:102C300080FF09C083E0DF91CF910C94F215862FBD
:102C40000E94AD15E3CF83E0DF91CF910C94AD15D9
:102C500080936B030C948B1510926903E8EFF2E0FC
:102C600086E0DF011D928A95E9F70C948B151F937E
:102C7000CF93DF93CDB7DEB7AA970FB6F894DEBF38
:102C80000FBECDBF86E694E02091F100DC012D93CC
:102C9000CD01B4E08E369B07B9F78091670483308D
:102CA00009F472C0B8F4813009F449C0823009F4E3
:102CB000B3C08091E80083FF8BC28091660490913D
:102CC00067049A3008F084C2E92FF0E0E952FB4C27
:102CD0000C9474318A3009F48EC08B3009F471C0C1
:102CE000893039F780916604813219F780916A043E
:102CF00090916B04009711F00297D9F68091E8004B
:102D0000877F8093E8008091E80082FF38C090912F
:102D1000F3008091F200029731F48091F10081304C
:102D200011F0863021F48091F10080935904809154
:102D3000E8008B778093E8000E94C106BACF8091AB
:102D40006604813A09F0B5CF8091E800877F8093CF
:102D5000E80080916A0490916B04892B61F468E02B
:102D60008AE594E070E00E9473078091E8008B7719
:102D70008093E8009ECF60E090E080E0F3CF809108
:102D800064048111C0CF95CF80916604813A09F027
:102D900090CF80916A0490916B04892B09F089CFC0
:102DA0008091E800877F8093E8008091E80080FFB1
:102DB000FCCF8091A6018093F1008091E8008E778E
:102DC000B9CF80916604813209F073CF80916A0493
:102DD00090916B04892B09F06CCF8091E800877F7C
:102DE0008093E8000E94C106809168048093A60148
:102DF0000E942C165ECF80916604813209F059CF73
:102E00008091E800877F8093E8000E94C10680914E
:102E10006904809358044DCF80916604813A09F08B
:102E200048CF8091E800877F8093E8008091E80098
:102E300080FFFCCF80915804BECF803899F0823853
:102E400009F0C6C180916A048F70873008F0C0C154
:102E50008093E9008091EB0085FB882780F9109230
:102E6000E90006C080916204909163049111826030
:102E70009091E800977F9093E8008093F100109282
:102E8000F1008091E8008E779FC1882309F48DC1FD
:102E9000823009F09DC180916804811190C18091B8
:102EA0006A048F702FEF280F263008F091C18093AD
:102EB000E9002091EB0020FF82C1933031F4809132
:102EC000EB0080628093EB007AC19091EB009061FF
:102ED0009093EB0021E030E001C0220F8A95EAF7E1
:102EE0002093EA001092EA008091EB008860EACF1C
:102EF00081116EC1109168041F778091E300807882
:102F0000812B8093E3008091E800877F8093E80025
:102F10000E94C1068091E80080FFFCCF8091E30011
:102F200080688093E30082E0111183E08093640461
:102F30004FC18058823008F04BC120916804309115
:102F400069042C3DE3E03E07A1F583E08A838AE231
:102F500089834FB7F894DE01139620E03EE051E2FA
:102F6000E32FF0E050935700E49120FF03C0E29577
:102F7000EF703F5FEF708E2F90E0EA30C0F0C796A1
:102F80008D939D932F5F243159F74FBF8091E800B7
:102F9000877F8093E8006AE270E0CE0101960E948C
:102FA00073078091E8008B778093E80011C1C09689
:102FB000E7CF80916A0490916B04432F55274330EB
:102FC000510509F44AC078F54130510509F47AC039
:102FD0008BE590E0E1E4F6E04230510509F0F8C0FD
:102FE0002091E800277F2093E80020916C04309125
:102FF0006D048217930708F49C0140E02115310508
:1030000009F065C0411163C08091E80082FDC9CF1D
:1030100080916404882329F2853019F28091E800B8
:1030200083FFF2CFBECF4132510509F43CC042329A
:10303000510509F0CDC08330910508F0C9C0FC01ED
:10304000EE0FFF1FE951FD4F0190F081E02D8C51F3
:103050009D4FDC018C9190E01AC03327213031055F
:10306000D1F02115310561F02230310509F0B0C0F1
:10307000EEEAF6E0E4918E2F90E0EEEAF6E007C08B
:10308000EEEDF6E0E4918E2F90E0EEEDF6E00097A5
:1030900009F49EC0A5CFEAECF6E0E4918E2F90E013
:1030A000EAECF6E0F4CF8330910508F091C0880F88
:1030B000991FFC01E351FD4F0190F081E02D89E063
:1030C00090E08ECF82E190E0ECE9F6E089CF80914C
:1030D0006404882309F465CF853009F462CF8091B8
:1030E000E80083FD5ECF8091E80082FD8DCF809166
:1030F000E80080FF83CF9091F3008091F2002115CA
:10310000310519F08830910550F041E0089709F039
:1031100040E08091E8008E778093E8006FCF449183
:103120004093F1003196215031090196E8CF803863
:1031300009F04EC08091E800877F8093E80080917D
:1031400065048093F1009DCE811142C01091680406
:103150001230F0F58091E800877F8093E8001093AB
:1031600065040E94C106112311F084E005C080911E
:10317000E30087FDFACF81E08093640442E061ECD4
:1031800081E00E94E00642E261EC84E00E94E006F9
:1031900042E261EC82E00E94E00642E260EC83E001
:1031A0000E94E0068091640413C08091680481301D
:1031B00079F481E0933009F080E080936304109209
:1031C000E9008091E800877F8093E8000E94C106B3
:1031D0008091E80083FF0AC08091E800877F809398
:1031E000E8008091EB0080628093EB00AA960FB616
:1031F000F894DEBF0FBECDBFDF91CF911F91089530
:103200001F920F920FB60F9211242F933F934F935B
:103210005F936F937F938F939F93AF93BF93CF935E
:10322000DF93EF93FF93D091E900DF708091EC0082
:10323000C82FC17080FDC0E81092E9008091F000B5
:10324000877F8093F00078940E9437161092E900EF
:103250008091F00088608093F000CD2BCF70C093F8
:10326000E900FF91EF91DF91CF91BF91AF919F91D5
:103270008F917F916F915F914F913F912F910F901F
:103280000FBE0F901F901895882309F474C08238E0
:1032900071F40E94D00F81FF6EC089E30E94A90BD8
:1032A0000E94D10C89E30E949C0B0C94D10C8338B2
:1032B00059F40E94D00F80FF5EC083E50E94A90BE5
:1032C0000E94D10C83E5EFCF843859F40E94D00FCF
:1032D00082FF51C087E40E94A90B0E94D10C87E4B1
:1032E000E2CF9CEF980F913AF0F290E2980F98306D
:1032F00050F4877091E001C0990F8A95EAF7892F01
:103300000E94950BD2CF9BE5980F9330B0F480913B
:10331000FF0290910003892B71F11092000310922B
:10332000FF02E0915004F0915104309721F10680A2
:10333000F781E02D90E080E0099498E5980F9731AF
:10334000A0F48091010390910203892BA1F01092C7
:10335000020310920103E0915004F0915104309760
:1033600051F00084F185E02DE5CF803F20F00E94F0
:10337000AD080C9464150895CF93C82F882309F4E1
:1033800076C08238C1F40E94D00F81FD70C089E3FD
:103390000E94A90B0E94D10C2FEF81EE94E02150E6
:1033A00080409040E1F700C0000089E30E949C0B40
:1033B000CF910C94D10C8338A1F40E94D00F80FDE2
:1033C00056C083E50E94A90B0E94D10C2FEF81EE1D
:1033D00094E0215080409040E1F700C0000083E578
:1033E000E5CF8438A1F40E94D00F82FD40C087E46D
:1033F0000E94A90B0E94D10C2FEF81EE94E0215086
:1034000080409040E1F700C0000087E4CFCF8CEF10
:103410008C0F813A68F4E8EFF2E08191C81709F166
:1034200022E0EE3FF207C9F78C2F0E94A90BC0CF14
:1034300080E28C0F883068F4C77021E030E001C072
:10344000220FCA95EAF780916903822B8093690362
:10345000AFCFC03F60F08C2F0E946C09CF910C94CD
:1034600064158C2F0E949C0B0E94D10CDDCFCF9154
:1034700008951F93CF93DF93182FD0E0C0E08933D6
:1034800011F4C0E5D0E0812F0E94BC19209731F4DF
:10349000812FDF91CF911F910C9444198FE99FE008
:1034A0000197F1F700C000002197F0CF0F931F9311
:1034B000CF93DF93C62FD42F022FFC018281882364
:1034C000A1F0609370040E94581590936F0480934C
:1034D0006E04C77081E001C0880FCA95EAF7DF91DA
:1034E000CF911F910F910C94150D8091700468136A
:1034F00035C080916E0490916F040E944915813E01
:10350000910560F510E21D0FCD17B9F080E28C0F28
:10351000883040F4C77081E001C0880FCA95EAF78F
:103520000E940E0D183048F481E09D2F977001C065
:10353000880F9A95EAF70E94150D802F0E94391A7C
:10354000183098F4D77081E001C0880FDA95EAF757
:10355000DF91CF911F910F910C940E0DC77081E0F8
:1035600001C0880FCA95EAF7F3CFDF91CF911F9181
:103570000F910895DF92EF92FF920F931F93CF93D5
:10358000DF93E82FF0E0E957FE4FD490282F2695DF
:103590002695269530E0F901E958FE4F0491877091
:1035A00010E0082E02C0159507950A94E2F7017005
:1035B0001127F901E959FE4FE490F12C082E02C0C1
:1035C000F594E7940A94E2F791E0E922FF24F901E7
:1035D000E95AFE4FC491D0E002C0D595C7958A95AF
:1035E000E2F7C170DD270115110519F081EE0E9487
:1035F000BC19E114F10419F086EE0E94BC198D2D5E
:103600000E94391AEF2819F086EE0E944419012B06
:1036100019F081EE0E944419CD2B51F08CE2DF911C
:10362000CF911F910F91FF90EF90DF900C94391A7A
:10363000DF91CF911F910F91FF90EF90DF90089550
:103640000E94AD0F81110C9458150E94E00FCB0120
:10365000089560914504669570E04BE050E084E980
:1036600091E00E94C131892B19F481E080931E04FE
:103670000E94201B909318048093170480911F04CC
:10368000846080931F0408959091450490FF3BC08F
:10369000917081112EC092609093450480911F0417
:1036A000816080931F04662351F0609145047091FE
:1036B000460480914704909148040E943C11609117
:1036C0004504669570E04BE050E084E991E00E948B
:1036D000C131892BA9F00E94FA0781E080931A0476
:1036E00020E04091480460914704809146040C9486
:1036F0004E11883110F09E62CFCF880F982BCCCF1F
:103700000E94291BEACF0895809145048695815037
:1037100009F487E161E00C94441B8091450486958F
:103720008F5F883108F081E061E00C94441B909138
:10373000450490FF07C09695981720F0961710F44F
:103740000C948D1B61E00C94441B8F929F92AF925E
:10375000BF92CF92DF92EF92FF920F931F93CF937E
:10376000DF9300D000D00F92CDB7DEB77C01FC0113
:1037700083819481892B31F08081918189238F3FCE
:1037800009F0C8C50F900F900F900F900F90DF9128
:10379000CF911F910F91FF90EF90DF90CF90BF904E
:1037A000AF909F908F9008950E94BA10182F682FA5
:1037B00089819A810E94F50B69817A81812F0E940B
:1037C000AD108C01F7018281882309F497C5C801E7
:1037D00082519F45409708F001C58FEF93E00E940A
:1037E0008D34025177E2C72E73E0D72E882369F11A
:1037F00080915F03877031F2F7018281882311F293
:103800008091B80382FDBECF82E00F900F900F90A1
:103810000F900F90DF91CF911F910F91FF90EF903C
:10382000DF90CF90BF90AF909F908F900C94B91580
:10383000C114F4E0DF06E1F2C6010E948D3481116B
:1038400001C001502FEFC21AD20A0111F1CF1C8220
:103850001B82BB24B3946AE0A62E86010F5F1F4F24
:10386000C6010E948D3489831A82882309F4C0CF4F
:103870009FEF980F933008F58A83B98232E0C30E28
:10388000D11CC8010E948D348B83882309F4B0CFEA
:103890008E010F5F1F4FF80180818823F1F2813084
:1038A00009F043C091818281913049F40E5F1F4F2E
:1038B0000E94391A0F5F1F4FEECF6801E9CF923097
:1038C00029F40E5F1F4F0E94BC19F4CF933029F4E6
:1038D0000E5F1F4F0E944419EDCF943019F00F5F17
:1038E0001F4FE8CF0E5F1F4F30E020E0B8016F5F41
:1038F0007F4FF80141818053990B8A30910550F038
:1039000021503109B8F28FE99FE00197F1F700C02B
:103910000000F6CFA29EF001A39EF00D11249C01A1
:103920002E0F3F1F842F8B01E1CF0E94BA1AC2CF06
:1039300081E00E94F21503C081E00E94AD150E9453
:10394000A21556CF82E0F5CF093AEDE51E07E9F062
:103950000A3AFDE51F0709F07EC4F701828188233A
:1039600091F00E9458128091450481608093450433
:1039700061E086950E94441B06C041E062E0F701C9
:1039800082810E94FD15D12C68C4F701D280DD2010
:1039900009F46CC08091B70382FBDD24D0F882FD6E
:1039A00004C081E90E94BC1958C447E0A42E42E03B
:1039B000B42E5AE0952EF5018491882321F38130AD
:1039C00009F050C06501FFEFCF1ADF0AF6018491BC
:1039D000813069F46501F2E0CF0ED11CF6018491CB
:1039E0000E94391A56012FEFA21AB20AE4CF823090
:1039F00049F46501F2E0CF0ED11CF60184910E94DA
:103A0000BC19F0CF833049F46501F2E0CF0ED11C30
:103A1000F60184910E944419E5CF843019F76501BD
:103A2000F2E0CF0ED11CF601249190E080E0F60187
:103A300031962053330B2A30310548F0019790F22C
:103A4000EFE9FFE03197F1F700C00000F7CF989E53
:103A5000A001999E500D1124C901840F951F249136
:103A60006F01E5CF0E94BA1A6501BCCF81E90E94BF
:103A70004419F3C3981709F4FDC32F5F3F4F3996DC
:103A80002530310509F0F1C387EE91E0FBC329EE43
:103A900031E0FEC3053F2CE5120709F465C008F4C8
:103AA0005FC027E245EE66EE063F8CE5180709F495
:103AB00021C4F7018281882309F43DC41092700467
:103AC0000330FDE51F0708F056C00A3F2CE512073A
:103AD00030F4C80182509C45449708F056C00E94BB
:103AE0002E119093B8038093B70301319CE5190719
:103AF00009F41FC108F09DC00930FCE51F0709F457
:103B000002C108F06AC005303CE5130709F4F3C0B0
:103B100008F050C003309CE5190709F4E2C008F032
:103B2000E6C08091B703816002301C4509F4DCC017
:103B30006091B7031091B80384E090E00E94A13433
:103B4000612F82E290E00E94A1340E942C1650CE98
:103B500027E245EE65EECEC326E241EE60EECAC333
:103B600027E245EE64EEC6C326E241EE62EEC2C332
:103B700028E241E0EFCF01363DE5130709F4AFCF6E
:103B8000053A8DE5180709F4AACF06312CE512078E
:103B900009F0DEC3809169038A7A91E009F490E02C
:103BA0009093FE028111EFC089E20E94A90B0E944E
:103BB000D10C1ECE8091B703806207302CE512072E
:103BC00009F492C08091B703806108301C4508F465
:103BD0008BC08091B703806487C00D308CE51807D7
:103BE00009F49BC098F48091B7038E7F0B30ECE50D
:103BF0001E0709F479C08091B7038C600C301C4516
:103C000008F472C08091B7038D7F6EC08091B703B6
:103C10008F7E0F302CE5120709F466C08091B70340
:103C2000877F00311C4508F45FC08091B7038F7D0A
:103C30005BC00D3F8CE5180709F477C050F50531DE
:103C4000ECE51E0709F47FC098F48091B703837FE9
:103C500003312CE5120709F447C008F46EC00E9436
:103C60002C169091B703892F97FB87F980583CC099
:103C70000B3F8CE5180709F442C008F052C0809150
:103C8000B80381600A3F1C4509F052CF8093B80306
:103C90004FCF0130FDE51F0709F461C090F480911A
:103CA000B8038C7F0F3F3CE5130781F390F18091BF
:103CB000B803982F909591708E7F892B90FB81F996
:103CC000E5CF01369DE5190709F44FC0053AEDE54A
:103CD0001E0709F451C002301D4509F029CF60E0EC
:103CE0003FC08091B70382608093B70321CF80915A
:103CF000B7038460F9CF8091B7038860F5CF8091D6
:103D0000B8038260C3CF0E942C168091B7038068ED
:103D1000EBCF8091B8038360B9CF8091B7038B7FDD
:103D2000E3CF8091B8038E7FB1CF8091B8038D7FB0
:103D3000ADCF8091B7038F7BD7CF0E942C16809197
:103D4000B7038F77D1CF8091B70382FB992790F982
:103D500021E0922790FB82F990FB83F9C5CF61E0C7
:103D60008EE090E00E94A134E3CE9091B703892FBA
:103D70008F7E94FF8061B8CF9091B703892F8E7F9B
:103D800090FF8160B1CF85E310CF85E3DEC2816013
:103D90008093450461E086950E94441B29CD44E848
:103DA0005BE16DE87BE10E94F40722CD4DE85BE129
:103DB00064E87BE1F8CF4DE252E164E272E1F3CFD7
:103DC0004CE052E168E172E1EECF44EF51E160E096
:103DD00072E1E9CF40E052E164EF71E1E4CF47E402
:103DE00052E166E372E1DFCF61E081E0D5CF64E0CC
:103DF00082E00E94971BFCCC6DE08BE0FACF67E17C
:103E00008EE0F7CF0E942C16EFEFF4E32CE0E150A8
:103E1000F0402040E1F700C000000E94D70781E099
:103E2000B7C280E0B5C2C8010E94CC0BD82EC1C277
:103E3000212F2F70D22E107F19F0D29490EFD9221B
:103E4000CC20B9F0DD2069F080E2800F883010F0DE
:103E5000811009C080916903D82AD09269030E9419
:103E6000D10C802F4AC080916803D82AD092680371
:103E7000F6CF802F0E944419DD2009F440C0005E77
:103E8000083010F0811004C08D2D0E94950B06C0E3
:103E9000D09480916803D822D09268030E94D10CFC
:103EA0002EC0312F3F70D32E107F103219F0D294D4
:103EB00080EFD822882089F081E0881609F478C044
:103EC000CC2009F482C0BB2009F478C0F7018581B9
:103ED00080FFC7CF8F70858371C02091B80322FF08
:103EE00044C0CC20E1F1DD2039F080916903D82A6B
:103EF000D09269030E94D10C80E00E94BC19E92D88
:103F0000E850FF0B349710F40E94D00FAA2009F458
:103F100039CC80915F0380FD35CCF7011282859505
:103F2000859585950E94F215C7010E94A51B809179
:103F30005F038595859585950F900F900F900F9055
:103F40000F90DF91CF911F910F91FF90EF90DF9035
:103F5000CF90BF90AF909F908F900C94AD1580E064
:103F60000E944419DD2059F28FCFCC20A1F090910E
:103F70006A038D2D892BB11003C00E94150DBFCF90
:103F8000E1E0BE12FACF22FDBACF981709F4B7CFFD
:103F900080936A03B4CFB11006C00E948F0B8D2DA1
:103FA0000E940E0DACCFF1E0BF1609F4A8CFF5CFFB
:103FB000CC2031F025E02B1508F4A1CF8D2DDDCFDD
:103FC00034E03B1508F49BCFEACFBB2041F3F9E383
:103FD0008F12FDC02FEF37EE83E02150304080403C
:103FE000E1F700C00000F3C0802FCC2029F00E9430
:103FF0006C090E94641583CF0E94AD08FACF812F0F
:10400000837089F5C1107BCF402F4295469547704C
:10401000440F440F802F8F70042E01C0880F0A9424
:10402000EAF7202F207104FF07C02FE030E001C025
:10403000220F4A95EAF720951695169513701230BF
:1040400069F050F430916B03113029F0822B8323F7
:104050000E94281654CF832B822BFACF282B8091D5
:104060006B038227F5CF8695CC2011F0812F8170CC
:10407000882309F444CF402F429546954770440F5A
:10408000440F802F8F70042E01C0880F0A94EAF726
:10409000202F207104FF07C02FE030E001C0220F65
:1040A0004A95EAF72095169516951370123069F027
:1040B00050F430917104113029F0822B83230E9437
:1040C0009E151DCF832B822BFACF282B8091710454
:1040D0008227F5CF1F70CC2029F0812F0E94F21586
:1040E000802F4BCF802F0E940E0D812F0E94AD1587
:1040F00006CF802F92EF8916A9F1981570F0E0EFA6
:104100008E16D1F0F1EF8F1691F0CC2009F45AC041
:10411000B110A7CE812F8F7129C023EF821649F1EC
:1041200034EF8312F2CF8091B80382FF2DC0812F2C
:104130008F71CC20D9F21AC0CC2079F084E08B1595
:1041400008F4DDCE1F7181E090E001C0880F1A9560
:10415000EAF7909171048927B2CF95E09B1508F496
:10416000CECEF0CF812F8F71C110C0CF0E94F2153B
:10417000C6CE80E0CC2009F4A2CF1F7181E001C03F
:10418000880F1A95EAF79BCFCC2089F01F71812FF9
:104190000E94F2158091B80382FD07C0E8E01E9FDF
:1041A000C0011124836080935F03812FDFCF81E002
:1041B0000E94B915F1E0FB1508F0A1CE82E00E9443
:1041C000B9159DCEBB2039F0893309F403CF802F78
:1041D0000E94441994CE812F8F7188CF0031FFE562
:1041E0001F0709F4A5CB01312FE5120709F4AACB6B
:1041F00080E20C33110520F4F801E55BFD4F80816E
:104200001F928F931F930F93F70180811F928F93BB
:1042100081811F928F9381EF91E09F938F931F92E3
:1042200087E18F9385E791E09F938F930E94E4311C
:104230000FB6F894DEBF0FBECDBF073A3DE51307BA
:1042400009F49BCB08F080CB42E061E0063A9DE5A3
:10425000190709F494CBDD24D39480917104409123
:104260006B03E7E8F2E030E020E09081811102CCBE
:10427000941303CC49E0429FC001439F900D112449
:1042800088579D4F2091B70322FD01CC2DEE31E0E0
:104290009F938F933F932F9383E092E09F938F930D
:1042A0001F9287E18F9385E491E09F938F930E9403
:1042B000E4310FB6F894DEBF0FBECDBFDD2009F4A8
:1042C00097CA033F3CE5130709F446CC08F0E2CB5C
:1042D000083D9CE5190709F43BCC093DECE51E07B8
:1042E00009F446CC073DFCE51F0709F0E2CB26E2C6
:1042F00041EE61EEC7010E94561A7ACA00313FE5CD
:10430000130709F419CB01318FE5180709F095CF90
:1043100082E013CB85E0DE01119601900D928A9523
:10432000E1F7F701228189819A8121113DCA0E941A
:10433000CC0B182F41CA0631FCE51F0709F072C0EB
:104340008091FE02811121CD89E20E949C0B2FCC2D
:104350000A352DE5120709F462CD58F401158CE5F4
:10436000180709F44FCD0E3D1C45A1F40E947012B0
:104370003FCA0B35EDE51E0709F453CD0C351D453D
:1043800049F48091B80382FB882780F991E089275E
:104390000E94D515F701828100811181882309F4DB
:1043A00042CDC8010E94BA10D82E682FC8010E94C1
:1043B000F50BB8018D2D0E94AD100E94240A8C01CE
:1043C000882EF701C280B580B2943FE0B32280917D
:1043D0005F038770C1F0AC2CCC20B1F0812F807FBF
:1043E000803421F080E2800F883068F08091B8033B
:1043F00082FD09C082E00E94B91580915F03877039
:10440000AA24A3948111A12C912E92942FE09222A0
:10441000FBE0F91508F473CDE92DF0E0EF51FB4C0A
:104420000C9474318091690382720C3C2CE5120764
:1044300009F4D5CC08F064C0063C9CE5190709F4E2
:10444000BACCE0F5033CFCE51F0709F4A8CC40F525
:10445000023C1C4509F09ECF8091450480FF97CC1B
:104460008E7F80934504609145047091460480914D
:104470004704909148040E943C110E94FA078091E1
:104480001F04816080931F043FEF80E792E031506A
:1044900080409040E1F700C000000E94F80DA8C9DC
:1044A000043C9CE5190709F481CC44E252E16DE239
:1044B00072E1053C1C4509F476CC6CCF093CFCE567
:1044C0001F0709F482CC70F4073C3CE5130709F49C
:1044D00077CC48E152E16CE072E1083C1C4509F4FC
:1044E00062CC58CF0A3CECE51E0709F473CC46E3D6
:1044F00052E167E472E10B3C1C4509F454CC4ACF0D
:10450000013D2CE5120709F473C998F40E3C8CE5C3
:10451000180709F46DC908F467CC0F3CECE51E07D9
:1045200009F465CC6AE085E0003D1C4509F461CCE6
:1045300031CF043D2CE5120709F461CC50F4023D63
:104540008CE5180709F458CC033D1C4509F450C903
:1045500021CF053DECE51E0709F44AC90D351D457F
:1045600009F446C917CF1F93CF93DF9380912C0393
:10457000807FA9F480912903882389F080915E03CC
:10458000D0912D036091270370912803A0912A03F5
:10459000B0912B03C62FC72316E0D81304C0DF91B8
:1045A000CF911F91089590E0109711F0CF3F19F42B
:1045B00001968770F2CF189F9001199F300D11243A
:1045C000F901E25DFC4F41814713F2CF4081461370
:1045D000EFCF42814111ECCF438154814A1B5B0BE9
:1045E000413E510528F780912C038F7080618093A4
:1045F0002C03F901ED5CFC4F80818F70806180831A
:1046000087E293E00E94A51BDF91CF911F910C944C
:10461000C20BAF92BF92CF92DF92EF92FF920F93B5
:104620001F93CF93DF93CDB7DEB761970FB6F894A2
:10463000DEBF0FBECDBF8C0185E0F801DE011D9607
:1046400001900D928A95E1F7F801E28087E2A82EA9
:1046500083E0B82E60912A0370912B0361157105D8
:1046600009F432C19091270340912803892F8423B4
:104670008F3F09F429C120813181C380D480F0901B
:104680002903F601E61BF70BFF2009F4E8C080912F
:104690002C03582F507FE13EF10508F0ABC05111BB
:1046A00077C0FE2C431321C092131FC0E1101DC020
:1046B0008F70806180932C03C5010E94A51B80919F
:1046C0002C03F80185838F2D61960FB6F894DEBF19
:1046D0000FBECDBFDF91CF911F910F91FF90EF9053
:1046E000DF90CF90BF90AF900895CD2829F0822F12
:1046F00083238F3F09F003C180E0F82FF170DF2E94
:1047000080FF3CC080915E0340912D0356E08413EE
:1047100015C02D873E878D859E850E94E910292F23
:1047200022952F702230F0F0243018F59F70F1F0B0
:10473000F8019581907FD1F4D12C1EC090E0589F54
:10474000F001599FF00D1124E25DFC4F6181361399
:1047500006C06081261303C06281E6120FC0019675
:104760008770D5CF9F7011F0882331F3805E883039
:1047700018F3C8010E94A51BFD2CA5CFEE2009F45B
:10478000A2CF80912C03816080932C03F12C9BCFCE
:10479000431306C0921304C0F801EE2009F479C057
:1047A000C8010E94F510882309F1EE20F9F08091EC
:1047B0002C03803270F02091270330912803388732
:1047C0002F831986DB86CA868C87CE0107960E94C6
:1047D000A51B86E0F801A7E2B3E001900D928A954F
:1047E000E1F70E94B322FF24F3946DCFC8010E9429
:1047F000A51BF9CF51110AC087E293E00E94A51BC7
:1048000086E0F50111928A95E9F7C0CF43130FC0F6
:1048100092130DC0E1100BC0F8018583C8010E94FE
:10482000A51B86E0F50111928A95E9F74CCFC801E6
:104830000E94F5108823D1F2EE20C1F280912C0362
:10484000803238F220912703309128033A8329835C
:104850001B82DD82CC828E83CE010196B8CFE13EF1
:10486000F105F8F6FE2CEE2009F243131FC0921357
:104870001DC080912C0380FD10C0982F907F69F09F
:10488000F8018583903F31F0982F907F905F8F7073
:10489000892B8583C8010E94A51B86E0F801A7E249
:1048A000B3E001900D928A95E1F70DCFC8010E9407
:1048B000F51081118ECF80912C03816080932C03A1
:1048C000C8010E94A51BFFCEEE2009F48FCFC801BE
:1048D0000E94F510F82E882309F488CF86E0F801AD
:1048E000A7E2B3E001900D928A95E1F7809127034A
:1048F000909128030E94E9100E94B322E4CE81E047
:104900008E25FBCE1F93CF93DF93CDB7DEB767978E
:104910000FB6F894DEBF0FBECDBF4B8B5C8B6D8B9B
:104920007E8B8F8B6111109268031A8A198A85E039
:10493000FE017396DE011D9601900D928A95E1F7B6
:1049400086E0FE013D96DE01179601900D928A9554
:10495000E1F7CE0107960E940923811112C086E07B
:10496000FE013796DE01119601900D928A95E1F7CE
:104970008A859B85892B29F088859F8189238F3F94
:10498000B1F516E080915E0390912D0389131DC04F
:1049900067960FB6F894DEBF0FBECDBFDF91CF9103
:1049A0001F91089596E0929FD001939FB00D11241E
:1049B000A25DBC4FFE01319601900D929A95E1F7F0
:1049C00080932D030E94C20BDCCF819FC001112474
:1049D000825D9C4F0E9409238823D1F280915E035F
:1049E00090E001968770992780935E03CBCF20914A
:1049F0002D0330E0C90101968770992740915E032D
:104A00004817190679F60E942C1610922D03109261
:104A10005E0386E0E7E2F3E0DF011D928A95E9F7A5
:104A2000B0CF7F928F929F92AF92BF92CF92DF9240
:104A3000EF92FF920F931F93CF93DF93CDB7DEB723
:104A400068970FB6F894DEBF0FBECDBF8E010F5F23
:104A50001F4F80E1D8011D928A95E9F786EBE82E79
:104A600082E0F82ED12CC12CAA24A394B12C24ECE2
:104A7000822E22E0922EF70181917F018F3F09F46F
:104A800043C0F894E82FE295EF70F0E021A18F7019
:104A9000A50102C0440F551F8A95E2F7CA01922F63
:104AA000982B91A392A18095892382A30E94C80983
:104AB00000C0EEEBF2E0712C31E021912F3F09F4C0
:104AC0007AC0A22FA295AF70B0E090968C9190E042
:104AD0002F7002C0959587952A95E2F780FD6BC0EF
:104AE000832F782A330F8E169F0639F7F7013197F7
:104AF00080818F3F11F00E94CA0950EA5A95F1F760
:104B0000F801EC0DFD1D70828FEFC81AD80AA8E0DD
:104B1000CA16D10409F0AFCF40E150E0B80185EAF0
:104B200093E00E94CE317C01892B41F080E1F801B5
:104B3000A5EAB3E001900D928A95E1F71091B603D2
:104B4000E114F104D1F181E080936E030E945815C5
:104B500090936D0380936C0380916C0390916D032F
:104B60000E944915059778F0A5EAB3E0E12FF0E03F
:104B7000E650FC4F8DEA93E02D9121938A179B0715
:104B8000D9F710926E0381E090E0EF28D1F068969B
:104B90000FB6F894DEBF0FBECDBFDF91CF911F914E
:104BA0000F91FF90EF90DF90CF90BF90AF909F90CC
:104BB0008F907F90089580E094CF80916E03811153
:104BC000CBCF0E94AD0FF82EE091B603882309F4F5
:104BD00070C06E01B1E1CB0ED11C88E0D6011D92F0
:104BE0008A95E9F70E2F10E006501C4F8091A00324
:104BF0008A3060F54FE953E1B601C8010E94690FA0
:104C0000882399F14AED52E1B601C8010E94690F6B
:104C1000882359F145E353E1B601C8010E94690FA9
:104C2000882319F11092A0038091B50390E048E029
:104C300050E0B60186509C4F0E94CE3121E0209377
:104C40007503892B49F5F12C8F2DA1CF80916F032E
:104C5000909170030E944915843F914058F68091CD
:104C60007503811112C080E092CF8091A0038F3F25
:104C700029F08F5F8093A0038A30B0F20E9458150C
:104C80009093700380936F03EACF88E0F60111924E
:104C90008A95E9F710927503A091B503B0E0A6508C
:104CA000BC4F88E0FE01719601900D928A95E1F764
:104CB000CBCFF0E0E650FC4FF89488E0A8E8B3E0F2
:104CC00001900D928A95E1F788E893E00E94300602
:104CD000809387030E94C809F894C0909003D090F5
:104CE0009103E0909203F09093038091710390916F
:104CF0007203A0917303B0917403C816D906EA0633
:104D0000FB06D1F0C0927103D0927203E09273035C
:104D1000F09274030E94AD0F81110EC00E94E8074B
:104D2000C61AD70AE80AF90AC092A103D092A203D0
:104D3000E092A303F092A4030E94C809F894809122
:104D40009B03882379F180FF0DC08091940380FF3D
:104D50002CC09091450491609093450460E0869545
:104D60000E94441B80919B0381FF09C020E0409179
:104D7000970360919603809195030E944E11809154
:104D80009B0382FF06C080919A03882389F00E94CA
:104D9000291B80919B0383FF03C081E080931A0449
:104DA00010929B030E94C8095ECF0E94520FDACF77
:104DB0000E94FA07EECF1F921FB61F9211248F9305
:104DC0009F93AF93BF9380915204811113C0809140
:104DD000530490915404A0915504B0915604419607
:104DE000A11DB11D8093530490935404A0935504C6
:104DF000B0935604BF91AF919F918F911F901FBEAA
:104E00001F901895CDB7DEB7CC54D1090FB6F894E2
:104E1000DEBF0FBECDBF84B7877F84BF0FB6F894C7
:104E2000A895809160008861809360001092600076
:104E30000FBE80E890E00FB6F894809361009093E5
:104E400061000FBE85B7806885BF85B7806885BF64
:104E500086EC99E09093F5028093F4020E94470655
:104E60000E9412078091E20084608093E2007894AF
:104E7000809164048823A1F01091E9001F70909143
:104E8000EC00892F817090FD80E8182B1092E900CA
:104E90008091E80083FD0E9437161F701093E9008F
:104EA00082E084BD93E095BD9AEF97BD80936E003C
:104EB0001092A1031092A2031092A3031092A403D4
:104EC0000E941511811102C00E9478100E94AD0F3E
:104ED0008093200180912001882309F46DC01092F5
:104EE0009F018CE08093A0010E94AD0F81110E9470
:104EF000DD2F809120018091200198E0811190E0C8
:104F00009093B60388E0891B8093B50306EB12E00B
:104F10004EEBE42E42E0F42ED8018D918D018F3FAF
:104F200011F00E94CA09E016F106B1F70EEB12E08B
:104F300034ECE32E32E0F32EF80181918F018F3FA4
:104F400011F00E94CA09E016F106B1F780E1EAEF1C
:104F5000F3E0DF01282F1D922A95E9F7E5EAF3E057
:104F6000DF011D928A95E9F70E944114811102C068
:104F70000E94701282E090E00E948D348093BC0306
:104F80000E942E119093B8038093B7030E941125BD
:104F9000EFE3FCE93197F1F700C000000E94112512
:104FA0008091FA0380FF0EC06FEF7FEF90E080E00A
:104FB0000E94BF340E94D7078CE080939F0110921B
:104FC000A00192CF83E090E00E948D340E942816C9
:104FD0001092F50380E8809372040E94752E6DE0B4
:104FE00070E082E292E00E94370D892BE9F5809112
:104FF000F50363E070E081FD72C28FE192E00E94F0
:10500000370D892B89F56DE070E08FE092E00E940A
:10501000370D892B49F50E94E807605A75418F4F7B
:105020009F4F60934A0470934B0480934C04909379
:105030004D04E5E7F4E080E092E0DF019C011D9281
:1050400021503040E1F7F0937C06E0937B068FEF30
:105050009FEF909374048093730481E080934F04D6
:1050600080934E041092F6038091B903811138C0E9
:105070000E944114811104C00E9470120E945812B3
:1050800088E090E00E949534609345047093460454
:10509000809347049093480480911F048360809319
:1050A0001F046E7F71F40E94581288E090E00E9405
:1050B000953460934504709346048093470490931D
:1050C00048040E9401080E94FA078091450480FF6D
:1050D00004C060E086950E94441B81E08093B90380
:1050E0000E94AD0F811102C00E94E02F81E291E089
:1050F000909351048093500428E1822E912C80914A
:105100006404FF24F39400E112E1853009F432C213
:105110000E941125D82E81110E94E8079AEF492E8E
:1051200093E0592EEDEBF3E0D20110E000E0B02E59
:10513000ED9081918E1509F43DC2C12CFF24F394AA
:105140008E25982F9F2109F430C20E94AD0F88232D
:1051500019F12296CFAE22972396BFAE2397EF2068
:1051600081E009F480E024968FAF24970E945815BF
:105170008160782F26969FAF8EAF269722964FADEF
:10518000229723965FAD239724966FAD249726969A
:105190008FAD26970E948224F801E354FC4F808152
:1051A000F826F0820E94AD0F80911E04882309F436
:1051B00064C080911D04E0914504E695E81BE093EE
:1051C0001904823009F01DC2F0E0EB5CFD4FE49160
:1051D0000E2F10E086E2E82E8FE0F82E80911A0460
:1051E000882361F010921A040E94201B90931804E7
:1051F0008093170410921C0410921B040E94201B21
:10520000E0911704F09118049C012E1B3F0B2F3FD7
:105210003F4798F52091CF032223B1F01092CF039E
:105220002091CD033091CE03821B930B8F3F9F477C
:1052300058F4205D3A483093CE032093CD038091FB
:105240001F04886080931F04A0901B04B0901C046E
:105250000E0F1F1F109318040093170487E194E0AA
:10526000F701099580911B0490911C04892B29F466
:10527000AB2819F081E08093CF0380914F048823FD
:1052800051F18091F7039091F8030E944915C2975C
:1052900008F0D9C1209173043091740421153105AF
:1052A00009F080C280914E048823A9F00E94E8078B
:1052B00000914A0410914B0420914C0430914D040C
:1052C000601B710B820B930B6F3F7F4F8F4F9F477C
:1052D00010F40E94670DD1100E94820D86E0E1E17A
:1052E000F4E0DE01119601900D928A95E1F7E090CD
:1052F0001304F090140410911504009116041092F8
:1053000013041092140410921504109216048E2D9A
:105310008F2909F44BC080910F04909110040E94D2
:105320004915AC0190910B0421E030E0911102C0CD
:1053300030E020E024173507C8F59F3F19F09F5F44
:1053400090930B04EE2059F00E9448099FEF1E1421
:105350000CF491E0899F802D112480931304FF2089
:1053600059F00E9448099FEF1F140CF491E0899FA7
:10537000802D112480931404309113043323B1F051
:1053800020911404222391F045EB3403C001112431
:10539000992309F4DFC29093130445EB2403900191
:1053A0001124332309F4DAC230931404812F802BA3
:1053B00009F448C080910D0490910E040E94491593
:1053C0009C0190910A04992309F48AC4213531057E
:1053D000C8F19F3F19F09F5F90930A04112359F081
:1053E0000E9426099FEF11160CF491E0899F802DF1
:1053F000112480931504002359F00E9426099FEF81
:1054000010160CF491E0899F802D112480931604CE
:10541000309115043323B1F020911604222391F02A
:1054200045EB3403C0011124992309F49BC29093E6
:10543000150445EB240390011124332309F496C28B
:10544000309316048091130490911404892B909149
:105450001504892B90911604892B11F00E94641574
:1054600086E0FE013196A1E1B4E001900D928A95AB
:10547000E1F70E94D00F9091F90389138093F9030B
:1054800080916404843009F03ACE83E08093E9008F
:105490008091E80082FF33CE8091E80090E085FFA4
:1054A0000CC00E94660630E2E32EF12C8E010F5FE5
:1054B0001F4F882309F468C291E08091E8008B7740
:1054C0008093E800992309F41ACEE981E150E33191
:1054D00008F0BEC2F0E0E351FB4C0C9474318CE157
:1054E00092E08DCD80916404843009F433C00E9431
:1054F000FA078091BB03811109C0F092BB03809130
:10550000450481708093BA030E94520F0E94670D78
:105510001092520430E40FB6F894A895809260007F
:105520000FBE3093600083B7817F846083BF83B7F1
:10553000816083BF7894889583B78E7F83BF0FB6D1
:10554000F894A89580916000886180936000109223
:1055500060000FBE80916304882361F00E941125D2
:10556000EAEFF3E0819181119CC38AE094E08E1709
:105570009F07C1F780916404853009F4B3CF0E947E
:105580002C160E94D00F1092BB038091BA0388237F
:1055900049F08091450481608093450460E08695E0
:1055A0000E94441B0E94291BB3CDC394FF0C96E0BC
:1055B000C912C7CD0F5F1F4F0031110509F0B7CDDC
:1055C0008FEF27968FAF279728968FAF289729962A
:1055D0001FAE29970E9458158160782F2B969FAF98
:1055E0008EAF2B9727964FAD279728965FAD2897BC
:1055F00029966FAD29972B968FAD2B970E94822409
:10560000D1CD853061F4E695F0E0EE5CFD4FE4919C
:105610000E2F10E0BDECEB2EBEE0FB2EDFCD00ED3B
:1056200017E0F9EFEF2EF7E0FF2E8B3009F0D6CD23
:10563000F0E0E15DFD4FE4910E2F10E0A3E4EA2ECF
:10564000AEE0FA2ECBCD0E9458159093F8038093CC
:10565000F70385E794E090937C0680937B060E9495
:10566000AD0F882309F490C0309145048091460421
:1056700090914704209148044091D00343130CC0FB
:105680004091D103841308C04091D203941304C005
:105690004091D303241799F1269526952695969542
:1056A00096959695869586958695432F469530FDD9
:1056B00066C03EE21F922F931F929F931F928F937B
:1056C0001F924F931F923F9381E292E09F938F939B
:1056D0001F9287E18F938DE291E09F938F930E94B9
:1056E000E43185E0E5E4F4E0A0EDB3E001900D9253
:1056F0008A95E1F70FB6F894DEBF0FBECDBF8DE2FD
:1057000091E00E941F0D85E491E00E941F0D0E9410
:10571000D00F22E032E080FF02C023E132E042E01D
:1057200052E081FF02C047E152E082FD2AC082E0E0
:1057300092E09F938F935F934F933F932F938CE3CC
:1057400092E09F938F931F9287E18F938DE591E075
:105750009F938F930E94E4318DE591E00E941F0D8D
:1057600085E791E00E941F0D0FB6F894DEBF0FBED3
:10577000CDBF80914F04882309F494CD8BCD3AE2BC
:1057800099CF8CE192E0D5CF80E4E7EAF1E0DE0149
:10579000119601900D928A95E1F7CE0101960E9433
:1057A0001F0DE7CF8091F60361E070E081117ACDA3
:1057B000082F10E07B01082E02C0EE0CFF1C0A949B
:1057C000E2F7A9014E215F21452B09F447C09091D2
:1057D000F50390FD45C08295880F807680938F01F8
:1057E0009801369527953695279520939201815EED
:1057F000809390011092930124E630E047E050E05E
:105800006DE871E088E70E94242F892B09F04ACDCA
:10581000A80175E0440F551F7A95E1F78091F503D3
:1058200080FD2CC04B585B4F04E610E020E230E0D6
:1058300060E488E70E944B2F892B09F033CD0E944A
:10584000820DE094F0948091730490917404E822A6
:10585000F922F0927404E092730424CD8F5FA8CFF4
:10586000880F880F880F80938F0110929201895FB3
:105870008093900183E080939301BECFE5EDF3E048
:1058800080E2DF011D928A95E9F7E8ECF2E02D96BF
:10589000FFAFEEAF2D9704EC12E02D96AEADBFAD8D
:1058A0002D972D912D96BFAFAEAF2D97F80121907A
:1058B0008F01240E352E311CC1018B589B4F1C01CA
:1058C000E22FF0E0EB52FC4F30E020E067E0662E84
:1058D000621ACC24C394022E01C0CC0C0A94EAF7BD
:1058E000510190E0D5018D915D018C21662D691BE0
:1058F0006770762E062E000C770BB82F01C0BB0FF9
:105900007A94EAF77B2E7195619571096770772714
:1059100001C086956A95EAF7782A8081782A708294
:105920009F5F9830F9F62F5F3F4F31962830310551
:1059300069F6ECECF2E02D962EAD3FAD2D97E21717
:10594000F30709F0AACF04E610E020E230E045EDCD
:1059500053E06ECF81E0809313041FCD81E08093EC
:10596000140424CD81E08093150463CD81E08093FD
:10597000160468CD8091F100D8018D938D01B1E0BE
:10598000EB1AF10809F498CD8091E80085FDF2CF7B
:105990008091E8008B778093E8000E946606882358
:1059A00099F38ACD1A8289E08B8311C08A81823073
:1059B00009F48DC1833091F1813009F049C00E9412
:1059C000E8070E947A316B837C838D839E8380916C
:1059D0006404843009F093CB1091E9001F7090911A
:1059E000EC00892F817090FD80E8182B82E0809375
:1059F000E9008091E80080FF0DC050E040E060E2E7
:105A000070E0CE0101960E9497068091E8008E77A3
:105A10008093E8001F701093E90071CBFE0133966C
:105A2000D2018D912D018193BAE04B16B4E05B0653
:105A3000B9F7CDCF8A81823059F46B817C818D8119
:105A40009E810E947A3186E290E00E94A134BFCF0D
:105A50008FEF8983BCCF4C816B818A810E94871034
:105A60009827892798279E838D83B1CFED80FE806C
:105A7000FE24EF24FE248A810B81ECE00E9F80013E
:105A80001124F0EC8F9F000D111D11248C8190E0EA
:105A9000880F991F080F191F6F2DC80187960E9444
:105AA000A1346E2DC8018896D0CF0E940B108FCFE5
:105AB0008A818138C1F060F4803809F088CF20E015
:105AC0004B8160914704809146040E944E117FCF24
:105AD0008238E9F0833809F07ACF20E04091480419
:105AE0006C818B81F2CF60E08B810E94441B8B81A3
:105AF000811103C00E94520F6ACF809145048160DA
:105B00008093450460E086950E94441B60CF8B81A2
:105B1000809349045CCF8A81813899F030F48038D1
:105B200009F055CF809148043FCF823891F08338F7
:105B300009F04DCF809146048B83809147048C837C
:105B400046CF8091450480FF02C086952DCF80E02E
:105B50002BCF8091490428CF609145047091460471
:105B600080914704909148040E943C1130CF80E11D
:105B70008A832DCF1A8289ED17CF0A811B811027C6
:105B8000012710279E012F5F3F4F6901EC80C9015B
:105B90008E0D911D7C01C801895D9C4FEC14FD04A4
:105BA00009F415CF093D110558F40E948D34D60132
:105BB00014968C930F5F1F4FFFEFCF1ADF0AEBCFC6
:105BC000F6011482F7CF0A811B81102701271027C5
:105BD0009E012F5F3F4F6901EC80E00EF12EF11C1A
:105BE000C801895D9C4FE016F10609F4F0CE093D2D
:105BF000110528F4D60114966C910E94A134BFEFD0
:105C0000CB1ADB0A0F5F1F4FEBCF0E94FB0FDFCEDB
:105C100084E0AECF0A811B81102701271027FE01E7
:105C200031966F01EC809F012E0D311D7901C80165
:105C30008796EC14FD0409F4CACE011533E013076E
:105C400058F40E948D34D60114968C930F5F1F4F29
:105C5000FFEFCF1ADF0AEBCFF6011482F7CF0A81EC
:105C60001B811027012710279E012F5F3F4F6901DD
:105C7000EC80E00EF12EF11CC8018796E016F106CB
:105C800009F4A5CE011533E0130728F4D6011496C4
:105C90006C910E94A134BFEFCB1ADB0A0F5F1F4F3C
:105CA000EBCF09BD19BD09B400FEFDCF8091D8002E
:105CB0008F7D8093D8008091E00082608093E00027
:105CC0008091E00081FDFCCF0E942C1653CC86E22F
