:100000000C945A020C9477020C9477020C947702A9
:100010000C9477020C9477020C9477020C9477027C
:100020000C9477020C9477020C94B71D0C948B1EE1
:100030000C949B180C9477020C9477020C94770222
:100040000C9477020C9477020C9477020C9477024C
:100050000C9477020C9422190C9477020C9477027A
:100060000C9477020C9477020C9477020C9477022C
:100070000C9477020C9477020C9477020C9477021C
:100080000C9477020C9477020C9477020C9477020C
:100090000C9477020C9477020C9477020C947702FC
:1000A0000C9477020C9477020C9477022B001400C6
:1000B0001A000800150017001C0018000C001200A0
:1000C00013002A00290004001600070009000A0096
:1000D0000B000D000E000F0033003400E1001D0086
:1000E0001B00060019000500110010003600370043
:1000F00038002800B85DE000E200E300B65D2C00A7
:100100002C00B75D5000510052004F002B0014002E
:100110001A00090013000A000D000F0018001C004F
:1001200033002A00290004001500160017000700FC
:100130000B00110008000C0012003400E1001D004B
:100140001B000600190005000E00100036003700E5
:1001500038002800B85DE000E200E300B65D2C0046
:100160002C00B75D5000510052004F002B003400AE
:100170003600370013001C0009000A0006001500B5
:100180000F002A00290004001200080018000C00CB
:1001900007000B001700110016003800E1003300C3
:1001A00014000D000E001B00050010001A001900BD
:1001B0001D002800B85DE000E200E300B65D2C0001
:1001C0002C00B75D5000510052004F0035021E0256
:1001D0001F022002210222022302240225022602FB
:1001E00027022A004C003A003B003C003D003E0044
:1001F0003F002D022E022F0230023102010040008A
:1002000041004200430044004500320264024A00BB
:100210004D0001000100010001000100010001008A
:1002200001000100AB00AA00A900AE0035001E00CD
:100230001F002000210022002300240025002600AA
:1002400027002A004C003A003B003C003D003E00E5
:100250003F002D002E002F00300031000100400033
:1002600041004200430044004500320064004B005E
:100270004E00010001000100010001000100010029
:1002800001000100AB00AA00A900AE001E001E0084
:100290001E001E001E001E001E001E001E001E006E
:1002A0001E001E00000014001A00080015001700B0
:1002B0001C0018000C00120013002F0000000400A6
:1002C0001600070009000A000B000D000E000F00C9
:1002D00033003400B95D0000000006001900000082
:1002E0000000110010000000000000000100005C90
:1002F000015CC35CC45CC65CC75CC85CC95CCA5CAE
:10030000CB5C4C0001000100295C1D5C1E5C135C91
:100310000A5CB25DB35DB45DB55D010001002B5CAC
:100320002A5C265C275C2C5C2D5C0100010001002E
:1003300001000100010001000100010001000100B5
:100340000100010001000100010001000E03430053
:100350006F006E0074007200610000000E03430025
:1003600061007200740065006C0000000403090461
:1003700009023B00020100A0FA0904000001030188
:100380000100092111010001224000070581030835
:10039000000109040100010300000009211101000E
:1003A0000122B600070582032000011201000200AD
:1003B0000000085443010001000102000105010989
:1003C00002A10185020901A10005091901290815E9
:1003D00000250195087501810205010930093115D3
:1003E00081257F95027508810609381581257F953D
:1003F0000175088106050C0A38021581257F9501D3
:1004000075088106C0C005010980A1018503190195
:100410002AB700150126B700950175108100C005A7
:100420000C0901A101850419012AA002150126A0C9
:1004300002950175108100C005010906A10185061C
:10044000050719E029E715002501950875018102C6
:100450000507190029EF1500250195F075018102A6
:100460000508190129059505750191029501750386
:100470009101C005010906A101050719E029E71549
:100480000025019508750181029501750881010516
:1004900007190029FF150026FF0095067508810041
:1004A0000508190129059505750191029501750346
:1004B0009101C00011241FBECFEFDAE0DEBFCDBF37
:1004C00011E0A0E0B1E0EEE1F2E402C005900D928F
:1004D000AA38B107D9F722E0AAE8B1E001C01D921D
:1004E000A13AB207E1F70E943F120C94EF200C945E
:1004F0000000CF93825B9D45C1E08830910558F4A0
:10050000FC01EF50FF4DDB011296CC910C9446207C
:1005100080E0C11106C08C2FCF910895CC23D9F370
:1005200081E00E942D03C0E0F6CF82E0CC2399F356
:10053000F8CF83E0CC2351F00E94590846E064E0F4
:1005400083E00E946403EFCF84E0F4CF0E94690847
:1005500046E064E083E00E946403DDCF85EECC23B7
:1005600019F00E945D04DFCF0E94EE04D4CFCC23AB
:1005700091F284E00E94690883E00E94690886E0A5
:100580000E94690885E00E9459080E94300D81117F
:1005900002C00E94DF0D0E944B0D90937F02806885
:1005A00080937E0280917E0290917F020E94590D7D
:1005B000BACFCC2309F4AFCF85E00E946908B3CF4E
:1005C00081E008950E947902089508950E94E5024D
:1005D0000895A5E0B0E0EFEEF2E00C945B204983D3
:1005E0005A833091910189819A81311119C0662312
:1005F00099F0222389F00E941F09182F682F898102
:100600009A810E94FB0869817A81812F0E94A40F40
:100610002596E3E00C9477200E940D09182FF3CF64
:100620000E941F0969817A81F1CFFC01262F408148
:1006300051816281738184810E94E902089581E081
:100640000895CF93DF93EC0160E00E941503BE0193
:100650000E94E602DF91CF910895CF93DF93C1E02E
:10066000D0E002C0CC0FDD1F8A95E2F78C2F0E94EC
:10067000450DCE010E941B08DF91CF910895E1E066
:10068000F0E0DF0102C0AA0FBB1F6A95E2F7BD01CF
:10069000DF0102C0AA0FBB1F4A95E2F7AD01462B4E
:1006A000572B02C0EE0FFF1F2A95E2F79A0128236D
:1006B00039232417350719F48E2B9F2B0895E095C5
:1006C000F0958E239F230895242F462F682F809125
:1006D000AA019091AB010E943F030E943F08089538
:1006E0000E94E41008950E94E810089508950E9461
:1006F000C6070E9476032FEF84E39CE021508040E0
:100700009040E1F700C0000008950E9477030E9426
:10071000461908950E9477030E94571908950F9370
:100720001F93CF93DF938C0161E00E941503EC01CE
:10073000B8010E94E202811106C080E0DF91CF91F2
:100740001F910F910895B801CE010E94CC16882305
:10075000A1F3B801CE010E94D014882371F3B8012F
:10076000CE010E943E16882341F3F801828188233E
:1007700061F0CB35FDE5DF0701F158F4C115ECE57B
:10078000DE0791F0CF3DDC4591F0C8010E94E00208
:10079000D5CFCD358DE5D80769F090F0C83ADD4565
:1007A000A1F70E948A03C9CF0E948503C6CF0E9489
:1007B000DF0DF7CF0E94170DE8CF0E94210DE5CF86
:1007C0000E94250DE2CF0E9477180E940004089530
:1007D0000E9404040E947C18089508950E94ED036D
:1007E000089581E008950E94F10308950895CF933C
:1007F000C82F0E94EE038C2F0E94F303CF9108951F
:1008000080E00E94F70308950E9428170E94F703D2
:100810000895CF930E942817C82F80918C018C17C0
:1008200079F0C0938C010E94071960938D01709339
:100830008E0180938F01909390018C2F0E94F7037B
:10084000CF910895ABE0B0E0E8E2F4E00C945C20D6
:100850004F83588769877A878B8761110E94620C62
:100860001E821D8285E0FE013796DE011196019001
:100870000D928A95E1F78C819D81892B61F44981E4
:100880005A816B817C818D819E810E948B0B2B967E
:10089000E2E00C94782089819A8189238F3F79F353
:1008A000CE0101960E941F038111E9CFF0CFFC0118
:1008B000808191810E9451090895CF93C82F882388
:1008C000C9F08238C9F40E94281781FD13C089E35A
:1008D0000E941A0C0E94830C2FEF87EE93E02150A8
:1008E00080409040E1F700C0000089E30E94220CA4
:1008F0000E94830CCF9108958338A1F40E94281799
:1009000080FDF8CF83E50E941A0C0E94830C2FEF24
:1009100081EE94E0215080409040E1F700C000005B
:1009200083E5E4CF8438A1F40E94281782FDE2CF4A
:1009300087E40E941A0C0E94830C2FEF81EE94E052
:10094000215080409040E1F700C0000087E4CECF06
:100950008CEF8C0F813A90F46C2F80910001909174
:1009600001010E949D17882329F08C2F0E94220CE0
:100970000E94830C8C2F0E941A0CBACF80E28C0F3D
:10098000883048F4C77081E001C0880FCA95EAF743
:100990000E94450CADCFEBE5EC0FE33040F4F0E006
:1009A000EB5BFE4F808190E00E945D17A3CFE8E5EE
:1009B000EC0FE73150F4F0E0EE0FFF1FE95EFE4F61
:1009C000808191810E94731795CFCD3E08F492CF1C
:1009D0008C2F0E94C3120E9496138CCF882309F497
:1009E00055C0823879F40E94281781FF4FC089E3EF
:1009F0000E941A0C0E94830C89E30E94220C0E9420
:100A0000830C0895833859F40E94281780FF3EC054
:100A100083E50E941A0C0E94830C83E5EECF843894
:100A200059F40E94281782FF31C087E40E941A0CF3
:100A30000E94830C87E4E1CF9CEF980F913AE8F293
:100A400090E2980F983050F4877091E001C0990FB0
:100A50008A95EAF7892F0E944B0CD1CF9BE5980F1E
:100A6000933028F490E080E00E945D17089598E5A7
:100A7000980F973128F490E080E00E947317089552
:100A80008D3E20F00E941D130E94961308951F931F
:100A9000CF93DF93182FEB010E945D04209739F468
:100AA000812F0E94EE04DF91CF911F9108958FE96D
:100AB0009FE00197F1F700C000002197EFCF70E0B1
:100AC00060E0893311F460E570E00E944705089505
:100AD000882321F00E94450C0E94830C08958823EE
:100AE00021F00E944B0C0E94830C0895B0E0A0E01E
:100AF000ECE7F5E00C9455206C01D62FC72FFC01D4
:100B00001281F580F2949FE0F9220E943B0CE82EBE
:100B10008823B9F0E12E1123A1F08C2F807F80343F
:100B200021F080E28D0F8830D0F080917F0282FF2B
:100B300016C082E00E94E60C0E943B0C91E0E82E79
:100B4000E926BC2EB2948FE0B822FBE0FB1508F436
:100B500068C0EB2DF0E0E750FF4D0C944620E12CEF
:100B6000F0CF0C2F0F70C07F11F00295007F112382
:100B700099F0002359F080E28D0F883010F0D111E8
:100B800007C0802F0E94450C0E94830C8D2F41C00E
:100B9000802F0E94550CF8CF8D2F0E94EE04002369
:100BA00009F43FC080E28D0F883010F0D11104C0ED
:100BB000802F0E944B0C03C0802F0E945B0C0E9470
:100BC000830C2FC00C2F0F70C07FC03211F0029524
:100BD000007FDD2381F0D13009F463C0112309F4D3
:100BE0006DC0FF2009F463C0F601858180FFCECF80
:100BF0008F7085835CC080917F0282FD33C011239A
:100C000059F0002329F0802F0E94450C0E94830C8C
:100C100080E00E945D0405C080E00E94EE040111A6
:100C2000C7CFEB2DE850FF0B349720F40E94281714
:100C30000E94F703EE2089F00E94370C80FD0DC062
:100C4000F60112820E94310C0E945908C6010E94CE
:100C500086070E94310C0E946908CDB7DEB7E9E033
:100C60000C947120112389F0F11006C00E94650CCC
:100C7000802B0E946805D5CF21E0F212F7CF0E94A9
:100C8000650C802B0E946C0CCCCFF11006C00E942A
:100C9000790C802F0E946F05C4CF31E0F31609F262
:100CA000F6CF112331F085E08F1508F4BACF802FED
:100CB000E0CF94E09F1508F4B4CFEBCFFF2049F3C9
:100CC000D93349F4FFEF27EE33E0F15020403040B4
:100CD000E1F700C000008D2F0E94EE04A2CF8C2F00
:100CE00086958695837069F0813009F09ACF8D2FB3
:100CF0009C2F9370111102C090E080E00E94731746
:100D000090CF8D2F9C2F9370111102C090E080E046
:100D10000E945D1786CF8D2F112329F00E94C312E8
:100D20000E9496137ECF0E941D13FACF8C2F8370E2
:100D3000A1F5111176CF4D2F429546954770440F7E
:100D4000440F2D2F2F7030E0042E02C0220F331FCE
:100D50000A94E2F790E080E0D4FF09C08FE090E0D1
:100D600002C0880F991F4A95E2F780959095C69525
:100D7000C695C370822B932BC23049F058F4C13012
:100D800019F00E9427084DCF0E941E084ACF0E94EA
:100D9000300847CF0E941B0844CF8695112311F0DD
:100DA0008C2F8170882309F43CCF4D2F42954695B6
:100DB0004770440F440F2D2F2F7030E0042E02C0D7
:100DC000220F331F0A94E2F790E080E0D4FF09C0BD
:100DD0008FE090E002C0880F991F4A95E2F7809556
:100DE0009095C695C695C370822B932BC23049F05F
:100DF00058F4C13019F00E94940813CF0E948B0858
:100E000010CF0E949D080DCF0E943F080ACFCF70DF
:100E1000112329F08C2F0E9459088D2F2ACF8D2F56
:100E20000E946F058C2F0E946908FBCED23F51F1C2
:100E300060F4D03FB9F0D13F81F0112309F449C0EB
:100E4000F110A4CE8C2F8F7121C0D33F11F1D43F6C
:100E5000A1F780917F0282FD26C08C2F8F71112314
:100E600011F314C0112349F084E08F1508F4D9CE92
:100E70008C2F8F710E947B08D4CE95E09F1508F4CB
:100E8000D0CEF6CF8C2F8F711111CDCF0E94590883
:100E9000C8CE112329F08C2F8F710E944D08C1CE2E
:100EA0000E944808BECE112349F0CF718C2F0E94BA
:100EB000590863E08C2F0E94C80CB3CE81E00E94D9
:100EC000E60CE1E0EF1508F0ACCE82E00E94E60C03
:100ED000A8CEF110F5CE8C2F8F71A5CF0F931F9355
:100EE000CF93DF93EC01688179818A810E945C094C
:100EF0008C010E94A6080E941A08B801CE010E9427
:100F00007605DF91CF911F910F910895CF93DF93D5
:100F1000EC018B819C81892B29F08881998189231F
:100F20008F3F51F4DF91CF910895CE010E946E075B
:100F3000CE010E942103F6CFCE010E948F038111C2
:100F4000F4CF0E943B0C882369F38A81882351F3F4
:100F500080917F0282FFE6CF82E00E94E60CE2CF22
:100F600090E080E00E945D1790E080E00E9473179F
:100F70000E94620C0E94830C0E94B2130E9496137E
:100F800008950E942A0C0E94B00708950E94520CF6
:100F90000E94C107089592959F70963091F058F481
:100FA000925F9F70923058F4803F19F030F4883E81
:100FB00030F481E008959A5FF4CF843FD1F380E06C
:100FC0000895883EB0F3813FD1F7F3CFFC018381D0
:100FD0009481892B29F08081918189238F3F11F49D
:100FE00080E00895808191810E9451090E94CB0781
:100FF0000895A5E0B0E0EFEFF7E00C945C202596B3
:10100000E2E00C947820A6E0B0E0E9E0F8E00C948F
:101010005C202696E2E00C94782008950E940D084A
:1010200008950E940E089093AD018093AC010E9438
:10103000B007089508950E94110808952091AC0109
:101040003091AD01822B932B0E94110808952091BD
:10105000AC013091AD01822393230E9411080895C1
:101060002091AC013091AD01822793270E94110895
:1010700008950E940D0808950E94390808950E945D
:101080003C089093AB018093AA010E94B007089599
:1010900090E080E00E943F08089521E030E0A9013F
:1010A00002C0440F551F8A95E2F7CA010E943F080B
:1010B000089521E030E002C0220F331F8A95E2F745
:1010C0008091AA019091AB01822B932B0E943F0843
:1010D000089521E030E002C0220F331F8A95E2F725
:1010E000209530958091AA019091AB0182239323A2
:1010F0000E943F08089521E030E002C0220F331F14
:101100008A95E2F78091AA019091AB0182279327FB
:101110000E943F0808952091AA013091AB01822BD3
:10112000932B0E943F0808952091AA013091AB01B2
:10113000822393230E943F0808952091AA013091B1
:10114000AB01822793270E943F0808950895262F18
:10115000277091E001C0990F2A95EAF723E0769570
:1011600067952A95E1F7660F771F660F771FFA01DB
:10117000E60FF71F50E040E0682F70E08191DF013B
:1011800011979B01042E02C0369527950A94E2F729
:10119000217021952827292328272C934F5F5F4F03
:1011A0004430510559F70895A82FA77023E096956C
:1011B00087952A95E1F7880F991F880F991FFB01E2
:1011C000E80FF91F50E040E080E0219130E00A2E66
:1011D00002C0369527950A94E2F721703327042E32
:1011E00001C0220F0A94EAF7822B4F5F5F4F443011
:1011F000510559F70895262F943070F48C3060F41F
:10120000682F70E08CE0989F600D711D112442E9F9
:1012100051E0822F0E94A7080895292F943068F486
:101220008C3058F490E062E971E03CE0239F800D3F
:10123000911D11240E94D408089580E00895B0E023
:10124000A0E0E5E2F9E00C9455207C010091AA01B0
:101250001091AB018091AC019091AD01082B192B3D
:10126000CFE0D0E0CC24C394D12CBC2EC6010C2EF0
:1012700002C0880F991F0A94E2F780239123892BDB
:1012800049F4219790F7B12C8B2DCDB7DEB7E9E06B
:101290000C947120B7018C2F0E94BF0F019789F326
:1012A000F3CFCF93DF93EC010E941F09BE010E9490
:1012B000BF0FDF91CF9108951F93CF93DF93EB0181
:1012C00090919101992339F0CB010E945109DF914E
:1012D000CF911F910895882369F0CB010E941F09C7
:1012E000182F682FCE010E94FB08BE01812F0E949B
:1012F000BF0FEDCFCB010E940D09182FF6CF1F9322
:10130000CF93DF93C091AE0116E08091AF018C13B3
:1013100004C0DF91CF911F910895D0E01C9FF00190
:101320001D9FF00D1124E055FE4F408151816281D7
:101330007381848195810E9403082196C770E5CF4F
:101340004091E0015091E1016091E2017091E3016F
:101350008091E4019091E5010E94030808951F9394
:10136000CF93DF938091E501807F09F049C08091A0
:10137000E201882309F444C08091AE01C091AF011D
:101380006091E0017091E101A091E301B091E4016D
:10139000D62FD72316E0C81799F190E0109711F0D7
:1013A000DF3F19F401968770F6CF189F9001199FBF
:1013B000300D1124F901E055FE4F41814713F2CF62
:1013C00040814613EFCF42814111ECCF43815481DC
:1013D0004A1B5B0B483C510528F78091E5018F7053
:1013E00080618093E501F901EB54FE4F80818F709D
:1013F0008061808380EE91E00E9486070E947F09D1
:10140000DF91CF911F910895A1E1B0E0EAE0FAE009
:101410000C9454208C0185E0F801DE011D960190AA
:101420000D928A95E1F7F801E28080EEC82E81E006
:10143000D82E6091E3017091E4016115710509F402
:101440004EC19091E0012091E101892F82238F3FCD
:1014500009F445C140815181A380B480F090E2013C
:10146000F501E61BF70BFF2009F4EAC08091E501C6
:10147000382F307FE83CF10508F0A3C031116DC072
:10148000FE2C251316C0941314C0E11012C08F70E7
:1014900080618093E5010E94A009C6010E94860731
:1014A0008091E501F80185838F2D6196EAE00C9427
:1014B0007020A114B10429F0842F85238F3F09F0F7
:1014C00027C180E0F82FF170DF2E80FF3CC08091B3
:1014D000AE012091AF0136E0821315C04D875E87C3
:1014E0008D859E850E945109292F22952F702230CB
:1014F000F0F0243018F59F70F1F0F8019581907F9D
:10150000D1F4D12C1EC090E0389FF001399FF00D2E
:101510001124E055FE4F6181651306C0608164139C
:1015200003C06281E6120FC001968770D5CF9F700D
:1015300011F0882331F3805E883018F3C8010E94CF
:101540008607FD2CB1CFEE2009F4AECF8091E501E6
:1015500081608093E501F12CA7CF251306C0941379
:1015600004C0F801EE2009F487C0C8010E94E60714
:10157000882319F1EE2009F18091E501803270F0A5
:101580002091E0013091E10138872F831986BB86D5
:10159000AA868C87CE0107960E94860786E0F8010E
:1015A000A0EEB1E001900D928A95E1F70E94AF099B
:1015B0000E94A009FF24F39477CFC8010E948607F8
:1015C000F9CF311113C07A2DB98AA88A6E2D898975
:1015D0000E94F90780EE91E00E94860786E0F601FE
:1015E00011928A95E9F70E94A009B5CF25130FC083
:1015F00094130DC0E1100BC0F8018583C8010E944F
:10160000860786E0F60111928A95E9F74DCFC80169
:101610000E94E607882389F2EE2079F28091E501A5
:10162000803208F4BBCF2091E0013091E1013A8390
:1016300029831B82BD82AC828E83CE010196ACCF02
:10164000E83CF10508F03EC0FE2CEE2009F4B5CFD1
:1016500025132AC0941328C08091E50180FD1BC08A
:10166000982F907FC1F0F8018583903F31F0982F3B
:10167000907F905F8F70892B8583C8010E948607B9
:1016800086E0F801A0EEB1E001900D928A95E1F7B5
:101690000E94A00909CF86E0F801A0EEB1E0019018
:1016A0000D928A95E1F700CFC8010E94E6078111EB
:1016B00075CF8091E50181608093E501C8010E94AA
:1016C0008607F2CE7A2DB98AA88A6E2D89890E9462
:1016D000F90786E0F60111928A95E9F7D9CFEE2055
:1016E00009F46BCFC8010E94E607F82E882309F49D
:1016F00064CF86E0F801A0EEB1E001900D928A95EA
:10170000E1F780EE91E00E9457040E94AF09C0CF3C
:1017100081E08E25D7CEACE0B0E0E1E9FBE00C94AF
:101720005B204F83588769877A878B879C87CE0198
:1017300007960E94040A882369F08A859B85892B75
:1017400039F04F815885842F85238F3F09F06BC076
:1017500016E05FC086E0FE013796DE01119601902B
:101760000D928A95E1F78A859B85892B89F3888577
:101770009F8189238F3F61F32091AF0130E0C90140
:101780000196877099274091AE014817190671F4A8
:101790000E94C6071092AF011092AE0186E0E0EE03
:1017A000F1E0DF011D928A95E9F7D2CF96E0929F92
:1017B000D001939FB00D1124A055BE4FFE0131966C
:1017C00001900D929A95E1F78093AF010E947F09F5
:1017D000BFCF819FC001112480559E4F0E94040AF3
:1017E0008823E9F0E091AE011E9FF0011124E0553D
:1017F000FE4F4081518162817381848195810E9475
:1018000003088091AE0190E001968770992780933C
:10181000AE018091AE019091AF018913DACF2C9681
:10182000E3E00C94772069857A858B859C850E94FE
:1018300003088ECF682F80910001909101010E94D2
:101840001D180895682F80910001909101010E9458
:101850002B18089580910001909101010E94391880
:1018600008958091060285958595859508958091C6
:1018700006028770089590910602977081E009F43E
:1018800080E0089580912902089590912902892B82
:10189000809329020895809590912902982390932E
:1018A0002902089510922902089590912802892B07
:1018B0008093280208958095909128029823909310
:1018C0002802089510922802089580910702089531
:1018D00008950E94680C089590917F0292FF08C0BD
:1018E00090910702981721F0809307020E94690CDB
:1018F000089580910702882329F01092070280E062
:101900000E94690C0895CF93DF93E0910001F0915C
:101910000101809129028083E0910001F091010191
:10192000808190912802892B8083909107029923CE
:1019300081F0E0910001F09101018081892B808389
:1019400080910001909101010E94891781110E94EC
:10195000790CC0910001D091010140E250E066EEA7
:1019600071E0CE010E949720892B59F080E2FE01A0
:10197000A6EEB1E001900D928A95E1F7CE010E94AA
:101980003517DF91CF91089508950E94C40C0895F2
:1019900090917F0292FF11C098E0899F90011124DD
:1019A000622B609306020E94590880910602859579
:1019B000859585950E94C50C08950E945908089543
:1019C0001092060280E00E94C50C089590910602D4
:1019D0008095892380930602282F277091F4282F61
:1019E000082E000C330B9217130659F090917F02CA
:1019F00092FF07C08595859585950E9469080E948C
:101A0000E00C089590917F0292FB222720F928177D
:101A100069F080FB92F990937F0280917E02909111
:101A20007F020E94590D82E00E94E60C0895809189
:101A30007F0282FB882780F991E089270E94020DAE
:101A4000089581E00E94020D089580E00E94020D39
:101A500008956FEF7FEF90E080E00E94D920089515
:101A600090E080E00E94B52021E0883E9E4F09F082
:101A700020E0822F089582E090E00E94AD2008953A
:101A800083E090E00E94AD200895682F83E090E00D
:101A90000E94BB200895CF9384E090E00E94AD2087
:101AA000C82F82E290E00E94AD20982F8C2FCF911A
:101AB0000895CF93C92F682F84E090E00E94BB2047
:101AC0006C2F82E290E00E94BB20CF910895AB0181
:101AD000BC018FE090E00E94CD200895AB01BC01D5
:101AE00083E190E00E94CD20089560E070E0CB019A
:101AF0000E946E0D089560E070E0CB010E94670DBA
:101B00000E94750D089568EE7EEF90E080E00E94DF
:101B1000D92060E082E090E00E94BB2060E083E09A
:101B200090E00E94BB201092AD011092AC0160E0E9
:101B300084E090E00E94BB2064E082E290E00E949A
:101B4000BB2060E085E090E00E94BB2060E086E082
:101B500090E00E94BB206FEF87E090E00E94BB20E6
:101B600040E050E0BA0188E090E00E94CD2060E0C3
:101B70008DE090E00E94BB2040E050E0BA0188E197
:101B800090E00E94CD2060E087E190E00E94BB20C1
:101B900040E050E0BA018CE190E00E94CD2070E07E
:101BA00060E080E290E00E94D92040E050E0BA017D
:101BB00088E190E00E94CD200E947B0D08950E9454
:101BC000830D0895682F8EE090E00E94BB20089559
:101BD0000E940719609338027093390280933A0289
:101BE00090933B02609334027093350280933602E7
:101BF000909337020895089508950E94FC0D08956A
:101C000008950E94000E089589EA90E10E941E172F
:101C10000E94FB0D0E94FD0D089581E008950E9431
:101C20000D0E0895089508950E94120E0E94130E3D
:101C300008950E94C5100E94F60308950E94F218AC
:101C40000E94A0110E94190E0E94010E0895AAE0A0
:101C5000B0E0EDE2FEE00C9451200E94B6112CE2BF
:101C6000822E22E0922E640110E0F601E190F190C4
:101C70006F01812F0E94EB101F5F143009F449C0DF
:101C8000E816F90691F380913C0281FD0E94F41060
:101C90000E940F0E782E10E0812F0E94EB107C0125
:101CA000F401A190B1904F018A159B0561F100E00C
:101CB000CC24C394D12CAE24BF24C5018C219D21FA
:101CC000892BC1F07720B1F00E831F8321E0C7017B
:101CD0008C219D21892B09F420E028870E94FB1884
:101CE0008160782F9A8789874E815F8168858A8590
:101CF0000E9422040F5FCC0CDD1C0C30F1F6F401C5
:101D00003297F182E0821F5F143031F60E94E80DB5
:101D100022C0E816F90609F0B6CF0E94FB188C0124
:101D200080912A0290912B0208171907A1F08FEFDA
:101D300089838A831B820E94FB188160782F9D8390
:101D40008C8349815A816B818D810E94220410937A
:101D50002B0200932A020E94D4130E9409042A969F
:101D6000EDE00C946D20CF93DF930E94C40FEC0143
:101D7000811521E5920708F042C0811530E59307EF
:101D800008F09FC0883E910530F5803E910508F02F
:101D900094C0883A910588F4853A910508F086C088
:101DA0008130910509F489C0009709F486C0049731
:101DB00008F083C0D0E0C0E080C08F3B9105D0F731
:101DC000C85AD0E0CC0FDD1FC85BDE4F0990D88128
:101DD000C02DD46472C0811540E2940750F4C1153F
:101DE00081E0D80708F069C0CD3ED10518F3D06571
:101DF00064C081159044F0F2DF70D06A5EC0811536
:101E000035E5930718F5811544E5940708F085C07A
:101E1000C11583E5D80708F06CC0C11522E5D207CB
:101E200008F462C0CE018370992721E030E002C03F
:101E3000220F331F8A95E2F7C695C69580E2C89FA8
:101E4000E0011124C22BD32BDC6837C0811539E5A2
:101E50009307A8F4811548E5940708F063C0C115FD
:101E600086E5D80708F0A6CF8C2F0E946610C82FF1
:101E7000D0E0DC2FCC27CC27DF71D0621EC08115CB
:101E80002AE5920708F453C090568115904208F055
:101E900091CF8D2F8F710E94661090E0982F882728
:101EA00088279F719C012C2BE901E7CFC55AD0E010
:101EB000CA58DE4FC881D0E0D064CE01DF91CF9107
:101EC00008958370992721E030E002C0220F331F6C
:101ED0008A95E2F7C695C69540E2C49FE0011124B9
:101EE000C22BD32BDD68E9CFDC2FCC27C16FD06AA2
:101EF000E4CFCE018370992721E030E002C0220FA9
:101F0000331F8A95E2F7C695C69540E2C49FE0016B
:101F10001124C22BD32BDA68D0CFD82FCC27C46F93
:101F2000D06ACBCFD82FCC27C06FD06AC6CF8F70E6
:101F30000E94661034E0D695C7953A95E1F7CF70C8
:101F40009C2FEC01D069B9CF972F7430A8F46C3076
:101F500098F470E02CE0929F600D711D1124FB013C
:101F600090E3899FE00DF11D1124EE0FFF1FE45552
:101F7000FF4F85919491089580E090E008950E942C
:101F8000A40F0E94B30E089582389105B9F1B0F400
:101F90008133910509F47DC048F48932910509F433
:101FA0006DC08A32910509F47BC00895853391058F
:101FB00009F45FC08933910509F10895833E9105C5
:101FC000D9F138F4803E910529F1823E910579F1ED
:101FD0000895863E9105D9F1873E910509F43EC0EA
:101FE000843E910541F520917F0221FF24C080911C
:101FF0007E0284FD19C087EE90E0089520917E0254
:10200000237009F05AC020917F0223FF14C089E297
:1020100090E0089520917E0220FD38C030917F022B
:1020200030FF09C024FF43C090E080E00895209174
:102030007E0222FDF7CF089520917E0222FD3AC054
:1020400030917F0230FD39C024FFF5CFEDCF2091D4
:102050007E0223FFF0CF24FDE7CFCDCF20917E027B
:1020600023FD2EC030917F0231FFEECF84EE90E051
:10207000089520917E0225FFDECFC9CF20917E02F8
:1020800025FD21C020917F0223FFD5CF89E390E079
:10209000D2CF20917E0226FFCECF8AE290E0089533
:1020A00020917E0226FFC7CF81E390E0089583EE62
:1020B00090E0089582EE90E0089580EE90E008951B
:1020C00086EE90E0089585E390E0089590917E0279
:1020D00092FF06C0282F28712830F9F4877F84608A
:1020E00093FF06C0282F28712831F1F4877E846180
:1020F00020917F0220FF06C0382F38713830D9F484
:10210000877F816021FF06C0282F28712831D1F4F4
:10211000877E816194FD877E0895282F2471243065
:10212000F9F68B7F8860DCCF282F2471243101F7EA
:102130008B7E8861DDCF382F3171313019F78E7F7A
:102140008860E0CF282F2171213121F78E7E8861B0
:10215000E1CF80E008950E94290D08950E94B611F4
:102160008FE39CE90197F1F700C000000E94B611CF
:1021700080E00E94EB1080FF04C00E94AB100E9420
:10218000461908950E94AE1008950E94300D8111E5
:1021900002C00E94DF0D0E943B0D80933C020E9412
:1021A0004B0D90937F0280937E020E94C2100E948A
:1021B000400D90E00E941B088091AA019091AB0114
:1021C0000E943C08089508950E94E3100895089520
:1021D0000E94E7100895E82FF0E0EE0FFF1FE85788
:1021E000FD4F808191810895089580EA8A95F1F7E5
:1021F000089500C008950E94F5100895F894E82FFE
:10220000E295EF70F0E031A1282F2F7081E090E08F
:1022100001C0880F2A95EAF7982F9095932391A3F0
:1022200092A1892B82A378940895CF93DF9386EFB0
:102230000E94FE1083E30E94FE1082E30E94FE10C3
:1022400086E30E94FE10C9E7D1E089918F3F11F02B
:102250000E94FE1081E0C538D807B9F7DF91CF9111
:102260000895AF92BF92DF92EF92FF920F931F9368
:10227000CF93DF938C01D62EC62FD0E0CE018B57A3
:102280009E4F7C01FC0120812F3F09F44CC0F89443
:10229000E22FE295EF70F0E031A12F7081E090E045
:1022A00001C0880F2A95EAF7932F982B91A392A14A
:1022B0008095892382A378940E94F910E9E7F1E0E0
:1022C00041E050E0B12CA12C21912F3FB1F1A22F80
:1022D000A295AF70B0E090968C9190E02F7002C004
:1022E000959587952A95E2F780FD27C0CA01A82A0F
:1022F000B92A440F551F81E0E538F80729F7F7019F
:1023000080818F3F11F00E94FE1061E0A114B104A2
:1023100009F460E08D2D0E94FB10CC0FDD1FC00F73
:10232000D11FB982A882DF91CF911F910F91FF90A9
:10233000EF90DF90BF90AF90089590E080E0D7CF0E
:102340000E94151188E0E8E8F2E0DF01982F1D9265
:102350009A95E9F7E0E8F2E0DF011D928A95E9F746
:1023600084E00E94F1110E9470030895A8E0B0E09B
:10237000ECEBF1E10C9459208E010F5F1F4F88E0C8
:10238000F80111928A95E9F7F12C6F2DC8010E948E
:102390003111F394F4E0FF12F8CF48E050E0B801B7
:1023A00080E892E00E94972021E0009709F420E065
:1023B000892B41F088E0F801A0E8B2E001900D928D
:1023C0008A95E1F744E068E872E080E892E00E94D4
:1023D000F211182F0E947303812F2896E5E00C94C8
:1023E00075200895CF92DF92EF92FF921F93CF93C3
:1023F000DF936C017B01C42F222349F081E080939D
:102400003F020E94FB1890933E0280933D02109180
:102410003F0211110AC010E0812FDF91CF911F916F
:10242000FF90EF90DF90CF90089580913D029091C2
:102430003E020E941319059770F3D0E0CC0FDD1F08
:10244000AE01B601C7010E949720892B41F0AE0171
:10245000B601C7010E94A42010923F02DDCF10E018
:10246000FBCF0E940D1B0E941E0E0E941A1B089596
:102470000E941F1B0E94270E0E94391B08950E9474
:1024800094180E94F31A0E94040E0E9431120E94B6
:1024900038120E94140EFBCF8091460280FF0DC0BF
:1024A0006091070170E0660F771F6038710570F565
:1024B0006115710569F1862F089581FF07C060914C
:1024C000070184E0689FB0011124EFCF60910701FC
:1024D00082FD0AC0809145028823A9F0209106015F
:1024E00060910701821710F088E0ECCF869FC00151
:1024F000112433E0880F991F3A95E1F7622F70E0BD
:102500000E943220D2CF68E070E0D5CF8FE70895E7
:1025100081E008958091460280FF0CC06091030124
:1025200070E075956795759567956115710549F129
:10253000862F089581FF06C06091030170E07595B4
:102540006795F3CF6091030182FD0BC09091440227
:102550009923A1F06091020180910301961738F050
:10256000682F70E06038710500F38FE70895899F48
:10257000C001112470E00E943220F4CF61E070E0CD
:10258000D7CF81E008958D3E31F40E944C128195A1
:1025900080934A0208958E3E19F40E944C12F8CF9F
:1025A0008F3E31F40E944C12819580934902089528
:1025B000803F19F40E944C12F8CF893F29F40E9401
:1025C0008A1280934B0208958A3F21F40E948A1256
:1025D0008195F7CF8B3F31F40E948A1281958093C9
:1025E0004C0208958C3F19F40E948A12F8CF9FE0A4
:1025F000980F983070F4815F990B21E030E001C0B2
:10260000220F8A95EAF780914802822B8093480234
:1026100008958D3F31F48091460281608093460297
:1026200008958E3F21F4809146028260F7CF8F3F5C
:10263000B9F7809146028460F1CF409149028D3E06
:1026400059F480914A0287FF0DC010924A0241114D
:102650000BC01092450208C08E3E81F480914A0260
:1026600018169CF3442381F080914B0290914C0208
:10267000892B09F05AC01092440208958F3E49F404
:1026800047FFF0CF1092490280914A028111ECCFAE
:10269000E0CF803F19F41416ACF3E4CF90914B02D5
:1026A000893F29F41916F4F610924B02DBCF8A3FCA
:1026B00019F497FFD7CFF8CF90914C028B3F29F4B4
:1026C00097FFD0CF10924C02CDCF8C3F19F4191642
:1026D000CCF3C8CF9FE0980F983090F4815F990BAE
:1026E00021E030E0B90102C0660F771F8A95E2F75A
:1026F000CB01809590914802892380934802B2CF04
:102700008D3F31F4809146028E7F80934602AACF9E
:102710008E3F21F4809146028D7FF7CF8F3F09F0E5
:10272000A1CF809146028B7FF0CF08950E94FB18C5
:102730009C019091490280914A02982B21F030939C
:1027400043022093420290914B0280914C02982BBD
:1027500021F0309341022093400287E492E00E94EE
:102760004F17089586E0E7E4F2E0DF011D928A95B5
:10277000E9F7109245021092440210924602089521
:10278000FC01828181110EC0838181110BC0848183
:10279000811108C091E08581811101C090E0892FED
:1027A0008170089581E0FCCFA6E0B0E0EAEDF3E1AE
:1027B0000C945B2086E0E7E4F2E0DE0111960190E4
:1027C0000D928A95E1F71092490210924A021092F6
:1027D0004B0210924C028B819C81892B89F0809155
:1027E0004202909143020E941319AC01909145025C
:1027F0009923C9F1809108018417150608F440C097
:102800008D819E81892B91F08091400290914102AF
:102810000E941319AC0190914402992309F471C0EC
:10282000809104018417150608F479C0BE016F5F1A
:102830007F4F87E492E00E944B18811105C087E426
:1028400092E00E94C01381110E94961386E0FE015F
:102850003196A7E4B2E001900D928A95E1F72696B1
:10286000E3E00C947720209109018AE0289F9001F1
:1028700011242417350720F69F5F9093450202C06C
:102880009F3FD1F71B81112359F00E944C129FEFFB
:1028900011160CF491E0899F802D11248093490238
:1028A0001C81112359F00E944C129FEF11160CF459
:1028B00091E0899F802D112480934A023091490232
:1028C000332309F49DCF20914A02222309F498CFA3
:1028D00045EB3403C0011124992359F09093490228
:1028E00045EB240390011124332339F030934A023D
:1028F00087CF81E080934902F3CF81E080934A0241
:102900007FCF209105018AE0289F90011124241790
:10291000350708F08BCF9F5F9093440202C09F3F22
:10292000D1F71D81112359F00E948A129FEF1116D1
:102930000CF491E0899F802D112480934B021E811D
:10294000112359F00E948A129FEF11160CF491E0A6
:10295000899F802D112480934C0230914B023323A8
:1029600009F464CF20914C02222309F45FCF45EB98
:102970003403C0011124992359F090934B0245EB85
:10298000240390011124332339F030934C024ECFAD
:1029900081E080934B02F3CF81E080934C0246CFDD
:1029A000CF93DF93EC01FB018281882309F464C19A
:1029B000C430FDE5DF07E0F5CB3F9CE5D90730F4F7
:1029C0009E0122503C4524313105D8F50E944B0D23
:1029D00090937F0280937E02C231ECE5DE0709F41A
:1029E0001FC108F06EC0C9308CE5D80709F4F2C0E9
:1029F00008F03FC0C530ECE5DE0709F4DBC058F550
:102A0000C3308CE5D80709F4CDC008F0CFC0809161
:102A10007E028160C230DC4509F4AEC080917E0246
:102A200090917F020E94590D0E94C60780E009C064
:102A3000C63AEDE5DE0751F238F4C2369DE5D90716
:102A400029F2DF91CF9108959E012E5A3D45233002
:102A50003105B8F7BBCF80917E028062C730FCE5BC
:102A6000DF0709F489C008F4B1C080917E02806458
:102A700083C0CD309CE5D90709F4BAC070F48091C9
:102A80007E028E7FCB30FCE5DF0709F475C008F4C9
:102A9000A7C080917E028D7F6FC0CF309CE5D907A3
:102AA00009F4B6C008F4A8C0C031FCE5DF0709F49A
:102AB000B3C0C131DC4509F0B1CF80917E028F7B7C
:102AC0005BC0C1159DE5D90709F4B4C098F5CB3FAB
:102AD000FCE5DF0709F472C0B8F4C4319CE5D907FE
:102AE00009F4B6C008F4A2C0C531DC4509F096CFA0
:102AF00080917E0282FB992790F921E0922790FB3A
:102B000082F990FB83F938C0CD3F8CE5D80709F4F2
:102B100077C008F457C0CE3FECE5DE0709F474C077
:102B200080917F028360CF3FDC4509F077CF8093AF
:102B30007F0274CFC2368DE5D80709F496C068F4D9
:102B4000C230EDE5DE0709F48CC008F477C0C3306D
:102B5000DD4509F063CF80E085C0CE3A9DE5D90719
:102B6000E9F068F490917E02892F8E7F90FF81605A
:102B7000C63ADD4509F052CF80937E024FCFCF3A5F
:102B80008DE5D80789F1C03BDD4509F047CF90912D
:102B90007F02892F877F93FF8860C9CF80917F0252
:102BA0008860C5CF80917E028260E6CF80917E02F0
:102BB0008460E2CF80917E028860DECF80917F02C8
:102BC0008160B5CF80917F028260B1CF80917E021B
:102BD0008061D2CF0E94C60780917E028068CCCFF0
:102BE00080917E028C60C8CF80917F02877F9FCFCB
:102BF00080917E028B7FC0CF80917E02877FBCCF89
:102C000080917F028E7F93CF80917F028D7F8FCFC7
:102C100080917E028F7EB0CF80917E028F7DACCF7F
:102C20000E94C60780917E028F77A6CF80917E0298
:102C3000837FA2CF80917F028C7F79CF80917F02AA
:102C4000982F909591708E7F892B90FB81F96FCF93
:102C50000E94C60790917E02892F97FB87F98058C2
:102C60008BCF81E00E94E20DD9CE90917E02892F18
:102C70008F7E94FF806180CF81E0E3CECF93DF939E
:102C8000EB0186319C4511F50E94420C9A819923F3
:102C900099F08A7A91E009F490E090934D028111C5
:102CA00009C089E20E941A0C0E94830C80E0DF9127
:102CB000CF91089585E3F6CF80914D02811104C034
:102CC00089E20E94220CF0CF85E3FBCF81E0EFCFB9
:102CD0000F931F93CF93DF93C42FD22FFC018281D8
:102CE0008823C9F0409350020E94FB1890934F0232
:102CF00080934E0280E28C0F883040F4C77081E0F0
:102D000001C0880FCA95EAF70E946805DF91CF914C
:102D10001F910F91089510915002141332C08091A9
:102D20004E0290914F020E941319883C910548F57C
:102D3000C0E2CD0F1D17B9F080E2810F883040F45A
:102D4000177081E001C0880F1A95EAF70E946F059D
:102D5000C83048F481E09D2F977001C0880F9A9584
:102D6000EAF70E946805802F0E945F05C83070F660
:102D7000D77081E001C0880FDA95EAF70E946F05ED
:102D8000C5CF80E28C0F883008F6C77081E001C0A3
:102D9000880FCA95EAF7F2CF0F939C01CB01243F2D
:102DA0004CE5340759F1A8F4293DFCE53F0701F152
:102DB0002A3D4CE53407D1F1283D3C4591F406E22B
:102DC00021EE41EE68ED7CE50E94681680E00F91EF
:102DD0000895263FFCE53F07E9F0B0F0273F3C456A
:102DE000F9F0FC018281882339F110925002EFCF73
:102DF00007E225EE45EE69ED7CE5E6CF06E221EE41
:102E000040EE64EF7CE5E0CF07E225EE44EE65EFAF
:102E10007CE5DACF06E221EE42EE66EF7CE5D4CF28
:102E200007E225EE46EE67EF7CE5CECF08E221E033
:102E300045EE6AED7CE5C8CF81E0C9CF90938B0168
:102E400080938A01089590935602809355020895C5
:102E5000E0915502F0915602309729F00190F081EF
:102E6000E02D0995089580E00895E0915502F091D4
:102E70005602309799F020911601222359F02091A3
:102E80007E0227FF07C0DC012C9111962C9311972D
:102E900026E02C930280F381E02D09950895E091BE
:102EA0005502F0915602309739F022E0DC012C9364
:102EB0000480F581E02D0995089520915302309109
:102EC00054022817390771F09093540280935302EB
:102ED000E0915502F0915602309721F00680F7817B
:102EE000E02D099508952091510230915202281742
:102EF000390771F09093520280935102E09155028C
:102F0000F0915602309721F00084F185E02D09956B
:102F10000895FC01329680911601882321F080915A
:102F20007E029EE187FF96E080E0915008F40895CC
:102F300021912223D1F38F5FF8CF662301F12091F5
:102F400016012223F1F020917E0227FF1AC0462F9E
:102F50004695469546954E3190F4677021E030E0F5
:102F600002C0220F331F6A95E2F7840F911DFC0106
:102F7000828190E02823392381E0232B69F480E0CB
:102F80000895FC01329608962191261721F0E81742
:102F9000F907D1F7F4CF81E008959C01FC01329646
:102FA0009FEF80E04191461751F09F3F19F4411186
:102FB00001C0982F8F5F8630A9F79F3F09F40895CD
:102FC000290F311D97FD3A95F90162830895FC019F
:102FD000329608962191261303C0DF0111971C92A7
:102FE000E817F907B9F70895E62FE695E695E6950F
:102FF000EE3168F4E80FF92FF11D677021E030E041
:1030000001C0220F6A95EAF78281822B828308959C
:10301000E62FE695E695E695EE3170F4E80FF92F88
:10302000F11D677021E030E001C0220F6A95EAF7D8
:10303000209582812823228308952091160122233E
:1030400039F020917E0227FF03C00E94F4170895F3
:103050000E94CD17089520911601222339F0209166
:103060007E0227FF03C00E94081808950E94E717F8
:103070000895FC01329680911601882351F08091C9
:103080007E0287FF06C08EE1DF011D928A95E9F777
:10309000089586E0F9CF46E050E00E94972021E0B5
:1030A000892B09F420E0822F089508950E94551875
:1030B0000895811106C081E0809357020E9456183E
:1030C000089582E0F9CF83E0809357020E9456185A
:1030D00008950E945918089581E0809357020E9434
:1030E000561808950E946C180895089508950E9436
:1030F00076180895089508950E9475180895CF933D
:103100000E947A180E94B6110E947B18C0E08C2F92
:103110000E94EB10892B31F4CF5FC430C1F780E0FF
:10312000CF91089581E0FCCF85B7806885BF85B7D2
:10313000806885BF08951F921FB61F9211248F9338
:103140009F93AF93BF9380915802811113C08091D8
:10315000900290919102A0919202B09193024196B7
:10316000A11DB11D8093900290939102A0939202B1
:10317000B0939302BF91AF919F918F911F901FBE0B
:103180001F90189580919802843031F10E94E303DA
:103190001092580288E190E020E40FB6F894A895C8
:1031A000809360000FBE2093600083B7817F8460AE
:1031B00083BF83B7816083BF7894889583B78E7F00
:1031C00083BF0FB6F894A8958091600088618093C2
:1031D0006000109260000FBE08950E94C6070E9412
:1031E000E803089582E084BD93E095BD9AEF97BD12
:1031F00080936E0008952FB7F8948091900290917B
:103200009102A0919202B09193022FBF08952FB71F
:10321000F894609190027091910280919202909145
:1032200093022FBF08959C014FB7F89480919002AC
:1032300090919102A0919202B09193024FBF821B94
:10324000930B089578941F921FB61F9211248F93A9
:103250009F93AF93BF938091900290919102A09120
:103260009202B09193020196A11DB11D809390022C
:1032700090939102A0939202B0939302BF91AF9169
:103280009F918F911F901FBE1F90189587E797E71A
:10329000909301088093000888E19AE00FB6F894B3
:1032A000A895809360000FBE90936000FFCF88E1E7
:1032B0009AE00FB6F894A895809360000FBE9093A3
:1032C0006000FFCF80917C02089508959C0182E008
:1032D0008093E9009FEF8091E800915085FD06C042
:1032E00085ED8A95F1F700009111F5CF8091E80006
:1032F00085FF0CC050E040E066E070E0C9010E942C
:10330000AB1B8091E8008E778093E8000895CF93FF
:10331000DF93EC01809116018823B1F180917E0248
:1033200087FF32C060E282E08093E9008FEF9091E6
:10333000E800815095FD06C095ED9A95F1F70000E3
:103340008111F5CF8091E80085FF1BC080911601A7
:1033500070E050E040E0811104C050E040E068E0DF
:1033600070E0CE010E94AB1B8091E8008E778093C5
:10337000E80080E2FE01ACE5B2E001900D928A9592
:10338000E1F7DF91CF91089568E081E0CDCF8093A0
:10339000590270935B0260935A02809198028430C4
:1033A00001F582E08093E9008FEF9091E800815071
:1033B00095FD06C095ED9A95F1F700008111F5CFC6
:1033C0008091E80085FF0DC050E040E063E070E0D0
:1033D00089E592E00E94AB1B8091E8008E77809394
:1033E000E8000895BC0184E00E94C7190895BC015B
:1033F00083E00E94C719089580919702811109C046
:103400000E943B1D0E94981D8091E2008460809381
:10341000E20008951092970208950E946C18089592
:103420006091940281E0611101C080E00E94631804
:1034300008959091980281E0943009F080E06091C5
:1034400094020E946918089542E061EC81E00E94B4
:10345000B71C42E261EC82E00E94B71C9091980296
:1034600081E0943009F080E0609194020E94591844
:10347000089580919A02833009F461C030F481305C
:10348000D1F1823009F49EC008958A3009F48AC0CF
:103490008B3009F46FC0893009F050C080919902D7
:1034A000813209F04BC080919D0290919E0202975B
:1034B00008F044C08091E800877F8093E800809105
:1034C000E80082FF37C09091F3008091F2000297EC
:1034D00031F48091F100813011F0863021F4809137
:1034E000F10080937C028091E8008B778093E80064
:1034F0000E94EB1C23C080919902813AF9F48091DB
:10350000E800877F8093E80080919D0290919E0261
:10351000892B61F460E28CE592E070E00E94FA1B76
:103520008091E8008B778093E800089560E090E058
:1035300080E0F3CF809198028111C1CF08958091EE
:103540009902813AD9F780919D0290919E02892B30
:10355000A9F78091E800877F8093E8008091E800D8
:1035600080FFFCCF809116018093F1008091E800EC
:103570008E77BCCF80919902813201F780919D02B4
:1035800090919E02892BD1F68091E800877F8093ED
:10359000E8000E94EB1C80919B02809316010E9420
:1035A000C607089580919902813241F68091E80022
:1035B000877F8093E8000E94EB1C80919C0280939F
:1035C0007D02089580919902813A09F0B7CF8091E8
:1035D000E800877F8093E8008091E80080FFFCCFBF
:1035E00080917D02C1CF84B7877F84BF0FB6F894E6
:1035F000A8958091600088618093600010926000BF
:103600000FBE80E890E00FB6F8948093610090932D
:1036100061000FBE0E94721808950E943B1D0E9417
:10362000981DE2EEF0E080818460808378940E94AF
:10363000172008958AE091E00E9423170895809151
:103640009802853031F480919802853019F00E94FB
:10365000ED1808950E94C21880919602882399F36C
:103660000E947F18882379F30E94951B0E94C60749
:10367000EACF08950E943D1B0895292F3327233058
:10368000310519F168F42130310509F444C02230C4
:10369000310509F445C090E080E030E020E025C02D
:1036A0002132310549F122323105A9F780E490E059
:1036B00023E734E061157105C1F086EB90E02DEB56
:1036C00033E06130710589F0E6CF992781309105AB
:1036D00081F0009729F00297F1F6ECE4F3E002C0E4
:1036E000ECE6F3E0849190E09F01FA0131832083BE
:1036F0000895ECE5F3E0F6CF89E090E022E833E0CE
:103700006115710591F389E090E02BE933E06130B8
:10371000710559F3C0CF82E190E02BEA33E0E5CFA9
:103720008BE390E020E733E0E0CF80E189BD82E1E8
:1037300089BD09B400FEFDCF8091D8008F7D8093B4
:10374000D8008091E00082608093E0008091E000EA
:1037500081FDFCCF0895AF92BF92CF92DF92FF928E
:103760000F931F93CF93DF936C01EB018A010E94AB
:103770000A1DF82E811123C00115110539F0F80139
:1037800080819181C81BD90BC80ED91EB12CA12CE8
:103790002097A9F08091E80085FD22C08091E80083
:1037A0008E778093E80001151105A1F0F801808162
:1037B0009181A80EB91EB182A08285E0F82E8F2DCE
:1037C000DF91CF911F910F91FF90DF90CF90BF902D
:1037D000AF9008950E940A1D8823D1F2F82EEFCFF2
:1037E000F60181916F018093F1002197FFEFAF1AED
:1037F000BF0ACECFFC0180919F029091A002861754
:103800009707A0F06115710529F49091E8009E7763
:103810009093E80090E06115710551F4911108C092
:103820008091E80082FF34C080E00895BC01F2CFAF
:10383000809198028823C1F18530C1F18091E80020
:1038400083FD30C08091E80082FDEACF8091E800DE
:1038500080FFE1CF8091F3002091F200382F6115B5
:10386000710519F02830310558F091E02830310504
:1038700009F090E02091E8002E772093E800CBCF6C
:1038800081918093F100615071092F5F3F4FE7CF25
:1038900080919802882341F0853041F08091E800C2
:1038A00083FFBECF81E0089582E0089583E008950C
:1038B000FC0180919F029091A00286179707A0F0CB
:1038C0006115710529F48091E8008E778093E800F6
:1038D00090E06115710551F4911108C08091E800E4
:1038E00082FF35C080E00895BC01F2CF809198023C
:1038F0008823C9F18530C9F18091E80083FD31C08A
:103900008091E80082FDEACF8091E80080FFE1CF5E
:103910008091F3002091F200382F6115710519F0A4
:103920002830310558F091E02830310509F090E059
:103930008091E8008E778093E800CBCF84918093CC
:10394000F1003196615071092F5F3F4FE6CF8091B2
:103950009802882341F0853041F08091E80083FF90
:10396000BDCF81E0089582E0089583E00895982F07
:10397000973028F08F708093E90081E0089590934C
:10398000E900242F762F50E0981731F07091EC0069
:103990002091ED005091F00021FD02C09F5FE8CF23
:1039A0003091EB003E7F3093EB003091ED003D7F96
:1039B0003093ED003091EB0031603093EB00709369
:1039C000EC002093ED005093F0002091EE0027FDD5
:1039D000E5CF80E008958091990287FF13C0809120
:1039E000E80082FF06C08091E8008B778093E800B2
:1039F00004C0809198028111F2CF089580919802BD
:103A00008823D9F38091E80080FFF8CF8091E80007
:103A10008E77ECCF2091E4003091E50095E6A90186
:103A20002091EC00822F817020FF06C08091E80079
:103A300080FF06C080E008952091E80022FD1AC0B2
:103A400080919802882389F0853089F08091EB007D
:103A500085FD0FC02091E4003091E5004217530727
:103A6000F9F29150E1F684E0089582E0089583E050
:103A7000089581E008950E94AA1D0E94B21DE0EE03
:103A8000F0E0808181608083E8EDF0E080818F77D5
:103A9000808319BCA7EDB0E08C918E7F8C938081E0
:103AA0008F7E80831092970208950F931F93CF9378
:103AB000DF930E94AA1D0E94B21DC8EDD0E088814C
:103AC0008F77888388818068888388818F7D8883C9
:103AD00019BC1092980210929402109296021092C1
:103AE000950200EE10E0F80180818B7F8083888151
:103AF0008160888342E060E080E00E94B71CE1EED4
:103B0000F0E080818E7F8083E2EEF0E08081816052
:103B10008083808188608083F80180818E7F8083AC
:103B2000888180618883DF91CF911F910F910895E3
:103B3000E8EDF0E080818F7E8083E7EDF0E080812A
:103B40008160808384E082BF81E0809397020E943D
:103B5000551D0895E8EDF0E080818E7F80831092FE
:103B6000E20008951092DA001092E10008951F9289
:103B70000F920FB60F9211242F933F934F935F93A1
:103B80006F937F938F939F93AF93BF93EF93FF9325
:103B90008091E10082FF0BC08091E20082FF07C0AC
:103BA0008091E1008B7F8093E1000E94162080913C
:103BB000DA0080FF19C08091D80080FF15C0809185
:103BC000DA008E7F8093DA008091D90080FF96C062
:103BD00080E189BD82E189BD09B400FEFDCF81E0AD
:103BE000809398020E94FC198091E10080FF19C027
:103BF0008091E20080FF15C08091E2008E7F80936B
:103C0000E2008091E20080618093E2008091D80020
:103C100080628093D80019BC85E0809398020E944E
:103C2000101A8091E10084FF2BC08091E20084FF94
:103C300027C080E189BD82E189BD89B5982F917047
:103C400080FFFBCF8091D8008F7D8093D80080913A
:103C5000E1008F7E8093E1008091E2008F7E80936F
:103C6000E2008091E20081608093E2008091940202
:103C7000882309F449C084E0809398020E94191AAD
:103C80008091E10083FF29C08091E20083FF25C07D
:103C90008091E100877F8093E10082E08093980229
:103CA000109294028091E1008E7F8093E1008091D8
:103CB000E2008E7F8093E2008091E2008061809339
:103CC000E20042E060E080E00E94B71C8091F000DA
:103CD00088608093F0000E940D1AFF91EF91BF91D0
:103CE000AF919F918F917F916F915F914F913F9194
:103CF0002F910F900FBE0F901F90189519BC109226
:103D000098020E940A1A70CF8091E30087FD93E029
:103D100090939802B3CF1F920F920FB60F92112477
:103D20002F933F934F935F936F937F938F939F93C3
:103D3000AF93BF93CF93DF93EF93FF93D091E900BD
:103D4000DF708091EC00C82FC17080FDC0E8109238
:103D5000E9008091F000877F8093F00078940E94C2
:103D6000CF1E1092E9008091F00088608093F000EF
:103D7000CD2BCF70C093E900FF91EF91DF91CF91F0
:103D8000BF91AF919F918F917F916F915F914F9173
:103D90003F912F910F900FBE0F901F901895AAE2A0
:103DA000B0E0E5EDFEE10C945B2089E992E0209122
:103DB000F100FC012193CF01F2E0813A9F07B9F7AE
:103DC0000E94391A8091E80083FF1EC180919902F8
:103DD00090919A029A3008F017C1E92FF0E0EB5F5A
:103DE000FE4D0C944620803899F0823809F00CC1C1
:103DF00080919D028F70873008F006C18093E900A2
:103E00008091EB0085FB882780F91092E90006C0BD
:103E10008091950290919602911182609091E800B4
:103E2000977F9093E8008093F1001092F1008091C9
:103E3000E8008E77E5C0882309F4D3C0823009F00A
:103E4000E3C080919B028111D6C080919D028F704A
:103E50002FEF280F263008F0D7C08093E90020917B
:103E6000EB0020FFC8C0933031F48091EB008062FA
:103E70008093EB00C0C09091EB0090619093EB00B9
:103E800021E030E001C0220F8A95EAF72093EA0092
:103E90001092EA008091EB008860EACF8111B4C0F3
:103EA00010919B021F778091E3008078812B809393
:103EB000E3008091E800877F8093E8000E94EB1C7C
:103EC0008091E80080FFFCCF8091E30080688093C0
:103ED000E30082E0111183E08093980295C080583E
:103EE000823008F091C080919B0290919C028C3DA1
:103EF00023E09207A1F583E08A838AE289834FB7A2
:103F0000F894DE01139620E03EE051E2E32FF0E06A
:103F100050935700E49120FF03C0E295EF703F5F9C
:103F2000EF708E2F90E0EA30C0F0C7968D939D938E
:103F30002F5F243159F74FBF8091E800877F80932E
:103F4000E8006AE270E0CE0101960E94FA1B8091BF
:103F5000E8008B778093E80057C0C096E7CF609168
:103F60009D0270919E02AE014F5F5F4F0E943A1B0F
:103F7000BC01892B09F448C09091E800977F909389
:103F8000E80089819A810E94581CE1CF8038E1F5D0
:103F90008091E800877F8093E8008091940280936D
:103FA000F10045CF811130C090919B02923060F5B5
:103FB0008091E800877F8093E800909394020E94AC
:103FC000EB1C80919402882311F084E005C080915D
:103FD000E30087FDFACF81E0809398020E94241AC3
:103FE00013C080919B02813079F481E0933009F015
:103FF00080E0809396021092E9008091E800877F2C
:104000008093E8000E94EB1C8091E80083FF0AC0C7
:104010008091E800877F8093E8008091EB008062C8
:104020008093EB00AA96E3E00C9477200895CF9359
:10403000809198028823A1F0C091E900CF709091FF
:10404000EC00892F817090FD80E8C82B1092E90068
:104050008091E80083FD0E94CF1ECF70C093E900DD
:10406000CF91089597FB072E16F4009407D077FDA3
:1040700009D00E94832007FC05D03EF490958195DD
:104080009F4F0895709561957F4F0895EE0FFF1F24
:104090000590F491E02D09942F923F924F925F92F8
:1040A0006F927F928F929F92AF92BF92CF92DF9248
:1040B000EF92FF920F931F93CF93DF93CDB7DEB7AD
:1040C000CA1BDB0B0FB6F894DEBF0FBECDBF099441
:1040D0002A88398848885F846E847D848C849B8498
:1040E000AA84B984C884DF80EE80FD800C811B81A6
:1040F000AA81B981CE0FD11D0FB6F894DEBF0FBED5
:10410000CDBFED010895AA1BBB1B51E107C0AA1F3B
:10411000BB1FA617B70710F0A61BB70B881F991F68
:104120005A95A9F780959095BC01CD010895FB01A2
:10413000DC0104C08D910190801921F44150504060
:10414000C8F7881B990B0895FB01DC0102C00190A0
:104150000D9241505040D8F70895F999FECF92BD85
:1041600081BDF89A992780B50895A8E1B0E042E0B2
:1041700050E00C94E120262FF999FECF92BD81BD2D
:10418000F89A019700B4021639F01FBA20BD0FB695
:10419000F894FA9AF99A0FBE08950396272F0E9471
:1041A000BC200E94BB20252F0E94BC20242F0C94F1
:1041B000BC200196272F0E94BC200C94BB20DC0160
:1041C000CB01FC01F999FECF06C0F2BDE1BDF89A22
:1041D000319600B40D9241505040B8F70895F894CC
:1041E000FFCF88028E029502B7029902A402AE02A6
:1041F000D902B105B105E205E2056F068B0611068D
:1042000011069606070716071607F31E1B1F042044
:0E4210001B1F04204E1F6F1F0420C61FD21F4D
:10421E000802280850011E0A14016219871966192E
:10422E00F719F219651901E200E900EA00B500B6C6
:10423E0000B700CD008301CC008A019201940121C8
:10424E0002230224022502260227022A02B300B408
:10425E00006F007000818283E200E900EA00B50081
:10426E00B600B700CD008301CC008A019201940103
:10427E002102230224022502260227022A02B3006B
:10428E00B4006F007000818283F4F53534C69766F2
:0A429E009490919293F633323600AB
:00000001FF
