:100000000C9408050C9425050C9425050C942505E5
:100010000C9425050C9425050C9425050C942505B8
:100020000C9425050C9425050C9417300C94EF3096
:100030000C94BD100C9425050C9425050C942505F5
:100040000C9425050C9425050C9425050C94250588
:100050000C9425050C94F32F0C9425050C94250580
:100060000C9425050C9425050C9425050C94250568
:100070000C9425050C9425050C9425050C94250558
:100080000C9425050C9425050C9425050C94250548
:100090000C9425050C9425050C9425050C94250538
:1000A0000C9425050C9425050C9425050501098063
:1000B000A101850319012AB700150126B700950192
:1000C00075108100C0050C0901A101850419012AE0
:1000D000A002150126A002950175108100C00660DE
:1000E000FF0961A1010962150026FF00952075082E
:1000F00081020963150026FF00952075089102C052
:1001000005010906A101050719E029E715002501E8
:10011000950875018102950175088101050719008F
:1001200029FF150026FF00950675088100050819AE
:10013000012905950575019102950175039101C08D
:1001400000AF00AE07087F0807003E5B4F5B3E0034
:100150003E6B4F6B3E001C3E7C3E1C00183C7E3CC0
:1001600018001C577D571C001C5E7F5E1C00001889
:100170003C180000FFE7C3E7FF0000182418000048
:10018000FFE7DBE7FF0030483A060E002629792911
:100190002600407F05050700407F05253F005A3CAB
:1001A000E73C5A007F3E1C1C0800081C1C3E7F00D8
:1001B00014227F2214005F5F005F5F0006097F0149
:1001C0007F00006689956A0060606060600094A2AC
:1001D000FFA2940008047E04080010207E20100076
:1001E00008082A1C0800081C2A0808001E10101005
:1001F00010000C1E0C1E0C0030383E383000060E6D
:100200003E0E060000000000000000005F0000003D
:10021000000700070000147F147F1400242A7F2A9F
:10022000120023130864620036495620500000086B
:1002300007030000001C224100000041221C0000B6
:100240002A1C7F1C2A0008083E0808000080703025
:100250000000080808080800000060600000201086
:10026000080402003E5149453E0000427F40000024
:100270007249494946002141494D33001814127F03
:1002800010002745454539003C4A49493100412184
:1002900011090700364949493600464949291E00D7
:1002A0000000140000000040340000000008142288
:1002B0004100141414141400004122140800020117
:1002C000590906003E415D594E007C1211127C0016
:1002D0007F49494936003E41414122007F41414129
:1002E0003E007F49494941007F09090901003E411B
:1002F000415173007F0808087F0000417F410000E2
:100300002040413F01007F08142241007F404040CF
:1003100040007F021C027F007F0408107F003E41E6
:1003200041413E007F09090906003E4151215E001E
:100330007F091929460026494949320003017F01F6
:1003400003003F4040403F001F2040201F003F402F
:1003500038403F006314081463000304780403006A
:100360006159494D4300007F41414100020408109A
:100370002000004141417F0004020102040040408E
:10038000404040000003070800002054547840001B
:100390007F284444380038444444280038444428E2
:1003A0007F0038545454180000087E09020018A435
:1003B000A49C78007F080404780000447D4000007D
:1003C0002040403D00007F102844000000417F4055
:1003D00000007C04780478007C0804047800384429
:1003E00044443800FC182424180018242418FC0065
:1003F0007C080404080048545454240004043F4476
:1004000024003C4040207C001C2040201C003C403C
:1004100030403C004428102844004C9090907C00D0
:100420004464544C4400000836410000000077004A
:1004300000000041360800000201020402003C26D0
:1004400023263C00000000000000404040F0F8F887
:10045000FF38FFF8F83FF8F8FF38FFF8F8F04040B1
:100460004000000000000080C0C0C0800000C0C08C
:100470008000000080C0C000C0C0000080C0C0007C
:1004800000000000C0C0C0C0C000C0C0000000002C
:10049000000000000000000000000000000000005C
:1004A000000000000000000000000000000000004C
:1004B000000000000000000000000000000000003C
:1004C000000000C0F0F8FC3E1E06010000007F4165
:1004D00041417F007F4141417F000080C0E07E5B61
:1004E0004F5BFEC00000C000DCD7DEDEDED7DC00E4
:1004F000C00000000000000000000000000000003C
:1005000000000000000000000000494949FFFFFF13
:10051000FFE0DFBFBF00BFBFDFE0FFFFFFFF4949D4
:100520004900000000001F3F6060E0BF1F007F7FA8
:10053000071E381E077F7F007F7F0E1F3B71600004
:10054000000000007F7F0C0C0C007E7E007F7E038D
:1005500003007F7E03037E7E03037F7E000F3E70D9
:100560003C063C703E0F00327B49493F7E007F7E57
:100570000303001E3F69696F2600000000000000B1
:10058000000000030F1F3F3C7870600000007F41B7
:1005900041417F007F4141417F00307B7F783020A7
:1005A0002030787F3B0003000F7F0F0F0F7F0F007D
:1005B0000300000000000000000000000000000038
:1005C00000000000000000000000010101070F0F03
:1005D0007F0F7F0F0F7E0F0F7F0F7F0F0F07010120
:1005E0000100000000000000000000010100000008
:1005F00000000000000000000000000000000000FB
:1006000000000000000000000000000000000000EA
:1006100000000000000000000000000000000000DA
:1006200000000000000000000000000000000000CA
:1006300000000000000000000000000000000000BA
:1006400000000000000000000000000000000000AA
:10065000000000000000000000000000000000009A
:10066000000000000000000000000000000000008A
:10067000000000000000000000000000000000007A
:100680000000000009025B00030100A0FA09040059
:1006900000010301010009211101000122400007AE
:1006A000058103080001090401000203000000099C
:1006B0002111010001222200070582032000010709
:1006C00005030320000109040200010300000009E2
:1006D00021110100012232000705840320000112CC
:1006E00001000200000008EDFE13091000010203E2
:1006F000011C037600690061006C003A0066003658
:100700000034006300320062003300630000001018
:1007100003640075006D00620070006100640000F9
:1007200000160369006D00630068006900700077BF
:10073000006F006F006400000004030904AA00A910
:1007400000AA00A9000100010001000100AA00A9FF
:1007500000AA00A90001000100010001000000241E
:1007600000250026002A0000002100220023002985
:100770000000001E001F0020002B00A800015827C9
:1007800000376228000000010001000100005C0049
:1007900000010001000100570000000100010001FC
:1007A0000056002A5D0100010001002E000000013A
:1007B0000001000100010000000100010001000132
:1007C00000000001000100010001002A5D0100019C
:1007D0000001000100000001000100010001000013
:1007E0000001000100010001000000010001000102
:1007F0000001002A5D010001000100010000DA0291
:1008000081FFD9F1DB20A4A62EAF00A0C000A1C8B3
:1008100000AED580A81FD300408D142000202020DA
:10082000200053435220002020202000434150202C
:100830000020202020004E554D2000556E64656636
:10084000696E65640041444A0A00464E0A004465E8
:100850006661756C740A004C617965723A2000FD1E
:10086000377A585A000004E6D6B446020021011631
:10087000000000742FE5A3E0019400C05D003D88F6
:1008800089C65436C3174FE4DD62AF402AC4F86A04
:100890005FA42B948D54A4EE633CD942ECE1F41197
:1008A00082FE67745B70B7375368C88DC8EB8819D0
:1008B0002A9189C7BE4CA2BE08EAEC9A6BE1E67F9A
:1008C0005F490C99D1F3E2FE1DEBDB08731BDC1EC4
:1008D0000F442CF58E51A7EDD881C2BE70261E00A4
:1008E000C8E632B1D6CD79C4673CE071A2F3BD6DE4
:1008F000F118DC2D035347BFF141D80D812B50E592
:100900000D9B3A14BA6B2D66CB0273B298DE573C3E
:1009100089DFC0CBED60425828B6321B0EA7B70264
:100920007968E9E3A1A079185A9D75D5226E2C410A
:100930008BD8E5AE89CBE52B2A209ACC975200477D
:10094000BD24A5CFEE42C10001DC0195030000F6F5
:100950008E1113B1C467FB020000000004595A0055
:100960000000000000000000000000000000000087
:100970000000000000000000000000000000000077
:100980000000007E0F00D4FFFFFFC70000007800CA
:10099000000000000000002A2B28000000000000DA
:1009A0000000000000000000000029000000002CF2
:1009B0001E3420212224342627252E362D37382791
:1009C0001E1F202122232425263333362E37381F9D
:1009D0000405060708090A0B0C0D0E0F101112135F
:1009E0001415161718191A1B1C1D2F3130232D35FD
:1009F0000405060708090A0B0C0D0E0F101112133F
:100A00001415161718191A1B1C1D2F3130354C00E0
:100A100011241FBECFEFDAE0DEBFCDBF11E0A0E0B2
:100A2000B1E0EEE9F6E602C005900D92A838B107F4
:100A3000D9F726E0A8E8B1E001C01D92A33DB207B6
:100A4000E1F70E94C9270C9400330C9400009C012C
:100A50009A9581159F4118F5F901EE27F270832FC1
:100A60008170B90166277470A9014427587034FF5A
:100A70000CC08295807FEF2B09F08062672B09F014
:100A80008064452B69F080680895EF2B09F082603F
:100A9000672B09F08460452B19F08860089580E089
:100AA0000895CF93DF93EB010E942705FE01DF91AC
:100AB000CF910994982F82958F7011F0982F84E030
:100AC000292F2695269511F08E5F922F969509F085
:100AD0008F5F08959E3F69F1E92FEE0FEE0FE90F4A
:100AE000E80F8E2F877041E001C0440F8A95EAF726
:100AF000E695E695E69583E0E89FF0011124E55B35
:100B0000FA4F30E020E070E05191DF011197CB0106
:100B1000022E02C0969587950A94E2F7817081951E
:100B20008527842385278C932F5F3F4F2330310502
:100B300059F708959E3F49F1E92FEE0FEE0FE90FA7
:100B4000E80F9E2F9770E695E695E69583E0E89F7F
:100B5000F0011124E55BFA4F50E040E080E0219184
:100B600030E0092E02C0369527950A94E2F72170ED
:100B70003327042E01C0220F0A94EAF7822B4F5F1D
:100B80005F4F4330510559F7089580E008958091F3
:100B9000020590910105981301C008958F5F877039
:100BA000FACFACE8B1E0EFEF90E02D91821751F071
:100BB000EF3F19F4211101C0E92F9F5F9630A9F78B
:100BC000EF3F09F408950E2E000CFF0BE657FE4F81
:100BD00082830895ECE8F1E09191891303C0DF016D
:100BE00011971C9291E0E239F907B1F70895982F17
:100BF0009095809122068923809322060895809102
:100C00001F06882331F010921F06109229061092B9
:100C1000280608959091D10692FF06C0282F2871CA
:100C20002830F9F4877F846093FF06C0282F28714D
:100C30002831F1F4877E84612091D20620FF06C01E
:100C4000382F38713830D9F4877F816021FF06C092
:100C5000282F28712831D1F4877E816194FD877E09
:100C60000895282F24712430F9F68B7F8860DCCF1B
:100C7000282F2471243101F78B7E8861DDCF382F36
:100C80003171313019F78E7F8860E0CF282F2171C4
:100C9000213121F78E7E8861E1CFCF93DF93EC0184
:100CA000803E910509F45EC048F58133910509F451
:100CB000A1C088F48932910509F495C08A9709F496
:100CC000A0C0C130D10529F1CE010497813A910528
:100CD00008F054C01EC089339105E9F182389105AE
:100CE000D1F1C59709F478C0C83AD10508F090C091
:100CF000C53AD10530F3A497D0640BC0843E91056A
:100D000009F44FC050F4823E9105D9F1833E91051C
:100D1000E9F1CE01DF91CF910895863E910509F466
:100D20004BC0873E910509F44CC0811523E592071D
:100D300008F08BC0811532E5930708F0FDC0C1159E
:100D400080E5D80708F077C0C11520E4D20760F22B
:100D5000DF70D06ADECF8091D1068370D1F2C0EE11
:100D6000D0E0D7CF8091D10680FD11C19091D206FD
:100D700090FFCFCFC3EED0E084FFCBCFD0E0C0E078
:100D8000C8CF8091D10682FDF5CFC3CF8091D10627
:100D900082FD00C19091D20690FDE1CF84FFB9CFD2
:100DA000EDCF8091D20681FFB4CF8091D106C7EEFE
:100DB000D0E084FDE3CFADCF8091D10683FDF7CFA6
:100DC000A8CF8091D10683FDE8C09091D20691FF13
:100DD000E5CFC4EED0E09DCF8091D10685FF99CFBD
:100DE000C9E2D0E096CF8091D10685FF92CFC5E3CE
:100DF000D0E08FCF8091D10686FF8BCFCAE2D0E0C2
:100E000088CF8091D10686FF84CFC1E3D0E081CF27
:100E1000CF3BD10508F468C0C83ED10528F4C03ED8
:100E2000D10508F4ABCF75CFCE019A9581159F41BE
:100E300008F0A4CF6ECFC11581E5D80708F45FC0D4
:100E4000DC2FCC27C16FD06A64CF811529E59207CA
:100E5000A0F5811538E5930708F086C0C11585E532
:100E6000D807C8F4C11524E5D20708F078C09E0160
:100E70002370332781E090E002C0880F991F2A95E4
:100E8000E2F7C695C69530E2C39FE0011124C82B56
:100E9000D92BDA683ECFCE0195558F3F910511F0E1
:100EA00008F06CCF8C2F0E940A06C82FD0E0DC2FF0
:100EB000CC27CC27DF71D0622CCFC1158AE5D807AB
:100EC00008F457C0CE0190568115904208F056CFD5
:100ED0008D2F8F710E940A0690E0982F882788270F
:100EE0009F718C2BEC01E7CFC85AD0E0CC0FDD1FEF
:100EF000C75ADE4F0990D881C02DD4640ACF9E0115
:100F000074E0369527957A95E1F723708C2F8695B6
:100F10008695837030E2839FC0011124922BC370A9
:100F200021E030E002C0220F331FCA95E2F7822B86
:100F3000932BEC01DC68EDCE9C012370332781E01C
:100F400090E002C0880F991F2A95E2F7C695C695D2
:100F500020E2C29FE0011124C82BD92BEBCFDC2F5C
:100F6000CC27C46FD06AD5CED82FCC27C06FD06A1B
:100F7000D0CE8C2F8F700E940A0634E0D695C7958C
:100F80003A95E1F7CF709C2FEC01D069C2CEC9E34E
:100F9000D0E0BFCEC2EED0E0BCCEC6EED0E0B9CE3F
:100FA00080E00895F894E82FE295EF70F0E041A119
:100FB0008F7021E030E0B90102C0660F771F8A957B
:100FC000E2F7CB01962F9095942391A392A1892BC0
:100FD00082A3789408951092330610923206E9E9BC
:100FE000F6E08581811102C014821682379686E070
:100FF000E13DF807B1F70895AC01309135066091F5
:101000003406232F621301C00895822F90E0FC0163
:10101000EE0FFF1FE65DF94F0190F081E02DE41720
:10102000F50791F467E0649FF001659FF00D1124CE
:10103000E756F94F41E044832313E6CF01968370CE
:1010400099278093350608950196282F2370DACFCB
:10105000FC018481862351F482818823B9F06823BE
:10106000908593FF05C081E061110FC080E0089575
:10107000282F22952F708F70282B962F92959F7076
:101080006F70962B81E02913F1CF089581E0FDCF99
:10109000E091F704F091F804309721F00190F0818D
:1010A000E02D099480E008952091B4013091B501BC
:1010B0002817390771F09093B5018093B401E0913E
:1010C000F704F091F804309721F00680F781E02DC5
:1010D000099408952091B2013091B301281739077E
:1010E00071F09093B3018093B201E091F704F09115
:1010F000F804309721F00084F185E02D09940895DB
:10110000CF93DF9300D000D0CDB7DEB78FB7F89480
:101110002091A3023091A4024091A5025091A60211
:1011200029833A834B835C838FBF69817A818B816A
:101130009C810F900F900F900F90DF91CF910895A9
:101140000F931F93CF93DF93D82FC92F409165053D
:101150005091660560916705709168052FB7F89406
:101160008091A3029091A402A091A502B091A60241
:101170002FBF841B950BA60BB70B843F9140A10595
:10118000B10528F560916505709166058091670548
:101190009091680504EF11E020E030E06093AB022D
:1011A0007093AC028093AD029093AE020093A702BD
:1011B0001093A8022093A9023093AA02D09363054A
:1011C000C0936405DF91CF911F910F9108950E9404
:1011D000800802E310E020E030E0E0CF87E797E707
:1011E000909301088093000888E19AE00FB6F89484
:1011F000A895809360000FBE90936000FFCF809110
:10120000B101089508950895FC01CB012091A40136
:101210003091A5012617370790F0009729F4209107
:10122000E8002E772093E80040E0009751F4411148
:1012300008C08091E80082FF31C080E00895C901B4
:10124000F3CF2091EB042223A9F12530A9F12091BD
:10125000E80023FD2DC02091E80022FDEACF209177
:10126000E80020FFE2CF3091F3002091F2000097D8
:1012700019F02830310558F041E02830310509F0E7
:1012800040E02091E8002E772093E800CECF4191F6
:101290004093F10001972F5F3F4FE9CF8091EB041E
:1012A000882341F0853041F08091E80083FFC1CF71
:1012B00081E0089582E0089583E0089580919E0181
:1012C00087FF13C08091E80082FF06C08091E8008C
:1012D0008B778093E80004C08091EB048111F2CFFA
:1012E00008958091EB048823D9F38091E80080FF72
:1012F000F8CF8091E8008E77ECCF2091E400309118
:10130000E50095E6A9012091EC00822F817020FF75
:1013100006C08091E80080FF06C080E0089520911B
:10132000E80022FD1AC08091EB04882389F0853003
:1013300089F08091EB0085FD0FC02091E400309191
:10134000E50042175307F9F29150E1F684E0089561
:1013500082E0089583E0089581E00895E8EDF0E0EB
:1013600080818E7F80831092E2001092DA001092CA
:10137000E100A0EEB0E08C9181608C9380818F774A
:10138000808319BCA7EDB0E08C918E7F8C93808117
:101390008F7E808310929D010895EF92FF920F93AC
:1013A0001F93CF937C018B010E947D09C82F81116F
:1013B00017C08091E80085FD0BC08091E8008E7712
:1013C0008093E8000E947D09882399F3C82F08C004
:1013D000F70181917F018093F1000150110949F7D4
:1013E0008C2FCF911F910F91FF90EF900895CF9385
:1013F0002091EB042430F1F42091E900C091EC003D
:10140000C795CC27C7952F70C22B22E02093E90007
:101410002091E80020FF0BC050E040E060E270E067
:101420000E94CD098091E8008E778093E800CF700C
:10143000C093E900CF910895982F9093E900242F4D
:10144000762F50E0891731F07091EC002091ED007B
:101450005091F00021FD06C09F5F973071F7809397
:10146000E90008953091EB003E7F3093EB0030911E
:10147000ED003D7F3093ED003091EB003160309313
:10148000EB007093EC002093ED005093F00020915E
:10149000EE0027FDE1CF0895CF92DF92EF92FF9209
:1014A0000F931F93CF93DF93C8EDD0E088818F7E99
:1014B0008883E7EDF0E080818160808384E082BFF3
:1014C00081E080939D0188818E7F888302EE10E009
:1014D000F80110821092DA0081EEC82ED12CF601AC
:1014E000108288818F77888388818068888388814B
:1014F0008F7D888319BC1092EB0410929C0110928E
:101500009D0210929B0190EEE92EF12CF701808153
:101510008B7F808388818160888342E060E080E007
:101520000E941C0AF60180818E7F8083F8018081F1
:1015300081608083808188608083F70180818E7FD5
:101540008083888180618883DF91CF911F910F9183
:10155000FF90EF90DF90CF900895CF93DF93D82F37
:10156000C92F81E08093E9008FEF9091E8008150CE
:1015700095FD06C095ED9A95F1F700008111F5CF24
:101580008091E80085FF16C050E040E068E070E020
:101590008D2F9C2F0E94CD098091E8008E7780933B
:1015A000E80088E0ED2FFC2FA9EAB1E001900D9250
:1015B0008A95E1F7DF91CF9108958093A60170930A
:1015C000A8016093A7018091EB048430F9F4809323
:1015D000E9008FEF9091E800815095FD06C095EDF0
:1015E0009A95F1F700008111F5CF8091E80085FF11
:1015F0000DC050E040E063E070E086EA91E00E94B8
:10160000CD098091E8008E778093E8000895BC01B1
:1016100083E00C94DD0ABC0184E00C94DD0ACF93D6
:10162000C82F6FEF811163ED83E290E00E94C43216
:101630006FEFC11161E684E290E00E94C4326FEF67
:10164000C11162E485E290E0CF910C94C4320F9313
:101650001F93CF93DF938901982F962B943038F501
:10166000453028F521153C4531F42091E7043091AF
:10167000E804232BE1F0C42FD0E0CC0FDD1F9AE06B
:10168000699FC00DD11D112498E2899FC00DD11D05
:101690001124612FCE0187960E94C432602FCE01A3
:1016A0008896DF91CF911F910F910C94C432DF91F6
:1016B000CF911F910F9108950F931F93CF93DF93B5
:1016C0008901843058F5962F942B923038F52115E6
:1016D0003C4531F42091E7043091E804232BF1F0EC
:1016E00098E0899FE001112484E0689FB0011124F3
:1016F000C60FD71F50E0440F551FC40FD51FC95345
:10170000DF4F612FCE010E94C432602FCE010196BF
:10171000DF91CF911F910F910C94C432DF91CF9143
:101720001F910F910895CF93DF93C7EDD1E060E053
:10173000CE010E94C4322196C11584E0D807B9F7C2
:10174000DF91CF910895CF9384E090E00E94B6326C
:10175000C82F82E290E00E94B632982F8C2FCF9152
:10176000089583E290E00E94B632833D89F484E2DA
:1017700090E00E94B632813659F485E290E00E94F2
:10178000B63291E0823409F090E0892F817008959B
:1017900080E0FCCF0F931F93CF93DF93982F962B6E
:1017A000943020F5453010F5C42FD0E0CC0FDD1F6C
:1017B0002AE0629FC00DD11D112438E2839FC00D25
:1017C000D11D1124CE0187960E94B632082F10E059
:1017D000102F0027CE0188960E94B6329801282B40
:1017E000C901DF91CF911F910F91089590E080E0A2
:1017F000F8CF462F672F2091E9043091EA04232B7C
:1018000089F47E3F39F44E3F69F480919A029091B9
:101810009B020895982F972B943020F4453010F4B4
:101820000C94CA0B90E080E00895DF92EF92FF9253
:101830000F931F93CF93DF937C010091210680913A
:101840002006082BC7E0D0E010E0DC2EC8010C2EEB
:1018500002C0959587950A94E2F780FD0CC0219708
:10186000A0F7D12C8D2DDF91CF911F910F91FF907B
:10187000EF90DF900895B7018C2F0E94F90B0E9422
:101880004D06019761F3EECF0F931F93CF93FC01A9
:10189000868197810097D9F4828100811181882304
:1018A00089F0662379F0C8010E94150CC82F682FB3
:1018B000C8010E946A05B8018C2FCF911F910F912A
:1018C0000C94F90BC8010E949A05C82FF4CFCF9150
:1018D0001F910F910895CF93DF93D82FC92F0E94A6
:1018E000150C6D2F7C2F0E94F90BDF91CF910C947A
:1018F0004D06FC01868197810097A1F00E944D065C
:10190000282F92959F709630B9F088F4925F9F705F
:10191000923030F481E0203FA9F058F4283E58F08E
:1019200080E00895808191810E946B0CE9CF9A5FDD
:10193000EECF243FA9F7089581E0283EE0F3213F50
:1019400079F7F9CF08950F931F93CF93DF938430E6
:1019500030F5623020F528E0829FE001112434E068
:10196000639FB0011124C60FD71F50E0440F551FCD
:10197000C40FD51FC953DF4FCE010E94B632082FC6
:1019800010E0102F0027CE0101960E94B632980178
:10199000282BC901DF91CF911F910F91089590E0FD
:1019A00080E0F8CF3F924F925F926F927F928F923A
:1019B0009F92AF92BF92CF92DF92EF92FF920F93DE
:1019C0001F93CF93DF93CDB7DEB76E970FB6F89422
:1019D000DEBF0FBECDBF6090E7047090E80481E0E9
:1019E00090E09093E8048093E7049DE3892E97E0CC
:1019F000992EB12CA12CF12CE12C6501412C5E2CEF
:101A000015C0F80125913491432D642D852D0E9438
:101A1000270B0E5F1F4F339485E03812F2CFA5E0FD
:101A2000CA0ED11C4394B4E04B1639F08601000F66
:101A3000111F035A184F312CE4CF8401D12CF80127
:101A40002591349140E06D2D852D0E945C0BF801AD
:101A500032962591349141E06D2D852D0E945C0BCD
:101A60000C5F1F4F81E0D81273C0AFEFEA1AFA0A79
:101A7000B8E08B0E911C84E1A80EB11CA4E0EA161C
:101A8000F10409F0BACF1A8219821C821B821E82CD
:101A90001D8218861F8288EC90E09A87898707EE5E
:101AA00010E04AE050E0B801CE0101960E94E83211
:101AB000065F1F4F0733B1E01B0799F7FE013B9606
:101AC0008AE0DF011D928A95E9F77F014AE050E044
:101AD000B801C7010E94E832065F1F4F0738B1E026
:101AE0001B07A1F7FE01759689E0DF011D928A951B
:101AF000E9F78FEF9FEF9A8F898F87E08E8F7F01B5
:101B00004AE050E0B801C7010E94E832065F1F4F6B
:101B1000073DB1E01B07A1F77092E8046092E7046B
:101B20006E960FB6F894DEBF0FBECDBFDF91CF919A
:101B30001F910F91FF90EF90DF90CF90BF90AF90EB
:101B40009F908F907F906F905F904F903F900895FF
:101B5000DD24D39474CF80E00E940F0B60E086E216
:101B600090E00E94C4320E94D20C0E94930B81E04C
:101B70000C940F0B69EE7EEF90E080E00E94E23261
:101B800060E082E090E00E94C43260E083E090E098
:101B90000E94C4321092200660E084E090E00E942F
:101BA000C43260E082E290E00E94C43260E085E0EE
:101BB00090E00E94C43260E086E090E00E94C4326F
:101BC0006FEF87E090E00E94C43240E050E0BA013D
:101BD00088E090E00E94D63260E08DE090E00E94C4
:101BE000C43240E050E0BA0188E190E00E94D63271
:101BF00060E087E190E00E94C43240E050E0BA012A
:101C00008CE190E00E94D63270E060E080E290E0EB
:101C10000E94E23240E050E0BA0188E190E00E9488
:101C2000D63280E00E940F0B0E94AB0D40E050E0E6
:101C3000BA018FE090E00E94D63240E050E0BA0155
:101C400083E190E00C94D632CF92DF92EF92FF9234
:101C50000F931F93CF93DF93CDB7DEB72A970FB6BD
:101C6000F894DEBF0FBECDBFE2E4F2E080E5DF0115
:101C70001D928A95E9F7E9E9F6E088E3DF011D9214
:101C80008A95E9F782E4C82E82E0D82E7F0107E327
:101C900011E0F701D182C0824AE050E0B801CE01E4
:101CA00001960E94A63288E0FE013196D60101908D
:101CB0000D928A95E1F789859A85D70113969C93B1
:101CC0008E931297BAE0CB0ED11CE7E0EE0EF11C1A
:101CD000065F1F4F0738F1E01F07D9F62A960FB6A7
:101CE000F894DEBF0FBECDBFDF91CF911F910F9152
:101CF000FF90EF90DF90CF9008958F929F92AF92D8
:101D0000BF92CF92DF92EF92FF920F931F93CF93E8
:101D1000DF93CDB7DEB72A970FB6F894DEBF0FBEBC
:101D2000CDBF0AEC11E088EBC82E81E0D82E97E8F1
:101D3000E92EFF24F39427E0922E37EBA32E31E017
:101D4000B32E88248394D6010D931D936D014AE030
:101D500050E0B701CE0101960E94A632F8013896F4
:101D6000DF01892D1D928A95E9F789819A81D80131
:101D700011969C938E938F8112968C9312978D81DE
:101D800013968C931397888514968C931497898552
:101D900015968C9315978B819C8117969C938E93A7
:101DA00016978A8587FD04C01E96BC92AE921D9739
:101DB00080FF02C0F801808681FF07C0D801189615
:101DC0009C911897926018969C9382FF04C0F8012A
:101DD00090859460908783FF07C0D80118969C91E6
:101DE0001897986018969C9384FF04C0F80190851A
:101DF0009061908785FF07C0D80118968C9118973D
:101E0000806218968C93015F1F4FBAE0EB0EF11CB5
:101E1000E7EDEE16E1E0FE0609F095CF2A960FB643
:101E2000F894DEBF0FBECDBFDF91CF911F910F9110
:101E3000FF90EF90DF90CF90BF90AF909F908F90EA
:101E40000895282FCB01283068F43AE0239FB00191
:101E5000112469517F4F4AE050E00E94A63290E081
:101E600080E008958FEF9FEF08958F929F92AF9239
:101E7000BF92CF92DF92EF92FF920F931F93CF9377
:101E8000DF93CDB7DEB72A970FB6F894DEBF0FBE4B
:101E9000CDBF0DE615E0F12CE12C8AE7C82E86E2D5
:101EA000D82E94EAA92E96E2B92E22E2822E27E2BB
:101EB000922EF801D182C082B382A282958284825E
:101EC000F58AE48ABE016F5F7F4F8E2D0E94210F3D
:101ED000892B29F489859A85F801938B828BFFEFF2
:101EE000EF1AFF0A0A5E1F4F88E0E816F10409F7AF
:101EF0002A960FB6F894DEBF0FBECDBFDF91CF910B
:101F00001F910F91FF90EF90DF90CF90BF90AF9017
:101F10009F908F900895CF92DF92EF92FF920F9350
:101F20001F93CF93DF936C017B0164E670E088E739
:101F30000E943E31EC018601EC0CFD1C97FD0EC0A9
:101F4000F801849164E670E00E94B731EC01892BBE
:101F500029F40F5F1F4FE016F10691F70E944432FB
:101F6000CE01DF91CF911F910F91FF90EF90DF9005
:101F7000CF9008958091E104882371F08091E0046E
:101F8000882351F062E070E082E491E00E948B0FC0
:101F9000892B11F41092E0040895CF93DF9300D0C1
:101FA00000D0CDB7DEB78091E1048823F9F00E941C
:101FB0008008DC01CB01805A9541AF4FBF4F809321
:101FC000DC049093DD04A093DE04B093DF048091E1
:101FD000E00481110BC062E070E080E491E00E94B7
:101FE0008B0F892B19F481E08093E0040F900F9000
:101FF0000F900F90DF91CF910895CF93DF93682FCB
:1020000081E06A3019F06D3029F480E0DF91CF91E2
:102010000C947E108091B5029091B60226E0FC01EE
:10202000A4E9B1E001900D922A95E1F7603E08F431
:102030005AC026E0FC0111922A95E9F7C091B50239
:10204000D091B60246E050E0BE0184E991E00E94E2
:1020500092329E01285D3240892B41F1C90145E051
:10206000969587954A95E1F741E050E0BA0102C0A4
:10207000660F771F8A95E2F7CB016091DA047091C1
:10208000DB04862B972BB9016B5F7F4FE5E07695DC
:102090006795EA95E1F702C0440F551F6A95E2F78C
:1020A000842B952B9093DB048093DA042A5F3F4FB7
:1020B0004091B702642F70E0C9010E944832481B6A
:1020C000463010F4240F311D211572E0370710F04F
:1020D00030E020E028523D4F3093B6022093B50205
:1020E000DF91CF910895F6E06F9FB00111246C5BF2
:1020F0007E4F46E050E00E948932A0CFCF93E82F78
:102100002091B5023091B602285D32404091B7026D
:10211000642F70E0C9010E944832481B842FEE23CF
:1021200061F066E00E945C32C82FC15010F4CF917C
:10213000089580E20E94FD0FF8CFA901480F511DBC
:102140004115524018F080E030E020E0280F311DAA
:1021500028523D4F3093B6022093B502E8CFCF937B
:10216000DF93EC01FE018491811103C0DF91CF91D7
:1021700008950E94FD0F2196F5CF1F921FB61F9262
:1021800011248F939F93AF93BF9380919C028111F1
:1021900013C08091A3029091A402A091A502B091D6
:1021A000A6024196A11DB11D8093A3029093A402A3
:1021B000A093A502B093A602BF91AF919F918F917A
:1021C0001F901FBE1F9018952FB7F8948091A302FF
:1021D0009091A402A091A502B091A6022FBF0895EC
:1021E0008091220690912406892B80938A01809108
:1021F0001F06882319F10E94E410209128063091CF
:102200002906821B930B8838934110F00E94FF052A
:1022100080918A0190911F06892B80938A0120E08A
:102220008CE891E0FC013081019631112F5F31E0A3
:1022300082399307B9F721110E94FF0580915F054C
:10224000809590918A01892390915E05892B8093D6
:102250008A0148E050E069EF74E08AE891E00E946A
:102260009232892BA9F088E0EAE8F1E0A9EFB4E026
:1022700001900D928A95E1F7E091F704F091F8044E
:10228000309731F00280F381E02D8AE891E00994E3
:102290000895882339F090912206892B8093220695
:1022A0000C94F0100895882339F090912406892B1E
:1022B000809324060C94F0100895CF93C82F8823A0
:1022C00009F443C08CEF8C0F813A78F4ECE8F1E02C
:1022D0008191C817A1F121E0E239F207C9F78C2FEB
:1022E0000E94D105CF910C94F01080E28C0F8830C1
:1022F00068F4C77021E030E001C0220FCA95EAF708
:1023000080912206822B80932206ECCF8BE58C0FE6
:10231000833038F42C2F2452330BC901CF910C9405
:102320005408C85AC73188F4EC2FF0E0EE0FFF1FB5
:10233000E75AFE4F80819181CF910C946A088C2FCF
:102340000E94EA050E94F010CACFCF910895CF9362
:10235000DF93EC01805E9109089720F063E571E15D
:10236000209711F469E471E1CE010E9451058C2F90
:10237000DF91CF910C945D11882329F19CEF980F88
:10238000913A20F40E94EA050C94F01090E2980F24
:10239000983050F4877091E001C0990F8A95EAF760
:1023A000892F0E94F705F0CF9BE5980F933020F41A
:1023B00090E080E00C945408885A873120F490E033
:1023C00080E00C946A0808950F931F93CF93C82F51
:1023D00010E000E0893311F400E510E08C2F0E943A
:1023E0005D110115110531F48C2FCF911F910F91C3
:1023F0000C94BC118FE99FE00197F1F700C0000039
:1024000001501109EECFAF92BF92CF92DF92EF92BF
:10241000FF920F931F93CF93DF93EC018AE0A82ED6
:102420008881882309F48EC08130D9F599818A8109
:10243000913021F422960E94E41105C0923029F4D3
:1024400022960E945D112196EBCF933021F42296C3
:102450000E94BC11F8CF943011F02196F4CF22964F
:1024600020E030E0AE014F5F5F4F8053990B8A3020
:10247000910560F02115310531F38FE99FE0019757
:10248000F1F700C0000021503109F4CFA29EB00145
:10249000A39E700D11249C01260F371F8981EA012C
:1024A000E1CFE82FF0E0E157F64FB490282F2695C2
:1024B0002695269530E0F901E158F64FE4908770B3
:1024C000F12C082E02C0F594E7940A94E2F791E00B
:1024D000E922FF24F901E159F64FC490D12C082ECE
:1024E00002C0D594C7940A94E2F791E0C922DD2492
:1024F000F901E15AF64F049110E002C015950795D5
:102500008A95E2F701701127E114F10419F081EEC8
:102510000E945D11C114D10419F086EE0E945D1174
:102520008B2D0E94E411CD2819F086EE0E94BC117B
:10253000EF2819F081EE0E94BC11012B09F483CF22
:102540008CE279CFDF91CF911F910F91FF90EF90A7
:10255000DF90CF90BF90AF900895882321F00E9424
:10256000F7050C94F0100895882341F08095909120
:1025700024068923809324060C94F010089590E09B
:1025800080E00E94540890E080E00E946A08109267
:1025900024060C94F01010922206ECE8F1E086E09C
:1025A000DF011D928A95E9F70C94BF121F93CF9318
:1025B000DF93CDB7DEB7AA970FB6F894DEBF0FBE94
:1025C000CDBF8EE991E0FC0101962091F1002083BE
:1025D00021E0863A9207B9F780919F01893009F48A
:1025E00056C0C8F4823009F4B3C0833009F482C005
:1025F000813071F18091E80083FF91C280919E014A
:1026000090919F019A3008F08AC2E92FF0E0EE5FC6
:10261000FC4C0C947C328A3009F489C08B3051F721
:1026200080919E01813231F78091A2019091A301A6
:10263000892B01F78091E800877F8093E8000E9452
:102640005E098091A001809300010E94CB12D2CF3D
:1026500080919E01813A71F68091E800877F809396
:10266000E8008091A2019091A301892B61F468E0B8
:1026700089EA91E070E00E9404098091E8008B777C
:102680008093E800B7CF60E090E080E0F3CF8091E6
:102690009E01813209F0AECF8091A2019091A301F9
:1026A0008D7F892B09F0A6CF8091E800877F8093EA
:1026B000E8008091E80082FF18C09091F3008091BB
:1026C000F200029731F48091F100813011F08630F0
:1026D00021F48091F1008093B1018091E8008B7723
:1026E0008093E8000E945E0985CF8091EB04811100
:1026F000E0CF80CF80919E01813A09F07BCF80911D
:10270000A2019091A301892B09F074CF8091E80078
:10271000877F8093E8008091E80080FFFCCF809164
:1027200000018093F1008091E8008E77D9CF8091ED
:102730009E01813209F05ECF8091E800877F80930F
:10274000E8000E945E098091A10180939A0152CF16
:1027500080919E01813A09F04DCF8091E800877FFA
:102760008093E8008091E80080FFFCCF80919A017F
:10277000D8CF803899F0823809F0D1C18091A20178
:102780008F70873008F0CBC18093E9008091EB0017
:1027900085FB882780F91092E90006C080919B0193
:1027A00090919D02911182609091E800977F9093A3
:1027B000E8008093F1001092F1008091E8008E779C
:1027C000AAC1882309F498C1823009F0A8C1809178
:1027D000A00181119BC18091A2018F702FEF280F62
:1027E000263008F09CC18093E9002091EB0020FF87
:1027F0008DC1933031F48091EB0080628093EB00C7
:1028000085C19091EB0090619093EB0021E030E066
:1028100001C0220F8A95EAF72093EA001092EA009D
:102820008091EB008860EACF811179C11091A001FD
:102830001F778091E3008078812B8093E300809163
:10284000E800877F8093E8000E945E098091E8009D
:1028500080FFFCCF8091E30080688093E30082E0FA
:10286000111183E08093EB045AC18058823008F044
:1028700056C14091A0015091A1014C3D83E0580701
:1028800099F583E08A838AE289834FB7F894DE0161
:10289000139620E03EE051E2E32FF0E05093570022
:1028A000849120FF03C082958F703F5F8F708A30C4
:1028B000C8F0895C90E08D939D932F5F243161F780
:1028C0004FBF8091E800877F8093E8006AE270E064
:1028D000CE0101960E9404098091E8008B778093D5
:1028E000E8001DC1805DE6CF8091A2019091A30117
:1028F000252F33272330310509F44AC078F52130DC
:10290000310509F486C08BE590E0E4E8F6E022307A
:10291000310509F004C12091E800277F2093E800E9
:102920002091A4013091A5018217930708F49C011E
:1029300040E02115310509F071C041116FC080914F
:10294000E80082FDC9CF8091EB04882329F285300D
:1029500019F28091E80083FFF2CFBECF213231051A
:1029600009F448C02232310509F0D9C083309105FD
:1029700008F0D5C0FC01EE0FFF1FE85DFE4F01908F
:10298000F081E02D8B5D9E4FDC018C9190E026C0A4
:10299000CA019927423031F18330910568F40097DC
:1029A000B1F0019709F0BBC0E1E2F7E0E4918E2FAE
:1029B00090E0E1E2F7E012C0039709F0B0C0E1EF68
:1029C000F6E0E4918E2F90E0E1EFF6E007C0E9E356
:1029D000F7E0E4918E2F90E0E9E3F7E0009709F447
:1029E0009EC099CFEFE0F7E0E4918E2F90E0EFE00A
:1029F000F7E0F4CF8330910508F091C0880F991F5C
:102A0000FC01E25DFE4F0190F081E02D89E090E055
:102A100082CF82E190E0EFEDF6E07DCF8091EB0494
:102A2000882309F459CF853009F456CF8091E80006
:102A300083FD52CF8091E80082FD81CF8091E80034
:102A400080FF77CF9091F3008091F200211531053E
:102A500019F08830910550F041E0089709F040E006
:102A60008091E8008E778093E80063CF4491409393
:102A7000F1003196215031090196E8CF803809F0F4
:102A80004EC08091E800877F8093E80080919C0190
:102A90008093F10092CE811142C01091A0011230BA
:102AA000F0F58091E800877F8093E80010939C0107
:102AB0000E945E09112311F084E005C08091E300BB
:102AC00087FDFACF81E08093EB0442E061EC81E086
:102AD0000E941C0A42E261EC84E00E941C0A42E26D
:102AE00061EC82E00E941C0A42E260EC83E00E94FA
:102AF0001C0A8091EB0413C08091A001813079F40D
:102B000081E0933009F080E080939D021092E9000B
:102B10008091E800877F8093E8000E945E098091A1
:102B2000E80083FF0AC08091E800877F8093E80077
:102B30008091EB0080628093EB00AA960FB6F89428
:102B4000DEBF0FBECDBFDF91CF911F91089580935F
:102B500020060C94BF12809321060C94BF1221E032
:102B600030E001C0220F8A95EAF780912106822B7E
:102B70000C94AB1521E030E001C0220F8A95EAF7F2
:102B800020958091210682230C94AB159091250607
:102B90008095892380932506282F2770B1F4282F4C
:102BA000082E000C330B9217130679F09091D20681
:102BB00092FD0BC08595859585950E94BA1510925A
:102BC000250610922706109226060895CF93C091ED
:102BD000D206C2FB992790F9981799F080FBC2F9A9
:102BE000C093D2066091D10684E090E00E94C43286
:102BF0006C2F82E290E00E94C43282E0CF910C946C
:102C0000C615CF91089580912106982F9670963021
:102C100019F488600C94AB15877FFCCFCF93DF93BA
:102C2000EC01898981111BC081E0898B809122068A
:102C30009F81892B80932206809124069885892B79
:102C4000809324060E94F010EA81FB816C897D89C3
:102C5000309729F0CE010696DF91CF910994DF914C
:102C6000CF910895EF92FF920F931F93CF93DF932D
:102C7000EC018A85811138C0EB80FC8087E5F81A69
:102C800026E12E9DC0012F9D900D1124DC01A3593A
:102C9000BA4F1496ED91FC911597309731F05496F8
:102CA0006D917C918D589A4F099586E18E9D80019A
:102CB0008F9D100D112403591A4FF80187810E942E
:102CC000F705F801908590958091240689238093DB
:102CD00024060E94F010188219861B861E821D820F
:102CE00010926C0510926B05DF91CF911F910F919F
:102CF000FF90EF9008951F93CF93DF93182FA0912B
:102D00006105B0916205109709F448C010926405FE
:102D10001092630510925F0510925E051696CD9194
:102D2000DC911797CE019A9581159F4108F4D07ECA
:102D3000D1E0C11101C0D0E01996ED91FC911A9734
:102D4000309731F01B966D917C9180E00995D823E6
:102D5000DD2339F08CEF8C0F813A20F58C2F0E9407
:102D6000EA05112399F0E0916105F09162058085F3
:102D700084FD0CC080916005882341F080819181A1
:102D80009C0121503109253A3D4590F00E94F010F8
:102D9000109262051092610510926005DF91CF914B
:102DA0001F9108950E94F0108C2F0E94BC11D9CF62
:102DB0000E94A008EBCF9091D20692FD10C098E03F
:102DC000899F90011124622B609325060E94AF1504
:102DD0000E94E410909327068093260608950C9491
:102DE000AF159C014FB7F8948091A3029091A40273
:102DF000A091A502B091A6024FBF821B930B08952C
:102E00005F926F927F928F929F92AF92BF92CF927A
:102E1000DF92EF92FF920F931F93CF93DF9300D037
:102E200000D0CDB7DEB71A8219821C821B8280E5E2
:102E3000E82E81E0F82E8E010F5F1F4F94E5C92E1A
:102E400091E0D92E3801AA24A394B12C39E5832E20
:102E500031E0932EF70181917F018F3F09F440C04B
:102E6000F894E82FE295EF70F0E021A18F70A501B2
:102E700002C0440F551F8A95E2F7CA01922F982B82
:102E800091A392A18095892382A3789400C0E4E560
:102E9000F1E031E0512C21912F3F09F465C0A22FC0
:102EA000A295AF70A05EB0E08C9190E02F7002C050
:102EB000959587952A95E2F780FD56C0832F582A6D
:102EC000330F8E169F0639F7F701319780818F3FB8
:102ED00011F00E94D20750EA5A95F1F7F80150829A
:102EE0000F5F1F4FCE14DF0409F0B4CF44E050E071
:102EF000B30183EF94E00E9492329C0111E0892B90
:102F000009F410E0232B91F189819A81AB81BC8176
:102F10008093F3049093F404A093F504B093F60423
:102F200081E08093EE040E94E4109093ED0480937E
:102F3000EC048091EC049091ED040E94F116059749
:102F4000C8F08091F3049091F404A091F504B0913D
:102F5000F6048093EF049093F004A093F104B093EF
:102F6000F2041092EE0406C080E0A9CF8091EE0436
:102F70008111DFCF812F0F900F900F900F90DF9175
:102F8000CF911F910F91FF90EF90DF90CF90BF9066
:102F9000AF909F908F907F906F905F900895FF9279
:102FA0000F931F93CF93DF93C62FD42F122F882315
:102FB000A9F060931D060E94E41090939301809302
:102FC0009201C77081E001C0880FCA95EAF7DF91CE
:102FD000CF911F910F91FF900C94491180911D0684
:102FE000681334C080919201909193010E94F11670
:102FF000883C910558F500E20D0FCD17A9F0C77078
:10300000FF24F3948F2D01C0880FCA95EAF70E9420
:10301000AD12083048F48D2F877001C0FF0C8A95DF
:10302000EAF78F2D0E944911812F0E94E411083088
:10303000A0F4D77081E001C0880FDA95EAF7DF913C
:10304000CF911F910F91FF900C94AD12C77081E04A
:1030500001C0880FCA95EAF7F2CFDF91CF911F9197
:103060000F91FF9008952F923F924F925F926F922F
:103070007F928F929F92AF92BF92CF92DF92EF9208
:10308000FF920F931F93CF93DF9300D000D000D017
:103090000F92CDB7DEB77C01DC019C9111968C912B
:1030A000119713962D913C91232B21F089238F3F6B
:1030B00009F0FCC627960FB6F894DEBF0FBECDBF51
:1030C000DF91CF911F910F91FF90EF90DF90CF9004
:1030D000BF90AF909F908F907F906F905F904F9038
:1030E0003F902F900895D60116968C9116978823BD
:1030F000D1F019968D919C910817190739F4809198
:103100006B0590916C050817190769F0F601978611
:1031100014870387C6010E940E16C60106960E94F8
:10312000321610922406FFEFAF1ABF0A26E1C20E34
:10313000D11CD4C6C80182519F45409708F0AAC649
:103140008FEF93E00E94B6324EEED42ED00E07EDF4
:1031500011E08823B1F180912506877009F4AACF88
:10316000D70112968C91882309F4A4CF8091D206BE
:1031700082FDA0CF82E027960FB6F894DEBF0FBE87
:10318000CDBFDF91CF911F910F91FF90EF90DF9016
:10319000CF90BF90AF909F908F907F906F905F90F7
:1031A0004F903F902F900C94C615011534E01307F3
:1031B00091F2C8010E94B632811101C0DA940F5F0A
:1031C0001F4FD110F2CF8091180190911901A09159
:1031D0001A01B0911B0189839A83AB83BC83CC24F1
:1031E000CA9448018FEF881A980AC8010E94B63223
:1031F00089831A82882309F4AECF813009F074C024
:10320000580192E0A90EB11CC4010E94B632D82E1A
:103210008A83882309F49FCFC5010E94B632982E75
:103220008FEF8D0D833068F45801A3E0AA0EB11C16
:103230009B82992021F0CE0101960E940312850104
:10324000D0CF8BEF8D0D833030F5C80103969B8274
:103250005C019920A1F35801B4E0AB0EB11C0E94AF
:10326000B6328C83882359F38B819C818130EFEFB8
:103270009E0710F0982F8827F6E0DF1631F027E040
:10328000D21631F00E946E26DACF0E94FC25D7CFED
:103290000E942A26D4CF34E0D312D1CF580184E043
:1032A000A80EB11CC80103960E94B632282F99209F
:1032B00009F451CF882309F44ECF2150330BC29E1D
:1032C000A001C39E500D1124A92DA150BB0BCD010F
:1032D000840F951F019708F4B2CFEFE9FFE0319713
:1032E000F1F700C00000F6CFCE0101960E94031254
:1032F0005401A5CF81E00E94AF150E9403162BCF89
:1033000081E00E94BA15F9CF82E0FBCF823009F04C
:103310002FC68091580590915905892B09F428C62C
:1033200026E12C9DC0012D9D900D112483599A4FAB
:10333000DC0150961C920E940E161AC681E0809302
:10334000140109CF80911401882309F4EAC44801CB
:1033500080EE881A91082090230680912206282A60
:1033600080911F06282A98E08916910408F056C01B
:1033700098012770332781E090E001C0880F2A95DB
:10338000EAF7332009F447C0282AD7018D919C9190
:103390000E949A0521E030E0390102C0660C771CDA
:1033A0008A95E2F7E0916105F0916205FF83EE8373
:1033B0004090690550906A051D822D81E22FF0E052
:1033C000EE0FFF1FE854FE4FC080D180C114D1041E
:1033D00009F44BC5211005C0D60112968C918111BC
:1033E00016C0F601838190E086219721892B79F020
:1033F0008085982F977009F487E0F8E08F16910484
:1034000038F5332009F186958170811125C09D81A1
:103410009F5F9D83D2CF80952822B7CF332009F4B8
:103420000DC510936A05009369050E94800860939A
:103430006505709366058093670590936805109203
:10344000640510926305A1CF82FB882780F9DDCF48
:103450003320E9F280FFDBCFD601AD90BC900A1596
:103460001B0511F4332099F2EE81FF81CE16DF06A1
:1034700071F2D6011D96ED91FC91309719F0808183
:10348000882329F2622DC6010E942808882309F4A6
:10349000BECF0A151B0509F089C50115110509F4F0
:1034A0008AC531108AC5A414B50409F0B0CF312CF7
:1034B00084C50E94BC119FC50497813A910548F4C8
:1034C0008A2D0E94D105332009F42BC40E94F010EC
:1034D00042CE0E94F0108FE39CE90197F1F700C003
:1034E00000008A2D0E945D11EECFFC012081318108
:1034F0000217130709F00EC431100EC410926005B4
:1035000080E0C5C4882309F461C4F9018189882356
:1035100009F45CC4C5018D589A4F0E94321656C4F6
:10352000033FFCE51F0769F1A8F4083D3CE51307DC
:1035300021F128E241E0093D9CE5190701F126E26D
:1035400041EE61EE073DACE51A0709F03FC40E9469
:10355000CF1701CE053FBCE51B07B9F027E245EECA
:1035600066EE063FECE51E0791F327E245EE64EEBA
:10357000043FFCE51F0759F329C427E245EE65EE39
:10358000E6CF26E241EE60EEE2CF26E241EE62EEC9
:10359000DECF98012A5F3C452930310508F42EC45E
:1035A00006312CE5120709F040C1809122069923CB
:1035B00009F431C18A7A91E009F490E090931E06F3
:1035C000811127C189E20E94D10580CF053A3DE5EE
:1035D000130709F413C4F70186819781009709F452
:1035E0005AC10E944D068C01F701B280A580A294B9
:1035F0009FE0A922809125068770C1F0DB2CBB20BB
:10360000B1F0812F807F803421F080E2800F8830FC
:1036100068F08091D20682FD09C082E00E94C61542
:10362000809125068770DD24D3948111D12CC12E81
:10363000C2948FE0C822F8E0CF1609F464C2FC15EA
:1036400008F480C123E02C1508F43CC1812F807F51
:103650001F7031E03C1508F089C1803211F01295DD
:10366000107F002309F4B8C1013009F415C2BB2052
:1036700009F41EC2AA2009F4F1C1D70115968C9154
:10368000159780FF88C18F7015968C93E7C1F8015C
:10369000E350FC458091D1068160E331F10530F5BE
:1036A000E45FFC4C0C947C320330ADE51A0778F4EF
:1036B0000A3FBCE51B0708F4B1C3F801EB5FFC450A
:1036C000E830F10510F5E15EFC4C0C947C320136DB
:1036D000EDE51E0709F496C09091D106892F8E7FE3
:1036E00090FF8160053A1D4509F098C38093D1068B
:1036F00095C38091D1068260F9CF8091D106846014
:10370000F5CF8091D1068860F1CF8091D20681609B
:103710008093D20683C38091D2068260F9CF8091D4
:10372000D1068061E3CF8091D1068062DFCF8091A6
:10373000D1068064DBCF0E94CB128091D1068068D5
:10374000D5CF8091D1068C60D1CF8091D206836095
:10375000DFCF8091D1068E7FC9CF8091D1068D7F3A
:10376000C5CF8091D1068B7FC1CF8091D106877F55
:10377000BDCF8091D2068E7FCBCF8091D2068D7F38
:10378000C7CF8091D1068F7EB1CF8091D1068F7D3A
:10379000ADCF8091D1068F7BA9CF0E94CB128091B3
:1037A000D1068F77A3CF8091D106837F9FCF809161
:1037B000D2068C7FADCF8091D10682FB992790F9FC
:1037C00021E0922790FB82F990FB83F98FCF8091C3
:1037D000D206982F909591708E7F892B90FB81F95E
:1037E00097CF0E94CB129091D106892F97FB87F932
:1037F00080587CCF61E08EE090E00E94C4320EC31E
:1038000060E0F9CF9091D106892F8F7E94FF80617F
:103810006DCF85E3D8CE80911E06811104C089E268
:103820000E94EA0553CE85E3FBCF992309F4D3CE5A
:103830000A353DE5130759F158F401159CE51907C0
:10384000C9F00E3D1C4509F0C6CE0E94BA0D83CCCE
:103850000B35BDE51B07E9F00C351D4509F0BBCE66
:103860008091D20682FB882780F991E089270E9407
:10387000E615B1CE0E94CB12FFEF24E33CE0F150FD
:1038800020403040E1F700C000000E94EE0881E0D7
:10389000EECF80E0ECCF8281C080D180882369F0B8
:1038A000C6010E94150C182F682FC6010E946A05D8
:1038B000B601812F0E94F90B94CEC6010E949A0591
:1038C000182FF6CF84E0C81609F403C12C2D285018
:1038D000330B2430310510F40E944808DD20B1F08C
:1038E0008091250680FD12C0D70112961C92859505
:1038F000859585950E94AF15C7010E943318809168
:1039000025068595859585950E94BA1560E0C701C5
:1039100027960FB6F894DEBF0FBECDBFDF91CF91D3
:103920001F910F91FF90EF90DF90CF90BF90AF90DD
:103930009F908F907F906F905F904F903F902F90CF
:103940000C94440C99E0C91609F44DC186E08C0D25
:103950008F70823008F0BACF023F09F053C1812F37
:103960008F71B1104CC10E94AF15B0CF882311F0F8
:103970001295107FBB20B9F0112369F080E2800F0F
:10398000883010F0011109C080912206812B8093AC
:1039900022060E94F010802F2FC080912406812BD8
:1039A00080932406F6CF802F0E94BC11112309F4C6
:1039B0008DCF80E2800F883010F0011104C0812F7C
:1039C0000E94F70506C010958091240681238093FC
:1039D00024060E94F0107ACF8091D20682FF16C092
:1039E000BB2069F0112339F080912206812B80934E
:1039F00022060E94F01080E00E945D1167CF80E0F7
:103A00000E94BC11112309F461CFD9CFBB2041F131
:103A1000A11006C080911F06812B0E94491156CF2C
:103A2000A1E0AA1211C082FD51CF80911F06182B70
:103A3000181709F44BCF0E94E41090932906809345
:103A4000280610931F0642CFB5E0AB12E3CF0E94C9
:103A5000FF0580912306181310932306812FDDCFD5
:103A6000A11006C00E94FF05812F0E94AD122ECF2B
:103A7000E1E0AE120CC080912206812309F426CF2A
:103A800080912306882371F310922306EBCFF5E093
:103A9000AF1609F41BCFE6CFBB2029F022E02A1590
:103AA00008F414CFDBCF31E03A1508F40FCFDCCFA8
:103AB000AA20D1F2093349F4BFEFE7EEF3E0B150A9
:103AC000E040F040E1F700C00000802F0E94BC11F0
:103AD000FDCE812F86958695837061F0813009F047
:103AE000F5CEC8019370B11002C090E080E00E9452
:103AF0006A08ECCEC8019370B11002C090E080E07B
:103B00000E945408E3CE812F8370A1F5B110DECE60
:103B1000802F829586958770880F880F402F4F7071
:103B2000082E01C0440F0A94EAF7202F207104FFE9
:103B300007C02FE030E001C0220F8A95EAF72095F8
:103B4000169516951370123081F0822F842B133046
:103B500031F080912006113029F0242B82230E941D
:103B6000A715B4CE842B822BFACF242B809120066C
:103B70008227F5CFBB2061F110FFA8CE802F829560
:103B800086958770880F880F402F4F70082E01C0D0
:103B9000440F0A94EAF7202F207104FF07C02FE09A
:103BA00030E001C0220F8A95EAF720951695169508
:103BB0001370123099F0822F842B133031F08091E2
:103BC0002106113041F0242B82230E94AB157ECEBA
:103BD00011FF7CCED3CF842B822BF7CF242B809167
:103BE00021068227F2CF1F70BB2029F0812F0E946F
:103BF000AF15802F12CF802F0E94AD12812F0E940F
:103C0000BA1564CE033F60F4003FB9F0013F81F084
:103C1000BB2009F46FC0A110BECE812F8F71A3CE3F
:103C2000033F09F1043FA1F78091D20682FF26C02D
:103C3000812F8F71BB2019F396CEBB2079F021E044
:103C40002A1508F443CE1F7181E090E001C0880F6F
:103C50001A95EAF7909121068927B7CF32E03A15F5
:103C600008F434CEF0CF80E0BB2009F4AECF1F7152
:103C700081E001C0880F1A95EAF7A7CF809123064B
:103C8000BB20F9F00E94F7058091250687708430EB
:103C900061F4109225061092270610922606812FB5
:103CA0008F710E94BA15D12C11CE84E08A15D8F3F9
:103CB0001F71812F0E94AF1563E0812F0E94DB16D8
:103CC000F2CF90912206982B9093220694E09A15B9
:103CD00068F410922506109227061092260681118C
:103CE0001092230664E0812F8F71E8CF81E00E945B
:103CF000C615D9CFAA2059F0093309F0E6CEAFEFA7
:103D0000B7EEE3E0A150B040E040E1F7DCCE812F18
:103D10008F7175CF332029F0DC0118968C9185FFC7
:103D2000EFCB98013755F70182812F3F310511F014
:103D300008F0F6CB40911501509116014217530738
:103D400024F4309316012093150196E1929F5001BF
:103D5000939FB00C1124950123593A4F6901D90161
:103D600050968C935097F701928116968C911697E6
:103D7000992309F4C7CB1A961C930E9319978F5F5A
:103D800016968C930E94E410D6011E969C938E93F7
:103D90001D9780911F0617968C9317978091240684
:103DA00090912206892B18968C931897ED91FC918F
:103DB0001197309739F054966D917C91C5018D58CB
:103DC0009A4F099510936C0500936B05D7011296D5
:103DD0009C91992309F4E4CB10921D060136BDE5B0
:103DE0001B0761F008F0F2CB0631FCE51F0708F075
:103DF000D0CB02302CE5120708F41FCD0E94A30B94
:103E00009093D2068093D10606318CE5180708F00E
:103E10004BCC02309CE5190708F039CC6091D106F3
:103E20001091D20684E090E00E94C432612F82E2B9
:103E300090E00E94C4320E94CB128DC98091690526
:103E400090916A050817190781F410926A0510927B
:103E5000690510926505109266051092670510922B
:103E60006805109264051092630580916105909138
:103E70006205009709F455CFA8E08A16910408F06E
:103E800034CB622D0E94280881114BCF81E00E9423
:103E90007B1647CF0031FFE51F0709F42BCA01311C
:103EA0002FE5120709F064C082E025CA61E0C7016E
:103EB0000E94440C8C01D70112968C918823B1F09A
:103EC0008091150190911601019681F05DE6C52E55
:103ED00055E0D52EB12CA12C9924939480911501F5
:103EE000909116018A159B050CF0FDC8F70182819F
:103EF000811120C900313FE5130709F401CA0131DE
:103F00008FE5180709F400CA680127E5D21A3FEFC8
:103F1000C316D10409F060F564E575E08C2D0E94AC
:103F2000210F892B29F586E18C9DF0018D9DF00DE7
:103F30001124E359FA4F8681813009F0E7C9809155
:103F4000540590915505892B99F0809156059091D3
:103F50005705892B69F0809158059091590520915A
:103F60005A0530915B05822B932B892B09F4D8C914
:103F7000F7013280332009F4E5C90F35FDE51F074D
:103F800009F4DCC900362DE5120751F00E353DE588
:103F9000130709F0D7C980911401882309F4CEC909
:103FA0001092140180E00E947B16D5C8A114B104C0
:103FB00009F079CA312CB12CA12C80E00E947B162B
:103FC000D0926205C092610581E080936005F601A0
:103FD000858180935F0531100EC0AB2861F0F6013A
:103FE000808191819C0124503109213A310508F0EA
:103FF00060CA0E94EA05D6011696AD90BC90C50134
:104000009A9581159F4110F4E0EEBE2277247394B7
:10401000C5010197853A9D4508F0712CD601199686
:10402000ED91FC911A97309731F01B966D917C9130
:1040300081E009957822772079F0F60186819781D1
:104040000E94270580935E05C501F8E08F16910454
:1040500008F032CA0E94A0080E94F01034CACF9320
:10406000DF9380914805807FA1F4809145058823E6
:1040700081F080910205C091010570914305609126
:104080004405A0914605B0914705D62FD723C81304
:1040900003C0DF91CF91089590E0109711F0DF3FBA
:1040A00019F401968770F3CF9C0143E0220F331F70
:1040B0004A95E1F7F901ED5FFA4F41816413F1CFC1
:1040C00040814713EECF42814111EBCF43815481B0
:1040D0004A1B5B0B483C510520F7809148058F70C7
:1040E000806180934805F901E85FFA4F80818F7005
:1040F0008061808383E495E00E943318DF91CF9143
:104100000C94C7058F929F92AF92BF92DF92EF926D
:10411000FF920F931F93CF93DF93CDB7DEB72D9709
:104120000FB6F894DEBF0FBECDBF8C0185E0F8015D
:10413000DE01199601900D928A95E1F7F801E2806F
:10414000A380B48083E4882E85E0982E9091430567
:104150008091440520914605309147052115310590
:1041600029F0482F49234F3F09F051C1EE2009F4AF
:104170005CC1C8010E94790CF82E882309F455C14E
:1041800088E0F801A3E4B5E001900D928A95E1F78B
:104190000E942F202AC0D09048054D2D407F283CFA
:1041A000310508F0B5C0F80121814111CEC0FE2CC7
:1041B00028132EC0808189132BC04091490550914E
:1041C0004A05868197814817590711F5E11020C0EB
:1041D0008D2D8F7080618093480583E495E00E9467
:1041E000331880914805F80185838F2D2D960FB6E1
:1041F000F894DEBF0FBECDBFDF91CF911F910F911D
:10420000FF90EF90DF90BF90AF909F908F900895B8
:104210003985AB2829F0822F83238F3F09F092C084
:1042200080E0F82FF170DF2EE0910205409101054A
:1042300080FD1DC0EE20C9F2809148058160809309
:104240004805F12CD2CF8E2F90E058E0E59FF00189
:104250001124ED5FFA4F5181251306C0508153138D
:1042600003C052815E11E6CF0196E82FE770E41398
:10427000EACF89859A850E946B0C292F22952F7091
:10428000903260F0225F2F70223078F49F7051F0EE
:10429000F8019581907F31F4D12C0AC09F7011F004
:1042A0008823D1F3805E8830B8F3C8010E943318A8
:1042B000FD2C9BCFC8010E94790C882309F4B5C05E
:1042C000EE2009F4B2C0809148058032A0F08091C0
:1042D0004305909144059A8389831B82BD82AC82F9
:1042E000DE828091490590914A0598878F83CE019F
:1042F00001960E94331888E0F801A3E4B5E001902C
:104300000D928A95E1F70E942F20FF24F3946DCF40
:1043100041113AC083E495E00E94331888E0F4012B
:1043200011928A95E9F78DCFC8010E94790C81110D
:10433000E2CF80914805816080934805C8010E94C2
:10434000331853CF81E08E256CCF2813B3CFF801FB
:1043500080818913AFCF2091490530914A0586812C
:1043600097812817390709F0A5CFE110A3CFD5828F
:10437000C8010E94331888E0F801A3E4B5E0019079
:104380000D928A95E1F731CFF8012181821392CF06
:10439000F801808189138ECF2091490530914A051B
:1043A000868197812817390709F084CFE11082CFE1
:1043B000D582C8010E94331888E0F40111928A95D1
:1043C000E9F713CFF80121818213AECFF801808184
:1043D0008913AACF2091490530914A05868197819A
:1043E0002817390709F0A0CF8091480580FDC3CF79
:1043F000982F907F09F4BFCF8583903F09F4B8CF01
:10440000982F907F905F8F70892B8583B1CFF0902C
:104410004505A501421B530B9A01F110BCCE283C67
:10442000310550F6FE2CE110CDCFC8010E943318A3
:104430006CCFCF93DF93CDB7DEB760970FB6F8940C
:10444000DEBF0FBECDBF29873A874B875C876D875C
:104450007E878F87988BCE0109960E9482208111DA
:1044600016C088E0FE013996DE01119601900D928A
:104470008A95E1F799858A85A09101052091020529
:104480004C855D85452B19F089238F3FA9F58091D7
:1044900002059091010589131CC060960FB6F8942F
:1044A000DEBF0FBECDBFDF91CF91089593E0AA0F7D
:1044B000BB1F9A95E1F7AD5FBA4F98E0FE013196C8
:1044C00001900D929A95E1F7809301050E94C7052E
:1044D000DECFB8E08B9FC00111248D5F9A4F0E9400
:1044E00082208823D1F28091020590E001968770A6
:1044F000992780930205CBCFB0E0CD01019687705C
:1045000099272817190691F60E94CB1210920105DF
:104510001092020588E0E3E4F5E0DF011D928A9540
:10452000E9F7B5CF0F931F93CF93DF938091960652
:10453000E091B6011CE081111EC0DF91CF911F9167
:104540000F91089501E00E0F0093B601CE2FD0E039
:104550001E9FD0011124AA5CB94F13968D919C9196
:104560001497892B39F08C9111969C91119789237E
:104570008F3F51F4E02F80919606E81718F31092C0
:1045800096061092B601D9CF16968D919C911797E9
:10459000892B29F418968D919C91019679F4E19FCD
:1045A000F0011124EA5CF94F20813181428153816D
:1045B00064817581868197810E9419221C9FF00178
:1045C0001D9FF00D1124EA5CF94F148213821092A2
:1045D0002406D0CF3F924F925F926F927F928F923C
:1045E0009F92AF92BF92CF92DF92EF92FF920F9382
:1045F0001F93CF93DF9300D000D0CDB7DEB72091CB
:104600003506298317E0812E01E010E08CE0382E7A
:104610009EEF992E4424439480913406F9818F13A0
:1046200019C00E9492220F900F900F900F90DF916F
:10463000CF911F910F91FF90EF90DF90CF90BF909F
:10464000AF909F908F907F906F905F904F903F9032
:104650000C94EB079981892F90E09C838B83FC015C
:10466000EE0FFF1FE65DF94F80819181889ED0019A
:10467000899EB00D1124FD01E756F94FFA83E983B5
:104680002481211157C050909606E6E3F6E050E0F1
:1046900040E0712C451508F04BC0A284B384A98179
:1046A000BA81CD90DC902FEF3FEF612C662D70E04A
:1046B0007B01EE0CFF1CEC0CFD1CD701ED90FC9077
:1046C000E114F10431F0AE14BF0409F49B016394CA
:1046D000EDCF2F3F3207C1F1D80102C0AA0FBB1F97
:1046E0002A95E2F77A2A980102C0220F331F6A94B2
:1046F000E2F7215031097216130621F5349EF001BC
:10470000359EF00D1124EA5CF94F889ED001899EF8
:10471000B00D1124A756B94F12962D913C911397C5
:1047200037832683908291829187808715964C9259
:104730000E94FC07EB81FC813196FA83E983E370E8
:10474000E9836ACF148213824F5F5F4F3C96A2CFFA
:1047500010929806109297061092170180913406D5
:10476000809335060E94EB070C9492222F923F9281
:104770004F925F926F927F928F929F92AF92BF9271
:10478000CF92DF92EF92FF920F931F93CF93DF931D
:10479000CDB7DEB76B970FB6F894DEBF0FBECDBFB7
:1047A000498B5A8B6B8B7C8B8D8B611110922406FD
:1047B0001E861F86188A85E0FE017196DE01199615
:1047C00001900D928A95E1F78091D20682FD1CC07E
:1047D0000E94E4102091260630912706821B930B3D
:1047E0008838934120F08091250682FF01C20E9403
:1047F000E4102091280630912906821B930B8838FB
:10480000934110F00E94FF0589859A852C853D858E
:10481000232B21F089238F3F09F0D6C129853A85C2
:104820004B855C856D857E858F8598890E941922D0
:10483000C3C068EFC6166CE5D60629F4882379F064
:104840000E94A823EBCF79EFC7167CE5D70639F491
:10485000882329F0809117018111F2CFC5C109E9A0
:1048600016E0E12CB12CA12C88248394912C9EEF8E
:10487000592E44244394F8014081518166246A945E
:1048800077247A9420E0822F90E0FC01EE0FFF1F46
:10489000E40FF51F608171816115710531F0C61655
:1048A000D70609F43C012F5FEECFF12CFFEF6F1616
:1048B0007F0609F443C0F8014481F09017018F2D61
:1048C000411180E0F82FF170FF2EF80125808681DC
:1048D0009B85992309F40BC1FF2009F408C121101D
:1048E00013C0A40101C0440F6A94EAF7842B8683A5
:1048F0008091320690913306C29730F462E370E003
:104900007093330660933206C40102C0880F991F6A
:104910002A95E2F70197F80126812817190671F404
:104920008091970690919806009709F45EC00E94C6
:10493000F116C39708F459C0F8014482EF28FFEF3D
:10494000AF1ABF0A095F1F4F28E0A216B10409F091
:1049500092CF8B85882309F422C1EE2009F41FC170
:104960000E94E41090939806809397068091960693
:10497000883010F591E0980F9093960698E0FE012C
:104980003996DE01119601900D929A95E1F73CE07F
:10499000839FC00111248A5C994F28E0FE01319663
:1049A000DC0101900D922A95E1F72FEF3FEFFC011A
:1049B00031872087D386C2866B960FB6F894DEBF08
:1049C0000FBECDBFDF91CF911F910F91FF90EF9060
:1049D000DF90CF90BF90AF909F908F907F906F901F
:1049E0005F904F903F902F90089580913506F09101
:1049F0003406FE8B982FE0E0F0E00B8F512F2E89CC
:104A0000821314C0909335060E171F0709F496CF32
:104A100090E0FC01EE0FFF1FE65DF94FB182A0822E
:104A20000196837099278093340688CF282E312CE5
:104A3000F101EE0FFF1FE65DF94F6081718127E004
:104A4000269FD001279FB00D1124A756B94F6D9115
:104A50007C9111977A8F698F40E020E030E0E32F5E
:104A6000F0E0EE0FFF1F698D7A8DE60FF71F608073
:104A7000718061147104E1F0F8010190F081E02D82
:104A8000F88FEF8B20E005C06616770609F44F2DEE
:104A90002F5FE22FF0E0EE0FFF1F6F89788DE60F9A
:104AA000F71F608171816115710571F73F5FD7CF85
:104AB0004423D1F0EB8DF52F231708F0FD0144823C
:104AC0000E171F0721F490933506F42E37CF981355
:104AD00005C0AE17BF0711F49F5F937091012F5F60
:104AE0003F4F822F83708BCFE0E0F0E0F7CF90E074
:104AF00021101FC0B40102C0660F771F2A95E2F78C
:104B00009B01215031092817390731F4442309F456
:104B100044C0C5010E94FC07C40101C0880F6A940B
:104B2000EAF7982F9095F801868189238683F22CE5
:104B300005CFAC01062C02C0559547950A94E2F7C3
:104B40009C012150310982239323892B11F540FFC9
:104B500020C0F80182819381892BC1F01B821C82C5
:104B60001D821E8259825A820E94E4108160582F51
:104B7000692F9D838C83F801828193818F8398872D
:104B800029813A814B817E810E941922F801158288
:104B9000C3CFF42FF1702F2EBFCF2F2CBDCF90910C
:104BA000350680913406981731F00E94EA22EE20F3
:104BB00009F434CE01CF0E949222109298061092EE
:104BC00097060E94EB07F3CF61E0CE0109960E94A1
:104BD000440C6C018B85F7EFCF16FCE5DF0609F07E
:104BE00028CE882309F43BCE81E08093170116CEAE
:104BF00082E00E94C615FBCDCF93DF9300D000D09A
:104C00000F92CDB7DEB790939B0280939A028115E5
:104C100020E2920748F40F900F900F900F900F90A2
:104C2000DF91CF910C94A7118EEF89838A8381E065
:104C30008B830E94E4108160782F49815A816B81B7
:104C4000892F0F900F900F900F900F90DF91CF91C1
:104C50000C94B6230F931F93CF93DF9300D000D013
:104C60000F92CDB7DEB78C0190939B0280939A028E
:104C7000011580E21807D8F4802F0E94BC11C801EA
:104C8000805E9109089728F064EB72E10115110527
:104C900011F46DEA72E1C8010F900F900F900F9020
:104CA0000F90DF91CF911F910F910C9451058EEFD2
:104CB00089838A831B820E94E4108160782F498156
:104CC0005A816B81892F0F900F900F900F900F904A
:104CD000DF91CF911F910F910C94B623CF93DF9367
:104CE000D82FC92F0E94FC258D2F9C2FDF91CF91AB
:104CF0000C942A260F931F93CF93DF938C01862F5A
:104D000064E575E00E94210F892BC9F4C091540518
:104D1000D0915505209799F0F8018081833069F48E
:104D2000CE010E946E26CE010E946E26CE01DF913A
:104D3000CF911F910F910C946E268430B8F7DF91BC
:104D4000CF911F910F9108950F931F93CF93DF93EE
:104D50008C01EB0164E575E08C2F0E94210F892BFB
:104D600009F063C0FE01FF27D8018C91EE56FD4F7C
:104D70008130D1F419968C91199781115BC01A96E4
:104D80008C91882309F456C082E080838091560577
:104D9000909157050097D9F480915405909155054D
:104DA000009709F442C013C08230E9F519968C913E
:104DB000199781112DC01A968C9181110EC083E034
:104DC00080838091580590915905009719F1DF91E2
:104DD000CF911F910F910C94FC2584E080838091EA
:104DE0005A0590915B05009791F780915405909139
:104DF0005505009711F10E946E26809156059091FD
:104E00005705009721F78091540590915505DFCF04
:104E100085E080838091540590915505009729F095
:104E20000E946E26F0CF86E08083DF91CF911F91A4
:104E30000F91089581E08083AFCF809156059091C6
:104E40005705AECF0F931F93CF93DF938C01EB01E8
:104E500064E575E08C2F0E94210F892B71F4DD270A
:104E6000CE56DD4F8881F80110821882833009F117
:104E700048F4813059F0823081F0DF91CF911F9159
:104E80000F9108958430D1F08530B9F780915405A1
:104E900090915505009789F306C080915605909131
:104EA0005705009799F3DF91CF911F910F910C94C3
:104EB0002A268091580590915905F3CF80915A0583
:104EC00090915B05009779F7209154053091550535
:104ED000809156059091570521153105D9F200971B
:104EE00011F7C901E0CFAF92BF92CF92DF92EF925C
:104EF000FF920F931F93CF93DF93182F062FC0902D
:104F0000210680912006C82AC7E0D0E0D12CF12CE0
:104F1000E12CD701C6010C2E04C0B695A795979534
:104F200087950A94D2F780FF20C0402F612F8C2FE5
:104F30000E94A30C5C0181E0A816B104B1F0C50188
:104F40000E94FC258FE39CE90197F1F700C0000067
:104F5000C501DF91CF911F910F91FF90EF90DF90EE
:104F6000CF90BF90AF900C942A26219790F6402FB7
:104F7000612F80E00E94A30CD82FC92F0E94FC252E
:104F80008FE39CE90197F1F700C000008D2F9C2F63
:104F9000E0CFCDB7DEB7AE970FB6F894DEBF0FBE49
:104FA000CDBF84B7877F84BF0FB6F894A895809152
:104FB0006000886180936000109260000FBE80E8FE
:104FC00090E00FB6F89480936100909361000FBE5B
:104FD00085B7806885BF85B7806885BF80ED97E01D
:104FE00090938901809388010E94350F0E94240EBE
:104FF0000E947D0E0E94AE090E944C0A8091E20040
:1050000084608093E20078948091EB04882399F087
:105010008091E9001091EC001795112717958F707A
:10502000182B1092E9008091E80083FD0E94D612AF
:105030001F701093E90082E084BD93E095BD9AEF64
:1050400097BD80936E000E94B10B811102C00E9437
:10505000AB0D84EF0E94D20785EF0E94D20786EF46
:105060000E94D20787EF0E94D20704E511E049E5CC
:10507000E42E41E0F42ED8018D918D018F3F11F087
:105080000E94D207E016F106B1F784E0EFEEF4E0FB
:10509000DF01282F1D922A95E9F7E3EFF4E0DF0105
:1050A0001D928A95E9F790E080E00E94BE32893E29
:1050B0009E4F21F40E94B10B811102C00E94BA0DD3
:1050C00082E090E00E94B63280939E020E94A30B81
:1050D0009093D2068093D1060E940017EFE3FCE97B
:1050E0003197F1F700C000000E9400178091F20490
:1050F00080FF08C06FEF7FEF90E080E00E94E23217
:105100000E94EE0883E090E00E94B6320E94A7154C
:105110001092D80480E88093B7020E9438316DE085
:1051200070E080E198E00E948B0F892B09F043C06A
:105130008091D80463E070E081FD56C28DE098E074
:105140000E948B0F892BB9F56DE070E08DEF97E031
:105150000E948B0F892B79F50E9480086BA77CA792
:105160008DA79EA7DC01CB01805A9541AF4FBF4F61
:105170008093DC049093DD04A093DE04B093DF04FD
:10518000E8EDF2E080E092E0DF019C011D92215009
:105190003040E1F7F093B602E093B5028FEF9FEF56
:1051A0009093DB048093DA0481E08093E1048093A0
:1051B000E0041092D90468E471E044E451E0A6E40C
:1051C000B1E021E030E08D91E82FE295EF70F0E062
:1051D00091A18F70890101C0000F8A95EAF7802F95
:1051E0008095892381A382A1802B82A3FA018191DA
:1051F000AF01E82FE295EF70F0E091A18F70890187
:1052000001C0000F8A95EAF7802F8095892381A33A
:1052100082A1802B82A36A177B07A9F68FE891E011
:105220000197F1F700C0000093B183B182958170BE
:10523000880F95FB992790F9892B8093B30289B148
:105240009CB196FB992790F9990F881F8827881F92
:10525000892B8093B40281E091E09093F8048093CD
:10526000F7048091EB0400E112E1853009F4F9C103
:105270000E940017282E81110E948008AFEEB4E032
:10528000EFE9F2E010E000E0302F8D919191981756
:1052900009F4F6C1292F282790E0FF24F3944F2D1D
:1052A000422309F4E8C199833A838F2191E009F4FC
:1052B00090E09B830E94E4108160782F9D838C8313
:1052C00049815A816B81892F0E94B623F801E156EA
:1052D000FD4F80818F2580838091630590916405C7
:1052E000892B09F43EC04091AB025091AC02609111
:1052F000AD027091AE022FB7F8948091A302909105
:10530000A402A091A502B091A6022FBF841B950B09
:10531000A60BB70B4091A7025091A8026091A90279
:105320007091AA0284179507A607B707D0F080915D
:105330006305909164050E94A71110926405109274
:1053400063051092AB021092AC021092AD02109263
:10535000AE021092A7021092A8021092A902109217
:10536000AA028091150190911601F12C36E1E32EED
:10537000019609F0C9C1809117018111CFC1B3EB2A
:10538000AB2EB2E0BB2E11EBC12E12E0D12E0FEAF4
:1053900012E084E4482E81E0582E96E4692E91E0D4
:1053A000792E1BA6312C22E0822E912CD501ED9175
:1053B0005D01D3014D913D01A42FA295AF70A05E78
:1053C000B0E02C91D2013D912D01A32FA295AF7099
:1053D000A05EB0E08C9190E03F7002C095958795FB
:1053E0003A95E2F7880F991F8270992730E04F7045
:1053F00002C0359527954A95E2F721703327822B15
:10540000EE0FEE0FE82BD5011197EC93D6018D919D
:105410006D01EF70F0E0EC5CFE4F9081890FFD01B3
:1054200082937F0120E082304CF0D8018C918F5F15
:105430008C9361E08BA50E94732721E0F7018081A6
:105440008F3F4CF4D8018C9181508C9360E08BA5F8
:105450000E94732721E0F7018081082E000C990B30
:10546000B4010E9468328083322A0F5F1F4FFBA570
:10547000F13009F07EC131100E9480088091E10472
:10548000882309F46AC088ED92E09093B602809375
:10549000B50287E598E00E94AF10809121060E9436
:1054A0005A05813009F468C1823009F468C181115C
:1054B00069C18EE498E00E94AF100E944808182F3E
:1054C00081E398E010FF02C086E398E00E94AF10ED
:1054D00087E298E011FF02C08CE298E00E94AF10D2
:1054E0008DE198E012FF02C082E298E00E94AF10C6
:1054F0008091E104882371F02091DA043091DB047B
:105500002115310539F08091D90461E070E08823DC
:1055100009F441C18091E0048823F9F00E948008D9
:105520006BA77CA78DA79EA78091DC049091DD04DA
:10553000A091DE04B091DF042BA53CA54DA55EA58E
:10554000281B390B4A0B5B0BDA01C9018F3F9F4FB8
:10555000AF4FBF4710F40E94BA0F211001C03110A5
:105560000E94CD0F0E9448089091E2048913809315
:10557000E2048091EB04843009F073CE83E08093E1
:10558000E9008091E80082FF6CCE8091E80090E015
:1055900085FF06C00E947D09882309F4C2C191E0FD
:1055A0008091E8008B778093E800992309F459CE25
:1055B0000091E9041091EA04E9810115110509F44B
:1055C000CDC1EE3F09F0F0C18A81833020F08550D3
:1055D000833008F0E9C1EA81EE3008F0E5C1F0E07F
:1055E000E95DFC4C0C947C328AE098E0A9CD809176
:1055F000EB04843031F10E94BA0F10929C02A8E1B2
:10560000B0E0E0E40FB6F894A895A09360000FBE58
:10561000E093600083B7817F846083BF83B781603C
:1056200083BF7894889583B78E7F83BF0FB6F89435
:10563000A89580916000886180936000109260005E
:105640000FBE80919D02882361F00E940017EFEE4B
:10565000F4E081918111A9C423EF34E02E173F07B4
:10566000C1F78091EB04853009F4C1CF0E94CB12C1
:105670000E944808FDCD9F5FFF0C953009F00FCECA
:105680000F5F1F4F0430110509F0FECD8FEF8983A6
:105690008A831B820E94E4108160782F9D838C8313
:1056A00049815A816B81892F0E94B62315CEE89ECD
:1056B000F001E99EF00D1124E359FA4F0289138994
:1056C0000115110511F408EC10E0E89EF001E99EC7
:1056D000F00D1124E359FA4F86818823A1F08585C6
:1056E00096850E94F1160817190768F4FE9C800140
:1056F0001124C80183599A4F0E940E16C8018D5873
:105700009A4F0E943216F3948F2D90E0209115014C
:10571000309116012817390754F62DCE809197063F
:1057200090919806009709F42ACE0E94F1162091D4
:105730003206309133062817390708F020CE9091B1
:10574000350680913406981759F00E94EA2210928B
:1057500033061092320610929806109297060FCEDA
:105760000E94922210929806109297060E94EB07D0
:1057700006CE41E04BA71ACE8AE498E09CCE85E4A1
:1057800098E099CE8BE398E00E94AF1081E00E94F0
:105790007E1093CE8F5F082F10E03B01082E02C0D1
:1057A000660C771C0A94E2F7A90146215721452B84
:1057B00089F32091D804922F917020FD44C0980164
:1057C00036952795369527958295880F80763FE107
:1057D000380F80930F0120931201309310019093A2
:1057E000130124E630E047E050E06DE071E088E727
:1057F0000E94E631892B09F08DCEA801E5E0440F27
:10580000551FEA95E1F78091D80480FD24C04852E5
:105810005D4F04E610E020E230E060E488E70E949B
:105820001332892B09F076CE0E94CD0F60947094CC
:105830008091DA049091DB04862197219093DB0418
:105840008093DA0467CE880F880F880F37E0380F0F
:1058500020E093E0BECFE8EBF2E080E2DF011D92B2
:105860008A95E9F7ECE4F1E0FCA7EBA708E411E086
:1058700070E5872E71E0972EBB24B394ABA5BCA531
:105880006D91BCA7ABA7F80181918F01840F952F73
:10589000911D9C0128523D4F2901E62FF0E0E8546C
:1058A000FD4F30E020E067E0C62EC21ADB2C022E4E
:1058B00001C0DD0C0A94EAF7720190E0D7018D91E6
:1058C0007D018D216C2D691B6770A62E062E000CA4
:1058D000770BB82F01C0BB0FAA94EAF771956195B9
:1058E00071096770772701C086956A95EAF78B2B57
:1058F0006081862B80839F5F983001F72F5F3F4F39
:1059000031962830310579F6EBA5FCA58E169F0659
:1059100009F0B4CF04E610E020E230E048EB52E0BA
:105920007CCF00E210E0AE014F5F5F4F7A018091C3
:10593000E80085FD0AC08091E8008B778093E8003D
:105940000E947D09882399F32ACE8091F100D70126
:105950008D937D010150110951F721CEE43150F4AE
:10596000EE2359F0E150E33140F4F0E0EB5CFC4C05
:105970000C947C32EE3F09F42ECE8FEF898314C055
:105980001A8289E08B8310C08A81823009F423C394
:10599000833079F0813089F70E9480080E9482323A
:1059A0006B837C838D839E83CE0101960E94F709D1
:1059B00058CC8091E7049091E804892BA9F3809159
:1059C000EF048B838091F0048C838091F1048D83AC
:1059D0008091F2048E83E8CF8A81823071F62B8128
:1059E0003C814D815E812BA73CA74DA75EA7CA01D4
:1059F000B9010E94823286E290E00E94C432D4CF84
:105A00004C816B818A810E94CA0B9827892798272D
:105A10009E838D83C9CF2D813E8132272327322754
:105A20004C816B818A810E94270BBECF0E94D20CD1
:105A3000BBCF80E18A83B8CF82E08A8389E2A2CF9C
:105A40008C81082F10E08D3108F0AECFCA80DB804A
:105A5000DC24CD24DC240C0D1D1D7E0135E0E30E7D
:105A6000F11CC60189529E4F0C151D0509F49CCFEF
:105A700049E2C41642E0D40648F40E94B632D70187
:105A80008D937D01BFEFCB1ADB0AEBCF80E0F7CF20
:105A90008091E7049091E804892B09F485CF8C81EB
:105AA000E82EF12C8D3108F07FCF0A811B81102761
:105AB00001271027FE0131966F01EE0EFF1EC8016F
:105AC00089529E4FEC14FD0409F46ECF0932F2E0C6
:105AD0001F0728F4D60114966C910E94C4320F5F00
