:100000000C94C50D0C94E20D0C94E20D0C94E20DD1
:100010000C94E20D0C94E20D0C94E20D0C94E20DA4
:100020000C94E20D0C94E20D0C94E0300C94B3317E
:100030000C94D92B0C94E20D0C94E20D0C94E20D6F
:100040000C94E20D0C94E20D0C94E20D0C94E20D74
:100050000C94E20D0C949A2C0C94E20D0C94E20D8D
:100060000C94E20D0C94E20D0C94E20D0C94E20D54
:100070000C94E20D0C94E20D0C94E20D0C94E20D44
:100080000C94E20D0C94E20D0C94E20D0C94E20D34
:100090000C94E20D0C94E20D0C94E20D0C94E20D24
:1000A0000C94E20D0C94E20D0C94E20D00000000A3
:1000B0000000000000000000000000000000000040
:1000C0000000000000000000000000000000000030
:1000D0000000000000000000000000000000000020
:1000E0000000000000000000000000808040404050
:1000F00020202020201804020102040810202040A3
:1001000040808000000000000000000000000000AF
:1001100000000000000000000000000000000000DF
:1001200000000000000000000000000000000000CF
:1001300000000000000000000000000000000000BF
:1001400000000000000000000000000000000000AF
:100150000000000000000000000000000000003F60
:10016000C1010102020404040402020100000000B3
:10017000000000008000004080804000003030001F
:1001800000000001020404080810204080808080E4
:10019000404040402020202010101010080808087F
:1001A0000404040402020202010101010000000033
:1001B000000000000000000000000000000000003F
:1001C000000000000000000000000000000000002F
:1001D0000000000000000000000000000000E01827
:1001E0000601000000000000000000000080838382
:1001F000404040402021212010101010080808081D
:1002000004040404040830408080000001869860E3
:1002100000000000000000000000000000000000DE
:1002200000000000000000000000000000000000CE
:1002300000000000000000000000000000000000BE
:1002400000000000000000000000000080808080AE
:10025000404040402020202010101010080F0808B7
:1002600004040404020408101020204040414224E9
:100270001800000000000000000000000000000066
:10028000000000000000000000000101010000006B
:10029000000000000000000000000000000000005E
:1002A000000000000000000000000000000000004E
:1002B000000000000000000000000000000000003E
:1002C000000000000000000000000000000000002E
:1002D000000000000000000000000000000000001E
:1002E000000000000000000000000000000000000E
:1002F00000000000000000000000000000000000FE
:1003000000000000000000000000000000000000ED
:1003100000000000000000000000000000000000DD
:1003200000000000000000000000000000000000CD
:1003300000000000000000000000000000000000BD
:1003400000000000000000000000000000000000AD
:10035000000000000000000000000000000000009D
:1003600000000000000000000000808040404020AD
:1003700010080402010204081020408080000000E0
:10038000000000000000000000000000000000006D
:10039000000000000000000000000000000000005D
:1003A000000000000000000000000000000000004D
:1003B000000000000000000000000000000000003D
:1003C000000000000000000000000000000000002D
:1003D00000000000000000000000003FC101010219
:1003E00002040404040202010101000000000000F4
:1003F0000000008000008000006060000001020436
:100400000408081010202040808080804040404038
:1004100020202020101010100808080804040404EC
:1004200002020202010101010000000000000000C0
:1004300000000000000000000000000000000000BC
:1004400000000000000000000000000000000000AC
:1004500000000000000000000000C0300C0300009D
:100460000000000000000000008086864040404000
:100470002122222011111010080808080404040485
:100480000408304080800000018698600000000071
:10049000000000000000000000000000000000005C
:1004A000000000000000000000000000000000004C
:1004B000000000000000000000000000000000003C
:1004C000000000000000000080808080404040402C
:1004D0002020202010101010080F08080404040425
:1004E000020408101020204040414224180000005F
:1004F00000000000000000000000000000000000FC
:1005000000000000000001010100000000000000E8
:1005100000000000000000000000000000000000DB
:1005200000000000000000000000000000000000CB
:1005300000000000000000000000000000000000BB
:1005400000000000000000000000000000000000AB
:10055000000000000000000000000000000000009B
:10056000000000000000000000000000000000008B
:10057000000000000000000000000000000000007B
:10058000000000000000000000000000000000006B
:10059000000000000000000000000000000000005B
:1005A000000000000000000000000000000000004B
:1005B000000000000000000000000000000000003B
:1005C000000000000000000000000000000000002B
:1005D000000000000000000000000000000000001B
:1005E000000000000000808080804040201008044F
:1005F000020408102040808000000000000000007D
:1006000000000000000000000000000000000000EA
:1006100000000000000000000000000000000000DA
:1006200000000000000000000000000000000000CA
:1006300000000000000000000000000000000000BA
:1006400000000000000000000000000000000000AA
:10065000000000000000007E820202040408080876
:1006600008040402010100000000000000000080F6
:10067000000080000060600001010204040808100E
:10068000102020408080808040404040202020205A
:1006900010101010080808080404040402020202E2
:1006A0000101010100000000000000000000000046
:1006B000000000000000000000000000000000003A
:1006C000000000000000000000000000000000002A
:1006D000000000000000C0300C030000000000001B
:1006E00000000000008086864040404021222220F9
:1006F000111110100808080804040404040830400C
:10070000808000000186986000000000000000006A
:1007100000000000000000000000000000000000D9
:1007200000000000000000000000000000000000C9
:1007300000000000000000000000000000000000B9
:100740000000000080808080404040402020202029
:1007500010101010080F0808040404040204081004
:1007600010202040404142241800000000000000FA
:100770000000000000000000000000000000000079
:100780000000010101000000000000000000000066
:100790000000000000000000000000000000000059
:1007A0000000000000000000000000000000000049
:1007B0000000000000000000000000000000000039
:1007C0000000000000000000000000000000000029
:1007D0000000000000000000000000000000000019
:1007E0000000000000000000000000000000000009
:1007F00000000000000000000000000000000000F9
:1008000000000000000000000000000000000000E8
:1008100000000000000000000000000000000000D8
:1008200000000000000000000000000000000000C8
:1008300000000000000000000000000000000000B8
:1008400000000000000000000000000000000000A8
:100850000000000000000000000000000000000098
:1008600000008080808040402010080402040810AE
:100870002040808000000000000000000000000018
:100880000000000000000000000000000000000068
:100890000000000000000000000000000000000058
:1008A0000000000000000000000000000000000048
:1008B0000000000000000000000000000000000038
:1008C0000000000000000000000000000000000028
:1008D00000001C34C40404040808080808040402C6
:1008E0000101000000000000800000408080400006
:1008F0000030300001010202040404080810204006
:100900008080808040404040202020201010101027
:10091000080808080404040402020202010101019B
:1009200000000000000000000000000000000000C7
:1009300000000000000000000000000000000000B7
:1009400000000000000000000000000000000000A7
:100950000000E01806010000000000000000000098
:10096000008083834040404020212120101010103F
:1009700008080808040404040408304080800000CB
:1009800001869860000000000000000000000000E8
:100990000000000000000000000000000000000057
:1009A0000000000000000000000000000000000047
:1009B0000000000000000000000000000000000037
:1009C0008080808040404040202020201010101067
:1009D000080F080804040404020408101020204032
:1009E0004041422418000000000000000000000008
:1009F00000000000000000000000000000000101F5
:100A000001000000000000000000000000000000E5
:100A100000000000000000000000000000000000D6
:100A200000000000000000000000000000000000C6
:100A300000000000000000000000000000000000B6
:100A400000000000000000000000000000000000A6
:100A50000000000000000000000000000000000096
:100A60000000000000000000000000000000000086
:100A70000000000000000000000000000000000076
:100A80000000000000000000000000000000000066
:100A90000000000000000000000000000000000056
:100AA0000000000000000000000000000000000046
:100AB0000000000000000000000000000000000036
:100AC0000000000000000000000000000000000026
:100AD0000000000000000000000000808040404056
:100AE00020202020201804020102040810202040A9
:100AF00040808000000000000000000000000000B6
:100B000000000000000000000000000000000000E5
:100B100000000000000000000000000000000000D5
:100B200000000000000000000000000000000000C5
:100B300000000000000000000000000000000000B5
:100B400000000000000000000000000000060D3161
:100B5000C1010101020202040402020100000000BE
:100B60000000000080000040808040000030300025
:100B700000000001020404080810204080808080EA
:100B80004040404020202020101010100808080885
:100B90000404040402020202010101010000000039
:100BA0000000000000000000000000000000000045
:100BB0000000000000000000000000000000000035
:100BC0000000000000000000000000000000E0182D
:100BD0000601000000000000000000000080838388
:100BE0004040404020212120101010100808080823
:100BF00004040404040830408080000001869860EA
:100C000000000000000000000000000000000000E4
:100C100000000000000000000000000000000000D4
:100C200000000000000000000000000000000000C4
:100C300000000000000000000000000080808080B4
:100C4000404040402020202010101010080F0808BD
:100C500004040404020408101020204040414224EF
:100C6000180000000000000000000000000000006C
:100C70000000000000000000000001010100000071
:100C80000000000000000000000000000000000064
:100C90000000000000000000000000000000000054
:100CA0000000000000000000000000000000000044
:100CB0000000000000000000000000000000000034
:100CC0000000000000000000000000000000000024
:100CD0000000000000000000000000000000000014
:100CE0000000000000000000000000000000000004
:100CF00000000000000000000000000000000000F4
:100D000000000000000000000000000000000000E3
:100D100000000000000000000000000000000000D3
:100D200000000000000000000000000000000000C3
:100D300000000000000000000000000000000000B3
:100D400000000000000000000000000000000000A3
:100D50000000000000000000000080808040402073
:100D60002010080402040810102020404080800059
:100D70000000000000000000000000000000000073
:100D80000000000000000000000000000000000063
:100D90000000000000000000000000000000000053
:100DA0000000000000000000000000000000000043
:100DB0000000000000000000000000000000000033
:100DC00000000000000000000000003FC10101021F
:100DD000020484444442820101010000000000003A
:100DE00080000040808040000030300000000001A2
:100DF0000264180412C2CA2488F080804040404037
:100E000020202020101010100808080804040404F2
:100E100002020202010101010000000000000000C6
:100E200000000000000000000000000000000000C2
:100E300000000000000000000000000000000000B2
:100E400000000000000000000000E01806010000A3
:100E50000C03000218190005FE80838340404040C7
:100E60002021212010101010080808080404040490
:100E70000202020201010101000000000000000066
:100E80000000000000000000000000000000000062
:100E90000000000000000000000000000000000052
:100EA0000000000000000000000000000000000042
:100EB0000000000000000000808080804040404032
:100EC0002020202010101010080F0808040404042B
:100ED0000202020201010101000000000000000006
:100EE0000000000000000000000000000000000002
:100EF00000000000000000000000000000000000F2
:100F000000000000000000000000000000000000E1
:100F100000000000000000000000000000000000D1
:100F200000000000000000000000000000000000C1
:100F300000000000000000000000000000000000B1
:100F400000000000000000000000000000000000A1
:100F50000000000000000000000000000000000091
:100F60000000000000000000000000000000000081
:100F70000000000000000000000000000000000071
:100F80000000000000000000000000000000000061
:100F90000000000000000000000000000000000051
:100FA0000000000000000000000000000000000041
:100FB0000000000000000000000000000000000031
:100FC0000000000000000000000000000000000021
:100FD00000000000000080808040402020100804B5
:100FE0000204081010202040408080000000000013
:100FF00000000000000000000000000000000000F1
:1010000000000000000000000000000000000000E0
:1010100000000000000000000000000000000000D0
:1010200000000000000000000000000000000000C0
:1010300000000000000000000000000000000000B0
:10104000000000000000003FC1010102020404048E
:1010500004020201010100000000000080000040C5
:10106000808040000030300000000001026418045D
:1010700012C2CA2488F080804040404020202020B6
:1010800010101010080808080404040402020202E8
:10109000010101010000000000000000000000004C
:1010A0000000000000000000000000000000000040
:1010B0000000000000000000000000000000000030
:1010C000000000000000E018060100000000000021
:1010D0000000000000808383404040402021212008
:1010E0001010101008080808040404040202020288
:1010F00001010101000000000000000000000000EC
:1011000000000000000000000000000000000000DF
:1011100000000000000000000000000000000000CF
:1011200000000000000000000000000000000000BF
:10113000000000008080808040404040202020202F
:1011400010101010080F080804040404020408100A
:10115000102020404041422498C088888C9C1C1E4E
:101160000E0600000000000000000000000000006B
:10117000000000000000000000000000000000006F
:10118000000000000000000000000000000000005F
:10119000000000000000000000000000000000004F
:1011A000000000000000000000000000000000003F
:1011B000000000000000000000000000000000002F
:1011C000000000000000000000000000000000001F
:1011D000000000000000000000000000000000000F
:1011E00000000000000000000000000000000000FF
:1011F00000000000000000000000000000000000EF
:1012000000000000000000000000000000000000DE
:1012100000000000000000000000000000000000CE
:1012200000000000000000000000000000000000BE
:1012300000000000000000000000000000000000AE
:10124000000000000000000000000000000000009E
:101250000000808080404020201008040204081014
:1012600010202040408080000000000000000000AE
:10127000000000000000000000000000000000006E
:10128000000000000000000000000000000000005E
:10129000000000000000000000000000000000004E
:1012A000000000000000000000000000000000003E
:1012B000000000000000000000000000000000002E
:1012C0000000003FC1010102020484444442820143
:1012D000010100000000000080000040808040000C
:1012E0000030300000000001020404080810204013
:1012F000808080804040404020202020101010102E
:1013000008080808040404040202020201010101A1
:1013100000000000000000000000000000000000CD
:1013200000000000000000000000000000000000BD
:1013300000000000000000000000000000000000AD
:101340000000E018060100000C0300021819000557
:10135000FE80838340404040202121201010101047
:1013600008080808040404040408304080800000D1
:1013700001869860000000000000000000000000EE
:10138000000000000000000000000000000000005D
:10139000000000000000000000000000000000004D
:1013A000000000000000000000000000000000003D
:1013B000808080804040404020202020101010106D
:1013C000080F0808040404040202020201010101DA
:1013D000000000000000000000000000000000000D
:1013E000000000060F0F07030361F0F8FC60010125
:1013F000013C78F8F07000000000000000000000E0
:1014000000000000000000000000000000000000DC
:1014100000000000000000000000000000000000CC
:1014200000000000000000000000000000000000BC
:1014300000000000000000000000000000000000AC
:10144000000000000000000000000000000000009C
:10145000000000000000000000000000000000008C
:10146000000000000000000000000000000000007C
:10147000000000000000000000000000000000006C
:1014800000000000000000000000000020202020DC
:101490002020200043415053000000240025002656
:1014A000002A000000210022002300290000001E65
:1014B000001F0020002B00A80001582700376228D9
:1014C000000000010001000100005C0000010001BB
:1014D0000001005700000001000100010056002B30
:1014E0005D0100010001002E00000001000100016B
:1014F00000010000000100010001000100000001E6
:1015000000010001000100010001000100010001D3
:1015100000000001000100010001000000010001C5
:1015200000010001000000010001000100010001B4
:1015300000010001000100010000AE00AF00DA026E
:1015400081FFD9F1DB20A4A62EAF00A0C000A1C866
:1015500000AED580A81FD300408D14200007087F5F
:101560000807003E5B4F5B3E003E6B4F6B3E001C2E
:101570003E7C3E1C00183C7E3C18001C577D571CCE
:10158000001C5E7F5E1C0000183C180000FFE7C3D3
:10159000E7FF00001824180000FFE7DBE7FF00303A
:1015A000483A060E00262979292600407F050507BE
:1015B00000407F05253F005A3CE73C5A007F3E1C17
:1015C0001C0800081C1C3E7F0014227F2214005FB0
:1015D0005F005F5F0006097F017F00006689956AF2
:1015E0000060606060600094A2FFA2940008047E26
:1015F00004080010207E20100008082A1C0800089B
:101600001C2A0808001E10101010000C1E0C1E0CC6
:101610000030383E383000060E3E0E060000000056
:1016200000000000005F0000000007000700001439
:101630007F147F1400242A7F2A1200231308646277
:1016400000364956205000000807030000001C2205
:101650004100000041221C00002A1C7F1C2A0008B7
:10166000083E0808000080703000000808080808DC
:10167000000000606000002010080402003E514994
:10168000453E0000427F4000007249494946002122
:1016900041494D33001814127F1000274545453944
:1016A000003C4A49493100412111090700364949A6
:1016B000493600464949291E000000140000000078
:1016C00040340000000008142241001414141414C3
:1016D000000041221408000201590906003E415D44
:1016E000594E007C1211127C007F49494936003E58
:1016F00041414122007F4141413E007F49494941EA
:10170000007F09090901003E41415173007F08082B
:10171000087F0000417F4100002040413F01007FE1
:1017200008142241007F40404040007F021C027F9D
:10173000007F0408107F003E4141413E007F0909BF
:101740000906003E4151215E007F09192946002605
:10175000494949320003017F0103003F4040403FB7
:10176000001F2040201F003F4038403F0063140806
:101770001463000304780403006159494D430000D9
:101780007F41414100020408102000004141417F97
:1017900000040201020400404040404000000307F2
:1017A0000800002054547840007F28444438003812
:1017B0004444442800384444287F00385454541882
:1017C0000000087E09020018A4A49C78007F080489
:1017D00004780000447D4000002040403D00007F30
:1017E000102844000000417F4000007C0478047809
:1017F000007C0804047800384444443800FC182471
:1018000024180018242418FC007C0804040800484C
:10181000545454240004043F4424003C4040207CA1
:10182000001C2040201C003C4030403C004428105C
:101830002844004C9090907C004464544C44000038
:101840000836410000000077000000004136080023
:10185000000201020402003C2623263C0000000096
:10186000000000404040F0F8F8FF38FFF8F83FF87B
:10187000F8FF38FFF8F8F04040400000000000009A
:1018800080C0C0C0800000C0C08000000080C0C018
:1018900000C0C0000080C0C00000000000C0C0C088
:1018A000C0C000C0C0000000000000000000000038
:1018B0000000000000000000000000000000000028
:1018C0000000000000000000000000000000000018
:1018D000000000000000000000000000C0F0F8FC64
:1018E0003E1E06010000007F4141417F007F4141D3
:1018F000417F000080C0E07E5B4F5BFEC00000C007
:1019000000DCD7DEDEDED7DC00C000000000000017
:1019100000000000000000000000000000000000C7
:10192000000000494949FFFFFFFFE0DFBFBF00BFE4
:10193000BFDFE0FFFFFFFF49494900000000001F33
:101940003F6060E0BF1F007F7F071E381E077F7F5C
:10195000007F7F0E1F3B716000000000007F7F0C46
:101960000C0C007E7E007F7E0303007F7E03037EDF
:101970007E03037F7E000F3E703C063C703E0F00EE
:10198000327B49493F7E007F7E0303001E3F696929
:101990006F2600000000000000000000030F1F3F42
:1019A0003C7870600000007F4141417F007F4141F1
:1019B000417F00307B7F7830202030787F3B0003F0
:1019C000000F7F0F0F0F7F0F0003000000000000CB
:1019D0000000000000000000000000000000000007
:1019E000000000010101070F0F7F0F7F0F0F7E0F17
:1019F0000F7F0F7F0F0F07010101000000000000A3
:101A000000000000010100000000000000000000D4
:101A100000000000000000000000000000000000C6
:101A200000000000000000000000000000000000B6
:101A300000000000000000000000000000000000A6
:101A40000000000000000000000000000000000096
:101A50000000000000000000000000000000000086
:101A60000000000000000000000000000000000076
:101A70000000000000000000000000000000000066
:101A80000000000000000000000000000000000056
:101A900000000000000000000000000000100364CF
:101AA0000075006D006200700061006400000016A7
:101AB0000369006D00630068006900700077006FC3
:101AC000006F00640000000403090409023B0002E7
:101AD0000100A0FA0904000001030101000921111D
:101AE00001000122400007058103080001090401EB
:101AF000000103000000092111010001223200074A
:101B00000582032000011201000200000008EDFE22
:101B1000130901000102000105010980A1018503EB
:101B200019012AB700150126B7009501751081002B
:101B3000C0050C0901A101850419012AA0021501A3
:101B400026A002950175108100C005010906A101BA
:101B5000050719E029E7150025019508750181029F
:101B60009501750881010507190029FF150026FF59
:101B70000095067508810005081901290595057568
:101B8000019102950175039101C011241FBECFEF91
:101B9000DAE0DEBFCDBF11E0A0E0B1E0EEEEFEE6A0
:101BA00002C005900D92A43AB107D9F724E0A4EA47
:101BB000B1E001C01D92AF3FB207E1F70E944E1F96
:101BC0000C9450370C9400000E94B8288531E8F43A
:101BD0008091A70190E0019665E070E00E94883353
:101BE0008093A70124E030E0281B390B4CE752E03A
:101BF000249FC001259F900D349F900D11246CE708
:101C000072E084559F4F0E9406210E94B8288531BA
:101C100050F00E94B828883230F46CE772E088E116
:101C20009DE00E9406210E94B8288832D8F0809159
:101C3000A60190E00196817099278093A60121E08A
:101C400030E0281B390B4CE752E0249FC001259F50
:101C5000900D349F900D11246CE772E08C56904FDC
:101C60000C9406210895811108C089EA611101C010
:101C70008AEA0E94B81081E008958130E1F78BEA8A
:101C80006111F7CF8CEAF5CFCF93DF9300D000D06E
:101C9000CDB7DEB70E94B828882309F461C00E943E
:101CA00049218091AC019091AD01A091AE01B0911C
:101CB000AF01BC01CD010E94732C69837A838B83B1
:101CC0009C83693C71058105910560F00E94442C5C
:101CD0006093AC017093AD018093AE019093AF011E
:101CE0000E94E40D0E94442C6093A8017093A90106
:101CF0008093AA019093AB0160E080E00E94F61F00
:101D00000E94B8281F928F9389E191E09F938F934F
:101D100084ED92E09F938F930E943D3460E084EDC8
:101D200092E00E94D8200E94142B898361E080E019
:101D30000E94F61F0F900F900F900F900F900F9032
:101D4000998191FD48C08CE894E160E00E94F42004
:101D500080E00F900F900F900F90DF91CF9108953A
:101D60008091A8019091A901A091AA01B091AB0125
:101D7000BC01CD010E94732C69837A838B839C8381
:101D800061367A4E8105910518F00E947022B4CF19
:101D90008091AC019091AD01A091AE01B091AF01E5
:101DA000BC01CD010E94732C69837A838B839C8351
:101DB000693C71058105910508F49ECF0E94442C71
:101DC0006093AC017093AD018093AE019093AF012D
:101DD0000E94E40D91CF84E994E1B7CF81E00895AA
:101DE00081E008950C94F00E08950C94F40E1F9366
:101DF000CF93DF9300D000D00F92CDB7DEB74983E9
:101E00005A836B833091B10189819A8131111DC050
:101E10006623B9F02223A9F00E940B16182F682F11
:101E200089819A810E94B41569817A81812F0F90EE
:101E30000F900F900F900F90DF91CF911F910C9406
:101E4000D81C0E94E215182FEFCF0E940B16698153
:101E50007A81EDCFFC01262F40815181628173810F
:101E600084810C94F70E81E00895CF93DF93D82FEF
:101E7000C92F60E00E942A0F6D2F7C2FDF91CF9138
:101E80000C94F50E0C94071E0C940A1E08950E94E3
:101E900098130E94460F2FEF84E39CE0215080406E
:101EA0009040E1F700C000000C94BE2C0F931F93EC
:101EB000CF93DF9300D0CDB7DEB78C0161E00E94F5
:101EC0002A0F89839A83F801228121110E94E22836
:101ED000B801CE0101960E94F624811108C080E06D
:101EE0000F900F90DF91CF911F910F910895B8013E
:101EF00089819A810E94F20E882389F3B801898131
:101F00009A810E946328882351F3B80189819A81BC
:101F10000E94CF22882319F3B80189819A810E94F7
:101F2000CC248823E1F2F8018281882371F0898131
:101F30009A818B35FDE59F07E1F058F48115ECE5BA
:101F40009E0789F08F3D9C4589F0C8010E94EE0EE6
:101F5000C7CF8C352DE5920779F08D359D45A9F7D2
:101F60000E94401AF2CF0E94470FB9CF0E94F41A84
:101F7000B6CF0E94491AE9CF0E944C1AE6CF0E94C0
:101F8000BE2B0E94D90F0C9470220E94DC0F0C947F
:101F9000C22B08950C94C90F81E008950C94CC0FC6
:101FA0000895CF93C82F0E94CA0F8C2FCF910C9405
:101FB000CE0F80E00C94D10F0E94082B0C94D10F0F
:101FC0000E94082B9091B001981721F08093B001E6
:101FD0000C94D10F0895EF92FF920F931F93CF931C
:101FE000DF93CDB7DEB72B970FB6F894DEBF0FBEE9
:101FF000CDBF042F4F83152F588769877A878B872A
:10200000EA84FB8461110E948E191E8285E0FE0124
:102010003796DE01119601900D928A95E1F7EF282F
:10202000A9F449815A816B817C818D819E810E94B6
:10203000AD182B960FB6F894DEBF0FBECDBFDF9163
:10204000CF911F910F91FF90EF90089510231F3FA4
:1020500041F3CE0101960E94330F8111E2CFE9CF07
:10206000FC01808191810C944D16CF93C82F882359
:10207000F1F18CEF8C0F813AA0F46C2F809102016A
:10208000909103010E94602B882329F08C2F0E94DD
:102090004E190E94AE198C2F0E944719CF910C94B3
:1020A000AE1980E28C0F883048F4C77081E001C01F
:1020B000880FCA95EAF70E946F19F0CF8BE58C0F55
:1020C000833038F42C2F2452330BC901CF910C9458
:1020D000222BC85AC73158F4EC2FF0E0EE0FFF1F47
:1020E000EE5DFE4F80819181CF910C94382BCF9182
:1020F0000895882329F19CEF980F913A20F40E94CB
:102100004E190C94AE1990E2980F983050F48770E5
:1021100091E001C0990F8A95EAF7892F0E947519FD
:10212000F0CF9BE5980F933020F490E080E00C9482
:10213000222B885A873120F490E080E00C94382BD1
:1021400008951F93CF93DF93182FEB010E94351052
:10215000209731F4812FDF91CF911F910C9479104A
:102160008FE99FE00197F1F700C000002197F0CFC1
:1021700070E060E0893311F460E570E00C94A11028
:10218000882321F00E946F190C94AE1908958823BA
:1021900021F00E9475190C94AE190895CF92DF9228
:1021A000EF92FF920F931F93CF93DF9300D000D055
:1021B0000F92CDB7DEB77C016D837983FC0112816C
:1021C000058102950F700E946519D82E8823B9F0F9
:1021D000D12E1123A1F08981807F803421F08D815F
:1021E000805E8830E8F18091DF0282FD39C082E0B4
:1021F0000E940F1A0E94651991E0D82ED926C98035
:10220000C2948FE0C822F8E0CF1609F416C1FC157D
:1022100008F456C023E02C1528F18981807F39818C
:102220003F70398391E09C1508F05EC0803221F048
:1022300029812295207F29833D81332309F489C098
:10224000313009F4C1C0112309F4C9C0002309F4D5
:10225000C0C0F701858180FF5EC08F708583B9C0E3
:10226000D12CCDCFE4E0CE1609F4CBC0EC2DE85054
:10227000FF0B349720F40E94082B0E94D10FDD2021
:1022800009F4F5C10E94611980FDF1C1F7011282C4
:102290000E945B190E94A414C7010E945C130E9453
:1022A0005B190F900F900F900F900F90DF91CF91CF
:1022B0001F910F91FF90EF90DF90CF900C94D51469
:1022C000F9E0CF1609F465C186E08C0D8F7082307D
:1022D00068F62D81223F09F06DC189818F7111113E
:1022E00066C10E94A414C2CF882321F009810295FF
:1022F000007F09831123A9F01981112361F08D81D9
:10230000805E883018F00D81011107C089810E941C
:102310006F190E94AE198D812BC089810E9480198E
:10232000F8CF8D810E9479101981112309F49ECF75
:102330008D81805E883018F00D81011104C0898183
:102340000E94751903C089810E9486190E94AE19E6
:102350008DCF8091DF0282FF17C0112361F00981C8
:10236000002329F0802F0E946F190E94AE1980E08F
:102370000E9435107BCF80E00E94791019811123D3
:1023800009F474CF812FDCCF112391F0011107C024
:102390000E9491190981802B0E94C01067CF0130E3
:1023A000B9F70E9491191981812B0E9497195ECF6C
:1023B000011106C00E94A41989810E94C71056CF3E
:1023C000013009F453CFF6CF112329F0033008F080
:1023D0004DCF8981E1CF023008F048CFEDCF002307
:1023E00059F30D81093349F41FEF27EE33E0115003
:1023F00020403040E1F700C000008D810E9479103C
:1024000035CF898186958695837069F0813009F092
:102410002DCF8D8199819370111102C090E080E0E1
:102420000E94382B23CF8D8199819370111102C0A6
:1024300090E080E00E94222B19CF8981837009F0FF
:1024400050C0111113CF2D81229526952770220F90
:10245000220F4D814F7050E070E060E0022E04C00A
:10246000440F551F661F771F0A94D2F70D8180E035
:1024700090E0DC0104FF0FC08FE090E0A0E0B0E04E
:1024800004C0880F991FAA1FBB1F2A95D2F78095F9
:102490009095A095B09519811695169513701D838A
:1024A0008C019D01042B152B262B372B09831A83B6
:1024B0002B833C831D8169817A818B819C811230C1
:1024C00051F0133059F0113019F00E941A14CECE89
:1024D0000E94F213CBCE0E944214C8CE0E94F01389
:1024E000C5CE112309F448C0098100FFBFCE2D815C
:1024F000229526952770220F220F4D814F7050E0B4
:1025000070E060E0022E04C0440F551F661F771F65
:102510000A94D2F70D8180E090E0DC0104FF0FC047
:102520008FE090E0A0E0B0E004C0880F991FAA1FE0
:10253000BB1F2A95D2F780959095A095B0951981EB
:102540001695169513701D838C019D01042B152B78
:10255000262B372B09831A832B833C831D816981AA
:102560007A818B819C81123071F0133079F01130B7
:1025700039F00E9463157ACE198111FF77CEB7CF5B
:102580000E943B1573CE0E948B1570CE0E946E1474
:102590006DCE09810F700983112329F0802F0E94CD
:1025A000A4148D81F9CE8D810E94C71089810E946B
:1025B000D5145CCE2D81233F60F4203FC1F0213F34
:1025C00089F0112309F442C00111A5CE89818F71D0
:1025D00088CE3D81333FC9F0343F99F78091DF02C7
:1025E00082FF1DC089818F71112309F37ACE1123D7
:1025F00041F0023008F03ACE89818F710E940A15AD
:1026000035CE033008F032CEF7CF112329F089817F
:102610008F710E947F142ACE0E947A1427CE112334
:1026200059F009810F710983802F0E94A41463E07F
:1026300089810E94F4191ACE81E00E940F1A02309B
:1026400008F414CE82E00E940F1A10CE002361F02D
:102650001D81193309F0D1CE2FEF37EE83E02150E1
:1026600030408040E1F7C7CE89818F71A0CF0F90B5
:102670000F900F900F900F90DF91CF911F910F91BE
:10268000FF90EF90DF90CF9008950F931F93CF931B
:10269000DF93EC01688179818A810E9459168C014F
:1026A0000E94B3150E94EF13B801CE01DF91CF91C4
:1026B0001F910F910C94CE10CF93DF93EC01988172
:1026C00089812B813C81232B19F089238F3F59F479
:1026D000DF91CF910895CE010E944513CE01DF9185
:1026E000CF910C94350FCE010E94560F8111F3CF7C
:1026F0000E946519882361F38A81882349F38091B8
:10270000DF0282FDE5CF82E0DF91CF910C940F1ABA
:1027100090E080E00E94222B90E080E00E94382B25
:102720000E948E190C94AE190E9455190C948813AE
:102730000E947D190C949413282F92959F709630C7
:1027400091F060F4925F9F70923030F481E0203F0E
:1027500081F030F4283E30F080E008959A5FF3CFA6
:10276000243FD1F7089581E0283EE0F3213FA1F70F
:10277000F9CF0895FC01808191810E944D160C943F
:102780009C13CF93DF9300D000D00F92CDB7DEB76C
:102790000F900F900F900F900F90DF91CF910895B1
:1027A000CF93DF9300D000D000D0CDB7DEB7269610
:1027B0000FB6F894DEBF0FBECDBFDF91CF91089565
:1027C00008950C94E0130E94E1136093C501709387
:1027D000C6018093C7019093C8010C948813089593
:1027E0000C94E313CF93DF9300D000D0CDB7DEB7C6
:1027F00069837A838B839C838091C5019091C60104
:10280000A091C701B091C80129813A814B815C81B7
:10281000282B392B4A2B5B2B29833A834B835C83F0
:10282000CA01B9010F900F900F900F90DF91CF91D7
:102830000C94E313CF93DF9300D000D0CDB7DEB775
:1028400069837A838B839C838091C5019091C601B3
:10285000A091C701B091C80129813A814B815C8167
:10286000282339234A235B2329833A834B835C83C0
:10287000CA01B9010F900F900F900F90DF91CF9187
:102880000C94E313CF93DF9300D000D0CDB7DEB725
:1028900069837A838B839C838091C5019091C60163
:1028A000A091C701B091C80129813A814B815C8117
:1028B000282739274A275B2729833A834B835C8360
:1028C000CA01B9010F900F900F900F90DF91CF9137
:1028D0000C94E3130C94E0130C946A140E946C148F
:1028E0006093C1017093C2018093C3019093C401AE
:1028F0000C94881360E070E0CB010C946E140F937D
:102900001F93CF93DF9300D000D0CDB7DEB741E067
:1029100050E060E070E08A019B0104C0000F111FCD
:10292000221F331F8A95D2F709831A832B833C8396
:10293000C901B8010F900F900F900F90DF91CF91C8
:102940001F910F910C946E140F931F93CF93DF93ED
:1029500000D000D0CDB7DEB741E050E060E070E0DD
:1029600004C0440F551F661F771F8A95D2F78091C8
:10297000C1019091C201A091C301B091C4018A012B
:102980009B01082B192B2A2B3B2B09831A832B83A2
:102990003C83C901B8010F900F900F900F90DF9109
:1029A000CF911F910F910C946E140F931F93CF939F
:1029B000DF9300D000D0CDB7DEB741E050E060E05B
:1029C00070E004C0440F551F661F771F8A95D2F729
:1029D00040955095609570958091C1019091C2018C
:1029E000A091C301B091C4018A019B01082319235E
:1029F0002A233B2309831A832B833C83C901B80113
:102A00000F900F900F900F90DF91CF911F910F912A
:102A10000C946E140F931F93CF93DF9300D000D0CC
:102A2000CDB7DEB741E050E060E070E004C0440F95
:102A3000551F661F771F8A95D2F78091C10190912B
:102A4000C201A091C301B091C4018A019B01082772
:102A500019272A273B2709831A832B833C83C90123
:102A6000B8010F900F900F900F90DF91CF911F91B1
:102A70000F910C946E14CF93DF9300D000D0CDB79C
:102A8000DEB769837A838B839C838091C1019091A7
:102A9000C201A091C301B091C40129813A814B8147
:102AA0005C81282B392B4A2B5B2B29833A834B8360
:102AB0005C83CA01B9010F900F900F900F90DF91C6
:102AC000CF910C946E14CF93DF9300D000D0CDB78C
:102AD000DEB769837A838B839C838091C101909157
:102AE000C201A091C301B091C40129813A814B81F7
:102AF0005C81282339234A235B2329833A834B8330
:102B00005C83CA01B9010F900F900F900F90DF9175
:102B1000CF910C946E14CF93DF9300D000D0CDB73B
:102B2000DEB769837A838B839C838091C101909106
:102B3000C201A091C301B091C40129813A814B81A6
:102B40005C81282739274A275B2729833A834B83CF
:102B50005C83CA01B9010F900F900F900F90DF9125
:102B6000CF910C946E140895E92FEE0FEE0FE90F3C
:102B7000E80F8E2F877041E001C0440F8A95EAF775
:102B8000E695E695E69585E0E89FF0011124EE5480
:102B9000FE4F30E020E070E05191DF011197CB0152
:102BA000022E02C0969587950A94E2F7817081956E
:102BB0008527842385278C932F5F3F4F2530310550
:102BC00059F70895E92FEE0FEE0FE90FE80F9E2F4A
:102BD0009770E695E695E69585E0E89FF00111246B
:102BE000EE54FE4F50E040E080E0219130E0092EAD
:102BF00002C0369527950A94E2F721703327042EF8
:102C000001C0220F0A94EAF7822B4F5F5F4F4530D5
:102C1000510559F70895BF92CF92DF92EF92FF923C
:102C20000F931F93CF93DF938C01C090C101D0907D
:102C3000C201E090C301F090C4018091C501909160
:102C4000C601A091C701B091C801C82AD92AEA2AB1
:102C5000FB2ACFE1D0E0BC2ED701C6010C2E04C068
:102C6000B695A795979587950A94D2F780FD0EC0E3
:102C7000219788F7B12C8B2DDF91CF911F910F9168
:102C8000FF90EF90DF90CF90BF900895B8018C2F08
:102C90000E94EC1C019761F3EECFCF93DF93D82F06
:102CA000C92F0E940B166D2F7C2FDF91CF910C94B2
:102CB000EC1C1F93CF93DF93162FD72F9091B10168
:102CC000992339F0862F972FDF91CF911F910C9484
:102CD0004D16882391F0862F972F0E940B16C82F30
:102CE000682F812F9D2F0E94B415612F7D2F8C2F6F
:102CF000DF91CF911F910C94EC1C862F972F0E948F
:102D0000E215C82FF2CF1F93CF93DF93E091C90153
:102D100016E08091CA018E1304C0DF91CF911F91FC
:102D20000895CE2FD0E01E9FF0011124E553FE4FF1
:102D30004081518162817381848195810E94D01389
:102D40002196EC2FE770E5CF4091FB015091FC01FB
:102D50006091FD017091FE018091FF019091000250
:102D60000C94D013FF920F931F93CF93DF93809116
:102D70000002807FD1F48091FD018823B1F0809121
:102D8000C9011091CA017091FB016091FC01A091F1
:102D9000FE01B091FF01062F0723C0910001D091E1
:102DA000010196E0F92E181306C0DF91CF911F9113
:102DB0000F91FF90089590E0109711F00F3F19F4D4
:102DC00001968770F0CFF89E9001F99E300D112486
:102DD000F901E553FE4F41816413F2CF408147135F
:102DE000EFCF42814111ECCF438154814A1B5B0BF1
:102DF0004C175D0728F7809100028F7080618093E7
:102E00000002F901E053FE4F80818F708061808362
:102E10008BEF91E00E945C13DF91CF911F910F9196
:102E2000FF900C948316AF92BF92CF92DF92EF92F5
:102E3000FF920F931F93CF93DF93CDB7DEB72B97FE
:102E40000FB6F894DEBF0FBECDBF8C0185E0F80150
:102E5000DE01179601900D928A95E1F7D80112963E
:102E6000EC9012971396CD90DC908BEFA82E81E01A
:102E7000B82E2091FB019091FC014091FE015091F0
:102E8000FF014115510529F0892F82238F3F09F059
:102E90004DC1EE2009F45DC1C8010E94BA13F82E9D
:102EA000882309F456C186E0F801ABEFB1E0019048
:102EB0000D928A95E1F78BEF91E00E9430100E940D
:102EC000B21603C180910002E82FE07F4617570732
:102ED00008F0ABC0D80111963C911197E111E1C007
:102EE000FE2C391325C09C91921322C0E11020C002
:102EF0008F708061809300020E94A4168BEF91E096
:102F00000E945C1380910002F80185838F2D2B961F
:102F10000FB6F894DEBF0FBECDBFDF91CF911F91EA
:102F20000F91FF90EF90DF90CF90BF90AF900895FA
:102F30002F81CD2829F0832F82238F3F09F0AEC047
:102F400080E0F82FF170DF2EE091C9014091CA01B5
:102F500056E080FD1CC0EE20C9F280910002816025
:102F600080930002F12CD2CF8E2F90E05E9FF00173
:102F70001124E553FE4F6181361306C06081621350
:102F800003C06281E612E7CF0196E82FE770E413F1
:102F9000EBCF8F8198850E944D16292F22952F7097
:102FA000903268F0225F2F70223080F49F7059F0C9
:102FB000D80115969C91907F31F4D12C0AC09F7056
:102FC00011F08823D1F3805E8830B8F3C8010E94E5
:102FD0005C13FD2C9BCFC8010E94BA13882309F40F
:102FE000B8C0EE2009F4B5C080910002803270F0C4
:102FF0002091FB013091FC013A8329831B82DD8201
:10300000CC828E83CE0101960E945C1386E0F8018B
:10301000ABEFB1E001900D928A95E1F70E94B216F4
:103020000E94A416FF24F39471CFE11151C04F8187
:10303000588569857A858B850E94C1138BEF91E055
:103040000E945C1386E0D5011D928A95E9F70E94E3
:10305000A41688CF86E0F801ABEFB1E001900D92A5
:103060008A95E1F753CFC8010E94BA138111CECFE0
:1030700080910002816080930002C8010E945C136D
:1030800045CF4F81588569857A858B850E94C1130C
:1030900086E0D5011D928A95E9F717C081E08E255B
:1030A00050CF391398CFF8019081921394CFE1104B
:1030B00092CF8583C8010E945C1386E0F801ABEFD4
:1030C000B1E001900D928A95E1F70E94A4161ECFFF
:1030D000F801318193137FCFF801908192137BCF58
:1030E000E11079CF8583C8010E945C1386E0D50189
:1030F0001D928A95E9F70ACFD80111968C91981301
:10310000B2CFF80180818213AECF8091000280FDA2
:10311000A1CF982F907F09F49DCF8583903F51F2E6
:10312000982F907F905F8F70892BC3CFF090FD0117
:10313000F601E41BF50BAF016091000170910101F4
:10314000F110C0CE4617570708F09BCFFE2CE110B8
:10315000D3CFC8010E945C1365CF1F93CF93DF9339
:10316000CDB7DEB72C970FB6F894DEBF0FBECDBF3C
:103170004F83588769877A878B879C87CE0107960C
:103180000E941317882369F08A859B85892B39F063
:1031900058854F81852F84238F3F09F071C016E039
:1031A0005FC086E0FE013796DE01119601900D9218
:1031B0008A95E1F78F8198852091CA014091C901D4
:1031C0006A857B85672B59F389238F3F41F330E074
:1031D000C9010196877099274817190671F40E9452
:1031E00098131092CA011092C90186E0EBEFF1E04A
:1031F000DF011D928A95E9F7D2CF96E0929FD00128
:10320000939FB00D1124A553BE4FFE01319601903E
:103210000D929A95E1F78093CA010E948316BFCF61
:10322000819FC001112485539E4F0E94131788234C
:10323000E9F0E091C9011E9FF0011124E553FE4F12
:103240004081518162817381848195810E94D01374
:103250008091C90190E00196877099278093C901F8
:103260008091C9019091CA018913DACF2C960FB6CB
:10327000F894DEBF0FBECDBFDF91CF911F910895AF
:1032800069857A858B859C850E94D01388CF682FAD
:1032900080910201909103010C949A2B682F8091E8
:1032A0000201909103010C949C2B8091020190915A
:1032B00003010C949E2B8091090285958595859537
:1032C000089580910902877008959091090297707E
:1032D00081E009F480E008958091140208959091AE
:1032E0001402982B909314020895982F9095809132
:1032F00014028923809314020895109214020895F1
:1033000090911302982B909313020895982F909503
:10331000809113028923809313020895109213025F
:10332000089580910A02089508950C94941990913B
:10333000DF0292FD08C090910A02981721F0809355
:103340000A020C949519089580910A02882329F0A5
:1033500010920A0280E00C9495190895CF93DF93A0
:10336000E0910201F0910301809114028083E091C9
:103370000201F0910301808190911302892B8083D7
:1033800090910A02992381F0E0910201F0910301EA
:103390008081892B808380910201909103010E949A
:1033A0004E2B81110E94A419C0910201D0910301FA
:1033B00048E050E061E072E0CE010E943034892B99
:1033C00069F088E0FE01A1E0B2E001900D928A95DB
:1033D000E1F7CE01DF91CF910C94172BDF91CF91C4
:1033E000089508950C94F1199091DF0292FD10C098
:1033F00098E0899F90011124622B609309020E943A
:10340000A414809109028595859585950C94F219EF
:103410000C94A4141092090280E00C94F21990917B
:1034200009028095892380930902282F277091F43F
:10343000282F082E000C330B9217130659F0909189
:10344000DF0292FD07C08595859585950E94D5146C
:103450000C940A1A08959091DF0292FB222720F91A
:10346000281769F080FB92F99093DF028091DE02C9
:103470009091DF020E94701A82E00C940F1A089556
:103480008091DF0282FB882780F991E089270C94E4
:103490002B1A81E00C942B1A80E00C942B1A90E0EC
:1034A00080E00E94DF369C0181E0293E3E4F09F01A
:1034B00080E0089582E090E00C94D73683E090E0BD
:1034C0000C94D736CF9384E090E00E94D736C82F73
:1034D00082E290E00E94D736982F8C2FCF910895EA
:1034E000CF93682FC92F84E090E00E94E5366C2FBF
:1034F00082E290E0CF910C94E536AB01BC018FE005
:1035000090E00C94F736AB01BC0183E190E00C94A1
:10351000F73660E070E0CB010C94831A60E070E055
:10352000CB010E947D1A0C94891A69EE7EEF90E01F
:1035300080E00E94033760E082E090E00E94E53680
:1035400060E083E090E00E94E5361092C5011092A1
:10355000C6011092C7011092C80160E084E090E0BB
:103560000E94E53660E082E290E00E94E53660E08D
:1035700085E090E00E94E53660E086E090E00E9401
:10358000E5366FEF87E090E00E94E53640E050E0DE
:10359000BA0188E090E00E94F73660E08DE090E0AC
:1035A0000E94E53640E050E0BA0188E190E00E94D8
:1035B000F73660E087E190E00E94E53640E050E0B9
:1035C000BA018CE190E00E94F73670E060E080E2A2
:1035D00090E00E94033740E050E0BA0188E190E0BB
:1035E0000E94F7360C948E1A0C94951A682F8EE070
:1035F00090E00C94E5360E94442C60932102709375
:103600002202809323029093240260931D02709300
:103610001E0280931F029093200208950E94442C62
:1036200060932102709322028093230290932402DC
:103630006093190270931A0280931B0290931C02EC
:10364000089585B7806885BF85B7806885BF089570
:10365000089508950C94291B08950C942C1B0E9426
:10366000211B8BEC9DE10E94FE2A0E94281B0C94DA
:103670002A1B81E008950C94391B089508950E9437
:103680003D1B0C943E1B0E94CE1D0C94D00F0E943B
:103690002F2C0E94B31E0E94431B80E00E94A21F99
:1036A0000E94D4230C942D1B9F92AF92BF92CF9275
:1036B000DF92EF92FF920F931F93CF93DF9300D08F
:1036C00000D00F92CDB7DEB70E94C81ED82E811150
:1036D0000E94FB1A85E1A82E82E0B82E10E000E0DF
:1036E000902E802F0E940C1EF82EF501E1905F01B4
:1036F000E81609F444C08091250281FD0E94121E43
:103700008E2D8F25C12CEE24E394982F9E2191F1CC
:103710000E943B1B882399F0C9829A82FE2081E097
:1037200009F480E08B830E94382C8160782F9D8380
:103730008C8349815A816B81892F0E94EB0FF8019C
:10374000EB5EFD4F80818E25808381E0D11001C02A
:1037500080E00F900F900F900F900F90DF91CF911E
:103760001F910F91FF90EF90DF90CF90BF90AF909F
:103770009F900895C394EE0CF5E0CF12C6CF0F5F73
:103780001F4F0430110509F0ABCF8FEF89838A8377
:103790001B820E94382C8160782F9D838C83498105
:1037A0005A816B81892F0E94EB0FCFCFCF93DF938C
:1037B0000E94541BD82F0E94F7280E943124C82F42
:1037C00081110E940E1B0E948D22D11101C0C111D6
:1037D0000E944921DF91CF910C94E00FCF93DF93AA
:1037E0000E94F01CEC01811522E5920708F054C0FC
:1037F000811531E5930708F0AEC08F3B9105B8F411
:10380000883A910508F099C0853A910568F40497C3
:1038100038F481E0219709F080E0C82F80E0D82FAC
:10382000CE01DF91CF910895A497D064F9CFC1154F
:1038300090E5D907A0F4C11520E4D20708F088C0AC
:10384000C83ED10530F4C03ED10550F7D0E0C0E00D
:10385000E7CFCE019A9581159F4110F3F7CF9E01D6
:10386000F4E036952795FA95E1F723708C2F86952D
:103870008695837030E2839FC0011124922BC37020
:1038800021E030E002C0220F331FCA95E2F7822BFD
:10389000932BEC01DC68C4CFC11586E5D80730F561
:1038A000C11595E5D90708F06AC0C11524E5D2070E
:1038B000C0F48C2F869586959E0123703327C11501
:1038C000D34508F04DC0C1E0D0E002C0CC0FDD1FF1
:1038D0002A95E2F720E2829FC0011124C82BD92B40
:1038E000D9CFDC2FCC27C46FD06A9ACFC1153AE567
:1038F000D30788F4C11589E5D80708F04BC0CE017D
:1039000098558F3F910511F008F0A0CFDC2FCC2700
:10391000C06FD06A85CFCE0190568115904208F0D5
:1039200095CF8D2F8F710E94881D90E0982F88274A
:1039300088279F718C2BEC012BC0C85AD0E0CC0F8C
:10394000DD1FC05BDE4F0990D881C02DD46468CFE5
:10395000DF70D06A65CFD82FCC27C16FD06A60CF17
:10396000C1E0D0E002C0CC0FDD1F2A95E2F730E2C3
:10397000839FC0011124C82BD92BDA6851CF8C2F1B
:103980000E94881DC82FD0E0DC2FCC27CC27DF7108
:10399000D06246CF8C2F8F700E94881D34E0D69560
:1039A000C7953A95E1F7CF709C2FEC01D06938CFDD
:1039B000972F70E025E0929F600D711D1124FB018F
:1039C00094E1899FE00DF11D1124EE0FFF1FE756D2
:1039D000FB4E8591949108950E94D81C0C94EE1B87
:1039E000803E910599F1C8F48133910509F476C0C0
:1039F00048F48932910509F46AC08A32910509F4C4
:103A000074C0089589339105D1F082389105B9F0D9
:103A10008533910509F454C00895843E910599F1C8
:103A200038F4823E9105F9F0833E910509F108953D
:103A3000863E910599F1873E9105B9F1089520914F
:103A4000DE022370A1F080EE90E008952091DE0266
:103A500020FD52C03091DF0230FF09C024FF4FC06B
:103A600090E080E004C02091DE0222FDF7CF0895AF
:103A70002091DE0222FD46C03091DF0230FDE3CF0F
:103A800024FFF5CFEDCF2091DF0221FFF0CF809111
:103A9000DE0284FDE5CF87EE90E008952091DE02FE
:103AA00023FFE5CF24FDDCCFF6CF2091DE0223FDFE
:103AB0002CC03091DF0231FFE3CF84EE90E0089517
:103AC0002091DE0225FFD3CF89E290E00895209176
:103AD000DE0225FFCCCF85E390E008952091DE0241
:103AE00026FFC5CF8AE290E008952091DE0226FFEE
:103AF000BECF81E390E0089589E390E0089583EEDE
:103B000090E0089582EE90E0089586EE90E00895AA
:103B10009091DE0292FF06C0282F28712830F9F418
:103B2000877F846093FF06C0282F28712831F1F425
:103B3000877E84612091DF0220FF06C0382F387114
:103B40003830D9F4877F816021FF06C0282F287183
:103B50002831D1F4877E816194FD877E0895282FD6
:103B600024712430F9F68B7F8860DCCF282F2471F4
:103B7000243101F78B7E8861DDCF382F31713130F0
:103B800019F78E7F8860E0CF282F2171213121F72E
:103B90008E7E8861E1CF80E008950895CF93DF9312
:103BA00000D000D0CDB7DEB70E944F1A811102C0FD
:103BB0000E94F41A0E945A1A809325020E94621AE7
:103BC0009093DF028093DE020E94CD1D0E945E1A58
:103BD000282F30E050E040E0CA01B9010E94F01304
:103BE0008091C1019091C201A091C301B091C40123
:103BF00089839A83AB83BC83BC01CD010F900F9066
:103C00000F900F90DF91CF910C946C1408950C9449
:103C1000061E08950C94091EE82FF0E0EC51FD4FAC
:103C200080810895089580EA8A95F1F7089500C08B
:103C300008950C94131EF894E82FE295EF70F0E0CD
:103C400041A18F7021E030E0B90102C0660F771FFB
:103C50008A95E2F7CB01962F9095942391A392A198
:103C6000892B82A378940895CF93DF9384EF0E94E9
:103C70001B1E85EF0E941B1E86EF0E941B1E87EFF6
:103C80000E941B1ECEE7D1E089918F3F11F00E9468
:103C90001B1E81E0C338D807B9F7DF91CF91089593
:103CA000CF92DF92EF92FF920F931F93CF93DF9308
:103CB000EC01D62E062F10E0C8018D579E4F7C01D7
:103CC000FC0180818F3F09F445C0F894E82FE2950C
:103CD000EF70F0E091A18F7021E030E001C0220F81
:103CE0008A95EAF7892F822B81A382A12095282328
:103CF00022A378940E94171EEEE7F1E043E851E01A
:103D000091E0C12C81918F3F79F0A82FA295AF70DF
:103D1000A05EB0E02C9130E08F7002C03595279501
:103D20008A95E2F7892F20FD80E0C82A990F4E1767
:103D30005F0741F7F70180818F3F11F00E941B1E42
:103D400061E0C11001C060E08D2D0E94191EC00FFE
:103D5000D11FC882DF91CF911F910F91FF90EF90FB
:103D6000DF90CF9008950E94341E84E0E4EEF2E0EC
:103D7000DF01982F1D929A95E9F7E0EEF2E0DF015E
:103D80001D928A95E9F784E00E940B1F0C94420F64
:103D90001F93CF93DF9300D000D0CDB7DEB71A8248
:103DA00019821C821B8210E0612FCE0101960E94B5
:103DB000501E1F5F1430C1F744E050E0BE016F5F3A
:103DC0007F4F80EE92E00E9430349C0111E0892BFD
:103DD00009F410E0232B61F089819A81AB81BC81C9
:103DE0008093E0029093E102A093E202B093E30299
:103DF000212F44E064EE72E080EE92E00E940C1FFE
:103E00000E94440F812F0F900F900F900F90DF9121
:103E1000CF911F9108950895FF920F931F93CF9311
:103E2000DF93F82E092F162FD72FC42F222349F006
:103E300081E0809328020E94382C9093270280937F
:103E40002602809128028823A1F080912602909179
:103E500027020E94642C059760F0EF2DF02FA12F10
:103E6000BD2FCF018C0F911DE817F90741F4109277
:103E70002802DF91CF911F910F91FF90089521911A
:103E80002D93F2CF0E94402E0E94471B0C944C2E83
:103E90000E94502E0E94D61B0C946A2E0E94D82B92
:103EA0000E94272E0E942F1B0E94421F0E94481F23
:103EB0000E943F1BFBCFCF92DF92EF92FF920F93B6
:103EC0001F93CF93DF936C017B0164E670E088E77A
:103ED0000E94F429EC018601EC0CFD1C97FD0EC03C
:103EE000F801849164E670E00E946D2AEC01892B50
:103EF00029F40F5F1F4FE016F10691F70E94FA2A8E
:103F0000CE01DF91CF911F910F91FF90EF90DF9045
:103F1000CF90089508950C948A1FE8EEF2E080E0B7
:103F200092E0DF019C011D9221503040E1F7F093B7
:103F3000ED04E093EC048FEF9FEF90935502809394
:103F400054020895CF93DF9300D000D0CDB7DEB7F1
:103F50000E948A1F0E948B1F90E280FF90E880934E
:103F6000500290934F020E94EE296DE070E080E5D0
:103F700095E10E945B1F892B41F080E00F900F902C
:103F80000F900F90DF91CF9108958091500263E0E0
:103F900070E081FD28C08DE495E10E945B1F892BB4
:103FA00061F76DE070E08DE395E10E945B1F892B66
:103FB00021F70E94442CDC01CB01805A9541AF4F80
:103FC000BF4F8093E8049093E904A093EA04B09370
:103FD000EB040E948D1F81E0809353028093520274
:103FE00010925102CBCF8AE495E1D7CF20914F02B6
:103FF00036E0839FC0011124629F800D911D112422
:10400000811522E0920714F090E080E088519D4FE6
:104010009093ED048093EC0408952091EC0430918A
:10402000ED04225E324040914F02642F70E0C901DE
:104030000E947433481B463010F4240F311D2115A3
:1040400082E0380710F030E020E028513D4F3093F7
:10405000ED042093EC0408951F93CF93DF93982FE2
:10406000162F81E09A3019F09D3031F480E0DF9115
:10407000CF911F910C94A620C091EC04D091ED0437
:1040800086E0FE01A9E2B2E001900D928A95E1F787
:10409000903EC8F086E0FE0111928A95E9F7111171
:1040A0001EC0C091EC04D091ED0446E050E0BE018A
:1040B00089E292E00E943034892BF9F4DF91CF91AC
:1040C0001F910C940D20F6E09F9FB0011124635ABC
:1040D0007A4E46E050E0CE010E942734E0CFE091D6
:1040E000EC04F091ED049F012A5F3F4F2E173F072C
:1040F000C1F2808180958193F9CFC85ED240CE0114
:1041000025E0969587952A95E1F721E030E0A90111
:1041100002C0440F551F8A95E2F7CA01409154022C
:1041200050915502842B952B259645E0D695C79541
:104130004A95E1F702C0220F331FCA95E2F7822B9E
:10414000932B9093550280935402B8CFCF93E82FCE
:104150002091EC043091ED04285E324040914F02F2
:10416000642F70E0C9010E947433481B842FEE2332
:1041700069F066E00E946833C82FC15010F4CF91F7
:10418000089560E080E20E942C20F7CFA901480F3B
:10419000511D4115524018F080E030E020E0280F1A
:1041A000311D28513D4F3093ED042093EC04E7CFAF
:1041B000FF920F931F93CF93DF93EC01F62EFC0138
:1041C00001900020E9F78F0101501109C017D107B4
:1041D00030F0DF91CF911F910F91FF9008956F2DD7
:1041E00089910E942C20F2CF1F93CF93DF93EC0193
:1041F000162FFE018491811104C0DF91CF911F9190
:104200000895612F0E942C202196F3CFCF93DF9346
:10421000B82FA92F9B018091EC049091ED04885E4A
:104220009240AC01460F571F4130524020F020E031
:1042300032E0281B390B4091540250915502EB2F6C
:10424000FA2F280F391FC1E0D0E08217930738F00A
:104250005093550240935402DF91CF910895649199
:10426000DC01A851BD4F7C91761781F06C93BC01A5
:10427000A5E076956795AA95E1F7DE0102C0AA0F41
:10428000BB1F6A95E2F7BD014A2B572B0196319669
:10429000DCCFCF93DF9300D000D0CDB7DEB78091D5
:1042A0005302811109C0809152020F900F900F901C
:1042B0000F90DF91CF9108950E94442CDC01CB0137
:1042C000805A9541AF4FBF4F8093E8049093E90423
:1042D000A093EA04B093EB04809152028111E3CFE2
:1042E00062E070E08BE395E10E945B1F892BD9F6B9
:1042F00081E080935202D7CF2F923F925F926F92CC
:104300007F928F929F92AF92BF92CF92DF92EF9265
:10431000FF920F931F93CF93DF93809153028823D3
:1043200069F020915402309155022115310531F088
:104330008091510261E070E0882399F0DF91CF9184
:104340001F910F91FF90EF90DF90CF90BF90AF90B3
:104350009F908F907F906F905F903F902F900895E7
:104360008F5F082F10E01B01082E02C0220C331CA7
:104370000A94E2F7A90142215321452B89F32091A8
:104380005002922F917020FD45C0980136952795D7
:10439000369527958295880F80763FE1380F809378
:1043A0000601209309013093070190930A0124E646
:1043B00030E047E050E064E071E088E70E949C2A2A
:1043C000892B09F0BBCFA80125E0440F551F2A9582
:1043D000E1F78091500280FD25C048515D4F04E611
:1043E00010E020E230E060E488E70E94C92A892BCF
:1043F00009F0A4CF0E944921E101C095D095809198
:10440000540290915502C823D923D0935502C093EA
:10441000540294CF880F880F880F37E0380F20E0C0
:1044200093E0BDCFEFE2F2E080E2DF011D928A95DA
:10443000E9F7ABE8B1E007E811E08FE8C82E81E0CA
:10444000D82E97E0592E772473949D91E801899195
:104450008E01BA01680F711D68517D4FE92FF0E0A0
:10446000E15DFD4F90E080E0652C681A872C082EF6
:1044700001C0880C0A94EAF77B01A12CE701B990EE
:104480007E01B820262D2A192770922E022E000CAC
:10449000330BDB2D01C0DD0F9A94EAF79D2E319589
:1044A000219531092770332701C0B6942A95EAF780
:1044B0009B282081922A9082A39428E0A212DECF2A
:1044C000019631968830910579F6CA16DB0609F017
:1044D000BCCF04E610E020E230E04FE252E083CFB0
:1044E0008091520290915302911103C091E089276B
:1044F0000895882369F062E070E089E395E10E9405
:104500005B1F892B19F0809152020895109252027C
:1045100080915202EBCF0C94440ECF93DF9300D0E6
:1045200000D0CDB7DEB780915302882389F160E0D7
:1045300080E00E94F61F0E948B220E947C218091C5
:104540005202882329F10E94442C69837A838B8349
:104550009C838091E8049091E904A091EA04B091D1
:10456000EB0429813A814B815C81281B390B4A0B72
:104570005B0BDA01C9018F3F9F4FAF4FBF4740F43C
:104580000F900F900F900F90DF91CF910C947022AD
:104590000F900F900F900F90DF91CF910895CF93D0
:1045A000DF93EC01FB018281882309F4F2C0C2365B
:1045B000FDE5DF0749F048F5C631ECE5DE07E0F43C
:1045C000C230FCE5DF07F0F00E94621A9093DF0230
:1045D0008093DE02C631ECE5DE0748F5C230FCE52B
:1045E000DF07C0F48091DE029091DF020E94701A12
:1045F0000E94981380E006C09E012B5F3C45293045
:10460000310510F3DF91CF910895C63A9DE5D907A2
:10461000C9F7DACFFE01E350FC458091DE028160EC
:10462000E331F10528F5EE5AF84C0C94DD33C43033
:104630008DE5D80770F4CB3F9CE5D90798F2FE01D1
:10464000EC5FFC45E830F10510F5EB59F84C0C94A3
:10465000DD33C236EDE5DE0709F494C09091DE0249
:10466000892F8E7F90FF8160C63ADD4509F0BACF71
:104670008093DE02B7CF8091DE028260F9CF809115
:10468000DE028460F5CF8091DE028860F1CF8091F8
:10469000DF0281608093DF02A5CF8091DF0282601C
:1046A000F9CF8091DE028061E3CF8091DE028062EB
:1046B000DFCF8091DE028064DBCF0E94981380916F
:1046C000DE028068D5CF8091DE028C60D1CF8091F0
:1046D000DF028360DFCF8091DE028E7FC9CF8091C1
:1046E000DE028D7FC5CF8091DE028B7FC1CF8091AE
:1046F000DE02877FBDCF8091DF028E7FCBCF80919E
:10470000DF028D7FC7CF8091DE028F7EB1CF809197
:10471000DE028F7DADCF8091DE028F7BA9CF0E941C
:1047200098138091DE028F77A3CF8091DE02837F82
:104730009FCF8091DF028C7FADCF8091DE0282FB24
:10474000992790F921E0922790FB82F990FB83F959
:104750008FCF8091DF02982F909591708E7F892B5B
:1047600090FB81F997CF0E9498139091DE02892FD8
:1047700097FB87F980587CCF81E00E94F61A32CFF0
:1047800080E0FBCF9091DE02892F8F7E94FF8061C5
:104790006FCF81E037CF8FE891E00197F1F700C04C
:1047A000000008950C94330E0F931F93CF93DF9363
:1047B000C1EAD1E02FE931E043EA51E081E090E045
:1047C0006991E62FE295EF70A1E2AE0FB0E07C9127
:1047D0006F708C0101C0000F6A95EAF7602F609539
:1047E00067236C93EE5DF0E06081602B6083F901DC
:1047F00061919F01E62FE295EF70A1E2AE0FB0E06C
:104800007C916F708C0101C0000F6A95EAF7602FF0
:10481000609567236C93EE5DF0E06081602B6083B0
:104820004C175D0769F60E94CB2393B183B1829543
:104830008170880F95FB992790F9892B80935A02F4
:1048400089B19CB196FB992790F9990F881F882709
:10485000881F892B80935B02DF91CF911F910F916D
:1048600008954F925F926F927F928F929F92AF9234
:10487000BF92CF92DF92EF92FF920F931F93CF934D
:10488000DF934AE5E42E42E0F42E51EAA52E51E0F2
:10489000B52E6FE9C62E61E0D62E08E512E0C6E51A
:1048A000D2E0512C412C74E0672E712CD701ED9190
:1048B0007D01D5014D915D01A42FA295AF70A05E41
:1048C000B0E02C91D6013D916D01A32FA295AF7060
:1048D000A05EB0E08C9190E03F7002C09595879506
:1048E0003A95E2F7880F991F8270992730E04F7050
:1048F00002C0359527954A95E2F721703327822B20
:10490000EE0FEE0FE82BD7011197EC93D8018D91A4
:104910008D01EF70F0E0E157FE4F9081890FFD01AE
:1049200082934F0120E0843044F088818F5F888338
:1049300061E0852D0E94D22321E0D4018C918D3F2E
:1049400044F488818150888360E0852D0E94D223C1
:1049500021E0F4018081082E000C990BB3010E9424
:1049600088338083422A2196F1E05F1212C0842DA1
:10497000DF91CF911F910F91FF90EF90DF90CF903B
:10498000BF90AF909F908F907F906F905F904F906F
:104990000895552453948ACFCF93DF93EB0186314A
:1049A0009C4511F50E946C199A81992399F08A7A95
:1049B00091E009F490E090935C02811109C089E2D2
:1049C0000E9447190E94AE1980E0DF91CF910895AF
:1049D00085E3F6CF80915C02811104C089E20E94D8
:1049E0004E19F0CF85E3FBCF81E0EFCF4F925F927E
:1049F0006F927F928F929F92AF92BF92CF92DF92EF
:104A0000EF92FF920F931F93CF93DF93EC01DB01A3
:104A1000E881F981CF01815095458F3F910510F4D0
:104A200085E5F82712964C90442009F45CC2EF3FCC
:104A3000F10509F100F1EB32FD4521F010925D0224
:104A4000A42D07C080915D0291E0892780935D02CB
:104A5000A0E08A2FDF91CF911F910F91FF90EF90EF
:104A6000DF90CF90BF90AF909F908F907F906F908E
:104A70005F904F900895A0915D02AA2309F4E6C0CB
:104A800010925D02E03CF10508F03FC0E038F1050E
:104A900008F0A6C08F01005411090034110508F474
:104AA0006CC021E030E040E050E060E070E080E089
:104AB00090E00E2F0E94F633B0915E022B2BB09146
:104AC0005F023B2BB09160024B2BB09161025B2BDC
:104AD000B09162026B2BB09163027B2BB0916402A8
:104AE0008B2BB0916502B92B20935E0230935F024D
:104AF000409360025093610260936202709363027C
:104B000080936402B093650235C021E030E040E05C
:104B100050E060E070E080E090E08F01005C1109FF
:104B20000E94F633B09176022B2BB09177023B2B8B
:104B3000B09178024B2BB09179025B2BB0917A0245
:104B40006B2BB0917B027B2BB0917C028B2BB091B5
:104B50007D02B92B2093760230937702409378023E
:104B60005093790260937A0270937B0280937C0267
:104B7000B0937D02F983E8836CCF21E030E040E020
:104B800050E060E070E080E090E00E94F633B09189
:104B900066022B2BB09167023B2BB09168024B2B26
:104BA000B09169025B2BB0916A026B2BB0916B02E2
:104BB0007B2BB0916C028B2BB0916D02B92B2093A3
:104BC00066023093670240936802509369026093D3
:104BD0006A0270936B0280936C02B0936D02CACF2D
:104BE00021E030E040E050E060E070E080E090E004
:104BF0008F01005811090E94F633B0916E022B2BE1
:104C0000B0916F023B2BB09170024B2BB0917102AF
:104C10005B2BB09172026B2BB09173027B2BB09126
:104C200074028B2BB0917502B92B20936E023093D6
:104C30006F024093700250937102609372027093FE
:104C4000730280937402B093750294CFE034F1053F
:104C500008F06AC050905E0260905F02709060023F
:104C60008090610290906202D0916302C0916402D0
:104C7000B091650221E030E040E050E060E070E09B
:104C800080E090E00E2F0E94F63359016A017B010B
:104C90008C0125213B2D362147215D2D582169218D
:104CA0007F2D7D238C23912F9B230E940F3409F0AD
:104CB000C7CE8F01E03CF10508F090C0E038F10567
:104CC00008F0E4C0005411090034110508F4B3C021
:104CD00021E030E040E050E060E070E080E090E013
:104CE0000E2F0E94F6332095309540955095609593
:104CF000709580959095252136214721582169216D
:104D00007D238C239B2320935E0230935F0240938C
:104D10006002509361026093620270936302809319
:104D200064029093650295CEE038F105E0F450906E
:104D300066026090670270906802809069029090AD
:104D40006A02D0916B02C0916C02B0916D0221E0B9
:104D500030E040E050E060E070E080E090E08F0103
:104D60000054110990CFE03CF105E0F450906E0240
:104D700060906F0270907002809071029090720249
:104D8000D0917302C0917402B091750221E030E0BD
:104D900040E050E060E070E080E090E08F0100587B
:104DA000110971CF5090760260907702709078026E
:104DB0008090790290907A02D0917B02C0917C021F
:104DC000B0917D0221E030E040E050E060E070E032
:104DD00080E090E08F01005C110955CF005C110963
:104DE00021E030E040E050E060E070E080E090E002
:104DF0000E94F633209530954095509560957095BA
:104E000080959095252136214721582169217D23C0
:104E10008C239B2320937602309377024093780271
:104E20005093790260937A0270937B0280937C02A4
:104E300090937D020ECE21E030E040E050E060E053
:104E400070E080E090E00E94F63320953095409528
:104E50005095609570958095909525213621472134
:104E6000582169217D238C239B2320936602309354
:104E70006702409368025093690260936A027093DC
:104E80006B0280936C0290936D02E3CD0058110980
:104E900021E030E040E050E060E070E080E090E051
:104EA0000E94F63320953095409550956095709509
:104EB00080959095252136214721582169217D2310
:104EC0008C239B2320936E0230936F0240937002D9
:104ED0005093710260937202709373028093740214
:104EE00090937502B6CDA1E0EF3FF10509F098F57A
:104EF000E034F10590F560905E0270905F02D09111
:104F00006002C0916102B0916202A0916302809040
:104F100064029090650221E030E040E050E060E003
:104F200070E080E090E00E2F0E94F63359016A0194
:104F30007B018C0126213B2D37214D235D2D5C23E8
:104F40006B237F2D7A23A1E08821912F99210E9444
:104F50000F3409F4A0E0A1707CCDE038F105E0F455
:104F60006090660270906702D0916802C0916902F9
:104F7000B0916A02A0916B0280906C0290906D02D9
:104F80008F010054110921E030E040E050E060E082
:104F900070E080E090E0C8CFE03CF105A0F46090C4
:104FA0006E0270906F02D0917002C0917102B09148
:104FB0007202A091730280907402909075028F012A
:104FC00000581109E0CF6090760270907702D0917E
:104FD0007802C0917902B0917A02A0917B02809010
:104FE0007C0290907D028F01005C1109CCCF0F9361
:104FF0001F93CF93DF93C42FD22FFC01828188238C
:10500000C9F0409380020E94382C90937F028093D5
:105010007E0280E28C0F883008F050C0C77081E0BB
:1050200001C0880FCA95EAF7DF91CF911F910F91C8
:105030000C94C01010918002141335C080917E0230
:1050400090917F020E94642C883C910560F5C0E23B
:10505000CD0F1D17B9F080E2810F883040F4177032
:1050600081E001C0880F1A95EAF70E94C710C83086
:1050700048F481E09D2F977001C0880F9A95EAF758
:105080000E94C010802F0E94B810C830B8F4D770AA
:1050900081E001C0880FDA95EAF7DF91CF911F9187
:1050A0000F910C94C71080E28C0F883038F4C770D1
:1050B00081E001C0880FCA95EAF7EFCFDF91CF9169
:1050C0001F910F9108950F939C01CB01243F4CE554
:1050D0003407A1F190F4293DFCE53F0749F12A3D51
:1050E0004CE53407E9F1283D3C45C1F0FC018281E3
:1050F0008823E1F11092800219C0263FFCE53F07AA
:1051000019F1273F4CE5340729F1253F3C4571F75C
:1051100007E225EE44EE65EF7CE505C006E221EEF0
:1051200041EE68ED7CE50E94F72780E00F9108953D
:1051300007E225EE45EE69ED7CE5F5CF06E221EECE
:1051400040EE64EF7CE5EFCF06E221EE42EE66EF43
:105150007CE5E9CF07E225EE46EE67EF7CE5E3CF9D
:1051600008E221E045EE6AED7CE5DDCF81E0DECFAF
:105170008091BE0208959C019056811540E29407EB
:1051800048F0905E811540E1940720F0915C811514
:105190009F4168F43327C9010497849778F02B5214
:1051A000310981E02E30310550F080E008952F3F25
:1051B000310589F380F330E020E0EDCF81E0089500
:1051C0000C94BB280E94E028882381F0E09187029C
:1051D000F0E0EE0FFF1FE857FD4F808191818F3F78
:1051E0002FE7920719F001969183808308958F929B
:1051F0009F92AF92BF92CF92DF92EF92FF92CF93A6
:10520000DF93CDB7DEB728970FB6F894DEBF0FBE99
:10521000CDBF8090880290908902092C000CAA08CA
:10522000BB0820910B0130E0E8E8F2E081E090E07B
:105230003296281739070CF0C1C08091BA029091BC
:10524000BB02A091BC02B091BD02BC01CD010E9485
:10525000732C6B017C0190910B019D83A9ECCA1604
:10526000D104E104F10414F18091870290E00196E9
:1052700069E170E00E94883380938702880F991F4C
:10528000FC01E857FD4F118210828D81883108F0B2
:1052900087E18F5F80930B010E94442C6093BA02D8
:1052A0007093BB028093BC029093BD02B2E08B1658
:1052B0009104A104B1040CF48DC0A0E6BAEEA501DE
:1052C00094010E94E33369837A838B839C839D815D
:1052D00088EC989F90011124032E000C440B550B71
:1052E0002C0D3D1D4E1D5F1DA5E0B0E00E94E33377
:1052F0006D837E838F83988769817A818B819C817E
:105300002D813E814F8158850E949C3349015A016D
:10531000A1EF8A169104A104B1042CF080EF882E2D
:10532000912CA12CB12C8091830290918402A091A8
:105330008502B0918602BC01CD010E94732C6B01E5
:105340007C0195E6C916D104E104F10484F00E94C1
:10535000442C60938302709384028093850290931F
:1053600086028091BE028093820280928102A09187
:105370008202AD83A09181028D81A81BBB0BA70186
:1053800096010E94EE3324E630E040E050E00E94B7
:10539000BE339D81920F9093BE0228960FB6F8946B
:1053A000DEBF0FBECDBFDF91CF91FF90EF90DF90BA
:1053B000CF90BF90AF909F908F9008954081518182
:1053C000052E000C660B770B840E951EA61EB71ECD
:1053D00001962ECF812C912C5401A5CF1092B900AB
:1053E0008CE08093B80008959F92AF92BF92CF92C5
:1053F000DF92EF92FF920F931F93CF93DF93B82E1C
:10540000EB010E94382C6C01EE24E394F12CC431A2
:10541000D10560F025E0E22EF12CCF3FDC0731F022
:10542000CE0164E170E00E9474337B0184EAA82E0F
:1054300094E8992E1092BC00A092BC000E94382CD7
:105440008C018091BC0087FF0CC08091B900887FDF
:10545000883031F18091B900887F803109F10FEFF8
:1054600008C00E94382C801B910B8E159F0548F3B5
:105470000EEF1FEFCF3FDC07E9F2C6010E94642C5C
:105480008C179D07B8F2C801DF91CF911F910F9142
:10549000FF90EF90DF90CF90BF90AF909F900895D6
:1054A000B092BB009092BC000E94382C8C0180917D
:1054B000BC0087FF0AC02091B900287F283111F075
:1054C000203469F600E010E0DECF0E94382C801B0B
:1054D000910B8E159F0558F3CBCF0F931F93CF934E
:1054E000DF93EB018093BB0084E88093BC000E94B3
:1054F000382C8C018091BC0087FF11C02091B9002D
:10550000287F81E090E0283211F490E080E09195CE
:1055100081959109DF91CF911F910F910895CF3F10
:10552000DC0741F30E94382C801B910B8C179D07E0
:1055300008F38EEF9FEFEECFCF92DF92EF92FF92C4
:105540000F931F93CF93DF936B018A01F22EE32E0B
:10555000622F732F0E94F429AC01E6010C0D1D1D72
:10556000C017D10711F057FF0DC084E98093BC002C
:10557000CA01DF91CF911F910F91FF90EF90DF90C3
:10558000CF9008956F2D7E2D89910E946D2AAC01D8
:10559000E7CFCF92DF92EF92FF920F931F93CF93BB
:1055A000DF93C62F6A017901B8010E94F4299C019A
:1055B00097FD0DC0B8018C2F0E946D2A9C01E60159
:1055C000EC0CFD1CCE15DF0511F037FF0DC084E992
:1055D0008093BC00C901DF91CF911F910F91FF9083
:1055E000EF90DF90CF900895B80189910E946D2AC5
:1055F0009C01E8CF84E98093BC0008959093A501B5
:105600008093A40108959093C4028093C3020895E7
:10561000E091C302F091C402309721F00190F08133
:10562000E02D099480E008950E94082B0895E091F0
:10563000C302F091C402309721F00280F381E02D83
:10564000099408952091C1023091C20228173907A8
:1056500071F09093C2028093C102E091C302F09175
:10566000C402309721F00680F781E02D0994089557
:105670002091BF023091C0022817390771F0909332
:10568000C0028093BF02E091C302F091C402309740
:1056900021F00084F185E02D09940895AC019C016E
:1056A0002E5F3F4F485F5F4F80E02417350709F4B6
:1056B0000895F90191919F019923B9F38F5FF5CF77
:1056C0009C01662351F0FC013296285F3F4F819187
:1056D000861729F0E217F307D1F780E0089581E0FB
:1056E00008959C01FC0132968FEF90E0419146179E
:1056F00051F08F3F19F4411101C0892F9F5F9630FF
:10570000A9F78F3F09F40895280F311D87FD3A95B9
:10571000F901628308959C01FC013296285F3F4F96
:105720008191861303C0DF0111971C92E217F307E2
:10573000B9F708950C94712B0C948B2BFC013296C5
:1057400086E0DF011D928A95E9F7089508950C948B
:10575000A62B8F5F8093C5020C94A72B83E08093C8
:10576000C5020C94A72B0C94A92B81E08093C50251
:105770000C94A72B0C94B52B089508950C94BD2B75
:10578000089508950C94BC2BCF930E94C02B0E94C7
:10579000C81E0E94C12BC0E08C2F0E940C1E8111DC
:1057A00005C0CF5FC430C1F7CF91089581E0FCCF31
:1057B00008951F921FB61F9211248F939F93AF934A
:1057C000BF938091C602811113C08091EE04909125
:1057D000EF04A091F004B091F1044196A11DB11D18
:1057E0008093EE049093EF04A093F004B093F1043F
:1057F000BF91AF919F918F911F901FBE1F901895E1
:105800008091F604843031F10E94BF0F1092C602DD
:1058100088E190E020E40FB6F894A89580936000AA
:105820000FBE2093600083B7817F846083BF83B7FE
:10583000816083BF7894889583B78E7F83BF0FB6CE
:10584000F894A89580916000886180936000109220
:1058500060000FBE08950E9498130C94C50F82E05B
:1058600084BD93E095BD9AEF97BD80936E00089537
:105870002FB7F8948091EE049091EF04A091F0047A
:10588000B091F1042FBF0895CF93DF9300D000D0E3
:10589000CDB7DEB78FB7F8942091EE043091EF04C6
:1058A0004091F0045091F10429833A834B835C8347
:1058B0008FBF69817A818B819C810F900F900F90AF
:1058C0000F90DF91CF9108959C014FB7F89480918C
:1058D000EE049091EF04A091F004B091F1044FBF59
:1058E000821B930B08950F931F93CF93DF9300D0E8
:1058F00000D0CDB7DEB7462F572FBC012FB7F89495
:105900008091EE049091EF04A091F004B091F10425
:105910002FBF8C019D01041B150B260B370BC901F2
:10592000B8010F900F900F900F90DF91CF911F91C2
:105930000F91089578941F921FB61F9211248F9390
:105940009F93AF93BF938091EE049091EF04A09149
:10595000F004B091F1040196A11DB11D8093EE04F5
:105960009093EF04A093F004B093F104BF91AF9132
:105970009F918F911F901FBE1F90189587E797E703
:10598000909301088093000888E19AE00FB6F8949C
:10599000A895809360000FBE90936000FFCF809128
:1059A000D20208950895CF93DF93D82FC92F81E0B5
:1059B0008093E9008FEF9091E800815095FD06C03B
:1059C00095ED9A95F1F700008111F5CF8091E800EF
:1059D00085FF16C050E040E068E070E08D2F9C2FFE
:1059E0000E94DD2E8091E8008E778093E80088E0A9
:1059F000ED2FFC2FAAECB2E001900D928A95E1F711
:105A0000DF91CF9108958093C7027093C90260938C
:105A1000C8028091F604843001F582E08093E900A9
:105A20008FEF9091E800815095FD06C095ED9A9515
:105A3000F1F700008111F5CF8091E80085FF0DC0DE
:105A400050E040E063E070E087EC92E00E94DD2EE1
:105A50008091E8008E778093E8000895BC0184E08F
:105A60000C94032DBC0183E00C94032D08958091C8
:105A7000F504811109C00E9465300E94C2308091F6
:105A8000E20084608093E20008951092F504089586
:105A90000C94B52B6091F20481E0611101C080E0AB
:105AA0000C94AE2B9091F60481E0943009F080E0E4
:105AB0006091F2040C94B32B42E061EC81E00E940F
:105AC000E12F42E261EC82E00E94E12F9091F60426
:105AD00081E0943009F080E06091F2040C94A92BED
