:100000000C9486060C9459270C94A3060C94A30612
:100010000C94A3060C94A3060C94A3060C94A306BC
:100020000C94A3060C94A3060C945C2E0C942F2F16
:100030000C9455290C94A3060C94A3060C94A306C7
:100040000C94A3060C94A3060C94A3060C94A3068C
:100050000C94A3060C94162A0C94A3060C94A306E5
:100060000C94A3060C94A3060C94A3060C94A3066C
:100070000C94A3060C94A3060C94A3060C94A3065C
:100080000C94A3060C94A3060C94A3060C94A3064C
:100090000C94A3060C94A3060C94A3060C94A3063C
:1000A0000C94A3060C94A3060C94A30629001E002E
:1000B0001F002000210022002F00350014001A002C
:1000C0000800150017002D002B0004001600070083
:1000D00009000A004C00E1001D001B000600190089
:1000E00005002C00E000E300E2003504A85D2C00D0
:1000F0004C00460027002600250024002300300085
:100100003100130012000C0018001C002E003400F7
:1001100033000F000E000D000B002A00E500380030
:10012000370036001000110028004F005200510027
:100130005000A95D28002A0044003A003B003C0022
:100140003D003E002F0235021E021F022002210246
:1001500022022D022B001E001F0020002100220081
:100160004C00E100230024002500260027002C007D
:10017000E000E300E2003504A85D2C004C004500DF
:1001800043004200410040003F003002310227029C
:1001900026022502240223022E02340233020F001B
:1001A0000E000D000B002A00E5003802370236026F
:1001B0001000110028004D004B004E004A00A95DC0
:1001C00028002A0044003A003B003C003D003E006D
:1001D0002F0235021E021F022002210222022D02DE
:1001E0002B001E001F002000210022004C00E10017
:1001F000230024002500260027002C00E000E30057
:10020000E2003504A85D2C004C004500430042008C
:10021000410040003F003002310227022602250241
:10022000240223022E02340233020F000E000D00BE
:100230000B002A00E50038023702360210001100D8
:1002400028004D004B004E004A00A95D28002A00FE
:10025000000000000000000000000000000000009E
:10026000000000000000000000000000000000008E
:10027000000000000000000000000000000000007E
:10028000000000000000000000000000000000006E
:100960000000000000000000000000000100010085
:10097000010001000100010001000100005CC35CF6
:10098000C45CC75CC65C010001000100C05CC25CC5
:10099000BF5CBE5C0100010001000100010001001C
:1009A000010001000100010001000100010001003F
:1009B000010001000100010001000100010001002F
:1009C00001000100CA5CCB5CC85CC95C010001008D
:1009D000010001000100010001000100010001000F
:1009E00001000100010001000100010001000100FF
:1009F000010001000100010000047F3F1F64321468
:100A0000643214783C1E1E140A0522232526282948
:100A10002A2C2D2F3032333536383A3B3D3E40427A
:100A2000434547494A4C4E5051535557595A5C5EBD
:100A30006062646668696B6D6F71737577797B7DD1
:100A40007F81838587898A8C8E90929496989A9CD0
:100A50009E9FA1A3A5A7A8AAACAEAFB1B3B4B6B8E8
:100A6000B9BBBCBEBFC1C2C3C5C6C7C9CACBCCCD4A
:100A7000CED0D1D2D2D3D4D5D6D7D7D8D9D9DADA25
:100A8000DBDBDBDCDCDCDCDCDDDDDDDDDCDCDCDCA5
:100A9000DCDBDBDBDADAD9D9D8D7D7D6D5D4D3D2D9
:100AA000D2D1D0CECDCCCBCAC9C7C6C5C3C2C1BFB7
:100AB000BEBCBBB9B8B6B4B3B1AFAEACAAA8A7A51B
:100AC000A3A19F9E9C9A98969492908E8C8A8987D7
:100AD0008583817F7D7B79777573716F6D6B6968B5
:100AE000666462605E5C5A5957555351504E4C4A89
:100AF0004947454342403E3D3B3A38363533323034
:100B00002F2D2C2A292826252322FFAA7F55400095
:100B10000102030405060708090A0B17161514132A
:100B20001211100F0E0D0C00010101010101010154
:100B30000102020202020202020203030303030390
:100B4000030304040404040404050505050506065E
:100B5000060606070707070708080808090909091C
:100B60000A0A0A0B0B0B0C0C0C0D0D0D0E0E0E0FC2
:100B70000F0F101011111112121313141415151652
:100B8000161717181819191A1A1B1B1C1D1D1E1EC3
:100B90001F20202122222324242526262728292914
:100BA0002A2B2C2D2D2E2F3031323233343536373F
:100BB00038393A3B3C3D3E3F40414243444546473D
:100BC00048494A4C4D4E4F50515354555658595A16
:100BD0005B5D5E5F616264656668696B6C6D6F70BA
:100BE00072737577787A7B7D7E8082838587888A29
:100BF0008C8E8F91939596989A9C9EA0A2A3A5A760
:100C0000A9ABADAFB1B3B5B7BABCBEC0C2C4C6C95B
:100C1000CBCDCFD1D4D6D8DBDDDFE2E4E7E9EBEE14
:100C2000F0F3F5F8FAFDFF12034500720067006F5C
:100C300000440061007300680000000C034F006D69
:100C4000006B006200640000000403090409023B19
:100C500000020100A0FA09040000010301010009DB
:100C6000211101000122400007058103080001094C
:100C700004010001030000000921110100012232DA
:100C80000007058203200001120100020000000895
:100C9000EDFE606000010102000105010980A10173
:100CA000850319012AB700150126B70095017510B3
:100CB0008100C0050C0901A101850419012AA002C7
:100CC000150126A002950175108100C005010906D5
:100CD000A101050719E029E715002501950875010F
:100CE00081029501750881010507190029FF15008A
:100CF00026FF00950675088100050819012905954C
:100D00000575019102950175039101C011241FBE63
:100D1000CFEFDAE0DEBFCDBF11E0A0E0B1E0ECE65E
:100D2000F4E602C005900D92A63FB107D9F723E083
:100D3000A6EFB1E001C01D92A136B207E1F70E9413
:100D4000001C0C94FC310C9400000C946317089563
:100D5000CF939C01FB01293A8DE5380751F158F4F6
:100D6000273A8DE5380789F0283A3D45B1F0C1E0D2
:100D70008C2FCF9108952A3A3D45C9F7C28180E171
:100D8000CC2311F10E94B00D06C0C281CC2381F3A7
:100D900080E00E943907C0E0EBCFC28181E0CC2324
:100DA00059F00E94B00D40E162E081E00E94D1075D
:100DB000F2CFC28182E0F3CF0E94E10D40E162E018
:100DC00081E00E94D107D4CF0E94E10DD1CF81E014
:100DD00008950C94A80608950C94EB061F93CF93E6
:100DE000DF9300D000D00F92CDB7DEB749835A838E
:100DF0006B833091F90189819A8131111DC066237D
:100E0000B9F02223A9F00E94170F182F682F8981AB
:100E10009A810E94C00E69817A81812F0F900F9074
:100E20000F900F900F90DF91CF911F910C94C915E7
:100E30000E94EE0E182FEFCF0E94170F69817A8162
:100E4000EDCFFC01262F4081518162817381848125
:100E50000C94EE0681E00895CF93DF93D82FC92F2D
:100E600060E00E9421076D2F7C2FDF91CF910C94C1
:100E7000EC060F931F93CF93DF9300D000D0CDB734
:100E8000DEB741E050E060E070E08A019B0104C001
:100E9000000F111F221F331F8A95D2F709831A836F
:100EA0002B833C8389810E946E1369817A818B81B7
:100EB0009C810F900F900F900F90DF91CF911F9119
:100EC0000F910C94FC0C8F929F92AF92BF92CF9295
:100ED000DF92EF92FF920F931F93CF93DF9300D097
:100EE00000D0CDB7DEB76B017C0181E090E0A0E0DF
:100EF000B0E04C015D0104C0880C991CAA1CBB1C0D
:100F00004A95D2F7B501A4014C015D0104C0880CDB
:100F1000991CAA1CBB1C2A95D2F7482959296A2971
:100F20007B2904C0880F991FAA1FBB1F0A95D2F7FF
:100F30008A019B010C211D212E213F210417150739
:100F400026073707F9F49C01AD012C293D294E29CC
:100F50005F2929833A834B835C8369817A818B8102
:100F60009C810F900F900F900F90DF91CF911F9168
:100F70000F91FF90EF90DF90CF90BF90AF909F9038
:100F80008F90089580959095A095B0954C015D0146
:100F90008C209D20AE20BF2089829A82AB82BC82A9
:100FA000DCCF0F93CF93DF9300D000D0CDB7DEB767
:100FB000262F042F40912702509128026091290288
:100FC00070912A0249835A836B837C83482F6981FD
:100FD0007A818B819C810E9463070F900F900F9004
:100FE0000F90DF91CF910F910C947A0D0C94A50680
:100FF0000C9465170E94A40C0E94A7062FEF84E3AF
:101000009CE0215080409040E1F700C000000C942B
:101010003A2A0F931F93CF93DF938C0161E00E94D4
:101020002107EC01B8010E94E9068823D9F1B80133
:10103000CE010E945E268823A9F1B801CE010E944C
:10104000CC24882379F1B801CE010E94C8258823D9
:1010500049F1B801CE010E940924882319F1F80151
:101060008281882361F0CB35FDE5DF0721F170F443
:10107000C115ECE5DE07A1F0CF3DDC45C9F0C801A4
:10108000DF91CF911F910F910C94E706CC358DE540
:10109000D807A1F0CD35DD4591F70E944C13EFCF75
:1010A0000E94FA0780E0DF91CF911F910F91089580
:1010B0000E940514F7CF0E945513E1CF0E945813E8
:1010C000DECF0E943A290C9479080E947C080C9487
:1010D0003E2908950C94690881E008950C946C08E9
:1010E0000895CF93C82F0E946A088C2FCF910C943B
:1010F0006E0880E00C9471080E9480280C9471089E
:101100000E9480289091F801981721F08093F801AF
:101110000C9471080895EF92FF920F931F93CF9351
:10112000DF93CDB7DEB72B970FB6F894DEBF0FBEB7
:10113000CDBF042F4F83152F588769877A878B87F8
:10114000EA84FB8461110E949A121E8285E0FE01EE
:101150003796DE01119601900D928A95E1F7EF28FE
:10116000A9F449815A816B817C818D819E810E9485
:10117000B9112B960FB6F894DEBF0FBECDBFDF912D
:10118000CF911F910F91FF90EF90089510231F3F73
:1011900041F3CE0101960E942A078111E2CFE9CFE7
:1011A000FC01808191810C94590FCF93C82F882323
:1011B00009F482C08238C1F40E94802881FD7CC07D
:1011C00089E30E9453120E94BA122FEF31EE84E09D
:1011D000215030408040E1F700C0000089E30E94C8
:1011E0005A12CF910C94BA128338A1F40E9480282D
:1011F00080FD62C083E50E9453120E94BA129FEFE5
:1012000021EE34E0915020403040E1F700C0000072
:1012100083E5E5CF8438A1F40E94802882FD4CC08C
:1012200087E40E9453120E94BA128FEF91EE24E0DD
:10123000815090402040E1F700C0000087E4CFCF0C
:101240008CEF8C0F813A90F46C2F80910201909179
:1012500003010E94DC28882329F08C2F0E945A1257
:101260000E94BA128C2F0E945312BBCF80E28C0FC7
:10127000883048F4C77081E001C0880FCA95EAF74A
:101280000E947B12AECF8BE58C0F833038F42C2F6D
:101290002452330BC901CF910C949E28C85AC731F0
:1012A00058F4EC2FF0E0EE0FFF1FEB5BFE4F808158
:1012B0009181CF910C94B428CF910895882309F49B
:1012C0004BC0823871F40E94802881FF45C089E3B9
:1012D0000E9453120E94BA1289E30E945A120C947F
:1012E000BA12833859F40E94802880FF35C083E504
:1012F0000E9453120E94BA1283E5EFCF843859F44A
:101300000E94802882FF28C087E40E9453120E9416
:10131000BA1287E4E2CF9CEF980F913AF0F290E294
:10132000980F983050F4877091E001C0990F8A951A
:10133000EAF7892F0E948112D2CF9BE5980F933054
:1013400020F490E080E00C949E28885A873120F4A5
:1013500090E080E00C94B42808951F93CF93DF931E
:10136000182FEB010E94D508209731F4812FDF91CF
:10137000CF911F910C945E098FE99FE00197F1F7DF
:1013800000C000002197F0CF70E060E0893311F4D5
:1013900060E570E00C94AD09882321F00E947B1277
:1013A0000C94BA120895882321F00E9481120C94A3
:1013B000BA120895CF92DF92EF92FF920F931F938C
:1013C000CF93DF9300D000D00F92CDB7DEB77C0172
:1013D0006D837983FC011281058102950F700E9453
:1013E0007112D82E8823B9F0D12E1123A1F0898152
:1013F000807F803421F08D81805E8830E8F180919B
:10140000EC0282FD39C082E00E941B130E9471121F
:1014100091E0D82ED926C980C2948FE0C822F8E086
:10142000CF1609F416C1FC1508F456C023E02C159C
:1014300028F18981807F39813F70398391E09C1543
:1014400008F05EC0803221F029812295207F298317
:101450003D81332309F489C0313009F4C1C011231F
:1014600009F4C9C0002309F4C0C0F701858180FFD9
:101470005EC08F708583B9C0D12CCDCFE4E0CE168D
:1014800009F4CBC0EC2DE850FF0B349720F40E94F8
:1014900080280E947108DD2009F4F5C10E946D12B8
:1014A00080FDF1C1F70112820E9467120E94B00D07
:1014B000C7010E94680C0E9467120F900F900F9056
:1014C0000F900F90DF91CF911F910F91FF90EF90B0
:1014D000DF90CF900C94E10DF9E0CF1609F465C1CF
:1014E00086E08C0D8F70823068F62D81223F09F0E6
:1014F0006DC189818F71111166C10E94B00DC2CF7B
:10150000882321F009810295007F09831123A9F026
:101510001981112361F08D81805E883018F00D8172
:10152000011107C089810E947B120E94BA128D812D
:101530002BC089810E948C12F8CF8D810E945E0998
:101540001981112309F49ECF8D81805E883018F0B7
:101550000D81011104C089810E94811203C089811B
:101560000E9492120E94BA128DCF8091EC0282FFEB
:1015700017C0112361F00981002329F0802F0E94F8
:101580007B120E94BA1280E00E94D5087BCF80E0D7
:101590000E945E091981112309F474CF812FDCCFD9
:1015A000112391F0011107C00E949D120981802B27
:1015B0000E94CC0967CF0130B9F70E949D121981B2
:1015C000812B0E94A3125ECF011106C00E94B012AF
:1015D00089810E94D30956CF013009F453CFF6CF49
:1015E000112329F0063008F04DCF8981E1CF053075
:1015F00008F048CFEDCF002359F30D81093349F4AA
:101600001FEF27EE33E0115020403040E1F700C0DB
:1016100000008D810E945E0935CF8981869586956F
:10162000837069F0813009F02DCF8D81998193709D
:10163000111102C090E080E00E94B42823CF8D8178
:1016400099819370111102C090E080E00E949E2861
:1016500019CF8981837009F050C0111113CF2D81EA
:10166000229526952770220F220F4D814F7050E052
:1016700070E060E0022E04C0440F551F661F771F04
:101680000A94D2F70D8180E090E0DC0104FF0FC0E6
:101690008FE090E0A0E0B0E004C0880F991FAA1F7F
:1016A000BB1F2A95D2F780959095A095B09519818A
:1016B0001695169513701D838C019D01042B152B17
:1016C000262B372B09831A832B833C831D81698149
:1016D0007A818B819C81123051F0133059F0113096
:1016E00019F00E94260DCECE0E94FE0CCBCE0E9499
:1016F0004E0DC8CE0E94FC0CC5CE112309F448C083
:10170000098100FFBFCE2D81229526952770220FDB
:10171000220F4D814F7050E070E060E0022E04C057
:10172000440F551F661F771F0A94D2F70D8180E082
:1017300090E0DC0104FF0FC08FE090E0A0E0B0E09B
:1017400004C0880F991FAA1FBB1F2A95D2F7809546
:101750009095A095B09519811695169513701D83D7
:101760008C019D01042B152B262B372B09831A8303
:101770002B833C831D8169817A818B819C8112300E
:1017800071F0133079F0113039F00E946F0E7ACE7B
:10179000198111FF77CEB7CF0E94470E73CE0E94FA
:1017A000970E70CE0E947A0D6DCE09810F7009835D
:1017B000112329F0802F0E94B00D8D81F9CE8D81EB
:1017C0000E94D30989810E94E10D5CCE2D81233FC7
:1017D00060F4203FC1F0213F89F0112309F442C099
:1017E0000111A5CE89818F7188CE3D81333FC9F02B
:1017F000343F99F78091EC0282FF1DC089818F717F
:10180000112309F37ACE112341F0053008F03ACEC6
:1018100089818F710E94160E35CE063008F032CEC7
:10182000F7CF112329F089818F710E948B0D2ACE69
:101830000E94860D27CE112359F009810F7109836B
:10184000802F0E94B00D63E089810E9400131ACEA0
:1018500081E00E941B13023008F414CE82E00E9443
:101860001B1310CE002361F01D81193309F0D1CE76
:101870002FEF37EE83E0215030408040E1F7C7CEB4
:1018800089818F71A0CF0F900F900F900F900F90C4
:10189000DF91CF911F910F91FF90EF90DF90CF904C
:1018A00008950F931F93CF93DF93EC0168817981A3
:1018B0008A810E94650F8C010E94BF0E0E94FB0C62
:1018C000B801CE01DF91CF911F910F910C94DA09ED
:1018D000CF93DF93EC01988189812B813C81232B6D
:1018E00019F089238F3F59F4DF91CF910895CE01EC
:1018F0000E94510CCE01DF91CF910C942C07CE01A8
:101900000E9409088111F3CF0E947112882361F3AC
:101910008A81882349F38091EC0282FDE5CF82E041
:10192000DF91CF910C941B1390E080E00E949E28E1
:1019300090E080E00E94B4280E949A120C94BA129F
:101940000E9461120C94940C0E9489120C94A00CB9
:10195000282F92959F70963091F060F4925F9F705F
:10196000923030F481E0203F81F030F4283E30F0B6
:1019700080E008959A5FF3CF243FD1F7089581E086
:10198000283EE0F3213FA1F7F9CF0895FC018081C3
:1019900091810E94590F0C94A80CCF93DF9300D033
:1019A00000D00F92CDB7DEB70F900F900F900F9031
:1019B0000F90DF91CF910895CF93DF9300D000D0A7
:1019C00000D0CDB7DEB726960FB6F894DEBF0FBEB7
:1019D000CDBFDF91CF91089508950C94EC0C0E9437
:1019E000ED0C60932B0270932C0280932D02909348
:1019F0002E020C94940C08950C94EF0CCF93DF936B
:101A000000D000D0CDB7DEB769837A838B839C8307
:101A100080912B0290912C02A0912D02B0912E0268
:101A200029813A814B815C81282B392B4A2B5B2BF6
:101A300029833A834B835C83CA01B9010F900F90CD
:101A40000F900F90DF91CF910C94EF0CCF93DF9319
:101A500000D000D0CDB7DEB769837A838B839C83B7
:101A600080912B0290912C02A0912D02B0912E0218
:101A700029813A814B815C81282339234A235B23C6
:101A800029833A834B835C83CA01B9010F900F907D
:101A90000F900F90DF91CF910C94EF0CCF93DF93C9
:101AA00000D000D0CDB7DEB769837A838B839C8367
:101AB00080912B0290912C02A0912D02B0912E02C8
:101AC00029813A814B815C81282739274A275B2766
:101AD00029833A834B835C83CA01B9010F900F902D
:101AE0000F900F90DF91CF910C94EF0C0C94EC0CB5
:101AF0000C94760D0E94780D609327027093280253
:101B00008093290290932A020C94940C60E070E078
:101B1000CB010C947A0D0F931F93CF93DF9300D0DA
:101B200000D0CDB7DEB741E050E060E070E08A0160
:101B30009B0104C0000F111F221F331F8A95D2F78B
:101B400009831A832B833C83C901B8010F900F903E
:101B50000F900F90DF91CF911F910F910C947A0D00
:101B60000F931F93CF93DF9300D000D0CDB7DEB794
:101B700041E050E060E070E004C0440F551F661F74
:101B8000771F8A95D2F78091270290912802A09121
:101B90002902B0912A028A019B01082B192B2A2BBA
:101BA0003B2B09831A832B833C83C901B8010F9017
:101BB0000F900F900F90DF91CF911F910F910C9488
:101BC0007A0D0F931F93CF93DF9300D000D0CDB742
:101BD000DEB741E050E060E070E004C0440F551F04
:101BE000661F771F8A95D2F740955095609570953E
:101BF0008091270290912802A0912902B0912A0297
:101C00008A019B01082319232A233B2309831A8372
:101C10002B833C83C901B8010F900F900F900F9058
:101C2000DF91CF911F910F910C947A0D0F931F9319
:101C3000CF93DF9300D000D0CDB7DEB741E050E0C6
:101C400060E070E004C0440F551F661F771F8A953F
:101C5000D2F78091270290912802A0912902B09199
:101C60002A028A019B01082719272A273B27098373
:101C70001A832B833C83C901B8010F900F900F90FA
:101C80000F90DF91CF911F910F910C947A0DCF930C
:101C9000DF9300D000D0CDB7DEB769837A838B8322
:101CA0009C838091270290912802A0912902B091F3
:101CB0002A0229813A814B815C81282B392B4A2BBE
:101CC0005B2B29833A834B835C83CA01B9010F9054
:101CD0000F900F900F90DF91CF910C947A0DCF93CE
:101CE000DF9300D000D0CDB7DEB769837A838B83D2
:101CF0009C838091270290912802A0912902B091A3
:101D00002A0229813A814B815C81282339234A2385
:101D10005B2329833A834B835C83CA01B9010F900B
:101D20000F900F900F90DF91CF910C947A0DCF937D
:101D3000DF9300D000D0CDB7DEB769837A838B8381
:101D40009C838091270290912802A0912902B09152
:101D50002A0229813A814B815C81282739274A2729
:101D60005B2729833A834B835C83CA01B9010F90B7
:101D70000F900F900F90DF91CF910C947A0D0895F2
:101D8000E82F27E0929FE00D11248E2F877041E00D
:101D900001C0440F8A95EAF7E695E695E69585E059
:101DA000E89FF0011124E650FE4F30E020E070E0A3
:101DB0005191DF011197CB01022E02C096958795B4
:101DC0000A94E2F7817081958527842385278C9377
:101DD0002F5F3F4F2530310559F70895E82F27E051
:101DE000929FE00D11249E2F9770E695E695E6955B
:101DF00085E0E89FF0011124E650FE4F50E040E0FE
:101E000080E0219130E0092E02C0369527950A9492
:101E1000E2F721703327042E01C0220F0A94EAF75B
:101E2000822B4F5F5F4F4530510559F70895BF92A0
:101E3000CF92DF92EF92FF920F931F93CF93DF9396
:101E40008C01C0902702D0902802E0902902F090E7
:101E50002A0280912B0290912C02A0912D02B09128
:101E60002E02C82AD92AEA2AFB2ACFE1D0E0BC2ECA
:101E7000D701C6010C2E04C0B695A79597958795F6
:101E80000A94D2F780FD0EC0219788F7B12C8B2DD4
:101E9000DF91CF911F910F91FF90EF90DF90CF9046
:101EA000BF900895B8018C2F0E94DD15019761F352
:101EB000EECFCF93DF93D82FC92F0E94170F6D2F2E
:101EC0007C2FDF91CF910C94DD151F93CF93DF937F
:101ED000162FD72F9091F901992339F0862F972F3C
:101EE000DF91CF911F910C94590F882391F0862F89
:101EF000972F0E94170FC82F682F812F9D2F0E94A8
:101F0000C00E612F7D2F8C2FDF91CF911F910C94EC
:101F1000DD15862F972F0E94EE0EC82FF2CF1F934C
:101F2000CF93DF93E0912F0216E0809130028E1361
:101F300004C0DF91CF911F910895CE2FD0E01E9F56
:101F4000F0011124EF5CFD4F40815181628173816A
:101F5000848195810E94DC0C2196EC2FE770E5CFFF
:101F6000409161025091620260916302709164023B
:101F700080916502909166020C94DC0CFF920F93A5
:101F80001F93CF93DF9380916602807FD1F480917D
:101F900063028823B1F080912F021091300270917A
:101FA000610260916202A0916402B0916502062F05
:101FB0000723C0910001D091010196E0F92E18137A
:101FC00006C0DF91CF911F910F91FF90089590E08F
:101FD000109711F00F3F19F401968770F0CFF89E1B
:101FE0009001F99E300D1124F901EF5CFD4F418104
:101FF0006413F2CF40814713EFCF42814111ECCF00
:10200000438154814A1B5B0B4C175D0728F7809175
:1020100066028F70806180936602F901EA5CFD4F71
:1020200080818F708061808381E692E00E94680CDD
:10203000DF91CF911F910F91FF900C948F0FAF9272
:10204000BF92CF92DF92EF92FF920F931F93CF93A5
:10205000DF93CDB7DEB72B970FB6F894DEBF0FBE78
:10206000CDBF8C0185E0F801DE01179601900D923D
:102070008A95E1F7D8011296EC9012971396CD90BD
:10208000DC9081E6A82E82E0B82E2091610290912A
:10209000620240916402509165024115510529F098
:1020A000892F82238F3F09F04DC1EE2009F45DC1D5
:1020B000C8010E94C60CF82E882309F456C186E098
:1020C000F801A1E6B2E001900D928A95E1F781E670
:1020D00092E00E94D0080E94BE0F03C18091660268
:1020E000E82FE07F4617570708F0ABC0D8011196DC
:1020F0003C911197E111E1C0FE2C391325C09C9150
:10210000921322C0E11020C08F708061809366021C
:102110000E94B00F81E692E00E94680C80916602F6
:10212000F80185838F2D2B960FB6F894DEBF0FBE76
:10213000CDBFDF91CF911F910F91FF90EF90DF9076
:10214000CF90BF90AF9008952F81CD2829F0832F95
:1021500082238F3F09F0AEC080E0F82FF170DF2EB0
:10216000E0912F024091300256E080FD1CC0EE202D
:10217000C9F280916602816080936602F12CD2CF11
:102180008E2F90E05E9FF0011124EF5CFD4F618186
:10219000361306C06081621303C06281E612E7CF86
:1021A0000196E82FE770E413EBCF8F8198850E94AA
:1021B000590F292F22952F70903268F0225F2F70CF
:1021C000223080F49F7059F0D80115969C91907F31
:1021D00031F4D12C0AC09F7011F08823D1F3805EB6
:1021E0008830B8F3C8010E94680CFD2C9BCFC80151
:1021F0000E94C60C882309F4B8C0EE2009F4B5C0CB
:1022000080916602803270F020916102309162020A
:102210003A8329831B82DD82CC828E83CE01019694
:102220000E94680C86E0F801A1E6B2E001900D92F0
:102230008A95E1F70E94BE0F0E94B00FFF24F3942D
:1022400071CFE11151C04F81588569857A858B85A1
:102250000E94CD0C81E692E00E94680C86E0D501D8
:102260001D928A95E9F70E94B00F88CF86E0F801A9
:10227000A1E6B2E001900D928A95E1F753CFC80133
:102280000E94C60C8111CECF80916602816080933E
:102290006602C8010E94680C45CF4F815885698548
:1022A0007A858B850E94CD0C86E0D5011D928A959A
:1022B000E9F717C081E08E2550CF391398CFF80188
:1022C0009081921394CFE11092CF8583C8010E9430
:1022D000680C86E0F801A1E6B2E001900D928A95C3
:1022E000E1F70E94B00F1ECFF801318193137FCF29
:1022F000F801908192137BCFE11079CF8583C801DB
:102300000E94680C86E0D5011D928A95E9F70ACFF4
:10231000D80111968C919813B2CFF8018081821365
:10232000AECF8091660280FDA1CF982F907F09F4F7
:102330009DCF8583903F51F2982F907F905F8F7053
:10234000892BC3CFF0906302F601E41BF50BAF01BC
:102350006091000170910101F110C0CE461757073E
:1023600008F09BCFFE2CE110D3CFC8010E94680C6F
:1023700065CF1F93CF93DF93CDB7DEB72C970FB602
:10238000F894DEBF0FBECDBF4F83588769877A8729
:102390008B879C87CE0107960E941F10882369F0C7
:1023A0008A859B85892B39F058854F81852F842319
:1023B0008F3F09F071C016E05FC086E0FE013796DE
:1023C000DE01119601900D928A95E1F78F81988533
:1023D0002091300240912F026A857B85672B59F34B
:1023E00089238F3F41F330E0C90101968770992717
:1023F0004817190671F40E94A40C10923002109232
:102400002F0286E0E1E6F2E0DF011D928A95E9F70E
:10241000D2CF96E0929FD001939FB00D1124AF5C74
:10242000BD4FFE01319601900D929A95E1F7809390
:1024300030020E948F0FBFCF819FC00111248F5C9B
:102440009D4F0E941F108823E9F0E0912F021E9FEC
:10245000F0011124EF5CFD4F408151816281738155
:10246000848195810E94DC0C80912F0290E001967E
:102470008770992780932F0280912F0290913002CC
:102480008913DACF2C960FB6F894DEBF0FBECDBFFE
:10249000DF91CF911F91089569857A858B859C8501
:1024A0000E94DC0C88CF682F80910201909103017B
:1024B0000C941629682F80910201909103010C94CD
:1024C000182980910201909103010C941A2980919E
:1024D0006F02859585958595089580916F02877027
:1024E000089590916F02977081E009F480E008955B
:1024F00080917A02089590917A02982B90937A02B3
:102500000895982F909580917A02892380937A027A
:10251000089510927A02089590917902982B9093E1
:1025200079020895982F909580917902892380935C
:1025300079020895109279020895809170020895A9
:1025400008950C94A0129091EC0292FD08C0909115
:102550007002981721F0809370020C94A1120895D4
:1025600080917002882329F01092700280E00C9410
:10257000A1120895CF93DF93E0910201F09103013E
:1025800080917A028083E0910201F09103018081C1
:1025900090917902892B808390917002992381F028
:1025A000E0910201F09103018081892B8083809169
:1025B0000201909103010E94CA2881110E94B01269
:1025C000C0910201D091030148E050E067E672E05B
:1025D000CE010E949E31892B69F088E0FE01A7E6BA
:1025E000B2E001900D928A95E1F7CE01DF91CF9193
:1025F0000C949328DF91CF91089508950C94FD12C7
:102600009091EC0292FD10C098E0899F90011124F6
:10261000622B60936F020E94B00D80916F028595CE
:10262000859585950C94FE120C94B00D10926F0256
:1026300080E00C94FE1290916F0280958923809324
:102640006F02282F277091F4282F082E000C330BCF
:102650009217130659F09091EC0292FD07C08595F0
:10266000859585950E94E10D0C941613089590911F
:10267000EC0292FB222720F9281769F080FB92F9DF
:102680009093EC028091EB029091EC020E948113F6
:1026900082E00C941B1308958091EC0282FB882742
:1026A00080F991E089270C94371381E00C9437135B
:1026B00080E00C94371390E080E00E94C2319C01CE
:1026C00081E0293E3E4F09F080E0089582E090E0ED
:1026D0000C94B43183E090E00C94B431682F83E023
:1026E00090E00C94C831CF9384E090E00E94B43124
:1026F000C82F82E290E00E94B431982F8C2FCF91A6
:102700000895CF93682FC92F84E090E00E94C831CC
:102710006C2F82E290E0CF910C94C831AB01BC01E8
:102720008FE090E00C94DA31AB01BC0183E190E0E2
:102730000C94DA3160E070E0CB010C94941360E00B
:1027400070E0CB010E948E130C949A1369EE7EEF19
:1027500090E080E00E94E63160E082E090E00E943C
:10276000C83160E083E090E00E94C83110922B02F3
:1027700010922C0210922D0210922E0260E084E042
:1027800090E00E94C83160E082E290E00E94C8318F
:1027900060E085E090E00E94C83160E086E090E073
:1027A0000E94C8316FEF87E090E00E94C83140E09E
:1027B00050E0BA0188E090E00E94DA3160E08DE0FC
:1027C00090E00E94C83140E050E0BA0188E190E01A
:1027D0000E94DA3160E087E190E00E94C83140E079
:1027E00050E0BA018CE190E00E94DA3170E060E0E4
:1027F00080E290E00E94E63140E050E0BA0188E1DA
:1028000090E00E94DA310C949F130C94A613682F69
:102810008EE090E00C94C8310E94C0296093890238
:1028200070938A0280938B0290938C02609385024E
:10283000709386028093870290938802089585B7EB
:10284000806885BF85B7806885BF0895089508951D
:102850000C94271408950C942A140E941F1488E2E3
:1028600097E10E9476280E9426140C9428140C9458
:102870003419089508950E9439140C943A140E9452
:102880002B170C9470080E94AB290E94BC160E9462
:102890004E190E947F180E943F140E94B4240E9487
:1028A000BF220E9463190C942B149F92AF92BF9287
:1028B000CF92DF92EF92FF920F931F93CF93DF930C
:1028C00000D000D00F92CDB7DEB70E94A118D82E4D
:1028D00081110E940C148BE7A82E82E0B82E10E024
:1028E00000E0902E802F0E946717F82EF501E190EE
:1028F0005F01E81609F444C080918D0281FD0E94B9
:102900006D178E2D8F25C12CEE24E394982F9E21D8
:1029100091F10E943714882399F0C9829A82FE208F
:1029200081E009F480E08B830E94B4298160782FD4
:102930009D838C8349815A816B81892F0E948B08EA
:10294000F801E558FD4F80818E25808381E0D1100C
:1029500001C080E00F900F900F900F900F90DF91CB
:10296000CF911F910F91FF90EF90DF90CF90BF908C
:10297000AF909F900895C394EE0CF7E0CF12C6CFAE
:102980000F5F1F4F0A30110509F0ABCF8FEF89831E
:102990008A831B820E94B4298160782F9D838C8357
:1029A00049815A816B81892F0E948B08CFCF0E9469
:1029B00055140E9434190E942C230C948008CF9344
:1029C000DF930E94E115EC01811522E5920708F0E2
:1029D00054C0811531E5930708F0AEC08F3B9105D7
:1029E000B8F4883A910508F099C0853A910568F4E1
:1029F000049738F481E0219709F080E0C82F80E047
:102A0000D82FCE01DF91CF910895A497D064F9CF4C
:102A1000C11590E5D907A0F4C11520E4D20708F04C
:102A200088C0C83ED10530F4C03ED10550F7D0E093
:102A3000C0E0E7CFCE019A9581159F4110F3F7CF03
:102A40009E01F4E036952795FA95E1F723708C2FD7
:102A500086958695837030E2839FC0011124922B66
:102A6000C37021E030E002C0220F331FCA95E2F7A5
:102A7000822B932BEC01DC68C4CFC11586E5D80707
:102A800030F5C11595E5D90708F06AC0C11524E5F0
:102A9000D207C0F48C2F869586959E01237033272C
:102AA000C115D34508F04DC0C1E0D0E002C0CC0F45
:102AB000DD1F2A95E2F720E2829FC0011124C82B76
:102AC000D92BD9CFDC2FCC27C46FD06A9ACFC115B0
:102AD0003AE5D30788F4C11589E5D80708F04BC05B
:102AE000CE0198558F3F910511F008F0A0CFDC2F53
:102AF000CC27C06FD06A85CFCE0190568115904209
:102B000008F095CF8D2F8F710E94791690E0982F45
:102B1000882788279F718C2BEC012BC0C85AD0E0E6
:102B2000CC0FDD1FCD58DE4F0990D881C02DD46465
:102B300068CFDF70D06A65CFD82FCC27C16FD06A3D
:102B400060CFC1E0D0E002C0CC0FDD1F2A95E2F7D4
:102B500030E2839FC0011124C82BD92BDA6851CFF2
:102B60008C2F0E947916C82FD0E0DC2FCC27CC27E1
:102B7000DF71D06246CF8C2F8F700E94791634E0BF
:102B8000D695C7953A95E1F7CF709C2FEC01D069A7
:102B900038CF972F70E027E0929F600D711D1124B0
:102BA000FB0196E4899FE00DF11D1124EE0FFF1F3C
:102BB000E455FF4F8591949108950E94C9150C9496
:102BC000DF14803E910599F1C8F48133910509F431
:102BD00076C048F48932910509F46AC08A329105B9
:102BE00009F474C0089589339105D1F082389105B4
:102BF000B9F08533910509F454C00895843E9105D8
:102C000099F138F4823E9105F9F0833E910509F17E
:102C10000895863E910599F1873E9105B9F1089591
:102C20002091EB022370A1F080EE90E008952091B6
:102C3000EB0220FD52C03091EC0230FF09C024FFAE
:102C40004FC090E080E004C02091EB0222FDF7CF5E
:102C500008952091EB0222FD46C03091EC0230FD38
:102C6000E3CF24FFF5CFEDCF2091EC0221FFF0CF91
:102C70008091EB0284FDE5CF87EE90E008952091EE
:102C8000EB0223FFE5CF24FDDCCFF6CF2091EB0252
:102C900023FD2CC03091EC0231FFE3CF84EE90E0B5
:102CA00008952091EB0225FFD3CF89E290E00895AB
:102CB0002091EB0225FFCCCF85E390E00895209191
:102CC000EB0226FFC5CF8AE290E008952091EB0247
:102CD00026FFBECF81E390E0089589E390E0089558
:102CE00083EE90E0089582EE90E0089586EE90E005
:102CF00008959091EB0292FF06C0282F287128308A
:102D0000F9F4877F846093FF06C0282F287128314B
:102D1000F1F4877E84612091EC0220FF06C0382FF9
:102D200038713830D9F4877F816021FF06C0282FA1
:102D300028712831D1F4877E816194FD877E0895C2
:102D4000282F24712430F9F68B7F8860DCCF282F60
:102D50002471243101F78B7E8861DDCF382F3171EA
:102D6000313019F78E7F8860E0CF282F2171213113
:102D700021F78E7E8861E1CF1092E7021092E8027F
:102D80001092E9021092EA020895CF92DF92EF9238
:102D9000FF92CF93DF9300D000D0CDB7DEB76B01A9
:102DA0007C010E94341981110EC00E94C029C61AEC
:102DB000D70AE80AF90AC092E702D092E802E09244
:102DC000E902F092EA020F900F900F900F90DF91BE
:102DD000CF91FF90EF90DF90CF900895CF93DF9346
:102DE00000D000D0CDB7DEB70E943419882341F05F
:102DF0000F900F900F900F90DF91CF910C94C029FE
:102E00000E94C02969837A838B839C838091E70227
:102E10009091E802A091E902B091EA0229813A81F9
:102E20004B815C81280F391F4A1F5B1FCA01B90102
:102E30000F900F900F900F90DF91CF9108950E9407
:102E4000341981110C94B4290E94EE16CB01089517
:102E500080E008950895CF93DF9300D000D0CDB7E0
:102E6000DEB70E945B13811102C00E9405140E940C
:102E7000661380938D020E9473139093EC028093EB
:102E8000EB020E942A170E946A13282F30E050E0BC
:102E900040E0CA01B9010E94FC0C80912702909188
:102EA0002802A0912902B0912A0289839A83AB83D8
:102EB000BC83BC01CD010F900F900F900F90DF915C
:102EC000CF910C94780D089508950C946417E82F11
:102ED000F0E0E850FD4F80810895089580EA8A95DA
:102EE000F1F7089500C008950C946E1708950C949E
:102EF0007617DF92EF92FF920F931F93CF93DF939A
:102F000000D000D00F92CDB7DEB70E943419182F31
:102F100060910203882309F44EC01A821982FE01CF
:102F2000339683E0DF011D928A95E9F7862F90E0C2
:102F300032977F01BF0188509D4F0E947119DE2C8E
:102F40000F2D882301F18091ED0290E045E050E0E3
:102F5000B70188509D4F0E949E3121E020938E0240
:102F6000892BE1F410E00E94F807812F0F900F9059
:102F70000F900F900F90DF91CF911F910F91FF90C5
:102F8000EF90DF90089580918E02882359F385E0B9
:102F9000D7011D928A95E9F710928E02A091ED0259
:102FA000B0E0A850BD4F85E0ED2DF02F01900D92BF
:102FB0008A95E1F7D8CF70E068507D4F8091ED029F
:102FC00090E088509D4F0E94FF190E947717CDCF47
:102FD000F894E82FE295EF70F0E041A18F7021E0C6
:102FE00030E0B90102C0660F771F8A95E2F7CB0186
:102FF000962F9095942391A392A1892B82A37894E4
:103000000895CF93DF93C8EAD1E089918F3F11F003
:103010000E94E81781E0CD3AD807B9F7C1EAD1E0BC
:1030200089918F3F11F00E94E81781E0C83AD807D4
:10303000B9F7DF91CF910895CF92DF92EF92FF928F
:103040000F931F93CF93DF93EC01D62E062F10E042
:10305000C80188559E4F7C01FC0180818F3F09F497
:1030600045C0F894E82FE295EF70F0E091A18F70E1
:1030700021E030E001C0220F8A95EAF7892F822BE8
:1030800081A382A12095282322A378940E947217FD
:10309000E1EAF1E048EA51E091E0C12C81918F3FF3
:1030A00079F0A82FA295AF70A05EB0E02C9130E02F
:1030B0008F7002C0359527958A95E2F7892F20FDFC
:1030C00080E0C82A990F4E175F0741F7F70180810A
:1030D0008F3F11F00E94E81761E0C11001C060E06D
:1030E0008D2D0E947417C00FD11FC882DF91CF9120
:1030F0001F910F91FF90EF90DF90CF9008958091F6
:1031000004018091040195E0811190E09093020305
:1031100085E0891B8093ED020E9401188AE0E8EFA8
:10312000F2E0DF01982F1D929A95E9F7EEEEF2E0BA
:10313000DF011D928A95E9F785E00E94FD180C9445
:10314000F607DF92EF92FF920F931F93CF93DF93D7
:10315000CDB7DEB72A970FB6F894DEBF0FBECDBF4E
:103160001A821982FE01339688E0DF011D928A954A
:10317000E9F7F12C8E010F5F1F4F6F2DC8010E94E0
:103180001C18F394D02EE12EB5E0FB12F6CF4AE0E6
:1031900050E0B8018EEE92E00E949E318C0121E059
:1031A000892B09F420E00115110549F08AE0ED2D85
:1031B000FE2DAEEEB2E001900D928A95E1F760919E
:1031C000020370E068507D4F45E08EEE92E00E9471
:1031D000FE1881E090E0012B11F40E9479172A96E5
:1031E0000FB6F894DEBF0FBECDBFDF91CF911F9118
:1031F0000F91FF90EF90DF9008950895FF920F9345
:103200001F93CF93DF93F82E092F162FD72FC42F9C
:10321000222349F081E0809391020E94B429909387
:10322000900280938F02809191028823A1F0809177
:103230008F02909190020E94E029059760F0EF2D97
:10324000F02FA12FBD2FCF018C0F911DE817F9078B
:1032500041F410929102DF91CF911F910F91FF9055
:10326000089521912D93F2CF80919402811107C08E
:103270000E94E930882351F081E08093940281E03C
:1032800090919402913009F080E0089582E080935B
:1032900094020E94E430F3CF0C9434190E944C192C
:1032A00080930401809104016CE0882349F080E060
:1032B0000E94B41C0E943419882321F00C94A9198F
:1032C0008CE0F6CF08950E943419811102C00C944D
:1032D000AB19089581E0909195029A3008F080E052
:1032E00008950F931F93CF93DF93EC01162F072FB1
:1032F000809195028A30C0F4612F702FCE010E9418
:10330000FD19C82F811122C0809195028F3FB9F419
:103310000E94B42990939302809392028C2FDF91A4
:10332000CF911F910F9108958091920290919302F5
:103330000E94E029843F9140F8F6C0E0EFCF8F5F14
:10334000809395028A3020F7C1E0E8CF1092950271
:10335000E5CF0C9412270C941527CF92DF92EF92B1
:10336000FF920F931F93CF93DF93FA0169017801C6
:10337000C82F880FDD0B3097B1F0DE0193E0AA0F64
:10338000BB1F9A95E1F7AB5FBE4F11968D919C9153
:1033900012978A569D4F4C9150E0E417F50708F4B8
:1033A000AF010E94AB31CE010E940028182F882364
:1033B000D1F0E114F104B9F083E0CC0FDD1F8A9560
:1033C000E1F7FE01EB5FFE4F438150E0E416F506A6
:1033D00008F4A701CB5FDE4F6C817D816A567D4F7B
:1033E000C6010E94AB31812FDF91CF911F910F91C8
:1033F000FF90EF90DF90CF9008950C94821B0C9477
:10340000AF1B0F931F93CF93DF93CDB7DEB72897F2
:103410000FB6F894DEBF0FBECDBF8091B50290917C
:10342000B602A091B702B091B802BC01CD010E94D2
:10343000EF2911E0643671058105910520F10E94A4
:10344000EE16DC01CB010296A11DB11D89839A8382
:10345000AB83BC8310E000E030E020E044E050E0CB
:10346000BE016F5F7F4F82E00E94AD19182F882345
:1034700051F00E94C0296093B5027093B602809308
:10348000B7029093B802812F28960FB6F894DEBF4A
:103490000FBECDBFDF91CF911F910F910895AF92D5
:1034A000BF92CF92DF92EF92FF920F931F93CF9331
:1034B000DF93F82EE92ED62EC72E89010E946A19B5
:1034C000AA24A394B12C882319F08AE0A82EB12C49
:1034D000C1E0D0E0F8946D2D7C2D8F2D9E2DF8014C
:1034E00009957894811104C02196AC16BD065CF450
:1034F000DF91CF911F910F91FF90EF90DF90CF90D0
:10350000BF90AF900895CC9F9001CD9F300D300DAE
:10351000112490E080E045E34A95F1F70000019620
:1035200028173907C1F7D6CFFF920F931F93CF9378
:10353000DF93CDB7DEB72C970FB6F894DEBF0FBE82
:10354000CDBF8E010F5F1F4FC8010E94B421F884C8
:103550008091B9029091BA02A091BB02B091BC02D5
:10356000BC01CD010E94EF2969877A878B879C87F0
:10357000B80189859A85AB85BC8584369105A105FE
:10358000B10510F4FF20A9F010E000E030E020E0E9
:1035900048E050E083E00E94AD19882369F00E9462
:1035A000C0296093B9027093BA028093BB029093D2
:1035B000BC020E94B12181E02C960FB6F894DEBFC8
:1035C0000FBECDBFDF91CF911F910F91FF90089556
:1035D000AF92BF92CF92DF92EF92FF920F931F9321
:1035E000CF93DF93CDB7DEB72A970FB6F894DEBF3F
:1035F0000FBECDBF7B01A090AD01B090AE0101E048
:1036000010E09E012A5F3F4F50E040E070E060E034
:1036100080E00E94AD19182F882309F44EC065017F
:103620008FEFC81AD80A8091B1029091B202A0918E
:10363000B302B091B402BC01CD010E94EF296F83A7
:10364000788789879A87643671058105910568F1C5
:1036500005E010E09E012F5F3F4F50E040E070E03A
:1036600060E081E00E94AD19082F65E070E0C601BE
:103670000E94B52411E09E81981310E0102341F1BF
:103680000E94C0296093B1027093B2028093B3028A
:103690009093B40285E0FE013196ACEAB2E001906D
:1036A0000D928A95E1F711E013C065E070E0C60164
:1036B0000E94B5249E818913CBCF85E0F501319618
:1036C000DE01119601900D928A95E1F71111E2CF7A
:1036D00085E0ECEAF2E0D70101900D928A95E1F7DE
:1036E000812F2A960FB6F894DEBF0FBECDBFDF91B3
:1036F000CF911F910F91FF90EF90DF90CF90BF90EF
:10370000AF9008950F931F93CF93DF93D82FC92FB6
:103710008B0128EE3AE14FEA51E00E944F1A8823CC
:10372000C1F021E03AE14CEB51E0B8018D2F9C2F24
:103730000E944F1A882369F024E93AE147EC51E0EE
:10374000B8018D2F9C2FDF91CF911F910F910C9479
:103750004F1A80E0DF91CF911F910F9108950F9341
:103760001F93CF93DF93FB01F894C091AD01D091EB
:10377000AE01CE01019625E0DC0101900D922A9563
:10378000E1F765E070E00E94B52488837894F894AE
:103790006E817F81888599850091A8021091A90288
:1037A0002091AA023091AB0260177107820793073C
:1037B00051F06093A8027093A9028093AA0290939B
:1037C000AB020E94C5167894F8948989882331F059
:1037D00060E0CE010A960E94F722198A7894DF9160
:1037E000CF911F910F9108950E94BC2B0E9443140A
:1037F0000C94C82B0E94CC2B0E94D7140C94E62B5F
:103800000E9454290E94A32B0E942D140E94F41B95
:103810000E94FA1B0E943B14FBCFAF92BF92CF9243
:10382000DF92EF92FF920F931F93CF93DF938B0161
:10383000282F111114C0442329F090E0895D944F82
:10384000FC018491682F782FDF91CF911F910F9108
:10385000FF90EF90DF90CF90BF90AF900895C12F71
:10386000D0E030E0442329F0295D344FF901249160
:1038700030E0F6E00F9F70011124EFEFF0E0C70198
:10388000BF010E940431AB01802F90E0880F991F87
:10389000A5E5A49FB001A59F700D1124861B970B71
:1038A000782F770F780FCF018C1B9D0B829FD00153
:1038B000839FB00D929FB00D11246B2F719FC0019B
:1038C0001124892F99278F01081B190BC801829F8A
:1038D0008001839F100D929F100D1124812F5F0195
:1038E000A71AB108AC9E6001AD9ED00CBC9ED00C56
:1038F0001124CD2CDD24EC19FD09E29FE001E39FAA
:10390000D00DF29FD00D1124722F43305105D1F00C
:103910009CEFE91693E0F90670F441305105B1F0DF
:1039200042305105B9F0EFEFEE16F10408F08CCFFC
:103930008B2F6D2F89CF4430510579F046305105DA
:10394000B9F382CF612F822F7B2F7ECF622F712F11
:103950008B2F7ACF8D2F622FF7CF822F7D2F74CFB1
:1039600041E00C940D1C0895E8E2F1E0808361834E
:1039700008950C94B01CCF93DF93982F762F842F4B
:10398000E901692F0E94B91C798368838A83DF91DA
:10399000CF91089580910303982F9E7F29F4817021
:1039A00082608093030308958A34E8F38170886409
:1039B000F8CF88E090E00C94BC310F931F93CF9325
:1039C000DF938B01D82FC92F0E94CA1CA8016D2F2D
:1039D0007C2F88E090E0DF91CF911F910F910C94A4
:1039E000DA31E3E0F3E083E0808311828FEF8283BA
:1039F00083831482EAECF2E082818360828363E055
:103A000070E08FEF9FEF0C94DD1C8091030380FF2B
:103A100002C08695089580E00895CF93DF9300D08B
:103A200000D0CDB7DEB790910703933018F49F5FB5
:103A3000909307038823B1F08091030390910403CE
:103A4000A0910503B091060389839A83AB83BC835D
:103A5000BC01CD010F900F900F900F90DF91CF918F
:103A60000C94DD1C0F900F900F900F90DF91CF9171
:103A7000089581E00C940D1DCF93DF9300D000D00A
:103A8000CDB7DEB790910703992319F09150909329
:103A900007038823B1F08091030390910403A09160
:103AA0000503B091060389839A83AB83BC83BC0171
:103AB000CD010F900F900F900F90DF91CF910C944C
:103AC000DD1C0F900F900F900F90DF91CF91089514
:103AD00081E00C943C1D70E00C948624CF92DF9220
:103AE000EF920F931F93CF93DF93CDB7DEB7C854F8
:103AF000D1090FB6F894DEBF0FBECDBF609129018A
:103B00008091030380FF36C0EFE0FBE09E012F5F52
:103B10003F4F8E01075B1F4FC901449150E0DA010E
:103B2000AA0FBB1FA40FB51FA85FBC4FCD90DD909F
:103B3000EC90D901CD92DD92ED929D013196A017C6
:103B4000B10759F720912801B3E02B9F800D911DFB
:103B500011240E946B1DC85BDF4F0FB6F894DEBFC7
:103B60000FBECDBFDF91CF911F910F91EF90DF90EE
:103B7000CF90089580912A0190912B0123E0829F9C
:103B8000F0011124E85FFC4F891708F0BDCF1182C6
:103B9000108212828F5F3396F7CF9091030390FFCC
:103BA00014C090912A0120912B0133E0939FF001E2
:103BB0001124E85FFC4F921710F00C946E1D818366
:103BC000608342839F5F3396F6CF0895CF93DF9350
:103BD00000D00F92CDB7DEB79091030390FF0FC0D6
:103BE0009E012F5F3F4F0E94BB1C4B8169818A81E0
:103BF0000F900F900F90DF91CF910C94CD1D0F90EF
:103C00000F900F90DF91CF910895CF93DF93EC0148
:103C1000EC81F0E0E65FF54F4491E3E0F3E0628190
:103C200081810E94E61D8C818F5F8C83DF91CF9113
:103C30000895CF93DF93EC01E3E0F3E043816281E9
:103C40008C810E94E61D8C818F5F8C83DF91CF91E8
:103C500008950F931F93CF93DF9300D00F92CDB7AA
:103C6000DEB78C018091BD0281110AC09E012F5FD9
:103C70003F4F4FEF6FEF0E94BB1C8A818093BD02C4
:103C8000F8016481613049F06230F1F08091BD0249
:103C900040E0662331F040E019C06091BD0240E091
:103CA00080E00E94CD1DF801848190E0019663E0E0
:103CB00070E00E94183184830F900F900F90DF9175
:103CC000CF911F910F9108954091BD0280E060E077
:103CD000E8CFAF92BF92CF92DF92EF92FF920F9315
:103CE0001F93CF93DF9300D000D000D00F92CDB7B9
:103CF000DEB7182FF62E042FD22E9091030390FFDB
:103D000096C0E92FE695AE2FB0E0A053BE4F8C9140
:103D10008093CA029E7F923009F045C09E012F5FBA
:103D20003F4F812F0E94BB1C4B8169818A810E9479
:103D3000CD1D80910403811308C0809105038F116C
:103D400004C080910603801729F08091CC02826024
:103D50008093CC0210930403F092050300930603B2
:103D6000DD2009F464C08091030390910403A091C5
:103D70000503B09106038C839D83AE83BF83BC0192
:103D8000CD0127960FB6F894DEBF0FBECDBFDF91F1
:103D9000CF911F910F91FF90EF90DF90CF90BF9048
:103DA000AF900C94DD1C823019F400910603C1CF52
:103DB000863019F410910403BCCF8930D9F38931CE
:103DC00009F0B7CFE9518E2F8170C82EE695F0E04B
:103DD000E65FF44FA590B490E12CBB2460912C01D8
:103DE000E61618F00E946E1DA4CF2E2D30E0EA9C3E
:103DF000C001EB9C900D112470E00E940431812FD2
:103E0000C11013C0860F90912A01A901490F511DBD
:103E10009A01220F331F240F351F285F3C4F402F7C
:103E20006F2D0E94BB1CE394D9CF861BECCF279645
:103E30000FB6F894DEBF0FBECDBFDF91CF911F91BB
:103E40000F91FF90EF90DF90CF90BF90AF900895CB
:103E5000282FE3E0F3E0818143816281885F0C9445
:103E6000691E81E00C94281F282FE3E0F3E0818194
:103E70004381628188500C94691E81E00C94341F48
:103E8000282FE3E0F3E0628131E1630F08F46FEF84
:103E9000438181810C94691E81E00C94401F282F7E
:103EA000E3E0F3E0628131E1631B08F460E0438109
:103EB00081810C94691E81E00C944F1F282FE3E050
:103EC000F3E0438131E1430F08F44FEF62818181D8
:103ED0000C94691E81E00C945E1F282FE3E0F3E050
:103EE000438131E1431B08F440E0628181810C94FD
:103EF000691E81E00C946D1F20E00C94691EEF9206
:103F0000FF921F93CF93DF93EC0110E0EE24EA942D
:103F1000F12C60912C01161770F00E946E1D9A8191
:103F20008C8190FF25C08F5F8C83DF91CF911F9193
:103F3000FF90EF90089580912A01810F9927991F92
:103F40009C01220F331F280F391F285F3C4F70E060
:103F5000C7010E941831962F8C8140910603609111
:103F60000503199F800D11240E94BB1C1F5FD1CF38
:103F70008150DACF9F92AF92BF92CF92DF92EF92B1
:103F8000FF920F931F93CF93DF93EC018A81BB24A1
:103F9000BA9480FD02C0BB24B3948C8181110AC005
:103FA00091E0B91203C080912C0181508093BF022F
:103FB00081E08C83A12C80912C01A816F0F00E9446
:103FC0006E1D9091BF0281E0B8125BC080912C0100
:103FD0008150992319F08FEF890F91E08093BF02F0
:103FE0009C83DF91CF911F910F91FF90EF90DF9015
:103FF000CF90BF90AF909F90089580912A01CA2CD6
:10400000D12C8C0D9D2D911D8C01000F111F080FBF
:10401000191F085F1C4FF80111821082128234E0D0
:10402000E32EF12C912C8091BF02890D89311CF176
:1040300068E10E94F630892F082E000C990BC816F3
:10404000D90691F4809106038E9DA0018F9D500D9D
:10405000112455954795559547959801609105030D
:10406000809104030E94BB1C9B0CF1E0EF1AF10845
:10407000D1F6A394A0CF87FFDFCF90912C01890FB9
:10408000DBCF892F90E0019660912C0170E00E94B7
:104090001831982FA3CF0F931F93CF93DF93EC0189
:1040A0008C81811109C081E08C831092BE0292E064
:1040B000909327018093260180912A0190912B01F2
:1040C00023E0829FF0011124E85FFC4F891758F12B
:1040D00010E003E060912C01161758F10E946E1D4C
:1040E000809126012091BE02280F2093BE0290915C
:1040F0002701980F90932701191654F4022E000CF3
:10410000330B40912C014150550B2417350734F0E7
:10411000819580932601813009F41C82DF91CF9133
:104120001F910F9108951182108212828F5F339632
:10413000CDCFE12FF0E070E0CF010E941831209147
:104140002A01280F422F50E08091BE02082E000C59
:10415000990BE817F907BCF080912701082E000C95
:10416000990B8E179F077CF0209F90011124285FE8
:104170003C4F4091060360910503809104030E9427
:10418000BB1C1F5FA7CFFA01EE0FFF1FE40FF51F47
:10419000E85FFC4F118210821282F3CFEF92FF9200
:1041A0000F931F93CF93DF93CDB7DEB72E970FB644
:1041B000F894DEBF0FBECDBF8D879E87AD85BE85CF
:1041C00014961C91212F30E0D9010E945C319B0193
:1041D000AC010E94723169837A838B839C83E0E215
:1041E000F0E0E11BF109A5E5B0E09B01AC010E9404
:1041F000723169877A878B879C879F01DF010E94D4
:1042000054319B01AC010E947D316D837E838F838D
:1042100098879B01AC0189819A81AB81BC81280F71
:10422000391F4A1F5B1F69857A858B859C850E9493
:104230002C31F22E422F50E099E29F1588F1A3E035
:104240002A9F9001112435952795122F109500E093
:1042500085E5E82EEF1880912C01081778F10E946F
:104260006E1DED85FE85948181E0992319F09032D1
:1042700019F48FEF8093250180912501890FAD8579
:10428000BE8514968C932E960FB6F894DEBF0FBEA3
:10429000CDBFDF91CF911F910F91FF90EF900895C7
:1042A00085E590E0841B950B9C01220F331F280F9E
:1042B000391F37FFC8CF2F5F3F4FC5CF8E2D01FD70
:1042C0008F2D40912A01400F5527551F9A01220F2B
:1042D000331F240F351F285F3C4F412F609105038A
:1042E0000E94BB1C0F5FB7CF0F931F93CF93DF9339
:1042F000EC0110E000E090912C019017110609F0FC
:104300006CF40E946E1D8C8190E00196817099275B
:104310008C83DF91CF911F910F91089580912A0195
:10432000A801480F511D9A01220F331F240F351F7A
:10433000285F3C4F4C816091050380910403969562
:104340009017110651F04CF0442349F040910603B8
:104350000E94BB1C0F5F1F4FCECF4423B9F340E038
:10436000F7CF1092CC020895CF93DF93EC0185E054
:10437000E3E0F3E0DE0101900D928A95E1F7809190
:10438000CA029091CB02A091CC028D839E83AF8311
:10439000DF91CF910895EAECF2E01182828184608E
:1043A00082830895E3E0F3E080818E7F80830E9422
:1043B000CB21EAECF2E08281816082832FEF80E7FB
:1043C00092E0215080409040E1F700C000000C9442
:1043D0006E1DCF93DF9300D000D0CDB7DEB7E3E002
:1043E000F3E080818E7F808380819181A281B3817F
:1043F00089839A83AB83BC83BC01CD010E94DD1C01
:104400000E94CB21EAECF2E08281816082839FEFFF
:10441000A0E7B2E09150A040B040E1F700C000003A
:104420000F900F900F900F90DF91CF910C946E1D15
:1044300060910303669570E04BE050E08DE291E0FF
:104440000E949131892B19F481E08093CB020E9464
:104450001F179093C4028093C3028091CC028460A2
:104460008093CC020895CF93DF9300D000D0CDB7D6
:10447000DEB79091030390FF4BC0882309F441C03D
:10448000853208F040C08F77880F909103039170B8
:10449000892B809303038091CC0281608093CC02AE
:1044A000662381F08091030390910403A09105039A
:1044B000B091060389839A83AB83BC83BC01CD0191
:1044C0000E94DD1C60910303669570E04BE050E0B4
:1044D0008DE291E00E949131892BB9F00E94CB21AD
:1044E00081E08093C60240910603609105038091AC
:1044F00004030F900F900F900F90DF91CF910C94C9
:104500007C1F81E0C1CF84E2BFCF0E941822E8CF98
:104510000F900F900F900F90DF91CF910895682F1B
:104520008091030386958F5F853208F081E00C94BB
:10453000332281E00C948F22682F9091030396958B
:104540008FEF890F913009F484E20C94332281E0DB
:104550000C949C2261E00C943322E3E0F3E0808130
:104560008160808386950C94AA228091030380FD4C
:104570000C94E9210C94AD2260E00C9433228091DC
:10458000C902811133C00E945B13811104C00E94D3
:1045900005140E94F11C0E94D91C609303037093C0
:1045A000040380930503909306038091CC028360FB
:1045B0008093CC026E7F61F40E94F11C0E94D91C92
:1045C00060930303709304038093050390930603A1
:1045D0000E94CA1C0E94CB218091030380FF03C06C
:1045E00086950E94BC2281E08093C90208951F93A2
:1045F000CF93DF93EC01162F8F8180FF0CC0888151
:1046000080FF24C08091030381608093030388812D
:1046100086950E9433228F8181FF06C0212F4B8116
:104620006A8189810E94691E8F8182FF05C08E8107
:10463000882379F00E9418228F8183FF03C081E0D4
:104640008093C602DF91CF911F9108950E94D221DD
:10465000E2CF0E94CB21F0CFEF92FF920F931F93F6
:10466000CF93DF938091CB02882309F463C08091BC
:10467000CA02E0910303E695E81BE093C50282308D
:1046800009F05FC0F0E0EA5FF54FE491CE2FD0E093
:1046900005E01EE18091C602882361F01092C602F7
:1046A0000E941F179093C4028093C3021092C80205
:1046B0001092C7020E941F179C018091C302909123
:1046C000C402A901481B590B4F3F5F4798F5409121
:1046D000C2024423B1F01092C2024091C002509134
:1046E000C102241B350B2F3F3F4758F4405D5A4809
:1046F0005093C1024093C0022091CC0228602093C5
:10470000CC02E090C702F090C8028C0F9D1F9093DE
:10471000C4028093C30283EC92E0F8010995809172
:10472000C7029091C802892B29F4EF2819F081E083
:104730008093C202DF91CF911F910F91FF90EF9074
:104740000895853109F43BC058F4893021F18F3048
:1047500061F18630B9F0C0EDD7E003EB1CE19ACFF0
:10476000833209F435C0C4EFD1E004E711E28432AA
:1047700009F490CFC8E2D0E00EEC10E2883109F4E1
:1047800089CFE9CFF0E0ED5FF54FE491CE2FD0E097
:1047900009E11EE17FCFE695F0E0E050F64FE491AD
:1047A000CE2FD0E00FE71FE175CFE695F0E0E350A4
:1047B000F64FE491CE2FD0E00AEB1FE16BCFF0E093
:1047C000E650F64FE491CE2FD0E00BE410E262CF3A
:1047D000E8EFF9E0C591D49109E21EE15BCFFA015F
:1047E00081110994FB01FDCFCF93DF93C82FD62F02
:1047F0000E94051D8C1740F00E94051D8D1720F4A6
:10480000DF91CF910C9499228C2FDF91CF910C9452
:10481000AA221F93CF93DF93EC01FB0112811111A8
:104820001BC00E9478128272C73DFCE5DF0778F456
:10483000C33C9CE5D90708F467C0FE01E45CFC4575
:10484000E331F10570F4E250FE4C0C944E3111E06E
:10485000CE35DD4509F410E0812FDF91CF911F9116
:1048600008950E94B522F8CF47EA52E269E972E260
:104870000E94EF23F1CF49E952E267EA72E2F8CFF2
:104880004DE35FE161E37FE1F3CF41E35FE16DE39E
:104890007FE1EECF4BE55FE16CE47FE1E9CF4CE4F3
:1048A0005FE16BE57FE1E4CF49E75FE16AE67FE145
:1048B000DFCF4AE65FE169E77FE1DACF48E65DE115
:1048C00069E37DE1D5CF49E35DE168E67DE1D0CFE5
:1048D00081E00E94AA22C0CF65E082E00E94F4231A
:1048E000BBCF68E086E0FACF6EE089E0F7CF64E105
:1048F0008FE0F4CF67E185E1F1CF88E1EACF62E2B2
:1049000089E1ECCF83E2E5CF11E0A6CF9C01AB01BA
:10491000539A6BB1677F7BB17860EFB7F894CA01A7
:10492000880F991F840F951F820F931F821793077B
:1049300041F4EFBF8FE594E00197F1F700C000006C
:104940000895D9014D919D0158E07BB9000000C048
:1049500047FF6BB9440F000000C000C000C06BB936
:1049600000C05A9591F7E2CF0895FC01680F791FB6
:104970008FEF91E36E177F0709F408952191822745
:1049800028E030E087FF06C0880F892721503109D1
:10499000C9F7F0CF880FFACFCF93DF93EC01FB017B
:1049A0008281882309F4F2C0C236FDE5DF0749F0B1
:1049B00048F5C631ECE5DE07E0F4C230FCE5DF0780
:1049C000F0F00E9473139093EC028093EB02C631D7
:1049D000ECE5DE0748F5C230FCE5DF07C0F4809166
:1049E000EB029091EC020E9481130E94A40C80E0E3
:1049F00006C09E012B5F3C452930310510F3DF9145
:104A0000CF910895C63A9DE5D907C9F7DACFFE01DF
:104A1000E350FC458091EB028160E331F10528F51C
:104A2000EF5EFD4C0C944E31C4308DE5D80770F428
:104A3000CB3F9CE5D90798F2FE01EC5FFC45E830DE
:104A4000F10510F5EC5DFD4C0C944E31C236EDE5F0
:104A5000DE0709F494C09091EB02892F8E7F90FFBE
:104A60008160C63ADD4509F0BACF8093EB02B7CF3B
:104A70008091EB028260F9CF8091EB028460F5CFE8
:104A80008091EB028860F1CF8091EC02816080938D
:104A9000EC02A5CF8091EC028260F9CF8091EB020D
:104AA0008061E3CF8091EB028062DFCF8091EB02E7
:104AB0008064DBCF0E94A40C8091EB028068D5CF8C
:104AC0008091EB028C60D1CF8091EC028360DFCFCC
:104AD0008091EB028E7FC9CF8091EB028D7FC5CF95
:104AE0008091EB028B7FC1CF8091EB02877FBDCF9E
:104AF0008091EC028E7FCBCF8091EC028D7FC7CF6F
:104B00008091EB028F7EB1CF8091EB028F7DADCF94
:104B10008091EB028F7BA9CF0E94A40C8091EB02C5
:104B20008F77A3CF8091EB02837F9FCF8091EC02A0
:104B30008C7FADCF8091EB0282FB992790F921E029
:104B4000922790FB82F990FB83F98FCF8091EC0242
:104B5000982F909591708E7F892B90FB81F997CF3C
:104B60000E94A40C9091EB02892F97FB87F9805843
:104B70007CCF81E00E94071432CF80E0FBCF909180
:104B8000EB02892F8F7E94FF80616FCF81E037CF5A
:104B9000CF93DF93EB0186319C4511F50E9478128B
:104BA0009A81992399F08A7A91E009F490E09093A0
:104BB000CD02811109C089E20E9453120E94BA12EB
:104BC00080E0DF91CF91089585E3F6CF8091CD020B
:104BD000811104C089E20E945A12F0CF85E3FBCF15
:104BE00081E0EFCF0F931F93CF93DF93C42FD22F8A
:104BF000FC0182818823C9F04093D0020E94B4292D
:104C00009093CF028093CE0280E28C0F883008F020
:104C100050C0C77081E001C0880FCA95EAF7DF91E4
:104C2000CF911F910F910C94CC091091D0021413C5
:104C300035C08091CE029091CF020E94E029883742
:104C4000910560F5C0E2CD0F1D17B9F080E2810F2C
:104C5000883040F4177081E001C0880F1A95EAF798
:104C60000E94D309C83048F481E09D2F977001C09D
:104C7000880F9A95EAF70E94CC09802F0E94C409F8
:104C8000C830B8F4D77081E001C0880FDA95EAF730
:104C9000DF91CF911F910F910C94D30980E28C0F7B
:104CA000883038F4C77081E001C0880FCA95EAF7F0
:104CB000EFCFDF91CF911F910F9108950F939C013A
:104CC000CB01243F4CE53407A1F190F4293DFCE5EC
:104CD0003F0749F12A3D4CE53407E9F1283D3C45C1
:104CE000C1F0FC0182818823E1F11092D00219C049
:104CF000263FFCE53F0719F1273F4CE5340729F132
:104D0000253F3C4571F707E225EE44EE65EF7CE573
:104D100005C006E221EE41EE68ED7CE50E94F22539
:104D200080E00F91089507E225EE45EE69ED7CE500
:104D3000F5CF06E221EE40EE64EF7CE5EFCF06E230
:104D400021EE42EE66EF7CE5E9CF07E225EE46EE86
:104D500067EF7CE5E3CF08E221E045EE6AED7CE514
:104D6000DDCF81E0DECF8EE1489B02C08150E1F7CC
:104D7000489BFECF0895589880E28A95F1F7589A9B
:104D80000895FC013BE03A95F1F798E020E080E0DF
:104D900031E040E14A95F1F7880F489B02C08160FD
:104DA000232742E04A95F1F7000040E14A95F1F7E8
:104DB000915079F790E19A95F1F799B132E03A95EF
:104DC000F1F7000040E14A95F1F7917092272081B8
:104DD000920F90830895EF92FF920F931F93CF93BA
:104DE000DF930F92CDB7DEB719828C017C01E60EFE
:104DF000F11C0E151F0561F481E09981911180E08D
:104E00000F90DF91CF911F910F91FF90EF90089538
:104E10000E94B326CE0101960E94C126F80181931B
:104E20008F01E7CF509A589A08955098589AE89A67
:104E3000E9E6F0E080818C7F808308956150770BF4
:104E400091E001C0990F6A95EAF720E031E09111F5
:104E500008C0222391F0589A80E28A95F1F7589879
:104E60000895492F482339F0589A232740E24A955C
:104E7000F1F79695ECCF5898F9CF5898EDCFFF926F
:104E80000F931F93CF93DF93EC018C01060F111D3D
:104E9000C017D10731F4DF91CF911F910F91FF908F
:104EA0000895F9900E94BB2668E08F2D0E941E276E
:104EB000EFCF1F920F920FB60F9211240F931F93F3
:104EC0002F933F934F935F936F937F938F939F9312
:104ED000AF93BF93EF93FF93CF93DF930F92CDB731
:104EE000DEB719820E94B326CE0101960E94C12628
:104EF000282F082F069506950695982F9295957060
:104F0000802F8570980F892F837096959695890FBD
:104F1000822787709981892B09F05CC0053008F0E1
:104F200059C080E18A95F1F7589A509A82E08A95A3
:104F3000F1F700C0589888E0089F80011124D8013B
:104F4000AB5FBE4F1696ED91FC9117973097A9F085
:104F50006091AD017091AE0114962D913C91159721
:104F6000260F371F11968D919C911297680F791F0C
:104F700013964C9113978C910995F801EB5FFE4FB6
:104F80006381662351F02091AD013091AE0184819F
:104F90009581820F931F0E943F270E94BB2680E1CC
:104FA0008A95F1F758985098589A80E18A95F1F7C8
:104FB000F801EB5FFE4F6081662351F02091AD0157
:104FC0003091AE0181819281820F931F0E94EB2666
:104FD0000E94B3260F90DF91CF91FF91EF91BF9187
:104FE000AF919F918F917F916F915F914F913F9181
:104FF0002F911F910F910F900FBE0F901F9018953A
:105000000F931F93CF93DF93EC0105970CF04CC0E7
:10501000F894509A589885E08A95F1F700008C2F03
:10502000869585709C2F9570890F982F9370869523
:10503000869523E0CC0FDD1F2A95E1F7890F8E01BD
:10504000082B0E94BB2600C068E0802F0E941E270C
:1050500080E18A95F1F75098589A489B1EC087E0E6
:1050600090E048991CC0FE01EB5FFE4F6381662310
:10507000F9F02091AD013091AE0184819581820FCC
:10508000931F0E94EB26811113C0509A589A78946E
:10509000DF91CF911F910F91089500C0DECF01974E
:1050A00029F4509A589A789480E0F2CF00C0D9CF72
:1050B0000E94B32680E28A95F1F75898509A80E1D1
:1050C0008A95F1F7CB5FDE4F6881662351F020911E
:1050D000AD013091AE0189819A81820F931F0E94A8
:1050E0003F270E94BB26789481E0D2CF9093F701AE
:1050F0008093F60108959093D7028093D602089585
:105100000E943419811103C08091D1020895E09169
:10511000D602F091D702309721F00190F081E02D76
:10512000099480E00895E091D602F091D70230977B
:1051300021F00280F381E02D099408952091D4029A
:105140003091D5022817390771F09093D5028093DA
:10515000D402E091D602F091D702309721F0068078
:10516000F781E02D099408952091D2023091D30265
:105170002817390771F09093D3028093D202E091FF
:10518000D602F091D702309721F00084F185E02D0E
:1051900009940895AC019C012E5F3F4F485F5F4F1B
:1051A00080E02417350709F40895F90191919F01D2
:1051B0009923B9F38F5FF5CF9C01662351F0FC0171
:1051C0003296285F3F4F8191861729F0E217F30747
:1051D000D1F780E0089581E008959C01FC013296AA
:1051E0008FEF90E04191461751F08F3F19F4411134
:1051F00001C0892F9F5F9630A9F78F3F09F408956A
:10520000280F311D87FD3A95F901628308959C01AD
:10521000FC013296285F3F4F8191861303C0DF0166
:1052200011971C92E217F307B9F708950C94ED2833
:105230000C940729FC01329686E0DF011D928A95C5
:10524000E9F7089508950C9422298F5F8093D8027E
:105250000C94232983E08093D8020C9423290C9486
:10526000252981E08093D8020C9423290C943129BC
:10527000089508950C943929089508950C943829B7
:10528000CF930E943C290E94A1180E943D29C0E0B2
:105290008C2F0E946717811105C0CF5FCA30C1F7FC
:1052A000CF91089581E0FCCF08951F921FB61F9201
:1052B00011248F939F93AF93BF938091D902811153
:1052C00013C08091500390915103A0915203B0916B
:1052D00053034196A11DB11D809350039093510338
:1052E000A0935203B0935303BF91AF919F918F91BD
:1052F0001F901FBE1F90189580915803843031F184
:105300000E9461081092D90288E190E020E40FB673
:10531000F894A895809360000FBE2093600083B737
:10532000817F846083BF83B7816083BF78948895D1
:1053300083B78E7F83BF0FB6F894A89580916000E5
:10534000886180936000109260000FBE08950E94F3
:10535000A40C0C94650882E084BD93E095BD9AEF9F
:1053600097BD80936E0008952FB7F89480915003F5
:1053700090915103A0915203B09153032FBF089510
:10538000CF93DF9300D000D0CDB7DEB78FB7F894BE
:105390002091500330915103409152035091530397
:1053A00029833A834B835C838FBF69817A818B81A8
:1053B0009C810F900F900F900F90DF91CF910895E7
:1053C0009C014FB7F8948091500390915103A091A4
:1053D0005203B09153034FBF821B930B08950F9359
:1053E0001F93CF93DF9300D000D0CDB7DEB7462F09
:1053F000572FBC012FB7F89480915003909151031F
:10540000A0915203B09153032FBF8C019D01041B47
:10541000150B260B370BC901B8010F900F900F9099
:105420000F90DF91CF911F910F91089578941F9263
:105430001FB61F9211248F939F93AF93BF938091B8
:10544000500390915103A0915203B09153030196E0
:10545000A11DB11D8093500390935103A09352035B
:10546000B0935303BF91AF919F918F911F901FBE37
:105470001F90189587E797E790930108809300089D
:1054800088E19AE00FB6F894A895809360000FBE6B
:1054900090936000FFCF8091E50208950895CF9327
:1054A000DF93D82FC92F81E08093E9008FEF90918F
:1054B000E800815095FD06C095ED9A95F1F7000042
:1054C0008111F5CF8091E80085FF16C050E040E0E3
:1054D00068E070E08D2F9C2F0E94592C8091E8008D
:1054E0008E778093E80088E0ED2FFC2FADEDB2E0E1
:1054F00001900D928A95E1F7DF91CF910895809305
:10550000DA027093DC026093DB02809158038430EE
:1055100001F582E08093E9008FEF9091E8008150DF
:1055200095FD06C095ED9A95F1F700008111F5CF34
:105530008091E80085FF0DC050E040E063E070E03E
:105540008AED92E00E94592C8091E8008E7780933A
:10555000E8000895BC0184E00C947F2ABC0183E03C
:105560000C947F2A089580915703811109C00E94ED
:10557000E12D0E943E2E8091E20084608093E20043
:1055800008951092570308950C94312960915403A3
:1055900081E0611101C080E00C942A2990915803A8
:1055A00081E0943009F080E0609154030C942F293D
:1055B00042E061EC81E00E945D2D42E261EC82E01C
:1055C0000E945D2D9091580381E0943009F080E0B5
:1055D000609154030C94252980915A03893089F1F4
:1055E00048F4823009F49EC0833009F459C08130F8
:1055F00041F008958A3009F485C08B3009F46BC0FE
:10560000089580915903813A09F049C08091E800DA
:10561000877F8093E80080915D0390915E03892BE2
:1056200061F468E08DED92E070E00E94A82C80911A
:10563000E8008B778093E800089560E090E080E0D8
:10564000F3CF80915903813251F580915D039091A0
:105650005E03029720F58091E800877F8093E80041
:105660008091E80082FF17C09091F3008091F200D2
:10567000029731F48091F100813011F0863021F4ED
:105680008091F1008093E5028091E8008B77809310
:10569000E8000C94912D809158038111E1CF089579
:1056A00080915903813AD9F780915D0390915E030F
:1056B000892BA9F78091E800877F8093E80080918B
:1056C000E80080FFFCCF809144018093F10080913D
:1056D000E8008E77DCCF80915903813201F7809109
:1056E0005D0390915E03892BD1F68091E800877F5E
:1056F0008093E8000E94912D80915B038093440188
:105700000C94A40C80915903813249F68091E800F1
:10571000877F8093E8000E94912D80915C038093A5
:10572000E602089580915903813A09F0B8CF80913B
:10573000E800877F8093E8008091E80080FFFCCF3D
:105740008091E602C2CF84B7877F84BF0FB6F894FA
:10575000A89580916000886180936000109260003D
:105760000FBE80E890E00FB6F894809361009093AC
:1057700061000FBE0C9436290E94E12D0E943E2E3E
:10578000E2EEF0E080818460808378940C94CA30EB
:1057900088E391E00C947B28809158038530A9F42C
:1057A00080915803853011F00C94A7290E947C2920
:1057B000809156038823A1F30E944029882381F316
:1057C0000E94432C0E94A40CEBCF089508950C94E2
:1057D000E92BFC01CB01DA012F2F332723303105D0
:1057E000D1F070F42130310509F43EC0223031058A
:1057F00069F48BE390E02DE43CE02D933C93089515
:1058000021323105E9F02232310521F190E080E0CA
:1058100030E020E0F2CFCF019927E13059F082301B
:10582000910559F0E9E4FCE0892B81F7849190E03F
:105830009F01E3CFEBE3FCE0F9CFE7E2FCE0F6CF3A
:10584000892BB9F06130710509F789E090E028E70C
:105850003CE0D3CF892B91F061307105B9F682E33A
:1058600090E02AE93CE0C9CF82E190E028E83CE002
:10587000C4CF89E090E02FE53CE0BFCF80E490E02A
:105880002CEC3CE0BACF80E189BD82E189BD09B44E
:1058900000FEFDCF8091D8008F7D8093D80080914D
:1058A000E00082608093E0008091E00081FDFCCF09
:1058B0000895AF92BF92CF92DF92FF920F931F9302
:1058C000CF93DF936C01EB018A010E94B02DF82E7B
:1058D000811123C00115110539F0F80180819181F2
:1058E000C81BD90BC80ED91EB12CA12C2097A9F02A
:1058F0008091E80085FD22C08091E8008E7780933A
:10590000E80001151105A1F0F801808191818A0D4F
:105910009B1D9183808385E0F82E8F2DDF91CF91A1
:105920001F910F91FF90DF90CF90BF90AF9008959F
:105930000E94B02D8823D1F2F82EEFCFF60181918D
:105940006F018093F1002197FFEFAF1ABF0ACECF0E
:10595000FC01CB0120915F033091600326173707CC
:1059600090F0009729F42091E8002E772093E8002A
:1059700040E0009751F4411108C08091E80082FF97
:1059800031C080E00895C901F3CF2091580322234C
:10599000A9F12530A9F12091E80023FD2DC0209127
:1059A000E80022FDEACF2091E80020FFE2CF30910D
:1059B000F3002091F200009719F02830310558F0DB
:1059C00041E02830310509F040E02091E8002E77D1
:1059D0002093E800CECF41914093F10001972F5FD3
:1059E0003F4FE9CF80915803882341F0853041F043
:1059F0008091E80083FFC1CF81E0089582E008959F
:105A000083E00895FC01CB0120915F033091600396
:105A10002617370790F0009729F42091E8002E7799
:105A20002093E80040E0009751F4411108C08091B4
:105A3000E80082FF32C080E00895C901F3CF2091D1
:105A400058032223B1F12530B1F12091E80023FD64
:105A50002EC02091E80022FDEACF2091E80020FF2F
:105A6000E2CF3091F3002091F200009719F0283036
:105A7000310558F041E02830310509F040E020912F
:105A8000E8002E772093E800CECF44914093F100B8
:105A9000319601972F5F3F4FE8CF809158038823BD
:105AA00041F0853041F08091E80083FFC0CF81E074
:105AB000089582E0089583E00895982F973028F0A4
:105AC0008F708093E90081E008959093E900242F7E
:105AD000762F50E0981731F07091EC002091ED0096
:105AE0005091F00021FD02C09F5FE8CF3091EB00A4
:105AF0003E7F3093EB003091ED003D7F3093ED0021
:105B00003091EB0031603093EB007093EC00209308
:105B1000ED005093F0002091EE0027FDE5CF80E0EE
:105B200008958091590387FF13C08091E80082FF98
:105B300006C08091E8008B778093E80004C08091D4
:105B400058038111F2CF0895809158038823D9F327
:105B50008091E80080FFF8CF8091E8008E77ECCF4D
:105B60002091E4003091E50095E6A9012091EC0038
:105B7000822F817020FF06C08091E80080FF06C060
:105B800080E008952091E80022FD1AC0809158031A
:105B9000882389F0853089F08091EB0085FD0FC066
:105BA0002091E4003091E50042175307F9F291503B
:105BB000E1F684E0089582E0089583E0089581E0AD
:105BC00008950E944F2E0E94572EE0EEF0E0808153
:105BD00081608083E8EDF0E080818F77808319BC5D
:105BE000A7EDB0E08C918E7F8C9380818F7E808337
:105BF0001092570308950F931F93CF93DF930E9442
:105C00004F2E0E94572EC8EDD0E088818F77888371
:105C100088818068888388818F7D888319BC1092F1
:105C2000580310925403109256031092550300EE3D
:105C300010E0F80180818B7F808388818160888378
:105C400042E060E080E00E945D2DE1EEF0E08081C6
:105C50008E7F8083E2EEF0E08081816080838081AE
:105C600088608083F80180818E7F80838881806155
:105C70008883DF91CF911F910F910895E8EDF0E0B7
:105C800080818F7E8083E7EDF0E08081816080837A
:105C900084E082BF81E0809357030C94FB2DE8EDF4
:105CA000F0E080818E7F80831092E2000895109250
:105CB000DA001092E10008951F920F920FB60F9232
:105CC00011242F933F934F935F936F937F938F9301
:105CD0009F93AF93BF93EF93FF938091E10082FF77
:105CE0000BC08091E20082FF07C08091E1008B7FB2
:105CF0008093E1000E94C9308091DA0080FF19C0D2
:105D00008091D80080FF15C08091DA008E7F80934B
:105D1000DA008091D90080FF94C080E189BD82E1E2
:105D200089BD09B400FEFDCF81E0809358030E9435
:105D3000B32A8091E10080FF19C08091E20080FFCA
:105D400015C08091E2008E7F8093E2008091E20096
:105D500080618093E2008091D80080628093D800B7
:105D600019BC85E0809358030E94C62A8091E10007
:105D700084FF29C08091E20084FF25C080E189BDB5
:105D800082E189BD09B400FEFDCF8091D8008F7DEE
:105D90008093D8008091E1008F7E8093E100809114
:105DA000E2008F7E8093E2008091E2008160809328
:105DB000E20080915403882309F449C084E0809371
:105DC00058030E94CE2A8091E10083FF29C0809170
:105DD000E20083FF25C08091E100877F8093E1008E
:105DE00082E080935803109254038091E1008E7FEB
:105DF0008093E1008091E2008E7F8093E2008091A9
:105E0000E20080618093E20042E060E080E00E9476
:105E10005D2D8091F00088608093F0000E94C42A7C
:105E2000FF91EF91BF91AF919F918F917F916F9172
:105E30005F914F913F912F910F900FBE0F901F9048
:105E4000189519BC109258030E94C12A72CF8091F4
:105E5000E30087FD02C081E0B2CF83E0B0CF1F92A4
:105E60000F920FB60F921124FF920F931F932F934F
:105E70003F934F935F936F937F938F939F93AF93D2
:105E8000BF93CF93DF93EF93FF9309EE10E0F801F8
:105E90008081C091EC00C795CC27C7958F70FC2EF0
:105EA000F82A1082C0EFD0E08881877F88837894B9
:105EB0000E94782FF8011082888188608883CF2D16
:105EC000CF70C083FF91EF91DF91CF91BF91AF91E0
:105ED0009F918F917F916F915F914F913F912F9102
:105EE0001F910F91FF900F900FBE0F901F9018956C
:105EF0001F93CF93DF93CDB7DEB7AA970FB6F89471
:105F0000DEBF0FBECDBF89E593E0FC010196209175
:105F1000F100208323E081369207B9F70E94EC2A32
:105F20008091E80083FF1DC18091590390915A032D
:105F30009A3008F016C1E92FF0E0E45DFD4C0C94B6
:105F40004E31803899F0823809F00BC180915D03A1
:105F50008F70873008F005C18093E9008091EB00D5
:105F600085FB882780F91092E90006C080915503CF
:105F700090915603911182609091E800977F9093E1
:105F8000E8008093F1001092F1008091E8008E7794
:105F9000E4C0882309F4D2C0823009F0E2C08091C5
:105FA0005B038111D5C080915D038F702FEF280FA7
:105FB000263008F0D6C08093E9002091EB0020FF46
:105FC000C7C0933031F48091EB0080628093EB0086
:105FD000BFC09091EB0090619093EB0021E030E026
:105FE00001C0220F8A95EAF72093EA001092EA0096
:105FF0008091EB008860EACF8111B3C010915B0300
:106000001F778091E3008078812B8093E30080915B
:10601000E800877F8093E8000E94912D8091E8003E
:1060200080FFFCCF8091E30080688093E30082E0F2
:10603000111183E08093580394C08058823008F097
:1060400090C080915B0390915C038C3D23E09207AC
:1060500099F583E08A838AE289834FB7F894DE0159
:10606000139620E03EE051E2E32FF0E0509357001A
:10607000849120FF03C082958F703F5F8F708A30BC
:10608000C8F0895C90E08D939D932F5F243161F778
:106090004FBF8091E800877F8093E8006AE270E05C
:1060A000CE0101960E94A82C8091E8008B77809306
:1060B000E80057C0805DE6CF60915D0370915E039C
:1060C000AE014F5F5F4F0E94E72BBC01892B09F4A3
:1060D00048C08091E800877F8093E80089819A8199
:1060E0000E94022DE1CF8038E1F58091E800877FA2
:1060F0008093E800809154038093F10046CF811192
:1061000030C090915B03923060F58091E800877F0A
:106110008093E800909354030E94912D8091540342
:10612000882311F084E005C08091E30087FDFACF59
:1061300081E0809358030E94D82A13C080915B03AA
:10614000813079F481E0933009F080E08093560348
:106150001092E9008091E800877F8093E8000E9418
:10616000912D8091E80083FF0AC08091E800877F2D
:106170008093E8008091EB0080628093EB00AA9608
:106180000FB6F894DEBF0FBECDBFDF91CF911F9148
:1061900008950895CF9380915803882399F08091B2
:1061A000E900C091EC00C795CC27C7958F70C82B2C
