:100000000C943F050C945C050C945C050C94FA234D
:100010000C945C050C945C050C945C050C945C05DC
:100020000C945C050C945C050C94F22B0C94C62C7F
:100030000C941C260C945C050C945C050C945C05DB
:100040000C945C050C945C050C945C050C945C05AC
:100050000C945C050C94BF260C945C050C945C0518
:100060000C945C050C945C050C945C050C945C058C
:100070000C945C050C945C050C945C050C945C057C
:100080000C945C050C945C050C945C050C945C056C
:100090000C945C050C945C050C945C050C945C055C
:1000A0000C945C050C945C050C945C058081828347
:1000B0008485868788898A8B8C8D8E8F9091929388
:1000C00094A0A1A2A3A4A5A6A7A8A9AAABACADAED3
:1000D000AFB0B1B2B3B4C0C1C2C3C4C5C6C7C8C94A
:1000E000CACBCCCDCECFD0D1D2D3D400556E64659F
:1000F00066696E65640041646A757374004C6F775D
:1001000065720052616973650044656661756C745F
:10011000004C617965723A200029001E001F002002
:1001200000210022002B0014001A000800150017FF
:1001300000E00004001600070009000A00E1001DAD
:10014000001B0006001900050000000151E300E259
:10015000002C002F00350027002600250024002356
:10016000002D00130012000C0018001C0034003396
:10017000000F000E000D000B00E5003800370036C0
:10018000001000110000000251E7002A0028003092
:100190000001000100010001000100010001001E3A
:1001A000021F0220022102220201001E001F002065
:1001B00000210022000100010001000100010001F6
:1001C0000000000100010001000100010001000128
:1001D00000010001000100010001002702260225A4
:1001E0000224022302010027002600250024002308
:1001F00000010030022F022E023500310200000102
:1002000000010001000100010001000100010001E6
:1002100000010001003A003B003C003D003E003F71
:1002200000010001000100010001000100010001C6
:1002300000010001000100010000000100010001B7
:1002400000010001000100010001000100010001A6
:100250000045004400430042004100400000004FC0
:100260000052005100500000000100310030002F0A
:10027000002E002E0200000100010001000100011B
:10028000000000000000000000000000000000006E
:10029000000000000000000000000000000000005E
:1002A000000000000000000000000000000000004E
:1002B000000000010001000100010000000000003A
:1002C000000000000000000000000000000000002E
:1002D000000000000000000000000000000000001E
:1002E000000000000000000000000000000000010D
:1002F00000010001000100000000000000000000FB
:10030000002A2B2800000000000000000000000070
:100310000000000029000000002C1E3420212224AF
:10032000342627252E362D3738271E1F202122233D
:100330002425263333362E37381F040506070809CF
:100340000A0B0C0D0E0F1011121314151617181995
:100350001A1B1C1D2F3130232D35040506070809F3
:100360000A0B0C0D0E0F1011121314151617181975
:100370001A1B1C1D2F3130354C00000000000000FE
:10038000000000000000000000000000000000006D
:10039000000000000000000000000000007E0F00D0
:1003A000D4FFFFFFC70000007800AE00AF00DA0204
:1003B00081FFD9F1DB20A4A62EAF00A0C000A1C808
:1003C00000AED580A81FD300408D1420000000008F
:1003D0000000003E5B4F5B3E003E6B4F6B3E001CDF
:1003E0003E7C3E1C00183C7E3C18001C577D571C70
:1003F000001C5E7F5E1C0000183C180000FFE7C375
:10040000E7FF00001824180000FFE7DBE7FF0030DB
:10041000483A060E00262979292600407F0505075F
:1004200000407F05253F005A3CE73C5A007F3E1CB8
:100430001C0800081C1C3E7F0014227F2214005F51
:100440005F005F5F0006097F017F00006689956A93
:100450000060606060600094A2FFA2940008047EC7
:1004600004080010207E20100008082A1C0800083C
:100470001C2A0808001E10101010000C1E0C1E0C68
:100480000030383E383000060E3E0E0600000000F8
:1004900000000000005F00000000070007000014DB
:1004A0007F147F1400242A7F2A1200231308646219
:1004B00000364956205000000807030000001C22A7
:1004C0004100000041221C00002A1C7F1C2A000859
:1004D000083E08080000807030000008080808087E
:1004E000000000606000002010080402003E514936
:1004F000453E0000427F40000072494949460021C4
:1005000041494D33001814127F10002745454539E5
:10051000003C4A4949310041211109070036494947
:10052000493600464949291E000000140000000019
:100530004034000000000814224100141414141464
:10054000000041221408000201590906003E415DE5
:10055000594E007C1211127C007F49494936003EF9
:1005600041414122007F4141413E007F494949418B
:10057000007F09090901003E41415173007F0808CD
:10058000087F0000417F4100002040413F01007F83
:1005900008142241007F40404040007F021C027F3F
:1005A000007F0408107F003E4141413E007F090961
:1005B0000906003E4151215E007F091929460026A7
:1005C000494949320003017F0103003F4040403F59
:1005D000001F2040201F003F4038403F00631408A8
:1005E0001463000304780403006159494D4300007B
:1005F0007F41414100020408102000004141417F39
:100600000004020102040040404040400000030793
:100610000800002054547840007F284444380038B3
:100620004444442800384444287F00385454541823
:100630000000087E0902001824241C78007F0804AA
:1006400004780000447D4000002040403D00007FD1
:10065000102844000000417F4000007C04780478AA
:10066000007C08040478003844444438007C182492
:10067000241800182424187C007C0804040800486E
:10068000545454240004043F4424003C4040207C43
:10069000001C2040201C003C4030403C00442810FE
:1006A0002844004C9090907C004464544C440000DA
:1006B00008364100000000770000000041360800C5
:1006C000000201020402003C2623263C0000000038
:1006D000000080808080000000000080E070180C26
:1006E0001830E080000010F8901030783010B8FC1E
:1006F0003810000000000000F8FCF80000000000C6
:1007000000000000000000001C9C1C00000000F81D
:10071000FCF80000000000001CFCF8C00000000015
:10072000000080E0F87C1C000000F0FCFCFC1C1CBD
:100730001C1C1C1C1C1C000000000000C0F0F83831
:100740001C1C1C1C1C1C3CF8F0E000E0F0F0F0E06D
:10075000ECEEF7F37020007C7C7C7E007E7E7E7F5A
:100760007F7F000080C0E07E5B4F5BFEC00000C06A
:1007700000DCD7DEDEDED7DC00C0000000000000B9
:100780000000000000000000000000000000000069
:1007900000000FBCE0818181838382870C18306068
:1007A000C000001FFE90B9FFBB91983C1811133F89
:1007B0001100000000000000FFFFFF00000000002B
:1007C0000000000000000000FFFFFF00000000FF2D
:1007D000FFFF0000000000000000030F7FF8E08032
:1007E000F0FC3F0F0100000000003F3F3F1C1C1CBD
:1007F0001C1C3C78F8F0E08000000000C3E7FF7E9E
:100800003C3878787070F8FFDF87000F1F3F7F7FDC
:100810007F7F7F3F1E0C001F1F1F3F003F3F3F7F1A
:100820007F7F00307B7F7830202030787F3B000353
:10083000000F7F0F0F0F7F0F00030000000000006C
:1008400000000000000000000000000000183C2430
:10085000666341C18180808080808081C14162382F
:100860006C4CC68181808080808081C14362361C4F
:100870001800000000000000FFFFFFC0C0C0C0C0A3
:10088000C0C0C0C0800000007FFF7F000000007F6C
:10089000FFFFC080000000E0E0C0C0C0E0F97F1FA3
:1008A0000700000000000000000070F0E0E0C0C0A1
:1008B000C0C0E0F0F87F3F0F0000000F3F7FF9E07D
:1008C000E0C0C0C0C0C0E0F97F3F1F0000000000D2
:1008D0000000000000000000000000000000000018
:1008E0000000000000000000000000000000000008
:1008F00000000000000000000000000000000000F8
:10090000000000000000000000000000000E034C8A
:100910000069006C00790035003800000010036C9D
:100920000069006C00690075006D00730000000430
:1009300003090409025B00030100A0FA0904000096
:1009400001030101000921110100012240000705F6
:1009500081030800010904010002030000000921CD
:100960001101000122220007058203200001070572
:100970000303200001090402000103000000092113
:1009800011010001227B00070584032000011201F0
:10099000000200000008D8042DEB00010102000154
:1009A0000660FF0961A1010962150026FF0095207C
:1009B000750881020963150026FF009520750891CE
:1009C00002C005010902A10185020901A100050972
:1009D00019012908150025019508750181020501F5
:1009E000093009311581257F95027508810609387E
:1009F0001581257F950175088106050C0A380215B9
:100A000081257F950175088106C0C005010980A177
:100A100001850319012AB700150126B70095017554
:100A2000108100C0050C0901A101850419012AA04B
:100A300002150126A002950175108100C00501096B
:100A400006A101050719E029E7150025019508759C
:100A50000181029501750881010507190029FF151B
:100A60000026FF0095067508810005081901290573
:100A7000950575019102950175039101C00011243E
:100A80001FBECFEFDAE0DEBFCDBF12E0A0E0B1E0E5
:100A9000E8E5F4E602C005900D92AA30B107D9F757
:100AA00025E0AAE0B2E001C01D92A236B207E1F74C
:100AB0000E94B5170C9401320C940000CF93C82FFC
:100AC0000E94B115811101C0C2E08C2FCF91089511
:100AD00023E041E062E00E944A060895CF93C0E21D
:100AE0008C33910520F4FC01E85BFE4FC0811F921E
:100AF000CF939F938F93FB0180811F928F9381816E
:100B00001F928F9387E391E09F938F931F9288E1C9
:100B10008F9383E292E09F938F930E94162F8DB75D
:100B20009EB70E960FB6F8949EBF0FBE8DBF8091F4
:100B30000C0290910D02449761F410920D021092F4
:100B40000C02EEE0F2E080E2819392E0E232F907FB
:100B5000D9F780910C0290910D02FC01E25FFD4FEC
:100B6000C083019690930D0280930C02CF9108955B
:100B70000E94B11560E0882389F181E191E00E9433
:100B80003D1D809155020E94BD078130F9F08823F8
:100B900041F08230B9F08330E9F060E08CEE90E013
:100BA00003C060E089E091E00E944F1D60E083E2B5
:100BB00092E00E94371D60E08EE092E00E94371DB7
:100BC00080E0089560E083E091E0EECF60E08DEF9B
:100BD00090E0EACF60E086EF90E0E6CF8CEA90E02C
:100BE0000E943D1DEDCFFB01228121110E946E0567
:100BF00081E008950E94711E089581E008950E9489
:100C0000F305089508950E9402060895A5E0B0E056
:100C1000ECE0F6E00C94CF2E49835A8330913C02ED
:100C200089819A81311119C0662399F0222389F0B4
:100C30000E94470C182F682F89819A810E94230CEB
:100C400069817A81812F0E94D4202596E3E00C945B
:100C5000EB2E0E94350C182FF3CF0E94470C6981B0
:100C60007A81F1CFFC01262F40815181628173810D
:100C700084810E940606089581E00895CF93DF9352
:100C8000EC0160E00E943206BE010E940306DF9183
:100C9000CF910895E1E0F0E0DF0102C0AA0FBB1F91
:100CA0006A95E2F7BD01DF0102C0AA0FBB1F4A959A
:100CB000E2F76A2B01C0EE0F2A95EAF7962F9823E8
:100CC000961302C08E2B0895E0958E230895242F4D
:100CD000462F682F809155020E944A060E94830B7E
:100CE00008950E940A1408950E940E14089508950C
:100CF0000E94230B0E9477062FEF84E39CE0215093
:100D000080409040E1F700C0000008950E947806FE
:100D10000E94E32608950E9478060E94F426089512
:100D20000F931F93CF93DF938C0161E00E943206F3
:100D3000EC01B8010E94AB1A811106C080E0DF917E
:100D4000CF911F910F910895B801CE010E94FF0528
:100D50008823A1F3B801CE010E941922882371F3E0
:100D6000B801CE010E94C71E882341F3B801CE010D
:100D70000E948B21882311F3F8018281882361F07E
:100D8000CA35FDE5DF0701F158F4C115ECE5DE07D2
:100D900091F0CE3DDC4591F0C8010E94FD05CFCF1A
:100DA000CC358DE5D80769F090F0C73ADD45A1F75D
:100DB0000E948B06C3CF0E948606C0CF0E94EE1011
:100DC000F7CF0E942810E8CF0E943210E5CF0E9492
:100DD0003610E2CF0E94F9250E94E1070E94711EA1
:100DE00008950E94E5070E94FE250895B0E0A0E066
:100DF000ECEFF6E00C94CB2EE82FF0E0E750FD4F3F
:100E0000D490282F26952695269530E0F901E756AF
:100E1000FC4F0491877010E0082E02C015950795CD
:100E20000A94E2F701701127F901E757FC4FE490AB
:100E3000F12C082E02C0F594E7940A94E2F791E0B1
:100E4000E922FF24F901E758FC4FC491D0E002C029
:100E5000D595C7958A95E2F7C170DD270115110573
:100E600019F081EE0E943008E114F10419F086EEC9
:100E70000E9430088D2D0E94C608E114F10419F07B
:100E800086EE0E947C080115110519F081EE0E9482
:100E90007C08CD2B19F08CE20E94C608CDB7DEB7D6
:100EA000E7E00C94E72EEF92FF920F931F93CF93FE
:100EB000DF93EC01162F0AE08881882309F454C0DF
:100EC000813009F04EC08981813099F47E0122E0A1
:100ED000E20EF11C8A810E94C608E7012196812F4B
:100EE000815050F3EFE9FFE03197F1F700C00000C7
:100EF000F7CF823041F47E0182E0E80EF11C8A8156
:100F00000E943008EACF833041F47E01E2E0EE0E29
:100F1000F11C8A810E947C08E0CF843011F0219678
:100F2000DDCF2A81229690E080E0AE014F5F5F4FD7
:100F30002053330B2A30310548F0019778F2EFE95E
:100F4000FFE03197F1F700C00000F7CF089FB00134
:100F5000099F700D1124C901860F971F2981EA018D
:100F6000E4CF0E94F606BACFCDB7DEB7E6E00C9428
:100F7000E82E60E00E9453070895982F92959F7085
:100F800011F0892F94E0282F2695269511F09E5F69
:100F9000822F869509F09F5F892F089508950E94FA
:100FA000CE07089581E008950E94D207089508951C
:100FB000CF93C82F0E94CF078C2F0E94D407CF91C8
:100FC000089580E00E94D80708950E9420250E947D
:100FD000D80708950E94202590913B02981721F090
:100FE00080933B020E94D8070895ABE0B0E0EBEF9E
:100FF000F7E00C94D02E4F83588769877A878B87C8
:1010000061110E94730F1E821D8285E0FE013796DA
:10101000DE01119601900D928A95E1F78C819D81F8
:10102000892B61F449815A816B817C818D819E81FC
:101030000E949C0E2B96E2E00C94EC2E89819A8102
:1010400089238F3F79F3CE0101960E943C068111DE
:10105000E9CFF0CFFC01808191810E94740C08954A
:10106000CF93C82F8823B9F08CEF8C0F813AA8F466
:101070006C2F80910001909101010E948B258823A3
:1010800029F08C2F0E94330F0E94940F8C2F0E9406
:101090002B0F0E94940FCF91089580E28C0F88301F
:1010A00048F4C77081E001C0880FCA95EAF70E9432
:1010B000560FEFCFEBE5EC0FE33040F4F0E0EE54E9
:1010C000FE4F808190E00E944D25E5CFE8E5EC0FD2
:1010D000E73150F4F0E0EE0FFF1FEC57FE4F808138
:1010E00091810E946325D7CFC03FA8F28C2F0E9428
:1010F00039180E940C19CFCF882379F19CEF980FF3
:10110000913A28F40E94330F0E94940F089590E2C0
:10111000980F983050F4877091E001C0990F8A952C
:10112000EAF7892F0E945C0FEFCF9BE5980F933071
:1011300028F490E080E00E944D25089598E5980FEE
:10114000973128F490E080E00E9463250895803F65
:1011500020F00E9493180E940C1908951F93CF93BA
:10116000DF93182FEB010E943008209739F4812F6C
:101170000E947C08DF91CF911F9108958FE99FE035
:101180000197F1F700C000002197EFCF70E060E019
:10119000893311F460E570E00E94AE080895882359
:1011A00021F00E94560F0E94940F0895882321F089
:1011B0000E945C0F0E94940F0895B0E0A0E0E3EE5F
:1011C000F8E00C94C92E6C01D62FC72FFC011281B8
:1011D000F580F2949FE0F9220E944C0FE82E8823BC
:1011E000B9F0E12E1123A1F08C2F807F803421F003
:1011F00080E28D0F8830D0F08091320382FF16C0DC
:1012000082E00E94F70F0E944C0F91E0E82EE92641
:10121000BC2EB2948FE0B822FBE0FB1508F468C046
:10122000EB2DF0E0ED5FFD4C0C94B32EE12CF0CFF4
:101230000C2F0F70C07F11F00295007F112399F0E1
:10124000002359F080E28D0F883010F0D11107C0D3
:10125000802F0E94560F0E94940F8D2F41C0802F27
:101260000E94660FF8CF8D2F0E947C08002309F49E
:101270003FC080E28D0F883010F0D11104C0802F64
:101280000E945C0F03C0802F0E946C0F0E94940F7D
:101290002FC00C2F0F70C07FC03211F00295007F5D
:1012A000DD2381F0D13009F463C0112309F46DC04E
:1012B000FF2009F463C0F601858180FFCECF8F70D7
:1012C00085835CC08091320382FD33C0112359F0C5
:1012D000002329F0802F0E94560F0E94940F80E077
:1012E0000E94300805C080E00E947C080111C7CF31
:1012F000EB2DE850FF0B349720F40E9420250E942C
:10130000D807EE2089F00E94480F80FD0DC0F6013D
:1013100012820E94420F0E94970BC6010E94E30AAC
:101320000E94420F0E94A30BCDB7DEB7E9E00C94F8
:10133000E52E112389F0F11006C00E94760F802B54
:101340000E94CF08D5CF21E0F212F7CF0E94760F8E
:10135000802B0E947D0FCCCFF11006C00E948A0F17
:10136000802F0E94D608C4CF31E0F31609F2F6CFE1
:10137000112331F085E08F1508F4BACF802FE0CF2C
:1013800094E09F1508F4B4CFEBCFFF2049F3D93395
:1013900049F4FFEF27EE33E0F15020403040E1F711
:1013A00000C000008D2F0E947C08A2CF8C2F869554
:1013B0008695837069F0813009F09ACF8D2F9C2F2C
:1013C0009370111102C090E080E00E94632590CFDD
:1013D0008D2F9C2F9370111102C090E080E00E942D
:1013E0004D2586CF8D2F112329F00E9439180E9498
:1013F0000C197ECF0E949318FACF8C2F837079F549
:10140000111176CF4D2F429546954770440F440FEA
:101410008D2F8F70042E01C0880F0A94EAF72D2FAC
:101420002071D4FF07C02FE030E001C0220F4A95A1
:10143000EAF72095C695C695C370822BC23049F055
:1014400058F4C13019F00E94740B52CF0E946E0BF9
:101450004FCF0E947A0B4CCF0E946B0B49CF8695E1
:10146000112311F08C2F8170882309F441CF4D2F67
:10147000429546954770440F440F8D2F8F70042E70
:1014800001C0880F0A94EAF72D2F2071D4FF07C0FE
:101490002FE030E001C0220F4A95EAF72095C6956B
:1014A000C695C370822BC23049F058F4C13019F090
:1014B0000E94C20B1DCF0E94BC0B1ACF0E94C80B0A
:1014C00017CF0E94830B14CFCF70112329F08C2FDC
:1014D0000E94970B8D2F34CF8D2F0E94D6088C2F12
:1014E0000E94A30B05CFD23F51F160F4D03FB9F079
:1014F000D13F81F0112309F449C0F110AECE8C2FF9
:101500008F7121C0D33F11F1D43FA1F780913203F5
:1015100082FD26C08C2F8F71112311F314C011236B
:1015200049F084E08F1508F4E3CE8C2F8F710E9470
:10153000B00BDECE95E09F1508F4DACEF6CF8C2FF7
:101540008F711111CDCF0E94970BD2CE112329F0AC
:101550008C2F8F710E948E0BCBCE0E948A0BC8CE2F
:10156000112349F0CF718C2F0E94970B63E08C2FD1
:101570000E94D90FBDCE81E00E94F70FE1E0EF1588
:1015800008F0B6CE82E00E94F70FB2CEF110FFCE87
:101590008C2F8F71A5CF0F931F93CF93DF93EC0107
:1015A000688179818A810E947F0C8C010E94CE0B18
:1015B0000E946A0BB801CE010E94DD08DF91CF9135
:1015C0001F910F910895CF93DF93EC018B819C8144
:1015D000892B29F08881998189238F3F51F4DF91EC
:1015E000CF910895CE010E94CB0ACE010E943E0603
:1015F000F6CFCE010E9490068111F4CF0E944C0FCD
:10160000882369F38A81882351F38091320382FF12
:10161000E6CF82E00E94F70FE2CF90E080E00E94E8
:101620004D2590E080E00E9463250E94730F0E9488
:10163000940F0E9428190E940C1908950E943B0FD4
:101640000E940D0B08950E94630F0E941E0B0895C7
:1016500092959F70963091F058F4925F9F709230FF
:1016600058F4803F19F030F4883E30F481E008955A
:101670009A5FF4CF843FD1F380E00895883EB0F3C1
:10168000813FD1F7F3CFFC01808191810E94740CDE
:101690000E94280B0895A5E0B0E0E1E5FBE00C9482
:1016A000D02E2596E2E00C94EC2EA6E0B0E0EBE51F
:1016B000FBE00C94D02E2696E2E00C94EC2E0895DC
:1016C0000E945F0B08950E94600B809356020E9457
:1016D0000D0B089508950E94630B08959091560292
:1016E000892B0E94630B08959091560289230E94D2
:1016F000630B08959091560289270E94630B089509
:101700000E94680508950E94800B809355020E94F4
:101710000D0B089580E00E94830B089591E001C0B5
:10172000990F8A95EAF7892F0E94830B089521E08B
:1017300030E001C0220F8A95EAF780915502822B92
:101740000E94830B089521E030E001C0220F8A95AA
:10175000EAF720958091550282230E94830B089519
:1017600021E030E001C0220F8A95EAF7809155020E
:1017700082270E94830B089590915502892B0E9425
:10178000830B08959091550289230E94830B08953D
:101790009091550289270E94830B08950895262F62
:1017A000277091E001C0990F2A95EAF723E076951A
:1017B00067952A95E1F7FB01EE0FFF1FE60FF71F74
:1017C000E40FF51F50E040E0682F70E08191DF01E9
:1017D00011979B01042E02C0369527950A94E2F7D3
:1017E000217021952827292328272C934F5F5F4FAD
:1017F0004330510559F70895A82FA77023E0969517
:1018000087952A95E1F7FC01EE0FFF1FE80FF91FFE
:10181000E60FF71F50E040E080E0219130E00A2E13
:1018200002C0369527950A94E2F721703327042EDB
:1018300001C0220F0A94EAF7822B4F5F5F4F4330BB
:10184000510559F70895262F9A3070F4863060F4C8
:10185000682F70E086E0989F600D711D11244DE3A4
:1018600052E0822F0E94CF0B0895292F9A3068F4FE
:10187000863058F490E06DE372E036E0239F800DEF
:10188000911D11240E94FC0B089580E00895CF92D1
:10189000DF92FF920F931F93CF93DF936C01009120
:1018A000550280915602082BC7E0D0E010E0FC2ED4
:1018B000C8010C2E02C0959587950A94E2F780FD29
:1018C0000CC02197A0F7F12C8F2DDF91CF911F91A4
:1018D0000F91FF90DF90CF900895B6018C2F0E945A
:1018E000B312019771F3F0CFCF93DF93EC010E9415
:1018F000470CBE010E94B312DF91CF9108951F9350
:10190000CF93DF93EB0190913C02992339F0CB0107
:101910000E94740CDF91CF911F910895882369F084
:10192000CB010E94470C182F682FCE010E94230C78
:10193000BE01812F0E94B312EDCFCB010E94350C66
:10194000182FF6CF1F93CF93DF93C091570216E065
:10195000809158028C1304C0DF91CF911F9108959C
:10196000D0E01C9FF0011D9FF00D1124E75AFD4FA0
:101970004081518162817381848195810E94550BE0
:101980002196C770E5CF4091890250918A026091FB
:101990008B0270918C0280918D0290918E020E9438
:1019A000550B08951F93CF93DF9380918E02807F14
:1019B00009F049C080918B02882309F444C08091CA
:1019C0005702C09158026091890270918A02A091D9
:1019D0008C02B0918D02D62FD72316E0C81799F14B
:1019E00090E0109711F0DF3F19F401968770F6CF61
:1019F000189F9001199F300D1124F901E75AFD4FEE
:101A000041814713F2CF40814613EFCF428141110C
:101A1000ECCF438154814A1B5B0B4436510528F7B8
:101A200080918E028F70806180938E02F901E25A5C
:101A3000FD4F80818F708061808389E892E00E94F1
:101A4000E30A0E94A20CDF91CF911F910895A1E1BA
:101A5000B0E0EDE2FDE00C94C82E8C0185E0F801C9
:101A6000DE011D9601900D928A95E1F7F801E28062
:101A700089E8C82E82E0D82E60918C0270918D0288
:101A80006115710509F43CC19091890220918A0287
:101A9000892F82238F3F09F433C140815181A38074
:101AA000B480F0908B02F501E61BF70BFF2009F4E0
:101AB000F8C080918E02382F307FE436F10508F0AF
:101AC000B1C031116DC0FE2C251316C0941314C083
:101AD000E11012C08F70806180938E020E94C30C4F
:101AE000C6010E94E30A80918E02F80185838F2D42
:101AF0006196EAE00C94E42EA114B10429F0842F3D
:101B000085238F3F09F015C180E0F82FF170DF2E9B
:101B100080FF3CC0809157022091580236E082132A
:101B200015C04D875E878D859E850E94740C292F78
:101B300022952F702230F0F0243018F59F70F1F0CC
:101B4000F8019581907FD1F4D12C1EC090E0389F90
:101B5000F001399FF00D1124E75AFD4F61816513A3
:101B600006C06081641303C06281E6120FC0019653
:101B70008770D5CF9F7011F0882331F3805E883055
:101B800018F3C8010E94E30AFD2CB1CFEE2009F43E
:101B9000AECF80918E02816080938E02F12CA7CF10
:101BA000251314C0941312C0E11010C0F8018583EE
:101BB000C8010E94E30A86E0F801A9E8B2E00190BA
:101BC0000D928A95E1F70E94C30C91CFC8010E9443
:101BD000430B882319F1EE2009F180918E028032A7
:101BE00070F02091890230918A0238872F831986FC
:101BF000BB86AA868C87CE0107960E94E30A86E000
:101C0000F801A9E8B2E001900D928A95E1F70E94EF
:101C1000D20C0E94C30CFF24F39469CFC8010E9428
:101C2000E30AF9CF311113C07A2DB98AA88A6E2D33
:101C300089890E944B0B89E892E00E94E30A86E0C2
:101C4000F60111928A95E9F70E94C30CA7CF2513DC
:101C50000FC094130DC0E1100BC0F8018583C801BB
:101C60000E94E30A86E0F60111928A95E9F73FCFD8
:101C7000C8010E94430B882389F2EE2079F28091FB
:101C80008E02803208F4BBCF2091890230918A0203
:101C90003A8329831B82BD82AC828E83CE0101965A
:101CA000ACCFE436F105F8F4FE2CEE2009F4B6CF03
:101CB00025130BC0941309C086E0F801A9E8B2E02F
:101CC00001900D928A95E1F712CFC8010E94430B53
:101CD000811195CF80918E02816080938E02C80120
:101CE0000E94E30A04CF7A2DB98AA88A6E2D8989C9
:101CF0000E944B0B86E0F60111928A95E9F763CFBB
:101D0000EE2009F48BCFC8010E94430BF82E8823E4
:101D100009F484CF86E0F801A9E8B2E001900D92C1
:101D20008A95E1F789E892E00E942A080E94D20C85
:101D30004ACF81E08E25E9CEACE0B0E0E2EAFEE0F9
:101D40000C94CF2E4F83588769877A878B879C871F
:101D5000CE0107960E94270D882369F08A859B850E
:101D6000892B39F04F815885842F85238F3F09F0C7
:101D70006BC016E05FC086E0FE013796DE0111966B
:101D800001900D928A95E1F78A859B85892B89F3CD
:101D900088859F8189238F3F61F32091580230E02D
:101DA000C901019687709927409157024817190673
:101DB00071F40E94230B109258021092570286E091
:101DC000E9E8F2E0DF011D928A95E9F7D2CF96E0CB
:101DD000929FD001939FB00D1124A75ABD4FFE01D1
:101DE000319601900D929A95E1F7809358020E94E6
:101DF000A20CBFCF819FC0011124875A9D4F0E9422
:101E0000270D8823E9F0E09157021E9FF00111246D
:101E1000E75AFD4F408151816281738184819581B0
:101E20000E94550B8091570290E001968770992788
:101E30008093570280915702909158028913DACF0C
:101E40002C96E3E00C94EB2E69857A858B859C8536
:101E50000E94550B8ECF682F809100019091010157
:101E60000E94C1250895682F809100019091010181
:101E70000E94C425089580910001909101010E9463
:101E8000C725089580919702859585958595089534
:101E9000809197028770089590919702977081E0E2
:101EA00009F480E008958091A20208959091A20221
:101EB000892B8093A202089580959091A202982385
:101EC0009093A20208951092A20208959091A10207
:101ED000892B8093A102089580959091A102982367
:101EE0009093A10208951092A10208958091980202
:101EF000089508950E94790F08959091320392FFFA
:101F000008C090919802981721F0809398020E943F
:101F10007A0F089580919802882329F010929802F0
:101F200080E00E947A0F0895CF93DF93E091000143
:101F3000F09101018091A2028083E0910001F09173
:101F4000010180819091A102892B80839091980258
:101F5000992381F0E0910001F09101018081892BAA
:101F6000808380910001909101010E947925811167
:101F70000E948A0FC0910001D091010148E050E019
:101F80006FE872E0CE010E94002F892B59F088E0A3
:101F9000FE01AFE8B2E001900D928A95E1F7CE0123
:101FA0000E943425DF91CF91089508950E94D50FA6
:101FB00008959091320392FF11C098E0899F90019B
:101FC0001124622B609397020E94970B80919702D5
:101FD0008595859585950E94D60F08950E94970B4B
:101FE00008951092970280E00E94D60F0895909174
:101FF00097028095892380939702282F277091F468
:10200000282F082E000C330B9217130659F09091CD
:10201000320392FF07C08595859585950E94A30B95
:102020000E94F10F08959091320392FB222720F92C
:10203000281769F080FB92F9909332038091310365
:10204000909132030E94651082E00E94F70F08957C
:102050008091320382FB882780F991E089270E94D2
:102060001310089581E00E941310089580E00E94EB
:10207000131008956FEF7FEF90E080E00E94EB3146
:10208000089590E080E00E94C731883E9E4F19F489
:102090000E94461A089580E0089582E090E00E9430
:1020A000BF31089583E090E00E94BF310895CF933F
:1020B00084E090E00E94BF31C82F82E290E00E944D
:1020C000BF31982F8C2FCF910895CF93C92F682FB0
:1020D00084E090E00E94CD316C2F82E290E00E947B
:1020E000CD31CF910895AB01BC018FE090E00E940B
:1020F000DF310895AB01BC0183E190E00E94DF3144
:10210000089560E070E0CB010E947A10089560E0CD
:1021100070E0CB010E9473100E948110089568EE58
:102120007EEF90E080E00E94EB3160E082E090E0A2
:102130000E94CD3160E083E090E00E94CD311092AA
:10214000560260E084E090E00E94CD3164E082E2DB
:1021500090E00E94CD3160E085E090E00E94CD31BA
:1021600060E086E090E00E94CD316FEF87E090E084
:102170000E94CD3140E050E0BA0188E090E00E943A
:10218000DF3160E08DE090E00E94CD3140E050E032
:10219000BA0188E190E00E94DF3160E087E190E0E1
:1021A0000E94CD3140E050E0BA018CE190E00E9405
:1021B000DF3170E060E080E290E00E94EB3140E0CF
:1021C00050E0BA0188E190E00E94DF3180E00E9497
:1021D0005F1A0E948E1A0E94871008950E948F1025
:1021E0000895682F8EE090E00E94CD3108950E94FE
:1021F00088266093B1027093B2028093B3029093E9
:10220000B4026093AD027093AE028093AF029093DC
:10221000B0020895089508950E940B11089508953D
:102220000E940F11089582ED93E10E9416250E94ED
:102230000A110E940C1108950E94B1150895089585
:1022400008950E941F110E94201108950E94EE130C
:102250000E94D70708950E9473260E9492130E943D
:102260009E1A0E94CC150E9415150E9426110E94EC
:102270009A1B80E00E94F21B0E94D6150E9410114A
:102280000895AAE0B0E0E7E4F1E10C94C62E0E94C4
:102290003815982E81110E94F71083EAA82E82E04B
:1022A000B82E10E000E0802E802F0E941114E82E3E
:1022B000F501C1905F01C816B1F18091B50281FDB1
:1022C0000E941714D12CFF24F394CE248C2D8F213F
:1022D00029F10E941C11882399F0DE828F82EF2061
:1022E00081E009F480E088870E947C268160782F55
:1022F0009A8789874E815F8168858A850E94F50764
:10230000F801ED55FD4F8081F826F08281E09110B3
:1023100001C080E02A96ECE00C94E22ED394FF0CEE
:10232000F6E0DF12D3CF0F5F1F4F0A30110509F01F
:10233000BACF8FEF89838A831B820E947C268160BB
:10234000782F9D838C8349815A816B818D810E9476
:10235000F507DCCFCF930E944111C82F0E94B11521
:102360000E948F1EC1110E94551D0E944A190E9491
:10237000EA07CF910895CF93DF930E94B812EC0142
:10238000811521E5920708F042C0811530E59307D9
:1023900008F09DC0883E910530F5803E910508F01B
:1023A00092C0883A910588F4853A910508F084C076
:1023B0008130910509F487C0009709F484C004971F
:1023C00008F081C0D0E0C0E07EC08F3B9105D0F71F
:1023D000C85AD0E0CC0FDD1FCB54DE4F0990D88116
:1023E000C02DD46470C08115904250F4C11581E0B5
:1023F000D80708F068C0C03FD10520F3D06563C09E
:10240000C11590E4D907F0F2DF70D06A5CC0811585
:1024100025E5920700F5811534E5930708F08BC098
:10242000811543E5940708F073C0C11582E5D8070C
:1024300008F469C0CE018370992721E030E002C022
:10244000220F331F8A95E2F7C695C69580E2C89F92
:10245000E001112454C0C11599E5D907A8F4C115AC
:1024600028E5D20708F06CC0C11536E5D30708F09F
:10247000A9CF8C2F0E944F13C82FD0E0DC2FCC2780
:10248000CC27DF71D0621FC0C1154AE5D40708F41C
:102490005CC0CE0190568115904208F093CF8D2FED
:1024A0008F710E944F1390E0982F882788279F7183
:1024B0009C012C2BE901E6CFC55AD0E0CD51DE4F6F
:1024C000C881D0E0D064CE01DF91CF910895E4E0DF
:1024D00096958795EA95E1F783702C2F269526959A
:1024E000237040E2249F90011124382B8C2F83709D
:1024F000C1E0D0E002C0CC0FDD1F8A95E2F7C22B0D
:10250000D32BDC68E0CFDC2FCC27C16FD06ADBCFC8
:102510008370992721E030E002C0220F331F8A9593
:10252000E2F7C695C69590E2C99FE0011124C22B3F
:10253000D32BDA68C8CFD82FCC27C46FD06AC3CFCB
:10254000DC2FCC27C06FD06ABECF8C2F8F700E943B
:102550004F1334E0D695C7953A95E1F7CF709C2F8D
:10256000EC01D069B0CF0E94D4200E94BB11089525
:1025700082389105B1F1B0F48133910509F475C049
:1025800048F48932910509F469C08A32910509F449
:1025900073C008958533910509F459C089339105B5
:1025A00001F10895833E9105A9F138F4803E91052B
:1025B000F9F0823E910549F10895863E9105A9F111
:1025C000873E9105C9F1843E910519F520913203AA
:1025D00021FF1FC08091310384FD14C087EE90E07D
:1025E0000895209131032370A1F080EE90E00895CA
:1025F0002091310320FD47C03091320330FF09C0E4
:1026000024FF44C090E080E004C02091310322FD0B
:10261000F7CF08952091310322FD3BC03091320362
:1026200030FDE3CF24FFF5CFEDCF2091310323FF21
:10263000F0CF24FDE7CFD2CF2091310323FD2CC072
:102640003091320331FFEECF84EE90E00895209177
:10265000310325FFDECF89E290E008952091310318
:1026600025FFD7CF85E390E008952091310326FF21
:10267000D0CF8AE290E008952091310326FFC9CFA0
:1026800081E390E0089589E390E0089583EE90E07F
:10269000089582EE90E0089586EE90E0089590917E
:1026A000310392FF06C0282F28712830F9F4877F64
:1026B000846093FF06C0282F28712831F1F4877EAB
:1026C00084612091320320FF06C0382F38713830E2
:1026D000D9F4877F816021FF06C0282F2871283117
:1026E000D1F4877E816194FD877E0895282F24711F
:1026F0002430F9F68B7F8860DCCF282F24712431B9
:1027000001F78B7E8861DDCF382F3171313019F7B9
:102710008E7F8860E0CF282F2171213121F78E7EB6
:102720008861E1CF10922D0310922E0310922F0397
:10273000109230030895CF92DF92EF92FF926B01D7
:102740007C010E94B11581110EC00E948826C61A14
:10275000D70AE80AF90AC0922D03D0922E03E0921C
:102760002F03F0923003FF90EF90DF90CF90089509
:102770000F931F930E94B115882329F00E94882689
:102780001F910F9108950E94882600912D031091AA
:102790002E0320912F0330913003600F711F821F91
:1027A000931FEECF80E008950E943A1008950E9492
:1027B00038158FE39CE90197F1F700C000000E94F3
:1027C000381580E00E94111480FF04C00E94D413C9
:1027D0000E94E32608950E94D71308950E94411095
:1027E000811102C00E94EE100E944D108093B5022C
:1027F0000E94571090933203809331030E94EB1391
:102800000E9452100E946B0B809155020E94800B17
:10281000089508950E940914089508950E940D14C2
:102820000895E82FF0E0E25CFC4F80810895089560
:1028300080EA8A95F1F7089500C008950E9418145F
:10284000089508950E9421140895A5E0B0E0EBE2F8
:10285000F4E10C94CC2E0E94B115F82E609148033F
:10286000882309F440C085E0E82E8E010F5F1F4FDA
:10287000F8018E2D11928A95E9F7862F90E0B80124
:10288000825C9C4F0E94E4158823B9F08091330349
:1028900090E045E050E0B801825C9C4F0E94002F20
:1028A00021E02093B602892B91F4F12C0E9474064A
:1028B0008F2D2596E6E00C94E82E8091B6028823B1
:1028C000A1F3F8011192EA94E9F71092B602A091EF
:1028D0003303B0E0A25CBC4F85E0F80101900D929B
:1028E0008A95E1F7E3CF70E0625C7C4F809133031F
:1028F00090E0825C9C4F0E946B160E942214D8CFFD
:10290000F894E82FE295EF70F0E031A1282F2F70B6
:1029100081E090E001C0880F2A95EAF7982F909502
:10292000932391A392A1892B82A3789408950F9366
:102930001F93CF93DF93CCEED1E089918F3F11F0BD
:102940000E94801481E0C13FD807B9F7C6EED1E0FC
:102950000CEE11E089918F3F11F00E9480140C174A
:102960001D07C1F7DF91CF911F910F910895B0E03E
:10297000A0E0EDEBF4E10C94CA2EEC01D62E062F6C
:1029800010E0C80184519E4F7C01FC0180818F3F83
:1029900009F444C0F894E82FE295EF70F0E091A1BB
:1029A0008F7021E030E001C0220F8A95EAF7892F6D
:1029B000822B81A382A12095282322A378940E94B0
:1029C0001C14E6EEF1E031E0C12C21912F3F59F1CA
:1029D000A22FA295AF70B0E090968C9190E02F70EE
:1029E00002C0959587952A95E2F780FD1CC0832F3C
:1029F000C82A330F81E0EC3EF80739F7F7018081F0
:102A00008F3F11F00E94801461E0C11001C060E0AE
:102A10008D2D0E941E14C00FD11FC882CDB7DEB706
:102A2000E8E00C94E62E80E0E3CF809102018091F3
:102A3000020195E0811190E09093480385E0891BA5
:102A4000809333030E9497148AE0EEE3F3E0DF0102
:102A5000982F1D929A95E9F7E4E3F3E0DF011D92C8
:102A60008A95E9F785E00E947B150E94710608951A
:102A7000AAE0B0E0EEE3F5E10C94CC2E8E010F5FFE
:102A80001F4F8AE0F80111928A95E9F7F12C6F2D1A
:102A9000C8010E94B714F394F5E0FF12F8CF4AE0A2
:102AA00050E0B80184E393E00E94002F7C0121E014
:102AB000892B09F420E0E114F10441F08AE0F801E7
:102AC000A4E3B3E001900D928A95E1F76091480389
:102AD00070E0625C7C4F45E084E393E00E947C15EB
:102AE00081E090E0E114F10411F40E9425142A968B
:102AF000E6E00C94E82E0895FF920F931F93CF9376
:102B0000DF93F82E092F162FD72FC42F222349F039
:102B100081E08093B9020E947C269093B802809352
:102B2000B7028091B9028823A1F08091B7029091F9
:102B3000B8020E949426059760F0EF2DF02FA12F88
:102B4000BD2FCE0FDF2FD11DEC17FD0739F41092EA
:102B5000B902CDB7DEB7E5E00C94E92E81918D93F3
:102B6000F3CF8091BC02811107C00E94722E88238E
:102B700051F081E08093BC0281E09091BC029130E1
:102B800009F080E0089582E08093BC020E946D2EDF
:102B9000F3CF0E94B11508950E94C91580930201D8
:102BA0000E94B11581110E941A1608950E94B11554
:102BB000811102C00E941D16089581E09091BD020E
:102BC0009A3008F080E008950F931F93CF93DF931E
:102BD000EC018B018091BD028A30B8F4B801CE01BE
:102BE0000E946816C82F811122C08091BD028F3FBC
:102BF000B9F40E947C269093BB028093BA028C2F7A
:102C0000DF91CF911F910F9108958091BA02909119
:102C1000BB020E949426843F914000F7C0E0EFCFB2
:102C20008F5F8093BD028A3020F7C1E0E8CF109219
:102C3000BD02E5CF0E94B42308950E94B7230895F2
:102C4000B0E0A0E0E6E2F6E10C94CB2E7901C82FCB
:102C5000880FDD0B41155105A9F0FE0193E0EE0F41
:102C6000FF1F9A95E1F7ED5FFE4F818192818254BB
:102C70009D4F208130E04217530708F49A01A901C3
:102C80000E940D2FCE010E94A024D82E8823D1F0BF
:102C900001151105B9F083E0CC0FDD1F8A95E1F72E
:102CA000FE01ED5FFE4F438150E00417150708F465
:102CB000A801CD5FDE4F6C817D8162547D4FC701DD
:102CC0000E940D2F8D2DCDB7DEB7E7E00C94E72ED7
:102CD0000E945A1708950E9471170895A4E0B0E069
:102CE000E4E7F6E10C94CE2E6091D5027091D60205
:102CF0008091D7029091D8020E94A32611E06436F9
:102D000071058105910518F10E94B8136E5F7F4F20
:102D10008F4F9F4F69837A838B839C8310E000E001
:102D200030E020E044E050E0BE016F5F7F4F82E082
:102D30000E942016182F882351F00E948826609345
:102D4000D5027093D6028093D7029093D802812F38
:102D50002496E4E00C94EA2EB0E0A0E0E2EBF6E189
:102D60000C94C82E7C015B016A010E94DD1501E014
:102D700010E0882311F00AE010E0C1E0D0E0B501D6
:102D8000C701F6010995811104C021960C171D0792
:102D90002CF4CDB7DEB7EAE00C94E42ECC9F900182
:102DA000CD9F300D300D112490E080E045E34A9531
:102DB000F1F70000019682179307C1F7E0CFA6E074
:102DC000B0E0E5EEF6E10C94C82E7B01C090F10175
:102DD000D090F20101E010E09E012A5F3F4F50E0E9
:102DE00040E070E060E080E00E942016182F882309
:102DF00009F448C056018FEFA81AB80A6091D102B1
:102E00007091D2028091D3029091D4020E94A326A5
:102E1000643671058105910568F105E010E09E01B9
:102E20002F5F3F4F50E040E070E060E081E00E94A3
:102E30002016D82E65E070E0C5010E949B1B11E0B2
:102E40009E81981310E01D2141F10E948826609315
:102E5000D1027093D2028093D3029093D40285E082
:102E6000FE013196ACECB2E001900D928A95E1F74B
:102E700011E013C065E070E0C5010E949B1B9E81BC
:102E80008913CBCF85E0F6013196DE0111960190D2
:102E90000D928A95E1F71111E2CF85E0ECECF2E0BA
:102EA000D70101900D928A95E1F7812F2696EAE0ED
:102EB0000C94E42E0F931F93CF93DF93EC018B01BF
:102EC0004FED56E10E94AC16882331F04EE656E1F4
:102ED000B801CE010E94AC16DF91CF911F910F91E6
:102EE00008950F931F93CF93DF93C091F101D09179
:102EF000F201CE01019625E0FB01DC0101900D926B
:102F00002A95E1F765E070E00E949B1B88836E8143
:102F10007F81888599850091C8021091C90220910E
:102F2000CA023091CB02601771078207930751F0F4
:102F30006093C8027093C9028093CA029093CB0237
:102F40000E949B13DF91CF911F910F9108950E94D2
:102F5000CC280E942B110E94D92808950E94DE28B7
:102F60000E94AA110E94F82808950E9415260E9426
:102F7000B2280E9413110E94A7170E94AE170E9448
:102F80002111FBCF8091DF0280FF0DC060912001F5
:102F900070E0660F771F6038710570F56115710577
:102FA00069F1862F089581FF07C06091200184E0B8
:102FB000689FB0011124EFCF6091200182FD0AC00B
:102FC0008091DE028823A9F020911F0160912001E9
:102FD000821710F088E0ECCF869FC001112433E007
:102FE000880F991F3A95E1F7622F70E00E949F2E9B
:102FF000D2CF68E070E0D5CF8FE7089581E00895E3
:103000008091DF0280FF0CC060911C0170E075951B
:103010006795759567956115710549F1862F089536
:1030200081FF06C060911C0170E075956795F3CF34
:1030300060911C0182FD0BC09091DD029923A1F0EB
:1030400060911B0180911C01961738F0682F70E089
:103050006038710500F38FE70895899FC00111243E
:1030600070E00E949F2EF4CF61E070E0D7CF81E046
:103070000895803F31F40E94C21781958093E30246
:103080000895813F19F40E94C217F8CF823F31F4AE
:103090000E94C21781958093E2020895833F19F43C
:1030A0000E94C217F8CF893F29F40E94001880932C
:1030B000E40208958A3F21F40E9400188195F7CF19
:1030C0008B3F31F40E94001881958093E5020895AA
:1030D0008C3F19F40E940018F8CF9CE0980F9530AF
:1030E00070F4845F990B21E030E001C0220F8A95D3
:1030F000EAF78091E102822B8093E10208958D3FEF
:1031000031F48091DF0281608093DF0208958E3F69
:1031100021F48091DF028260F7CF8F3FB9F7809171
:10312000DF028460F1CF4091E202803F59F4809148
:10313000E30287FF0DC01092E30241110BC0109211
:10314000DE0208C0813F81F48091E30218169CF3EF
:10315000442381F08091E4029091E502892B09F0EB
:103160005AC01092DD020895823F49F447FFF0CF24
:103170001092E2028091E3028111ECCFE0CF833F15
:1031800019F41416ACF3E4CF9091E402893F29F4CA
:103190001916F4F61092E402DBCF8A3F19F497FF78
:1031A000D7CFF8CF9091E5028B3F29F497FFD0CF8E
:1031B0001092E502CDCF8C3F19F41916CCF3C8CF8D
:1031C0009CE0980F953090F4845F990B21E030E0FB
:1031D000B90102C0660F771F8A95E2F7CB0180958F
:1031E0009091E10289238093E102B2CF8D3F31F4C7
:1031F0008091DF028E7F8093DF02AACF8E3F21F481
:103200008091DF028D7FF7CF8F3F09F0A1CF8091B2
:10321000DF028B7FF0CF08950E947C269C01909165
:10322000E2028091E302982B21F03093DC0220939C
:10323000DB029091E4028091E502982B21F030931B
:10324000DA022093D90280EE92E00E943F25089591
:1032500086E0E0EEF2E0DF011D928A95E9F7109238
:10326000DE021092DD021092DF020895FC018281DD
:1032700081110EC0838181110BC08481811108C02E
:1032800091E08581811101C090E0892F81700895BE
:1032900081E0FCCFA6E0B0E0E0E5F9E10C94CF2EB0
:1032A00086E0E0EEF2E0DE01119601900D928A9543
:1032B000E1F71092E2021092E3021092E4021092FF
:1032C000E5028B819C81892B89F08091DB029091B2
:1032D000DC020E949426AC019091DE029923C9F190
:1032E000809121018417150608F440C08D819E81CC
:1032F000892B91F08091D9029091DA020E94942654
:10330000AC019091DD02992309F471C080911D01F7
:103310008417150608F479C0BE016F5F7F4F80EEF9
:1033200092E00E94CE25811105C080EE92E00E94BD
:10333000361981110E940C1986E0FE013196A0EE2B
:10334000B2E001900D928A95E1F72696E3E00C94A5
:10335000EB2E209122018AE0289F9001112424174E
:10336000350720F69F5F9093DE0202C09F3FD1F7A2
:103370001B81112359F00E94C2179FEF11160CF404
:1033800091E0899F802D11248093E2021C811123FA
:1033900059F00E94C2179FEF11160CF491E0899F1B
:1033A000802D11248093E3023091E202332309F44B
:1033B0009DCF2091E302222309F498CF45EB3403FB
:1033C000C0011124992359F09093E20245EB2403A4
:1033D00090011124332339F03093E30287CF81E049
:1033E0008093E202F3CF81E08093E3027FCF2091CC
:1033F0001E018AE0289F900111242417350708F048
:103400008BCF9F5F9093DD0202C09F3FD1F71D815C
:10341000112359F00E9400189FEF11160CF491E04F
:10342000899F802D11248093E4021E81112359F07D
:103430000E9400189FEF11160CF491E0899F802DD7
:1034400011248093E5023091E402332309F464CF20
:103450002091E502222309F45FCF45EB3403C0013C
:103460001124992359F09093E40245EB2403900131
:103470001124332339F03093E5024ECF81E080935D
:10348000E402F3CF81E08093E50246CF83E290E04F
:103490000E94BF31823289F484E290E00E94BF3101
:1034A000843059F485E290E00E94BF3191E083318D
:1034B00009F090E0892F8170089580E0FCCFCF93D0
:1034C000C82F6FEF811162E283E290E00E94CD315C
:1034D0006FEFC11164E084E290E00E94CD316FEFA4
:1034E000C11163E185E290E00E94CD31CF91089552
:1034F000089586E290E00E94BF31682F70E090E06E
:1035000080E008950895CF93C62F0E94821A6C2FF1
:1035100086E290E00E94CD31CF91089580E00E9434
:103520005F1A60E070E0CB010E94831A0E94542071
:103530000E94312181E00E945F1A08950E94781A4A
:103540000E94791A0E94821A0E94461A811102C0B2
:103550000E948E1A0895CF93FB01C281CC2309F1FA
:103560009C0122513F452031310520F582510E94B6
:103570004121C0E08C2FCF91089581E00E94970BEC
:1035800043E062E081E00E946706F3CF81E00E94A1
:10359000A30B43E062E081E00E946706EBCF82E08C
:1035A000F6CF8031FFE59F0789F381319F45B9F35D
:1035B000C1E0E0CF8031EFE59E07F9F281319F4510
:1035C000C9F682E0DBCF2FEFFC0120830895EF9254
:1035D000FF920F931F93CF93DF93EC01062FE881A7
:1035E000E150E33108F05DC0F0E0E15FFD4C0C9488
:1035F000B32E198289E08A83602FCE010E9485272D
:10360000CDB7DEB7E6E00C94E82E8981823069F010
:10361000833071F08130D9F40E9488260E94B92E3F
:103620006A837B838C839D83E7CF0E94791AF6CFD0
:103630007E0182E0E80EF11C10E0812F0E9411143F
:10364000F70181937F011F5F1A30B9F7D5CF602F43
:10365000CE010E94E31AD0CF89818230C1F76A81FE
:103660007B818C819D810E94B92E0E94831AC4CFD8
:103670004B816A8189810E94162098278927982783
:103680009D838C83B9CF2C813D813227232732271C
:103690004B816A8189810E943820AECF0E945420DC
:1036A000ABCF8FEF8883A8CF0E94E2208983A4CF7D
:1036B0000E94E4209827892798279A8389839CCFA2
:1036C0006B8170E089819A81AE014C5F5F4F9827D2
:1036D000892798270E94E7208FCF6B8170E089812E
:1036E0009A81AE014C5F5F4F9827892798270E94E7
:1036F0000C2182CF0E9431217FCF0E940420D6CF9F
:103700006B8170E089819A81AE014C5F5F4F982791
:10371000892798270E948C206FCF6B8170E0898168
:103720009A81AE014C5F5F4F9827892798270E94A6
:10373000B02062CF0895FC01680F791F8FEF91E3ED
:10374000E617F70709F408952191822728E030E071
:1037500087FF06C0880F892721503109C9F7F0CFAC
:10376000880FFACFB0E0A0E0E8EBFBE10C94CA2EA2
:103770006C017B0164E670E088E70E947122EC0135
:1037800097FD12C010E000E0F601E00FF11F8491F8
:1037900064E670E00E94DF22EC01892B29F40F5FC0
:1037A0001F4F0E151F0581F70E945623CE01CDB77E
:1037B000DEB7E8E00C94E62E0895E9E4F3E080E05B
:1037C00092E0DF019C011D9221503040E1F7F0931F
:1037D0005005E0934F058FEF9FEF90931203809376
:1037E000110308950E94DC1B0E945E0580930D0367
:1037F00080FD0FC080E880930C030E946B226DE077
:1038000070E080EC93E00E94B21B892B21F080E0F5
:10381000089580E2F0CF80910D0363E070E081FDB8
:1038200026C08DEB93E00E94B21B892B81F76DE0DF
:1038300070E08DEA93E00E94B21B892B41F70E9451
:103840008826605A75418F4F9F4F60934B05709348
:103850004C0580934D0590934E050E94DD1B81E041
:103860008093100380930F0310920E0308958AEB48
:1038700093E0D9CF20910C0336E0839FC00111243F
:10388000629F800D911D1124811522E0920714F092
:1038900090E080E0875B9C4F9093500580934F05AC
:1038A000089520914F0530915005235433404091A5
:1038B0000C03642F70E0C9010E948B2E481B463018
:1038C00010F4240F311D211582E0380710F030E08C
:1038D00020E0275B3C4F3093500520934F0508951F
:1038E0001F93CF93DF93162F8A3039F481E00E9423
:1038F000E91CDF91CF911F9108958D3011F480E084
:10390000F6CFC0914F05D091500596E0FE01A6EE8E
:10391000B2E001900D929A95E1F7803EB8F086E012
:10392000FE0111928A95E9F711111CC0C0914F0553
:10393000D091500546E050E0BE0186EE92E00E9434
:10394000002F892BE9F40E94511CD3CFF6E08F9F02
:10395000B001112463537C4F46E050E0CE010E9439
:10396000F72EE2CFE0914F05F09150059F012A5FBD
:103970003F4F2E173F07D1F2808180958193F9CF79
:10398000C954D340CE0125E0969587952A95E1F755
:1039900021E030E0A90102C0440F551F8A95E2F7EB
:1039A000CA014091110350911203842B952B259647
:1039B00045E0D695C7954A95E1F702C0220F331F1F
:1039C000CA95E2F7822B932B9093120380931103F5
:1039D000BACFCF93382FE0914F05F0915005E954BD
:1039E000F34020910C03622F70E0CF010E948B2ED8
:1039F000281B822F332369F066E00E947F2EC82F98
:103A0000C15010F4CF91089560E080E20E94701CD4
:103A1000F7CF9F01280F311D2115324018F080E0AB
:103A2000F0E0E0E08E0F9F2F911D875B9C4F9093FD
:103A3000500580934F05E6CFFF920F931F93CF93CE
:103A4000DF93EC01F62EFC0101900020E9F78F01D5
:103A500001501109C017D10728F0CDB7DEB7E5E056
:103A60000C94E92E6F2D89910E94701CF3CF0E9457
:103A70001C1D81E00E94E91C08951F93CF93DF93E2
:103A8000EC01162FFE018491811104C0DF91CF91CA
:103A90001F910895612F0E94701C2196F3CF0E9400
:103AA0003D1D81E00E94E91C089580911003811161
:103AB00003C080910F0308950E948826605A7541C3
:103AC0008F4F9F4F60934B0570934C0580934D052E
:103AD00090934E0580910F038111EBCF62E070E06F
:103AE0008BEA93E00E94B21B892B19F781E0809347
:103AF0000F03DFCF2F923F925F926F927F928F9250
:103B00009F92AF92BF92CF92DF92EF92FF920F936C
:103B10001F93CF93DF9380911003882369F0209146
:103B20001103309112032115310531F080910E03FC
:103B300061E070E0882399F0DF91CF911F910F91A0
:103B4000FF90EF90DF90CF90BF90AF909F908F90BD
:103B50007F906F905F903F902F9008958F5F082F18
:103B600010E01B01082E02C0220C331C0A94E2F75D
:103B7000A90142215321452B89F390910D0390FD1A
:103B800044C08295880F80768093250198013695F0
:103B900027953695279520932801815E80932601ED
:103BA0001092290124E630E047E050E063E271E042
:103BB00088E70E940E23892B09F0BECFA80125E0DB
:103BC000440F551F2A95E1F780910D0380FD2BC00E
:103BD000475B5C4F04E610E020E230E060E488E7F9
:103BE0000E942F23892B09F0A7CF0E94551DE101C8
:103BF000C095D0958091110390911203C823D923C9
:103C0000D0931203C093110397CF880F880F880FAA
:103C10008093250110922801895F8093260183E01B
:103C200080932901BFCFECEEF2E080E2DF011D922C
:103C30008A95E9F7A7EFB1E003EF11E08BEFC82E0B
:103C400081E0D82E97E0592E772473948D91E80166
:103C500029918E01240F352F311D275B3C4FE82F12
:103C6000F0E0E451FD4F90E080E0652C681A872C6D
:103C7000082E01C0880C0A94EAF77901A12CE7010B
:103C8000B9907E01B820662D6A196770962E062EAF
:103C9000000C770BDB2D01C0DD0F9A94EAF77195CC
:103CA000619571096770772701C0B6946A95EAF744
:103CB000BD2A6081962E9B289082A39468E0A6126C
:103CC000DECF019631968830910579F6CA16DB066B
:103CD00009F0BCCF04E610E020E230E04CEE52E008
:103CE0007DCF80910F0390911003911103C091E05B
:103CF00089270895882369F062E070E089EA93E0FB
:103D00000E94B21B892B19F080910F030895109225
:103D10000F0380910F03EBCF0E94B80508950F9316
:103D20001F9380911003882379F180914905909128
:103D30004A050E949426C29760F00E947C269093C8
:103D40004A058093490560E080E00E943A1C0E9489
:103D50008C1E0E947A1D80910F038823A9F00E9477
:103D6000882600914B0510914C0520914D0530910E
:103D70004E05601B710B820B930B6F3F7F4F8F4F74
:103D80009F4710F40E94711E1F910F910895CF93C9
:103D9000DF93EC01FB018281882309F433C1C33036
:103DA000FDE5DF07C0F5CA3F9CE5D90730F49E0169
:103DB00022503C4524313105B0F50E9457109093B4
:103DC000320380933103C1318CE5D80709F4EEC08A
:103DD00008F069C0C930ECE5DE0709F4D5C0C8F5C4
:103DE000C5308CE5D80709F4C7C000F5C330ECE551
:103DF000DE0709F4B9C008F0BBC0C230DC4509F4E5
:103E0000ADC080913103909132030E9465100E94F1
:103E1000230B80E008C0C136EDE5DE0771F2C53A3C
:103E2000FDE5DF0751F2DF91CF91089580913103D5
:103E30008062C7309CE5D90709F493C080913103B3
:103E40008061C830DC4508F48CC080913103806407
:103E500088C0809131038B7FCD30FCE5DF0709F40A
:103E600080C098F4809131038E7FCB309CE5D907D8
:103E700009F477C0809131038C60CC30DC4508F4C4
:103E800070C0809131038D7F6CC0809131038F7E33
:103E9000CF30FCE5DF0709F464C008F47BC08091F3
:103EA00031038F7D5EC0CD3F9CE5D90709F47AC010
:103EB00050F5C531FCE5DF0709F486C098F4809120
:103EC0003103837FC3319CE5D90709F44AC008F464
:103ED00071C00E94230B90913103892F97FB87F9C2
:103EE00080583FC0CB3FFCE5DF0709F449C008F02C
:103EF00055C0809132038160CA3FDC4509F081CF13
:103F0000809332037ECFC130EDE5DE0709F468C04F
:103F1000A8F4CF3F8CE5D80709F452C08091320352
:103F20008360C115DD4560F380913203982F909531
:103F300091708E7F892B90FB81F9E2CFC136EDE540
:103F4000DE0709F451C0C53AFDE5DF0709F453C0A7
:103F5000C230DD4509F055CF80E043C08091310388
:103F60008160809331034DCF809131038260F9CF1E
:103F7000809131038460F5CF809131038860F1CF67
:103F8000809132038260BCCF0E94230B8091310369
:103F90008068E7CF80913103877FE3CF8091320340
:103FA0008E7FAECF809132038D7FAACF8091310377
:103FB0008F7BD7CF0E94230B809131038F77D1CF96
:103FC000809132038C7F9CCF8091310382FB9927B3
:103FD00090F921E0922790FB82F990FB83F9C1CF01
:103FE00081E00E94F1100DCF90913103892F8F7ED7
:103FF00094FF8061B6CF90913103892F8E7F90FF1F
:104000008160AFCF81E00FCF84E0089550E0440F8E
:10401000551F9CE0699F400D511D112498E7899F11
:10402000400D511D1124CA01879608950F931F93C7
:10403000CF93DF938430C8F46A30B8F44630A8F4E4
:104040000E9406208C010E94BF31C82FD0E0DC2FD7
:10405000CC27C80101960E94BF319E01282BC901BF
:10406000DF91CF911F910F91089590E080E0F8CFFC
:104070000F931F93CF93DF93122F032F843078F485
:104080006A3068F4463058F40E940620EC01602F34
:104090000E94CD31612FCE0101960E94CD31DF917A
:1040A000CF911F910F910895AF92BF92CF92DF925F
:1040B000EF92FF921F93CF93DF9389E1C82E81E0A7
:1040C000D82ED0E07601C0E014C0F50125913491DE
:1040D000412F6C2F8D2F0E94382082E0A80EB11C3A
:1040E0001F5F163091F78CE0E80EF11CCF5FCA30ED
:1040F00019F0570110E0E9CFDF5F88E7C80ED11C47
:10410000D43001F7DF91CF911F91FF90EF90DF90B6
:10411000CF90BF90AF900895EF92FF920F931F93AF
:10412000CF93DF93EC018A017C01E60EF71ECE01EE
:104130008796CE15DF0529F4CDB7DEB7E6E00C94FF
:10414000E82EC03E21E0D20740F40E94BF31F801C2
:1041500080830F5F1F4F2196EACFF8011082F9CFBD
:10416000B0E0A0E0E6EBF0E20C94CA2E7C016A011C
:104170008C01060F171FEC01CE018796C017D107DF
:1041800029F4CDB7DEB7E8E00C94E62EC03E21E07E
:10419000D20740F4FE01EE19FF09EC0DFD1D608110
:1041A0000E94CD312196E8CF462F843040F47A30FA
:1041B00030F4663020F4672F0E941620089590E0B6
:1041C00080E0089580E1089589EF91E00895EF92ED
:1041D000FF920F931F93CF93DF93EC018A017C0131
:1041E000E60EF71ECE01895F9D4FCE15DF0529F43F
:1041F000CDB7DEB7E6E00C94E82EC93F21E0D20748
:1042000040F40E94BF31F80180830F5F1F4F219659
:10421000E9CFF8011082F9CFB0E0A0E0E2E1F1E2ED
:104220000C94CA2E7C016A018C01060F171FEC0149
:10423000CE01895F9D4FC017D10729F4CDB7DEB7F6
:10424000E8E00C94E62EC93F21E0D20740F4FE01DD
:10425000EE19FF09EC0DFD1D60810E94CD31219604
:10426000E7CFCF93DF93C7E0D2E060E0CE010E94BA
:10427000CD312196C11584E0D807B9F7DF91CF91F0
:104280000895A4E0B0E0E7E4F1E20C94CB2EF82E20
:104290008FE08F1548F18FEF93E00E94BF318111BD
:1042A00023C007E012E0F11023C019821A821B829A
:1042B0001C82DD24D39478018FEFE81AF80AC80134
:1042C0000E94BF3189831A82882371F09FEF980F73
:1042D0009330D8F48A83D9820E5F1F4FC7010E94A2
:1042E000BF318B83811112C02496E7E00C94E72E36
:1042F000011584E01807C1F3C8010E94BF31811184
:1043000001C0FA940F5F1F4FCECF8701CE010196F7
:104310000E94B907D0CFCF93DF93EB0186319C4544
:1043200011F50E94530F9A81992399F08A7A91E0AE
:1043300009F490E090931303811109C089E20E946F
:104340002B0F0E94940F80E0DF91CF91089585E3B9
:10435000F6CF80911303811104C089E20E94330FCC
:10436000F0CF85E3FBCF81E0EFCF0F931F93CF9387
:10437000DF93C42FD22FFC0182818823C9F04093A0
:1043800016030E947C26909315038093140380E209
:104390008C0F883040F4C77081E001C0880FCA9547
:1043A000EAF70E94CF08DF91CF911F910F910895F6
:1043B00010911603141332C08091140390911503C9
:1043C0000E9494268436910548F5C0E2CD0F1D1752
:1043D000B9F080E2810F883040F4177081E001C0AD
:1043E000880F1A95EAF70E94D608C83048F481E091
:1043F0009D2F977001C0880F9A95EAF70E94CF0809
:10440000802F0E94C608C83070F6D77081E001C0C6
:10441000880FDA95EAF70E94D608C5CF80E28C0FA4
:10442000883008F6C77081E001C0880FCA95EAF7A6
:10443000F2CF0F939C01CB01233F4CE5340759F198
:10444000A8F4283DFCE53F0701F1293D4CE5340780
:10445000D1F1273D3C4591F406E221EE41EE67EDB6
:104460007CE50E94B52180E00F910895253FFCE591
:104470003F07E9F0B0F0263F3C45F9F0FC018281AE
:10448000882339F110921603EFCF07E225EE45EEAF
:1044900068ED7CE5E6CF06E221EE40EE63EF7CE5D9
:1044A000E0CF07E225EE44EE64EF7CE5DACF06E2EA
:1044B00021EE42EE65EF7CE5D4CF07E225EE46EE35
:1044C00066EF7CE5CECF08E221E045EE69ED7CE5C4
:1044D000C8CF81E0C9CF1092B9008CE08093B800BA
:1044E0000895B0E0A0E0E7E7F2E20C94C72EB82E02
:1044F000EB010E947C266C01EE24E394F12CC43184
:10450000D10560F025E0E22EF12CCF3FDC0731F041
:10451000CE0164E170E00E948B2E7B0184EAA82E1C
:1045200094E8992E1092BC00A092BC000E947C26B8
:104530008C018091BC0087FF0DC08091B900887FFD
:10454000883001F18091B900887F8031D9F00FEF78
:104550001FEF09C00E947C26801B910B8E159F05C2
:1045600040F30EEF1FEFCF3FDC07E1F2C6010E94E0
:1045700094268C179D07B0F2C801CDB7DEB7EBE0EB
:104580000C94E32EB092BB009092BC000E947C265B
:104590008C018091BC0087FF0AC08091B900887FA0
:1045A000883111F0803499F610E000E0E5CF0E94E8
:1045B0007C26801B910B8E159F0558F3D2CF0F934D
:1045C0001F93CF93DF93EB018093BB0084E880932C
:1045D000BC000E947C268C018091BC0087FF11C02A
:1045E0002091B900287F81E090E0283211F490E01A
:1045F00080E0919581959109DF91CF911F910F9165
:104600000895CF3FDC0741F30E947C26801B910B6D
:104610008C179D0708F38EEF9FEFEECFB0E0A0E080
:10462000E4E1F3E20C94CA2E6B018A017901B9012D
:104630000E947122E6010C0D1D1DC017D10711F05B
:1046400097FF08C024E92093BC00CDB7DEB7E8E0AF
:104650000C94E62EB70189910E94DF22EECFB0E0E4
:10466000A0E0E5E3F3E20C94CA2EC62F6A017901BB
:10467000B8010E94712297FD0CC0B8018C2F0E94D6
:10468000DF22E601EC0CFD1CCE15DF0511F097FFD3
:1046900008C024E92093BC00CDB7DEB7E8E00C9455
:1046A000E62EB80189910E94DF22EECF84E9809343
:1046B000BC0008958EE14A9B02C08150E1F74A9BFD
:1046C000FECF08955A9880E28A95F1F75A9A089594
:1046D000FC013BE03A95F1F798E020E080E031E022
:1046E00040E14A95F1F7880F4A9B02C08160232779
:1046F00042E04A95F1F7000040E14A95F1F7915008
:1047000079F790E19A95F1F799B132E03A95F1F79E
:10471000000040E14A95F1F792FB992790F9922722
:104720002081920F90830895A1E0B0E0EAE9F3E2DE
:104730000C94CC2E19828C017C01E60EF11C0E1516
:104740001F0541F481E09981911180E02196E6E016
:104750000C94E82E0E945A23CE0101960E946823F1
:10476000F80181938F01EBCF529A5A9A089552988B
:104770005A9AEA9AE9E6F0E080818F7C8083089576
:104780006150770B91E001C0990F6A95EAF720E03C
:1047900031E0911108C0222391F05A9A80E28A9563
:1047A000F1F75A980895492F482339F05A9A232748
:1047B00040E24A95F1F79695ECCF5A98F9CF5A987E
:1047C000EDCFFF920F931F93CF93DF93EC018C01FA
:1047D000060F111DC017D10729F4CDB7DEB7E5E0EC
:1047E0000C94E92EF9900E94622368E08F2D0E94BC
:1047F000C023F0CF1F920F920FB60F9211240F9388
:104800001F932F933F934F935F936F937F938F9358
:104810009F93AF93BF93EF93FF93CF93DF930F9249
:10482000CDB7DEB719820E945A23CE0101960E94AD
:104830006823082F069506950695282F2295257042
:10484000902F9570290F922F937026952695920F91
:10485000982797708981982B09F05CC0043008F084
:1048600059C080E18A95F1F75A9A529A82E08A9566
:10487000F1F700C05A9888E0089F80011124D80100
:10488000AD5FBE4F1696ED91FC9117973097A9F04A
:104890006091F1017091F20114962D913C91159760
:1048A000260F371F11968D919C911297680F791FD3
:1048B00013964C9113978C910995F801ED5FFE4F7B
:1048C0006381662351F02091F1013091F2018481DE
:1048D0009581820F931F0E94E1230E94622380E151
:1048E0008A95F1F75A9852985A9A80E18A95F1F789
:1048F000F801ED5FFE4F6081662351F02091F101D8
:104900003091F20181819281820F931F0E94942342
:104910000E945A230F90DF91CF91FF91EF91BF91A9
:10492000AF919F918F917F916F915F914F913F9147
:104930002F911F910F910F900FBE0F901F90189500
:104940000F931F93CF93DF93EC0104970CF04CC0AF
:10495000F894529A5A9885E08A95F1F700009C2FB6
:10496000969595708C2F8570980F892F83709695EA
:10497000969523E0CC0FDD1F2A95E1F7980F8E0165
:10498000092B0E94622300C068E0802F0E94C02390
:1049900080E18A95F1F752985A9A4A9B1EC087E0A7
:1049A00090E04A991CC0FE01ED5FFE4F63816623D3
:1049B000F9F02091F1013091F20184819581820F0B
:1049C000931F0E949423811113C0529A5A9A78948B
:1049D000DF91CF911F910F91089500C0DECF019715
:1049E00029F4529A5A9A789480E0F2CF00C0D9CF35
:1049F0000E945A2380E28A95F1F75A98529A80E1F0
:104A00008A95F1F7CD5FDE4F6881662351F02091E2
:104A1000F1013091F20189819A81820F931F0E94E6
:104A2000E1230E946223789481E0D2CF90930B021D
:104A300080930A02089590931D0380931C030895A8
:104A40000E94B115811103C0809117030895E09170
:104A50001C03F0911D03309729F00190F081E02DA7
:104A60000995089580E00895E0911C03F0911D03DD
:104A7000309721F00280F381E02D09950895E091AF
:104A80001C03F0911D03309739F022E0DC012C93D8
:104A90000480F581E02D0995089520911A03309145
:104AA0001B032817390771F090931B0380931A0397
:104AB000E0911C03F0911D03309721F00680F781EF
:104AC000E02D0995089520911803309119032817B6
:104AD000390771F09093190380931803E0911C0338
:104AE000F0911D03309721F00084F185E02D0995A8
:104AF00008959C012E5F3F4FAC01485F5F4F80E0FF
:104B00002417350709F40895F90191919F0199231C
:104B1000B9F38F5FF5CF662349F0FC013296089612
:104B20002191261729F0E817F907D1F780E00895B9
:104B300081E008959C01FC0132969FEF80E0419155
:104B4000461751F09F3F19F4411101C0982F8F5F14
:104B50008630A9F79F3F09F40895290F311D97FD6D
:104B60003A95F90162830895FC01329608962191E5
:104B7000261303C0DF0111971C92E817F907B9F754
:104B800008950E949A2508950E94B42508950296DA
:104B900026E0FC0111922A95E9F7089546E050E0DD
:104BA0000E94002F21E0892B09F420E0822F089534
:104BB00008950E94D8250895811106C081E0809350
:104BC0001E030E94D925089582E0F9CF83E08093E7
:104BD0001E030E94D92508950E94DC25089581E0D6
:104BE00080931E030E94D92508950E94EF25089501
:104BF00008950E94FA050895089508950E94F825E1
:104C00000895CF930E94FC250E9438150E94FD252F
:104C1000C0E08C2F0E941114811105C0CF5FCA30F3
:104C2000C1F7CF91089581E0FCCF85B7806885BF3B
:104C300085B7806885BF08951F921FB61F92112403
:104C40008F939F93AF93BF9380911F03811113C0E4
:104C50008091510590915205A0915305B091540552
:104C60004196A11DB11D8093510590935205A093CB
:104C70005305B0935405BF91AF919F918F911F90B1
:104C80001FBE1F90189580915905843031F10E9404
:104C9000EA0610921F0388E190E020E40FB6F89432
:104CA000A895809360000FBE2093600083B7817F3A
:104CB000846083BF83B7816083BF7894889583B70E
:104CC0008E7F83BF0FB6F894A895809160008861AD
:104CD00080936000109260000FBE08950E94230B25
:104CE0000E94F106089582E084BD93E095BD9AEF9D
:104CF00097BD80936E0008952FB7F8948091510569
:104D000090915205A0915305B09154052FBF08957D
:104D10002FB7F89460915105709152058091530519
:104D2000909154052FBF08959C014FB7F89480913E
:104D3000510590915205A0915305B09154054FBF74
:104D4000821B930B0895CF92DF92EF92FF922FB7C1
:104D5000F894C0905105D0905205E0905305F09022
:104D600054052FBFA7019601261B370B480B590B83
:104D7000CA01B901FF90EF90DF90CF900895789429
:104D80001F921FB61F9211248F939F93AF93BF93CF
:104D90008091510590915205A0915305B091540511
:104DA0000196A11DB11D8093510590935205A093CA
:104DB0005305B0935405BF91AF919F918F911F9070
:104DC0001FBE1F90189587E797E79093010880937F
:104DD000000888E19AE00FB6F894A89580936000E7
:104DE0000FBE90936000FFCF88E19AE00FB6F89471
:104DF000A895809360000FBE90936000FFCF8091D4
:104E00002B03089508959C0184E08093E9009FEFAF
:104E10008091E800915085FD06C085ED8A95F1F7F7
:104E200000009111F5CF8091E80085FF0CC050E0A3
:104E300040E066E070E0C9010E9497298091E80097
:104E40008E778093E8000895CF93DF93EC0181E0A3
:104E50008093E9008FEF9091E800815095FD06C0A6
:104E600095ED9A95F1F700008111F5CF8091E8005A
:104E700085FF14C050E040E068E070E0CE010E9481
:104E800097298091E8008E778093E80088E0FE0102
:104E9000A3E2B3E001900D928A95E1F7DF91CF9103
:104EA00008958093200370932203609321038091DF
:104EB00059058430F9F48093E9008FEF9091E80070
:104EC000815095FD06C095ED9A95F1F7000081118E
:104ED000F5CF8091E80085FF0DC050E040E063E031
:104EE00070E080E293E00E9497298091E8008E773D
:104EF0008093E8000895BC0184E00E945127089542
:104F0000BC0183E00E9451270895CF93FC016032D9
:104F100021F580915905843001F5C091E900CF70E9
:104F20002091EC00922F917020FD90E8C92B82E037
:104F30008093E9008091E80080FF0CC050E040E0E1
:104F400060E270E0CF010E9497298091E8008E779F
:104F50008093E800CF70C093E900CF9108958091CD
:104F60005805811109C00E94762B0E94D32B809195
:104F7000E20084608093E20008951092580508953D
:104F80000E94EF2508956091550581E0611101C0EF
:104F900080E00E94E62508959091590581E09430C3
:104FA00009F080E0609155050E94EC25089542E0EB
:104FB00061EC81E00E94F22A42E261EC84E00E940E
:104FC000F22A42E261EC82E00E94F22A42E260ECC4
:104FD00083E00E94F22A9091590581E0943009F013
:104FE00080E0609155050E94DC25089580915B0565
:104FF000833009F463C030F48130E1F1823009F488
:10500000A0C008958A3009F48CC08B3009F471C0B7
:10501000893009F052C080915A05813209F04DC0A3
:1050200080915E0590915F05009719F0029709F055
:1050300044C08091E800877F8093E8008091E80079
:1050400082FF37C09091F3008091F200029731F413
:105050008091F100813011F0863021F48091F100CF
:1050600080932B038091E8008B778093E8000E9467
:10507000262B23C080915A05813AF9F48091E800EB
:10508000877F8093E80080915E0590915F05892B72
:1050900061F468E083E293E070E00E94352A809139
:1050A000E8008B778093E800089560E090E080E06E
:1050B000F3CF809159058111C1CF089580915A0590
:1050C000813AD9F780915E0590915F05892BA9F708
:1050D0008091E800877F8093E8008091E80080FF5E
:1050E000FCCF809136018093F1008091E8008E77AB
:1050F000BCCF80915A05813201F780915E05909175
:105100005F05892BD1F68091E800877F8093E800C6
:105110000E94262B80915C05809336010E94230B10
:10512000089580915A05813241F68091E800877F89
:105130008093E8000E94262B80915D0580932C03CC
:10514000089580915A05813A09F0B7CF8091E8001F
:10515000877F8093E8008091E80080FFFCCF8091FA
:105160002C03C1CF84B7877F84BF0FB6F894A8956E
:1051700080916000886180936000109260000FBE93
:1051800080E890E00FB6F8948093610090936100FE
:105190000FBE0E94F52508950E94762B0E94D32B06
:1051A000E2EEF0E080818460808378940E94522E49
:1051B00008958AE291E00E941B2508958091590587
:1051C000853031F480915905853019F00E946E26A2
:1051D00008950E94432680915705882399F30E94E1
:1051E0000126882379F30E9481290E94230BEACFAC
:1051F000A0E2B0E0EEEFF8E20C94D02E80915905D9
:10520000843009F583E08093E9008091E80082FF13
:105210001AC08091E80090E085FF09C050E040E0AE
:1052200060E270E0CE0101960E94E62991E0809153
:10523000E8008B778093E800992329F060E2CE01A3
:1052400001960E94E71AA096E2E00C94EC2E0E94D0
:105250002A290895292F33272330310521F168F4B5
:105260002130310509F443C02230310509F444C02E
:1052700090E080E030E020E026C02132310551F19D
:1052800022323105A9F76330710590F7FB01EE0F6B
:10529000FF1FE250FE4F2081318165507E4FFB01A0
:1052A000808190E010C099278130910581F00097AE
:1052B00029F00297E9F6EDE0F9E002C0EFE2F9E04B
:1052C000849190E09F01FA01318320830895EDE1FC
:1052D000F9E0F6CF6330710558F6660F771FFB01D2
:1052E000EC5FFD4F2081318189E090E0ECCF82E1DD
:1052F00090E02EE839E0E7CF8BE590E023E339E05A
:10530000E2CF80E189BD82E189BD09B400FEFDCF15
:105310008091D8008F7D8093D8008091E0008260DA
:105320008093E0008091E00081FDFCCF0895AF9272
:10533000BF92CF92DF92FF920F931F93CF93DF9391
:105340006C01EB018A010E94452BF82E811123C0CC
:105350000115110539F0F80180819181C81BD90B25
:10536000C80ED91EB12CA12C2097A9F08091E8007D
:1053700085FD22C08091E8008E778093E8000115BA
:105380001105A1F0F80180819181A80EB91EB182AA
:10539000A08285E0F82E8F2DDF91CF911F910F9184
:1053A000FF90DF90CF90BF90AF9008950E94452B63
:1053B0008823D1F2F82EEFCFF60181916F0180930F
:1053C000F1002197FFEFAF1ABF0ACECFAF92BF9285
:1053D000CF92DF92FF920F931F93CF93DF936C01D5
:1053E000EB018A010E94452BF82E811123C0011583
:1053F000110539F0F80180819181C81BD90BC80EC5
:10540000D91EB12CA12C2097A9F08091E80085FD30
:1054100022C08091E8008B778093E8000115110588
:10542000A1F0F80180819181A80EB91EB182A082FD
:1054300085E0F82E8F2DDF91CF911F910F91FF9076
:10544000DF90CF90BF90AF9008950E94452B8823A6
:10545000D1F2F82EEFCF8091F100F60181936F0128
:105460002197FFEFAF1ABF0ACECFFC0180916005F4
:105470009091610586179707A0F06115710529F4D1
:105480009091E8009E779093E80090E06115710597
:1054900051F4911108C08091E80082FF34C080E08F
:1054A0000895BC01F2CF809159058823C1F1853060
:1054B000C1F18091E80083FD30C08091E80082FD59
:1054C000EACF8091E80080FFE1CF8091F300209146
:1054D000F200382F6115710519F02830310558F0A8
:1054E00091E02830310509F090E02091E8002E7716
:1054F0002093E800CBCF81918093F1006150710936
:105500002F5F3F4FE7CF80915905882341F08530C9
:1055100041F08091E80083FFBECF81E0089582E0F2
:10552000089583E00895FC018091600590916105E4
:1055300086179707A0F06115710529F48091E8009E
:105540008E778093E80090E06115710551F4911118
:1055500008C08091E80082FF35C080E00895BC015A
:10556000F2CF809159058823C9F18530C9F1809126
:10557000E80083FD31C08091E80082FDEACF809190
:10558000E80080FFE1CF8091F3002091F200382FF6
:105590006115710519F02830310558F091E0283077
:1055A000310509F090E08091E8008E778093E80063
:1055B000CBCF84918093F1003196615071092F5FB8
:1055C0003F4FE6CF80915905882341F0853041F067
:1055D0008091E80083FFBDCF81E0089582E00895C7
:1055E00083E00895982F973028F08F708093E9001A
:1055F00081E008959093E900242F762F50E09817CA
:1056000031F07091EC002091ED005091F00021FDFF
:1056100002C09F5FE8CF3091EB003E7F3093EB00FC
:105620003091ED003D7F3093ED003091EB00316023
:105630003093EB007093EC002093ED005093F0005A
:105640002091EE0027FDE5CF80E0089580915A0576
:1056500087FF13C08091E80082FF06C08091E800B8
:105660008B778093E80004C0809159058111F2CFB7
:105670000895809159058823D9F38091E80080FF2F
:10568000F8CF8091E8008E77ECCF2091E400309144
:10569000E50095E6A9012091EC00822F817020FFA2
:1056A00006C08091E80080FF06C080E00895209148
:1056B000E80022FD1AC080915905882389F08530C1
:1056C00089F08091EB0085FD0FC02091E4003091BE
:1056D000E50042175307F9F29150E1F684E008958E
:1056E00082E0089583E0089581E008950E94E52B0B
:1056F0000E94ED2BE0EEF0E0808181608083E8ED98
:10570000F0E080818F77808319BCA7EDB0E08C91A9
:105710008E7F8C9380818F7E8083109258050895B0
:105720000F931F93CF93DF930E94E52B0E94ED2BE5
:10573000C8EDD0E088818F778883888180688883EE
:1057400088818F7D888319BC109259051092550568
:10575000109257051092560500EE10E0F801808176
:105760008B7F808388818160888342E060E080E075
:105770000E94F22AE1EEF0E080818E7F8083E2EEEB
:10578000F0E0808181608083808188608083F8017F
:1057900080818E7F8083888180618883DF91CF9133
:1057A0001F910F910895E8EDF0E080818F7E808356
:1057B000E7EDF0E080818160808384E082BF81E05A
:1057C000809358050E94902B0895E8EDF0E08081C9
:1057D0008E7F80831092E20008951092DA0010927A
:1057E000E10008951F920F920FB60F9211242F938C
:1057F0003F934F935F936F937F938F939F93AF9359
:10580000BF93EF93FF938091E10082FF0BC08091E3
:10581000E20082FF07C08091E1008B7F8093E1006E
:105820000E94512E8091DA0080FF19C08091D8002B
:1058300080FF15C08091DA008E7F8093DA0080911E
:10584000D90080FF96C080E189BD82E189BD09B49D
:1058500000FEFDCF81E0809359050E94AF27809123
:10586000E10080FF19C08091E20080FF15C08091A7
:10587000E2008E7F8093E2008091E200806180935D
:10588000E2008091D80080628093D80019BC85E046
:10589000809359050E94C3278091E10084FF2BC0AB
:1058A0008091E20084FF27C080E189BD82E189BD4B
:1058B00089B5982F917080FFFBCF8091D8008F7DA4
:1058C0008093D8008091E1008F7E8093E1008091E9
:1058D000E2008F7E8093E2008091E20081608093FD
:1058E000E20080915505882309F449C084E0809343
:1058F00059050E94CC278091E10083FF29C0809147
:10590000E20083FF25C08091E100877F8093E10062
:1059100082E080935905109255058091E1008E7FB9
:105920008093E1008091E2008E7F8093E20080917D
:10593000E20080618093E20042E060E080E00E944B
:10594000F22A8091F00088608093F0000E94C027C6
:10595000FF91EF91BF91AF919F918F917F916F9147
:105960005F914F913F912F910F900FBE0F901F901D
:10597000189519BC109259050E94BD2770CF8091CF
:10598000E30087FD93E090935905B3CF1F920F92E8
:105990000FB60F9211242F933F934F935F936F9302
:1059A0007F938F939F93AF93BF93CF93DF93EF93A7
:1059B000FF93D091E900DF708091EC00C82FC17097
:1059C00080FDC0E81092E9008091F000877F80930D
:1059D000F00078940E940A2D1092E9008091F00066
:1059E00088608093F000CD2BCF70C093E900FF91C9
:1059F000EF91DF91CF91BF91AF919F918F917F9167
:105A00006F915F914F913F912F910F900FBE0F902B
:105A10001F901895AAE2B0E0E0E1FDE20C94CF2ED1
:105A20008AE595E02091F100FC012193CF01F5E09A
:105A300082369F07B9F70E94F6278091E80083FF1E
:105A40001EC180915A0590915B059A3008F017C1EC
:105A5000E92FF0E0EE5DFD4C0C94B32E803899F008
:105A6000823809F00CC180915E058F70873008F094
:105A700006C18093E9008091EB0085FB882780F9BF
:105A80001092E90006C0809156059091570591113A
:105A900082609091E800977F9093E8008093F100F6
:105AA0001092F1008091E8008E77E5C0882309F418
:105AB000D3C0823009F0E3C080915C058111D6C06B
:105AC00080915E058F702FEF280F263008F0D7C029
:105AD0008093E9002091EB0020FFC8C0933031F49F
