:100000000C94AE010C94A4160C94CB010C94CB016F
:100010000C94CB010C94CB010C94CB010C94CB0130
:100020000C94CB010C94CB010C94B41D0C94881E41
:100030000C94AF180C94CB010C94CB010C94CB0115
:100040000C94CB010C94CB010C94CB010C94CB0100
:100050000C94CB010C9452190C94CB010C94CB0151
:100060000C94CB010C94CB010C94CB010C94CB01E0
:100070000C94CB010C94CB010C94CB010C94CB01D0
:100080000C94CB010C94CB010C94CB010C94CB01C0
:100090000C94CB010C94CB010C94CB010C94CB01B0
:1000A0000C94CB010C94CB010C94CB0129001400CF
:1000B0001A000800150017002D002B000400160080
:1000C000070009000A002F00E1001D001B000600C8
:1000D000190005002C00E000E300E2003504B35DE8
:1000E0002C004C003100130012000C0018001C0002
:1000F0002E00340033000F000E000D000B00300006
:10010000E5003800370036001000110028004F00CD
:10011000520051005000B45D28002A0035001E0234
:100120001F022002210222022D0235021E001F00A2
:100130002000210022002F02E100230024002500DE
:10014000260027002C00E000E300E2003504B35D48
:100150002C004C0031022702260225022402230231
:100160002E02340233024F00520051005000300280
:10017000E5003802370236021000110028004D0059
:100180004B004E004A00B45D28002A0035001E02D4
:100190001F022002210222022D0235023A003B00FA
:1001A0003C003D003E002F02E1003F0040004100C6
:1001B000420043002C00E000440045003504B35DDC
:1001C0002C004C00310227022602250224022302C1
:1001D0002E02340233024F00520051005000300210
:1001E000E5003802370236021000110028004D00E9
:1001F0004B004E004A00B45D28002A000100005C5C
:10020000C35CC45CC75CC65C010001000100C05C4B
:10021000C25CBF5CBE5C0100010001000100010086
:1002200001000100010001000100010001000100C6
:100230000100010001000100CA5CCB5CC85CC95C24
:1002400001000100010001000100010001000100A6
:100250000100010001000100010001000100010096
:100260000100010001000100010001001C03450024
:10027000720067006F004400610073006800200096
:100280004D0069006E00690000000C034F006D0016
:100290006B006200640000000403090409023B00D3
:1002A000020100A0FA090400000103010100092174
:1002B0001101000122400007058103080001090423
:1002C0000100010300000009211101000122320098
:1002D000070582032000011201000200000008ED62
:1002E000FE606000010102000105010980A1018595
:1002F0000319012AB700150126B700950175108171
:1003000000C0050C0901A101850419012AA00215EC
:100310000126A002950175108100C005010906A102
:1003200001050719E029E7150025019508750181E8
:10033000029501750881010507190029FF1500269E
:10034000FF00950675088100050819012905950526
:1003500075019102950175039101C00011241FBE22
:10036000CFEFDAE0DEBFCDBF11E0A0E0B1E0ECED11
:10037000F1E402C005900D92A839B107D9F722E047
:10038000A8E9B1E001C01D92A338B207E1F70E94CD
:1003900093130C94D6200C940000CF93FB01843B64
:1003A0002DE59207A9F0853B2DE59207F1F0C1E01C
:1003B000833B9D45B9F4C28181E0CC2361F00E946A
:1003C000470743E062E081E00E947102C0E00AC09A
:1003D000C28182E0F2CF0E94570743E062E081E0F1
:1003E0000E9471028C2FCF910895C28183E0CC23AB
:1003F00019F00E944707EACF0E945707F3CF81E028
:1004000008950E94CD01089508950E940402089560
:10041000A5E0B0E0EEE0F2E00C94562049835A8368
:1004200030919F0189819A81311119C0662399F019
:10043000222389F00E940D08182F682F89819A8144
:100440000E94E90769817A81812F0E94700E2596AA
:10045000E3E00C9472200E94FB07182FF3CF0E9458
:100460000D0869817A81F1CFFC01262F40815181ED
:100470006281738184810E940802089581E0089559
:10048000CF93DF93EC0160E00E943402BE010E9432
:100490000502DF91CF910895E1E0F0E0DF0102C0B5
:1004A000AA0FBB1F6A95E2F7BD01DF0102C0AA0FC8
:1004B000BB1F4A95E2F7AD01462B572B02C0EE0F4A
:1004C000FF1F2A95E2F79A012823392324173507BD
:1004D00019F48E2B9F2B0895E095F0958E239F2382
:1004E0000895242F462F682F8091BC019091BD0163
:1004F0000E944C020E942D0708950E94D70F089574
:100500000E94DB0F089508950E94B4060E948302A2
:100510002FEF84E39CE0215080409040E1F700C041
:10052000000008950E9484020E94761908950E9496
:1005300084020E94871908950F931F93CF93DF932E
:100540008C0161E00E943402EC01B8010E940102BA
:10055000811106C080E0DF91CF911F910F91089526
:10056000B801CE010E94B4158823A1F3B801CE01D1
:100570000E94B813882371F3B801CE010E9426159A
:10058000882341F3F8018281882361F0CB35FDE5B2
:10059000DF0701F158F4C115ECE5DE0791F0CF3D1E
:1005A000DC4591F0C8010E94FF01D5CFCD358DE526
:1005B000D80769F090F0C83ADD45A1F70E9497028C
:1005C000C9CF0E949202C6CF0E94C00CF7CF0E94F2
:1005D000050CE8CF0E940F0CE5CF0E94130CE2CF70
:1005E0000E948C180E940D0308950E9411030E941E
:1005F0009118089508950E94FA02089581E00895DF
:100600000E94FE0208950895CF93C82F0E94FB0216
:100610008C2F0E940003CF91089580E00E94040374
:1006200008950E94CA170E9404030895CF930E9460
:10063000CA17C82F80919A018C1779F0C0939A013C
:100640000E941B1960939B0170939C0180939D01F4
:1006500090939E018C2F0E940403CF910895ABE0EC
:10066000B0E0E5E3F3E00C9457204F8358876987A7
:100670007A878B8761110E94500B1E821D8285E054
:10068000FE013796DE01119601900D928A95E1F7F1
:100690008C819D81892B61F449815A816B817C8198
:1006A0008D819E810E94790A2B96E2E00C94732042
:1006B00089819A8189238F3F79F3CE0101960E9427
:1006C0003E028111E9CFF0CFFC01808191810E942F
:1006D0003F080895CF93C82F8823C9F08238C9F402
:1006E0000E94CA1781FD13C089E30E94080B0E9473
:1006F000710B2FEF87EE93E0215080409040E1F79F
:1007000000C0000089E30E94100B0E94710BCF9182
:1007100008958338A1F40E94CA1780FDF8CF83E5BD
:100720000E94080B0E94710B2FEF81EE94E0215084
:1007300080409040E1F700C0000083E5E4CF8438BA
:10074000A1F40E94CA1782FDE2CF87E40E94080B41
:100750000E94710B2FEF81EE94E021508040904079
:10076000E1F700C0000087E4CECF8CEF8C0F813A18
:1007700090F46C2F80910001909101010E94271844
:10078000882329F08C2F0E94100B0E94710B8C2F54
:100790000E94080BBACF80E28C0F883048F4C770F3
:1007A00081E001C0880FCA95EAF70E94330BADCFF4
:1007B000EBE5EC0FE33040F4F0E0EA5AFE4F8081C5
:1007C00090E00E94E917A3CFC85AC73108F09FCF25
:1007D000EC2FF0E0EE0FFF1FE85DFE4F808191816E
:1007E0000E94FF1794CF882309F44DC0823879F412
:1007F0000E94CA1781FF47C089E30E94080B0E942C
:10080000710B89E30E94100B0E94710B08958338CD
:1008100059F40E94CA1780FF36C083E50E94080B76
:100820000E94710B83E5EECF843859F40E94CA17F9
:1008300082FF29C087E40E94080B0E94710B87E4A5
:10084000E1CF9CEF980F913AE8F290E2980F983040
:1008500050F4877091E001C0990F8A95EAF7892FCB
:100860000E94390BD1CF9BE5980F933028F490E08C
:1008700080E00E94E9170895885A873120F490E0BB
:1008800080E00E94FF1708951F93CF93DF93182FE6
:10089000EB010E946A03209739F4812F0E94F30331
:1008A000DF91CF911F9108958FE99FE00197F1F7B4
:1008B00000C000002197EFCF70E060E0893311F4B1
:1008C00060E570E00E9444040895882321F00E94AE
:1008D000330B0E94710B0895882321F00E94390B7D
:1008E0000E94710B0895B0E0A0E0E9E7F4E00C94F9
:1008F00050206C01D62FC72FFC011281F580F29495
:100900009FE0F9220E94290BE82E8823B9F0E12EFE
:100910001123A1F08C2F807F803421F080E28D0F95
:100920008830D0F080915F0282FF16C082E00E9482
:10093000D40B0E94290B91E0E82EE926BC2EB2943C
:100940008FE0B822FBE0FB1508F468C0EB2DF0E067
:10095000E852FF4D0C944120E12CF0CF0C2F0F708A
:10096000C07F11F00295007F112399F0002359F008
:1009700080E28D0F883010F0D11107C0802F0E94C7
:10098000330B0E94710B8D2F41C0802F0E94430BAF
:10099000F8CF8D2F0E94F303002309F43FC080E2BB
:1009A0008D0F883010F0D11104C0802F0E94390BB8
:1009B00003C0802F0E94490B0E94710B2FC00C2F87
:1009C0000F70C07FC03211F00295007FDD2381F0EF
:1009D000D13009F463C0112309F46DC0FF2009F47C
:1009E00063C0F601858180FFCECF8F7085835CC0A8
:1009F00080915F0282FD33C0112359F0002329F05A
:100A0000802F0E94330B0E94710B80E00E946A03CA
:100A100005C080E00E94F3030111C7CFEB2DE85021
:100A2000FF0B349720F40E94CA170E940403EE20A3
:100A300089F00E94250B80FD0DC0F60112820E94F4
:100A40001F0B0E944707C6010E9478060E941F0BD9
:100A50000E945707CDB7DEB7E9E00C946C20112354
:100A600089F0F11006C00E94530B802B0E94650490
:100A7000D5CF21E0F212F7CF0E94530B802B0E94BA
:100A80005A0BCCCFF11006C00E94670B802F0E943A
:100A90006C04C4CF31E0F31609F2F6CF112331F024
:100AA00085E08F1508F4BACF802FE0CF94E09F1532
:100AB00008F4B4CFEBCFFF2049F3D93349F4FFEF6B
:100AC00027EE33E0F15020403040E1F700C0000055
:100AD0008D2F0E94F303A2CF8C2F8695869583706D
:100AE00069F0813009F09ACF8D2F9C2F93701111EE
:100AF00002C090E080E00E94FF1790CF8D2F9C2FC6
:100B00009370111102C090E080E00E94E91786CF37
:100B10008C2F8370A1F5111181CF4D2F42954695F1
:100B20004770440F440F2D2F2F7030E0042E02C069
:100B3000220F331F0A94E2F790E080E0D4FF09C04F
:100B40008FE090E002C0880F991F4A95E2F78095E8
:100B50009095C695C695C370822B932BC23049F0F1
:100B600058F4C13019F00E94150758CF0E940C07A5
:100B700055CF0E941E0752CF0E9409074FCF86957E
:100B8000112311F08C2F8170882309F447CF4D2F4A
:100B9000429546954770440F440F2D2F2F7030E03B
:100BA000042E02C0220F331F0A94E2F790E080E087
:100BB000D4FF09C08FE090E002C0880F991F4A95CA
:100BC000E2F780959095C695C695C370822B932BBE
:100BD000C23049F058F4C13019F00E9482071ECF8C
:100BE0000E9479071BCF0E948B0718CF0E942D0708
:100BF00015CFCF70112329F08C2F0E9447078D2F1E
:100C000035CF8D2F0E946C048C2F0E94570706CF82
:100C1000D23F51F160F4D03FB9F0D13F81F01123C0
:100C200009F449C0F110AFCE8C2F8F7121C0D33F92
:100C300011F1D43FA1F780915F0282FD26C08C2F75
:100C40008F71112311F314C0112349F084E08F1523
:100C500008F4E4CE8C2F8F710E946907DFCE95E0F7
:100C60009F1508F4DBCEF6CF8C2F8F711111CDCFED
:100C70000E944707D3CE112329F08C2F8F710E9439
:100C80003B07CCCE0E943607C9CE112349F0CF7165
:100C90008C2F0E94470763E08C2F0E94B60BBECEBC
:100CA00081E00E94D40BE1E0EF1508F0B7CE82E0BE
:100CB0000E94D40BB3CEF11000CF8C2F8F71A5CF33
:100CC0000F931F93CF93DF93EC01688179818A8121
:100CD0000E944A088C010E9494070E940807B801EC
:100CE000CE010E947304DF91CF911F910F9108955F
:100CF000CF93DF93EC018B819C81892B29F0888134
:100D0000998189238F3F51F4DF91CF910895CE01CE
:100D10000E946006CE010E944002F6CFCE010E94E2
:100D20009C028111F4CF0E94290B882369F38A81E8
:100D3000882351F380915F0282FFE6CF82E00E9418
:100D4000D40BE2CF90E080E00E94E91790E080E0D1
:100D50000E94FF170E94500B0E94710B08950E9481
:100D6000180B0E94A20608950E94400B0E94AF0635
:100D7000089592959F70963091F058F4925F9F700D
:100D8000923058F4803F19F030F4883E30F481E01E
:100D900008959A5FF4CF843FD1F380E00895883EB0
:100DA000B0F3813FD1F7F3CFFC0183819481892B8C
:100DB00029F08081918189238F3F11F480E008958B
:100DC000808191810E943F080E94B9060895A5E0A4
:100DD000B0E0EDEEF6E00C9457202596E2E00C949E
:100DE0007320A6E0B0E0E7EFF6E00C9457202696DB
:100DF000E2E00C94732008950E94FB0608950E947F
:100E0000FC069093BF018093BE010E94A206089544
:100E100008950E94FF0608952091BE013091BF0100
:100E2000822B932B0E94FF0608952091BE013091E2
:100E3000BF01822393230E94FF0608952091BE01E3
:100E40003091BF01822793270E94FF0608950E94D8
:100E5000FB0608950E94270708950E942A07909391
:100E6000BD018093BC010E94A206089590E080E03D
:100E70000E942D07089521E030E0A90102C0440F2F
:100E8000551F8A95E2F7CA010E942D07089521E0B7
:100E900030E002C0220F331F8A95E2F78091BC0137
:100EA0009091BD01822B932B0E942D07089521E084
:100EB00030E002C0220F331F8A95E2F7209530956B
:100EC0008091BC019091BD01822393230E942D0744
:100ED000089521E030E002C0220F331F8A95E2F727
:100EE0008091BC019091BD01822793270E942D071C
:100EF00008952091BC013091BD01822B932B0E945B
:100F00002D0708952091BC013091BD0182239323C8
:100F10000E942D0708952091BC013091BD018227C8
:100F200093270E942D0708950895262F277091E09A
:100F300001C0990F2A95EAF723E0769567952A95DF
:100F4000E1F7660F771F660F771FFA01E60FF71FAD
:100F500050E040E0682F70E08191DF0111979B0124
:100F6000042E02C0369527950A94E2F72170219548
:100F70002827292328272C934F5F5F4F44305105A2
:100F800059F70895A82FA77023E0969587952A957D
:100F9000E1F7880F991F880F991FFB01E80FF91FD0
:100FA00050E040E080E0219130E00A2E02C036950A
:100FB00027950A94E2F721703327042E01C0220FEF
:100FC0000A94EAF7822B4F5F5F4F4430510559F77F
:100FD0000895262F983070F4873060F4682F70E001
:100FE00087E0989F600D711D112440EA51E0822F27
:100FF0000E9495070895292F983068F4873058F497
:1010000090E060EA71E037E0239F800D911D11248C
:101010000E94C207089580E00895B0E0A0E0E3E1F7
:10102000F8E00C9450207C010091BC011091BD01AE
:101030008091BE019091BF01082B192BCFE0D0E029
:10104000CC24C394D12CBC2EC6010C2E02C0880F18
:10105000991F0A94E2F780239123892B49F4219761
:1010600090F7B12C8B2DCDB7DEB7E9E00C946C2056
:10107000B7018C2F0E948B0E019789F3F3CFCF938A
:10108000DF93EC010E940D08BE010E948B0EDF91E0
:10109000CF9108951F93CF93DF93EB0190919F0120
:1010A000992339F0CB010E943F08DF91CF911F9126
:1010B0000895882369F0CB010E940D08182F682F2E
:1010C000CE010E94E907BE01812F0E948B0EEDCF59
:1010D000CB010E94FB07182FF6CF1F93CF93DF930E
:1010E000C091C00116E08091C1018C1304C0DF9152
:1010F000CF911F910895D0E01C9FF0011D9FF00D2E
:101100001124EE53FE4F40815181628173818481AD
:1011100095810E94F1062196C770E5CF4091F201BA
:101120005091F3016091F4017091F5018091F60105
:101130009091F7010E94F10608951F93CF93DF93DA
:101140008091F701807F09F049C08091F4018823E4
:1011500009F444C08091C001C091C1016091F201C5
:101160007091F301A091F501B091F601D62FD7232C
:1011700016E0C81799F190E0109711F0DF3F19F4CD
:1011800001968770F6CF189F9001199F300D11249A
:10119000F901EE53FE4F41814713F2CF40814613D0
:1011A000EFCF42814111ECCF438154814A1B5B0B4D
:1011B0004837510528F78091F7018F70806180933F
:1011C000F701F901E953FE4F80818F7080618083C0
:1011D00082EF91E00E9478060E946D08DF91CF9126
:1011E0001F910895A1E1B0E0E8EFF8E00C944F20E2
:1011F0008C0185E0F801DE011D9601900D928A9523
:10120000E1F7F801E28082EFC82E81E0D82E6091EC
:10121000F5017091F6016115710509F44EC19091C7
:10122000F2012091F301892F82238F3F09F445C1F8
:1012300040815181A380B480F090F401F501E61B58
:10124000F70BFF2009F4EAC08091F701382F307FB7
:10125000E837F10508F0A3C031116DC0FE2C25134D
:1012600016C0941314C0E11012C08F708061809377
:10127000F7010E948E08C6010E9478068091F7014E
:10128000F80185838F2D6196EAE00C946B20A11400
:10129000B10429F0842F85238F3F09F027C180E016
:1012A000F82FF170DF2E80FF3CC08091C0012091AB
:1012B000C10136E0821315C04D875E878D859E85FE
:1012C0000E943F08292F22952F702230F0F0243001
:1012D00018F59F70F1F0F8019581907FD1F4D12C31
:1012E0001EC090E0389FF001399FF00D1124EE539D
:1012F000FE4F6181651306C06081641303C0628183
:10130000E6120FC001968770D5CF9F7011F0882329
:1013100031F3805E883018F3C8010E947806FD2CF6
:10132000B1CFEE2009F4AECF8091F70181608093B8
:10133000F701F12CA7CF251306C0941304C0F801C0
:10134000EE2009F487C0C8010E94D406882319F151
:10135000EE2009F18091F701803270F02091F201C6
:101360003091F30138872F831986BB86AA868C8734
:10137000CE0107960E94780686E0F801A2EFB1E060
:1013800001900D928A95E1F70E949D080E948E08B7
:10139000FF24F39477CFC8010E947806F9CF31116A
:1013A00013C07A2DB98AA88A6E2D89890E94E70612
:1013B00082EF91E00E94780686E0F60111928A950C
:1013C000E9F70E948E08B5CF25130FC094130DC006
:1013D000E1100BC0F8018583C8010E94780686E001
:1013E000F60111928A95E9F74DCFC8010E94D40603
:1013F000882389F2EE2079F28091F701803208F497
:10140000BBCF2091F2013091F3013A8329831B82F3
:10141000BD82AC828E83CE010196ACCFE837F10558
:1014200008F03EC0FE2CEE2009F4B5CF25132AC0EB
:10143000941328C08091F70180FD1BC0982F907FE6
:10144000C1F0F8018583903F31F0982F907F905F35
:101450008F70892B8583C8010E94780686E0F80189
:10146000A2EFB1E001900D928A95E1F70E948E08FB
:1014700009CF86E0F801A2EFB1E001900D928A95C4
:10148000E1F700CFC8010E94D406811175CF809189
:10149000F70181608093F701C8010E947806F2CEBF
:1014A0007A2DB98AA88A6E2D89890E94E70686E07E
:1014B000F60111928A95E9F7D9CFEE2009F46BCFA6
:1014C000C8010E94D406F82E882309F464CF86E070
:1014D000F801A2EFB1E001900D928A95E1F782EF59
:1014E00091E00E9464030E949D08C0CF81E08E2598
:1014F000D7CEACE0B0E0EFE7FAE00C9456204F8393
:10150000588769877A878B879C87CE0107960E94C8
:10151000F208882369F08A859B85892B39F04F81F1
:101520005885842F85238F3F09F06BC016E05FC07C
:1015300086E0FE013796DE01119601900D928A95A4
:10154000E1F78A859B85892B89F388859F8189238B
:101550008F3F61F32091C10130E0C901019687708E
:1015600099274091C0014817190671F40E94B406EA
:101570001092C1011092C00186E0E2EFF1E0DF01BC
:101580001D928A95E9F7D2CF96E0929FD001939F62
:10159000B00D1124AE53BE4FFE01319601900D9255
:1015A0009A95E1F78093C1010E946D08BFCF819F9A
:1015B000C00111248E539E4F0E94F2088823E9F047
:1015C000E091C0011E9FF0011124EE53FE4F4081B7
:1015D000518162817381848195810E94F10680919D
:1015E000C00190E00196877099278093C001809197
:1015F000C0019091C1018913DACF2C96E3E00C94DD
:10160000722069857A858B859C850E94F1068ECF34
:10161000682F80910001909101010E945D1808954A
:10162000682F80910001909101010E946018089537
:1016300080910001909101010E94631808958091AA
:1016400000028595859585950895809100028770A3
:10165000089590910002977081E009F480E0089568
:1016600080910B02089590910B02892B80930B02BD
:101670000895809590910B02982390930B02089502
:1016800010920B02089590910A02892B80930A020E
:101690000895809590910A02982390930A020895E4
:1016A00010920A02089580910102089508950E94FF
:1016B000560B089590915F0292FF08C0909101022D
:1016C000981721F0809301020E94570B0895809192
:1016D0000102882329F01092010280E00E94570B3A
:1016E0000895CF93DF93E0910001F0910101809183
:1016F0000B028083E0910001F091010180819091C3
:101700000A02892B808390910102992381F0E09154
:101710000001F09101018081892B8083809100017B
:10172000909101010E94151881110E94670BC091D0
:101730000001D091010148E050E068EF71E0CE0176
:101740000E947E20892B59F088E0FE01A8EFB1E0CD
:1017500001900D928A95E1F7CE010E94DE17DF918C
:10176000CF91089508950E94B20B089590915F0261
:1017700092FF11C098E0899F90011124622B609321
:1017800000020E9447078091000285958595859506
:101790000E94B30B08950E9447070895109200021B
:1017A00080E00E94B30B08959091000280958923F8
:1017B00080930002282F277091F4282F082E000C08
:1017C000330B9217130659F090915F0292FF07C0F6
:1017D0008595859585950E9457070E94CE0B0895A3
:1017E00090915F0292FB222720F9281769F080FB75
:1017F00092F990935F0280915E0290915F020E9445
:101800003A0C82E00E94D40B089580915F0282FB23
:10181000882780F991E089270E94F00B089581E0E4
:101820000E94F00B089580E00E94F00B089590E074
:1018300080E00E949C2021E0883E9E4F09F020E03D
:10184000822F089582E090E00E949420089583E022
:1018500090E00E9494200895CF9384E090E00E944D
:101860009420C82F82E290E00E949420982F8C2F21
:10187000CF910895CF93C92F682F84E090E00E9404
:10188000A2206C2F82E290E00E94A220CF910895C6
:10189000AB01BC018FE090E00E94B4200895AB0141
:1018A000BC0183E190E00E94B420089560E070E004
:1018B000CB010E944F0C089560E070E0CB010E94C4
:1018C000480C0E94560C089568EE7EEF90E080E090
:1018D0000E94C02060E082E090E00E94A22060E0D0
:1018E00083E090E00E94A2201092BF011092BE01FE
:1018F00060E084E090E00E94A22064E082E290E058
:101900000E94A22060E085E090E00E94A22060E0BA
:1019100086E090E00E94A2206FEF87E090E00E94B6
:10192000A22040E050E0BA0188E090E00E94B4209C
:1019300060E08DE090E00E94A22040E050E0BA011B
:1019400088E190E00E94B42060E087E190E00E948E
:10195000A22040E050E0BA018CE190E00E94B42067
:1019600070E060E080E290E00E94C02040E050E043
:10197000BA0188E190E00E94B4200E945C0C0895B6
:101980000E94640C0895682F8EE090E00E94A220CF
:1019900008950E941B1960931A0270931B02809392
:1019A0001C0290931D02609316027093170280939D
:1019B0001802909319020895089508950E94DD0C6D
:1019C000089508950E94E10C089585EB9FE00E9420
:1019D000C0170E94DC0C0E94DE0C08950E94871143
:1019E0000895089508950E94F10C0E94F20C089544
:1019F0000E94B80F0E94030308950E9406190E94D6
:101A0000750F0E94A2110E94E8100E94F80C0E941B
:101A1000A0130E94AC110E94E20C0895AAE0B0E06D
:101A2000E4E1FDE00C944F200E940B118EE0A82E03
:101A300082E0B82E750110E0F70101917F01812F3E
:101A40000E94DE0F1F5F183009F440C00817A1F391
:101A500080911E0281FD0E94E40F0E94EE0CC82EB0
:101A600010E0812F0E94DE0F082FF50181915F01A8
:101A7000081731F1F12CEE24E394D02ED8268D2DC9
:101A80008E21B1F0CC20A1F0FE821F8391E0802F47
:101A90008E2109F490E098870E940F198160782FB9
:101AA0009A8789874E815F8168858A850E942F0386
:101AB000F394EE0CF7E0FF12E2CFF50131970083CB
:101AC0001F5F183071F60E94C90C20C00813C0CFE8
:101AD0000E940F198C0180910C0290910D02081741
:101AE0001907A1F08FEF89838A831B820E940F1947
:101AF0008160782F9D838C8349815A816B818D8190
:101B00000E942F0310930D0200930C020E94871174
:101B10000E9416032A96EAE00C946B20CF93DF9381
:101B20000E94900EEC01811522E59207E8F58115DF
:101B300031E5930708F0A3C0883E910510F5803E7B
:101B4000910570F5883A910570F4853A910508F091
:101B500078C08130910521F1009711F1049700F5CB
:101B6000D0E0C0E01DC08F3B9105D0F7C85AD0E04F
:101B7000CC0FDD1FC75ADE4F0990D881C02DD46429
:101B80000FC0811540E5940708F066C0C11580E4D8
:101B9000D80708F05EC0CE019A9581159F4100F7E5
:101BA000CE01DF91CF910895811536E5930718F5A1
:101BB000811545E5940708F07BC0C11584E5D80779
:101BC00008F071C09E01237033279C2F969596953F
:101BD000C115D34508F458C0C1E0D0E002C0CC0F15
:101BE000DD1F2A95E2F730E2939FC0011124C82B34
:101BF000D92BDA68D5CFC1158AE5D80778F4C11595
:101C000029E5D20708F05EC0C11538E5D30708F40E
:101C1000A7CFDC2FCC27C06FD06AC2CFCE019056A1
:101C20008115904208F09CCF8D2F8F710E94320F4A
:101C300090E0982F882788279F719C012C2BE90121
:101C40003FC0C55AD0E0C957DE4FC881D0E0D0644C
:101C5000A7CFDF70D06AA4CF8370992721E030E04E
:101C600002C0220F331F8A95E2F7C695C69580E21F
:101C7000C89FE0011124C22BD32BDD6891CFD82F50
:101C8000CC27C16FD06A8CCFC1E0D0E002C0CC0FAE
:101C9000DD1F2A95E2F720E2929FC0011124C82B94
:101CA000D92BDC687DCFDC2FCC27C46FD06A78CFEE
:101CB0000E94320FC82FD0E0DC2FCC27CC27DF7159
:101CC000D0626ECF8C2F8F700E94320F34E0D69589
:101CD000C7953A95E1F7CF709C2FEC01D06960CFA2
:101CE000972F7830A8F4673098F470E027E0929F3F
:101CF000600D711D1124FB0198E3899FE00DF11D1A
:101D00001124EE0FFF1FE455FF4F85919491089524
:101D100080E090E008950E94700E0E948E0D08955C
:101D200082389105B9F1B0F48133910509F47DC091
:101D300048F48932910509F46DC08A32910509F49D
:101D40007BC008958533910509F45FC089339105FF
:101D500009F10895833E9105D9F138F4803E91054B
:101D600029F1823E910579F10895863E9105D9F1D8
:101D7000873E910509F43EC0843E910541F52091CE
:101D80005F0221FF24C080915E0284FD19C087EEAE
:101D900090E0089520915E02237009F05AC02091CE
:101DA0005F0223FF14C089E290E0089520915E0253
:101DB00020FD38C030915F0230FF09C024FF43C0CE
:101DC00090E080E0089520915E0222FDF7CF089513
:101DD00020915E0222FD3AC030915F0230FD39C091
:101DE00024FFF5CFEDCF20915E0223FFF0CF24FD3D
:101DF000E7CFCDCF20915E0223FD2EC030915F0250
:101E000031FFEECF84EE90E0089520915E0225FF31
:101E1000DECFC9CF20915E0225FD21C020915F0257
:101E200023FFD5CF89E390E0D2CF20915E0226FF39
:101E3000CECF8AE290E0089520915E0226FFC7CFC0
:101E400081E390E0089583EE90E0089582EE90E0C3
:101E5000089580EE90E0089586EE90E0089585E381
:101E600090E0089590915E0292FF06C0282F28719D
:101E70002830F9F4877F846093FF06C0282F2871EB
:101E80002831F1F4877E846120915F0220FF06C033
:101E9000382F38713830D9F4877F816021FF06C030
:101EA000282F28712831D1F4877E816194FD877EA7
:101EB0000895282F24712430F9F68B7F8860DCCFB9
:101EC000282F2471243101F78B7E8861DDCF382FD4
:101ED0003171313019F78E7F8860E0CF282F217162
:101EE000213121F78E7E8861E1CF10925A02109243
:101EF0005B0210925C0210925D020895CF92DF9215
:101F0000EF92FF926B017C010E94871181110EC03C
:101F10000E941B19C61AD70AE80AF90AC0925A0287
:101F2000D0925B02E0925C02F0925D02FF90EF9033
:101F3000DF90CF9008950F931F930E9487118823FD
:101F400029F00E941B191F910F9108950E941B19DF
:101F500000915A0210915B0220915C0230915D0267
:101F6000600F711F821F931FEECF80E008950895C8
:101F70000E94170C811102C00E94C00C0E94220C0A
:101F800080931E020E942C0C90935F0280935E024D
:101F90000E94B70F0E94270C90E00E9409078091D1
:101FA000BC019091BD010E942A07089508950E94E6
:101FB000D60F089508950E94DA0F0895E82FF0E0F3
:101FC000E759FD4F80810895089580EA8A95F1F7D9
:101FD000089500C008950E94E50F089508950E9495
:101FE000EE0F0895EF92FF921F93CF93DF9300D0EF
:101FF00000D0CDB7DEB70E948711182F6091710213
:10200000882309F447C019821A821B821C82862FFA
:1020100090E09E012F5F3F4F7901B90187599D4F95
:102020000E94BA118823E9F08091600290E044E0B8
:1020300050E0B70187599D4F0E947E2021E02093F8
:102040001F02892BC9F410E00E948002812F0F909B
:102050000F900F900F90DF91CF911F91FF90EF9015
:10206000089580911F02882371F384E0F701119293
:102070008A95E9F710921F02E0916002F0E0E759BB
:10208000FD4F89819A81AB81BC8180839183A2833A
:10209000B383DACF70E067597D4F8091600290E0A2
:1020A00087599D4F0E9441120E94EF0FCFCFF894A5
:1020B000E82FE295EF70F0E031A1282F2F7081E03A
:1020C00090E001C0880F2A95EAF7982F9095932306
:1020D00091A392A1892B82A378940895CF93DF9343
:1020E00087E90E94571086EC0E94571084E30E94F3
:1020F000571085E30E945710CAE8D1E089918F3FBD
:1021000011F00E94571081E0C139D807B9F7DF916B
:10211000CF910895B0E0A0E0E0E9F0E10C94512007
:10212000EC01D62E062F10E0C8018F569E4F7C0181
:10213000FC0180818F3F09F444C0F894E82FE295B8
:10214000EF70F0E091A18F7021E030E001C0220F2C
:102150008A95EAF7892F822B81A382A120952823D3
:1021600022A378940E94E90FEAE8F1E031E0C12C63
:1021700021912F3F59F1A22FA295AF70B0E0909618
:102180008C9190E02F7002C0959587952A95E2F783
:1021900080FD1CC0832FC82A330F81E0E139F80786
:1021A00039F7F70180818F3F11F00E94571061E0ED
:1021B000C11001C060E08D2D0E94EB0FC00FD11F38
:1021C000C882CDB7DEB7E8E00C946D2080E0E3CFA5
:1021D000809102018091020194E0811190E090933E
:1021E000710284E0891B809360020E946E1088E077
:1021F000E9E6F2E0DF01982F1D929A95E9F7E1E612
:10220000F2E0DF011D928A95E9F784E00E9449110E
:102210000E947D020895A8E0B0E0E1E1F1E10C94B4
:1022200054208E010F5F1F4F88E0F80111928A95AC
:10223000E9F7F12C6F2DC8010E948A10F394F4E0A5
:10224000FF12F8CF48E050E0B80181E692E00E942A
:102250007E2021E0009709F420E0892B41F088E0FE
:10226000F801A1E6B2E001900D928A95E1F7609144
:10227000710270E067597D4F44E081E692E00E9470
:102280004A11182F0E94F20F812B2896E5E00C943A
:1022900070200895CF92DF92EF92FF920F931F93D9
:1022A000CF936C017B01042F222349F081E08093BE
:1022B00022020E940F199093210280932002C09164
:1022C0002202C1110AC0C0E08C2FCF911F910F9143
:1022D000FF90EF90DF90CF90089580912002909131
:1022E00021020E942719059770F310E0A801B6019A
:1022F000C7010E947E20892B41F0A801B601C701C9
:102300000E948B2010922202DFCFC0E0FBCF809191
:102310002502811107C00E943420882351F081E0FA
:102320008093250281E090912502913009F080E0B0
:10233000089582E0809325020E942F20F3CF0E940F
:10234000871108950E949F11809302010E948711B6
:1023500081110E94F01108950E948711811102C01D
:102360000E94F311089581E0909126029A3008F0BE
:1023700080E008950F931F93CF93DF93EC018B01BF
:10238000809126028A30B8F4B801CE010E943E1234
:10239000C82F811122C0809126028F3FB9F40E947C
:1023A0000F1990932402809323028C2FDF91CF91F9
:1023B0001F910F91089580912302909124020E9411
:1023C0002719843F914000F7C0E0EFCF8F5F8093E3
:1023D00026028A3020F7C1E0E8CF10922602E5CF2E
:1023E0000E945E1608950E9461160895B0E0A0E074
:1023F000ECEFF1E10C9452207901C82F880FDD0B2E
:1024000041155105A9F0FE0193E0EE0FFF1F9A95CB
:10241000E1F7ED5FFE4F81819281895D9D4F2081C3
:1024200030E04217530708F49A01A9010E948B205B
:10243000CE010E944A17D82E8823D1F0011511052C
:10244000B9F083E0CC0FDD1F8A95E1F7FE01ED5F67
:10245000FE4F438150E00417150708F4A801CD5F33
:10246000DE4F6C817D81695D7D4FC7010E948B20AD
:102470008D2DCDB7DEB7E7E00C946E200E943813A7
:1024800008950E944F130895A4E0B0E0EAE4F2E159
:102490000C94552060913C0270913D0280913E0267
:1024A00090913F020E94361911E064367105810552
:1024B000910518F10E949B0F6E5F7F4F8F4F9F4FCA
:1024C00069837A838B839C8310E000E030E020E016
:1024D00044E050E0BE016F5F7F4F82E00E94F61142
:1024E000182F882351F00E941B1960933C027093AF
:1024F0003D0280933E0290933F02812F2496E4E0B8
:102500000C947120B0E0A0E0E8E8F2E10C944F20D8
:102510007C015B016A010E94B31101E010E0882395
:1025200011F00AE010E0C1E0D0E0B501C701F6010A
:102530000995811104C021960C171D072CF4CDB705
:10254000DEB7EAE00C946B20CC9F9001CD9F300D5C
:10255000300D112490E080E045E34A95F1F700004A
:10256000019682179307C1F7E0CFA5E0B0E0EBEB4F
:10257000F2E10C944F205B01E0909501F090960100
:1025800001E010E09E012B5F3F4F50E040E070E023
:1025900060E080E00E94F611182F882309F44BC0F8
:1025A00067018FEFC81AD80A60913802709139021A
:1025B00080913A0290913B020E943619643671056F
:1025C0008105910580F104E010E09E012F5F3F4FEF
:1025D00050E040E070E060E081E00E94F611F82EEB
:1025E00064E070E0C6010E94A11311E09D81981380
:1025F00010E01F2159F10E941B196093380270935B
:10260000390280933A0290933B0289819A81AB818F
:10261000BC818093340290933502A0933602B0932C
:10262000370211E013C064E070E0C6010E94A113FC
:102630009D818913C8CFF70181819281A381B481E3
:1026400089839A83AB83BC831111DFCF80913402DD
:1026500090913502A0913602B0913702F501808346
:102660009183A283B383812F2596EAE00C946B209B
:102670000F931F93CF93DF93EC018B0145EB52E156
:102680000E948212882331F044E452E1B801CE0165
:102690000E948212DF91CF911F910F9108950F93A5
:1026A0001F93CF93DF93C0919501D0919601CE01F6
:1026B000019624E0FB01DC0101900D922A95E1F7DF
:1026C00064E070E00E94A11388836D817E818F8118
:1026D00098850091300210913102209132023091A0
:1026E0003302601771078207930751F0609330023D
:1026F0007093310280933202909333020E947E0FD6
:10270000DF91CF911F910F9108950E940A1B0E94A3
:10271000FD0C0E94171B08950E941C1B0E940E0DA9
:102720000E94361B08950E94A8180E94F01A0E9469
:10273000E50C0E9485130E948C130E94F30CFBCFC2
:102740000895FC01680F791F8FEF91E3E617F707F3
:1027500009F408952191822728E030E087FF06C020
:10276000880F892721503109C9F7F0CF880FFACF98
:10277000CF93DF93EC01FB018281882309F464C1CC
:10278000C430FDE5DF07E0F5CB3F9CE5D90730F429
:102790009E0122503C4524313105D8F50E942C0C75
:1027A00090935F0280935E02C231ECE5DE0709F48C
:1027B0001FC108F06EC0C9308CE5D80709F4F2C01B
:1027C00008F03FC0C530ECE5DE0709F4DBC058F582
:1027D000C3308CE5D80709F4CDC008F0CFC0809194
:1027E0005E028160C230DC4509F4AEC080915E02B9
:1027F00090915F020E943A0C0E94B40680E009C0EA
:10280000C63AEDE5DE0751F238F4C2369DE5D90748
:1028100029F2DF91CF9108959E012E5A3D45233034
:102820003105B8F7BBCF80915E028062C730FCE50E
:10283000DF0709F489C008F4B1C080915E028064AA
:1028400083C0CD309CE5D90709F4BAC070F48091FB
:102850005E028E7FCB30FCE5DF0709F475C008F41B
:10286000A7C080915E028D7F6FC0CF309CE5D907F5
:1028700009F4B6C008F4A8C0C031FCE5DF0709F4CC
:10288000B3C0C131DC4509F0B1CF80915E028F7BCE
:102890005BC0C1159DE5D90709F4B4C098F5CB3FDD
:1028A000FCE5DF0709F472C0B8F4C4319CE5D90730
:1028B00009F4B6C008F4A2C0C531DC4509F096CFD2
:1028C00080915E0282FB992790F921E0922790FB8C
:1028D00082F990FB83F938C0CD3F8CE5D80709F425
:1028E00077C008F457C0CE3FECE5DE0709F474C0AA
:1028F00080915F028360CF3FDC4509F077CF809302
:102900005F0274CFC2368DE5D80709F496C068F42B
:10291000C230EDE5DE0709F48CC008F477C0C3309F
:10292000DD4509F063CF80E085C0CE3A9DE5D9074B
:10293000E9F068F490915E02892F8E7F90FF8160AC
:10294000C63ADD4509F052CF80935E024FCFCF3AB1
:102950008DE5D80789F1C03BDD4509F047CF90915F
:102960005F02892F877F93FF8860C9CF80915F02C4
:102970008860C5CF80915E028260E6CF80915E0262
:102980008460E2CF80915E028860DECF80915F023A
:102990008160B5CF80915F028260B1CF80915E028D
:1029A0008061D2CF0E94B40680915E028068CCCF55
:1029B00080915E028C60C8CF80915F02877F9FCF3D
:1029C00080915E028B7FC0CF80915E02877FBCCFFB
:1029D00080915F028E7F93CF80915F028D7F8FCF3A
:1029E00080915E028F7EB0CF80915E028F7DACCFF2
:1029F0000E94B40680915E028F77A6CF80915E021E
:102A0000837FA2CF80915F028C7F79CF80915F021C
:102A1000982F909591708E7F892B90FB81F96FCFC5
:102A20000E94B40690915E02892F97FB87F9805827
:102A30008BCF81E00E94C30CD9CE90915E02892F8A
:102A40008F7E94FF806180CF81E0E3CECF93DF93D0
:102A5000EB0186319C4511F50E94300B9A81992338
:102A600099F08A7A91E009F490E090934002811104
:102A700009C089E20E94080B0E94710B80E0DF917F
:102A8000CF91089585E3F6CF80914002811104C073
:102A900089E20E94100BF0CF85E3FBCF81E0EFCFFE
:102AA0000F931F93CF93DF93C42FD22FFC0182810A
:102AB0008823C9F0409343020E940F199093420269
:102AC0008093410280E28C0F883040F4C77081E02F
:102AD00001C0880FCA95EAF70E946504DF91CF9183
:102AE0001F910F91089510914302141332C08091E9
:102AF0004102909142020E9427198837910548F5BA
:102B0000C0E2CD0F1D17B9F080E2810F883040F48C
:102B1000177081E001C0880F1A95EAF70E946C04D3
:102B2000C83048F481E09D2F977001C0880F9A95B6
:102B3000EAF70E946504802F0E945C04C83070F69A
:102B4000D77081E001C0880FDA95EAF70E946C0423
:102B5000C5CF80E28C0F883008F6C77081E001C0D5
:102B6000880FCA95EAF7F2CF0F939C01CB01243F5F
:102B70004CE5340759F1A8F4293DFCE53F0701F184
:102B80002A3D4CE53407D1F1283D3C4591F406E25D
:102B900021EE41EE68ED7CE50E94501580E00F913A
:102BA0000895263FFCE53F07E9F0B0F0273F3C459C
:102BB000F9F0FC018281882339F110924302EFCFB2
:102BC00007E225EE45EE69ED7CE5E6CF06E221EE73
:102BD00040EE64EF7CE5E0CF07E225EE44EE65EFE2
:102BE0007CE5DACF06E221EE42EE66EF7CE5D4CF5B
:102BF00007E225EE46EE67EF7CE5CECF08E221E066
:102C000045EE6AED7CE5C8CF81E0C9CF8EE1489BF7
:102C100002C08150E1F7489BFECF0895589880E2AA
:102C20008A95F1F7589A0895FC013BE03A95F1F73F
:102C300098E020E080E031E040E14A95F1F7880F2C
:102C4000489B02C08160232742E04A95F1F70000CB
:102C500040E14A95F1F7915079F790E19A95F1F7B3
:102C600099B132E03A95F1F7000040E14A95F1F769
:102C7000917092272081920F90830895A1E0B0E097
:102C8000E4E4F6E10C94532019828C017C01E60EF9
:102C9000F11C0E151F0541F481E09981911180E02E
:102CA0002196E6E00C946F200E940616CE01019654
:102CB0000E941416F80181938F01EBCF509A589A15
:102CC00008955098589AE89AE9E6F0E080818C7F60
:102CD000808308956150770B91E001C0990F6A9548
:102CE000EAF720E031E0911108C0222391F0589AD0
:102CF00080E28A95F1F758980895492F482339F0D2
:102D0000589A232740E24A95F1F79695ECCF5898C8
:102D1000F9CF5898EDCFFF920F931F93CF93DF9386
:102D2000EC018C01060F111DC017D10729F4CDB796
:102D3000DEB7E5E00C947020F9900E940E1668E072
:102D40008F2D0E946A16F0CF1F920F920FB60F922E
:102D500011240F931F932F933F934F935F936F9380
:102D60007F938F939F93AF93BF93EF93FF93CF93F3
:102D7000DF930F92CDB7DEB719820E940616CE01FF
:102D800001960E941416082F069506950695282F81
:102D900022952570902F9570290F922F937026956C
:102DA0002695920F982797708981982B09F05CC01F
:102DB000043008F059C080E18A95F1F7589A509A8A
:102DC00082E08A95F1F700C0589888E0089F80015A
:102DD0001124D801AD5FBE4F1696ED91FC91179767
:102DE0003097A9F0609195017091960114962D91FC
:102DF0003C911597260F371F11968D919C91129734
:102E0000680F791F13964C9113978C910995F801CF
:102E1000ED5FFE4F6381662351F020919501309163
:102E2000960184819581820F931F0E948B160E94C8
:102E30000E1680E18A95F1F758985098589A80E1DB
:102E40008A95F1F7F801ED5FFE4F6081662351F03E
:102E5000209195013091960181819281820F931F7B
:102E60000E943E160E9406160F90DF91CF91FF91AF
:102E7000EF91BF91AF919F918F917F916F915F91F2
:102E80004F913F912F911F910F910F900FBE0F9077
:102E90001F9018950F931F93CF93DF93EC01049726
:102EA0000CF04CC0F894509A589885E08A95F1F748
:102EB00000009C2F969595708C2F8570980F892F08
:102EC00083709695969523E0CC0FDD1F2A95E1F748
:102ED000980F8E01092B0E940E1600C068E0802F0B
:102EE0000E946A1680E18A95F1F75098589A489B9B
:102EF0001EC087E090E048991CC0FE01ED5FFE4FC8
:102F000063816623F9F020919501309196018481C7
:102F10009581820F931F0E943E16811113C0509A13
:102F2000589A7894DF91CF911F910F91089500C026
:102F3000DECF019729F4509A589A789480E0F2CF26
:102F400000C0D9CF0E94061680E28A95F1F7589802
:102F5000509A80E18A95F1F7CD5FDE4F6881662354
:102F600051F0209195013091960189819A81820FCB
:102F7000931F0E948B160E940E16789481E0D2CF88
:102F80009093990180939801089590934A028093B9
:102F9000490208950E948711811103C08091440263
:102FA0000895E0914902F0914A02309729F001908A
:102FB000F081E02D0995089580E00895E09149029F
:102FC000F0914A02309721F00280F381E02D0995BB
:102FD000089520914702309148022817390771F06F
:102FE0009093480280934702E0914902F0914A028F
:102FF000309721F00680F781E02D09950895209102
:103000004502309146022817390771F09093460225
:1030100080934502E0914902F0914A02309721F0F5
:103020000084F185E02D099508959C012E5F3F4FA6
:10303000AC01485F5F4F80E02417350709F408951D
:10304000F90191919F019923B9F38F5FF5CF662321
:1030500049F0FC01329608962191261729F0E817CD
:10306000F907D1F780E0089581E008959C01FC0103
:1030700032969FEF80E04191461751F09F3F19F43F
:10308000411101C0982F8F5F8630A9F79F3F09F447
:103090000895290F311D97FD3A95F901628308952E
:1030A000FC01329608962191261303C0DF01119787
:1030B0001C92E817F907B9F708950E943618089589
:1030C0000E9450180895029626E0FC0111922A955C
:1030D000E9F7089508950E946A180895811106C0BD
:1030E00081E080934B020E946B18089582E0F9CF33
:1030F00083E080934B020E946B1808950E946E1823
:10310000089581E080934B020E946B1808950E94FD
:1031100081180895089508950E948B1808950895C0
:1031200008950E948A180895CF930E948F180E94D4
:103130000B110E949018C0E08C2F0E94DE0F8111AD
:1031400005C0CF5FC830C1F7CF91089581E0FCCFB3
:1031500085B7806885BF85B7806885BF08951F9251
:103160001FB61F9211248F939F93AF93BF938091AB
:103170004C02811113C08091720290917302A09150
:103180007402B09175024196A11DB11D8093720227
:1031900090937302A0937402B0937502BF91AF91A4
:1031A0009F918F911F901FBE1F90189580917A025A
:1031B000843031F10E94F00210924C0288E190E0DC
:1031C00020E40FB6F894A895809360000FBE20937A
:1031D000600083B7817F846083BF83B7816083BFD2
:1031E0007894889583B78E7F83BF0FB6F894A8959F
:1031F00080916000886180936000109260000FBE33
:1032000008950E94B4060E94F502089582E084BDEC
:1032100093E095BD9AEF97BD80936E0008952FB708
:10322000F8948091720290917302A0917402B0910F
:1032300075022FBF08952FB7F894609172027091B4
:10324000730280917402909175022FBF08959C01C2
:103250004FB7F8948091720290917302A09174021A
:10326000B09175024FBF821B930B0895CF92DF92EE
:10327000EF92FF922FB7F894C0907202D090730231
:10328000E0907402F09075022FBFA7019601261BF3
:10329000370B480B590BCA01B901FF90EF90DF9033
:1032A000CF90089578941F921FB61F9211248F9388
:1032B0009F93AF93BF938091720290917302A091FC
:1032C0007402B09175020196A11DB11D8093720226
:1032D00090937302A0937402B0937502BF91AF9163
:1032E0009F918F911F901FBE1F90189587E797E7BA
:1032F000909301088093000888E19AE00FB6F89453
:10330000A895809360000FBE90936000FFCF88E186
:103310009AE00FB6F894A895809360000FBE909342
:103320006000FFCF8091580208950895CF93DF93F6
:10333000EC0181E08093E9008FEF9091E8008150EB
:1033400095FD06C095ED9A95F1F700008111F5CF36
:103350008091E80085FF14C050E040E068E070E034
:10336000CE010E94A81B8091E8008E778093E80030
:1033700088E0FE01A0E5B2E001900D928A95E1F7A8
:10338000DF91CF91089580934D0270934F02609327
:103390004E0280917A02843001F582E08093E90048
:1033A0008FEF9091E800815095FD06C095ED9A95BC
:1033B000F1F700008111F5CF8091E80085FF0DC085
:1033C00050E040E063E070E08DE492E00E94A81BD2
:1033D0008091E8008E778093E8000895BC0184E036
:1033E0000E94C3190895BC0183E00E94C319089587
:1033F000089580917902811109C00E94381D0E94B0
:10340000951D8091E20084608093E20008951092FF
:10341000790208950E94811808956091760281E0F2
:10342000611101C080E00E947818089590917A029D
:1034300081E0943009F080E0609176020E947E186D
:10344000089542E061EC81E00E94B41C42E261EC2C
:1034500082E00E94B41C90917A0281E0943009F0DD
:1034600080E0609176020E946E18089580917C023F
:10347000833009F461C030F48130D1F1823009F435
:103480009EC008958A3009F48AC08B3009F46FC059
:10349000893009F050C080917B02813209F04BC025
:1034A00080917F0290918002029708F044C0809141
:1034B000E800877F8093E8008091E80082FF37C0B2
:1034C0009091F3008091F200029731F48091F10025
:1034D000813011F0863021F48091F1008093580200
:1034E0008091E8008B778093E8000E94E81C23C05D
:1034F00080917B02813AF9F48091E800877F809384
:10350000E80080917F0290918002892B61F468E04D
:1035100080E592E070E00E94F71B8091E8008B77D5
:103520008093E800089560E090E080E0F3CF809120
:103530007A028111C1CF089580917B02813AD9F737
:1035400080917F0290918002892BA9F78091E800F9
:10355000877F8093E8008091E80080FFFCCF809116
:1035600027018093F1008091E8008E77BCCF809195
:103570007B02813201F780917F0290918002892B3A
:10358000D1F68091E800877F8093E8000E94E81CD4
:1035900080917D02809327010E94B4060895809156
:1035A0007B02813241F68091E800877F8093E800BA
:1035B0000E94E81C80917E028093590208958091B8
:1035C0007B02813A09F0B7CF8091E800877F809332
:1035D000E8008091E80080FFFCCF80915902C1CFC4
:1035E00084B7877F84BF0FB6F894A8958091600058
:1035F000886180936000109260000FBE80E890E0C8
:103600000FB6F89480936100909361000FBE0E9402
:10361000871808950E94381D0E94951DE2EEF0E083
:1036200080818460808378940E94142008958BE1C7
:1036300091E00E94C517089580917A02853031F497
:1036400080917A02853019F00E94011908950E9434
:10365000D61880917802882399F30E9494188823C1
:1036600079F30E94921B0E94B406EACF08950E944B
:103670003A1B0895292F33272330310519F168F4B7
:103680002130310509F444C02230310509F445C028
:1036900090E080E030E020E025C02132310549F1A2
:1036A00022323105A9F780E490E02BE133E0611587
:1036B0007105C1F082E390E029EE32E061307105DE
:1036C00089F0E6CF99278130910581F0009729F0A4
:1036D0000297F1F6ECE6F2E002C0E8E9F2E084914C
:1036E00090E09F01FA01318320830895EAE8F2E037
:1036F000F6CF89E090E02EEA32E06115710591F392
:1037000089E090E027EC32E06130710559F3C0CFD9
:1037100082E190E027ED32E0E5CF8BE390E02CE909
:1037200032E0E0CF80E189BD82E189BD09B400FECD
:10373000FDCF8091D8008F7D8093D8008091E000EC
:1037400082608093E0008091E00081FDFCCF0895CD
:10375000AF92BF92CF92DF92FF920F931F93CF93BE
:10376000DF936C01EB018A010E94071DF82E811185
:1037700023C00115110539F0F80180819181C81B22
:10378000D90BC80ED91EB12CA12C2097A9F080917D
:10379000E80085FD22C08091E8008E778093E800E4
:1037A00001151105A1F0F80180819181A80EB91EC3
:1037B000B182A08285E0F82E8F2DDF91CF911F91ED
:1037C0000F91FF90DF90CF90BF90AF9008950E942F
:1037D000071D8823D1F2F82EEFCFF60181916F01FA
:1037E0008093F1002197FFEFAF1ABF0ACECFFC0103
:1037F000809181029091820286179707A0F061154F
:10380000710529F49091E8009E779093E80090E08C
:103810006115710551F4911108C08091E80082FF93
:1038200034C080E00895BC01F2CF80917A028823F1
:10383000C1F18530C1F18091E80083FD30C08091F5
:10384000E80082FDEACF8091E80080FFE1CF80911F
:10385000F3002091F200382F6115710519F028301E
:10386000310558F091E02830310509F090E02091C1
:10387000E8002E772093E800CBCF81918093F10070
:10388000615071092F5F3F4FE7CF80917A02882303
:1038900041F0853041F08091E80083FFBECF81E0A8
:1038A000089582E0089583E00895FC0180918102EB
:1038B0009091820286179707A0F06115710529F48F
:1038C0008091E8008E778093E80090E061157105A3
:1038D00051F4911108C08091E80082FF35C080E06A
:1038E0000895BC01F2CF80917A028823C9F1853016
:1038F000C9F18091E80083FD31C08091E80082FD2C
:10390000EACF8091E80080FFE1CF8091F300209121
:10391000F200382F6115710519F02830310558F083
:1039200091E02830310509F090E08091E8008E7731
:103930008093E800CBCF84918093F1003196615061
:1039400071092F5F3F4FE6CF80917A02882341F0C3
:10395000853041F08091E80083FFBDCF81E008957C
:1039600082E0089583E00895982F973028F08F70B3
:103970008093E90081E008959093E900242F762F49
:1039800050E0981731F07091EC002091ED005091CB
:10399000F00021FD02C09F5FE8CF3091EB003E7F39
:1039A0003093EB003091ED003D7F3093ED0030918E
:1039B000EB0031603093EB007093EC002093ED004E
:1039C0005093F0002091EE0027FDE5CF80E00895B0
:1039D00080917B0287FF13C08091E80082FF06C0C0
:1039E0008091E8008B778093E80004C080917A0290
:1039F0008111F2CF089580917A028823D9F38091C2
:103A0000E80080FFF8CF8091E8008E77ECCF20911E
:103A1000E4003091E50095E6A9012091EC00822FA9
:103A2000817020FF06C08091E80080FF06C080E022
:103A300008952091E80022FD1AC080917A0288231F
:103A400089F0853089F08091EB0085FD0FC02091D1
:103A5000E4003091E50042175307F9F29150E1F686
:103A600084E0089582E0089583E0089581E0089558
:103A70000E94A71D0E94AF1DE0EEF0E080818160F2
:103A80008083E8EDF0E080818F77808319BCA7ED1B
:103A9000B0E08C918E7F8C9380818F7E808310929A
:103AA000790208950F931F93CF93DF930E94A71D70
:103AB0000E94AF1DC8EDD0E088818F778883888110
:103AC0008068888388818F7D888319BC10927A02F0
:103AD00010927602109278021092770200EE10E0B7
:103AE000F80180818B7F808388818160888342E0B8
:103AF00060E080E00E94B41CE1EEF0E080818E7F07
:103B00008083E2EEF0E08081816080838081886044
:103B10008083F80180818E7F8083888180618883A3
:103B2000DF91CF911F910F910895E8EDF0E0808132
:103B30008F7E8083E7EDF0E080818160808384E088
:103B400082BF81E0809379020E94521D0895E8EDC2
:103B5000F0E080818E7F80831092E20008951092C1
:103B6000DA001092E10008951F920F920FB60F92A3
:103B700011242F933F934F935F936F937F938F9372
:103B80009F93AF93BF93EF93FF938091E10082FFE8
:103B90000BC08091E20082FF07C08091E1008B7F23
:103BA0008093E1000E9413208091DA0080FF19C009
:103BB0008091D80080FF15C08091DA008E7F8093BD
:103BC000DA008091D90080FF96C080E189BD82E152
:103BD00089BD09B400FEFDCF81E080937A020E9486
:103BE000F9198091E10080FF19C08091E20080FF07
:103BF00015C08091E2008E7F8093E2008091E20008
:103C000080618093E2008091D80080628093D80028
:103C100019BC85E080937A020E940D1A8091E10020
:103C200084FF2BC08091E20084FF27C080E189BD22
:103C300082E189BD89B5982F917080FFFBCF80917B
:103C4000D8008F7D8093D8008091E1008F7E809393
:103C5000E1008091E2008F7E8093E2008091E2009B
:103C600081608093E20080917602882309F449C044
:103C700084E080937A020E94161A8091E10083FF0B
:103C800029C08091E20083FF25C08091E100877FF9
:103C90008093E10082E080937A0210927602809114
:103CA000E1008E7F8093E1008091E2008E7F80931F
:103CB000E2008091E20080618093E20042E060E0F7
:103CC00080E00E94B41C8091F00088608093F00036
:103CD0000E940A1AFF91EF91BF91AF919F918F912E
:103CE0007F916F915F914F913F912F910F900FBEF8
:103CF0000F901F90189519BC10927A020E94071A13
:103D000070CF8091E30087FD93E090937A02B3CF68
:103D10001F920F920FB60F9211242F933F934F9340
:103D20005F936F937F938F939F93AF93BF93CF9343
:103D3000DF93EF93FF93D091E900DF708091EC0067
:103D4000C82FC17080FDC0E81092E9008091F0009A
:103D5000877F8093F00078940E94CC1E1092E90037
:103D60008091F00088608093F000CD2BCF70C093DD
:103D7000E900FF91EF91DF91CF91BF91AF919F91BA
:103D80008F917F916F915F914F913F912F910F9004
:103D90000FBE0F901F901895AAE2B0E0E2EDFEE191
:103DA0000C9456208BE792E02091F100FC012193C6
:103DB000CF01F2E083389F07B9F70E94361A80914D
:103DC000E80083FF1EC180917B0290917C029A30B3
:103DD00008F017C1E92FF0E0EC51FF4D0C944120A1
:103DE000803899F0823809F00CC180917F028F7081
:103DF000873008F006C18093E9008091EB0085FBD5
:103E0000882780F91092E90006C08091770290918E
:103E10007802911182609091E800977F9093E8007A
:103E20008093F1001092F1008091E8008E77E5C058
:103E3000882309F4D3C0823009F0E3C080917D0269
:103E40008111D6C080917F028F702FEF280F26300E
:103E500008F0D7C08093E9002091EB0020FFC8C094
:103E6000933031F48091EB0080628093EB00C0C00E
:103E70009091EB0090619093EB0021E030E001C065
:103E8000220F8A95EAF72093EA001092EA008091C7
:103E9000EB008860EACF8111B4C010917D021F77DA
:103EA0008091E3008078812B8093E3008091E8008B
:103EB000877F8093E8000E94E81C8091E80080FFE3
:103EC000FCCF8091E30080688093E30082E01111D1
:103ED00083E080937A0295C08058823008F091C0C8
:103EE00080917D0290917E028C3D23E09207A1F5A6
:103EF00083E08A838AE289834FB7F894DE011396C0
:103F000020E03EE051E2E32FF0E050935700E491CF
:103F100020FF03C0E295EF703F5FEF708E2F90E0BF
:103F2000EA30C0F0C7968D939D932F5F243159F7E7
:103F30004FBF8091E800877F8093E8006AE270E0DD
:103F4000CE0101960E94F71B8091E8008B77809349
:103F5000E80057C0C096E7CF60917F027091800261
:103F6000AE014F5F5F4F0E94371BBC01892B09F4E4
:103F700048C09091E800977F9093E80089819A81EA
:103F80000E94551CE1CF8038E1F58091E800877FE1
:103F90008093E800809176028093F10045CF8111F3
:103FA00030C090917D02923060F58091E800877F6B
:103FB0008093E800909376020E94E81C809176023C
:103FC000882311F084E005C08091E30087FDFACFDB
:103FD00081E080937A020E94211A13C080917D02B1
:103FE000813079F481E0933009F080E080937802A9
:103FF0001092E9008091E800877F8093E8000E949A
:10400000E81C8091E80083FF0AC08091E800877F68
:104010008093E8008091EB0080628093EB00AA9689
:10402000E3E00C9472200895CF9380917A02882364
:10403000A1F0C091E900CF709091EC00892F8170C0
:1040400090FD80E8C82B1092E9008091E80083FD84
:104050000E94CC1ECF70C093E900CF9108950E94BA
:10406000381D10927A020895E8EDF0E080818061B9
:1040700080838AE18A95F1F700C08091D900817030
:104080000895EE0FFF1F0590F491E02D09942F92F3
:104090003F924F925F926F927F928F929F92AF92D8
:1040A000BF92CF92DF92EF92FF920F931F93CF9325
:1040B000DF93CDB7DEB7CA1BDB0B0FB6F894DEBFBC
:1040C0000FBECDBF09942A88398848885F846E84E2
:1040D0007D848C849B84AA84B984C884DF80EE802C
:1040E000FD800C811B81AA81B981CE0FD11D0FB635
:1040F000F894DEBF0FBECDBFED010895FB01DC01DA
:1041000004C08D910190801921F441505040C8F7AE
:10411000881B990B0895FB01DC0102C001900D92F0
:1041200041505040D8F70895F999FECF92BD81BD16
:10413000F89A992780B50895A8E1B0E042E050E0F0
:104140000C94C820262FF999FECF92BD81BDF89A14
:10415000019700B4021639F01FBA20BD0FB6F894CB
:10416000FA9AF99A0FBE08950396272F0E94A3206A
:104170000E94A220252F0E94A320242F0C94A3206C
:104180000196272F0E94A3200C94A220DC01CB01D2
:10419000FC01F999FECF06C0F2BDE1BDF89A319657
:1041A00000B40D9241505040B8F70895F894FFCFF5
:1041B000AE04AE04DF04DF046C050E050E050E052B
:1041C0008805F90508060806F01E181F0120181FAB
:0C41D00001204B1F6C1F0120C31FCF1FDC
:1041DC0002020100000001000000000000000401C8
:1041EC00000000040500000000000092199619F868
:1041FC0019F319EE19951901E200E900EA00B5006E
:10420C00B600B700CD008301CC008A019201940165
:10421C002102230224022502260227022A02B300CD
:10422C00B4006F007000818283E200E900EA00B5FF
:10423C0000B600B700CD008301CC008A0192019436
:10424C00012102230224022502260227022A02B39C
:10425C0000B4006F007000818283F4F5F6F73133FF
:08426C003297C6343527020029
:00000001FF
