:100000000C942F050C944C050C944C050C94A221D7
:100010000C944C050C944C050C944C050C944C051C
:100020000C944C050C944C050C94AF280C9483292B
:100030000C94CE230C944C050C944C050C944C055C
:100040000C944C050C944C050C944C050C944C05EC
:100050000C944C050C9471240C944C050C944C0598
:100060000C944C050C944C050C944C050C944C05CC
:100070000C944C050C944C050C944C050C944C05BC
:100080000C944C050C944C050C944C050C944C05AC
:100090000C944C050C944C050C944C050C944C059C
:1000A0000C944C050C944C050C944C050005010572
:1000B0000205030504050505000601060206030600
:1000C00004060506000701070207030704070507E2
:1000D00000080108020803080408050800090109CE
:1000E00002090309040905090000010002000300D8
:1000F00004000500000101010201030104010501E2
:1001000000020102020203020402050200030103CD
:1001100002030303040305030004010402040304AF
:1001200004040504808182838485868788898A8B7C
:100130008C8D8E8F9091929394A0A1A2A3A4A5A63A
:10014000A7A8A9AAABACADAEAFB0B1B2B3B4C0C1B1
:10015000C2C3C4C5C6C7C8C9CACBCCCDCECFD0D107
:10016000D2D3D4004350534C4B000A0A00556E645E
:1001700065660041646A0A004C6F776572005261DF
:1001800069736500426173650A004C41594552002C
:100190000A0A00556E64656600436C6D6B0051770A
:1001A00072740057494E004D414300004D4F444585
:1001B000000A0A0035001E001F0020002100220056
:1001C000290014001A000800150017002B00040075
:1001D0001600070009000A00E1001D001B000600D0
:1001E00019000500E300E200E00022522800A80008
:1001F0003500270026002500240023002A001300D4
:1002000012000C0018001C00340033000F000E0018
:100210000D000B00E500380037003600100011001B
:10022000E700E600E40023522C00000035001E0029
:100230001F00200021002200290014001A000900DC
:1002400013000A002B000400150016001700070019
:10025000E1001D001B00060019000500E300E2009C
:10026000E00022522800A8003500270026002500C3
:10027000240023002A0033001C0018000F000D008A
:10028000340012000C00080011000B00E5003800DB
:100290003700360010000E00E700E600E4002352AD
:1002A0002C00000001003A003B003C003D003E00F5
:1002B00035001E001F0020002100220001001E0248
:1002C0001F0220022102220201002E002D002E0218
:1002D0002F023002010001000100010001000100B5
:1002E000440043004200410040003F004500270019
:1002F00026002500240023003102270226022502C1
:1003000024022302010031003302330030002F00A9
:1003100001000100010001000100010001000100D5
:1003200001000100010001000100490046006500D4
:10033000000000000100E200E000E10000003900E0
:1003400001007A007B007C007D00000001000100BC
:100350000100010001000100010001000100010095
:10036000010001002A00067E037E5200027E4B003F
:100370002A004C004F00510050004E0001000000C8
:10038000057E0000047E0000010001000100010064
:10039000010001000000000000000000000000005B
:1003A000007C0000007E017E1D7000000000000047
:1003B0001D700000000000000000000000000000B0
:1003C0000000000001000100010001000100000028
:1003D000000000000000000000000000000000001D
:1003E000000000000000000000000000A900A800BC
:1003F000AA00000000000000AB00AE00AC0000004E
:1004000001000100010001000100000000AE00AF8A
:1004100000DA0281FFD9F1DB20A4A62EAF00A0C034
:1004200000A1C800AED580A81FD300408D142000C5
:1004300007087F0807003E5B4F5B3E003E6B4F6B3B
:100440003E001C3E7C3E1C00183C7E3C18001C57A5
:100450007D571C001C5E7F5E1C0000183C180000CD
:10046000FFE7C3E7FF00001824180000FFE7DBE701
:10047000FF0030483A060E00262979292600407FE1
:1004800005050700407F05253F005A3CE73C5A0020
:100490007F3E1C1C0800081C1C3E7F0014227F228B
:1004A00014005F5F005F5F0006097F017F00006648
:1004B00089956A0060606060600094A2FFA2940069
:1004C00008047E04080010207E20100008082A1C62
:1004D0000800081C2A0808001E10101010000C1E2E
:1004E0000C1E0C0030383E383000060E3E0E060062
:1004F00000000000000000005F000000000700078F
:100500000000147F147F1400242A7F2A1200231372
:1005100008646200364956205000000807030000B6
:10052000001C224100000041221C00002A1C7F1CEC
:100530002A0008083E080800008070300000080803
:100540000808080000006060000020100804020095
:100550003E5149453E0000427F40000072494949F2
:1005600046002141494D33001814127F10002745E1
:10057000454539003C4A49493100412111090700EC
:10058000364949493600464949291E0000001400F1
:100590000000004034000000000814224100141440
:1005A0001414140000412214080002015909060025
:1005B0003E415D594E007C1211127C007F49494931
:1005C00036003E41414122007F4141413E007F498A
:1005D000494941007F09090901003E414151730029
:1005E0007F0808087F0000417F4100002040413F14
:1005F00001007F08142241007F40404040007F02FC
:100600001C027F007F0408107F003E4141413E00F4
:100610007F09090906003E4151215E007F09192921
:10062000460026494949320003017F0103003F404B
:1006300040403F001F2040201F003F4038403F0007
:100640006314081463000304780403006159494DDE
:100650004300007F41414100020408102000004196
:1006600041417F000402010204004040404040003C
:100670000003070800002054547840007F284444B9
:100680003800384444442800384444287F00385413
:100690005454180000087E09020018A4A49C780095
:1006A0007F080404780000447D4000002040403D65
:1006B00000007F102844000000417F4000007C04BF
:1006C000780478007C0804047800384444443800F6
:1006D000FC182424180018242418FC007C080404A6
:1006E000080048545454240004043F4424003C406F
:1006F00040207C001C2040201C003C4030403C003E
:100700004428102844004C9090907C004464544C41
:10071000440000083641000000007700000000415E
:10072000360800000201020402003C2623263C0099
:10073000000000000000404040F0F8F8FF38FFF8EB
:10074000F83FF8F8FF38FFF8F8F0404040000000AC
:1007500000000080C0C0C0800000C0C08000000059
:1007600080C0C000C0C0000080C0C0000000000009
:10077000C0C0C0C0C000C0C0000000000000000039
:100780000000000000000000000000000000000069
:100790000000000000000000000000000000000059
:1007A000000000000000000000000000000000C089
:1007B000F0F8FC3E1E06010000007F4141417F0031
:1007C0007F4141417F000080C0E07E5B4F5BFEC007
:1007D0000000C000DCD7DEDEDED7DC00C000000099
:1007E0000000000000000000000000000000000009
:1007F000000000000000494949FFFFFFFFE0DFBFA4
:10080000BF00BFBFDFE0FFFFFFFF49494900000015
:1008100000001F3F6060E0BF1F007F7F071E381E83
:10082000077F7F007F7F0E1F3B716000000000008C
:100830007F7F0C0C0C007E7E007F7E0303007F7E9A
:1008400003037E7E03037F7E000F3E703C063C70F8
:100850003E0F00327B49493F7E007F7E0303001E2E
:100860003F69696F260000000000000000000003DF
:100870000F1F3F3C7870600000007F4141417F00C6
:100880007F4141417F00307B7F7830202030787F6E
:100890003B0003000F7F0F0F0F7F0F0003000000CE
:1008A0000000000000000000000000000000000048
:1008B000000000000000010101070F0F7F0F7F0FF4
:1008C0000F7E0F0F7F0F7F0F0F0701010100000048
:1008D0000000000000000001010000000000000016
:1008E0000000000000000000000000000000000008
:1008F00000000000000000000000000000000000F8
:1009000000000000000000000000000000000000E7
:1009100000000000000000000000000000000000D7
:1009200000000000000000000000000000000000C7
:1009300000000000000000000000000000000000B7
:1009400000000000000000000000000000000000A7
:100950000000000000000000000000000000000097
:100960000000000000000000000000000000000087
:100970000C0353006F0066006C00650000001A0352
:100980004A006F007300650066004100640061006A
:100990006D00630069006B00000004030904090294
:1009A0003B00020100A0FA0904000001030101005C
:1009B00009211101000122400007058103080001FF
:1009C00009040100010300000009211101000122B6
:1009D000320007058203200001120100020000001E
:1009E0000832FC870201000102000105010980A113
:1009F00001850319012AB700150126B70095017575
:100A0000108100C0050C0901A101850419012AA06B
:100A100002150126A002950175108100C00501098B
:100A200006A101050719E029E715002501950875BC
:100A30000181029501750881010507190029FF153B
:100A40000026FF0095067508810005081901290593
:100A5000950575019102950175039101C00011245E
:100A60001FBECFEFDAE0DEBFCDBF11E0A0E0B1E006
:100A7000ECEAF8E502C005900D92AC3CB107D9F75D
:100A800025E0ACECB1E001C01D92A431B207E1F762
:100A90000E94EE190C940E2C0C940000CF93C82FDA
:100AA0000E94A5178111C3E08C2FCF9108950E9459
:100AB000A51760E0882309F471C081EB91E00E94E2
:100AC0007D1B60E08CEA91E00E948F1B60E08BEA66
:100AD00091E00E948F1B8091E40260E080FF14C0CF
:100AE00087EA91E00E948F1B8091000290910102A1
:100AF0000E940B08882359F0813059F160E083E9A6
:100B000091E00E947D1B08C083EA91E0EBCF60E09A
:100B10008EE991E00E948F1B60E080E991E00E94E5
:100B20007D1B60E08AE891E00E948F1B8091FE01AE
:100B30009091FF010E940B08823041F170F08330E8
:100B400009F1843039F160E08DE691E00E948F1B5D
:100B500009C060E089E991E0DDCF60E084E891E0E0
:100B60000E947D1B60E08AE691E00E947D1B0E944E
:100B7000DC2281FB662760F984E691E00E948F1BEE
:100B800080E0089560E08EE791E0EACF60E088E7DA
:100B900091E0E6CF60E083E791E0E2CF84E291E08C
:100BA0000E947D1BEDCF24E043E062E00E946507D8
:100BB0000895CF93FB0181302EE7920709F44FC0CF
:100BC000E8F48C37910509F4ADC050F48A379105EB
:100BD00009F4DCC08B37910509F4C8C0C1E00BC033
:100BE0008D37910509F4B2C081159E47B9F7C281CE
:100BF00080E0C11138C08C2FCF91089584302EE74A
:100C0000920709F46DC0C0F482302EE7920779F1A3
:100C100083309E4719F7C2818091E4028170CC2312
:100C200009F453C0882309F449C084E00E94561592
:100C30000E94C6098FE429C085302EE7920709F487
:100C40005DC086309E4751F6C28181E0CC2309F415
:100C500063C00E9456150E94C6098AE216C0C2816E
:100C6000CC2349F281E00E945307C0E0C4CFC28187
:100C70008091E4028170CC23A1F0882349F084E0C4
:100C80000E9456150E94C60980E50E943709B3CF1D
:100C900081E00E9456150E94C60980E50E9437092E
:100CA0009DCF882349F084E00E9456150E94CD090B
:100CB00080E50E947B0992CF81E0F6CF81E00E941F
:100CC00056150E94C6098FE4E9CF882339F084E0E5
:100CD0000E9456150E94CD098FE4EBCF81E0F8CF3A
:100CE000C2818091E4028170CC2321F08111D0CFA8
:100CF0008AE4CBCF8111E0CF8AE4DBCFC28180913F
:100D0000E4028170CC2321F08111D8CF8DE4BDCFD6
:100D10008111E4CF8DE4CDCF0E9456150E94CD09FC
:100D20008AE2C7CFC28181E0CC2341F00E945615F0
:100D30000E94C60986E00E94370997CF0E94561587
:100D40000E94CD0986E00E947B0955CFC28181E0D7
:100D5000CC2331F00E9456150E94C60989E1EBCFE1
:100D60000E9456150E94CD0989E1EDCFC28181E034
:100D7000CC2331F00E9456150E94C6098BE1DBCFCF
:100D80000E9456150E94CD098BE1DDCFC28181E022
:100D9000CC2331F00E9456150E94C6098DE1CBCFBD
:100DA0000E9456150E94CD098DE1CDCF811108C05A
:100DB00089EA611101C08AEA0E94BD0981E00895B3
:100DC0008130E1F78EE46111F7CF8BE4F5CF853008
:100DD000B8F46A30A8F4463098F450E096E0699F81
:100DE000400D511D1124FA019CE3899FE00DF11D76
:100DF0001124EE0FFF1FEC54FE4F8591949108953E
:100E000080E090E008950E94E706089581E008954B
:100E10000E94D905089508950E940B070895A5E042
:100E2000B0E0E5E1F7E00C94852B49835A833091DB
:100E3000DB0189819A81311119C0662399F022233F
:100E400089F00E94EB0D182F682F89819A810E94EA
:100E5000C70D69817A81812F0E94A3142596E3E052
:100E60000C94A12B0E94D90D182FF3CF0E94EB0DEB
:100E700069817A81F1CFFC01262F40815181628105
:100E8000738184810E940F07089581E00895CF93B4
:100E9000DF93EC0160E00E943B07BE010E940C075B
:100EA000DF91CF910895CF93DF93C1E0D0E002C0EE
:100EB000CC0FDD1F8A95E2F78C2F0E943712CE01EE
:100EC0000E94EC0CDF91CF910895E1E0F0E0DF01AA
:100ED00002C0AA0FBB1F6A95E2F7BD01DF0102C085
:100EE000AA0FBB1F4A95E2F7AD01462B572B02C054
:100EF000EE0FFF1F2A95E2F79A01282339232417C2
:100F0000350719F48E2B9F2B0895E095F0958E23CD
:100F10009F2308950E94FB1508950E94FF150895D0
:100F200008950E94990C0E9490072FEF84E39CE0A3
:100F3000215080409040E1F700C0000008950E94D9
:100F400091070E94952408950E9491070E94A6246B
:100F500008950F931F93CF93DF938C0161E00E945C
:100F60003B07EC01B8010E940807811106C080E030
:100F7000DF91CF911F910F910895B801CE010E948A
:100F8000D21F8823A1F3B801CE010E94F81C882348
:100F900071F3B801CE010E94441F882341F3F80188
:100FA0008281882361F0C330FCE7DF07E9F058F461
:100FB000C115ECE7DE07A9F0C130DC47B9F0C80184
:100FC0000E940607D5CFCB358CE7D807A9F0CC35E2
:100FD000ECE7DE0771F0CA35DC4789F70E9413128F
:100FE000EECF0E949F07C3CF0E941B120E94A4074E
:100FF000BECF0E940912E3CF0E941712E0CF0E94D9
:10100000AB230E944F080E94A21C08950E9453081F
:101010000E94B0230895292F332740E02115310580
:1010200011F0C90148E09C0164E0369527956A9566
:10103000E1F72115310511F04C5FC9019C0136958E
:101040002795369527952115310511F04E5FC90179
:1010500096958795892B09F04F5F842F0895089501
:101060000E942F08089581E008950895CF93DF939B
:10107000D82F0E943308C82F882319F08D2F0E9483
:1010800035088C2FDF91CF9108950895CF93C82F05
:101090000E9430088C2F0E943608CF91089580E07E
:1010A0000E94460808950E94C8220E94460808959A
:1010B000CF930E94C822C82F8091CE018C1779F05F
:1010C000C093CE010E943A246093CF017093D00167
:1010D0008093D1019093D2018C2F0E944608CF912A
:1010E0000895442319F08091DD0108959C0143E0A7
:1010F000369527954A95E1F7620F731F87709927F8
:1011000021E030E001C0220F8A95EAF7FB019081CF
:10111000922381E009F480E00895FC01E770FF2745
:1011200021E030E001C0220FEA95EAF733E096951E
:1011300087953A95E1F7FB01E80FF91F8081442379
:1011400019F0282B2083089520952823FBCF0F9397
:101150001F93CF93DF938C01DC0111968C91119733
:101160008A3048F5CC91C63030F5D0E0B6E08B9FA0
:10117000C00DD11D1124F801428163ED71E0CE0153
:101180000E94710840E0882389F0CE01880F991FE2
:10119000FC01E355FF4FE491D8011196EC931197B0
:1011A000FC01E455FF4FE491EC9341E063ED71E005
:1011B000CE010E948D08DF91CF911F910F9108956C
:1011C000ABE0B0E0E6EEF8E00C94862B4F83588756
:1011D00069877A878B8761110E9454118A859B8564
:1011E000892B29F08F81988589238F3F39F51E82BD
:1011F0001D8285E0FE013796DE01119601900D9269
:101200008A95E1F78C819D81892B61F449815A810E
:101210006B817C818D819E810E9457102B96E2E02C
:101220000C94A22B89819A8189238F3F79F3CE0177
:1012300001960E9445078111E9CFF0CFCE010796B4
:101240000E94A708D4CFFC01808191810E941D0ECD
:1012500092959F70963051F4863F41F08091DD0168
:1012600091E089278093DD019093DC010895CF936D
:10127000C82F8823B9F08CEF8C0F813AA8F46C2F1B
:1012800080910001909101010E944623882329F05A
:101290008C2F0E94EE100E9475118C2F0E94E61078
:1012A0000E947511CF91089580E28C0F883048F428
:1012B000C77081E001C0880FCA95EAF70E94371114
:1012C000EFCFEBE5EC0FE33040F4F0E0E159FE4FF7
:1012D000808190E00E94EA22E5CFC85AC93110F718
:1012E000EC2FF0E0EE0FFF1FE35CFE4F8081918159
:1012F0000E940F23D7CF882339F19CEF980F913AA2
:1013000028F40E94EE100E947511089590E2980F43
:10131000983050F4877091E001C0990F8A95EAF7F0
:10132000892F0E943D11EFCF9BE5980F933028F451
:1013300090E080E00E94EA220895885A893120F4E2
:1013400090E080E00E940F2308951F93CF93DF93D6
:10135000182FEB010E943709209739F4812F0E9442
:101360007B09DF91CF911F9108958FE99FE001974D
:10137000F1F700C000002197EFCF6AE070E08933F9
:1013800011F460E570E00E94A5090895882321F01A
:101390000E9437110E9475110895882321F00E9440
:1013A0003D110E9475110895B0E0A0E0EAEDF9E06A
:1013B0000C947F2B6C01C62F172FFC01D281058165
:1013C00002950F700E942D11E82E8823D1F0DD23A5
:1013D00029F1812F807F803441F090E29C0F98307A
:1013E000E8F0803611F4C63FC9F08091E40282FF34
:1013F00015C082E00E94D8110E942D1191E0E82EC4
:10140000E926B12EB2949FE0B922FBE0FB15C0F1B2
:10141000EB2DF0E0E05FF34D0C94702BE12CF1CF5D
:10142000012F0F70812F807F11F00295007FDD2347
:1014300099F0002359F080E28C0F883010F0C11130
:1014400007C0802F0E9437110E9475118C2F6DC02C
:10145000802F0E944711F8CF8C2F0E947B09002318
:1014600079F080E28C0F883010F0C11104C0802F19
:101470000E943D1103C0802F0E944D110E947511E2
:101480002B2D2850330B2430310520F40E94C82224
:101490000E944608DD2339F0107F103611F4C63F54
:1014A00011F00E942011EE2089F00E94031180FDAE
:1014B0000DC0F60112820E94FD100E94250DC6018A
:1014C0000E945D0C0E94FD100E94350DCDB7DEB765
:1014D000E9E00C949B2B212F2F70F22E812F807F1F
:1014E000803219F0F29480EFF822CC2381F0C130E1
:1014F00009F449C0DD2309F451C0002309F448C0B0
:10150000F601858180FFA2CF8F70858341C08091D5
:10151000E40282FD15C0DD2359F0FF2029F08F2D54
:101520000E9437110E94751180E00E943709A8CFF0
:1015300080E00E947B09FF2009F4A2CF8F2D98CF75
:10154000DD2381F0011106C00E9457118F290E94EE
:10155000C60996CF0130C1F70E9457118F290E940A
:101560005E118ECF011106C00E946B118F2D0E945B
:10157000CD0986CF013009F483CF8F2D0E94CD098C
:101580000E946B117DCFDD2329F0063008F078CF63
:101590008F2DDDCF053008F073CFE8CF002331F376
:1015A000C93309F009C1FFEF27EE33E0F1502040C5
:1015B0003040E1F700C000008C2F0E947B0960CF13
:1015C000812F86958695837069F0813009F058CF18
:1015D0008C2F912F9370D11102C080E090E00E9477
:1015E0000F234ECF8C2F912F9370D11102C080E02A
:1015F00090E00E94EA2244CF812F8370A9F5D11197
:101600003FCF2C2F229526952770220F220F4C2F8B
:101610004F7050E0022E02C0440F551F0A94E2F7AB
:1016200090E080E0C4FF09C08FE090E002C0880F26
:10163000991F2A95E2F780959095212F269526955A
:101640002370842B952B223049F058F4213019F067
:101650000E94F80C15CF0E94EF0C12CF0E94010DD2
:101660000FCF0E94EC0C0CCF8695DD2311F0812F5B
:101670008170882309F404CF2C2F2295269527709A
:10168000220F220F4C2F4F7050E0022E02C0440F49
:10169000551F0A94E2F790E080E0C4FF09C08FE094
:1016A00090E002C0880F991F2A95E2F780959095E7
:1016B000212F269526952370842B952B223049F0D7
:1016C00058F4213019F00E94600DDACE0E94570DB7
:1016D000D7CE0E94690DD4CE0E940D0DD1CE012F20
:1016E0000F70DD2329F0802F0E94250D8C2F2FCF26
:1016F0008C2F0E94CD09802F0E94350DC1CEC23F94
:1017000041F160F4C03FB9F0C13F81F0DD2309F43D
:1017100047C001119BCE812F8F711FC0C33F01F1C4
:10172000C43FA1F78091E40282FD24C0812F8F7114
:10173000DD2311F312C0DD2341F0053008F0A0CE07
:10174000812F8F710E94470D9BCE063008F098CEF6
:10175000F7CF812F8F71D111CFCF0E94250D90CE61
:10176000DD2329F0812F8F710E94190D89CE0E94EF
:10177000140D86CEDD2351F0012F0F71802F0E94B2
:10178000250D63E0802F0E94BA117ACE81E00E947D
:10179000D811023008F474CE82E00E94D81170CEC5
:1017A000002379F0C93341F49FEFE7EEF3E0915065
:1017B000E040F040E1F7FECE8FE39CE90197F1F7BE
:1017C000F9CE812F8F7198CFE0E1EC0FE73090F5E3
:1017D000F0E0E45EF34D0C94702BDD2309F450CE61
:1017E0008091DD0191E089278093DD0149CED0937E
:1017F000DD0146CE81E08D27F7CF81E0DD23A1F327
:101800003FCED1113DCE1092DD013ACEDD2319F04D
:101810000E94071135CE0E94131132CEDD2339F01C
:101820008091DC018823E1F21092DC0129CE0530A1
:10183000B8F226CE8091DC010023D9F0882341F054
:101840008091DD0191E089278093DD011092DC0118
:10185000D111FCCDEFE3FCE93197F1F700C00000B6
:101860008C2F0E947B0986E0F60111928A95E9F798
:1018700007CE882309F404CED11102CE8091DD0178
:1018800091E089278093DD01CFCF0F931F93CF93F2
:10189000DF93EC01688179818A810E94280E8C0196
:1018A0000E94720D0E94EB0CB801CE010E94D40977
:1018B000DF91CF911F910F910895CF93DF93EC01AA
:1018C0008B819C81892B29F08881998189238F3F85
:1018D00051F4DF91CF910895CE010E94450CCE01C5
:1018E0000E944707F6CFCE010E94A9078111F4CFCD
:1018F0000E942D11882369F38A81882351F38091F6
:10190000E40282FFE6CF82E00E94D811E2CF90E0AD
:1019100080E00E94EA2290E080E00E940F230E9473
:1019200054110E94751108950E94F6100E94870CB0
:1019300008950E9444110E94940C089592959F70FE
:10194000963091F058F4925F9F70923058F4803F37
:1019500019F030F4883E30F481E008959A5FF4CFB6
:10196000843FD1F380E00895883EB0F3813FD1F702
:10197000F3CFFC0183819481892B29F080819181AF
:1019800089238F3F11F480E00895808191810E9426
:101990001D0E0E949E0C0895A5E0B0E0E2EDFCE073
:1019A0000C94862B2596E2E00C94A22BA6E0B0E0E6
:1019B000ECEDFCE00C94862B2696E2E00C94A22B36
:1019C00008950E94E00C08950E94E10C909301029A
:1019D00080930002089508950E94E40C08952091D8
:1019E000000230910102822B932B0E94E40C089597
:1019F0002091000230910102822393230E94E40C83
:101A000008952091000230910102822793270E94BD
:101A1000E40C08950E94D30508950E940A0D909346
:101A2000FF018093FE01089590E080E00E940D0D7B
:101A3000089521E030E0A90102C0440F551F8A95A6
:101A4000E2F7CA010E940D0D089521E030E002C0C6
:101A5000220F331F8A95E2F78091FE019091FF01DA
:101A6000822B932B0E940D0D089521E030E002C0DF
:101A7000220F331F8A95E2F7209530958091FE0161
:101A80009091FF01822393230E940D0D089521E080
:101A900030E002C0220F331F8A95E2F78091FE01E9
:101AA0009091FF01822793270E940D0D08952091A8
:101AB000FE013091FF01822B932B0E940D0D0895A2
:101AC0002091FE013091FF01822393230E940D0D8E
:101AD00008952091FE013091FF01822793270E94F3
:101AE0000D0D08950895262F277091E001C0990FDC
:101AF0002A95EAF723E0769567952A95E1F7660F30
:101B0000771F660F771FFA01E60FF71F50E040E0DE
:101B1000682F70E08191DF0111979B01042E02C0B4
:101B2000369527950A94E2F72170219528272923D5
:101B300028272C934F5F5F4F4430510559F7089584
:101B4000A82FA77023E0969587952A95E1F7880F2F
:101B5000991F880F991FFB01E80FF91F50E040E023
:101B600080E0219130E00A2E02C0369527950A9434
:101B7000E2F721703327042E01C0220F0A94EAF7FE
:101B8000822B4F5F5F4F4430510559F70895262F40
:101B90009A3070F4863060F4682F70E086E0989F89
:101BA000600D711D11244EED51E0822F0E94730DC6
:101BB0000895292F9A3068F4863058F490E06EED3D
:101BC00071E036E0239F800D911D11240E94A00D2D
:101BD000089580E00895B0E0A0E0E1EFFDE00C940E
:101BE0007F2B7C010091FE011091FF01809100028A
:101BF00090910102082B192BCFE0D0E0CC24C394A4
:101C0000D12CBC2EC6010C2E02C0880F991F0A943D
:101C1000E2F780239123892B49F4219790F7B12C87
:101C20008B2DCDB7DEB7E9E00C949B2BB7018C2F41
:101C30000E94AF14019789F3F3CFCF93DF93EC01A8
:101C40000E94EB0DBE010E94AF14DF91CF91089569
:101C50001F93CF93DF93EB019091DB01992339F030
:101C6000CB010E941D0EDF91CF911F910895882313
:101C700069F0CB010E94EB0D182F682FCE010E9456
:101C8000C70DBE01812F0E94AF14EDCFCB010E9482
:101C9000D90D182FF6CF1F93CF93DF93C091020277
:101CA00016E0809103028C1304C0DF91CF911F9145
:101CB0000895D0E01C9FF0011D9FF00D1124EC5FF2
:101CC000FD4F4081518162817381848195810E94A1
:101CD000D60C2196C770E5CF409134025091350261
:101CE00060913602709137028091380290913902EA
:101CF0000E94D60C08951F93CF93DF9380913902F1
:101D0000807F09F049C080913602882309F444C0DD
:101D100080910202C09103026091340270913502F9
:101D2000A0913702B0913802D62FD72316E0C817FA
:101D300099F190E0109711F0DF3F19F40196877048
:101D4000F6CF189F9001199F300D1124F901EC5F17
:101D5000FD4F41814713F2CF40814613EFCF4281BF
:101D60004111ECCF438154814A1B5B0B4436510532
:101D700028F7809139028F70806180933902F901D0
:101D8000E75FFD4F80818F708061808384E392E004
:101D90000E945D0C0E944B0EDF91CF911F91089520
:101DA000A1E1B0E0E6EDFEE00C947E2B8C0185E035
:101DB000F801DE011D9601900D928A95E1F7F80178
:101DC000E28084E3C82E82E0D82E609137027091C1
:101DD00038026115710509F44EC1909134022091C9
:101DE0003502892F82238F3F09F445C140815181FB
:101DF000A380B480F0903602F501E61BF70BFF20BC
:101E000009F4EAC080913902382F307FE436F105B9
:101E100008F0A3C031116DC0FE2C251316C0941319
:101E200014C0E11012C08F708061809339020E944B
:101E30006C0EC6010E945D0C80913902F801858309
:101E40008F2D6196EAE00C949A2BA114B10429F02D
:101E5000842F85238F3F09F027C180E0F82FF17090
:101E6000DF2E80FF3CC0809102022091030236E009
:101E7000821315C04D875E878D859E850E941D0E3D
:101E8000292F22952F702230F0F0243018F59F7002
:101E9000F1F0F8019581907FD1F4D12C1EC090E033
:101EA000389FF001399FF00D1124EC5FFD4F6181E7
:101EB000651306C06081641303C06281E6120FC01F
:101EC00001968770D5CF9F7011F0882331F3805E23
:101ED000883018F3C8010E945D0CFD2CB1CFEE20B4
:101EE00009F4AECF80913902816080933902F12CE0
:101EF000A7CF251306C0941304C0F801EE2009F4FF
:101F000087C0C8010E94B90C882319F1EE2009F19D
:101F100080913902803270F0209134023091350284
:101F200038872F831986BB86AA868C87CE010796B1
:101F30000E945D0C86E0F801A4E3B2E001900D92EE
:101F40008A95E1F70E947B0E0E946C0EFF24F394A9
:101F500077CFC8010E945D0CF9CF311113C07A2DE3
:101F6000B98AA88A6E2D89890E94CC0C84E392E0FC
:101F70000E945D0C86E0F60111928A95E9F70E94B5
:101F80006C0EB5CF25130FC094130DC0E1100BC01C
:101F9000F8018583C8010E945D0C86E0F60111926C
:101FA0008A95E9F74DCFC8010E94B90C882389F2C0
:101FB000EE2079F280913902803208F4BBCF209173
:101FC0003402309135023A8329831B82BD82AC8270
:101FD0008E83CE010196ACCFE436F10508F03EC009
:101FE000FE2CEE2009F4B5CF25132AC0941328C087
:101FF0008091390280FD1BC0982F907FC1F0F801BD
:102000008583903F31F0982F907F905F8F70892B60
:102010008583C8010E945D0C86E0F801A4E3B2E06C
:1020200001900D928A95E1F70E946C0E09CF86E02F
:10203000F801A4E3B2E001900D928A95E1F700CF98
:10204000C8010E94B90C811175CF8091390281605D
:1020500080933902C8010E945D0CF2CE7A2DB98AB4
:10206000A88A6E2D89890E94CC0C86E0F601119217
:102070008A95E9F7D9CFEE2009F46BCFC8010E9409
:10208000B90CF82E882309F464CF86E0F801A4E3A4
:10209000B2E001900D928A95E1F784E392E00E940C
:1020A00023090E947B0EC0CF81E08E25D7CEACE005
:1020B000B0E0EDE5F0E10C94852B4F8358876987FC
:1020C0007A878B879C87CE0107960E94D00E882343
:1020D00069F08A859B85892B39F04F815885842F3B
:1020E00085238F3F09F06BC016E05FC086E0FE01DC
:1020F0003796DE01119601900D928A95E1F78A8557
:102100009B85892B89F388859F8189238F3F61F384
:102110002091030230E0C901019687709927409110
:1021200002024817190671F40E94990C10920302DA
:102130001092020286E0E4E3F2E0DF011D928A954C
:10214000E9F7D2CF96E0929FD001939FB00D112472
:10215000AC5FBD4FFE01319601900D929A95E1F76B
:10216000809303020E944B0EBFCF819FC0011124B8
:102170008C5F9D4F0E94D00E8823E9F0E09102020F
:102180001E9FF0011124EC5FFD4F4081518162815F
:102190007381848195810E94D60C8091020290E027
:1021A0000196877099278093020280910202909194
:1021B00003028913DACF2C96E3E00C94A12B6985F6
:1021C0007A858B859C850E94D60C8ECF682F809156
:1021D0000001909101010E947C230895682F809155
:1021E0000001909101010E947F23089580910001D8
:1021F000909101010E948223089580914302859568
:10220000859585950895809143028770089582E0B1
:102210008093420281E08093DD0108951092420292
:102220001092DD01089580914202823021F481E014
:10223000809342020895833011F40E940E11089594
:1022400080914202823021F483E08093420208951B
:10225000813011F40E940E110895909143029770FD
:1022600081E009F480E0089580914E0208959091F4
:102270004E02892B80934E020895809590914E02D4
:10228000982390934E02089510924E0208959091D3
:102290004D02892B80934D020895809590914D02B7
:1022A000982390934D02089510924D0208958091C5
:1022B0004402089508950E945A1108959091E402ED
:1022C00092FF08C090914402981721F08093440235
:1022D0000E945B11089580914402882329F0109296
:1022E000440280E00E945B110895CF93DF93E09158
:1022F0000001F091010180914E028083E091000184
:10230000F0910101808190914D02892B8083909101
:102310004402992381F0E0910001F0910101808154
:10232000892B808380910001909101010E943423C8
:1023300081110E946B11C0910001D091010148E010
:1023400050E06AE372E0CE010E94B62B892B59F06F
:1023500088E0FE01AAE3B2E001900D928A95E1F7D0
:10236000CE010E94DF22DF91CF91089508950E944F
:10237000B61108959091E40292FF11C098E0899FF0
:1023800090011124622B609343020E94250D8091DD
:1023900043028595859585950E94B71108950E9401
:1023A000250D08951092430280E00E94B711089510
:1023B000909143028095892380934302282F2770B0
:1023C00091F4282F082E000C330B9217130659F0A6
:1023D0009091E40292FF07C08595859585950E94AE
:1023E000350D0E94D21108959091E40292FB2227AC
:1023F00020F9281769F080FB92F99093E40280910C
:10240000E3029091E4020E94421282E00E94D811FD
:1024100008958091E40282FB882780F991E0892762
:102420000E94F411089581E00E94F411089580E063
:102430000E94F41108956FEF7FEF90E080E00E941A
:10244000F82B089590E080E00E94D42B21E0873E95
:102450009E4F09F020E0822F089582E090E00E94D4
:10246000CC2B089583E090E00E94CC2B0895682F38
:1024700083E090E00E94DA2B089584E090E00E94CF
:10248000D42B0895BC0184E090E00E94F82B0895BD
:10249000AB01BC018FE090E00E94EC2B0895AB01F2
:1024A000BC0183E190E00E94EC2B089560E070E0B5
:1024B000CB010E944F12089560E070E0CB010E94B2
:1024C00048120E945612089567EE7EEF90E080E079
:1024D0000E94F82B60E082E090E00E94DA2B60E03E
:1024E00083E090E00E94DA2B109201021092000229
:1024F00060E074E184E090E00E94F82B60E086E008
:1025000090E00E94DA2B6FEF87E090E00E94DA2BD8
:1025100040E050E0BA0188E090E00E94EC2B60E0DF
:102520008DE090E00E94DA2B40E050E0BA0188E1B3
:1025300090E00E94EC2B60E087E190E00E94DA2BB3
:1025400040E050E0BA018CE190E00E94EC2B70E09A
:1025500060E080E290E00E94F82B40E050E0BA0199
:1025600088E190E00E94EC2B0E945C1208950E948A
:1025700064120895682F8EE090E00E94DA2B08958F
:102580000E943A2460936302709364028093650210
:102590009093660260935F02709360028093610281
:1025A0009093620208950E943A24609363027093AC
:1025B0006402809365029093660260935B0270935D
:1025C0005C0280935D0290935E02089508950895E1
:1025D0000E94E712089508950E94EB12089589ED74
:1025E00095E10E94BE220E94E6120E94E812089520
:1025F0000E94A5170895089508950E94FB120E9455
:10260000FC1208950E94DC150E94450808950E945E
:1026100025240E9499150E94C0170E94E11D0E9466
:1026200006170E9402130E94FB1980E00E94531AB1
:102630000E94CA170E94EC120895AAE0B0E0E3E2FB
:10264000F3E10C947E2B0E94291781E5A82E82E0ED
:10265000B82E750110E0F70101917F01812F0E94D2
:1026600002161F5F1A3009F441C00817A1F38091C8
:10267000670281FD0E9408160E94F812C82E10E021
:10268000812F0E940216082FF50181915F01081722
:1026900031F1F12CEE24E394D02ED8268D2D8E210D
:1026A000B1F0CC20A1F0FE821F8391E0802F8E211B
:1026B00009F490E098870E942E248160782F9A87F1
:1026C00089874E815F8168858A850E94E008F3943E
:1026D000EE0CF6E0FF12E2CFF501319700831F5FA9
:1026E0001A3071F60E94C01211E021C00813BFCF4A
:1026F0000E942E248C0180914F0290915002081765
:102700001907A1F08FEF89838A831B820E942E24F0
:102710008160782F9D838C8349815A816B818D8163
:102720000E94E0081093500200934F0210E00E94B4
:10273000A5170E94651E082F81110E94D3120E94C6
:10274000C01C111101C001110E94951B0E94580864
:102750002A96EAE00C949A2BCF93DF930E94B4144C
:10276000EC01811522E5920708F04BC0811530E598
:10277000930708F0DBC0803E910518F58D3C91056C
:1027800008F083C0883A910570F4853A910508F005
:1027900074C081309105F9F00097E9F00497D8F4FE
:1027A000D0E0C0E018C0813C9105D0F7C85AD0E015
:1027B000CC0FDD1FCE58DE4F0990D881C02DD464D8
:1027C0000AC08115904258F4C11581E0D80718F469
:1027D000C83ED10528F7CE01DF91CF910895C115EC
:1027E00090E4D90708F053C08D2F8F710E945615C1
:1027F00090E0982F882788279F719C012C2BE90156
:102800002BC0803822E59207A8F4803632E5930782
:1028100008F069C0803442E5940708F04FC0C03228
:1028200082E5D807B8F1CF71D0E0DC2FCC27C16F9B
:10283000D06AD1CFC03C92E5D90780F48C2F8F713C
:10284000C03AD24508F464C00E945615C82FD0E0A3
:10285000DC2FCC27CC27DF71D062BDCFC03E32E564
:10286000D30708F45CC0CE0196558F3F910511F057
:1028700008F096CFDD27D066AECFC55AD0E0CC5554
:10288000DE4FC881D0E0D064A6CFD065A4CFDF7082
:10289000D06AA1CF2C2F2695269540E2249F900147
:1028A00011248C2F8370C1E0D0E002C0CC0FDD1F5B
:1028B0008A95E2F7C22BD32BDD688DCF282F269582
:1028C0002695277080E2289F900111248C2F837019
:1028D000C1E0D0E002C0CC0FDD1F8A95E2F7C22B29
:1028E000D32BDC6878CF282F26952695277090E289
:1028F000299F900111248C2F8370C1E0D0E002C089
:10290000CC0FDD1F8A95E2F7C22BD32BDA6863CF99
:10291000C82FD0E0DC2FCC27C46FD06A5CCFDC2F6F
:10292000CC27CC27DF71C06FD06A55CF8F710E9442
:10293000561535E0D695C7953A95E1F7CF709C2F9F
:10294000EC01D06948CF462F7A3030F4663020F45D
:10295000672F0E940307089590E080E008950E9489
:10296000A3140E94AC13089582389105B9F1B0F414
:102970008133910509F47DC048F48932910509F449
:102980006DC08A32910509F47BC0089585339105A5
:1029900009F45FC08933910509F10895833E9105DB
:1029A000D9F138F4803E910529F1823E910579F103
:1029B0000895863E9105D9F1873E910509F43EC000
:1029C000843E910541F52091E40221FF24C08091CD
:1029D000E30284FD19C087EE90E008952091E302A0
:1029E000237009F05AC02091E40223FF14C089E249
:1029F00090E008952091E30220FD38C03091E40278
:102A000030FF09C024FF43C090E080E0089520918A
:102A1000E30222FDF7CF08952091E30222FD3AC0A0
:102A20003091E40230FD39C024FFF5CFEDCF209185
:102A3000E30223FFF0CF24FDE7CFCDCF2091E302C7
:102A400023FD2EC03091E40231FFEECF84EE90E002
:102A500008952091E30225FFDECFC9CF2091E30244
:102A600025FD21C02091E40223FFD5CF89E390E02A
:102A7000D2CF2091E30226FFCECF8AE290E00895E4
:102A80002091E30226FFC7CF81E390E0089583EE13
:102A900090E0089582EE90E0089580EE90E0089531
:102AA00086EE90E0089585E390E008959091E3022A
:102AB00092FF06C0282F28712830F9F4877F8460A0
:102AC00093FF06C0282F28712831F1F4877E846196
:102AD0002091E40220FF06C0382F38713830D9F435
:102AE000877F816021FF06C0282F28712831D1F40B
:102AF000877E816194FD877E0895282F247124307C
:102B0000F9F68B7F8860DCCF282F2471243101F700
:102B10008B7E8861DDCF382F3171313019F78E7F90
:102B20008860E0CF282F2171213121F78E7E8861C6
:102B3000E1CF1092DF021092E0021092E1021092B7
:102B4000E2020895CF92DF92EF92FF926B017C0137
:102B50000E94A51781110EC00E943A24C61AD70AF6
:102B6000E80AF90AC092DF02D092E002E092E102A4
:102B7000F092E202FF90EF90DF90CF9008950F93D4
:102B80001F930E94A517882329F00E943A241F91C1
:102B90000F9108950E943A240091DF021091E00203
:102BA0002091E1023091E202600F711F821F931F9A
:102BB000EECF80E0089508950E942212811102C094
:102BC0000E94B7120E942D12809367020E943D124C
:102BD0009093E4028093E3020E94DB150E9432127C
:102BE00090E00E94EC0C8091FE019091FF010E9408
:102BF0000A0D089508950E94FA15089508950E94F7
:102C0000FE150895E82FF0E0E051FD4F8081089512
:102C1000089580EA8A95F1F7089500C008950E940A
:102C20000916089508950E9412160895A5E0B0E0CF
:102C3000ECE1F6E10C94822B0E94A517F82E60912E
:102C4000FA02882309F440C085E0E82E8E010F5F68
:102C50001F4FF8018E2D11928A95E9F7862F90E08B
:102C6000B80180519D4F0E94D8178823B9F08091F8
:102C7000E50290E045E050E0B80180519D4F0E9490
:102C8000B62B21E020936802892B91F4F12C0E944D
:102C90008D078F2D2596E6E00C949E2B809168027F
:102CA0008823A1F3F8011192EA94E9F710926802DF
:102CB000A091E502B0E0A051BD4F85E0F801019080
:102CC0000D928A95E1F7E3CF70E060517D4F8091DE
:102CD000E50290E080519D4F0E945F180E941316FC
:102CE000D8CFF894E82FE295EF70F0E031A1282FCB
:102CF0002F7081E090E001C0880F2A95EAF7982FA5
:102D00009095932391A392A1892B82A378940895FF
:102D10000F931F93CF93DF93CDEAD1E089918F3F3B
:102D200011F00E94711681E0C23BD807B9F7C7EADB
:102D3000D1E00DEA11E089918F3F11F00E947116E8
:102D40000C171D07C1F7DF91CF911F910F910895C7
:102D5000B0E0A0E0EEEAF6E10C94802BEC01D62E78
:102D6000062F10E0C80183559E4F7C01FC01808135
:102D70008F3F09F444C0F894E82FE295EF70F0E03B
:102D800091A18F7021E030E001C0220F8A95EAF70F
:102D9000892F822B81A382A12095282322A37894B6
:102DA0000E940D16E7EAF1E031E0C12C21912F3F9E
:102DB00059F1A22FA295AF70B0E090968C9190E05F
:102DC0002F7002C0959587952A95E2F780FD1CC06B
:102DD000832FC82A330F81E0ED3AF80739F7F7015E
:102DE00080818F3F11F00E94711661E0C11001C017
:102DF00060E08D2D0E940F16C00FD11FC882CDB785
:102E0000DEB7E8E00C949C2B80E0E3CF80910201D8
:102E10008091020195E0811190E09093FA0285E0A3
:102E2000891B8093E5020E9488168AE0E0EFF2E0B9
:102E3000DF01982F1D929A95E9F7E6EEF2E0DF01A7
:102E40001D928A95E9F785E00E9467170E948A071C
:102E50000895AAE0B0E0EFE2F7E10C94832B8E0135
:102E60000F5F1F4F8AE0F80111928A95E9F7F12C64
:102E70006F2DC8010E94A816F394F5E0FF12F8CF59
:102E80004AE050E0B80186EE92E00E94B62B21E0C5
:102E9000009709F420E0892B41F08AE0F801A6EEC2
:102EA000B2E001900D928A95E1F76091FA0270E02C
:102EB00060517D4F45E086EE92E00E946817182F22
:102EC0000E941616812B2A96E5E00C949F2B0895FC
:102ED000CF92DF92EF92FF920F931F93CF936C01EB
:102EE0007B01042F222349F081E080936B020E9432
:102EF0002E2490936A0280936902C0916B02C111E3
:102F00000AC0C0E08C2FCF911F910F91FF90EF90DE
:102F1000DF90CF9008958091690290916A020E949B
:102F20004624059770F310E0A801B601C7010E947E
:102F3000B62B892B41F0A801B601C7010E94C32B13
:102F400010926B02DFCFC0E0FBCF80916E02811147
:102F500007C00E942F2B882351F081E080936E02DE
:102F600081E090916E02913009F080E0089582E056
:102F700080936E020E942A2BF3CF0E94A51708951A
:102F80000E94BD17809302010E94A51781110E9423
:102F90000E1808950E94A517811102C00E941118F1
:102FA000089581E090916F029A3008F080E00895D2
:102FB0000F931F93CF93DF93EC018B0180916F02EE
:102FC0008A30B8F4B801CE010E945C18C82F811174
:102FD00022C080916F028F3FB9F40E942E249093FB
:102FE0006D0280936C028C2FDF91CF911F910F9116
:102FF000089580916C0290916D020E944624843F56
:10300000914000F7C0E0EFCF8F5F80936F028A306E
:1030100020F7C1E0E8CF10926F02E5CF0E945C215B
:1030200008950E945F210895B0E0A0E0EAE1F8E190
:103030000C94812B7901C82F880FDD0B41155105A8
:10304000A9F0FE0193E0EE0FFF1F9A95E1F7ED5F07
:10305000FE4F8181928180599D4F208130E042173F
:10306000530708F49A01A9010E94C32BCE010E94C4
:103070004822D82E8823D1F001151105B9F083E03C
:10308000CC0FDD1F8A95E1F7FE01ED5FFE4F438116
:1030900050E00417150708F4A801CD5FDE4F6C81DE
:1030A0007D8160597D4FC7010E94C32B8D2DCDB707
:1030B000DEB7E7E00C949D2B0E94781908950E94DA
:1030C00099190895A4E0B0E0E8E6F8E10C94842BA7
:1030D00060918D0270918E0280918F02909190028A
:1030E0000E94552411E0643671058105910518F19F
:1030F0000E94BF156E5F7F4F8F4F9F4F69837A830A
:103100008B839C8310E000E030E020E044E050E05E
:10311000BE016F5F7F4F84E00E941418182F882330
:1031200051F00E943A2460938D0270938E02809336
:103130008F0290939002812F2496E4E00C94A02BB0
:10314000A1E0B0E0E6EAF8E10C947B2B762E4A0190
:103150005901680101E010E09E012F5F3F4F50E0F0
:1031600040E070E060E00E941418182F882399F165
:10317000F40160817181828193810E9455246436BB
:1031800071058105910500F18701950150E040E04E
:1031900070E060E0872D0E941418B82EB701C601B8
:1031A0000E94FC1911E09981981310E01B2139F05D
:1031B0000E943A24F4016083718382839383812F78
:1031C0002196EDE00C94972BB701C6010E94FC19E3
:1031D00099818913D9CFA701B601C5010E94C32BDC
:1031E000EECFA1E0B0E0E7EFF8E10C94822B009184
:1031F000B2011091B301095F1F4FEE24E394F12C4B
:103200009E012F5F3F4F49E852E063E082E00E9459
:10321000A018182F882321F0CE0101960E94001FCC
:10322000812F2196E6E00C949E2BA5E0B0E0EBE127
:10323000F9E10C94802B6B010091B2011091B30164
:103240000F5F1F4F85E0E82EF12C9E012F5F3F4F4F
:1032500045E852E061E080E00E94A018882349F030
:1032600095E0FE013196A0E8B2E001900D929A95AA
:10327000E1F795E0E0E8F2E0D60101900D929A9531
:10328000E1F72596E8E00C949C2BB0E0A0E0EBE49D
:10329000F9E10C947E2B7C015B016A010E94D1173D
:1032A00001E010E0882311F00AE010E0C1E0D0E076
:1032B000B501C701F6010995811104C021960C17CB
:1032C0001D072CF4CDB7DEB7EAE00C949A2BCC9F07
:1032D0009001CD9F300D300D112490E080E045E34A
:1032E0004A95F1F70000019682179307C1F7E0CFE6
:1032F0000F931F93CF93DF93EC018B0145E159E1CD
:103300000E944519811106C080E0DF91CF911F9185
:103310000F91089541EF58E1B801CE010E9445197F
:10332000882391F342E658E1B801CE010E94451985
:10333000ECCFA1E0B0E0EFE9F9E10C94842B00912F
:10334000B2011091B301C801019625E0FB01DC0137
:1033500001900D922A95E1F765E070E00E94FC195A
:10336000F8018083CE0101960E94F51E8981F80143
:10337000878361E070E0CE0101960E94FC19F8019C
:103380008683608571858285938500917C0210918A
:103390007D0220917E0230917F02601771078207C3
:1033A000930751F060937C0270937D0280937E02BC
:1033B00090937F020E94A2152196E4E00C94A02B2A
:1033C0000E9405260E9407130E94122608950E945B
:1033D00017260E941D130E94312608950E94C723BC
:1033E0000E94EB250E94EF120E94E0190E94E7194B
:1033F0000E94FD12FBCF0895FC01680F791F8FEF2B
:1034000091E3E617F70709F408952191822728E050
:1034100030E087FF06C0880F892721503109C9F79E
:10342000F0CF880FFACFB0E0A0E0E9E1FAE10C9428
:10343000802B6C017B0164E670E088E70E941C2011
:10344000EC0197FD12C010E000E0F601E00FF11F63
:10345000849164E670E00E948820EC01892B29F4B5
:103460000F5F1F4F0E151F0581F70E94FE20CE0132
:10347000CDB7DEB7E8E00C949C2B0895EBEFF2E0BB
:1034800080E092E0DF019C011D9221503040E1F785
:10349000F0930205E09301058FEF9FEF9093BD023B
:1034A0008093BC0208950E943D1A0E944E058093AD
:1034B000B80280FD0FC080E88093B7020E941620FA
:1034C0006DE070E083E294E00E94131A892B21F0F2
:1034D00080E0089580E2F0CF8091B80263E070E070
:1034E00081FD26C080E294E00E94131A892B81F7A7
:1034F0006DE070E080E194E00E94131A892B41F79F
:103500000E943A24605A75418F4F9F4F6093FD048B
:103510007093FE048093FF04909300050E943E1A6E
:1035200081E08093BB028093BA021092B9020895A1
:103530008DE194E0D9CF2091B70236E0839FC0019E
:103540001124629F800D911D1124811522E09207A4
:1035500014F090E080E085509D4F90930205809399
:10356000010508952091010530910205255F324043
:103570004091B702642F70E0C9010E94482B481B9C
:10358000463010F4240F311D211582E0380710F069
:1035900030E020E025503D4F309302052093010597
:1035A00008951F93CF93DF93162F8A3039F481E06B
:1035B0000E944A1BDF91CF911F9108958D3011F425
:1035C00080E0F6CFC0910105D091020596E0FE01A2
:1035D000A1E9B2E001900D929A95E1F7803EB8F032
:1035E00086E0FE0111928A95E9F711111CC0C09185
:1035F0000105D091020546E050E0BE0181E992E06C
:103600000E94B62B892BE9F40E94B21AD3CFF6E0C0
:103610008F9FB0011124605D7B4F46E050E0CE01EA
:103620000E94AD2BE2CFE0910105F09102059F01D0
:103630002A5F3F4F2E173F07D1F2808180958193FB
:10364000F9CFCB5FD240CE0125E0969587952A959C
:10365000E1F721E030E0A90102C0440F551F8A952F
:10366000E2F7CA014091BC025091BD02842B952B18
:10367000259645E0D695C7954A95E1F702C0220FF9
:10368000331FCA95E2F7822B932B9093BD02809350
:10369000BC02BACFCF93382FE0910105F09102051B
:1036A000EB5FF2402091B702622F70E0CF010E94E1
:1036B000482B281B822F332369F066E00E943C2BA5
:1036C000C82FC15010F4CF91089560E080E20E94AD
:1036D000D11AF7CF9F01280F311D2115324018F064
:1036E00080E0F0E0E0E08E0F9F2F911D85509D4F10
:1036F0009093020580930105E6CF1F93CF93DF934C
:10370000EC01162FFE018491811104C0DF91CF914D
:103710001F910895612F0E94D11A2196F3CF0E9424
:103720007D1B81E00E944A1B08958091BB0281119C
:1037300003C08091BA0208950E943A24605A7541EC
:103740008F4F9F4F6093FD047093FE048093FF049E
:10375000909300058091BA028111EBCF62E070E096
:103760008EE094E00E94131A892B19F781E0809370
:10377000BA02DFCFB0E0A0E0E0ECFBE10C947A2BE2
:103780008091BC029091BD02892B09F4BDC080914B
:10379000BB02882309F4B8C08091B9028111B4C07A
:1037A0000E94951B2091BC023091BD02211531056C
:1037B00009F4AAC080E041E050E0082F10E0EA01DF
:1037C000082E02C0CC0FDD1F0A94E2F7BE0162236F
:1037D0007323672B11F48F5FF0CF9091B80290FFA5
:1037E00098C0880F880F880F80932D0110923001A8
:1037F000895F80932E0183E08093310124E630E0DD
:1038000047E050E06BE271E088E70E94B620892B28
:1038100009F07AC0A80125E0440F551F2A95E1F769
:103820008091B80280FF87C0E7E9F2E080E2DF0123
:103830001D928A95E9F708EB11E084EBE82E81E010
:10384000F82E97E0992E88248394D801ED918D016C
:10385000D7016D917D01640F752F711D65507D4FEE
:10386000F0E0E956FD4F30E020E0792C721AA82CE8
:10387000022E01C0AA0C0A94EAF76B0190E0D6016F
:103880008D916D018A21A72DA91BA770BA2E0A2E32
:10389000000CBB0B682E01C0660CBA94EAF7B62C7C
:1038A000B195A195B109A770BB2701C08695AA95CE
:1038B000EAF7A62DA82B80818A2B80839F5F983002
:1038C000F1F62F5F3F4F31962830310571F681E0D8
:1038D0000C3B180709F0B9CF04E610E020E230E015
:1038E00047E952E060E488E70E94D720892B61F421
:1038F000C095D0958091BC029091BD02C823D92378
:10390000D093BD02C093BC02CDB7DEB7EEE00C94FD
:10391000962B8295880F807680932D01980136959D
:1039200027953695279520933001815E80932E014F
:103930001092310163CF45505D4F04E610E020E264
:1039400030E0D0CF8091BA029091BB02911103C0B8
:1039500091E089270895882369F062E070E08CE0A7
:1039600094E00E94131A892B19F08091BA020895ED
:103970001092BA028091BA02EBCF0E9457050895C7
:103980000F931F938091BB02882379F18091FB04F0
:103990009091FC040E944624C29760F00E942E245D
:1039A0009093FC048093FB0460E080E00E949B1AEB
:1039B0000E94BD1C0E94BA1B8091BA028823A9F004
:1039C0000E943A240091FD041091FE042091FF040E
:1039D00030910005601B710B820B930B6F3F7F4F83
:1039E0008F4F9F4710F40E94A21C1F910F910895C2
:1039F000CF93DF93EC01FB018281882309F4D2C0CD
:103A00009E0130572332310508F0B2C00E943D12AA
:103A10009093E4028093E302FE01E150F047E2322A
:103A2000F10520F4ED5DF34D0C94702B8091E302D1
:103A300081608093E30293C08091E4028860809368
:103A4000E4028DC08091E3028260F3CF8091E302B3
:103A50008460EFCF8091E3028860EBCF8091E40235
:103A60008160EDCF8091E4028260E9CF8091E30232
:103A70008061DFCF8091E3028062DBCF8091E3023F
:103A80008064D7CF0E94990C8091E3028068D1CFE7
:103A90008091E3028C60CDCF8091E4028360CFCF30
:103AA0008091E3028E7FC5CF8091E402877FC7CFEC
:103AB0008091E3028D7FBDCF8091E3028B7FB9CFF0
:103AC0008091E302877FB5CF8091E4028E7FB7CFEC
:103AD0008091E4028D7FB3CF8091E3028F7EA9CFE6
:103AE0008091E3028F7DA5CF8091E3028F7BA1CFF0
:103AF0000E94990C8091E3028F779BCF8091E30223
:103B0000837F97CF8091E4028C7F99CF8091E302ED
:103B100082FB992790F921E0922790FB82F990FB94
:103B200083F987CF8091E402982F909591708E7FD2
:103B3000892B90FB81F983CF9091E302892F8F7BB2
:103B400096FF806476CF0E94990C9091E302892FB2
:103B500097FB87F980586DCF81E00E94BA1280915F
:103B6000E3029091E4020E9442120E94990C80E0CC
:103B7000DF91CF91089580E0F0CF9091E302892FFB
:103B80008F7E94FF806155CF9091E302892F8E7FC5
:103B900090FF81604ECF9091E402892F877F93FF41
:103BA00088604DCF81E0E4CF8FE891E00197F1F795
:103BB00000C0000008950E94D60608950E94A5172F
:103BC00008950F931F93CF93DF939091020181E0AB
:103BD00098279093C202282F291B2093C10290910D
:103BE00002018093C302909102018093C0028091F0
:103BF0000201811106C084EF8093330185EF809329
:103C0000320120913301E22FE295EF70F0E061A1E3
:103C10002F7081E090E0AC0101C0440F2A95EAF7D3
:103C2000342F3095362331A322A1242B22A32091B7
:103C30003201E22FE295EF70F0E031A12F7001C068
:103C4000880F2A95EAF7982F9095932391A392A134
:103C5000892B82A30E94D41D6091C30246EC52E0DE
:103C6000C3E3D1E002E311E0FA0126C02991822FDB
:103C700082958F7090E0DC0190968C9190E02F708F
:103C800002C0959587952A95E2F78170D8019D919C
:103C90008D01292F22952F7030E0D90190962C911B
:103CA00030E09F7002C0359527959A95E2F790E035
:103CB00020FD92E0892B81938E2F841B8617B0F212
:103CC000DF91CF911F910F910895B0E0A0E0EBE656
:103CD000FEE10C94802B10E000E082E0C82ED12C95
:103CE0008091C302181730F0802FCDB7DEB7E8E01F
:103CF0000C949C2BC12FD0E0FE01ED5CFE4F808127
:103D0000E82FE295EF70F0E0E0A1F0E08F7002C0E4
:103D1000F595E7958A95E2F7E170DE01AE5CBE4F5E
:103D20004C91A42FA295AF70B0E090968C9190E04A
:103D30004F7002C0959587954A95E2F780FD4DC07A
:103D400080E08E2BDE01AA53BD4FEC919E2F937025
:103D5000981709F440C0EE0FEE0FE82BEC93E090BB
:103D6000C202E10EEF70F0E0E454FE4FCC53DD4FA1
:103D700080819881890F8883F12C823084F0EE2D28
:103D8000F0E0E254FD4F80818F5F80830E94DE1D52
:103D9000F82E882321F160E08E2D0E94DB1D8881A2
:103DA0008F3F84F4EE2DF0E0E254FD4F808181508E
:103DB00080830E94DE1DF82E8823A1F061E08E2D05
:103DC0000E94DB1D8881082E000C990BB6010E9411
:103DD0005C2B88830F291F5F83CF82E0B2CFFF2443
:103DE000F394DDCFFF24F394EDCF4091C30250E074
:103DF0006091C20270E062547D4F0E94C32B08950F
:103E0000B0E0A0E0E6E0FFE10C94802B6C01D0E094
:103E100080E09091C002D91740F081110E94D31226
:103E2000CDB7DEB7E8E00C949C2BF090C102FD0EFC
:103E30000F2D10E002541D4FF601ED0FF11DC08152
:103E4000F8019081C91BEC2E1E1444F09C2FC7FD75
:103E500090E0C91BC1110DC0DF5FDBCFEA94F80110
:103E600080818F5F808360E08F2D0E94DB1D81E069
:103E7000EBCFCF5FF80180818150808361E08F2D8F
:103E80000E94DB1D81E0E6CFCF93DF93EB0186310B
:103E90009C4711F50E9434119A81992399F08A7AEE
:103EA00091E009F490E09093C802811109C089E281
:103EB0000E94E6100E94751180E0DF91CF91089575
:103EC00085E3F6CF8091C802811104C089E20E9487
:103ED000EE10F0CF85E3FBCF81E0EFCF0F931F9380
:103EE000CF93DF93C42FD22FFC0182818823C9F0A6
:103EF0004093CB020E942E249093CA028093C90261
:103F000080E28C0F883040F4C77081E001C0880FD8
:103F1000CA95EAF70E94C609DF91CF911F910F91D0
:103F200008951091CB02141332C08091C902909170
:103F3000CA020E9446248436910548F5C0E2CD0F9E
:103F40001D17B9F080E2810F883040F4177081E0CE
:103F500001C0880F1A95EAF70E94CD09C83048F4CD
:103F600081E09D2F977001C0880F9A95EAF70E9413
:103F7000C609802F0E94BD09C83070F6D77081E055
:103F800001C0880FDA95EAF70E94CD09C5CF80E21B
:103F90008C0F883008F6C77081E001C0880FCA9581
:103FA000EAF7F2CF0F93DB0188519C4787309105E8
:103FB000A0F5FC01EB5BF34D0C94702B06E221EEB7
:103FC00041EE6AE17CE7CD010E946E1F80E00F9117
:103FD000089507E225EE45EE6BE17CE7F4CF06E2BB
:103FE00021EE40EE68E17CE7EECF07E225EE44EEFD
:103FF00069E17CE7E8CF06E221EE42EE6CE17CE786
:10400000E2CF07E225EE46EE6DE17CE7DCCF08E289
:1040100021E045EE6EE17CE7D6CF12968C918823A5
:1040200019F01092CB02D3CF81E0D1CF1092B9001A
:104030008CE08093B8000895B0E0A0E0E2E2F0E206
:104040000C947D2BB82EEB010E942E246C01EE24E3
:10405000E394F12CC431D10560F025E0E22EF12C7F
:10406000CF3FDC0731F0CE0164E170E00E94482BC5
:104070007B0184EAA82E94E8992E1092BC00A092AD
:10408000BC000E942E248C018091BC0087FF0DC0D3
:104090008091B900887F8830F9F08091B900887FDD
:1040A0008031D1F00FEF1FEF08C0C8010E944624F5
:1040B000E816F90648F70EEF1FEFCF3FDC07E9F2ED
:1040C000C6010E944624C817D907B8F6C801CDB763
:1040D000DEB7EBE00C94992BB092BB009092BC0041
:1040E0000E942E248C018091BC0087FF0AC0809121
:1040F000B900887F883111F08034A1F610E000E02B
:10410000E5CFC8010E944624E816F90660F7D3CF30
:104110000F931F93CF93DF93EB018093BB0084E851
:104120008093BC000E942E248C018091BC0087FFEC
:1041300011C02091B900287F81E090E0283211F46D
:1041400090E080E0919581959109DF91CF911F9149
:104150000F910895CF3FDC0741F3C8010E94462428
:10416000C817D90710F78EEF9FEFEFCFB0E0A0E0B0
:10417000ECEBF0E20C94802B6B018A017901B90120
:104180000E941C20E6010C0D1D1DC017D10711F067
:1041900097FF08C024E92093BC00CDB7DEB7E8E064
:1041A0000C949C2BB70189910E948820EECFB0E03F
:1041B000A0E0EDEDF0E20C94802BC62F6A017901AE
:1041C000B8010E941C2097FD0CC0B8018C2F0E94E2
:1041D0008820E601EC0CFD1CCE15DF0511F097FFE1
:1041E00008C024E92093BC00CDB7DEB7E8E00C940A
:1041F0009C2BB80189910E948820EECF84E980939E
:10420000BC0008958EE14A9B02C08150E1F74A9BB1
:10421000FECF08955A9880E28A95F1F75A9A089548
:10422000FC013BE03A95F1F798E020E080E031E0D6
:1042300040E14A95F1F7880F4A9B02C0816023272D
:1042400042E04A95F1F7000040E14A95F1F79150BC
:1042500079F790E19A95F1F799B132E03A95F1F753
:10426000000040E14A95F1F792FB992790F99227D7
:104270002081920F90830895A1E0B0E0E2E4F1E2A2
:104280000C94822B19828C017C01E60EF11C0E1518
:104290001F0541F481E09981911180E02196E6E0CB
:1042A0000C949E2B0E940221CE0101960E941021A7
:1042B000F80181938F01EBCF529A5A9A0895529840
:1042C0005A9AEA9AE9E6F0E080818F7C808308952B
:1042D0006150770B91E001C0990F6A95EAF720E0F1
:1042E00031E0911108C0222391F05A9A80E28A9518
:1042F000F1F75A980895492F482339F05A9A2327FD
:1043000040E24A95F1F79695ECCF5A98F9CF5A9832
:10431000EDCFFF920F931F93CF93DF93EC018C01AE
:10432000060F111DC017D10729F4CDB7DEB7E5E0A0
:104330000C949F2BF9900E940A2168E08F2D0E9417
:104340006821F0CF1F920F920FB60F9211240F9396
:104350001F932F933F934F935F936F937F938F930D
:104360009F93AF93BF93EF93FF93CF93DF930F92FE
:10437000CDB7DEB719820E940221CE0101960E94BC
:104380001021082F069506950695282F2295257051
:10439000902F9570290F922F937026952695920F46
:1043A000982797708981982B09F05CC0063008F037
:1043B00059C080E18A95F1F75A9A529A82E08A951B
:1043C000F1F700C05A9888E0089F80011124D801B5
:1043D000AD5FBE4F1696ED91FC9117973097A9F0FF
:1043E0006091B2017091B30114962D913C91159793
:1043F000260F371F11968D919C911297680F791F88
:1044000013964C9113978C910995F801ED5FFE4F2F
:104410006381662351F02091B2013091B301848110
:104420009581820F931F0E9489210E940A2180E1B9
:104430008A95F1F75A9852985A9A80E18A95F1F73D
:10444000F801ED5FFE4F6081662351F02091B201CB
:104450003091B30181819281820F931F0E943C2190
:104460000E9402210F90DF91CF91FF91EF91BF91B8
:10447000AF919F918F917F916F915F914F913F91FC
:104480002F911F910F910F900FBE0F901F901895B5
:104490000F931F93CF93DF93EC0106970CF04CC062
:1044A000F894529A5A9885E08A95F1F700009C2F6B
:1044B000969595708C2F8570980F892F837096959F
:1044C000969523E0CC0FDD1F2A95E1F7980F8E011A
:1044D000092B0E940A2100C068E0802F0E946821F9
:1044E00080E18A95F1F752985A9A4A9B1EC087E05C
:1044F00090E04A991CC0FE01ED5FFE4F6381662388
:10450000F9F02091B2013091B30184819581820F3D
:10451000931F0E943C21811113C0529A5A9A789499
:10452000DF91CF911F910F91089500C0DECF0197C9
:1045300029F4529A5A9A789480E0F2CF00C0D9CFE9
:104540000E94022180E28A95F1F75A98529A80E1FE
:104550008A95F1F7CD5FDE4F6881662351F0209197
:10456000B2013091B30189819A81820F931F0E9419
:1045700089210E940A21789481E0D2CF9093CD01C5
:104580008093CC0108959093D2028093D102089534
:104590000E94A517811103C08091CC020895E0917B
:1045A000D102F091D202309729F00190F081E02DF4
:1045B0000995089580E008950E94C8220895E09129
:1045C000D102F091D202309721F00280F381E02DE8
:1045D00009950895A3E0B0E0E0EFF2E20C94862B99
:1045E0002091CF023091D00228173907A1F0909383
:1045F000D0028093CF02E091D102F091D2023097A5
:1046000051F023E029839B838A830680F781E02D84
:10461000CE01019609952396E2E00C94A22BA3E02B
:10462000B0E0E5E1F3E20C94862B2091CD023091CD
:10463000CE0228173907A1F09093CE028093CD02C5
:10464000E091D102F091D202309751F024E0298319
:104650009B838A830680F781E02DCE010196099520
:104660002396E2E00C94A22B9C012E5F3F4FAC01FD
:10467000485F5F4F80E02417350709F40895F9017A
:1046800091919F019923B9F38F5FF5CF662349F08C
:10469000FC01329608962191261729F0E817F907B0
:1046A000D1F780E0089581E008959C01FC013296E5
:1046B0009FEF80E04191461751F09F3F19F441115F
:1046C00001C0982F8F5F8630A9F79F3F09F40895A6
:1046D000290F311D97FD3A95F90162830895FC0178
:1046E000329608962191261303C0DF0111971C9280
:1046F000E817F907B9F708950E94552308950E9415
:104700006F230895029626E0FC0111922A95E9F79D
:10471000089508950E9489230895811106C081E0BB
:104720008093D3020E948A23089582E0F9CF83E028
:104730008093D3020E948A2308950E948D230895B6
:1047400081E08093D3020E948A2308950E94A023CF
:104750000895089508950E94AA230895089508953C
:104760000E94A9230895CF930E94AE230E94291787
:104770000E94AF23C0E08C2F0E940216811105C059
:10478000CF5FCA30C1F7CF91089581E0FCCF85B7E4
:10479000806885BF85B7806885BF08951F921FB662
:1047A0001F9211248F939F93AF93BF938091D40254
:1047B000811113C08091030590910405A091050516
:1047C000B09106054196A11DB11D809303059093FC
:1047D0000405A0930505B0930605BF91AF919F9185
:1047E0008F911F901FBE1F90189580910B058430EC
:1047F00031F10E94FF071092D40288E190E020E49A
:104800000FB6F894A895809360000FBE20936000C7
:1048100083B7817F846083BF83B7816083BF7894CF
:10482000889583B78E7F83BF0FB6F894A895809143
:104830006000886180936000109260000FBE089550
:104840000E94990C0E940608089582E084BD93E0BE
:1048500095BD9AEF97BD80936E0008952FB7F89499
:104860008091030590910405A0910505B09106057E
:104870002FBF08952FB7F894609103057091040538
:1048800080910505909106052FBF08959C014FB7B3
:10489000F8948091030590910405A0910505B091CD
:1048A00006054FBF821B930B0895CF92DF92EF92C4
:1048B000FF922FB7F894C0900305D0900405E090C4
:1048C0000505F09006052FBFA7019601261B370BA3
:1048D000480B590BCA01B901FF90EF90DF90CF90C0
:1048E000089578941F921FB61F9211248F939F935F
:1048F000AF93BF938091030590910405A0910505A6
:10490000B09106050196A11DB11D809303059093FA
:104910000405A0930505B0930605BF91AF919F9143
:104920008F911F901FBE1F90189587E797E7909370
:1049300001088093000888E19AE00FB6F894A895E2
:10494000809360000FBE90936000FFCF88E19AE0F3
:104950000FB6F894A895809360000FBE9093600006
:10496000FFCF8091DD02089508959B01BA019091D7
:104970000B059430E9F48F708093E9009FEF8091EC
:10498000E800915085FD06C085ED8A95F1F700009D
:104990009111F5CF8091E80085FF0AC050E040E01A
:1049A000C9010E94A3268091E8008E778093E800D9
:1049B000089543E050E0BC0182E00E94B5240895D0
:1049C000CF93DF93EC0148E050E0BC0181E00E940E
:1049D000B52488E0FE01A5EDB2E001900D928A9524
:1049E000E1F7DF91CF91089580910A05811109C007
:1049F0000E9433280E9490288091E2008460809376
:104A0000E200089510920A0508950E94A0230895D7
:104A10006091070581E0611101C080E00E94972349
:104A2000089590910B0581E0943009F080E0609149
:104A300007050E949D23089542E061EC81E00E94F9
:104A4000AF2742E261EC82E00E94AF2790910B0514
:104A500081E0943009F080E0609107050E948D2389
:104A6000089580910D05833009F461C030F48130E0
:104A7000D1F1823009F49EC008958A3009F48AC0C9
:104A80008B3009F46FC0893009F050C080910C055B
:104A9000813209F04BC08091100590911105029769
:104AA00008F044C08091E800877F8093E8008091FF
:104AB000E80082FF37C09091F3008091F2000297E6
:104AC00031F48091F100813011F0863021F4809131
:104AD000F1008093DD028091E8008B778093E800FD
:104AE0000E94E32723C080910C05813AF9F480915C
:104AF000E800877F8093E800809110059091110570
:104B0000892B61F468E085ED92E070E00E94F22666
:104B10008091E8008B778093E800089560E090E052
:104B200080E0F3CF80910B058111C1CF0895809172
:104B30000C05813AD9F78091100590911105892BC8
:104B4000A9F78091E800877F8093E8008091E800D2
:104B500080FFFCCF80913C018093F1008091E800C0
:104B60008E77BCCF80910C05813201F780911005C2
:104B700090911105892BD1F68091E800877F809371
:104B8000E8000E94E32780910E0580933C010E947B
:104B9000990C089580910C05813241F68091E800CE
:104BA000877F8093E8000E94E32780910F05809320
:104BB000DE02089580910C05813A09F0B7CF80910B
:104BC000E800877F8093E8008091E80080FFFCCFB9
:104BD0008091DE02C1CF84B7877F84BF0FB6F8947F
:104BE000A8958091600088618093600010926000B9
:104BF0000FBE80E890E00FB6F89480936100909328
:104C000061000FBE0E94A62308950E9433280E94CF
:104C10009028E2EEF0E080818460808378940E94A6
:104C20000F2B089584E391E00E94C32208958091A0
:104C30000B05853031F480910B05853019F00E9409
:104C4000202408950E94F52380910905882399F373
:104C50000E94B323882379F30E948D260E94990C29
:104C6000EACF08950E9435260895292F332723304F
:104C7000310519F168F42130310509F444C02230BE
:104C8000310509F445C090E080E030E020E025C027
:104C90002132310549F122323105A9F780E490E053
:104CA0002DE13AE061157105C1F082E390E02BEE51
:104CB00039E06130710589F0E6CF9927813091059F
:104CC00081F0009729F00297F1F6E0E7F9E002C0E1
:104CD000EAE9F9E0849190E09F01FA0131832083B1
:104CE0000895EEE7F9E0F6CF89E090E020EB39E0B7
:104CF0006115710591F389E090E029EC39E06130AC
:104D0000710559F3C0CF82E190E029ED39E0E5CF9C
:104D10008BE390E02EE939E0E0CF80E189BD82E1CC
:104D200089BD09B400FEFDCF8091D8008F7D8093AE
:104D3000D8008091E00082608093E0008091E000E4
:104D400081FDFCCF0895AF92BF92CF92DF92FF9288
:104D50000F931F93CF93DF936C01EB018A010E94A5
:104D60000228F82E811123C00115110539F0F80130
:104D700080819181C81BD90BC80ED91EB12CA12CE2
:104D80002097A9F08091E80085FD22C08091E8007D
:104D90008E778093E80001151105A1F0F80180815C
:104DA0009181A80EB91EB182A08285E0F82E8F2DC8
:104DB000DF91CF911F910F91FF90DF90CF90BF9027
:104DC000AF9008950E9402288823D1F2F82EEFCFE9
:104DD000F60181916F018093F1002197FFEFAF1AE7
:104DE000BF0ACECFFC018091120590911305861762
:104DF0009707A0F06115710529F49091E8009E775E
:104E00009093E80090E06115710551F4911108C08C
:104E10008091E80082FF34C080E00895BC01F2CFA9
:104E200080910B058823C1F18530C1F18091E800A4
:104E300083FD30C08091E80082FDEACF8091E800D8
:104E400080FFE1CF8091F3002091F200382F6115AF
:104E5000710519F02830310558F091E028303105FE
:104E600009F090E02091E8002E772093E800CBCF66
:104E700081918093F100615071092F5F3F4FE7CF1F
:104E800080910B05882341F0853041F08091E80046
:104E900083FFBECF81E0089582E0089583E0089506
:104EA000FC01809112059091130586179707A0F0D9
:104EB0006115710529F48091E8008E778093E800F0
:104EC00090E06115710551F4911108C08091E800DE
:104ED00082FF35C080E00895BC01F2CF80910B05C0
:104EE0008823C9F18530C9F18091E80083FD31C084
:104EF0008091E80082FDEACF8091E80080FFE1CF59
:104F00008091F3002091F200382F6115710519F09E
:104F10002830310558F091E02830310509F090E053
:104F20008091E8008E778093E800CBCF84918093C6
:104F3000F1003196615071092F5F3F4FE6CF8091AC
:104F40000B05882341F0853041F08091E80083FF14
:104F5000BDCF81E0089582E0089583E00895982F01
:104F6000973028F08F708093E90081E00895909346
:104F7000E900242F762F50E0981731F07091EC0063
:104F80002091ED005091F00021FD02C09F5FE8CF1D
:104F90003091EB003E7F3093EB003091ED003D7F90
:104FA0003093ED003091EB0031603093EB00709363
:104FB000EC002093ED005093F0002091EE0027FDCF
:104FC000E5CF80E0089580910C0587FF13C08091A4
:104FD000E80082FF06C08091E8008B778093E800AC
:104FE00004C080910B058111F2CF089580910B05CB
:104FF0008823D9F38091E80080FFF8CF8091E80002
:105000008E77ECCF2091E4003091E50095E6A90180
:105010002091EC00822F817020FF06C08091E80073
:1050200080FF06C080E008952091E80022FD1AC0AC
:1050300080910B05882389F0853089F08091EB0001
:1050400085FD0FC02091E4003091E5004217530721
:10505000F9F29150E1F684E0089582E0089583E04A
:10506000089581E008950E94A2280E94AA28E0EEF7
:10507000F0E0808181608083E8EDF0E080818F77CF
:10508000808319BCA7EDB0E08C918E7F8C938081DA
:105090008F7E808310920A0508950F931F93CF93FC
:1050A000DF930E94A2280E94AA28C8EDD0E0888140
:1050B0008F77888388818068888388818F7D8883C3
:1050C00019BC10920B051092070510920905109259
:1050D000080500EE10E0F80180818B7F80838881D5
:1050E0008160888342E060E080E00E94AF27E1EECB
:1050F000F0E080818E7F8083E2EEF0E0808181604D
:105100008083808188608083F80180818E7F8083A6
:10511000888180618883DF91CF911F910F910895DD
:10512000E8EDF0E080818F7E8083E7EDF0E0808124
:105130008160808384E082BF81E080930A050E94C1
:105140004D280895E8EDF0E080818E7F80831092F5
:10515000E20008951092DA001092E10008951F9283
:105160000F920FB60F9211242F933F934F935F939B
:105170006F937F938F939F93AF93BF93EF93FF931F
:105180008091E10082FF0BC08091E20082FF07C0A6
:105190008091E1008B7F8093E1000E940E2B809133
:1051A000DA0080FF19C08091D80080FF15C080917F
:1051B000DA008E7F8093DA008091D90080FF96C05C
:1051C00080E189BD82E189BD09B400FEFDCF81E0A7
:1051D00080930B050E94F4248091E10080FF19C0A8
:1051E0008091E20080FF15C08091E2008E7F809365
:1051F000E2008091E20080618093E2008091D8001B
:1052000080628093D80019BC85E080930B050E94D2
:1052100008258091E10084FF2BC08091E20084FF8B
:1052200027C080E189BD82E189BD89B5982F917041
:1052300080FFFBCF8091D8008F7D8093D800809134
:10524000E1008F7E8093E1008091E2008F7E809369
:10525000E2008091E20081608093E2008091070586
:10526000882309F449C084E080930B050E9411252E
:105270008091E10083FF29C08091E20083FF25C077
:105280008091E100877F8093E10082E080930B05AD
:10529000109207058091E1008E7F8093E10080915C
:1052A000E2008E7F8093E2008091E2008061809333
:1052B000E20042E060E080E00E94AF278091F000D1
:1052C00088608093F0000E940525FF91EF91BF91C7
:1052D000AF919F918F917F916F915F914F913F918E
:1052E0002F910F900FBE0F901F90189519BC109220
:1052F0000B050E94022570CF8091E30087FD93E0AB
:1053000090930B05B3CF1F920F920FB60F921124FB
:105310002F933F934F935F936F937F938F939F93BD
:10532000AF93BF93CF93DF93EF93FF93D091E900B7
:10533000DF708091EC00C82FC17080FDC0E8109232
:10534000E9008091F000877F8093F00078940E94BC
:10535000C7291092E9008091F00088608093F000E6
:10536000CD2BCF70C093E900FF91EF91DF91CF91EA
:10537000BF91AF919F918F917F916F915F914F916D
:105380003F912F910F900FBE0F901F901895AAE29A
:10539000B0E0EDECF9E20C94852B8CE095E02091E7
:1053A000F100FC012193CF01F5E084319F07B9F7AB
:1053B0000E9431258091E80083FF1EC180910C0579
:1053C00090910D059A3008F017C1E92FF0E0E45BE9
:1053D000F34D0C94702B803899F0823809F00CC191
:1053E000809110058F70873008F006C18093E90026
:1053F0008091EB0085FB882780F91092E90006C0B8
:105400008091080590910905911182609091E800C2
:10541000977F9093E8008093F1001092F1008091C3
:10542000E8008E77E5C0882309F4D3C0823009F004
:10543000E3C080910E058111D6C0809110058F7058
:105440002FEF280F263008F0D7C08093E900209175
:10545000EB0020FFC8C0933031F48091EB008062F4
:105460008093EB00C0C09091EB0090619093EB00B3
:1054700021E030E001C0220F8A95EAF72093EA008C
:105480001092EA008091EB008860EACF8111B4C0ED
:1054900010910E051F778091E3008078812B809317
:1054A000E3008091E800877F8093E8000E94E32773
:1054B0008091E80080FFFCCF8091E30080688093BA
:1054C000E30082E0111183E080930B0595C08058C2
:1054D000823008F091C080910E0590910F058C3DAF
:1054E00023E09207A1F583E08A838AE289834FB79C
:1054F000F894DE01139620E03EE051E2E32FF0E065
:1055000050935700E49120FF03C0E295EF703F5F96
:10551000EF708E2F90E0EA30C0F0C7968D939D9388
:105520002F5F243159F74FBF8091E800877F809328
:10553000E8006AE270E0CE0101960E94F2268091B6
:10554000E8008B778093E80057C0C096E7CF609162
:10555000100570911105AE014F5F5F4F0E9432261A
:10556000BC01892B09F448C09091E800977F909383
:10557000E80089819A810E945027E1CF8038E1F5C7
:105580008091E800877F8093E800809107058093F1
:10559000F10045CF811130C090910E05923060F539
:1055A0008091E800877F8093E800909307050E9430
:1055B000E32780910705882311F084E005C08091DE
:1055C000E30087FDFACF81E080930B050E941C2544
:1055D00013C080910E05813079F481E0933009F099
:1055E00080E0809309051092E9008091E800877FB0
:1055F0008093E8000E94E3278091E80083FF0AC0BF
:105600008091E800877F8093E8008091EB008062C2
:105610008093EB00AA96E3E00C94A12B0895CF931E
:1056200080910B058823A1F0C091E900CF70909183
:10563000EC00892F817090FD80E8C82B1092E90062
:105640008091E80083FD0E94C729CF70C093E900D4
:10565000CF9108950E94332810920B050895E8ED2C
:10566000F0E08081806180838AE18A95F1F700C053
:105670008091D90081700895991B79E004C0991F29
:10568000961708F0961B881F7A95C9F7809508959C
:10569000AA1BBB1B51E107C0AA1FBB1FA617B70758
:1056A00010F0A61BB70B881F991F5A95A9F7809574
:1056B0009095BC01CD01089597FB072E16F4009438
:1056C00007D077FD09D00E94482B07FC05D03EF497
:1056D000909581959F4F0895709561957F4F08959E
:1056E000EE0FFF1F0590F491E02D09942F923F9249
:1056F0004F925F926F927F928F929F92AF92BF92E2
:10570000CF92DF92EF92FF920F931F93CF93DF938D
:10571000CDB7DEB7CA1BDB0B0FB6F894DEBF0FBEEA
:10572000CDBF09942A88398848885F846E847D8437
:105730008C849B84AA84B984C884DF80EE80FD8039
:105740000C811B81AA81B981CE0FD11D0FB6F894AF
:10575000DEBF0FBECDBFED010895FB01DC0102C02D
:1057600005900D9241505040D8F70895FB01DC019F
:1057700004C08D910190801921F441505040C8F728
:10578000881B990B0895FB01DC0102C001900D926A
:1057900041505040D8F70895F999FECF92BD81BD90
:1057A000F89A992780B50895A8E1B0E042E050E06A
:1057B0000C94002C262FF999FECF92BD81BDF89A4A
:1057C000019700B4021639F01FBA20BD0FB6F89445
:1057D000FA9AF99A0FBE08950396272F0E94DB2BA1
:1057E0000E94DA2B252F0E94DB2B242F0C94DB2B1D
:1057F0000196272F0E94DB2B0C94DA2BDC01CB01C6
:10580000FC01F999FECF06C0F2BDE1BDF89A3196D0
:1058100000B40D9241505040B8F70895F894FFCF6E
:10582000100A100A6B0A6B0AE00A400AE40B400AED
:10583000FC0A6F0B7F0B7F0BED0B0E0CF70BFA0BBB
:10584000010CFD0B060C501DC41D581D221D261DEC
:105850005C1D2A1D601D6C1D361DBD1D3A1D701D71
:105860003E1D741D9C1D421D781DA31D481D7E1DDF
:10587000861D2E1D641D321D681D4C1D821D921D2E
:10588000AC1DBB1D1C1D541DCB1DEF1FF51FDE1FC6
:10589000E91FFB1F01200720EB29132AFC2A132AEA
:0C58A000FC2A462A672AFC2ABE2ACA2AD3
:1058AC00450201000000010000000000000005019D
:1058BC0000000000000001060000000000000107CD
:1058CC0000000004080000000000000021007F22FE
:1058DC000003F4F5B124E024B424D92401E200E956
:1058EC0000EA00B500B600B700CD008301CC008AF9
:1058FC00019201940121022302240225022602278F
:10590C00022A02B300B4006F0070009F01CB01812A
:10591C008283E200E900EA00B500B600B700CD00D2
:10592C008301CC008A0192019401210223022402FA
:10593C002502260227022A02B300B4006F00700071
:10594C009F01CB01818283F6F7313332366697C6DD
:10595C0034357002000810181810080000FF010000
:0C596C00010000FFFF0000010001FF002F
:00000001FF
