:100000000C94F0050C940D060C940D060C94BF2E68
:100010000C940D060C940D060C940D060C940D0614
:100020000C940D060C940D060C94E62B0C94BE2C2F
:100030000C9426140C940D060C940D060C940D06CD
:100040000C940D060C940D060C940D060C940D06E4
:100050000C940D060C94C22B0C940D060C940D06FA
:100060000C940D060C940D060C940D060C940D06C4
:100070000C940D060C940D060C940D060C940D06B4
:100080000C940D060C940D060C940D060C940D06A4
:100090000C940D060C940D060C940D060C940D0694
:1000A0000C940D060C940D060C940D0600AF00AEDA
:1000B0000000000000003E5B4F5B3E003E6B4F6B5C
:1000C0003E001C3E7C3E1C00183C7E3C18001C5729
:1000D0007D571C001C5E7F5E1C0000183C18000051
:1000E000FFE7C3E7FF00001824180000FFE7DBE785
:1000F000FF0030483A060E00262979292600407F65
:1001000005050700407F05253F005A3CE73C5A00A3
:100110007F3E1C1C0800081C1C3E7F0014227F220E
:1001200014005F5F005F5F0006097F017F000066CB
:1001300089956A0060606060600094A2FFA29400EC
:1001400008047E04080010207E20100008082A1CE5
:100150000800081C2A0808001E10101010000C1EB1
:100160000C1E0C0030383E383000060E3E0E0600E5
:1001700000000000000000005F0000000007000712
:100180000000147F147F1400242A7F2A12002313F6
:10019000086462003649562050000008070300003A
:1001A000001C224100000041221C00002A1C7F1C70
:1001B0002A0008083E080800008070300000080887
:1001C0000808080000006060000020100804020019
:1001D0003E5149453E0000427F4000007249494976
:1001E00046002141494D33001814127F1000274565
:1001F000454539003C4A4949310041211109070070
:10020000364949493600464949291E000000140074
:1002100000000040340000000008142241001414C3
:1002200014141400004122140800020159090600A8
:100230003E415D594E007C1211127C007F494949B4
:1002400036003E41414122007F4141413E007F490D
:10025000494941007F09090901003E4141517300AC
:100260007F0808087F0000417F4100002040413F97
:1002700001007F08142241007F40404040007F027F
:100280001C027F007F0408107F003E4141413E0078
:100290007F09090906003E4151215E007F091929A5
:1002A000460026494949320003017F0103003F40CF
:1002B00040403F001F2040201F003F4038403F008B
:1002C0006314081463000304780403006159494D62
:1002D0004300007F4141410002040810200000411A
:1002E00041417F00040201020400404040404000C0
:1002F0000003070800002054547840007F2844443D
:100300003800384444442800384444287F00385496
:100310005454180000087E0902001824241C780098
:100320007F080404780000447D4000002040403DE8
:1003300000007F102844000000417F4000007C0442
:10034000780478007C080404780038444444380079
:10035000FC182424180018242418FC007C08040429
:10036000080048545454240004043F4424003C40F2
:1003700040207C001C2040201C003C4030403C00C1
:100380004428102844004C1010107C004464544C45
:1003900044000008364100000000770000000041E2
:1003A000360800000201020402003C2623263C001D
:1003B000000000000000000000000000000000003D
:1003C000000000000000000000000000000000002D
:1003D000000000000000000000000000000000001D
:1003E000000000000000000000000000000000000D
:1005F00005010902A10185020901A10005091901EE
:1006000029081500250195087501810205010930A9
:1006100009311581257F95027508810609381581F4
:10062000257F950175088106050C0A38021581257C
:100630007F950175088106C0C005010906A1010565
:100640000719E029E7150025019508750181029534
:1006500001750881010507190029FF150026FF0013
:10066000950675088100050819012905950575018C
:100670009102950175039101C009023B000201003E
:10068000A0FA090400000103010100092111010081
:10069000012240000705810308000109040100014F
:1006A0000300000009211101000122490007058211
:1006B000032000011201000200000008EDFEA3DF8C
:1006C0001000010200011A0374007200650061004D
:1006D0006400730074006F006E0065003400380021
:1006E000000012036D00610072006B007300610076
:1006F00072006400000004030904FFAA7F55400053
:1007000001010101010101010102020202020202D2
:1007100002020303030303030303040404040404A5
:10072000040505050505060606060607070707076B
:1007300008080808090909090A0A0A0B0B0B0C0C1E
:100740000C0D0D0D0E0E0E0F0F0F101011111112BA
:100750001213131414151516161717181819191A39
:100760001A1B1B1C1D1D1E1E1F202021222223249C
:1007700024252626272829292A2B2C2D2D2E2F30DB
:10078000313232333435363738393A3B3C3D3E3FEF
:10079000404142434445464748494A4C4D4E4F50DC
:1007A000515354555658595A5B5D5E5F616264659A
:1007B0006668696B6C6D6F7072737577787A7B7D24
:1007C0007E8082838587888A8C8E8F919395969878
:1007D0009A9C9EA0A2A3A5A7A9ABADAFB1B3B5B794
:1007E000BABCBEC0C2C4C6C9CBCDCFD1D4D6D8DB6B
:1007F000DDDFE2E4E7E9EBEEF0F3F5F8FAFDFF0008
:10080000DA0281FFD9F1DB20A4A62EAF00A0C00040
:10081000A1C800AED580A81FD300408D1420007F52
:100820003F1F643214783C1E0000000000000000EE
:1008300000000000000000000000000000000000B8
:100840000000000000000000000000007E0F00D447
:10085000FFFFFFC70000007800000000000000005C
:100860002A2B28000000000000000000000000000B
:1008700000000029000000002C1E34202122243416
:100880002627252E362D3738271E1F2021222324E8
:1008900025263333362E37381F0405060708090A84
:1008A0000B0C0D0E0F101112131415161718191A20
:1008B0001B1C1D2F3130232D350405060708090A9E
:1008C0000B0C0D0E0F101112131415161718191A00
:1008D0001B1C1D2F3130354C0102E2600103E20088
:1008E0002A00130012000C0018001C00280033001E
:1008F0000F000E000D000B005200380037003600CC
:100900001000110035724F00510050006564A85D61
:100910001700150008001A00140029000A00090039
:100920000700160004002B620500190006001B00DA
:100930001D00E1002C002A00A75DE300E200E000BA
:1009400000000000000000000000000000000000A7
:100950000000000000000000000000000000000097
:100960000000000000000000000000000000000087
:100970000000000000000000000000000000000077
:100980000000000000000000000000000000000067
:100990000000000000000000000000000000000057
:1009A0004C00310030002F002E002D0001003400DB
:1009B00033000000000000004B0035003700360017
:1009C0000000000001004D004E004A000000010040
:1009D0003E003D003C003B003A0001004300420065
:1009E000410040003F000100AA5D000000004500FA
:1009F0004400010001004C00010001000100010061
:100A000000000000000000000000000000000000E6
:100A100000000000000000000000000000000000D6
:100A200000000000000000000000000000000000C6
:100A300000000000000000000000000000000000B6
:100A400000000000000000000000000000000000A6
:100A50000000000000000000000000000000000096
:100A60000000270026002500240023000100340098
:100A700023002200210000000000870020001F004A
:100A80001E0000000100380036003700270001007A
:100A90002200210020001F001E00010000000000B5
:100AA0000000000000000100000000000000000045
:100AB000000001000100010001000100010001002F
:100AC0000000000000000000000000000000000026
:100AD0000000000000000000000000000000000016
:100AE0000000000000000000000000000000000006
:100AF00000000000000000000000000000000000F6
:100B000000000000000000000000000000000000E5
:100B100000000000000000000000000000000000D5
:100B200000004B004A00F900FB00000000004E00EE
:100B30004D00FA00FC000000ED000000F200F100A2
:100B4000000000000100F000EE00EF0000000100D6
:100B500000000A5C135CAB5D005C00000000CA5C36
:100B6000C85CC65CC35C00000000CB5CC95CC75CB1
:100B7000C45C010000000000010001000100010050
:100B80000000000000000000000000000000000065
:100B90000000000000000000000000000000000055
:100BA0000000000000000000000000000000000045
:100BB0000000000000000000000000000000000035
:100BC0000000000000000000000000000000000025
:100BD0000000000000000000000000000000000015
:100BE00011241FBECFEFDAE0DEBFCDBF13E0A0E0DF
:100BF000B1E0EEE6F7E602C005900D92A630B1072F
:100C0000D9F726E0A6E0B3E001C01D92AD3AB207E5
:100C1000E1F70E9430260C946A330C940000E92F0F
:100C2000EE0FE90FEE0FE80F8E2F877041E001C045
:100C3000440F8A95EAF7E695E695E69585E0E89F04
:100C4000F0011124EE5EF94F30E020E070E05191A8
:100C5000DF011197CB01022E02C0969587950A9469
:100C6000E2F7817081958527842385278C932F5FF8
:100C70003F4F2530310559F70895E92FEE0FE90F61
:100C8000EE0FE80F9E2F9770E695E695E69585E0C6
:100C9000E89FF0011124EE5EF94F50E040E080E063
:100CA000219130E0092E02C0369527950A94E2F78B
:100CB00021703327042E01C0220F0A94EAF7822BF9
:100CC0004F5F5F4F4530510559F708958091760683
:100CD00090917506981301C008958F5F8770FACFC1
:100CE000AAE0B3E0EFEF90E02D91821751F0EF3FD3
:100CF00019F4211101C0E92F9F5F9630A9F7EF3F4A
:100D000009F408950E2E000CFF0BE85FFC4F828360
:100D10000895EAE0F3E09191891303C0DF01119790
:100D20001C9293E0E031F907B1F70895982F909560
:100D300080916706892380936706089580916806ED
:100D400081111092680608959091720692FF06C074
:100D5000282F28712830F9F4877F846093FF06C01C
:100D6000282F28712831F1F4877E84612091730641
:100D700020FF06C0382F38713830D9F4877F816062
:100D800021FF06C0282F28712831D1F4877E816188
:100D900094FD877E0895282F24712430F9F68B7FE7
:100DA0008860DCCF282F2471243101F78B7E886185
:100DB000DDCF382F3171313019F78E7F8860E0CF69
:100DC000282F2171213121F78E7E8861E1CFCF93C9
:100DD000DF93EC01803E910509F469C038F5813359
:100DE000910509F4AFC078F48932910509F4A3C0E4
:100DF0008A9709F4AEC0C130D10509F46BC02097C1
:100E000009F468C00BC08933910509F449C08238E0
:100E1000910509F445C0C59709F486C0C53AD105C6
:100E200090F4C430D10508F44EC054C0843E9105FE
:100E300009F45FC070F4823E910509F447C0833E17
:100E4000910509F44BC0CE01805E91090897D8F551
:100E500041C0863E910509F457C0873E910509F4CB
:100E600058C0811524E5920708F0A1C0811533E52B
:100E7000930708F0F3C0C11581E5D80708F07EC0DC
:100E8000C11520E5D20708F0C8C0CF3FD10511F049
:100E900008F066C0CD3ED10508F4ADCFD0651AC0CC
:100EA000809172068370B1F0C0EED0E013C08091E3
:100EB000720680FDFEC09091730690FF0BC0C3EEDA
:100EC000D0E084FF07C0D0E0C0E004C0809172068B
:100ED00082FDF5CFCE01DF91CF910895809172060A
:100EE00082FDEAC09091730690FDDECF84FFF2CFC1
:100EF000EACF8091730681FFEDCF80917206C7EE35
:100F0000D0E084FDE0CFE6CF8091720683FDF7CF7D
:100F1000E1CF8091720683FDD2C09091730691FF5C
:100F2000E5CFC4EED0E0D6CF8091720685FFD2CF58
:100F3000C9E2D0E0CFCF8091720685FFCBCFC5E369
:100F4000D0E0C8CF8091720686FFC4CFCAE2D0E05D
:100F5000C1CF8091720686FFBDCFC1E3D0E0BACF8A
:100F6000C11530E2D30708F4B5CFCE0190548115F6
:100F7000904108F0A8CFDF70D06AACCFC11532E540
:100F8000D30708F466C09E012370332781E090E008
:100F900002C0880F991F2A95E2F7C695C69520E2F0
:100FA000C29FE0011124C82BD92BDC6893CF811597
:100FB00039E59307E0F4C11588E5D80708F067C064
:100FC000C11525E5D20708F45DC0CE0195558F3FC8
:100FD000910511F008F077CF8C2F0E94A406C82F3E
:100FE000D0E0DC2FCC27CC27DF71D06273CF811506
:100FF0003AE5930708F450C090568115904208F0E6
:1010000062CF8D2F8F710E94A40690E0982F8827C1
:1010100088279F718C2BEC01E8CF9E01E4E0369588
:101020002795EA95E1F723708C2F86958695837036
:1010300030E2839FC0011124922BC37021E030E085
:1010400002C0220F331FCA95E2F7822B932BEC01CB
:10105000ACCFDC2FCC27C16FD06A3CCF9C01237072
:10106000332781E090E002C0880F991F2A95E2F7AC
:10107000C695C69520E2C29FE0011124C82BD92B4A
:10108000DA6828CFDC2FCC27C46FD06A23CFDC2FBF
:10109000CC27C06FD06A1ECF8F700E94A40634E0A8
:1010A000D695C7953A95E1F7CF709C2FEC01D069A2
:1010B00011CFC9E3D0E00ECFC2EED0E00BCFC6EE29
:1010C000D0E008CF8F929F92AF92BF92DF92EF92C3
:1010D000FF920F931F93CF93DF9380906D069090B4
:1010E0006E06A0906F06B090700640916906509110
:1010F0006A0660916B0670916C06842A952AA62A6E
:10110000B72A00EA1BE02FE1E22EF12CC82FD0E035
:1011100086E0989FC00DD11D1124DE2CD501C4019D
:101120000E2C04C0B695A795979587950A94D2F78B
:1011300080FD17C081E0E81AF10800561109003A55
:101140008FEF180751F7D12C8D2DDF91CF911F9183
:101150000F91FF90EF90DF90BF90AF909F908F9096
:101160000895FE01E00FF11FEE0FFF1FE052F74F51
:10117000859194910E94E7060197E1F2E5CFFF92F5
:101180000F931F93CF93DF93FC0182810081118124
:10119000C081F180882311F1662301F1C8010E940A
:1011A0006208D82F682FC8010E940F06EC2FF0E0CC
:1011B00086E0F89EE00DF11D112480E6D89FE00D39
:1011C000F11D1124EE0FFF1FE052F74F859194910E
:1011D000DF91CF911F910F91FF900895C8010E9458
:1011E0003D06D82FE3CFCF93DF93EC010E94620836
:1011F000EC2FF0E096E0D99FE00DF11D112490E670
:10120000899FE00DF11D1124EE0FFF1FE052F74FF3
:1012100085919491DF91CF910C94E70680E0089539
:10122000F894E82FE295EF70F0E041A18F7021E093
:1012300030E0B90102C0660F771F8A95E2F7CB0153
:10124000962F9095942391A392A1892B82A37894B1
:101250000895089580914E0680FD16C081FD16C048
:1012600082FD18C080915006882391F0863990F451
:101270002CE0829FC001112466E970E00E94FC2FDF
:10128000862F672B49F0089583E0089586E008953E
:1012900084E008958CE0089581E0089580914E06E1
:1012A00080FD16C081FD16C082FD16C080914F06DC
:1012B0008823A1F0883280F428E0829FC0011124A5
:1012C00068E270E00E94FC2F862F672B39F00895AA
:1012D00082E0089584E0089588E0089581E008950B
:1012E000E3E1E80FE331E0F5F0E0E459FC4C0C9465
:1012F00010300E942A0981958093540608950E9417
:101300002A09FACF0E942A098195809353060895ED
:101310000E942A09FACF0E944E098093550608952B
:101320000E944E098195F9CF0E944E0981958093C4
:10133000560608950E944E09FACF815F990B21E06D
:1013400030E001C0220F8A95EAF780915206822B85
:1013500080935206089580914E06816080934E06D8
:10136000089580914E068260F9CF80914E06846088
:10137000F5CF409153068D3E59F48091540687FF76
:101380000DC01092540641110BC01092500608C0B7
:101390008E3E81F48091540618169CF3442381F00C
:1013A0008091550690915606892B09F05AC01092EB
:1013B0004F0608958F3E49F447FFF0CF1092530631
:1013C000809154068111ECCFE0CF803F19F41416C0
:1013D000ACF3E4CF90915506893F29F41916F4F641
:1013E00010925506DBCF8A3F19F497FFD7CFF8CF7D
:1013F000909156068B3F29F497FFD0CF1092560656
:10140000CDCF8C3F19F41916CCF3C8CF9FE0980FBD
:10141000983090F4815F990B21E030E0B90102C06F
:10142000660F771F8A95E2F7CB018095909152065F
:10143000892380935206B2CF8D3F31F480914E06BE
:101440008E7F80934E06AACF8E3F21F480914E0668
:101450008D7FF7CF8F3F09F0A1CF80914E068B7F14
:10146000F0CF08956F927F928F929F92AF92BF922A
:10147000CF92DF92EF92FF920F931F93CF93DF9360
:10148000B82EA62E8901E42FF0E0E150F94F61114A
:1014900019C0E4918E2F2E2FD80111962C931197FD
:1014A000EC9312968C93DF91CF911F910F91FF9047
:1014B000EF90DF90CF90BF90AF909F908F907F90F4
:1014C0006F900895E62EF12C249186E0B89E60017D
:1014D0001124CFEFD0E0C601BE010E94DC2F8B2D7E
:1014E00090E0880F991F35E5369FA001379F500D7A
:1014F0001124841B950B982F990F980FAE014E194C
:101500005F09249FD001259FB00D1124EB2FA99EC8
:1015100050011124AB2CBB24AE014A195B09249F56
:101520005001259FB00C11248B2D3E01691A7108C2
:101530006E9C40016F9C900C7E9C900C1124892C19
:101540009924C819D9092C9FA0012D9F500D112451
:1015500063307105D1F09CEFC91693E0D90670F4A1
:1015600061307105B1F062307105B9F0FFEFCF164F
:10157000D10408F091CF8B2FE52F8ECF6430710509
:1015800079F066307105B9F387CFEB2D822F2B2FC1
:1015900083CFE22F2B2D8B2F7FCF852FE22FF7CFFD
:1015A000822F252F79CF80916206982F9E7F61F43C
:1015B000817082608093620680916506853B18F099
:1015C00084EB8093650608958033B0F381708E625A
:1015D000F1CFEFE5F6E01182828184608283089585
:1015E000FA0181110994FB01FDCFCF93DF9300D065
:1015F00000D0CDB7DEB78FB7F8942091AC0530910D
:10160000AD054091AE055091AF0529833A834B83D8
:101610005C838FBF69817A818B819C810F900F9051
:101620000F900F90DF91CF91089580912C03089532
:10163000089508950895FC01CB0120912203309173
:1016400023032617370790F0009729F42091E8002C
:101650002E772093E80040E0009751F4411108C034
:101660008091E80082FF31C080E00895C901F3CF86
:101670002091D1052223A9F12530A9F12091E8007C
:1016800023FD2DC02091E80022FDEACF2091E80043
:1016900020FFE2CF3091F3002091F200009719F083
:1016A0002830310558F041E02830310509F040E09C
:1016B0002091E8002E772093E800CECF419140930F
:1016C000F10001972F5F3F4FE9CF8091D10588232B
:1016D00041F0853041F08091E80083FFC1CF81E087
:1016E000089582E0089583E0089580911C0387FFA8
:1016F00013C08091E80082FF06C08091E8008B77DC
:101700008093E80004C08091D1058111F2CF089543
:101710008091D1058823D9F38091E80080FFF8CF2C
:101720008091E8008E77ECCF2091E4003091E500C5
:1017300095E6A9012091EC00822F817020FF06C060
:101740008091E80080FF06C080E008952091E800C5
:1017500022FD1AC08091D105882389F0853089F057
:101760008091EB0085FD0FC02091E4003091E500F1
:1017700042175307F9F29150E1F684E0089582E0B0
:10178000089583E0089581E00895E8EDF0E0808118
:101790008E7F80831092E2001092DA001092E100B6
:1017A000A0EEB0E08C9181608C9380818F778083F4
:1017B00019BCA7EDB0E08C918E7F8C9380818F7ED9
:1017C000808310921B030895EF92FF920F931F9353
:1017D000CF937C018B010E94940BC82F811117C0FD
:1017E0008091E80085FD0BC08091E8008E778093A2
:1017F000E8000E94940B882399F3C82F08C0F701D2
:1018000081917F018093F1000150110949F78C2FDC
:10181000CF911F910F91FF90EF900895FC01AC01C3
:10182000485F5F4F8FEF91E32191822728E030E0FE
:1018300087FF09C0880F892721503109C9F7E417AC
:10184000F50791F70895880FF7CF982F9093E90047
:10185000242F762F50E0891731F07091EC00209101
:10186000ED005091F00021FD06C09F5F973071F7A9
:101870008093E90008953091EB003E7F3093EB00B8
:101880003091ED003D7F3093ED003091EB00316001
:101890003093EB007093EC002093ED005093F00038
:1018A0002091EE0027FDE1CF0895CF92DF92EF92D5
:1018B000FF920F931F93CF93DF93C8EDD0E0888101
:1018C0008F7E8883E7EDF0E080818160808384E013
:1018D00082BF81E080931B0388818E7F888302EE24
:1018E00010E0F80110821092DA0081EEC82ED12C9F
:1018F000F601108288818F77888388818068888349
:1019000088818F7D888319BC1092D10510921A03AB
:10191000109256031092190390EEE92EF12CF70164
:1019200080818B7F808388818160888342E060E052
:1019300080E00E94250CF60180818E7F8083F80173
:10194000808181608083808188608083F7018081CD
:101950008E7F8083888180618883DF91CF911F9102
:101960000F91FF90EF90DF90CF9008950E94F308C1
:10197000282F92959F70963091F060F4925F9F703F
:10198000923030F481E0203F81F030F4283E30F096
:1019900080E008959A5FF3CF243FD1F7089581E066
:1019A000283EE0F3213FA1F7F9CF08958091D205B9
:1019B000811110C08091D80080618093D8008AE1A5
:1019C0008A95F1F700C08091D90080FF0AC081E0BC
:1019D0008093D20581E09091D205913009F080E0AA
:1019E000089582E08093D2050E94C50B1092D10524
:1019F000F1CFCF93DF9300D000D0CDB7DEB70E94F8
:101A0000D60C882341F00F900F900F900F90DF912C
:101A1000CF910C94F50A0E94F50A69837A838B832F
:101A20009C838091060690910706A0910806B091CC
:101A3000090629813A814B815C81280F391F4A1F91
:101A40005B1FCA01B9010F900F900F900F90DF91AB
:101A5000CF9108950E94D60C882351F0E091590649
:101A6000F0915A06309721F00190F081E02D099411
:101A700080E00895AF92BF92CF92DF92EF92FF92F3
:101A80000F931F93CF93DF93F82EE92ED62EC72EF8
:101A900089018091D605AA24A394B12C8A3018F428
:101AA0008AE0A82EB12CC1E0D0E0F8946D2D7C2DF9
:101AB0008F2D9E2DF80109957894811104C02196EF
:101AC000AC16BD065CF4DF91CF911F910F91FF9092
:101AD000EF90DF90CF90BF90AF900895CC9F900192
:101AE000CD9F300D300D112490E080E045E34A9504
:101AF000F1F70000019628173907C1F7D6CF60919A
:101B00000F018091620680FF20C080910E0143E0AA
:101B1000849FC0011124825D9C4F539A2BB1277F73
:101B20003BB138605FB7F894FC01649FE00DF11D94
:101B30001124BF0168177907D1F45FBF8FE594E0E6
:101B40000197F1F700C00000089580911001909175
:101B5000110123E0829FF0011124E25DFC4F8917FF
:101B6000A0F61182108212828F5F3396F8CFFC01AB
:101B70004191CF01E8E03BB9000000C047FF2BB91D
:101B8000440F000000C000C000C02BB900C0EA959F
:101B900091F7D0CFFF920F931F93CF93DF93EC0178
:101BA0008C81811109C081E08C8310922D0392E019
:101BB0009093020180930101109110019091110105
:101BC00083E0189FF0011124E25DFC4F812F8917FB
:101BD00068F100E093E0F92E60911201061760F1C0
:101BE0000E947F0D8091010120912D03280F2093E9
:101BF0002D0390910201980F90930201191654F44D
:101C0000022E000C330B409112014150550B24174A
:101C1000350734F0819580930101813009F41C82ED
:101C2000DF91CF911F910F91FF9008951182108243
:101C300012828F5F3396CBCFE02FF0E070E0CF01C0
:101C40000E94FC2F810F482F50E020912D03022E7F
:101C5000000C330BE217F307D4F020910201022E9F
:101C6000000C330B2E173F0794F08F9D9001112429
:101C7000225D3C4F40916506453B08F044EB609186
:101C80006406809163060E94320A0F5FA5CFFA01B5
:101C9000EE0FFF1FE40FF51FE25DFC4F1182108273
:101CA0001282F3CFEF92FF921F93CF93DF93EC0159
:101CB00010E0EE24EA94F12C60911201161770F0F6
:101CC0000E947F0D9A818C8190FF28C08F5F8C834A
:101CD000DF91CF911F91FF90EF90089580911001B7
:101CE000810F9927991F9C01220F331F280F391F3D
:101CF000225D3C4F40916506453B08F044EB70E0A7
:101D0000C7010E94FC2F962F8C8160916406199F59
:101D1000800D11240E94320A1F5FCECF8150D7CF91
:101D2000E2E6F6E080818E7F80830E94E90AEFE59B
:101D3000F6E08281816082832FEF80E792E021507C
:101D400080409040E1F700C000000C947F0D90911E
:101D5000620690FF14C0909110012091110133E0B0
:101D6000939FF0011124E25DFC4F921710F00C9448
:101D70007F0D8183608342839F5F3396F6CF089502
:101D80000F931F93CF93DF9300D00F92CDB7DEB7A1
:101D90008C018091620680FF13C040916506453B2F
:101DA00008F044EB9E012F5F3F4F60916406F801FD
:101DB00084810E94320A4B8169818A810E94A70E28
:101DC000F80184818F5F84830F900F900F90DF91D3
:101DD000CF911F910F910895CF93DF93D82FC92FE3
:101DE00081E08093E9008FEF9091E800815095FDAC
:101DF00006C095ED9A95F1F700008111F5CF80911D
:101E0000E80085FF16C050E040E068E070E08D2FEC
:101E10009C2F0E94E40B8091E8008E778093E8006D
:101E200088E0ED2FFC2FA4E2B3E001900D928A959B
:101E3000E1F7DF91CF91089522E02093E9002FEFA1
:101E40003091E800215035FD06C035ED3A95F1F7A7
:101E500000002111F5CF2091E80025FF0BC050E0D4
:101E600040E066E070E00E94E40B8091E8008E772D
:101E70008093E80008958091670690917406892BFD
:101E80008093080390916806992391F0892B8093A1
:101E9000080320E08AE093E0FC01308101963111D3
:101EA0002F5F33E080319307B9F721110E949E061E
:101EB00048E050E06AE076E088E093E00E9463301A
:101EC000892BA9F088E0E8E0F3E0AAE0B6E0019011
:101ED0000D928A95E1F7E0915906F0915A063097F4
:101EE00031F00280F381E02D88E093E009940895B9
:101EF000882339F090916706892B809367060C94AC
:101F00003B0F0895882321F00E9496060C943B0F06
:101F100008950F931F93CF93DF938B01D82FC92F71
:101F20000E94D30AA8016D2F7C2F88E090E0DF91FA
:101F3000CF911F910F910C944833E2E6F6E083E0D5
:101F4000808311828FEF828384EB83831482EFE599
:101F5000F6E082818360828363E070E08FEF94EB30
:101F60000C94890FCF93DF9300D000D0CDB7DEB7AC
:101F700080916606833018F48F5F809366068091A7
:101F8000620690916306A0916406B091650689830C
:101F90009A83AB83BC83BC01CD010F900F900F904F
:101FA0000F90DF91CF910C94890FCF93DF9300D0E6
:101FB00000D0CDB7DEB780916606882319F0815036
:101FC000809366068091620690916306A0916406F4
:101FD000B091650689839A83AB83BC83BC01CD0134
:101FE0000F900F900F900F90DF91CF910C94890F6D
:101FF000AF92BF92CF92DF92EF92FF920F931F9317
:10200000CF93DF9300D000D000D00F92CDB7DEB7D2
:10201000082FF62E142FC22E8091620680FF98C0E2
:10202000282F2695E22FF0E0E459FD4F9081909300
:102030005F068E7F823009F049C0453B08F044EBD3
:102040009E012F5F3F4F6F2D802F0E94320A4B81E0
:1020500069818A810E94A70E80916306801308C05F
:10206000809164068F1104C080916506811729F064
:102070008091610682608093610600936306F0920E
:10208000640610936506CC2009F462C08091620654
:1020900090916306A0916406B09165068C839D8340
:1020A000AE83BF83BC01CD0127960FB6F894DEBF87
:1020B0000FBECDBFDF91CF911F910F91FF90EF9099
:1020C000DF90CF90BF90AF900C94890F923019F4AD
:1020D00000916306C1CF9530D9F39E3009F0BCCF93
:1020E000E2EFE20F2170D22EE695F0E0E650F94FD4
:1020F000A590B490E12CBB2460911201E61618F073
:102100000E947F0DA9CF2E2D30E0EA9CC001EB9CF0
:10211000900D112470E00E94DC2F802FD11016C08A
:10212000860F90911001A901490F511D9A01220FAC
:10213000331F240F351F225D3C4F412F153B08F004
:1021400044EB6F2D0E94320AE394D6CF861BE9CF71
:1021500027960FB6F894DEBF0FBECDBFDF91CF91AB
:102160001F910F91FF90EF90DF90CF90BF90AF90B5
:102170000895E2E6F6E0818121E043816281885F93
:102180000C94F80FE2E6F6E0818121E04381628160
:1021900088500C94F80FE2E6F6E0628128E0620FC6
:1021A00008F46FEF21E0438181810C94F80FE2E69F
:1021B000F6E0628128E0621B08F460E021E04381E0
:1021C00081810C94F80FE2E6F6E0438128E0420FAB
:1021D00008F44FEF21E0628181810C94F80FE2E670
:1021E000F6E0438128E0421B08F440E021E06281F0
:1021F00081810C94F80F69EE7EEF90E080E00E9400
:10220000543360E082E090E00E94363360E083E087
:1022100090E00E9436331092690610926A0610927E
:102220006B0610926C0660E084E090E00E9436330A
:1022300060E082E290E00E94363360E085E090E06A
:102240000E94363360E086E090E00E9436336FEF04
:1022500087E090E00E94363340E050E0BA0188E029
:1022600090E00E94483360E08DE090E00E943633B9
:1022700040E050E0BA0188E190E00E94483360E01D
:1022800087E190E00E94363340E050E0BA018CE1F3
:1022900090E00E94483370E060E080E290E00E94AD
:1022A000543340E050E0BA0188E190E00E944833A6
:1022B00040E050E0BA018FE090E00E94483340E0F7
:1022C00050E0BA0183E190E00C944833CF9384E06E
:1022D00090E00E942233C82F82E290E00E942233D5
:1022E000982F8C2FCF9108951F93CF93DF93CDB765
:1022F000DEB728970FB6F894DEBF0FBECDBF409172
:10230000A8055091A9056091AA057091AB052FB75A
:10231000F8948091AC059091AD05A091AE05B09177
:10232000AF052FBF841B950BA60BB70B11E08436AE
:102330009105A105B10578F10E94F90CDC01CB01F2
:102340000296A11DB11D89839A83AB83BC838091C2
:1023500068019091690180559A4F20916701422F41
:1023600050E0253010F044E050E0BE016F5F7F4F39
:102370000E94703082E090E00E94662F182F882320
:1023800051F00E94F50A6093A8057093A905809307
:10239000AA059093AB05812F28960FB6F894DEBF5F
:1023A0000FBECDBFDF91CF911F910895FF920F9384
:1023B0001F93CF93DF93CDB7DEB729970FB6F8946D
:1023C000DEBF0FBECDBFF62E072F90E080E00E944B
:1023D000662F182F882309F481C080915A01482F55
:1023E00050E0882311F041E050E060915B01709172
:1023F0005C0160557A4FCE0109960E947030409181
:10240000CD055091CE056091CF057091D0052FB7C5
:10241000F8948091AC059091AD05A091AE05B09176
:10242000AF052FBF841B950BA60BB70B8436910508
:10243000A105B10540F481EB95E00E940E0C998551
:10244000891709F44BC081E090E00E94662F81114A
:1024500017C010E088E0E5ECF5E0AF2DB02F01905B
:102460000D928A95E1F7812F29960FB6F894DEBF79
:102470000FBECDBFDF91CF911F910F91FF900895B7
:1024800080916201482F50E0893010F048E050E020
:10249000609163017091640160557A4FCE0101969D
:1024A0000E94703081EB95E00E940E0C9985891393
:1024B000D0CF0E94F50A6093CD057093CE0580932E
:1024C000CF059093D00588E0FE013196A5ECB5E0EC
:1024D00001900D928A95E1F711E0BCCF88E0E1EB25
:1024E000F5E0DE01119601900D928A95E1F7111148
:1024F000EACFB0CFCF92DF92EF92FF92CF93DF93EC
:10250000CDB7DEB728970FB6F894DEBF0FBECDBFAC
:1025100085E0E2E6F6E09E012F5F3F4FD901019092
:102520000D928A95E1F740915F0690916006809147
:1025300061064E839F838887C090A405D090A5052F
:10254000E090A605F090A7059FB7F8944091AC05E0
:102550005091AD056091AE057091AF059FBF4C19CC
:102560005D096E097F09E22F443651056105710549
:1025700010F4882311F180917001909171018055C0
:102580009A4F20916F01422F50E0293010F048E01F
:1025900050E06E2F732F0E94703083E090E00E9415
:1025A000662F882369F00E94F50A6093A405709352
:1025B000A5058093A6059093A7051092610681E07A
:1025C00028960FB6F894DEBF0FBECDBFDF91CF9136
:1025D000FF90EF90DF90CF900895CF92DF92EF922F
:1025E000FF920F931F93CF93DF936C017B0164E6FF
:1025F00070E088E70E940D2DEC018601EC0CFD1CBB
:1026000097FD0EC0F801849164E670E00E94862D6B
:10261000EC01892B29F40F5F1F4FE016F10691F7AB
:102620000E94132ECE01DF91CF911F910F91FF9049
:10263000EF90DF90CF90089580919E05882371F0F0
:1026400080919B05882351F062E070E08EEA90E073
:102650000E94ED12892B11F410929B050895CF93DF
:10266000DF9300D000D0CDB7DEB780919E058823E0
:10267000F9F00E94F50ADC01CB01805A9541AF4F79
:10268000BF4F8093970590939805A0939905B093B9
:102690009A0580919B0581110BC062E070E08CEA85
:1026A00090E00E94ED12892B19F481E080939B0544
:1026B0000F900F900F900F90DF91CF910895CF93CF
:1026C000DF93682F80916B0390916C036A30B9F4AB
:1026D00020916D0383599340622F70E00E94DC2F9C
:1026E000281B822F66E00E94F02FC82FC15018F4DB
:1026F000DF91CF91089580E20E945F13F7CF6D3094
:10270000F9F49C012359334040916D03642F70E02C
:10271000C9010E94DC2F481B842FA901480F511DBD
:102720004115524018F080E030E020E0820F932FF6
:10273000911D8D569C4F90936C0380936B03D8CF63
:1027400026E0FC01A2E1B3E001900D922A95E1F7A9
:10275000603E08F458C026E0FC0111922A95E9F782
:10276000C0916B03D0916C0346E050E0BE0182E162
:1027700093E00E9463309E0123593340892B41F13D
:10278000C90145E0969587954A95E1F741E050E00B
:10279000BA0102C0660F771F8A95E2F7CB016091FC
:1027A000950570919605862B972BB9016B5F7F4F2E
:1027B000E5E076956795EA95E1F702C0440F551F6D
:1027C0006A95E2F7842B952B909396058093950557
:1027D0002A5F3F4F40916D03642F70E0C9010E9452
:1027E000DC2F481B463010F4240F311D211572E0F8
:1027F000370710F030E020E02D563C4F30936C034B
:1028000020936B0375CFF6E06F9FB00111246055E4
:102810007F4F46E050E00E944D30A2CF0F931F93B0
:10282000CF93DF93EC01FC0101900020E9F78F01C9
:1028300001501109C017D10728F0DF91CF911F91E6
:102840000F91089589910E945F13F4CF1F921FB6D4
:102850001F9211248F939F93AF93BF938091530343
:10286000811113C08091AC059091AD05A091AE058A
:10287000B091AF054196A11DB11D8093AC05909319
:10288000AD05A093AE05B093AF05BF91AF919F91F9
:102890008F911F901FBE1F9018952FB7F8948091AD
:1028A000AC059091AD05A091AE05B091AF052FBFDD
:1028B00008950E94D60C81110C944D140E94F90CBD
:1028C000CB01089560916206669570E04BE050E0A0
:1028D00083E091E00E945630892B19F481E08093C7
:1028E00060060E9459149093DE058093DD05809167
:1028F00061068460809361060895CF93DF9300D0D2
:1029000000D0CDB7DEB79091620690FF4CC088230F
:1029100009F442C0883108F041C08F77880F909148
:1029200062069170892B80936206809161068160B6
:1029300080936106662381F0809162069091630620
:10294000A0916406B091650689839A83AB83BC83AA
:10295000BC01CD010E94890F60916206669570E00E
:102960004BE050E083E091E00E945630892BC1F0AB
:102970000E94E90A81E08093E00520E0409165062D
:1029800060916406809163060F900F900F900F90F6
:10299000DF91CF910C94F80F81E0C0CF87E1BECFDB
:1029A0000E946214E7CF0F900F900F900F90DF916D
:1029B000CF9108958091620686958F5F883108F0E7
:1029C00081E061E00C947D149091620696958FEF02
:1029D000890F913009F487E161E00C947D149091A6
:1029E000620690FF07C09695981720F0961710F48E
:1029F0000C94DA1461E00C947D140E944D14209123
:102A0000530630915406232B21F08093A105909317
:102A1000A2052091550630915606232B21F0809374
:102A20009F059093A005E0915906F0915A063097C2
:102A300049F082E0809351060480F581E02D81E524
:102A400096E009940895CF93C82F882309F476C09F
:102A50008238C1F40E942A0D81FD70C089E30E9472
:102A600070060E943B0F2FEF81EE94E021508040D2
:102A70009040E1F700C0000089E30E948906CF91F1
:102A80000C943B0F8338A1F40E942A0D80FD56C0A0
:102A900083E50E9470060E943B0F2FEF81EE94E0C9
:102AA000215080409040E1F700C0000083E5E5CF71
:102AB0008438A1F40E942A0D82FD40C087E40E9460
:102AC00070060E943B0F2FEF81EE94E02150804072
:102AD0009040E1F700C0000087E4CFCF8CEF8C0F6F
:102AE000813A68F4EAE0F3E08191C81709F123E044
:102AF000E031F207C9F78C2F0E947006C0CF80E248
:102B00008C0F883068F4C77021E030E001C0220FDC
:102B1000CA95EAF780916706822B80936706AFCF4C
:102B2000CD3E60F08C2F0E947009CF910C94FD1463
:102B30008C2F0E9489060E943B0FDDCFCF91089514
:102B4000882309F474C0823871F40E942A0D81FF31
:102B50006EC089E30E9470060E943B0F89E30E94C9
:102B600089060C943B0F833859F40E942A0D80FF8C
:102B70005EC083E50E9470060E943B0F83E5EFCFA5
:102B8000843859F40E942A0D82FF51C087E40E94C4
:102B900070060E943B0F87E4E2CF9CEF980F913ABA
:102BA000F0F290E2980F983050F4877091E001C0F5
:102BB000990F8A95EAF7892F0E949606D2CF9BE556
:102BC000980F9330B0F48091570690915806892B56
:102BD00071F11092580610925706E0915906F09143
:102BE0005A06309721F10680F781E02D90E080E0D1
:102BF000099498E5980F9731A0F480915B06909125
:102C00005C06892BA1F010925C0610925B06E091A5
:102C10005906F0915A06309751F00084F185E02D65
:102C2000E5CF8D3E20F00E94B9090C94FD14089563
:102C30000F931F93CF93C82F10E000E0893311F456
:102C400000E510E08C2F0E9423150115110531F4C9
:102C50008C2FCF911F910F910C94A0158FE99FE0BD
:102C60000197F1F700C0000001501109EECF10925A
:102C700074060E943B0F86E0E1E5F6E0DF011D925D
:102C80008A95E9F71092500610924F0610924E0660
:102C90000C94FD1410926706EAE0F3E086E0DF0191
:102CA0001D928A95E9F70C9437161F93CF93DF9303
:102CB000CDB7DEB7AA970FB6F894DEBF0FBECDBF73
:102CC0008CE193E0FC0101962091F100208323E048
:102CD00084329207B9F780911D03893009F456C0F8
:102CE000C8F4823009F4B2C0833009F481C0813065
:102CF00071F18091E80083FF7BC280911C03909169
:102D00001D039A3008F074C2E92FF0E0E158FC4C42
:102D10000C9410308A3009F488C08B3051F78091C0
:102D20001C03813231F78091200390912103892B7C
:102D300001F78091E800877F8093E8000E94750B7F
:102D400080911E03809300010E944A16D2CF809189
:102D50001C03813A71F68091E800877F8093E80038
:102D60008091200390912103892B61F468E084E233
:102D700093E070E00E941B0B8091E8008B778093BA
:102D8000E800B7CF60E090E080E0F3CF80911C03D3
:102D9000813209F0AECF80912003909121030297F8
:102DA00008F0A7CF8091E800877F8093E8008091AA
:102DB000E80082FF18C09091F3008091F200029722
:102DC00031F48091F100813011F0863021F480914E
:102DD000F10080932C038091E8008B778093E800CA
:102DE0000E94750B86CF8091D1058111E0CF81CFF4
:102DF00080911C03813A09F07CCF8091200390914F
:102E00002103892B09F075CF8091E800877F80939B
:102E1000E8008091E80080FFFCCF80910001809362
:102E2000F1008091E8008E77D9CF80911C03813228
:102E300009F05FCF8091E800877F8093E8000E94CF
:102E4000750B80911F038093180353CF80911C034F
:102E5000813A09F04ECF8091E800877F8093E800A7
:102E60008091E80080FFFCCF80911803D8CF803894
:102E700099F0823809F0BCC1809120038F708730AF
:102E800008F0B6C18093E9008091EB0085FB8827AC
:102E900080F91092E90006C08091190390915603C1
:102EA000911182609091E800977F9093E800809361
:102EB000F1001092F1008091E8008E7795C188238F
:102EC00009F483C1823009F093C180911E038111FE
:102ED00086C1809120038F702FEF280F263008F0D5
:102EE00087C18093E9002091EB0020FF78C19330E7
:102EF00031F48091EB0080628093EB0070C190917F
:102F0000EB0090619093EB0021E030E001C0220FD4
:102F10008A95EAF72093EA001092EA008091EB008C
:102F20008860EACF811164C110911E031F778091E0
:102F3000E3008078812B8093E3008091E800877F15
:102F40008093E8000E94750B8091E80080FFFCCF21
:102F50008091E30080688093E30082E0111183E0B8
:102F60008093D10545C18058823008F041C140911D
:102F70001E0350911F034C3D83E0580799F583E0F1
:102F80008A838AE289834FB7F894DE01139620E0A2
:102F90003EE051E2E32FF0E050935700849120FF90
:102FA00003C082958F703F5F8F708A30C8F0895C54
:102FB00090E08D939D932F5F243161F74FBF8091F7
:102FC000E800877F8093E8006AE270E0CE01019616
:102FD0000E941B0B8091E8008B778093E80008C16A
:102FE000805DE6CF2091200330912103852F992722
:102FF0008330910509F160F48130910509F472C0C4
:10300000029709F0F5C08BE390E0E9E7F6E029C00C
:103010008132910509F45AC0829709F0E9C021155F
:10302000310509F469C02130310509F0E1C089E4B6
:1030300090E0E0EFF5E015C0CA0199274130B1F109
:103040008230910509F43AC0892B09F0D1C0E6EF2E
:10305000F6E0E4918E2F90E0E6EFF6E0009709F4B9
:10306000C7C02091E800277F2093E8002091220329
:10307000309123038217930708F49C0140E0211547
:10308000310509F03EC041113CC08091E80082FD4D
:10309000A1CF8091D105882309F49CCF853009F414
:1030A00099CF8091E80083FFF0CF94CFE2EEF6E075
:1030B000E4918E2F90E0E2EEF6E0D0CFE6ECF6E081
:1030C000E4918E2F90E0E6ECF6E0C8CF21153105B3
:1030D00071F02130310509F08BC089E090E0E4EA1D
:1030E000F6E0BFCF82E190E0E4EBF6E0BACF89E012
:1030F00090E0EBE8F6E0B5CF80E490E0E9E3F6E0BD
:10310000B0CF8091D105882309F464CF853009F4CC
:1031100061CF8091E80083FD5DCF8091E80082FD62
:10312000B4CF8091E80080FFAACF9091F300809106
:10313000F2002115310519F08830910550F041E079
:10314000089709F040E08091E8008E778093E800CE
:1031500096CF44914093F100319621503109019668
:10316000E8CF803809F044C08091E800877F8093E1
:10317000E80080911A038093F1009DCE811138C040
:1031800010911E031230A0F58091E800877F809394
:10319000E80010931A030E94750B112311F084E0CC
:1031A00005C08091E30087FDFACF81E08093D105CF
:1031B00042E061EC81E00E94250C42E261EC82E099
:1031C0000E94250C8091D10513C080911E0381308F
:1031D00079F481E0933009F080E0809356031092F7
:1031E000E9008091E800877F8093E8000E94750BDA
:1031F0008091E80083FF0AC08091E800877F809378
:10320000E8008091EB0080628093EB00AA960FB6F5
:10321000F894DEBF0FBECDBFDF91CF911F9108950F
:103220006093690670936A0680936B0690936C06B0
:103230000C94371660936D0670936E0680936F063C
:10324000909370060C9437160F931F93CF93DF93D0
:1032500000D000D0CDB7DEB741E050E060E070E0D4
:1032600004C0440F551F661F771F8A95D2F78091BF
:103270006D0690916E06A0916F06B09170068A015E
:103280009B01082B192B2A2B3B2B09831A832B8399
:103290003C83C901B8010F900F900F900F90DF9100
:1032A000CF911F910F910C941A190F931F93CF93E5
:1032B000DF9300D000D0CDB7DEB741E050E060E052
:1032C00070E004C0440F551F661F771F8A95D2F720
:1032D000409550956095709580916D0690916E0621
:1032E000A0916F06B09170068A019B0108231923F3
:1032F0002A233B2309831A832B833C83C901B8010A
:103300000F900F900F900F90DF91CF911F910F9121
:103310000C941A19909171068095892380937106F7
:10332000282F277091F4282F082E000C330B9217AA
:10333000130659F09091730692FD07C08595859507
:1033400085950E945519109271060895CF93C091EA
:103350007306C2FB992790F9981799F080FBC2F980
:10336000C09373066091720684E090E00E94363349
:103370006C2F82E290E00E94363382E0CF910C9471
:103380008A19CF9108950F931F93CF93DF93C62F80
:10339000D42F882359F1862F0E94241900916D069D
:1033A00010916E0620916F0630917006011511057F
:1033B00021053105F9F0D901C80104C0B695A795DA
:1033C00097958795CA95D2F78170A1F004C036957C
:1033D000279517950795DA95D2F7017059F083E094
:1033E000DF91CF911F910F910C942419862F0E9489
:1033F0005519D4CF83E0DF91CF911F910F910C9499
:1034000055199C014FB7F8948091AC059091AD058A
:10341000A091AE05B091AF054FBF821B930B0895ED
:103420007F928F929F92AF92BF92CF92DF92EF9254
:10343000FF920F931F93CF93DF93CDB7DEB76C97B7
:103440000FB6F894DEBF0FBECDBF1A821982FE01FF
:1034500033968EE0DF011D928A95E9F78CE8E82E1D
:1034600082E0F82E8E010F5F1F4F4801CC24C394D9
:10347000D12C2AE9A22E22E0B22EF70181917F0100
:103480008F3F09F440C0F894E82FE295EF70F0E028
:1034900021A18F70A60102C0440F551F8A95E2F743
:1034A000CA01922F982B91A392A18095892382A380
:1034B000789400C0E4E9F2E031E0712C21912F3FD3
:1034C00009F462C0A22FA295AF70A05EB0E08C910B
:1034D00090E02F7002C0959587952A95E2F780FDC0
:1034E00053C0832F782A330FAE16BF0639F7F70182
:1034F000319780818F3F11F00E94100950EA5A9550
:10350000F1F7D8017C920F5F1F4FB4E9EB16B2E0E0
:10351000FB0609F0B2CF40E150E0B40186EF95E040
:103520000E9463308C01892B41F080E1F401A6EF09
:10353000B5E001900D928A95E1F7F090F50501153F
:10354000110521F181E08093D5050E944D149093DF
:10355000D4058093D3058091D3059091D4050E9422
:10356000011A059768F0AF2DB0E0AB51BA4F88E073
:10357000E6EFF5E001900D928A95E1F71092D505FE
:10358000012B41F081E058C080E0ACCF8091D5059F
:103590008111E1CF0E94D60CE091F505882309F452
:1035A00094C01A8A198A9E012D5E3F4F86E0D90188
:1035B0001D928A95E9F70E2F10E00B511A4F80915A
:1035C000D6058A3008F04CC07E01B1E1EB0EF11C4B
:1035D00026ED31E147EA51E0B701C8010E943A0DFA
:1035E0006701882309F460C024E731E144EB51E02E
:1035F000B701C8010E943A0D882309F455C02AE793
:1036000032E14FEB51E0B701C8010E943A0D882327
:1036100009F44AC01092D6058091E40590E048E094
:1036200050E0B6018B519A4F0E94633021E0209305
:10363000E305892B61F580E06C960FB6F894DEBF48
:103640000FBECDBFDF91CF911F910F91FF90EF90F3
:10365000DF90CF90BF90AF909F908F907F90089514
:103660008091D7059091D8050E94011A843F91401E
:1036700008F0AACF8091E3058823E9F2FE01719654
:1036800088E0DF011D928A95E9F71092E305A09189
:10369000E405B0E0AB51BA4F88E0FE0171960190AD
:1036A0000D928A95E1F76ECF8091D6058F3F31F06C
:1036B0008F5F8093D6058A3008F4AECF0E944D14F8
:1036C0009093D8058093D705D5CFF0E0EB51FA4F12
:1036D000F89488E0A1EBB5E001900D928A95E1F7AE
:1036E00081EB95E00E940E0C8093B0057894F894DD
:1036F000C090B905D090BA05E090BB05F090BC052C
:103700008091D9059091DA05A091DB05B091DC0597
:10371000C816D906EA06FB06F1F0C092D905D09288
:10372000DA05E092DB05F092DC050E94D60C8111EF
:1037300012C00E94F50A698F7A8F8B8F9C8FC61AF0
:10374000D70AE80AF90AC0920606D0920706E09264
:103750000806F09209067894F8948091C4058823AD
:1037600079F180FF0DC08091BD0580FF2BC0909145
:10377000620691609093620660E086950E947D14D7
:103780008091C40581FF09C020E04091C00560918F
:10379000BF058091BE050E94F80F8091C40582FF8D
:1037A00006C08091C305882381F00E946214809135
:1037B000C40583FF03C081E08093E0051092C40537
:1037C000789439CF0E94900EDBCF0E94E90AEFCFA8
:1037D000FF920F931F93CF93DF93C62FD42F122FF7
:1037E0008823A9F060935D060E944D149093110305
:1037F00080931003C77081E001C0880FCA95EAF773
:10380000DF91CF911F910F91FF900C94780F8091D1
:103810005D06681334C080911003909111030E94DB
:10382000011A813E910558F500E20D0FCD17A9F060
:10383000C770FF24F3948F2D01C0880FCA95EAF753
:103840000E94820F083048F48D2F877001C0FF0C52
:103850008A95EAF78F2D0E94780F812F0E94181603
:103860000830A0F4D77081E001C0880FDA95EAF73C
:10387000DF91CF911F910F91FF900C94820FC77031
:1038800081E001C0880FCA95EAF7F2CFDF91CF91AE
:103890001F910F91FF9008956F927F928F929F9248
:1038A000AF92BF92CF92DF92EF92FF920F931F934E
:1038B000CF93DF9300D000D00F92CDB7DEB78C014D
:1038C000DC019C9111968C91119713962D913C914E
:1038D000232B21F089238F3F09F057C60F900F90BB
:1038E0000F900F900F90DF91CF911F910F91FF904C
:1038F000EF90DF90CF90BF90AF909F908F907F9090
:103900006F90089589809A802BEA82162DE59206A1
:1039100009F085C6D80112968C91882399F00E94EF
:103920009D0F8091620681608093620661E08695BA
:103930000E947D1407C042E061E0D80112968C918C
:103940000E94C319F12C6DC641E062E0F80182814A
:10395000F7CFD8011296FC90FF2009F4B5C08091F2
:10396000720682FBFF24F0F882FD04C081E90E9408
:10397000231557C6E8EDEE2EE8E0FE2EFAE06F2E96
:10398000F70184918823F1F2813009F049C0319622
:103990008491813041F4F2E0EF0EF11CF701849143
:1039A0000E94181609C0823059F4F2E0EF0EF11CA3
:1039B000F70184910E9423152FEFE21AF20AE0CF5B
:1039C000833041F4F2E0EF0EF11CF70184910E9484
:1039D000A015F2CF843009F075C0F2E0EF0EF11CB3
:1039E000F701249180E090E0F70131962053330BEA
:1039F0002A30310550F00097F9F2AFE9BFE0119796
:103A0000F1F700C000000197F6CF689EA001699E03
:103A1000500D1124C901840F951F24917F01E4CF1B
:103A2000E82FF0E0E85AF74F7490282F2695269556
:103A3000269530E0F901E85BF74FA4908770B12C30
:103A4000082E02C0B594A7940A94E2F7B1E0AB2225
:103A5000BB24F901E85CF74F8490912C082E02C03A
:103A6000959487940A94E2F7E1E08E229924F90173
:103A7000E85DF74FC490D12C02C0D594C7948A95C5
:103A8000E2F7F1E0CF22DD24A114B10419F081EEB8
:103A90000E9423158114910419F086EE0E942315CB
:103AA000872D0E941816892819F086EE0E94A0150D
:103AB000AB2819F081EE0E94A015CD2809F47CCF27
:103AC0008CE26ECF7F0178CF81E90E94A015A9C555
:103AD000481759076A077B0709F4C7C52F5F3F4F8F
:103AE00039962530310509F0B0C588EC91E0C5C59F
:103AF0002AEC31E0C8C589809A8026EF82162CE531
:103B0000920609F440C027E245EE66EE37EF8316D1
:103B10003CE5930689F045EF84164CE5940609F0E0
:103B2000EFC527E245EE64EE07C027E245EE65EEFD
:103B300003C026E241EE60EE0E94E81B8091710610
:103B4000877009F4CBCED80112968C91882309F4A2
:103B5000C5CE8091730682FDC1CE82E00F900F909A
:103B60000F900F900F90DF91CF911F910F91FF90C9
:103B7000EF90DF90CF90BF90AF909F908F907F900D
:103B80006F900C948A1926E241EE62EED5CF29811E
:103B90003A812B5F3C452930310508F4CAC589803C
:103BA0009A8026E182162CE5920609F4EFC508C03A
:103BB00089809A8026EA82162DE5920609F4B9C515
:103BC00089809A802BE582162DE5920609F0FCC1CA
:103BD00081E021C2E981FA81E350FC4580917206BF
:103BE0008160E331F10580F5E757FC4C0C9410300F
:103BF00089809A8024E082162DE5920688F43BEFB6
:103C000083163CE5930608F4A8C5E981FA81EC5FC8
:103C1000FC45E830F10538F5E456FC4C0C941030C6
:103C200089809A8022E682162DE5920609F498C0D2
:103C300090917206892F8E7F90FF816036EA8316FD
:103C40003DE5930609F089C58093720686C580918B
:103C500072068260F9CF809172068460F5CF809100
:103C600072068860F1CF809173068160809373063D
:103C700074C5809173068260F9CF8091720680616D
:103C8000E3CF809172068062DFCF809172068064FC
:103C9000DBCF0E944A16809172068068D5CF809152
:103CA00072068C60D1CF809173068360DFCF8091E4
:103CB00072068E7FC9CF809172068D7FC5CF8091AD
:103CC00072068B7FC1CF80917206877FBDCF8091B6
:103CD00073068E7FCBCF809173068D7FC7CF809187
:103CE00072068F7EB1CF809172068F7DADCF8091AD
:103CF00072068F7BA9CF0E944A16809172068F7739
:103D0000A3CF80917206837F9FCF809173068C7FB3
:103D1000ADCF8091720682FB992790F921E092271E
:103D200090FB82F990FB83F98FCF80917306982FD7
:103D3000909591708E7F892B90FB81F997CF0E948F
:103D40004A1690917206892F97FB87F980587CCF8D
:103D500061E08EE090E00E943633FFC460E0F9CF6E
:103D600090917206892F8F7E94FF80616DCF85E3DD
:103D70001CC580915E06811104C089E20E948906FB
:103D800016C585E3FBCF809167068272A980BA8051
:103D900027EDA2162CE5B20680F433ECA3163CE521
:103DA000B30698F0F501E45CFC45E331F10508F059
:103DB00094C0EC55FC4C0C94103089809A802EE510
:103DC00082162DE5920609F4B9CEF8018281E080D1
:103DD000F18080808982D180882309F43DC1C701A8
:103DE0000E9462088D83682FC7010E940F06998088
:103DF000E92DF0E026E0D29EE00DF11D11248D802A
:103E000030E6839EE00DF11D1124EE0FFF1FE052FE
:103E1000F74F859194910E94E7068D839983D8018D
:103E20001296FC9012971596EC90E2947FE0E722B0
:103E3000809171068770C1F0CF2CFF20B1F0892FDF
:103E4000807F803421F08D81805E883068F08091A1
:103E5000730682FD09C082E00E948A198091710672
:103E60008770CC24C3948111C12CD980D2945FE097
:103E7000D522B8E0DB1609F4EFC1BD1508F42BC15B
:103E8000E3E0ED1508F4EDC08981807FF981FF70D2
:103E9000F983882483948D1408F032C1803229F08C
:103EA0008980829490EF892289829D80992009F4EB
:103EB00067C1292D213009F4A5C1FF2009F4AFC144
:103EC000EE2009F4A5C1D80115968C91159780FFB5
:103ED00032C18F7015968C939BC18091620680FFD2
:103EE00026C08E7F80936206809162069091630661
:103EF000A0916406B091650689839A83AB83BC83E5
:103F0000BC01CD010E94890F0E94E90A80916106DF
:103F10008160809361069FEFA0E7B2E09150A040DE
:103F2000B040E1F700C000000E947F0D07CE816025
:103F30008093620661E086950E947D14FFCD44EE79
:103F400054E16AED74E10E94F00AF8CD4AED54E1C3
:103F500064EE74E1F8CF42EC50E169EB70E1F3CF2D
:103F600049EB50E162EC70E1EECF47ED50E16BECD4
:103F700070E1E9CF4BEC50E167ED70E1E4CF4FEE3B
:103F800050E163EE70E1DFCF43EE50E16FEE70E1A0
:103F9000DACF45ED5FE062EB7FE0D5CF42EB5FE04B
:103FA00065ED7FE0D0CF61E081E0C6CF64E082E0E4
:103FB0000E94EF14C3CD6AE085E0FACF6DE08BE09C
:103FC000F7CF67E18EE0F4CF89809A802CE58216E6
:103FD0002DE5920668F481143CE59306F9F04FED67
:103FE00084164CE5940609F0F0CE0E94FB10A6CD95
:103FF00089809A802CE582162DE5920659F13DE5DF
:104000008316930609F0E1CE8091730682FB882720
:1040100080F991E089270E94A619D7CE0E944A16FE
:104020004FEF54E38CE0415050408040E1F700C036
:10403000000087E797E7909301088093000888E1E4
:104040009AE00FB6F894A895809360000FBE909305
:104050006000FFCF80E0DFCFC7010E943D068D8367
:10406000C6CE45E0942ED91409F4EBC0AD2DA8506E
:10407000BB0B149710F40E942A0DCC20A9F080915C
:10408000710680FD11C0F801128285958595859590
:104090000E942419C8010E944C1C809171068595CC
:1040A000859585950E94551960E0C8010F900F9085
:1040B0000F900F900F90DF91CF911F910F91FF9074
:1040C000EF90DF90CF90BF90AF909F908F907F90B8
:1040D0006F900C94BF0839E0A32EDA1409F4C0C124
:1040E00086E08D0D8F70823008F62D81223F09F019
:1040F000C8C189818F71F110C1C10E942419B6CF46
:10410000882329F08980829420EF82228982FF20EF
:10411000D9F09980992079F08D81805E883018F0EF
:10412000AD80A1100AC080916706B9808B29809369
:1041300067060E943B0F8D8134C080917406898090
:10414000882980937406F5CF8D810E94A0159980EF
:10415000992009F48BCF8D81805E883018F0AD8076
:10416000A11004C089810E94960607C0B980B0944E
:10417000809174068B21809374060E943B0F76CF4A
:104180002091730622FF19C0FF2071F089808820DA
:1041900039F0809167068829809367060E943B0F5B
:1041A00080E00E94231562CF80E00E94A0159980D4
:1041B000992009F45BCF892DD6CFFF20A9F09091EB
:1041C00068068981892BE11003C00E94780F4ECFC9
:1041D000AA24A394EA10F9CF22FD48CF981709F436
:1041E00045CF8093680642CFE11006C00E949E062C
:1041F00089810E94820F3ACFBB24B394EB1409F457
:1042000035CFF4CFFF2031F025E02E1508F42ECF66
:104210008981DBCF34E03E1508F428CFE9CFEE20CA
:1042200039F3BD81B93349F4EFEFF7EE23E0E15004
:10423000F0402040E1F700C000008D810E94A015F1
:1042400015CF8D81FF2029F00E9470090E94FD1476
:104250000DCF0E94B909FACF8981837009F07CC023
:10426000F11004CF2D81229526952770220F220F61
:104270004D814F7050E070E060E0022E04C0440FAA
:10428000551F661F771F0A94D2F78D8080E090E05B
:10429000DC0184FE0FC08FE090E0A0E0B0E004C03D
:1042A000880F991FAA1FBB1F2A95D2F7809590955A
:1042B000A095B095998096949694292D23702230DC
:1042C00059F1233009F441C08090690690906A0644
:1042D000A0906B06B0906C06213099F0842B952B42
:1042E000A62BB72B9C01AD01282139214A215B2146
:1042F00029833A834B835C83CA01B9010E94101958
:10430000B5CE842A952AA62AB72AA5019401282B7E
:10431000392B4A2B5B2BECCF842B952BA62BB72B61
:104320004091690650916A0660916B0670916C0627
:104330004C015D0184269526A626B72689829A829D
:10434000AB82BC82C501B401D9CF4A015B01882A86
:10435000992AAA2ABB2AF2CFFF2009F452C09980D9
:1043600090FE84CE2D81229526952770220F220F54
:104370004D814F7050E070E060E0022E04C0440FA9
:10438000551F661F771F0A94D2F7BD8080E090E02A
:10439000DC01B4FE0FC08FE090E0A0E0B0E004C00C
:1043A000880F991FAA1FBB1F2A95D2F78095909559
:1043B000A095B095898086948694282D237022300C
:1043C00079F1233009F43FC080906D0690906E061D
:1043D000A0906F06B09070062130B9F0842B952B19
:1043E000A62BB72B9C01AD01282139214A215B2145
:1043F00029833A834B835C83CA01B9010E941A194D
:1044000035CEA980A1FE32CEADCF842A952AA62A28
:10441000B72AA5019401282B392B4A2B5B2BE8CF17
:10442000842B952BA62BB72B40916D0650916E06D1
:1044300060916F06709170064C015D01842695268F
:10444000A626B72606C04A015B01882A992AAA2A0D
:10445000BB2A89829A82AB82BC82C501B401CECFCD
:1044600029812F702983FF2029F0822F0E9424198F
:104470008D81ABCE8D810E94820F89810E9455195A
:10448000F5CD3D81333F60F4303FC1F0313F89F0DD
:10449000FF2009F469C0E1104ECE89818F712DCEC5
:1044A0004D81433F39F1443F99F78091730682FF74
:1044B00037C089818F71FF2009F31FCEFF20A1F043
:1044C00054E05E1508F4D2CD89818F71898381E033
:1044D00090E0A0E0B0E0098004C0880F991FAA1FF7
:1044E000BB1F0A94D2F7A0CF85E0982E9E1408F443
:1044F000BDCDEACF60E070E0CB01FF2009F47ECFB4
:1045000029812F7181E090E0A0E0B0E04C015D01D5
:1045100004C0880C991CAA1CBB1C2A95D2F799CF01
:10452000FF20B1F029812F712983822F0E94241945
:104530008091730682FD0AC0898038E0839EC001A5
:104540001124836080937106882DD7CD8981D5CDC4
:1045500081E00E948A19992493949E1408F086CDD4
:1045600082E00E948A1982CDEE2061F02D812933EC
:1045700009F063CE3FEF47EE53E0315040405040EA
:10458000E1F759CE89818F7179CF61E0C8010E942E
:10459000BF0889839A83D80112968C91882349F1A8
:1045A000E981FA8180E2EC33F10518F4E456FD4F1D
:1045B00080811F928F93FA81FF9389808F92D80117
:1045C0008C911F928F9311968C911F928F9382EDF5
:1045D00091E09F938F931F9287E18F9387E791E0FC
:1045E0009F938F930E9479300FB6F894DEBF0FBE71
:1045F000CDBF89809A802AEA82162DE5920609F4B9
:10460000A8C908F07FC947EA84164DE5940609F465
:1046100092C958EA85165DE5950609F495C9FF2407
:10462000F39440916D0650916E0660916F06709103
:1046300070068090690690906A06A0906B06B09014
:104640006C06E8EDF2E030E020E0808190E0B0E040
:10465000A0E0411551056105710509F039CA8816B8
:104660009906AA06BB0609F039CA49E0429FC00173
:10467000439F900D112487529D4F2091720622FD79
:1046800037CA2EEC31E09F938F933F932F9384EEA4
:1046900091E09F938F931F9287E18F938FE891E032
:1046A0009F938F930E9479300FB6F894DEBF0FBEB0
:1046B000CDBFFF2009F442CAD80112968C9189809F
:1046C0009A8024EF82162CE5920609F432CA08F08B
:1046D00012CA49ED84164CE5940609F426CA28E26C
:1046E00041E05AED85165CE5950609F420CA26E2FC
:1046F00041EE61EE98ED89169CE5990609F41CCA15
:104700008823E1F110925D0689809A8022E6821664
:104710002DE5920671F008F04BCA46E184164CE58F
:10472000940608F034CA52E085165CE5950608F454
:1047300047CA0E946611909373068093720689801F
:104740009A8026E182162CE5920608F051CA32E0E2
:1047500083163CE5930608F03DCA6091720680908E
:104760007306898284E090E00E943633698182E298
:1047700090E00E9436330E944A16E0C989809A80F0
:1047800026E182162CE5920609F0FDCA9091670693
:10479000882309F4EECA892F8A7A91E009F490E01F
:1047A00090935E068111E3CA89E20E9470060E941E
:1047B0003B0FC4C91F93CF93DF938091AC06807FDA
:1047C000A9F48091A906882389F080917606C0918A
:1047D00075067091A7066091A806A091AA06B091EF
:1047E000AB06D62FD72316E0C81304C0DF91CF91B4
:1047F0001F91089590E0109711F0DF3F19F4019692
:104800008770F2CF189F9001199F300D1124F90184
:10481000E958F94F41816413F2CF40814713EFCF3C
:1048200042814111ECCF438154814A1B5B0B413ED5
:10483000510528F78091AC068F7080618093AC069B
:10484000F901E458F94F80818F708061808387EA95
:1048500096E00E944C1CDF91CF911F910C9466064C
:10486000AF92BF92CF92DF92EF92FF920F931F937E
:10487000CF93DF93CDB7DEB72B970FB6F894DEBF9B
:104880000FBECDBF8C0185E0F801DE0117960190C7
:104890000D928A95E1F7F801E280C380D48087EA1F
:1048A000A82E86E0B82E2091A7069091A8064091E8
:1048B000AA065091AB064115510529F0892F822394
:1048C0008F3F09F02BC1EE2009F436C1F801808139
:1048D00091810E94B60CF82E882309F42DC186E040
:1048E000F801A7EAB6E001900D928A95E1F7809170
:1048F000A7069091A8060E94F3080E94DA2320C020
:104900008091AC06682F607F413E510508F0A6C03B
:10491000F80131816111C1C0FE2C391323C090818F
:10492000921320C0E1101EC08F7080618093AC068E
:1049300087EA96E00E944C1C8091AC06F8018583C2
:104940008F2D2B960FB6F894DEBF0FBECDBFDF9133
:10495000CF911F910F91FF90EF90DF90CF90BF907C
:10496000AF9008952F81CD2829F0832F82238F3F88
:1049700009F090C080E0F82FF170DF2EE09176060C
:104980004091750656E080FD1CC0EE20C9F2809172
:10499000AC0681608093AC06F12CD2CF8E2F90E0D4
:1049A0005E9FF0011124E958F94F6181361306C06A
:1049B0006081621303C06281E612E7CF0196E82F9F
:1049C000E770E413EBCF8F8198850E94F308292FBD
:1049D00022952F70903260F0225F2F70223078F491
:1049E0009F7051F0F8019581907F31F4D12C0AC06D
:1049F0009F7011F08823D1F3805E8830B8F3C8012E
:104A00000E944C1CFD2C9CCFF801808191810E945A
:104A1000B60C882309F490C0EE2009F48DC0809173
:104A2000AC06803270F02091A7063091A8063A8338
:104A300029831B82DD82CC828E83CE0101960E9467
:104A40004C1C86E0F801A7EAB6E001900D928A9529
:104A5000E1F70E94DA23FF24F39472CF611132C090
:104A600087EA96E00E944C1C86E0F50111928A9537
:104A7000E9F792CFF801808191810E94B60C8111F3
:104A8000E0CF8091AC0681608093AC06C8010E94A3
:104A90004C1C56CF81E08E256ECF3913B5CFF8016F
:104AA00090819213B1CFE110AFCF8583C8010E94EE
:104AB0004C1C86E0F801A7EAB6E001900D928A95B9
:104AC000E1F73ECFF801318193139ECFF801908139
:104AD00092139ACFE11098CF8583C8010E944C1C95
:104AE00086E0F50111928A95E9F72ACFF8018181D4
:104AF0009813C0CFF80180818213BCCF8091AC069F
:104B000080FDD7CF982F907FA1F28583903F71F2DF
:104B1000982F907F905F8F70892BC7CFF090A90658
:104B2000B601641B750BAB01F110EACE413E510595
:104B3000B8F6FE2CE110DACFC8010E944C1C8BCFD6
:104B40001F93CF93DF93CDB7DEB767970FB6F89477
:104B5000DEBF0FBECDBF342F4B8B252F5C8B962F26
:104B60006D8B7E8B8F8B4E895F89611110927406DD
:104B70001A8A3D872E879F87598B488B86E0FE01D6
:104B80003D96DE01179601900D928A95E1F7CE01D0
:104B900007960E943024882389F016E080917606DB
:104BA00090917506891349C067960FB6F894DEBFD9
:104BB0000FBECDBFDF91CF911F91089586E0FE011A
:104BC0003796DE01119601900D928A95E1F79F814B
:104BD000888520917506409176066A857B85672BCE
:104BE000E1F289238F3FC9F230E0C9010196877055
:104BF00099274817190671F40E944A1610927506F3
:104C00001092760686E0E7EAF6E0DF011D928A95CB
:104C1000E9F7C3CF96E0929FD001939FB00D112486
:104C2000A958B94FFE01319601900D929A95E1F77E
:104C3000809375060E946606B0CF819FC001112443
:104C40008958994F0E943024882309F4ADCF809170
:104C5000760690E0019687709927809376069ECF1E
:104C6000CDB7DEB7C454D1090FB6F894DEBF0FBE7E
:104C7000CDBF84B7877F84BF0FB6F894A895809185
:104C80006000886180936000109260000FBE80E831
:104C900090E00FB6F89480936100909361000FBE8E
:104CA00085B7806885BF85B7806885BF8EE099E04D
:104CB00090930703809306030E94C50B0E94550C36
:104CC0008091E20084608093E20078948091D10525
:104CD000882399F08091E9001091EC001795112735
:104CE00017958F70182B1092E9008091E80083FDD2
:104CF0000E9455161F701093E90082E084BD93E076
:104D000095BD9AEF97BD80936E00109206061092A3
:104D1000070610920806109209060E94D60C80938E
:104D2000130180911301882309F4D3C290E08CE031
:104D300090930E0180930F010E94D60C81110E9466
:104D4000782E809113018091130191E08927880FBB
:104D5000880F880F8093F50598E0981B9093E405E1
:104D60000CE812E0A4E9EA2EA2E0FA2ED8018D9117
:104D70008D018F3F11F00E941009E016F106B1F786
:104D800004E912E0FAE9EF2EF2E0FF2EF80181913A
:104D90008F018F3F11F00E941009E016F106B1F764
:104DA00080E1E5EEF5E0DF01282F1D922A95E9F775
:104DB000E6EFF5E0DF011D928A95E9F790E080E0EB
:104DC0000E943033893E9E4F11F00E94FB1082E01A
:104DD00090E00E942233809357030E9466119093C3
:104DE00073068093720683E090E00E942233282F9E
:104DF00030E050E040E025962CAF3DAF4EAF5FAFC6
:104E00002597CA01B9010E9410191092930580E8F4
:104E100080936D030E94072D6DE070E082E198E0C1
:104E20000E94ED12892B09F045C08091930563E043
:104E300070E081FD51C28FE098E00E94ED12892B55
:104E4000C9F56DE070E08FEF97E00E94ED12892BBD
:104E500089F50E94F50A25966CAF7DAF8EAF9FAFA6
:104E60002597DC01CB01805A9541AF4FBF4F80930E
:104E7000970590939805A0939905B0939A05E3E957
:104E8000F3E080E092E0DF019C011D922150304070
:104E9000E1F7F0936C03E0936B038FEF9FEF909338
:104EA00096058093950581E080939E0580939B05F0
:104EB000109294058091520381113BC090E080E0F4
:104EC0000E943033893E9E4F21F00E94FB100E94C9
:104ED0009D0F88E090E00E942A33609362067093F1
:104EE00063068093640690936506809161068360F3
:104EF000809361066E7F71F40E949D0F88E090E0C0
:104F00000E942A336093620670936306809364065E
:104F1000909365060E94D30A0E94E90A8091620676
:104F200080FF04C060E086950E947D1481E080933C
:104F300052030E94D60C811102C00E947B2E84E194
:104F400091E090935A0680935906CE010196F82E6F
:104F5000E92E8091D105DD24D39400E112E1853062
:104F600009F407C20E94101AD82E81110E94F50A76
:104F7000A5EEB5E0E8E5F3E010E000E0902EBD908E
:104F800081918B1509F415C28B25A12CCC24C394D7
:104F9000982F9C2109F408C20E94D60C882399F00E
:104FA000A9829A82BC2081E009F480E08B830E9470
:104FB0004D148160782F9D838C8349815A816B8148
:104FC000892F0E94A025F801E85AFC4F80818C258A
:104FD00080830E94D60C80916006882309F465C006
:104FE00080915F06E0916206E695E81BE093DF059D
:104FF000823009F0F5C1F0E0EB5DF74FE4910E2F40
:1050000010E0E0ECAE2EEEE0BE2E8091E0058823AD
:1050100061F01092E0050E9459149093DE05809390
:10502000DD051092E2051092E1050E9459149C01E1
:105030008091DD059091DE05A901481B590B4F3F7A
:105040005F4798F540916A034423B1F010926A03D8
:105050004091680350916903241B350B2F3F3F4754
:1050600058F4405D5A485093690340936803209177
:1050700061062860209361068090E1059090E2052A
:10508000800F911F9093DE058093DD058DED95E0F7
:10509000F50109958091E1059091E205892B29F4AC
:1050A000892819F081E080936A0380919E05882306
:1050B000C1F180919C0590919D050E94011AC297B3
:1050C00008F0B0C120919505309196052115310564
:1050D00009F057C280919B05882319F10E94F50AB7
:1050E00025966CAF7DAF8EAF9FAF259780919705CA
:1050F00090919805A0919905B0919A0525962CADAF
:105100003DAD4EAD5FAD2597281B390B4A0B5B0BB0
:10511000DA01C9018F3F9F4FAF4FBF4710F40E9484
:105120001C13D1100E942F1386E0E1E5F6E0AF2DAD
:10513000BE2D01900D928A95E1F7C0905306D09054
:10514000540600915506109156061092530610927F
:10515000540610925506109256068C2D8D2909F48E
:105160004BC08091A1059091A2050E94011A9C015B
:105170008091500641E050E0811102C050E040E0D3
:1051800042175307C8F58F3F19F08F5F8093500681
:10519000CC2059F00E942A099FEF1C140CF491E0D6
:1051A000899F802D112480935306DD2059F00E94A1
:1051B0002A099FEF1D140CF491E0899F802D112482
:1051C00080935406309153063323B1F02091540656
:1051D000222391F045EB3403C0011124992309F4F3
:1051E000A6C29093530655EB250390011124332357
:1051F00009F4A1C230935406802F812B09F448C0D2
:1052000080919F059091A0050E94011A9C018091B8
:105210004F06882309F4B1C221353105C8F18F3F0B
:1052200019F08F5F80934F06002359F00E944E09BA
:105230009FEF10160CF491E0899F802D112480932C
:105240005506112359F00E944E099FEF11160CF4D8
:1052500091E0899F802D1124809356063091550648
:10526000209156063323A1F0222391F065EB3603FB
:10527000C0011124992309F462C29093550645EBAD
:10528000240390011124332309F45DC230935606A0
:105290008091530690915406892B90915506892B45
:1052A00090915606892B11F00E94FD1486E0EF2D97
:1052B000FE2DA1E5B6E001900D928A95E1F70E94DE
:1052C0002A0D9091A305891709F443CE8093A30575
:1052D00040CE9CE080E02CCD8CE098E0AECD80917B
:1052E000D105843009F435C00E94E90A8091550344
:1052F000811109C0D092550380916206817080931C
:1053000054030E94900E0E941C131092530348E114
:1053100050E060E40FB6F894A895409360000FBE8B
:105320006093600083B7817F846083BF83B78160AF
:1053300083BF7894889583B78E7F83BF0FB6F89428
:10534000A895809160008861809360001092600051
:105350000FBE80915603882361F00E94101AE5EE7B
:10536000F5E081918111F3C185EF95E08E179F07DC
:10537000C1F78091D105853009F4B1CF0E944A165A
:105380000E942A0D1092550380915403882349F0FE
:105390008091620681608093620660E086950E943B
:1053A0007D140E946214DECDA394CC0C96E0A91269
:1053B000EFCD0F5F1F4F0031110509F0DFCD8FEFEB
:1053C00089838A831B820E944D148160782F9D837C
:1053D0008C8349815A816B81892F0E94A025F9CD48
:1053E000853061F4E695F0E0EE5DF74FE4910E2F25
:1053F00010E072E5A72E7EE0B72E07CE00ED17E095
:1054000059E2A52E59E0B52E8B3009F0FECDF0E023
:10541000E15EF74FE4910E2F10E06AECA62E6DE0EE
:10542000B62EF3CD0E944D1490939D0580939C055C
:1054300083E993E090936C0380936B030E94D60CF6
:10544000882309F490C030916206809163069091A0
:1054500064062091650640916E0343130CC0409191
:105460006F03481308C040917003491304C0409172
:105470007103421799F1269526952695969596954E
:105480009695869586958695432F469530FD66C000
:105490003EE21F922F931F929F931F928F931F9212
:1054A0004F931F923F9382E092E09F938F931F92BE
:1054B00087E18F9380E291E09F938F930E947930F0
:1054C00085E0E2E6F6E0AEE6B3E001900D928A9563
:1054D000E1F70FB6F894DEBF0FBECDBF80E291E0DA
:1054E0000E940E148FE891E00E940E140E942A0D73
:1054F00023EE31E080FF02C024EF31E043EE51E0C3
:1055000081FF02C048EF51E082FD2AC083EE91E0A6
:105510009F938F935F934F933F932F938DE192E0EF
:105520009F938F931F9287E18F9388E391E09F93DE
:105530008F930E94793088E391E00E940E1487E7F0
:1055400091E00E940E140FB6F894DEBF0FBECDBFDF
:1055500080919E05882309F4BDCDB4CD3AE299CF60
:105560008DEF91E0D5CF80E4ECE2F2E0AF2DBE2DDF
:1055700001900D928A95E1F78F2D9E2D0E940E14B9
:10558000E7CF8091940561E070E08111A3CD082FF1
:1055900010E02B01082E02C0440C551C0A94E2F7BF
:1055A000A90144215521452B09F44AC020919305B6
:1055B000922F917020FD46C098013695279536951B
:1055C00027958295880F80763FE1380F80935201AE
:1055D00020935501309353019093560124E630E017
:1055E00047E050E060E571E088E70E94B52D892B27
:1055F00009F070CDA80125E0440F551F2A95E1F769
:105600008091930580FD26C04D565C4F04E610E066
:1056100020E230E060E488E70E94E22D892B09F067
:1056200059CD0E942F1340945094809195059091EC
:1056300096058421952190939605809395054ACDF2
:105640008F5FA5CF880F880F880F37E0380F20E0D5
:1056500093E0BCCFE3E7F3E080E2DF011D928A959F
:10566000E9F7E8E8F2E02396FFAFEEAF239704E80E
:1056700012E09CE8892E92E0992E2396AEADBFAD44
:1056800023976D912396BFAFAEAF2397F801819119
:105690008F01840F952F911D9C012D563C4F1901B0
:1056A000E62FF0E0ED58FC4F30E020E087E0682E78
:1056B000621ACC24C394022E01C0CC0C0A94EAF7DF
:1056C000510180E0D5019D915D019C21662D681BF3
:1056D0006770762E062E000C770BB92F01C0BB0F1A
:1056E0007A94EAF77195619571096770772701C01F
:1056F00096956A95EAF79B2B6081692B60838F5F93
:10570000883001F72F5F3F4F31962830310571F611
:105710002396EEADFFAD23978E169F0609F0ADCF11
:1057200004E610E020E230E043E753E073CF81E08D
:105730008093530658CD81E0809354065DCD81E07F
:10574000809355069CCD81E080935606A1CD09BD7E
:1057500019BD09B400FEFDCF8091D8008F7D8093E4
:10576000D8008091E00082608093E0008091E000AA
:1057700081FDFCCF0E944A16FCCD2B30310508F08C
:1057800050CD86CD78941F921FB61F9211248F930F
:105790009F93AF93BF938091AC059091AD05A0917D
:1057A000AE05B091AF050196A11DB11D8093AC056A
:1057B0009093AD05A093AE05B093AF05BF91AF91A7
:1057C0009F918F911F901FBE1F9018951F920F924F
:1057D0000FB60F9211242F933F934F935F936F93C4
:1057E0007F938F939F93AF93BF93EF93FF9380919A
:1057F000E10082FF09C08091E20082FF05C0809134
:10580000E1008B7F8093E1008091DA0080FF24C06B
:105810008091D80080FF20C08091DA008E7F809335
:10582000DA008091D90080FF9BC080E189BD82E1D0
:1058300089BD09B400FEFDCF81E08093D105809140
:105840001B03811109C00E94C50B0E94550C809159
:10585000E20084608093E2008091E10080FF17C045
:105860008091E20080FF13C08091E2008E7F8093E0
:10587000E2008091E20080618093E2008091D80094
:1058800080628093D80019BC85E08093D105809117
:10589000E10084FF29C08091E20084FF25C080E1FF
:1058A00089BD82E189BD09B400FEFDCF8091D80099
:1058B0008F7D8093D8008091E1008F7E8093E100FE
:1058C0008091E2008F7E8093E2008091E20081600F
:1058D0008093E20080911A03882309F447C084E092
:1058E0008093D1058091D1058091E10083FF27C08D
:1058F0008091E20083FF23C08091E100877F809345
:10590000E10082E08093D10510921A038091E100BA
:105910008E7F8093E1008091E2008E7F8093E20091
:105920008091E20080618093E20042E060E080E0EC
:105930000E94250C8091F00088608093F000FF9118
:10594000EF91BF91AF919F918F917F916F915F91F7
:105950004F913F912F910F900FBE0F901F90189570
:1059600019BC1092D10510921B0376CF8091E300F1
:1059700087FD02C081E0B4CF83E0B2CF1F920F92C7
:105980000FB60F921124FF920F931F932F933F9303
:105990004F935F936F937F938F939F93AF93BF9337
:1059A000CF93DF93EF93FF9309EE10E0F80180812E
:1059B000C091EC00C795CC27C7958F70FC2EF82AB4
:1059C0001082C0EFD0E08881877F888378940E941E
:1059D0005516F8011082888188608883CF2DCF709A
:1059E000C083FF91EF91DF91CF91BF91AF919F91D4
:1059F0008F917F916F915F914F913F912F911F9167
:105A00000F91FF900F900FBE0F901F90189510925E
:105A1000B9008CE08093B80008959F92AF92BF9236
:105A2000CF92DF92EF92FF920F931F93CF93DF936A
:105A3000B82EEB010E944D146C01EE24E394F12C7E
:105A4000C431D10560F025E0E22EF12CCF3FDC0718
:105A500031F0CE0164E170E00E94DC2F7B0184EA2A
:105A6000A82E94E8992E1092BC00A092BC000E942F
:105A70004D148C018091BC0087FF0CC08091B9004F
:105A8000887F883031F18091B900887F803109F1B9
:105A90000FEF08C00E944D14801B910B8E159F05BF
:105AA00048F30EEF1FEFCF3FDC07E9F2C6010E947B
:105AB000011A8C179D07B8F2C801DF91CF911F9191
:105AC0000F91FF90EF90DF90CF90BF90AF909F909D
:105AD0000895B092BB009092BC000E944D148C01BE
:105AE0008091BC0087FF0AC02091B900287F28312F
:105AF00011F0203469F600E010E0DECF0E944D1472
:105B0000801B910B8E159F0558F3CBCF0F931F93DE
:105B1000CF93DF93EB018093BB0084E88093BC00BC
:105B20000E944D148C018091BC0087FF11C0209110
:105B3000B900287F81E090E0283211F490E080E005
:105B4000919581959109DF91CF911F910F910895C2
:105B5000CF3FDC0741F30E944D14801B910B8C1743
:105B60009D0708F38EEF9FEFEECFCF92DF92EF927B
:105B7000FF920F931F93CF93DF936B018A01F22E55
:105B8000E32E622F732F0E940D2DAC01E6010C0D48
:105B90001D1DC017D10711F057FF0DC084E9809378
:105BA000BC00CA01DF91CF911F910F91FF90EF9040
:105BB000DF90CF9008956F2D7E2D89910E94862DC4
:105BC000AC01E7CFCF92DF92EF92FF920F931F933A
:105BD000CF93DF93C62F6A017901B8010E940D2D82
:105BE0009C0197FD0DC0B8018C2F0E94862D9C0151
:105BF000E601EC0CFD1CCE15DF0511F037FF0DC0E2
:105C000084E98093BC00C901DF91CF911F910F916E
:105C1000FF90EF90DF90CF900895B80189910E9496
:105C2000862D9C01E8CF84E98093BC0008958EE125
:105C30004A9B02C08150E1F74A9BFECF08955A98D3
:105C400080E28A95F1F75A9A0895FC013BE03A9573
:105C5000F1F798E020E080E031E040E14A95F1F78B
:105C6000880F4A9B02C08160232742E04A95F1F7E2
:105C7000000040E14A95F1F7915079F790E19A954B
:105C8000F1F799B132E03A95F1F7000040E14A9519
:105C9000F1F792FB992790F992272081920F908338
:105CA0000895EF92FF920F931F93CF93DF930F927C
:105CB000CDB7DEB719828C017C01E60EF11C0E1502
:105CC0001F0561F481E09981911180E00F90DF91CF
:105CD000CF911F910F91FF90EF9008950E94172E82
