:100000000C94BA050C94D7050C94D7050C94AD2D1F
:100010000C94D7050C94D7050C94D7050C94D705F0
:100020000C94D7050C94D7050C9431160C94BB1A7C
:100030000C9481260C94D7050C94D7050C94D70505
:100040000C94D7050C94D7050C94D7050C94D705C0
:100050000C94D7050C940A170C94D7050C94D7056B
:100060000C94D7050C94D7050C94D7050C94D705A0
:100070000C94D7050C94D7050C94D7050C94D70590
:100080000C94D7050C94D7050C94D7050C94D70580
:100090000C94D7050C94D7050C94D7050C94D70570
:1000A0000C94D7050C94D7050C94D7052B0014009D
:1000B0001A00080015001700E000040016000700F1
:1000C00009000A00E1001D001B00060019000500E0
:1000D000000000000000E30001512C002A00130082
:1000E00012000C0018001C00340033000F000E003A
:1000F0000D000B00290038003700360010001100F9
:10010000000000000000E600025128002B001E0045
:100110001F00200021002200E0000000000000007D
:1001200000000000E10000000000000000000000EE
:10013000000000000000E30001002C002A0027005E
:100140002600250024002300000000004F0052007C
:1001500051005000000000000000000000000000FE
:10016000000000000000E600035128002B001E02E2
:100170001F02200221022202E00000000000000015
:1001800000000000E100000000000000000000008E
:10019000000000000000E30003512C002A002702A9
:1001A00026022502240223023500310030002F00F0
:1001B0002E002D003502310230022F022E022D02B8
:1001C000000000000000E60001002800005C0000C4
:1001D0000000000000000000C35CC65CC85CCA5C94
:1001E00000000000C45CC75CC95CCB5C0000000080
:1001F000000000000000E30001002C0000000000EF
:1002000000000000000000000000000000000000EE
:1002100000000000000000000000000000000000DE
:10022000000000000000E6000100280000DA028162
:10023000FFD9F1DB20A4A62EAF00A0C000A1C8000A
:10024000AED580A81FD300408D1420001E0F0500DE
:10025000047F3F1F643214643214783C1E1E140A5B
:100260000541646A757374005261697365004C6F6F
:100270007765720044656661756C74004C617965E0
:10028000723A2000808182838485868788898A8B60
:100290008C8D8E8F9091929394A0A1A2A3A4A5A6D9
:1002A000A7A8A9AAABACADAEAFB0B1B2B3B4C0C150
:1002B000C2C3C4C5C6C7C8C9CACBCCCDCECFD0D1A6
:1002C000D2D3D400000101010101010101010202A8
:1002D00002020202020202030303030303030304F4
:1002E00004040404040405050505050606060606BF
:1002F000070707070708080808090909090A0A0A79
:100300000B0B0B0C0C0C0D0D0D0E0E0E0F0F0F101A
:1003100010111111121213131414151516161717A4
:10032000181819191A1A1B1B1C1D1D1E1E1F202010
:10033000212222232424252626272829292A2B2C5A
:100340002D2D2E2F30313232333435363738393A7D
:100350003B3C3D3E3F404142434445464748494A75
:100360004C4D4E4F50515354555658595A5B5D5E43
:100370005F616264656668696B6C6D6F70727375DE
:1003800077787A7B7D7E8082838587888A8C8E8F42
:1003900091939596989A9C9EA0A2A3A5A7A9ABAD70
:1003A000AFB1B3B5B7BABCBEC0C2C4C6C9CBCDCF5E
:1003B000D1D4D6D8DBDDDFE2E4E7E9EBEEF0F3F50C
:1003C000F8FAFDFFFFAA7F55402223252628292A77
:1003D0002C2D2F3032333536383A3B3D3E404243A8
:1003E0004547494A4C4E5051535557595A5C5E60E7
:1003F00062646668696B6D6F71737577797B7D7FF9
:1004000081838587898A8C8E90929496989A9C9EF7
:100410009FA1A3A5A7A8AAACAEAFB1B3B4B6B8B913
:10042000BBBCBEBFC1C2C3C5C6C7C9CACBCCCDCE7B
:10043000D0D1D2D2D3D4D5D6D7D7D8D9D9DADADB5E
:10044000DBDBDCDCDCDCDCDDDDDDDDDCDCDCDCDCEA
:10045000DBDBDBDADAD9D9D8D7D7D6D5D4D3D2D229
:10046000D1D0CECDCCCBCAC9C7C6C5C3C2C1BFBE11
:10047000BCBBB9B8B6B4B3B1AFAEACAAA8A7A5A37C
:10048000A19F9E9C9A98969492908E8C8A8987853B
:1004900083817F7D7B79777573716F6D6B6968661A
:1004A0006462605E5C5A5957555351504E4C4A49EC
:1004B00047454342403E3D3B3A3836353332302F94
:1004C0002D2C2A29282625232200AF00AE0501095C
:1004D00002A10185020901A10005091901290815D8
:1004E00000250195087501810205010930093115C2
:1004F00081257F95027508810609381581257F952C
:100500000175088106050C0A38021581257F9501C1
:1005100075088106C0C005010980A1018503190184
:100520002AB700150126B700950175108100C00596
:100530000C0901A101850419012AA002150126A0B8
:1005400002950175108100C005010906A10185060B
:10055000050719E029E715002501950875018102B5
:100560000507190029EF1500250195F07501810295
:100570000508190129059505750191029501750375
:100580009101C005010906A101050719E029E71538
:100590000025019508750181029501750881010505
:1005A00007190029FF150026FF0095067508810030
:1005B0000508190129059505750191029501750335
:1005C0009101C009023B00020100A0FA09040000E9
:1005D000010301010009211101000122400007056A
:1005E0008103080001090401000103000000092142
:1005F0001101000122B6000705820320000112014B
:100600000002000000085346010001000102000141
:100610000C0343006F0072006E00650000001003C1
:1006200066006F006F007300740061006E000000D0
:10063000040309040000000000003E5B4F5B3E0025
:100640003E6B4F6B3E001C3E7C3E1C00183C7E3CCB
:1006500018001C577D571C001C5E7F5E1C00001894
:100660003C180000FFE7C3E7FF0000182418000053
:10067000FFE7DBE7FF0030483A060E00262979291C
:100680002600407F05050700407F05253F005A3CB6
:10069000E73C5A007F3E1C1C0800081C1C3E7F00E3
:1006A00014227F2214005F5F005F5F0006097F0154
:1006B0007F00006689956A0060606060600094A2B7
:1006C000FFA2940008047E04080010207E20100081
:1006D00008082A1C0800081C2A0808001E10101010
:1006E00010000C1E0C1E0C0030383E383000060E78
:1006F0003E0E060000000000000000005F00000049
:10070000000700070000147F147F1400242A7F2AAA
:100710001200231308646200364956205000000876
:1007200007030000001C224100000041221C0000C1
:100730002A1C7F1C2A0008083E0808000080703030
:100740000000080808080800000060600000201091
:10075000080402003E5149453E0000427F4000002F
:100760007249494946002141494D33001814127F0E
:1007700010002745454539003C4A4949310041218F
:1007800011090700364949493600464949291E00E2
:100790000000140000000040340000000008142293
:1007A0004100141414141400004122140800020122
:1007B000590906003E415D594E007C1211127C0021
:1007C0007F49494936003E41414122007F41414134
:1007D0003E007F49494941007F09090901003E4126
:1007E000415173007F0808087F0000417F410000ED
:1007F0002040413F01007F08142241007F404040DB
:1008000040007F021C027F007F0408107F003E41F1
:1008100041413E007F09090906003E4151215E0029
:100820007F091929460026494949320003017F0101
:1008300003003F4040403F001F2040201F003F403A
:1008400038403F0063140814630003047804030075
:100850006159494D4300007F4141410002040810A5
:100860002000004141417F00040201020400404099
:100870004040400000030708000020545478400026
:100880007F284444380038444444280038444428ED
:100890007F0038545454180000087E0902001824C0
:1008A000241C78007F080404780000447D40000088
:1008B0002040403D00007F102844000000417F4060
:1008C00000007C04780478007C0804047800384434
:1008D000444438007C1824241800182424187C0070
:1008E0007C080404080048545454240004043F4481
:1008F00024003C4040207C001C2040201C003C4048
:1009000030403C004428102844004C9090907C00DB
:100910004464544C44000008364100000000770055
:1009200000000041360800000201020402003C26DB
:1009300023263C0000000000000000000000000032
:1009400000000000C0E0F0F8F81800C0F0FCFEFF66
:10095000FFFFFFFFFFFF7E0000000000000000001F
:1009600080C0E0E0E0E0E0E0E0E0C0800000000007
:1009700080C0E0E0E0E0E0E0E0E0C080000000E017
:10098000E0C0C0E0E0E0E00000E0E0C0C0E0E0E0A7
:10099000E0E0C0800000000080C0E0E0E0E0E0E0D7
:1009A000E0E0C08000000000000000000000000047
:1009B0000000E0F0F0F0E0ECEEF7F37020007C7C5B
:1009C0007C7E007E7E7E7F7F7F000080C0E07E5B3D
:1009D0004F5BFEC00000C000DCD7DEDEDED7DC00EF
:1009E000C000000000000000000000000000000047
:1009F00000000000000000000000000000F8FCFE05
:100A0000FFE000FFFFFFFFFFFF80FFFFFFFFFFFF93
:100A1000FFFFFF1F0701000000000000000000FFB3
:100A2000FFFF8100000000000081C3C3C30000FF7E
:100A3000FFFF8100000000000081FFFFFF0000FFBA
:100A4000FFFF01000000000000FFFFFF01000000A9
:100A50000001FFFFFF0000FFFFFF9D1C1C1C1C1C72
:100A60001C9DDFDFDF000000000000000000000030
:100A700000000F1F3F7F7F7F7F7F3F1E0C001F1FE7
:100A80001F3F003F3F3F7F7F7F00307B7F783020DC
:100A90002030787F3B0003000F7F0F0F0F7F0F0088
:100AA0000300000000000000000000000000000043
:100AB00000000000000000000000000000030F1F05
:100AC0003F3F3F3F1F1F3F3F7F7F7F3F3F1F3F7F96
:100AD0007F7F7F7C7878381C0F00000000000000CA
:100AE00001030707070707070707030100000000C6
:100AF00001030707070707070707030100000007AF
:100B000007070000000000000007070700000000C2
:100B10000000070707000000010307070707070792
:100B200007070301000000000000000000000000B3
:100B300000000000000000000000000000000000B5
:100B400000000000000000000000000000000000A5
:100B50000000000000000000000000000000000095
:100B60000000000000000000000000000000000085
:100B70000000000011241FBECFEFDAE0DEBFCDBFC2
:100B800027E0AAE0B2E001C01D92A535B207E1F767
:100B900012E0A0E0B1E0E0EAF6E602C005900D92B6
:100BA000AA30B107D9F70E94A8260C9429330C94D7
:100BB0000000FC01AC014C5F5F4F8FEF91E321918E
:100BC000822728E030E087FF09C0880F892721505D
:100BD0003109C9F7E417F50791F70895880FF7CFA2
:100BE000E8EDF0E080818E7F80831092E200109229
:100BF000DA001092E100A0EEB0E08C9181608C935D
:100C000080818F77808319BCA7EDB0E08C918E7FB7
:100C10008C9380818F7E8083109218050895209197
:100C2000E4003091E50095E6A9012091EC00822FC7
:100C3000817020FF06C08091E80080FF06C080E040
:100C400008952091E80022FD1AC080913D05882377
:100C500089F0853089F08091EB0085FD0FC02091EF
:100C6000E4003091E50042175307F9F29150E1F6A4
:100C700084E0089582E0089583E0089581E0089576
:100C8000EF92FF920F931F93CF937C018B010E94F1
:100C90000F06C82F811117C08091E80085FD0BC099
:100CA0008091E8008E778093E8000E940F068823E9
:100CB00099F3C82F08C0F70181917F018093F1005B
:100CC0000150110949F78C2FCF911F910F91FF907F
:100CD000EF90089580913F0587FF13C08091E80051
:100CE00082FF06C08091E8008B778093E80004C003
:100CF00080913D058111F2CF089580913D058823B3
:100D0000D9F38091E80080FFF8CF8091E8008E77DA
:100D1000ECCF982F9093E900242F762F50E089177D
:100D200031F07091EC002091ED005091F00021FD28
:100D300007C09F5F973071F78093E90081E00895C5
:100D40003091EB003E7F3093EB003091ED003D7F22
:100D50003093ED003091EB0031603093EB007093F5
:100D6000EC002093ED005093F0002091EE0027FD61
:100D7000E0CF80E00895B0E0A0E0E1ECF6E00C9474
:100D8000E72EC8EDD0E088818F7E8883E7EDF0E024
:100D900080818160808384E082BF81E08093180538
:100DA00088818E7F888302EE10E0F8011082109215
:100DB000DA0081EEC82ED12CF601108288818F775F
:100DC000888388818068888388818F7D888319BC27
:100DD00010923D0510923E0510923C0510923B0585
:100DE00090EEE92EF12CF70180818B7F8083888142
:100DF0008160888342E060E080E00E948906F6011D
:100E000080818E7F8083F8018081816080838081F2
:100E100088608083F70180818E7F808388818061F4
:100E20008883CDB7DEB7E8E00C94032FFC018091F6
:100E300045059091460586179707A0F06115710545
:100E400029F49091E8009E779093E80090E0611576
:100E5000710551F4911108C08091E80082FF34C0FF
:100E600080E00895BC01F2CF80913D058823C1F157
:100E70008530C1F18091E80083FD30C08091E800A9
:100E800082FDEACF8091E80080FFE1CF8091F300FE
:100E90002091F200382F6115710519F028303105C5
:100EA00058F091E02830310509F090E02091E800F9
:100EB0002E772093E800CBCF81918093F100615091
:100EC00071092F5F3F4FE7CF80913D05882341F0A7
:100ED000853041F08091E80083FFBECF81E0089526
:100EE00082E0089583E00895089580911A05089599
:100EF00087E797E7909301088093000888E19AE0DC
:100F00000FB6F894A895809360000FBE9093600090
:100F1000FFCF2FB7F89460910F0570911005809165
:100F20001105909112052FBF089520914B012223A6
:100F3000C9F02091130527FF15C0E62FE695E69529
:100F4000E695EE31D8F4E80FF92FF11D677021E036
:100F500030E001C0220F6A95EAF7209582812823AC
:100F600022830895FC01329608962191621303C0F2
:100F7000DF0111971C92E817F907B9F7089520913E
:100F80004B012223C1F02091130527FF14C0E62F47
:100F9000E695E695E695EE31F8F4E80FF92FF11DA8
:100FA000677021E030E001C0220F6A95EAF7828184
:100FB000822B82830895FC0132962FEF30E041911D
:100FC000641751F02F3F19F4411101C0232F3F5FE7
:100FD0003630A9F72F3F09F40895820F911D27FDA0
:100FE0009A95FC016283089520910C0530910D05BE
:100FF0002817390771F090930D0580930C05E09147
:101000000A05F0910B05309721F00084F185E02D61
:101010000995089520910805309109052817390789
:1010200071F09093090580930805E0910A05F0910D
:101030000B05309721F00680F781E02D0995089582
:10104000FA01811101C0FB01099508950895E7E4B3
:10105000F3E0118282818460828308958091FD048F
:10106000982F9E7F61F4817082608093FD0480914F
:101070000005893718F088E78093000508958635C4
:10108000B0F381708465F1CFAF92BF92DF92EF929F
:10109000FF920F931F93CF93DF93182F062FE90131
:1010A000493708F048E7E42FF0E0EC53FD4F011119
:1010B00010C0E4915E2F4E2F4983E8835A83DF915D
:1010C000CF911F910F91FF90EF90DF90BF90AF9065
:1010D0000895202F30E04491D42EE42EF12C56E0D8
:1010E000159FC0011124EFEFF0E0BF010E94C92E4F
:1010F000812F90E0880F991F55E5569FD001579F8B
:10110000B00D11248A1B9B0B982F990F890F5F013B
:10111000A21AB30AAE9CD001AF9CB00DBE9CB00D1C
:1011200011245B2F089F80011124012F11275F01DB
:10113000A01AB10AAE9C8001AF9C100DBE9C100D90
:1011400011245F01A81AB108A29EC001A39E900DB0
:10115000B29E900D1124892F9927E81BF90BEE9D63
:10116000C001EF9D900DFE9D900D1124E92F62307E
:101170007105A1F050F46115710509F49DCF61303E
:10118000710581F0EB2F512F97CF6430710569F015
:1011900080F06630710509F48FCFF4CFE42F4B2F28
:1011A000592F8ACFE42F412F87CFEB2F542F492F70
:1011B00083CF4B2F5D2DE12F7FCF40913D038D3E9F
:1011C00059F480913E0387FF0DC010923E034111F8
:1011D0000BC01092350308C08E3E81F480913E030F
:1011E00018169CF3442381F080913F0390914003B3
:1011F000892B09F05AC01092340308958F3E49F4A8
:1012000047FFF0CF10923D0380913E038111ECCF58
:10121000E0CF803F19F41416ACF3E4CF90913F0374
:10122000893F29F41916F4F610923F03DBCF8A3F69
:1012300019F497FFD7CFF8CF909140038B3F29F453
:1012400097FFD0CF10924003CDCF8C3F19F41916E1
:10125000CCF3C8CF9FE0980F983090F4815F990B42
:1012600021E030E0B90102C0660F771F8A95E2F7EE
:10127000CB01809590913C03892380933C03B2CFAE
:101280008D3F31F4809136038E7F80933603AACF51
:101290008E3F21F4809136038D7FF7CF8F3F09F089
:1012A000A1CF809136038B7FF0CF089580913603D4
:1012B00080FD16C081FD16C082FD16C080913403EA
:1012C0008823A1F0883280F428E0829FC001112495
:1012D00068E270E00E942E2F862F672B39F0089568
:1012E00082E0089584E0089588E0089581E00895FB
:1012F0008091360380FD14C081FD14C082FD16C0AC
:1013000080913503882381F08E3180F420E5829F1F
:10131000C00111246EE170E00E942E2F862F0895E7
:1013200084E1089588E2089588E0089580E50895AD
:101330008D3E31F40E947809819580933E03089593
:101340008E3E19F40E947809F8CF8F3E31F40E9446
:101350007809819580933D030895803F19F40E9498
:101360007809F8CF893F29F40E94560980933F03FA
:1013700008958A3F21F40E9456098195F7CF8B3F4B
:1013800031F40E94560981958093400308958C3F63
:1013900019F40E945609F8CF9FE0980F983070F426
:1013A000815F990B21E030E001C0220F8A95EAF7B6
:1013B00080913C03822B80933C0308958D3F31F450
:1013C0008091360381608093360308958E3F21F427
:1013D000809136038260F7CF8F3FB9F78091360353
:1013E0008460F1CF80E00895F894E82FE295EF70E3
:1013F000F0E031A1282F2F7081E090E001C0880F2C
:101400002A95EAF7982F9095932391A392A1892B7F
:1014100082A3789408959091130592FF06C0282F17
:1014200028712830F9F4877F846093FF06C0282F45
:1014300028712831F1F4877E84612091140520FF02
:1014400006C0382F38713830D9F4877F816021FF8A
:1014500006C0282F28712831D1F4877E816194FD40
:10146000877E0895282F24712430F9F68B7F8860B9
:10147000DCCF282F2471243101F78B7E8861DDCFEA
:10148000382F3171313019F78E7F8860E0CF282FE7
:101490002171213121F78E7E8861E1CF972F78303D
:1014A000A8F4663098F470E026E0929F600D711DFC
:1014B0001124FB0190E3899FE00DF11D1124EE0F33
:1014C000FF1FE455FF4F85919491089580E090E0CF
:1014D0000895CF93DF93EC0182389105B1F108F0C4
:1014E00040C08133910509F49DC048F589329105CA
:1014F00009F48DC08A9709F49CC0C11521E5D20773
:1015000008F0C3C0C11530E5D30708F01EC1C83EBE
:10151000D10508F0A3C0C03ED10588F5C83AD10571
:1015200008F08EC0C53AD10508F007C1C130D10519
:1015300031F1209721F1C430D10508F545C085333C
:10154000910509F45FC0C997C1F6809113058370B6
:1015500009F043C18091140583FF11C0C9E2D0E0B6
:101560000EC0833E910599F170F4803E910501F122
:10157000823E910511F68091130582FD21C0CE01B6
:10158000DF91CF910895863E910561F1873E9105E7
:1015900071F1843E910509F0B0CF8091140581FF6F
:1015A000EECF80911305C7EED0E084FD0DC0E7CFEC
:1015B0008091130580FD33C09091140590FFDFCF1B
:1015C000C3EED0E084FFDBCFD0E0C0E0D8CF809185
:1015D000130582FDFFC09091140590FDFEC084FFAD
:1015E000CECFF2CF8091130583FDDDCFC8CF8091A0
:1015F000130583FDF5C09091140591FFF0CFC4EE63
:10160000D0E0BDCF8091130585FFB9CFA7CF8091E2
:10161000130585FDE8C08091140583FFB0CFC9E3B1
:10162000D0E0ADCF8091130586FFA9CFCAE2D0E00C
:10163000A6CF8091130586FFA2CFC1E3D0E09FCF54
:10164000CF3BD10508F6C85AD0E0CC0FDD1FC456F9
:10165000DE4F0990D881C02DD46491CFC11540E2EE
:10166000D40758F4C11581E0D80708F088CFCD3EE3
:10167000D10508F4A9CFD06582CFC11520E4D207E7
:1016800008F4A2CFDF70D06A7ACFC11535E5D30751
:1016900018F5C11544E5D40708F084C0C11583E5E9
:1016A000D80708F06BC0C11522E5D20708F461C065
:1016B000CE018370992721E030E002C0220F331F52
:1016C0008A95E2F7C695C69580E2C89FE00111248D
:1016D000C22BD32BDC6853CFC11539E5D307A8F44F
:1016E000C11548E5D40708F062C0C11586E5D807E2
:1016F00008F06ACF8C2F0E940B0AC82FD0E0DC2F95
:10170000CC27CC27DF71D0623ACFC1152AE5D207AA
:1017100008F452C0CE0190568115904208F054CF83
:101720008D2F8F710E940B0A90E0982F88278827B1
:101730009F719C012C2BE901E6CFC55AD0E0C7561A
:10174000DE4FC881D0E0D0641ACFCE0183709927D4
:1017500021E030E002C0220F331F8A95E2F7C695E0
:10176000C69540E2C49FE0011124C22BD32BDD6853
:1017700006CFDC2FCC27C16FD06A01CFCE0183709A
:10178000992721E030E002C0220F331F8A95E2F74B
:10179000C695C69540E2C49FE0011124C22BD32B0D
:1017A000DA68EDCEDC2FCC27C46FD06AE8CEDC2F10
:1017B000CC27C06FD06AE3CE8C2F8F700E940B0AAB
:1017C00034E0D695C7953A95E1F7CF709C2FEC01A0
:1017D000D069D5CEC2EED0E0D2CEC0EED0E0CFCE32
:1017E000C6EED0E0CCCEC5E3D0E0C9CE8091A00259
:1017F00081111092A0020895809590919F029823E4
:1018000090939F02089580917C0290914B029813CF
:1018100001C008958F5F8770FACFB0E0A0E0E3E1E8
:10182000FCE00C94E62E7C010091F5021091F6028A
:101830008091A1029091A202082B192BCFE0D0E059
:10184000CC24C394D12CBC2EC6010C2E02C0880F10
:10185000991F0A94E2F780239123892B49F4219759
:1018600090F7B12C8B2DCDB7DEB7E9E00C94022FA9
:10187000B7018C2F0E944E0A0E94690A019779F3E2
:10188000F1CFCF93DF93EC010E940D0CBE010E94BB
:101890004E0A0E94690ADF91CF910895983078F539
:1018A000863068F5E82FF0E086E0989FE00DF11DA6
:1018B00011249E2F977083E0F695E7958A95E1F7BE
:1018C000EE0FFF1FEE0FFF1FE35DFD4F50E040E006
:1018D00080E0219130E0092E02C0369527950A94C8
:1018E000E2F721703327042E01C0220F0A94EAF791
:1018F000822B4F5F5F4F4430510559F7089580E0C8
:101900000895983098F5863088F5E82FF0E086E065
:10191000989FE00DF11D11248E2F877041E001C0CA
:10192000440F8A95EAF783E0F695E7958A95E1F703
:10193000EE0FFF1FEE0FFF1FE35DFD4F30E020E0D5
:1019400070E05191DF011197CB01022E02C09695F4
:1019500087950A94E2F781708195852784238527EE
:101960008C932F5F3F4F2430310559F70895FC01C8
:1019700083819481892B29F08081918189238F3FF4
:1019800051F480E00895843FE1F717C0883EA8F045
:10199000813FB9F712C0808191810E94410C9295DC
:1019A0009F70963099F358F4925F9F70923048F789
:1019B000803F19F040F7883E20F781E008959A5F54
:1019C000F4CFCF93DF93682F81E06A3019F06D3048
:1019D00031F480E00E946F0DDF91CF9108958091E6
:1019E00053079091540726E0FC01ADE4B7E0019065
:1019F0000D922A95E1F7603E08F458C026E0FC01FC
:101A000011922A95E9F7C0915307D091540746E007
:101A100050E0BE018DE497E00E94C92F9E012D5435
:101A20003540892B41F1C90145E0969587954A9546
:101A3000E1F741E050E0BA0102C0660F771F8A95D6
:101A4000E2F7CB0160914B0570914C05862B972BEB
:101A5000B9016B5F7F4FE5E076956795EA95E1F711
:101A600002C0440F551F6A95E2F7842B952B909383
:101A70004C0580934B052A5F3F4F40914A05642FE8
:101A800070E0C9010E94C92E481B463010F4240F93
:101A9000311D211572E0370710F030E020E0235BA4
:101AA0003A4F309354072093530796CFF6E06F9F39
:101AB000B00111246C5C794F46E050E00E94B32FD6
:101AC000A2CFCF93DF93EC01FE018491811103C07B
:101AD000DF91CF9108950E94E10C2196F5CFCF932D
:101AE000382FE0915307F0915407ED54F5402091C1
:101AF0004A05622F70E0CF010E94C92E281B822F59
:101B0000332361F066E00E94142FC82FC15010F4F7
:101B1000CF91089580E20E94E10CF8CF9F01280F39
:101B2000311D2115324018F080E0F0E0E0E08E0F2A
:101B30009F2F911D835B9A4F909354078093530777
:101B4000E7CF80919F0290919E02892B80930C0297
:101B50009091A0029923A1F0892B80930C0280918F
:101B60004B018823E1F18091130587FF38C08EE196
:101B7000EEE0F2E090E08150A0F591110E94F60BAA
:101B800040E250E06EE772E08CE092E00E94C92FE4
:101B9000892B21F180E2ECE0F2E0AEE7B2E00190C7
:101BA0000D928A95E1F7E0910A05F0910B053097C7
:101BB000A9F080914B01882359F08091130587FF8C
:101BC00007C080910C0280930D0286E080930C0286
:101BD0000280F381E02D8CE092E00995089586E083
:101BE000C7CF2191222339F29F5FC5CF882321F0EF
:101BF0000E94FC0B0E94A10D0895882339F090915A
:101C00009F02982B90939F020E94A10D08958093AC
:101C10001505709317056093160580913D05843076
:101C200001F582E08093E9008FEF9091E800815008
:101C300095FD06C095ED9A95F1F700008111F5CF5D
:101C40008091E80085FF0DC050E040E063E070E067
:101C500085E195E00E9440068091E8008E778093B0
:101C6000E8000895BC0184E00E94070E0895BC01BD
:101C700083E00E94070E08959C0182E08093E900B2
:101C80009FEF8091E800915085FD06C085ED8A9513
:101C9000F1F700009111F5CF8091E80085FF0CC0AD
:101CA00050E040E066E070E0C9010E94400680918B
:101CB000E8008E778093E8000895CF93DF93EC01DE
:101CC00080914B018823B1F18091130587FF32C0C9
:101CD00060E282E08093E9008FEF9091E80081500C
:101CE00095FD06C095ED9A95F1F700008111F5CFAD
:101CF0008091E80085FF1BC080914B0170E050E0AF
:101D000040E0811104C050E040E068E070E0CE01A6
:101D10000E9440068091E8008E778093E80080E280
:101D2000FE01ABE1B5E001900D928A95E1F7DF91FC
:101D3000CF91089568E081E0CDCF60914701809117
:101D4000FD0480FF20C08091460143E0849FC001D4
:101D50001124835B9C4F539A2BB1277F3BB1386092
:101D60005FB7F894FC01649FE00DF11D1124BF01E1
:101D700068177907D1F45FBF8FE594E00197F1F719
:101D800000C000000895809148019091490123E02E
:101D9000829FF0011124E35BFC4F8917A0F61182AA
:101DA000108212828F5F3396F8CFFC014191CF01F0
:101DB000E8E03BB9000000C047FF2BB9440F00002A
:101DC00000C000C000C02BB900C0EA9591F7D0CF89
:101DD0000F931F93CF93DF93EC0110E000E09091FD
:101DE0004A019017110609F06CF40E949D0E8C8137
:101DF00090E00196817099278C83DF91CF911F919C
:101E00000F91089520914801A801420F511D9A0198
:101E1000220F331F240F351F235B3C4F4C816091F1
:101E2000FF048091FE0496959017110651F04CF036
:101E3000442349F0409100050E9444080F5F1F4F62
:101E4000CECF4423B9F340E0F7CFB0E0A0E0EBE21F
:101E5000FFE00C94E32EEC014C81042F10E098017C
:101E6000D8010E941A339B01AC010E94E5324B015C
:101E70005C01E0E2F0E0E01BF10BA5E5B0E0AC01B5
:101E80009B010E94E5326B017C019F01DF010E94F2
:101E9000482F9B01AC010E94F0329B01AC01280D40
:101EA000391D4A1D5B1DC701B6010E94F832F22E92
:101EB000822F90E039E23F1520F143E0249F90010A
:101EC000112435952795122F109500E085E5E82E11
:101ED000EF1880914A01081718F10E949D0E9C810D
:101EE00081E0992319F0903219F48FEF8093450126
:101EF00080914501890F8C83CDB7DEB7ECE00C945F
:101F0000FF2E25E530E0B901681B790B9B01220FFC
:101F1000331F260F371F37FFD4CF2F5F3F4FD1CF4F
:101F20008E2D01FD8F2D20914801622F600F7727A4
:101F3000771F9B01220F331F260F371F235B3C4F58
:101F4000412F6091FF040E9444080F5FC2CFEF92BF
:101F5000FF920F931F93CF93DF93EC018C8181113C
:101F600009C081E08C8310924B0392E0909344016E
:101F700080934301809148019091490123E0829F21
:101F8000F0011124E35BFC4F891758F110E003E0E6
:101F900060914A01161758F10E949D0E80914301ED
:101FA00020914B03280F20934B0390914401980FED
:101FB00090934401191654F4022E000C330B4091F7
:101FC0004A014150550B2417350734F08195809311
:101FD0004301813009F41C82CDB7DEB7E6E00C94F2
:101FE000052F1182108212828F5F3396CDCFE12EA2
:101FF000F12C70E0C7010E942E2F20914801820F22
:10200000482F50E020914B03022E000C330BE216B8
:10201000F306BCF020914401022E000C330B2E1568
:102020003F057CF0809F90011124235B3C4F409141
:1020300000056091FF048091FE040E9444081F5F28
:10204000A7CFFA01EE0FFF1FE40FF51FE35BFC4F74
:10205000118210821282F3CFB0E0A0E0E2E3F0E15F
:102060000C94E32EEC018A81BB24BA9480FD02C05B
:10207000BB24B394A0904A018C81811109C081E0F6
:10208000B81220C08FEF8A0D80934A0381E08C83C1
:10209000F12CE12C46E3942EEA14B8F00E949D0E38
:1020A00080914A0391E0B91257C0811150C08091CC
:1020B0004A01815080934A031C82CDB7DEB7ECE021
:1020C0000C94FF2E10924A03E1CF009148010E0DAF
:1020D0001F2D111DC801880F991F080F191F035BC1
:1020E0001C4FF80111821082128234E0C32ED12CD1
:1020F000812C80914A03880D87332CF1692D0E9431
:10210000202F892F082E000C990B8E159F0591F416
:10211000809100058C9DA0018D9D500D1124559539
:1021200047955595479598016091FF048091FE046D
:102130000E9444088B0CF1E0CF1AD108D1F68FEF42
:10214000E81AF80AA9CF87FFDDCF8A0DDBCF8150CF
:1021500080934A03BC82B1CF90E0019660914A011E
:1021600070E00E942E2F80934A038C83A6CFEF92BB
:10217000FF921F93CF93DF93EC0110E0EE24EA94DB
:10218000F12C60914A01161770F00E949D0E9A8101
:102190008C8190FF27C08F5F8C83DF91CF911F913F
:1021A000FF90EF90089520914801422F410F55274D
:1021B000551FCA019A01220F331F280F391F235BB5
:1021C0003C4F70E0C7010E942E2F962F8C814091CA
:1021D00000056091FF04199F800D11240E9444089E
:1021E0001F5FCFCF8150D8CF9091FD0490FF0EC0DC
:1021F000909148012091490133E0939FF00111240F
:10220000E35BFC4F921718F00E949D0E08958183A6
:10221000608342839F5F3396F5CFA3E0B0E0E3E1B4
:10222000F1E10C94EB2E8C0180914C0381110AC0DA
:102230009E012F5F3F4F48E76FEF0E9444088A815D
:1022400080934C03F8016481613069F080914C0304
:1022500040E0662361F040E0623011F440914C03AD
:1022600080E060E004C060914C0340E080E00E94A8
:10227000F410F801848190E0019663E070E00E9420
:102280002E2F84832396E4E00C94072FA3E0B0E084
:10229000ECE4F1E10C94ED2E9091FD0490FF0AC066
:1022A0009E012F5F3F4F0E9444084B8169818A81C4
:1022B0000E94F4102396E2E00C94092FCF93DF9351
:1022C000EC01EDEFF4E0438162818C810E944611C4
:1022D0008C818F5F8C83DF91CF910895CF93DF93B3
:1022E000EC01EC81F0E0E753FC4F4491EDEFF4E0BA
:1022F000628181810E9446118C818F5F8C83DF9186
:10230000CF910895B0E0A0E0E8E8F1E10C94E52E6B
:102310007C015B016A018091CF0201E010E08A300C
:1023200010F40AE010E0C1E0D0E0B501C701F60109
:102330000995811104C021960C171D072CF4CDB707
:10234000DEB7EAE00C94012FCC9F9001CD9F300DB9
:10235000300D112490E080E045E34A95F1F700004C
:10236000019682179307C1F7E0CF8091AD028111EA
:1023700010C08091D80080618093D8008AE18A954E
:10238000F1F700C08091D90080FF0AC081E08093FE
:10239000AD0281E09091AD02913009F080E00895A6
:1023A00082E08093AD020E94F00510923D05F1CFCE
:1023B0000E94B511882359F0E0910A05F0910B05B0
:1023C000309729F00190F081E02D0995089580E083
:1023D00008950F931F930E94B511882329F00E943E
:1023E00089071F910F9108950E9489070091D002DB
:1023F0001091D1022091D2023091D302600F711F4F
:10240000821F931FEECFB0E0A0E0E9E0F2E10C9470
:10241000E72E6C017B0164E670E088E70E94272CC0
:10242000EC0197FD12C010E000E0F601E00FF11F93
:10243000849164E670E00E94932CEC01892B29F4CE
:102440000F5F1F4F0E151F0581F70E94092DCE014A
:10245000CDB7DEB7E8E00C94032F8091060590918C
:102460000705911103C091E089270895882369F039
:1024700062E070E08BEC94E00E940312892B19F06B
:102480008091060508951092060580910605EBCF10
:10249000CF93C0910605809107058823D1F00E9453
:1024A0008907605A75418F4F9F4F60930205709363
:1024B00003058093040590930505C11108C062E0EF
:1024C00070E089EC94E00E940312892B29F0C091FE
:1024D00006058C2FCF91089581E080930605F7CFF4
:1024E000B0E0A0E0E6E7F2E10C94DF2EFC016280B0
:1024F000448081E08483E9ECF3E07490E8E4F4E064
:10250000E491812C75E0972EF2E0CF2EDD24D39458
:10251000AA24AA94B12C55245A94E7190E2F10E03E
:1025200080914A01881638F00E949D0ECDB7DEB723
:10253000E0E10C94FB2EE82CF12C82E0861568F08B
:102540009E9CF0019F9CF00D1124E151FC4F809165
:10255000FE0480838091FF048183411023C09E9CF0
:10256000F0019F9CF00D1124E151FC4F1382128267
:1025700020914801C701820F911D9C01220F331F3A
:10258000280F391F235B3C4F9E9CF0019F9CF00D50
:102590001124E151FC4F4281618180810E944408F5
:1025A0008394BECF9E9CE0019F9CD00D1124C1510D
:1025B000DC4F8B818823E9F081508B83859DC0019E
:1025C00011246C8170E00E94C92EFB01FF27E753A4
:1025D000FC4F8491E82FE719E59DC0011124B80153
:1025E0000E94C92E80910005689FB00111247A8352
:1025F000BFCF0E94A32F20910005269521582C9D26
:10260000A0012D9D500D1124452F552784179507A6
:102610000CF0AECF82E0861588F40E94A32FB5019E
:102620000E942E2F88830E94A32F2091FF042695BD
:10263000622F70E00E942E2F280F29839E9CF001AC
:102640009F9CF00D1124E151FC4F128280910005F6
:10265000893C58F088EC9E9CF0019F9CF00D112461
:10266000E151FC4F8483838383CF8431A0F784E1DD
:10267000F2CFCF92DF92EF92FF926B017C010E942A
:102680002E08B701A60188E090E00E94A432FF90D6
:10269000EF90DF90CF900895A3E0B0E0E2E5F3E1A2
:1026A0000C94E62E082FD62EF42EC22E9091FD0407
:1026B00090FF3AC0E92FE695AE2FB0E0A252BE4F90
:1026C0008C91809347039E7F923091F59E012F5FFE
:1026D0003F4F802F0E9444084B8169818A810E946C
:1026E000F4108091FE04801308C08091FF048D11C6
:1026F00004C0809100058F1529F080914903826004
:10270000809349030093FE04D092FF04F0920005E9
:10271000CC2051F06091FD047091FE048091FF0483
:10272000909100050E9439132396E9E00C94022F42
:10273000823019F4F0900005D4CF863019F400915E
:10274000FE04CFCF8930D9F3893159F6E9516E2F84
:102750006170B62EE695F0E0EC53FC4F1491E12C3D
:1027600060914A01E61618F00E949D0EBACFE19ED4
:10277000C001112470E00E94C92E802FB11014C036
:10278000860F20914801622F6E0D7727771F9B01DE
:10279000220F331F260F371F235B3C4F4F2D6D2D0C
:1027A0000E944408E394DCCF861BEBCFEDEFF4E00E
:1027B000438121E1421B08F440E021E062818181F4
:1027C0000E944C130895EDEFF4E0438121E1420FA4
:1027D00008F44FEF21E0628181810E944C1308953B
:1027E000EDEFF4E0628121E1621B08F460E021E09A
:1027F000438181810E944C130895EDEFF4E06281E2
:1028000021E1620F08F46FEF21E0438181810E9492
:102810004C130895EDEFF4E0818121E04381628162
:102820008A500E944C130895EDEFF4E0818121E07D
:1028300043816281865F0E944C1308958091010557
:10284000882319F08150809301056091FD047091F7
:10285000FE048091FF04909100050E9439130895B1
:1028600080910105833018F48F5F8093010560919A
:10287000FD047091FE048091FF04909100050E9478
:1028800039130895EDEFF4E083E0808311828FEF38
:10289000828388E783831482A7E4B3E012968C9145
:1028A0001297836012968C936081718182819381EB
:1028B0000E9439130895CF9384E090E00E947E3205
:1028C000C82F82E290E00E947E32982F8C2FCF9109
:1028D0000895A4E0B0E0EFE6F4E10C94EC2E409112
:1028E000B6025091B7026091B8027091B9022FB749
:1028F000F89480910F0590911005A0911105B09169
:1029000012052FBF841B950BA60BB70B11E0843665
:102910009105A105B10570F10E94E9116E5F7F4F2D
:102920008F4F9F4F69837A838B839C83809115019E
:102930009091160186549D4F4091140150E045300E
:10294000510510F044E050E0BE016F5F7F4F0E94E0
:10295000D62F82E090E00E94532E182F882351F04A
:102960000E9489076093B6027093B7028093B80201
:102970009093B902812F2496E3E00C94082FA8E0ED
:10298000B0E0E5ECF4E10C94ED2E85E0EDEFF4E041
:10299000DE01119601900D928A95E1F7809147032F
:1029A00090914803A09149038E839F83A88728852F
:1029B0004091CB025091CC026091CD027091CE0239
:1029C0003FB7F89480910F0590911005A0911105E3
:1029D000B09112053FBF841B950BA60BB70B843635
:1029E0009105A105B10510F4222319F180911D0173
:1029F00090911E0186549D4F40911C0150E049303A
:102A0000510510F048E050E0BE016F5F7F4F0E941B
:102A1000D62F83E090E00E94532E882369F00E9415
:102A200089076093CB027093CC028093CD02909380
:102A3000CE021092490381E02896E2E00C94092F1F
:102A4000EF92FF921F93CF93DF9300D000D00F92AD
:102A5000CDB7DEB77B0190E080E00E94532E182FA7
:102A6000882309F46DC04091070150E041155105DC
:102A700011F041E050E06091080170910901665445
:102A80007D4FCE0105960E94D62F4091B202509103
:102A9000B3026091B4027091B5022FB7F89480919F
:102AA0000F0590911005A0911105B09112052FBF4F
:102AB000841B950BA60BB70B84369105A105B105B8
:102AC00038F48BEB92E00E94D9059D818917C1F102
:102AD00081E090E00E94532E882309F458C0409171
:102AE0000F0150E04530510510F044E050E0609196
:102AF00010017091110166547D4FCE0101960E9424
:102B0000D62F8BEB92E00E94D9059D8189133FC09F
:102B10000E9489076093B2027093B3028093B4025B
:102B20009093B50289819A81AB81BC818093AE027A
:102B30009093AF02A093B002B093B10211E00EC027
:102B40008091BB029091BC02A091BD02B091BE02E7
:102B500089839A83AB83BC831111E4CF8091AE0249
:102B60009091AF02A091B002B091B102F7018083C1
:102B70009183A283B383812F0F900F900F900F90BA
:102B80000F90DF91CF911F91FF90EF90089510E08B
:102B9000E5CF68EE7EEF90E080E00E94B03260E02A
:102BA00082E090E00E94923260E083E090E00E9438
:102BB00092321092A2021092A10260E084E090E0B2
:102BC0000E94923264E082E290E00E94923260E0E1
:102BD00085E090E00E94923260E086E090E00E9402
:102BE00092326FEF87E090E00E94923240E050E036
:102BF000BA0188E090E00E94A43260E08DE090E0AD
:102C00000E94923240E050E0BA0188E190E00E94D8
:102C1000A43260E087E190E00E94923240E050E010
:102C2000BA018CE190E00E94A43270E060E080E2A2
:102C300090E00E94B03240E050E0BA0188E190E0BC
:102C40000E94A43240E050E0BA018FE090E00E9480
:102C5000A43240E050E0BA0183E190E00E94A43247
:102C600008951F920F920FB60F9211242F933F9346
:102C70004F935F936F937F938F939F93AF93BF9384
:102C8000EF93FF938091E10082FF09C08091E20001
:102C900082FF05C08091E1008B7F8093E1008091ED
:102CA000DA0080FF24C08091D80080FF20C080918E
:102CB000DA008E7F8093DA008091D90080FF9DC07A
:102CC00080E189BD82E189BD09B400FEFDCF81E0CC
:102CD00080933D0580911805811109C00E94F0057F
:102CE0000E94BB068091E20084608093E2008091A4
:102CF000E10080FF17C08091E20080FF13C0809147
:102D0000E2008E7F8093E2008091E20080618093F8
:102D1000E2008091D80080628093D80019BC85E0E1
:102D200080933D058091E10084FF2BC08091E200FB
:102D300084FF27C080E189BD82E189BD89B5982FD4
:102D4000917080FFFBCF8091D8008F7D8093D80059
:102D50008091E1008F7E8093E1008091E2008F7E80
:102D60008093E2008091E20081608093E200809194
:102D70003E05882309F447C084E080933D05809197
:102D80003D058091E10083FF27C08091E20083FF31
:102D900023C08091E100877F8093E10082E08093EF
:102DA0003D0510923E058091E1008E7F8093E10009
:102DB0008091E2008E7F8093E2008091E20080614A
:102DC0008093E20042E060E080E00E94890680910A
:102DD000F00088608093F000FF91EF91BF91AF9178
:102DE0009F918F917F916F915F914F913F912F9123
:102DF0000F900FBE0F901F90189519BC10923D05B3
:102E00001092180574CF8091E30087FD93E09093B2
:102E10003D05B5CF78941F921FB61F9211248F9352
:102E20009F93AF93BF9380910F0590911005A09150
:102E30001105B09112050196A11DB11D80930F05DA
:102E400090931005A0931105B0931205BF91AF9117
:102E50009F918F911F901FBE1F9018959C014FB797
:102E6000F89480910F0590911005A0911105B091F3
:102E700012054FBF821B930B08952FB7F8948091D2
:102E80000F0590911005A0911105B09112052FBF6B
:102E900008950E943D179C0190913D0380913E034F
:102EA000982B21F030933A032093390390913F03FC
:102EB00080914003982B21F03093380320933703FF
:102EC000E0910A05F0910B05309749F082E080937C
:102ED0003B030480F581E02D8BE393E00995089591
:102EE00090E080E00E940A0890E080E00E94F407F1
:102EF00010929E020E94A10D86E0EBE3F3E0DF0159
:102F00001D928A95E9F710923503109234031092BE
:102F100036030E94491708959093F6028093F502B4
:102F20000E947017089521E030E002C0220F331F85
:102F30008A95E2F7209530958091F5029091F602FE
:102F4000822393230E948C17089590917D0280958F
:102F5000892380937D02282F277091F4282F082E33
:102F6000000C330B9217130659F09091140592FF41
:102F700007C08595859585950E94931710927D02CF
:102F80000895CF93C0911405C2FB992790F9981723
:102F900091F080FBC2F9C09314056091130584E0A1
:102FA00090E00E9492326C2F82E290E00E94923276
:102FB00082E00E94A517CF91089521E030E002C081
:102FC000220F331F8A95E2F78091F5029091F60265
:102FD000822B932B0E948C1708959093A2028093CA
:102FE000A1020E947017089510929F0280914B01D8
:102FF000EEE0F2E0882361F08091130587FF08C0BE
:103000008EE1DF011D928A95E9F70E9470170895FD
:1030100086E0F7CFAAE2B0E0E0E1F8E10C94EC2E14
:103020008FE395E02091F100FC012193CF01F5E0C1
:1030300087349F07B9F780914005833009F470C049
:10304000B8F4813009F447C0823009F4B1C08091EE
:10305000E80083FF7EC280913F05909140059A3041
:1030600008F077C2E92FF0E0E55DFC4C0C94422FAC
:103070008A3009F48CC08B3009F46FC0893039F77D
:1030800080913F05813219F7809143059091440565
:103090000297E8F68091E800877F8093E8008091AE
:1030A000E80082FF38C09091F3008091F20002970F
:1030B00031F48091F100813011F0863021F480915B
:1030C000F10080931A058091E8008B778093E800E7
:1030D0000E946A06BCCF80913F05813A09F0B7CFC4
:1030E0008091E800877F8093E8008091430590916C
:1030F0004405892B61F460E28BE195E070E00E9469
:1031000016078091E8008B778093E800A0CF60E0FD
:1031100090E080E0F3CF80913D058111C0CF97CF43
:1031200080913F05813A09F092CF809143059091BB
:103130004405892B09F08BCF8091E800877F80932D
:10314000E8008091E80080FFFCCF80914B018093E4
:10315000F1008091E8008E77B9CF80913F058132F0
:1031600009F075CF8091430590914405892B09F0B2
:103170006ECF8091E800877F8093E8000E946A0606
:103180008091410580934B010E94F41760CF80919C
:103190003F05813209F05BCF8091E800877F809303
:1031A000E8000E946A0680914205809319054FCF7E
:1031B00080913F05813A09F04ACF8091E800877FEE
:1031C0008093E8008091E80080FFFCCF8091190592
:1031D000BECF803899F0823809F0BBC18091430599
:1031E0008F70873008F0B5C18093E9008091EB00C3
:1031F00085FB882780F91092E90006C080913B0585
:1032000090913C05911182609091E800977F909396
:10321000E8008093F1001092F1008091E8008E7731
:1032200094C1882309F482C1823009F092C180914F
:103230004105811185C1809143058F702FEF280FC3
:10324000263008F086C18093E9002091EB0020FF32
:1032500077C1933031F48091EB0080628093EB0072
:103260006FC19091EB0090619093EB0021E030E012
:1032700001C0220F8A95EAF72093EA001092EA0033
:103280008091EB008860EACF811163C11091410504
:103290001F778091E3008078812B8093E3008091F9
:1032A000E800877F8093E8000E946A068091E8002A
:1032B00080FFFCCF8091E30080688093E30082E090
:1032C000111183E080933D0544C18058823008F09D
:1032D00040C180914105909142058C3D23E09207C9
:1032E000A1F583E08A838AE289834FB7F894DE01EF
:1032F000139620E03EE051E2E32FF0E050935700B8
:10330000E49120FF03C0E295EF703F5FEF708E2FD6
:1033100090E0EA30C0F0C7968D939D932F5F2431E3
:1033200059F74FBF8091E800877F8093E8006AE2F9
:1033300070E0CE0101960E9416078091E8008B771D
:103340008093E80006C1C096E7CF409143055091B5
:103350004405292F33272330310509F444C078F57B
:103360002130310509F46FC08BE390E0E3ECF5E028
:103370002230310509F0EDC02091E800277F20932D
:10338000E80020914505309146058217930708F41F
:103390009C0140E02115310509F064C0411162C073
:1033A0008091E80082FDC9CF80913D05882329F2F4
:1033B000853019F28091E80083FFF2CFBECF213231
:1033C0003105A9F12232310509F0C3C0411551057B
:1033D00009F443C04130510509F0BBC086EB90E0D1
:1033E000EDECF4E0C9CF992781309105C1F0009749
:1033F00059F0029709F0ADC0E0E1F6E0E4918E2FBC
:1034000090E0E0E1F6E007C0E0E3F6E0E4918E2F23
:1034100090E0E0E3F6E0009709F49BC0ADCFEEE169
:10342000F6E0E4918E2F90E0EEE1F6E0F4CF411566
:10343000510571F04130510509F08BC089E090E0F1
:10344000EEEEF5E099CF82E190E0EEEFF5E094CF7B
:1034500089E090E0E5EDF5E08FCF80E490E0E3E8EF
:10346000F5E08ACF80913D05882309F466CF853049
:1034700009F463CF8091E80083FD5FCF8091E8007D
:1034800082FD8ECF8091E80080FF84CF9091F30081
:103490008091F2002115310519F08830910550F026
:1034A00041E0089709F040E08091E8008E77809332
:1034B000E80070CF44914093F100319621503109DA
:1034C0000196E8CF803809F044C08091E800877FFA
:1034D0008093E80080913E058093F1009ECE81119B
:1034E00038C0109141051230A0F58091E800877F27
:1034F0008093E80010933E050E946A06112311F0A4
:1035000084E005C08091E30087FDFACF81E08093DD
:103510003D0542E061EC81E00E94890642E261ECF7
:1035200082E00E94890680913D0513C0809141058B
:10353000813079F481E0933009F080E080933C059C
:103540001092E9008091E800877F8093E8000E9454
:103550006A068091E80083FF0AC08091E800877FB7
:103560008093E8008091EB0080628093EB00AA9644
:10357000E3E00C94082F1F920F920FB60F921124C4
:103580002F933F934F935F936F937F938F939F936B
:10359000AF93BF93CF93DF93EF93FF93D091E90065
:1035A000DF708091EC00C82FC17080FDC0E81092E0
:1035B000E9008091F000877F8093F00078940E946A
:1035C0000A181092E9008091F00088608093F00062
:1035D000CD2BCF70C093E900FF91EF91DF91CF9198
:1035E000BF91AF919F918F917F916F915F914F911B
:1035F0003F912F910F900FBE0F901F9018950E9432
:10360000F4172FEF84E39CE0215080409040E1F7D5
:1036100000C0000088E19AE00FB6F894A895809366
:1036200060000FBE90936000FFCF882391F19CEF64
:10363000980F913A40F4682F8CE092E00E94950731
:103640000E94A10D089590E2980F983050F4877071
:1036500091E001C0990F8A95EAF7892F0E94FC0B2F
:10366000EFCF9BE5980F933028F490E080E00E9424
:103670000A08089598E5980F973128F490E080E0C3
:103680000E94F40708958D3E20F00E94DD080E94FC
:1036900049170895CF93C82F8823D1F18CEF8C0F51
:1036A000813AC0F580914B01882311F18091130577
:1036B00087FF1EC0EC2FE695E695E695F0E0E45F07
:1036C000FD4F828190E04C2F477021E030E002C036
:1036D000220F331F4A95E2F782239323892B89F027
:1036E0006C2F8CE092E00E9495070E94A10D09C00A
:1036F000EEE0F2E08191C81799F382E0E431F80737
:10370000C9F76C2F8CE092E00E94BF070E94A10DC8
:10371000CF91089580E28C0F883068F4C77021E063
:1037200030E001C0220FCA95EAF780919F02822BF8
:1037300080939F02EBCFEBE5EC0FE33040F4F0E039
:10374000E756FE4F808190E00E940A08E1CFE8E54D
:10375000EC0FE73150F4F0E0EE0FFF1FE456FE4FA0
:10376000808191810E94F407D3CFCD3E88F28C2FC7
:103770000E9498090E944917CBCF0F931F93CF93B4
:10378000DF93C62FD42F022FFC0182818823A9F05A
:10379000609349050E943D17909348058093470523
:1037A000C77081E001C0880FCA95EAF70E94FD0D3D
:1037B000DF91CF911F910F91089580914905681372
:1037C00035C080914705909148050E942E17883C8E
:1037D000910560F510E21D0FCD17B9F080E28C0F56
:1037E000883040F4C77081E001C0880FCA95EAF7BD
:1037F0000E94F60D183048F481E09D2F977001C0AB
:10380000880F9A95EAF70E94FD0D802F0E944A1BAF
:10381000802F0E94151B183058F6D77081E001C028
:10382000880FDA95EAF70E94F60DC2CFC77081E0E3
:1038300001C0880FCA95EAF7F6CF0E94B511882318
:1038400019F00E943D1708950E94E911CB010895D7
:103850006091FD04669570E04BE050E088E391E0F4
:103860000E94BC2F892B19F481E0809348030E94A9
:103870001D1C90934203809341038091490384600F
:103880008093490308959091FD0490FF31C0917099
:1038900081112FC092609093FD0480914903816053
:1038A00080934903662351F06091FD047091FE04FA
:1038B0008091FF04909100050E9439136091FD04EE
:1038C000669570E04BE050E088E391E00E94BC2FE9
:1038D000892BB1F00E94270881E08093440320E007
:1038E000409100056091FF048091FE040E944C13FA
:1038F00008958B3210F09465CECF880F982BCBCFE4
:103900000E94281CE9CF8091FD048695815009F41E
:103910008AE261E00E94431C08958091FD0486952F
:103920008F5F8B3208F081E061E00E94431C0895B4
:103930009091FD0490FF08C09695981728F096176F
:1039400018F40E948D1C089561E00E94431C0895A4
:10395000A5E0B0E0EEEAFCE10C94E32E7C01FC0172
:1039600083819481892B31F08081918189238F3FDC
:1039700009F0E9C42596ECE00C94FF2E0E940D0C92
:10398000182F682F89819A810E94810C69817A8120
:10399000812F0E944E0A8C01F7018281882391F1C8
:1039A000C80190568115F0E29F0728F0905E8115BE
:1039B000904108F053C0C801992720E28C3391054B
:1039C00020F4FC01E35AFE4F20811F922F939F9316
:1039D0008F93F70180811F928F9381811F928F9324
:1039E0008CE491E09F938F931F9288E18F9387EFF0
:1039F00092E09F938F930E94DF2F0FB6F894DEBF63
:103A00000FBECDBF043F3CE5130709F48BC040F562
:103A1000093D9CE5190709F481C00A3DECE51E0744
:103A200009F48CC0083DFCE51F0741F526E241EE94
:103A300061EEC7010E94BD1B80917D02877009F471
:103A400099CFF7018281882309F494CF80911405DE
:103A500082FF90CF82E00E94A5178CCFC801ADCF26
:103A6000063F2CE5120709F465C008F45FC027E2A1
:103A700045EE66EE073F8CE51807D9F2F701828123
:103A8000882309F471C4109249050430FDE51F072D
:103A900008F057C00B3F2CE5120730F4C8018250E4
:103AA0009C45449708F058C00E945B1490931405FD
:103AB000809313050231ECE51E0709F458C108F0A4
:103AC000A4C009302CE5120709F42FC108F06EC01C
:103AD00005308CE5180709F418C108F05AC0033006
:103AE000ECE51E0709F409C108F00BC1809113052C
:103AF000816002302CE5120709F484C0609113053F
:103B00001091140584E090E00E949232612F82E2CD
:103B100090E00E9492320E94F4178ECF27E245EE89
:103B200065EE87CF26E241EE60EE83CF27E245EED9
:103B300064EE7FCF26E241EE62EE7BCF28E241E0E9
:103B4000EFCF063A3DE5130709F4AECFE0F40236B5
:103B50009DE5190709F4A8CF06318CE5180709F08F
:103B6000B4C480919F028A7A91E009F490E0909326
:103B70002C0269E2811165E38CE092E00E94BF07AC
:103B80000E94A10D59CFC8018E5A9D45039720F779
:103B90008BCF80911305806207303CE5130791F1CC
:103BA00008F4BFC08091130580642CC00D309CE5E3
:103BB000190709F4C4C090F4809113058E7F0B306F
:103BC000FCE51F07F9F0809113058C600C302CE5A3
:103BD0001207C0F0809113058D7F14C00F303CE5B3
:103BE000130709F4BCC008F4AEC000319CE5190706
:103BF00009F4B9C0809113058F7B0131ECE51E07F4
:103C000009F07CCF8093130579CF0115FDE51F07DF
:103C100009F4B7C0A8F50B3F3CE5130709F479C0D8
:103C2000C0F404319CE5190709F4B9C008F4A5C033
:103C30000531FCE51F0709F061CF8091130582FB78
:103C4000992790F921E0922790FB82F990FB83F964
:103C5000D9CF0D3F2CE5120709F479C008F45DC0F7
:103C60000E3F8CE5180709F476C080911405836037
:103C70000F3F9CE5190709F041CF809314053ECF13
:103C80000236EDE51E0709F495C090F402302DE5EB
:103C9000120709F48DC008F478C060E003308DE5A8
:103CA000180709F02BCF8EE090E00E94923226CFC9
:103CB0000E3A9DE51907E9F060F490911305892FFC
:103CC0008E7F90FF8160063AFDE51F0709F49ACFC9
:103CD00015CF0F3A2DE5120771F1003B3DE51307B3
:103CE00009F00CCF90911405892F877F93FF88608E
:103CF000C4CF809114058860C0CF80911305826085
:103D000081CF8091130584607DCF809113058860F9
:103D100079CF809114058160B0CF809114058260C5
:103D2000ACCF8091130580616DCF0E94F417809114
:103D30001305806867CF80911405877F9ECF80919F
:103D400013058B7F5FCF80911305877F5BCF8091B9
:103D500014058E7F92CF809114058D7F8ECF809138
:103D600013058F7E4FCF809113058F7D4BCF0E941F
:103D7000F417809113058F7745CF80911305837FCA
:103D800041CF809114058C7F78CF80911405982FB6
:103D9000909591708E7F892B90FB81F96ECF0E9458
:103DA000F41790911305892F97FB87F980582ACF34
:103DB00061E079CF90911305892F8F7E94FF806108
:103DC00021CF80912C0269E2811165E38CE092E0C1
:103DD0000E949507D5CE81608093FD0461E08695B1
:103DE0000E94431C29CE43E85CE16DE87CE10E941F
:103DF000200822CE4DE85CE163E87CE1F8CF44E1A5
:103E000054E16AE074E1F3CF40EF53E16DEF73E109
:103E1000EECF46ED53E163EE73E1E9CF43EE53E1BC
:103E200066ED73E1E4CF40E354E16EE174E1DFCF8E
:103E300061E081E0D5CF65E082E00E94981CFCCD76
:103E400068E086E0FACF64E18FE0F7CF67E185E1D3
:103E5000F4CF62E289E1F1CF61E083E2C1CF0E9459
:103E6000F4172FEF34E38CE0215030408040E1F72D
:103E700000C000000E9478078091140582FB88270B
:103E800080F991E089270E94C117F70182810081A2
:103E90001181882309F445C0C8010E940D0CD82E59
:103EA000682FC8010E94810CB8018D2D0E944E0A16
:103EB0000E94690A8C01882EF701D280B580B294E5
:103EC0003FE0B32280917D028770C1F0AD2CDD20F0
:103ED000B1F0812F807F803421F080E2800F883024
:103EE00068F08091140582FF09C082E00E94A51746
:103EF00080917D028770AA24A3948111A12C912E18
:103F000092942FE09222FBE0F91508F476C0E92D97
:103F1000F0E0EB5CFC4C0C94422F81E0B4CF80E0ED
:103F2000B2CFC8010E944E0CD82EBECF212F2F70C9
:103F3000C22E107F19F0C29490EFC922DD20B9F093
:103F4000CC2069F080E2800F883010F0811009C029
:103F500080919F02C82AC0929F020E94A10D802FCB
:103F60004AC080919E02C82AC0929E02F6CF802F3E
:103F70000E94151BCC2009F440C0005E083010F0F0
:103F8000811004C08C2D0E94FC0B06C0C09480914F
:103F90009E02C822C0929E020E94A10D2EC0312F07
:103FA0003F70C32E107F103219F0C29480EFC822E8
:103FB000882089F081E0881609F477C0DD2009F4B3
:103FC00081C0BB2009F477C0F701858180FFC7CF8E
:103FD0008F70858370C02091140522FD43C0DD20C1
:103FE000D9F1CC2039F080919F02C82AC0929F025B
:103FF0000E94A10D80E00E944A1BE92DE850FF0BB2
:10400000349710F40E94D811AA20A9F080917D0263
:1040100080FD11C0F70112828595859585950E94D6
:10402000DD17C7010E94A81C80917D0285958595AA
:1040300085950E94931785E0F701DE0111960190A6
:104040000D928A95E1F709811A81C8010E944E0CF0
:10405000B8010E944E0A8ECC80E00E94151BCC2035
:1040600061F290CFDD20A1F09091A0028C2D892BE0
:10407000B11003C00E94FD0DC0CFE1E0BE12FACF27
:1040800022FFBBCF981709F4B8CF8093A002B5CF19
:10409000B11006C00E94F60B8C2D0E94F60DADCF1C
:1040A000F1E0BF1609F4A9CFF5CFDD2031F025E00E
:1040B0002B1508F4A2CF8C2DDDCF34E03B1508F48E
:1040C0009CCFEACFBB2041F3F9E38F1235C12FEF2C
:1040D00037EE83E0215030408040E1F700C000001F
:1040E0002BC1812F86958695837061F0813009F010
:1040F00084CFC8019370D11002C090E080E00E948C
:10410000F4077BCFC8019370D11002C090E080E02B
:104110000E940A0872CF802FDD2029F00E949809A2
:104120000E9449176ACF0E94DD08FACF812F837061
:1041300009F03FC0D11061CF402F4295469547709E
:10414000440F440F802F8F7090E0042E02C0880F20
:10415000991F0A94E2F730E020E004FF09C02FE045
:1041600030E002C0220F331F4A95E2F720953095C8
:10417000169516951370123099F078F44091A102BB
:104180005091A202113039F0822B932B8423952376
:104190000E94ED1732CF842B952B822B932BF8CFD7
:1041A000822B932B2091A1023091A2028227932788
:1041B000EFCF8695DD2011F0812F8170882309F4DF
:1041C0001CCF402F429546954770440F440F802FD7
:1041D0008F7090E0042E02C0880F991F0A94E2F7B6
:1041E00030E020E004FF09C02FE030E002C0220FE1
:1041F000331F4A95E2F72095309516951695137062
:10420000123099F078F44091F5025091F602113095
:1042100039F0822B932B842395230E948C17EDCEAB
:10422000842B952B822B932BF8CF822B932B2091D1
:10423000F5023091F60282279327EFCF1F70DD2021
:1042400029F0812F0E94DD17802F14CF802F0E942C
:10425000F60D812F0E949317D0CE802F92EF8916F2
:1042600099F1981570F0E0EF8E16D1F0F1EF8F16FE
:1042700091F0DD2009F45BC0B11071CE812F8F71F8
:1042800027C023EF821639F134EF8312F2CF8091E9
:10429000140582FD2EC0812F8F71DD20D9F218C048
:1042A000DD2069F084E08B1508F4A7CE1F7181E052
:1042B00090E002C0880F991F1A95E2F7B8CF95E0F9
:1042C0009B1508F49ACEF2CF812F8F71D110C2CFF7
:1042D0000E94DD1792CE90E080E0DD2009F49DCFB2
:1042E0001F7181E090E002C0880F991F1A95E2F7D4
:1042F00094CFDD2089F01F71812F0E94DD178091FE
:10430000140582FF07C0E8E01E9FC00111248360EE
:1043100080937D02812FDCCF81E00E94A517F1E020
:10432000FB1508F06ACE82E00E94A51766CEBB207E
:1043300039F0893309F4CBCE802F0E94151B5DCE56
:10434000812F8F7187CF85E0DE01119601900D924C
:104350008A95E1F7F701228189819A8121110ECB9B
:104360000E944E0C182F12CB0631FCE51F0709F4F2
:1043700028CD80919F0282720D3C2CE5120709F432
:1043800052CD08F068C0073C9CE5190709F437CD09
:10439000F0F5043CFCE51F0709F425CD48F5033C86
:1043A0003CE5130709F071CD8091FD0480FF13CD2A
:1043B0008E7F8093FD046091FD047091FE048091D6
:1043C000FF04909100050E9439130E9427088091F4
:1043D00049038160809349039FEFE0E7F2E0915049
:1043E000E040F040E1F700C000000E949D0E24CBA9
:1043F000053C9CE5190709F4FDCC4AE054E164E171
:1044000074E1063CECE51E0709F4F1CC3ECD0A3C14
:10441000FCE51F0709F4FDCC78F4083C3CE51307E4
:1044200009F4F2CC4DEF53E160EF73E1093C9CE5F8
:10443000190709F4DCCC29CD0B3CECE51E0709F487
:10444000EDCC4EE154E160E374E10C3CFCE51F0768
:1044500009F4CDCC1ACD023D2CE5120709F4F3CCBA
:10446000A0F40F3C8CE5180709F4E5CC08F4E0CC87
:10447000003DECE51E0709F4E3CC6EE089E0013D68
:10448000FCE51F0709F4D9CC00CD053D2CE512074A
:1044900009F4DFCC68F4033D8CE5180709F4D6CCA9
:1044A00061E088E1043D9CE5190709F499CCEDCC65
:1044B000063DECE51E0709F4CFCC6AE285E20E3535
:1044C000FDE51F0709F4B9CCE0CC0B352DE512074B
:1044D00009F423CD68F401158CE5180709F4BFCC65
:1044E0000F3D1C4509F0D1CC0E94C9150E94FF1A4E
:1044F0000D35EDE51E0709F4BFCC08F410CD083AE0
:104500001D45A1F3C2CC1F93CF93DF9380914A0244
:10451000807F09F049C080914702882309F444C094
:1045200080917C02D0914B026091450270914602CD
:10453000A0914802B0914902C62FC72316E0D817B0
:1045400099F190E0109711F0CF3F19F40196877020
:10455000F6CF189F9001199F300D1124F901E45BEB
:10456000FD4F41814713F2CF40814613EFCF428187
:104570004111ECCF438154814A1B5B0B483C5105F0
:1045800028F780914A028F70806180934A02F90176
:10459000EF5AFD4F80818F708061808385E492E0C7
:1045A0000E94A81C0E94030CDF91CF911F910895D7
:1045B000A1E1B0E0EEEDF2E20C94E52E8C0185E095
:1045C000F801DE011D9601900D928A95E1F7F80140
:1045D000E28085E4A82E82E0B82E609148027091B6
:1045E00049026115710509F426C190914502409177
:1045F0004602892F84238F3F09F41DC12081318118
:10460000C380D480F0904702F601E61BF70BFF2031
:1046100009F4DCC080914A02582F507FE83CF10534
:1046200008F09FC051116BC0FE2C431314C09213AD
:1046300012C0E11010C08F70806180934A02C501E2
:104640000E94A81C80914A02F80185838F2D6196F3
:10465000EAE00C94012FC114D10429F0822F8323A6
:104660008F3F09F003C180E0F82FF170DF2E80FF4B
:104670003CC080917C0240914B0256E0841315C0EF
:104680002D873E878D859E850E94410C292F22957E
:104690002F702230F0F0243018F59F70F1F0F801FF
:1046A0009581907FD1F4D12C1EC090E0589FF001ED
:1046B000599FF00D1124E45BFD4F6181361306C054
:1046C0006081261303C06281E6120FC001968770D5
:1046D000D5CF9F7011F0882331F3805E883018F3B6
:1046E000C8010E94A81CFD2CB1CFEE2009F4AECF6A
:1046F00080914A02816080934A02F12CA7CF431334
:1047000006C0921304C0F801EE2009F479C0C80174
:104710000E94B70C882309F1EE20F9F080914A023B
:10472000803270F0209145023091460238872F8305
:104730001986DB86CA868C87CE0107960E94A81C44
:1047400086E0F801A5E4B2E001900D928A95E1F7C8
:104750000E948322FF24F39479CFC8010E94A81CF1
:10476000F9CF51110AC085E492E00E94A81C86E0AE
:10477000F50111928A95E9F7C0CF43130FC0921348
:104780000DC0E1100BC0F8018583C8010E94A81C70
:1047900086E0F50111928A95E9F758CFC8010E9489
:1047A000B70C8823D1F2EE20C1F280914A02803208
:1047B00038F220914502309146023A8329831B82C8
:1047C000DD82CC828E83CE010196B8CFE83CF10524
:1047D000F8F6FE2CEE2009F243131FC092131DC001
:1047E00080914A0280FD10C0982F907F69F0F801F7
:1047F0008583903F31F0982F907F905F8F70892B49
:104800008583C8010E94A81C86E0F801A5E4B2E0F7
:1048100001900D928A95E1F719CFC8010E94B70C5B
:1048200081118ECF80914A02816080934A02C80133
:104830000E94A81C0BCFEE2009F48FCFC8010E9464
:10484000B70CF82E882309F488CF86E0F801A5E498
:10485000B2E001900D928A95E1F780914502909126
:1048600046020E94410C0E948322F0CE81E08E25F8
:10487000FBCEA7E1B0E0EFE3F4E20C94EC2E4B8B1F
:104880005C8B6D8B7E8B8F8B611110929E021A8ACE
:10489000198A85E0FE017396DE011D9601900D9246
:1048A0008A95E1F786E0FE013D96DE0117960190BC
:1048B0000D928A95E1F7CE0107960E94D8228111C8
:1048C00012C086E0FE013796DE01119601900D922E
:1048D0008A95E1F78A859B85892B29F088859F81B8
:1048E00089238F3F81F516E080917C0290914B02E5
:1048F000891317C06796E3E00C94082F96E0929F07
:10490000D001939FB00D1124A45BBD4FFE013196E1
:1049100001900D929A95E1F780934B020E94030C4F
:10492000E2CF819FC0011124845B9D4F0E94D82259
:10493000882301F380917C0290E00196877099278B
:1049400080937C02D1CF20914B0230E0C9010196C7
:104950008770992740917C024817190679F60E94C2
:10496000F41710924B0210927C0286E0E5E4F2E02C
:10497000DF011D928A95E9F7B6CFACE0B0E0E3EC39
:10498000F4E20C94E22E8E010F5F1F4F88E0D801F5
:104990001D928A95E9F78CECC82E81E0D82EF12C77
:1049A000E12CAA24A394B12C26ED822E21E0922E94
:1049B000F60181916F018F3F09F442C0F894E82F0E
:1049C000E295EF70F0E021A18F70A50102C0440FC5
:1049D000551F8A95E2F7CA01922F982B91A392A1B5
:1049E0008095892382A3789400C0E0EDF1E0712CDA
:1049F00031E021912F3F09F46BC0A22FA295AF7037
:104A0000B0E090968C9190E02F7002C095958795BC
:104A10002A95E2F780FD5CC0832F782A330F8E162B
:104A20009F0639F7F601319780818F3F11F00E9480
:104A3000F40950EA5A95F1F7F801EE0DFF1D708266
:104A40008FEFE81AF80A94E0E916F10409F0B0CF04
:104A500048E050E0B80184ED92E00E94C92F009731
:104A600041F028E0F801A4EDB2E001900D922A9502
:104A7000E1F70091DD02892B69F181E08093A502C5
:104A80000E943D179093A4028093A3028091A302F9
:104A90009091A4020E942E17059700F110E00F518B
:104AA0001D4F44E050E064ED72E0C8010E94C92F40
:104AB000F12C892B51F084E0E4EDF2E0D801019073
:104AC0000D928A95E1F7FF24F3941092A50207C096
:104AD00080E0A3CF8091A5028111D8CFF12C0E9454
:104AE000B511E82EE091DD02882309F47DC0198616
:104AF0001A861B861C860E2F10E00F511D4F8091C9
:104B0000CF028A30D8F540E255E1BE01675F7F4FA2
:104B1000C8010E948211882309F455C049E654E176
:104B2000BE01675F7F4FC8010E948211882309F48C
:104B30004AC04FEB54E1BE01675F7F4FC8010E943E
:104B40008211882309F43FC01092CF028091DC02C9
:104B500090E044E050E0BE01675F7F4F8F519D4F72
:104B60000E94C92F21E02093AC02892BF1F4E12CA3
:104B70008E2D8F292C96EDE00C94FE2E8091A602AE
:104B80009091A7020E942E17843F914008F0BBCF5E
:104B90008091AC02882359F3FE01399684E0DF014D
:104BA0001D928A95E9F71092AC02E091DC02F0E0E8
:104BB000EF51FD4F89859A85AB85BC8580839183B4
:104BC000A283B383D5CF8091CF028F3F31F08F5F27
:104BD0008093CF028A3008F4B9CF0E943D1790939A
:104BE000A7028093A602D4CFF0E0EF51FD4F84E0FE
:104BF000ABEBB2E001900D928A95E1F78BEB92E07E
:104C00000E94D9058093BA028090BF029090C002A2
:104C1000A090C102B090C2028091A8029091A90216
:104C2000A091AA02B091AB0288169906AA06BB060B
:104C3000D1F08092A8029092A902A092AA02B0920A
:104C4000AB020E94B51181110EC00E948907861A1D
:104C5000970AA80AB90A8092D0029092D102A09233
:104C6000D202B092D3028091CA02882309F480CF85
:104C700080FF0DC08091C3029091FD0480FF28C089
:104C800091609093FD0460E086950E94431C8091A2
:104C9000CA0281FF09C020E04091C6026091C502AE
:104CA0008091C4020E944C138091CA0282FF06C008
:104CB0008091C902882311F10E94281C8091CA02A8
:104CC00083FF03C081E0809344031092CA0250CF57
:104CD0009E7F9093FD040E94270880914903816084
:104CE00080934903BFEFE0E7F2E0B150E040F040CD
:104CF000E1F700C000000E949D0EC9CF0E94270866
:104D0000DDCF1F921FB61F9211248F939F93AF93F5
:104D1000BF9380910E05811113C080910F05909172
:104D20001005A0911105B09112054196A11DB11D6C
:104D300080930F0590931005A0931105B093120571
:104D4000BF91AF919F918F911F901FBE1F9018959B
:104D5000CDB7DEB762970FB6F894DEBF0FBECDBFFA
:104D600085B7806885BF85B7806885BF84B7877F32
:104D700084BF0FB6F894A8958091600088618093F5
:104D80006000109260000FBE80E890E00FB6F894CB
:104D900080936100909361000FBE82EF99E0909341
:104DA0000B0280930A020E94F0050E94BB068091CC
:104DB000E20084608093E200789480913D0588232E
:104DC000A1F01091E9001F709091EC00892F817083
:104DD00090FD80E8182B1092E9008091E80083FD97
:104DE0000E940A181F701093E90082E084BD93E0CE
:104DF00095BD9AEF97BD80936E001092D0021092ED
:104E0000D1021092D2021092D3020E94B511809367
:104E1000240180912401882309F473C01092460173
:104E20008BE1809347010E94B51181110E94672D8B
:104E3000809124018091240194E0811190E090936D
:104E4000DD0284E0891B8093DC0284E90E94F4097E
:104E500086E60E94F40987E90E94F40986EC0E9424
:104E6000F40900ED11E066EDE62E61E0F62ED801C2
:104E70008D918D018F3F11F00E94F409E016F1062B
:104E8000B1F788E0E1EEF2E0DF01282F1D922A95CC
:104E9000E9F7E4EDF2E0DF011D928A95E9F790E091
:104EA00080E00E948C32883E9E4F11F00E94C9150E
:104EB00082E090E00E947E328093E9020E945B14BF
:104EC00090931405809313050E94BD24EFE3FCE941
:104ED0003197F1F700C000000E94BD240E94B51177
:104EE000E4E08111E0E0F0E0EF51FD4F808181FFCF
:104EF0000CC06FEF7FEF90E080E00E94B0320E9424
:104F000078078BE1809346018CCF83E090E00E948C
:104F10007E3290E00E94ED170E94B5118111EEC023
:104F200082E080932F0380E880934A050E94212C21
:104F30006DE070E08FE392E00E940312892BE9F5A7
:104F400080912F0363E070E081FDDAC08CE392E092
:104F50000E940312892B89F56DE070E08CE292E0EB
:104F60000E940312892B49F50E948907605A7541F6
:104F70008F4F9F4F60930205709303058093040544
:104F800090930505EDE4F5E080E092E0DF019C01FF
:104F90001D9221503040E1F7F0935407E0935307FE
:104FA0008FEF9FEF90934C0580934B0581E08093AA
:104FB000070580930605109230038091DE0281116F
:104FC0003BC090E080E00E948C32883E9E4F21F0F2
:104FD0000E94C9150E94421488E090E00E94863227
:104FE0006093FD047093FE048093FF04909300058A
:104FF000809149038360809349036E7F71F40E941E
:10500000421488E090E00E9486326093FD04709321
:10501000FE048093FF04909300050E942E080E94D6
:1050200027088091FD0480FF04C060E086950E94FF
:10503000431C81E08093DE020E94B511811102C001
:105040000E946A2D85E291E090930B0580930A05FA
:1050500080913D0500E112E1853009F48EC00E9487
:10506000BD244AEEE42E42E0F42E51EEC52E52E06D
:10507000D52ED601F70191918D9122EF32E02E17B6
:105080003F0709F484C09817B1F30E94B511882E28
:1050900010E0D6010D916D01F70191907F019016FE
:1050A00029F1B12CAA24A3949026892D8A21B1F04C
:1050B0008820A1F0BC861D8791E0802F8A2109F409
:1050C00090E09E870E943D178160782F988B8F8794
:1050D0004C855D856E8588890E943924B394AA0C1D
:1050E000F6E0BF12E2CFF701319700831F5F18305F
:1050F00081F60E948907DD24D3946AC080E011CF35
:1051000089E392E025CF80913D05843031F10E9402
:105110002D1210920E0588E190E0A0E40FB6F894ED
:10512000A895809360000FBEA093600083B7817F35
:10513000846083BF83B7816083BF7894889583B789
:105140008E7F83BF0FB6F894A89580916000886128
:1051500080936000109260000FBE80913C05882310
:1051600061F00E94BD24E1EEF2E08191811149C31A
:1051700029EE32E02E173F07C1F780913D058530BB
:1051800009F4C1CF0E94F4170E94D81168CF981378
:105190007CCF0E943D178C018091DF029091E0024C
:1051A00008171907A1F08FEF8F83888719860E944F
:1051B0003D178160782F9B878A874F815885698545
:1051C0008B850E9439241093E0020093DF02D12CDA
:1051D0000E94B51180914803882309F464C080912E
:1051E0004703E091FD04E695E81BE093430382301A
:1051F00009F067C1F0E0E35AFD4FE4910E2F10E093
:105200003EE6E32E31E1F32E80914403882361F0E2
:10521000109244030E941D1C90934203809341030B
:1052200010924603109245030E941D1CE091410319
:10523000F09142039C012E1B3F0B2F3F3F4798F5F7
:105240002091F4022223B1F01092F4022091F20294
:105250003091F302821B930B8F3F9F4758F4205DE0
:105260003A483093F3022093F20280914903886018
:1052700080934903A0904503B0904603E00FF11FCF
:10528000F0934203E093410381E493E0F701099531
:105290008091450390914603892B29F4AB2819F09E
:1052A00081E08093F40280910705882351F1809179
:1052B0003103909132030E942E17C29708F06DC1FE
:1052C00020914B0530914C052115310509F0B5C1F0
:1052D000809106058823A9F00E94890700910205A4
:1052E000109103052091040530910505601B710B99
:1052F000820B930B6F3F7F4F8F4F9F4710F40E949D
:105300002D12D1100E94481286E0EBE3F3E0DE019B
:10531000119601900D928A95E1F710923D0310923B
:105320003E0310923F03109240038B819C81892B96
:1053300009F44AC08091390390913A030E942E17D4
:105340009C0190913503992309F476C225313105EA
:10535000D8F19F3F19F09F5F909335031B81112374
:1053600059F00E9478099FEF11160CF491E0899F83
:10537000802D112480933D031C81112359F00E943C
:1053800078099FEF11160CF491E0899F802D11246C
:1053900080933E0330913D033323B1F020913E03CF
:1053A000222391F045EB3403C0011124992309F421
:1053B00018C290933D0345EB24039001112433233D
:1053C00009F413C230933E038D819E81892B09F429
:1053D0004AC080913703909138030E942E179C0198
:1053E00090913403992309F422C221353105D8F173
:1053F0009F3F19F09F5F909334031D81112359F053
:105400000E9456099FEF11160CF491E0899F802DA0
:10541000112480933F031E81112359F00E945609E5
:105420009FEF11160CF491E0899F802D1124809339
:10543000400330913F033323B1F0209140032223F6
:1054400091F045EB3403C0011124992309F4D1C133
:1054500090933F0345EB240390011124332309F477
:10546000CCC13093400346E050E0BE016F5F7F4FF8
:105470008BE393E00E94C92F892B61F480913D0357
:1054800090913E03892B90913F03892B909140038B
:10549000892B11F00E94491786E0FE013196ABE39B
:1054A000B3E001900D928A95E1F70E94D811909196
:1054B0003303891709F4CCCD809333030E94890705
:1054C000C7CD863059F4F0E0E65AFD4FE4910E2F37
:1054D00010E02EE5E22E21E1F22E96CE893061F425
:1054E000E695F0E0E95AFD4FE4910E2F10E097EBBE
:1054F000E92E90E1F92E88CE8F3061F4E695F0E048
:10550000EC5AFD4FE4910E2F10E08CE2E82E80E182
:10551000F82E7ACE853159F4F0E0EF5AFD4FE49140
:105520000E2F10E0B7EAEB2EBFE0FB2E6DCE8831D8
:1055300069F1833249F4EFE4F2E005911491ADE0B2
:10554000EA2EA1E1FA2E60CE04EF11E078EEE72E0C
:105550007EE0F72E843209F457CE00ED17E066E2C4
:10556000E62E68E0F62E853209F04ECE8E2F63E0EF
:105570000E94142FE92FF0E0E45BFD4FE4910E2F21
:1055800010E0F0E7EF2EF2E1FF2E3ECE08E210E051
:10559000E5E2EE2EEFE0FE2E37CE0E943D1790930F
:1055A0003203809331038DE495E090935407809308
:1055B00053070E94B5118823D9F18CE792E00E942D
:1055C000610DE091F502F091F602EF30F10558F42B
:1055D000EF5BFC4C0C94422F84E792E00E94610D3B
:1055E00081E00E946F0D07EF12E0D8010D900020BE
:1055F000E9F78D010150110957EFE52E52E0F52E24
:10560000E016F10678F080910705882309F460CE52
:1056100057CE8EE692E0E2CF88E692E0DFCF81E6D9
:1056200092E0DCCFF70181917F010E94E10CE8CF8D
:1056300084E892E00E94610DE6CF8091300361E042
:1056400070E0811145CE082F10E07B01082E02C0CA
:10565000EE0CFF1C0A94E2F7A9014E215F21452BB5
:1056600009F447C090912F0390FD45C08295880FA3
:105670008076809333019801369527953695279546
:1056800020933601815E809334011092370124E625
:1056900030E047E050E061E371E088E70E94C12C10
:1056A000892B09F015CEA80125E0440F551F2A9536
:1056B000E1F780912F0380FD2CC0435B5A4F04E635
:1056C00010E020E230E060E488E70E94E22C892BC1
:1056D00009F0FECD0E944812E094F09480914B05B1
:1056E00090914C05E822F922F0924C05E0924B058E
:1056F000EFCD8F5FA8CF880F880F880F809333017D
:1057000010923601895F8093340183E080933701E2
:10571000BECFEFE0F3E080E2DF011D928A95E9F76A
:10572000EAEDF1E0FA8BE98B06ED11E08EED282E23
:1057300081E0382E97E0992E88248394A989BA892C
:105740002D91BA8BA98BF80141908F01440E552EF3
:10575000511CC201835B9A4F2C01E22FF0E0E15F04
:10576000FC4F30E020E0692C621AC82C022E01C0E8
:10577000CC0C0A94EAF7520190E0D5018D915D01BD
:105780008C21662D691B6770762E062E000C770B18
:10579000B82F01C0BB0F7A94EAF77B2E7195619503
:1057A00071096770772701C086956A95EAF7782AAC
:1057B0008081782A70829F5F9830F9F62F5F3F4F83
:1057C00031962830310579F6E989FA892E163F0697
:1057D00009F0B4CF04E610E020E230E04FE053E0FF
:1057E00072CF81E080933D03E6CD81E080933E035C
:1057F000EBCD81E080933F032DCE81E08093400389
:1058000032CE09BD19BD09B400FEFDCF8091D8008C
:105810008F7D8093D8008091E00082608093E000CB
:105820008091E00081FDFCCF0E94F417A6CC2B30C4
:10583000310508F0DFCD17CE2B30310508F08BCDC8
:10584000C3CD1092B9008CE08093B8000895B0E009
:10585000A0E0EDE2FCE20C94E42EB82EEB010E94F5
:105860003D176C01EE24E394F12CC431D10560F0B6
:1058700025E0E22EF12CCF3FDC0731F0CE0164E1D0
:1058800070E00E94C92E7B0184EAA82E94E8992E2C
:105890001092BC00A092BC000E943D178C01809128
:1058A000BC0087FF0DC08091B900887F8830F9F077
:1058B0008091B900887F8031D1F00FEF1FEF08C0D1
:1058C000C8010E942E17E816F90648F70EEF1FEFE1
:1058D000CF3FDC07E9F2C6010E942E17C817D9078F
:1058E000B8F6C801CDB7DEB7EBE00C94002FB0924C
:1058F000BB009092BC000E943D178C018091BC00BF
:1059000087FF0AC08091B900887F883111F0803408
:10591000A1F610E000E0E5CFC8010E942E17E816BE
:10592000F90660F7D3CF0F931F93CF93DF93EB016B
:105930008093BB0084E88093BC000E943D178C01DB
:105940008091BC0087FF11C02091B900287F81E0C1
:1059500090E0283211F490E080E0919581959109D2
:10596000DF91CF911F910F910895CF3FDC0741F355
:10597000C8010E942E17C817D90710F78EEF9FEFA6
:10598000EFCFB0E0A0E0E7ECFCE20C94E72E6B0177
:105990008A017901B9010E94272CE6010C0D1D1D19
:1059A000C017D10711F097FF08C024E92093BC006D
:1059B000CDB7DEB7E8E00C94032FB70189910E94C0
:1059C000932CEECFB0E0A0E0E8EEFCE20C94E72EE2
:1059D000C62F6A017901B8010E94272C97FD0CC0DF
:1059E000B8018C2F0E94932CE601EC0CFD1CCE1507
:1059F000DF0511F097FF08C024E92093BC00CDB764
:105A0000DEB7E8E00C94032FB80189910E94932C33
:105A1000EECF84E98093BC0008958EE14A9B02C0DA
:105A20008150E1F74A9BFECF08955A9880E28A950B
:105A3000F1F75A9A0895FC013BE03A95F1F798E0A6
:105A400020E080E031E040E14A95F1F7880F4A9B81
:105A500002C08160232742E04A95F1F7000040E14F
:105A60004A95F1F7915079F790E19A95F1F799B14C
:105A700032E03A95F1F7000040E14A95F1F792FBE8
:105A8000992790F992272081920F90830895A1E0A1
:105A9000B0E0EDE4FDE20C94E92E19828C017C016A
:105AA000E60EF11C0E151F0541F481E0998191115C
:105AB00080E02196E6E00C94052F0E940D2DCE018A
:105AC00001960E941B2DF80181938F01EBCF529A12
:105AD0005A9A089552985A9AEA9AE9E6F0E0808133
