:100000000C94410E0C945E0E0C945E0E0C945E0EDD
:100010000C945E0E0C945E0E0C945E0E0C945E0EB0
:100020000C945E0E0C945E0E0C94ED1A0C94A91AAE
:100030000C94EA280C945E0E0C945E0E0C945E0EEA
:100040000C945E0E0C945E0E0C945E0E0C945E0E80
:100050000C945E0E0C94C61B0C945E0E0C945E0EFB
:100060000C945E0E0C945E0E0C945E0E0C945E0E60
:100070000C945E0E0C945E0E0C945E0E0C945E0E50
:100080000C945E0E0C945E0E0C945E0E0C945E0E40
:100090000C945E0E0C945E0E0C945E0E0C945E0E30
:1000A0000C945E0E0C945E0E0C945E0E050109809D
:1000B000A101850319012AB700150126B700950192
:1000C00075108100C0050C0901A101850419012AE0
:1000D000A002150126A002950175108100C00660DE
:1000E000FF0961A1010962150026FF00952075082E
:1000F00081020963150026FF00952075089102C052
:1001000005010906A101050719E029E715002501E8
:10011000950875018102950175088101050719008F
:1001200029FF150026FF00950675088100050819AE
:10013000012905950575019102950175039101C08D
:1001400000000000000000000000000000000000AF
:10015000000000000000000000000000000000009F
:10016000000000000000000000000000000000008F
:10017000000000000000000000000000000000007F
:1001800000008080804040202010080402040810F5
:10019000102020404080800000000000000000008F
:1001A000000000000000000000000000000000004F
:1001B000000000000000000000000000000000003F
:1001C000000000000000000000000000000000002F
:1001D000000000000000000000000000000000001F
:1001E000000000000000000000000000000000000F
:1001F0000000003FC10101020204040404020201E4
:1002000001010000000000008000004080804000EC
:1002100000303000000000010264180412C2CA2439
:1002200088F0808040404040202020201010101096
:100230000808080804040404020202020101010182
:1002400000000000000000000000000000000000AE
:10025000000000000000000000000000000000009E
:10026000000000000000000000000000000000008E
:100270000000E0180601000000000000000000007F
:100280000080838340404040202121201010101026
:100290000808080804040404020202020101010122
:1002A000000000000000000000000000000000004E
:1002B000000000000000000000000000000000003E
:1002C000000000000000000000000000000000002E
:1002D000000000000000000000000000000000001E
:1002E000808080804040404020202020101010104E
:1002F000080F080804040404020408101020204019
:100300004041422498C088888C9C1C1E0E06000028
:1003100000000000000000000000000000000000DD
:1003200000000000000000000000000000000000CD
:1003300000000000000000000000000000000000BD
:1003400000000000000000000000000000000000AD
:10035000000000000000000000000000000000009D
:10036000000000000000000000000000000000008D
:10037000000000000000000000000000000000007D
:10038000000000000000000000000000000000006D
:10039000000000000000000000000000000000005D
:1003A000000000000000000000000000000000004D
:1003B000000000000000000000000000000000003D
:1003C000000000000000000000000000000000002D
:1003D000000000000000000000000000000000001D
:1003E000000000000000000000000000000000000D
:1003F00000000000000000000000000000008080FD
:1004000080404020201008040204081010202040E2
:10041000408080000000000000000000000000009C
:1004200000000000000000000000000000000000CC
:1004300000000000000000000000000000000000BC
:1004400000000000000000000000000000000000AC
:10045000000000000000000000000000000000009C
:100460000000000000000000000000000000003F4D
:10047000C1010102020484444442820101010000DE
:10048000000000008000004080804000003030000C
:1004900000000001020404080810204080808080D1
:1004A000404040402020202010101010080808086C
:1004B0000404040402020202010101010000000020
:1004C000000000000000000000000000000000002C
:1004D000000000000000000000000000000000001C
:1004E0000000000000000000000000000000E01814
:1004F000060100000C03000218190005FE8083832A
:100500004040404020212120101010100808080809
:1005100004040404040830408080000001869860D0
:1005200000000000000000000000000000000000CB
:1005300000000000000000000000000000000000BB
:1005400000000000000000000000000000000000AB
:10055000000000000000000000000000808080809B
:10056000404040402020202010101010080F0808A4
:10057000040404040202020201010101000000005F
:100580000000000000000000000000000000000665
:100590000F0F07030361F0F8FC600101013C78F8DC
:1005A000F0700000000000000000000000000000EB
:1005B000000000000000000000000000000000003B
:1005C000000000000000000000000000000000002B
:1005D000000000000000000000000000000000001B
:1005E000000000000000000000000000000000000B
:1005F00000000000000000000000000000000000FB
:1006000000000000000000000000000000000000EA
:1006100000000000000000000000000000000000DA
:1006200000000000000000000000000000000000CA
:1006300000000000000000000000000000000000BA
:1006400000000000000000000000000000000000AA
:10065000000000000000000000000000000000009A
:10066000000000000000000000000000000000008A
:10067000000000000000000000008080804040205A
:100680002010080402040810102020404080800040
:10069000000000000000000000000000000000005A
:1006A000000000000000000000000000000000004A
:1006B000000000000000000000000000000000003A
:1006C000000000000000000000000000000000002A
:1006D000000000000000000000000000000000001A
:1006E00000000000000000000000003FC101010206
:1006F0000204844444428201010100000000000021
:100700008000004080804000003030000000000188
:100710000264180412C2CA2488F08080404040401D
:1007200020202020101010100808080804040404D9
:1007300002020202010101010000000000000000AD
:1007400000000000000000000000000000000000A9
:100750000000000000000000000000000000000099
:1007600000000000000000000000E018060100008A
:100770000C03000218190005FE80838340404040AE
:100780002021212010101010080808080404040477
:10079000020202020101010100000000000000004D
:1007A0000000000000000000000000000000000049
:1007B0000000000000000000000000000000000039
:1007C0000000000000000000000000000000000029
:1007D0000000000000000000808080804040404019
:1007E0002020202010101010080F08080404040412
:1007F00002020202010101010000000000000000ED
:1008000000000000000000000000000000000000E8
:1008100000000000000000000000000000000000D8
:1008200000000000000000000000000000000000C8
:1008300000000000000000000000000000000000B8
:1008400000000000000000000000000000000000A8
:100850000000000000000000000000000000000098
:100860000000000000000000000000000000000088
:100870000000000000000000000000000000000078
:100880000000000000000000000000000000000068
:100890000000000000000000000000000000000058
:1008A0000000000000000000000000000000000048
:1008B0000000000000000000000000000000000038
:1008C0000000000000000000000000000000000028
:1008D0000000000000000000000000000000000018
:1008E0000000000000000000000000000000000008
:1008F000000000808040404020202020201804027A
:100900000102040810202040408080000000000008
:1009100000000000000000000000000000000000D7
:1009200000000000000000000000000000000000C7
:1009300000000000000000000000000000000000B7
:1009400000000000000000000000000000000000A7
:100950000000000000000000000000000000000097
:10096000000000000000003FC10101020204040475
:1009700004020201000000000000000080000040AE
:1009800080804000003030000000000102040408B4
:10099000081020408080808040404040202020205F
:1009A00010101010080808080404040402020202CF
:1009B0000101010100000000000000000000000033
:1009C0000000000000000000000000000000000027
:1009D0000000000000000000000000000000000017
:1009E000000000000000E018060100000000000008
:1009F00000000000008083834040404020212120EF
:100A000010101010080808080404040404083040FA
:100A10008080000001869860000000000000000057
:100A200000000000000000000000000000000000C6
:100A300000000000000000000000000000000000B6
:100A400000000000000000000000000000000000A6
:100A50000000000080808080404040402020202016
:100A600010101010080F08080404040402040810F1
:100A700010202040404142241800000000000000E7
:100A80000000000000000000000000000000000066
:100A90000000010101000000000000000000000053
:100AA0000000000000000000000000000000000046
:100AB0000000000000000000000000000000000036
:100AC0000000000000000000000000000000000026
:100AD0000000000000000000000000000000000016
:100AE0000000000000000000000000000000000006
:100AF00000000000000000000000000000000000F6
:100B000000000000000000000000000000000000E5
:100B100000000000000000000000000000000000D5
:100B200000000000000000000000000000000000C5
:100B300000000000000000000000000000000000B5
:100B400000000000000000000000000000000000A5
:100B50000000000000000000000000000000000095
:100B60000000000000000000000000000000000085
:100B70000000808040404020100804020102040868
:100B800010204080800000000000000000000000F5
:100B90000000000000000000000000000000000055
:100BA0000000000000000000000000000000000045
:100BB0000000000000000000000000000000000035
:100BC0000000000000000000000000000000000025
:100BD0000000000000000000000000000000000015
:100BE0000000003FC10101020204040404020201EA
:100BF00001010000000000000000008000008000F3
:100C00000060600000010204040808101020204069
:100C10008080808040404040202020201010101014
:100C20000808080804040404020202020101010188
:100C300000000000000000000000000000000000B4
:100C400000000000000000000000000000000000A4
:100C50000000000000000000000000000000000094
:100C60000000C0300C030000000000000000000085
:100C70000080868640404040212222201111101021
:100C800008080808040404040408304080800000B8
:100C900001869860000000000000000000000000D5
:100CA0000000000000000000000000000000000044
:100CB0000000000000000000000000000000000034
:100CC0000000000000000000000000000000000024
:100CD0008080808040404040202020201010101054
:100CE000080F08080404040402040810102020401F
:100CF00040414224180000000000000000000000F5
:100D000000000000000000000000000000000101E1
:100D100001000000000000000000000000000000D2
:100D200000000000000000000000000000000000C3
:100D300000000000000000000000000000000000B3
:100D400000000000000000000000000000000000A3
:100D50000000000000000000000000000000000093
:100D60000000000000000000000000000000000083
:100D70000000000000000000000000000000000073
:100D80000000000000000000000000000000000063
:100D90000000000000000000000000000000000053
:100DA0000000000000000000000000000000000043
:100DB0000000000000000000000000000000000033
:100DC0000000000000000000000000000000000023
:100DD0000000000000000000000000000000000013
:100DE0000000000000000000000000000000808003
:100DF00080804040201008040204081020408080B9
:100E000000000000000000000000000000000000E2
:100E100000000000000000000000000000000000D2
:100E200000000000000000000000000000000000C2
:100E300000000000000000000000000000000000B2
:100E400000000000000000000000000000000000A2
:100E50000000000000000000000000000000007E14
:100E600082020204040808080804040201010000C8
:100E700000000000000000800000800000606000B2
:100E800001010204040808101020204080808080A6
:100E90004040404020202020101010100808080872
:100EA0000404040402020202010101010000000026
:100EB0000000000000000000000000000000000032
:100EC0000000000000000000000000000000000022
:100ED0000000000000000000000000000000C03022
:100EE0000C03000000000000000000000080868667
:100EF000404040402122222011111010080808080B
:100F000004040404040830408080000001869860D6
:100F100000000000000000000000000000000000D1
:100F200000000000000000000000000000000000C1
:100F300000000000000000000000000000000000B1
:100F400000000000000000000000000080808080A1
:100F5000404040402020202010101010080F0808AA
:100F600004040404020408101020204040414224DC
:100F70001800000000000000000000000000000059
:100F8000000000000000000000000101010000005E
:100F90000000000000000000000000000000000051
:100FA0000000000000000000000000000000000041
:100FB0000000000000000000000000000000000031
:100FC0000000000000000000000000000000000021
:100FD0000000000000000000000000000000000011
:100FE0000000000000000000000000000000000001
:100FF00000000000000000000000000000000000F1
:1010000000000000000000000000000000000000E0
:1010100000000000000000000000000000000000D0
:1010200000000000000000000000000000000000C0
:1010300000000000000000000000000000000000B0
:1010400000000000000000000000000000000000A0
:101050000000000000000000000000000000000090
:101060000000000000000000000080808080404000
:1010700020100804020408102040808000000000B6
:101080000000000000000000000000000000000060
:101090000000000000000000000000000000000050
:1010A0000000000000000000000000000000000040
:1010B0000000000000000000000000000000000030
:1010C0000000000000000000000000000000000020
:1010D000000000000000000000001C34C4040404F0
:1010E00008080808080404020101000000000000CC
:1010F000800000408080400000303000010102028A
:101100000404040808102040808080804040404053
:1011100020202020101010100808080804040404DF
:1011200002020202010101010000000000000000B3
:1011300000000000000000000000000000000000AF
:10114000000000000000000000000000000000009F
:1011500000000000000000000000E0180601000090
:1011600000000000000000000080838340404040F9
:10117000202121201010101008080808040404047D
:101180000408304080800000018698600000000064
:10119000000000000000000000000000000000004F
:1011A000000000000000000000000000000000003F
:1011B000000000000000000000000000000000002F
:1011C000000000000000000080808080404040401F
:1011D0002020202010101010080F08080404040418
:1011E0000204081010202040404142241800000052
:1011F00000000000000000000000000000000000EF
:1012000000000000000001010100000000000000DB
:1012100000000000000000000000000000000000CE
:1012200000000000000000000000000000000000BE
:1012300000000000000000000000000000000000AE
:10124000000000000000000000000000000000009E
:10125000000000000000000000000000000000008E
:10126000000000000000000000000000000000007E
:10127000000000000000000000000000000000006E
:10128000000000000000000000000000000000005E
:10129000000000000000000000000000000000004E
:1012A000000000000000000000000000000000003E
:1012B000000000000000000000000000000000002E
:1012C000000000000000000000000000000000001E
:1012D000000000000000000000000000000000000E
:1012E0000000008080404040202020202018040280
:1012F000010204081020204040808000000000000F
:1013000000000000000000000000000000000000DD
:1013100000000000000000000000000000000000CD
:1013200000000000000000000000000000000000BD
:1013300000000000000000000000000000000000AD
:10134000000000000000000000000000000000009D
:101350000000000000060D31C1010101020202047B
:1013600004020201000000000000000080000040B4
:1013700080804000003030000000000102040408BA
:101380000810204080808080404040402020202065
:1013900010101010080808080404040402020202D5
:1013A0000101010100000000000000000000000039
:1013B000000000000000000000000000000000002D
:1013C000000000000000000000000000000000001D
:1013D000000000000000E01806010000000000000E
:1013E00000000000008083834040404020212120F5
:1013F0001010101008080808040404040408304001
:10140000808000000186986000000000000000005D
:1014100000000000000000000000000000000000CC
:1014200000000000000000000000000000000000BC
:1014300000000000000000000000000000000000AC
:10144000000000008080808040404040202020201C
:1014500010101010080F08080404040402040810F7
:1014600010202040404142241800000000000000ED
:10147000000000000000000000000000000000006C
:101480000000010101000000000000000000000059
:10149000000000000000000000000000000000004C
:1014A000000000000000000000000000000000003C
:1014B000000000000000000000000000000000002C
:1014C000000000000000000000000000000000001C
:1014D000000000000000000000000000000000000C
:1014E00000000000000000000000000000000000FC
:1014F00000000000000000000000000000000000EC
:1015000000000000000000000000000000000000DB
:1015100000000000000000000000000000000000CB
:1015200000000000000000000000000000000000BB
:1015300000000000000000000000000000000000AB
:10154000000000007E0F00D4FFFFFFC700000078FE
:1015500000000000000000002A2B2800000000000E
:101560000000000000000000000000290000000052
:101570002C1E3420212224342627252E362D3738C0
:10158000271E1F202122232425263333362E3738C9
:101590001F0405060708090A0B0C0D0E0F10111287
:1015A000131415161718191A1B1C1D2F3130232D53
:1015B000350405060708090A0B0C0D0E0F10111251
:1015C000131415161718191A1B1C1D2F3130354C02
:1015D00000DA0281FFD9F1DB20A4A62EAF00A0C063
:1015E00000A1C800AED580A81FD300408D142000F4
:1015F0002020202020202000434150530057504DF0
:101600003A200000AF00AE00002400250026002A8A
:10161000000000210022002300290000001E001FFE
:101620000020002B00A80001582700376228000086
:1016300000010001000100005C0000010001000148
:10164000005700000001000100010056002A5D0162
:1016500000010001002E0000000100010001000156
:101660000000000100010001000100000001000174
:101670000001000100010001000100010001000063
:101680000001000100010001000000010001000153
:101690000001000000010001000100010001000143
:1016A0000001000100010009025B00030100A0FA33
:1016B00009040000010301010009211101000122B8
:1016C000400007058103080001090401000203002E
:1016D00000000921110100012222000705820320D8
:1016E00000010705030320000109040200010300B3
:1016F00000000921110100012232000705840320A6
:1017000000011201000200000008AFDE1309010011
:10171000010200011003640075006D00620070009A
:10172000610064000000160369006D00630068003A
:101730006900700077006F006F0064000000040310
:10174000090407087F0807003E5B4F5B3E003E6BC5
:101750004F6B3E001C3E7C3E1C00183C7E3C18003B
:101760001C577D571C001C5E7F5E1C0000183C1837
:101770000000FFE7C3E7FF00001824180000FFE7A0
:10178000DBE7FF0030483A060E00262979292600BB
:10179000407F05050700407F05253F005A3CE73C98
:1017A0005A007F3E1C1C0800081C1C3E7F001422AF
:1017B0007F2214005F5F005F5F0006097F017F00EA
:1017C000006689956A0060606060600094A2FFA274
:1017D000940008047E04080010207E2010000808F1
:1017E0002A1C0800081C2A0808001E1010101000EF
:1017F0000C1E0C1E0C0030383E383000060E3E0E1B
:10180000060000000000000000005F00000000076C
:1018100000070000147F147F1400242A7F2A12007E
:10182000231308646200364956205000000807035D
:101830000000001C224100000041221C00002A1C64
:101840007F1C2A0008083E08080000807030000055
:101850000808080808000000606000002010080464
:1018600002003E5149453E0000427F40000072495F
:10187000494946002141494D33001814127F100098
:101880002745454539003C4A494931004121110964
:101890000700364949493600464949291E000000DB
:1018A0001400000000403400000000081422410031
:1018B00014141414140000412214080002015909E0
:1018C00006003E415D594E007C1211127C007F499A
:1018D000494936003E41414122007F4141413E009D
:1018E0007F49494941007F09090901003E414151B1
:1018F00073007F0808087F0000417F4100002040FE
:10190000413F01007F08142241007F4040404000D9
:101910007F021C027F007F0408107F003E4141418E
:101920003E007F09090906003E4151215E007F0902
:101930001929460026494949320003017F01030065
:101940003F4040403F001F2040201F003F403840A4
:101950003F00631408146300030478040300615912
:10196000494D4300007F414141000204081020001E
:10197000004141417F000402010204004040404018
:1019800040000003070800002054547840007F28DE
:1019900044443800384444442800384444287F00F4
:1019A00038545454180000087E09020018A4A49C5E
:1019B00078007F080404780000447D400000204047
:1019C000403D00007F102844000000417F4000009F
:1019D0007C04780478007C0804047800384444448B
:1019E0003800FC182424180018242418FC007C0853
:1019F0000404080048545454240004043F442400C0
:101A00003C4040207C001C2040201C003C403040DA
:101A10003C004428102844004C9090907C00446482
:101A2000544C4400000836410000000077000000DC
:101A30000041360800000201020402003C26232671
:101A40003C00000000000000404040F0F8F8FF3883
:101A5000FFF8F83FF8F8FF38FFF8F8F04040400092
:101A6000000000000080C0C0C0800000C0C0800036
:101A7000000080C0C000C0C0000080C0C0000000E6
:101A80000000C0C0C0C0C000C0C000000000000016
:101A90000000000000000000000000000000000046
:101AA0000000000000000000000000000000000036
:101AB0000000000000000000000000000000000026
:101AC00000C0F0F8FC3E1E06010000007F414141CD
:101AD0007F007F4141417F000080C0E07E5B4F5B23
:101AE000FEC00000C000DCD7DEDEDED7DC00C000B8
:101AF00000000000000000000000000000000000E6
:101B00000000000000000000494949FFFFFFFFE01E
:101B1000DFBFBF00BFBFDFE0FFFFFFFF4949490054
:101B2000000000001F3F6060E0BF1F007F7F071EB6
:101B3000381E077F7F007F7F0E1F3B716000000013
:101B400000007F7F0C0C0C007E7E007F7E03030074
:101B50007F7E03037E7E03037F7E000F3E703C0684
:101B60003C703E0F00327B49493F7E007F7E03037D
:101B7000001E3F69696F26000000000000000000A1
:101B800000030F1F3F3C7870600000007F4141411F
:101B90007F007F4141417F00307B7F7830202030C3
:101BA000787F3B0003000F7F0F0F0F7F0F000300B4
:101BB0000000000000000000000000000000000025
:101BC0000000000000000000010101070F0F7F0F5F
:101BD0007F0F0F7E0F0F7F0F7F0F0F070101010097
:101BE00000000000000000000001010000000000F3
:101BF00000000000000000000000000000000000E5
:101C000000000000000000000000000000000000D4
:101C100000000000000000000000000000000000C4
:101C200000000000000000000000000000000000B4
:101C300000000000000000000000000000000000A4
:101C40000000000000000000000000000000000094
:101C50000000000000000000000000000000000084
:101C60000000000000000000000000000000000074
:101C70000000000000000000000000000000000064
:101C8000000011241FBECFEFDAE0DEBFCDBF11E0B0
:101C9000A0E0B1E0EAEAF4E602C005900D92AC37AC
:101CA000B107D9F724E0ACE7B1E001C01D92A23C36
:101CB000B207E1F70E9411290C942A320C9400001B
:101CC000CF93DF934091C0045091C104405C5240D7
:101CD0009A0124583D4F21303240C0F020E032E0DC
:101CE000241B350B6091BE027091BF02FC01CA013A
:101CF000240F351FC1E0D0E08217930750F0709396
:101D0000BF026093BE02DF91CF9108952CE732E0CD
:101D1000E9CF4491DC01A054BD4F5C91451781F09F
:101D20004C93AC01A5E056954795AA95E1F7DE01E5
:101D300002C0AA0FBB1F4A95E2F7AD016A2B752BB3
:101D400001963196D9CFE8EDF0E080818E7F8083D7
:101D50001092E2001092DA001092E100A0EEB0E0E2
:101D60008C9181608C9380818F77808319BCA7EDE3
:101D7000B0E08C918E7F8C9380818F7E80831092D7
:101D80009C0208952091E4003091E50095E6A901B8
:101D90002091EC00822F817020FF06C08091E80026
:101DA00080FF06C080E008952091E80022FD1AC05F
:101DB0008091A902882389F0853089F08091EB0019
:101DC00085FD0FC02091E4003091E50042175307D4
:101DD000F9F29150E1F684E0089582E0089583E0FD
:101DE000089581E00895EF92FF920F931F93CF9390
:101DF0007C018B010E94C20EC82F811117C08091F7
:101E0000E80085FD0BC08091E8008E778093E800A4
:101E10000E94C20E882399F3C82F08C0F701819150
:101E20007F018093F1000150110949F78C2FCF9168
:101E30001F910F91FF90EF9008958091AB0287FF63
:101E400013C08091E80082FF06C08091E8008B7784
:101E50008093E80004C08091A9028111F2CF089517
:101E60008091A9028823D9F38091E80080FFF8CF00
:101E70008091E8008E77ECCF982F9093E900242F83
:101E8000762F50E0891731F07091EC002091ED0031
:101E90005091F00021FD07C09F5F973071F780934C
:101EA000E90081E008953091EB003E7F3093EB0034
:101EB0003091ED003D7F3093ED003091EB003160CB
:101EC0003093EB007093EC002093ED005093F00002
:101ED0002091EE0027FDE0CF80E00895CF92DF92C1
:101EE000EF92FF920F931F93CF93DF93C8EDD0E053
:101EF00088818F7E8883E7EDF0E080818160808338
:101F000084E082BF81E080939C0288818E7F8883F9
:101F100002EE10E0F80110821092DA0081EEC82E75
:101F2000D12CF601108288818F7788838881806820
:101F3000888388818F7D888319BC1092A9021092B2
:101F4000AA021092A8021092A70290EEE92EF12C9C
:101F5000F70180818B7F808388818160888342E064
:101F600060E080E00E943C0FF60180818E7F8083DC
:101F7000F801808181608083808188608083F7019F
:101F800080818E7F8083888180618883DF91CF917B
:101F90001F910F91FF90EF90DF90CF900895FC017B
:101FA0008091B1029091B20286179707A0F0611557
:101FB000710529F49091E8009E779093E80090E0F5
:101FC0006115710551F4911108C08091E80082FFFC
:101FD00034C080E00895BC01F2CF8091A90288232B
:101FE000C1F18530C1F18091E80083FD30C080915E
:101FF000E80082FDEACF8091E80080FFE1CF809188
:10200000F3002091F200382F6115710519F0283086
:10201000310558F091E02830310509F090E0209129
:10202000E8002E772093E800CBCF81918093F100D8
:10203000615071092F5F3F4FE7CF8091A90288233C
:1020400041F0853041F08091E80083FFBECF81E010
:10205000089582E0089583E0089508950895809199
:102060009E02089587E797E7909301088093000800
:1020700088E19AE00FB6F894A895809360000FBEAF
:1020800090936000FFCF2FB7F89460919502709104
:10209000960280919702909198022FBF08959C011B
:1020A000FC0132969FEF80E04191461751F09F3F2F
:1020B00019F4411101C0982F8F5F8630A9F79F3F17
:1020C00009F40895290F311D97FD3A95F9016283AE
:1020D000089520919202309193022817390771F0E8
:1020E0009093930280939202E0919002F09191027A
:1020F000309721F00084F185E02D09940895209116
:102100008E0230918F022817390771F090938F0259
:1021100080938E02E0919002F0919102309721F02D
:102120000680F781E02D09940895E0919002F091E6
:102130009102309721F00190F081E02D099480E028
:10214000089580E00895F894E82FE295EF70F0E0AC
:1021500031A1282F2F7081E090E001C0880F2A95CF
:10216000EAF7982F9095932391A392A1892B82A3AC
:10217000789408959091FF0192FF06C0282F28714E
:102180002830F9F4877F846093FF06C0282F2871D8
:102190002831F1F4877E84612091000220FF06C07F
:1021A000382F38713830D9F4877F816021FF06C01D
:1021B000282F28712831D1F4877E816194FD877E94
:1021C0000895282F24712430F9F68B7F8860DCCFA6
:1021D000282F2471243101F78B7E8861DDCF382FC1
:1021E0003171313019F78E7F8860E0CF282F21714F
:1021F000213121F78E7E8861E1CFCF93DF93EC010F
:1022000082389105A9F1D8F58133910509F496C07A
:1022100048F58932910509F48AC08A9709F495C076
:10222000C11522E5D20708F0B6C0C11531E5D307C4
:1022300008F026C1C83ED10508F09CC0C03ED105BB
:1022400060F5C83AD10508F087C0C53AD10508F055
:10225000EFC0C130D10509F12097F9F0C430D105A4
:10226000E0F440C08533910509F45AC0C997C1F61E
:102270008091FF01837089F0C0EED0E00EC0833EF4
:10228000910599F170F4803E910501F1823E91052E
:1022900039F68091FF0182FD21C0CE01DF91CF91FF
:1022A0000895863E910561F1873E910571F1843E66
:1022B000910509F0B5CF8091000281FFEECF8091AA
:1022C000FF01C7EED0E084FD0DC0E7CF8091FF0194
:1022D00080FD07C19091000290FFDFCFC3EED0E0F8
:1022E00084FFDBCFD0E0C0E0D8CF8091FF0182FD3A
:1022F000FBC09091000290FDBFCF84FFCECFF2CF04
:102300008091FF0183FDDDCFC8CF8091FF0183FD68
:10231000EEC09091000291FFF0CFC4EED0E0BDCFAF
:102320008091FF0185FFB9CFC9E2D0E0B6CF80919F
:10233000FF0185FFB2CFC5E3D0E0AFCF8091FF01B1
:1023400086FFABCFCAE2D0E0A8CF8091FF0186FF25
:10235000A4CFC1E3D0E0A1CFCF3BD10518F6C85A36
:10236000D0E0CC0FDD1FC75EDE4F0990D881C02DB5
:10237000D46493CFC11540E5D40708F064C0C115FB
:1023800080E4D80708F05CC0CE019A9581159F4182
:1023900008F483CFA7CFC11536E5D30718F5C115CB
:1023A00045E5D40708F084C0C11584E5D80708F0D6
:1023B0007AC09C2F969596959E0123703327C11560
:1023C000D34508F462C0C1E0D0E002C0CC0FDD1FED
:1023D0002A95E2F730E2939FC0011124C82BD92B34
:1023E000DA685BCFC1158AE5D80778F4C11599E59D
:1023F000D90708F068C0C11528E5D20708F472CFE4
:10240000DC2FCC27C06FD06A48CFCE019056811503
:10241000904208F067CF8D2F8F710E94BA1090E024
:10242000982F882788279F719C012C2BE90149C090
:10243000C55AD0E0CA5EDE4FC881D0E0D0642DCF4F
:10244000DF70D06A2ACFCE01E4E096958795EA95B1
:10245000E1F783702C2F26952695237040E2249F68
:1024600090011124382B8C2F8370C1E0D0E002C082
:10247000CC0FDD1F8A95E2F7C22BD32BDC680DCF82
:10248000DC2FCC27C16FD06A08CFC1E0D0E002C0FA
:10249000CC0FDD1F2A95E2F720E2929FC0011124A4
:1024A000C82BD92BEBCFDC2FCC27C46FD06AF5CE4D
:1024B0008C2F0E94BA10C82FD0E0DC2FCC27CC275D
:1024C000DF71D062EACE8C2F8F700E94BA1034E098
:1024D000D695C7953A95E1F7CF709C2FEC01D0695E
:1024E000DCCEC9E3D0E0D9CEC2EED0E0D6CEC6EE87
:1024F000D0E0D3CE8091F60181111092F6010895BB
:1025000080959091F50198239093F501089580911D
:10251000EA019091B901981301C008958F5F877007
:10252000FACFE92FEE0FEE0F9E0F890F982F9770BD
:1025300086958695869523E0829FF0011124E655C5
:10254000FE4F50E040E080E0219130E0092E02C0D3
:10255000369527950A94E2F721703327042E01C09F
:10256000220F0A94EAF7822B4F5F5F4F43305105E9
:1025700059F70895E92FEE0FEE0F9E0F890F982F50
:10258000977041E001C0440F9A95EAF786958695C9
:10259000869593E0899FF0011124E655FE4F30E0C7
:1025A00020E070E05191DF011197CB01022E02C0B3
:1025B000969587950A94E2F7817081958527842303
:1025C00085278C932F5F3F4F2330310559F70895AE
:1025D000809151028531F0F48091870190E001965D
:1025E00065E070E00E942C318093870124E030E0A8
:1025F000281B390B4CE752E0249FC001259F900D0A
:10260000349F900D11248C54974F0C94600E88E3E6
:1026100096E0FBCF8832D8F38091860190E0019656
:10262000817099278093860121E030E0281B390BC7
:102630004CE752E0249FC001259F900D349F900DE0
:102640001124805C9E4FE1CFCF92DF92EF92FF92F8
:102650000F931F93CF93DF936C017B0164E670E0CF
:1026600088E70E940B30EC0197FD12C010E000E0FB
:10267000F601E00FF11F849164E670E00E9485305E
:10268000EC01892B29F40F5F1F4F0E151F0581F7F1
:102690000E940831CE01DF91CF911F910F91FF90E1
:1026A000EF90DF90CF90089580918C0290918D02F1
:1026B000911103C091E089270895882369F062E0B1
:1026C00070E085E096E10E942413892B19F0809137
:1026D0008C02089510928C0280918C02EBCFCF93E4
:1026E000C0918C0280918D028823D1F00E9443100A
:1026F000605A75418F4F9F4F609388027093890293
:1027000080938A0290938B02C11108C062E070E04E
:1027100083E096E10E942413892B29F0C0918C025A
:102720008C2FCF91089581E080938C02F7CFCF93C7
:10273000DF93C091C004D091C1048A30C1F42091CC
:10274000B702CE01805C9240622F70E00E940C3193
:10275000281B822F66E00E942031C82FC15018F438
:10276000DF91CF91089580E20E949713F7CF8D30CB
:10277000E9F4C05CD2402091B702622F70E0CE0134
:102780000E940C31281B822F9E01280F311D21151C
:10279000324018F080E0D0E0C0E0C80FD11DC05436
:1027A000DD4FD093C104C093C004DACF96E0FE01A0
:1027B000A8EBB2E001900D929A95E1F7803E08F403
:1027C00058C086E0FE0111928A95E9F7C091C004D5
:1027D000D091C10446E050E0BE0188EB92E00E9437
:1027E000DB319E01205C3240892B41F1C90145E07B
:1027F000969587954A95E1F741E050E0BA0102C00D
:10280000660F771F8A95E2F7CB016091BE02709147
:10281000BF02862B972BB9016B5F7F4FE5E0769562
:102820006795EA95E1F702C0440F551F6A95E2F7F4
:10283000842B952B9093BF028093BE022A5F3F4F5B
:102840004091B702642F70E0C9010E940C31481B0F
:10285000463010F4240F311D211572E0370710F0B7
:1028600030E020E020543D4F3093C1042093C00459
:1028700077CFF6E08F9FB00111246E5B784E46E073
:1028800050E0CE010E94D231A1CFCF93DF93EC0173
:10289000FE018491811103C0DF91CF9108950E94C0
:1028A00097132196F5CF8091F5019091F401892B32
:1028B00080937E019091F601992391F0892B80936A
:1028C0007E0120E080E891E0FC013191CF013111DF
:1028D0002F5FF1E086389F07B9F721110E947A1225
:1028E00048E050E06CEE71E08EE791E00E94DB3151
:1028F000892BA9F088E0EEE7F1E0ACEEB1E00190C1
:102900000D928A95E1F7E0919002F0919102309753
:1029100031F00280F381E02D8EE791E00994089573
:1029200090E080E00E947F1090E080E00E946910BB
:102930001092F4010C9453148093B6020C949014EA
:102940008091B602982F9670963019F488600C9496
:102950009C14877FFCCF21E030E001C0220F8A95D4
:10296000EAF720958091B60282230C949C149091F2
:10297000EB01809589238093EB01282F277091F438
:10298000282F082E000C330B9217130659F0909144
:10299000000292FD07C08595859585950E94AB1430
:1029A0001092EB01089521E030E001C0220F8A95DA
:1029B000EAF78091B602822B0C949C148093F70165
:1029C0000C9490141092F501E0E8F1E086E0DF014C
:1029D0001D928A95E9F70C9490141F93CF93DF937F
:1029E000CDB7DEB7AA970FB6F894DEBF0FBECDBF46
:1029F0008BEA92E02091F100DC012D93CD01B2E051
:102A0000833B9B07B9F78091AC02833009F472C015
:102A1000B8F4813009F449C0823009F4B3C0809120
:102A2000E80083FF8BC28091AB029091AC029A3098
:102A300008F084C2E92FF0E0E45DFD4C0C94813194
:102A40008A3009F48EC08B3009F471C0893039F7AF
:102A50008091AB02813219F78091AF029091B00260
:102A6000009711F00297D9F68091E800877F809354
:102A7000E8008091E80082FF38C09091F3008091D7
:102A8000F200029731F48091F100813011F086302C
:102A900021F48091F10080939E028091E8008B7771
:102AA0008093E8000E941D0FBACF8091AB02813A5B
:102AB00009F0B5CF8091E800877F8093E80080918E
:102AC000AF029091B002892B61F468E08FE992E047
:102AD00070E00E94CF0F8091E8008B778093E80030
:102AE0009ECF60E090E080E0F3CF8091A902811159
:102AF000C0CF95CF8091AB02813A09F090CF809101
:102B0000AF029091B002892B09F089CF8091E80043
:102B1000877F8093E8008091E80080FFFCCF809160
:102B200015018093F1008091E8008E77B9CF8091F4
:102B3000AB02813209F073CF8091AF029091B00265
:102B4000892B09F06CCF8091E800877F8093E800A3
:102B50000E941D0F8091AD02809315010E94E21426
:102B60005ECF8091AB02813209F059CF8091E800AD
:102B7000877F8093E8000E941D0F8091AE028093B2
:102B80009D024DCF8091AB02813A09F048CF8091F0
:102B9000E800877F8093E8008091E80080FFFCCF09
:102BA00080919D02BECF803899F0823809F0C6C16D
:102BB0008091AF028F70873008F0C0C18093E90028
:102BC0008091EB0085FB882780F91092E90006C010
:102BD0008091A7029091A802911182609091E800E3
:102BE000977F9093E8008093F1001092F10080911C
:102BF000E8008E779FC1882309F48DC1823009F0E7
:102C00009DC18091AD02811190C18091AF028F7002
:102C10002FEF280F263008F091C18093E900209112
:102C2000EB0020FF82C1933031F48091EB00806291
:102C30008093EB007AC19091EB0090619093EB0050
:102C400021E030E001C0220F8A95EAF72093EA00E4
:102C50001092EA008091EB008860EACF81116EC18A
:102C60001091AD021F778091E3008078812B8093D3
:102C7000E3008091E800877F8093E8000E941D0FA9
:102C80008091E80080FFFCCF8091E3008068809312
:102C9000E30082E0111183E08093A9024FC18058C4
:102CA000823008F04BC12091AD023091AE022C3D34
:102CB000E3E03E07A1F583E08A838AE289834FB788
:102CC000F894DE01139620E03EE051E2E32FF0E0BD
:102CD00050935700E49120FF03C0E295EF703F5FEF
:102CE000EF708E2F90E0EA30C0F0C7968D939D93E1
:102CF0002F5F243159F74FBF8091E800877F809381
:102D0000E8006AE270E0CE0101960E94CF0F809148
:102D1000E8008B778093E80011C1C096E7CF8091DF
:102D2000AF029091B002432F55274330510509F46B
:102D30004AC078F54130510509F47AC08BE590E03E
:102D4000E7EAF6E14230510509F0F8C02091E800C9
:102D5000277F2093E8002091B1023091B2028217C0
:102D6000930708F49C0140E02115310509F065C086
:102D7000411163C08091E80082FDC9CF8091A90212
:102D8000882329F2853019F28091E80083FFF2CF81
:102D9000BECF4132510509F43CC04232510509F021
:102DA000CDC08330910508F0C9C0FC01EE0FFF1FB4
:102DB000E159FE4F0190F081E02D84599E4FDC01D6
:102DC0008C9190E01AC0332721303105D1F02115C4
:102DD000310561F02230310509F0B0C0E4E1F7E1DE
:102DE000E4918E2F90E0E4E1F7E107C0EEE3F7E134
:102DF000E4918E2F90E0EEE3F7E1009709F49EC096
:102E0000A5CFE6E2F7E1E4918E2F90E0E6E2F7E16C
:102E1000F4CF8330910508F091C0880F991FFC0111
:102E2000EB58FE4F0190F081E02D89E090E08ECFCD
:102E300082E190E0E2E0F7E189CF8091A902882366
:102E400009F465CF853009F462CF8091E80083FDF5
:102E50005ECF8091E80082FD8DCF8091E80080FFF9
:102E600083CF9091F3008091F2002115310519F084
:102E70008830910550F041E0089709F040E08091DA
:102E8000E8008E778093E8006FCF44914093F10083
:102E90003196215031090196E8CF803809F04EC0B3
:102EA0008091E800877F8093E8008091AA02809358
:102EB000F1009DCE811142C01091AD021230F0F5AB
:102EC0008091E800877F8093E8001093AA020E9417
:102ED0001D0F112311F084E005C08091E30087FDF0
:102EE000FACF81E08093A90242E061EC81E00E9488
:102EF0003C0F42E261EC84E00E943C0F42E261EC54
:102F000082E00E943C0F42E260EC83E00E943C0FB2
:102F10008091A90213C08091AD02813079F481E0E3
:102F2000933009F080E08093A8021092E90080912C
:102F3000E800877F8093E8000E941D0F8091E800E1
:102F400083FF0AC08091E800877F8093E80080912A
:102F5000EB0080628093EB00AA960FB6F894DEBF78
:102F60000FBECDBFDF91CF911F910895882321F02F
:102F70000E9480120C9453140895882339F0909184
:102F8000F501982B9093F5010C9453140895882320
:102F900081F19CEF980F913A78F4E0E8F1E026E8AF
:102FA00031E09191891303C0DF0111971C922E1714
:102FB0003F07B9F70C94531490E2980F983050F4EF
:102FC000877091E001C0990F8A95EAF7892F0E94D6
:102FD0008012F0CF9BE5980F933020F490E080E0D2
:102FE0000C947F10885A873120F490E080E00C9494
:102FF00069100895CF93C82F882309F44EC08CEF31
:103000008C0F813AF8F4E0E8F1E086E891E0DF0126
:103010002D91C21759F08A179B07D1F76C2F8EE7B5
:1030200091E00E944F10CF910C9453142191C21340
:1030300003C0DF0111971C928E179F07B9F70E94FA
:103040005314ECCF80E28C0F883068F4C77021E015
:1030500030E001C0220FCA95EAF78091F501822B7A
:103060008093F501E0CFEBE5EC0FE33040F4F0E0C6
:10307000EA5EFE4F808190E0CF910C947F10C85A99
:10308000C73158F4EC2FF0E0EE0FFF1FE75EFE4F64
:1030900080819181CF910C946910CF9108950F9305
:1030A0001F93CF93DF93EC01FC0101900020E9F71F
:1030B0008F0101501109C017D10728F0DF91CF917E
:1030C0001F910F91089589910E949713F4CF8093D7
:1030D000990270939B0260939A028091A9028430B6
:1030E000F9F48093E9008FEF9091E800815095FD0D
:1030F00006C095ED9A95F1F700008111F5CF80910A
:10310000E80085FF0DC050E040E063E070E089E931
:1031100092E00E94F30E8091E8008E778093E800A1
:103120000895BC0184E00C946718BC0183E00C9402
:103130006718CF93DF93EC0181E08093E9008FEF74
:103140009091E800815095FD06C095ED9A95F1F7B4
:1031500000008111F5CF8091E80085FF14C050E098
:1031600040E068E070E0CE010E94F30E8091E8003C
:103170008E778093E80088E0FE01AFE9B2E001902D
:103180000D928A95E1F7DF91CF9108951F93CF9328
:10319000DF93182FD0E0C0E0893311F4C0E5D0E010
:1031A000812F0E94FA17209731F4812FDF91CF9160
:1031B0001F910C94C7178FE99FE00197F1F700C0AA
:1031C00000002197F0CFCF93DF93C7ECD0E060E011
:1031D000CE010E94F6312196C11584E0D807B9F7D7
:1031E000DF91CF9108956F927F928F929F92AF92CD
:1031F000BF92CF92DF92EF92FF920F931F93CF93E4
:10320000DF9387E0C82E86E1D82E99E5E92EF12CD0
:10321000E701A89736011BC0F50185909490692DB0
:10322000C8010E94F631682DC80101960E94F6314E
:1032300082E0A80EB11C0E5F1F4FC017D10761F7C7
:103240008AE0680E711C2A96CE15DF0529F08E01E2
:103250000A5011095301E0CF7E0188E2E80EF11C0B
:1032600088E2C80ED11C89EFE816F10489F6DF91D7
:10327000CF911F910F91FF90EF90DF90CF90BF9073
:10328000AF909F908F907F906F900895CF93C82FAD
:103290006FEF811162E283E290E00E94F6316FEFFE
:1032A000C11164E084E290E00E94F6316FEFC11139
:1032B00063E185E290E0CF910C94F63180E00E94CA
:1032C000461960E086E290E00E94F6310E94F31811
:1032D0000E94E31881E00C944619CF93C09100023C
:1032E000C2FB992790F9981799F080FBC2F9C09317
:1032F00000026091FF0184E090E00E94F6316C2FA3
:1033000082E290E00E94F63182E0CF910C94B714F3
:10331000CF9108950F931F93CF93DF93C42FD0E0E5
:10332000CC0FDD1F2AE0629FC00DD11D112438E2B1
:10333000839FC00DD11D1124CE0187960E94E831D4
:10334000082F10E0102F0027CE0188960E94E83148
:103350009801282BC901DF91CF911F910F910895FA
:10336000462F843038F4743028F4653018F4672F11
:103370000C948A1990E080E00895CF92DF92FF923A
:103380000F931F93CF93DF936C010091B60280914E
:10339000F701082BC7E0D0E010E0FC2EC8010C2E8E
:1033A00002C0959587950A94E2F780FD0CC021979D
:1033B000A0F7F12C8F2DDF91CF911F910F91FF90EE
:1033C000DF90CF900895B6018C2F0E94B0190E9413
:1033D000FD10019761F3EECFCF93DF93EC010E94D4
:1033E000BD19BE010E94B019DF91CF910C94FD1060
:1033F000FC01808191810E94EC1992959F7096301A
:1034000091F058F4925F9F70923058F4803F19F019
:1034100030F4883E30F481E008959A5FF4CF843F21
:10342000D1F380E00895883EB0F3813FD1F7F3CF28
:1034300083E290E00E94E831823289F484E290E0F5
:103440000E94E831843059F485E290E00E94E8312E
:1034500091E0833109F090E0892F8170089580E038
:10346000FCCFCF9384E090E00E94E831C82F82E245
:1034700090E00E94E831982F8C2FCF91089569EE4B
:103480007EEF90E080E00E94143260E082E090E005
:103490000E94F63160E083E090E00E94F6311092E5
:1034A000F70160E084E090E00E94F63160E082E2A3
:1034B00090E00E94F63160E085E090E00E94F631F5
:1034C00060E086E090E00E94F6316FEF87E090E0E8
:1034D0000E94F63140E050E0BA0188E090E00E949E
:1034E000083260E08DE090E00E94F63140E050E06C
:1034F000BA0188E190E00E94083260E087E190E044
:103500000E94F63140E050E0BA018CE190E00E9468
:10351000083270E060E080E290E00E94143240E007
:1035200050E0BA0188E190E00E94083280E00E94F9
:1035300046190E945E1940E050E0BA018FE090E029
:103540000E94083240E050E0BA0183E190E00C9420
:1035500008321F920F920FB60F9211242F933F93B0
:103560004F935F936F937F938F939F93AF93BF938B
:10357000CF93DF93EF93FF93D091E900DF708091B9
:10358000EC00C82FC17080FDC0E81092E900809166
:10359000F000877F8093F00078940E94ED141092E1
:1035A000E9008091F00088608093F000CD2BCF700F
:1035B000C093E900FF91EF91DF91CF91BF91AF915F
:1035C0009F918F917F916F915F914F913F912F913B
:1035D0000F900FBE0F901F9018951F920F920FB66D
:1035E0000F9211242F933F934F935F936F937F9389
:1035F0008F939F93AF93BF93EF93FF938091E100DD
:1036000082FF09C08091E20082FF05C08091E10045
:103610008B7F8093E1008091DA0080FF24C080914D
:10362000D80080FF20C08091DA008E7F8093DA007E
:103630008091D90080FF9DC080E189BD82E189BD74
:1036400009B400FEFDCF81E08093A90280919C0225
:10365000811109C00E94A30E0E946E0F8091E200AA
:1036600084608093E2008091E10080FF17C0809128
:10367000E20080FF13C08091E2008E7F8093E20021
:103680008091E20080618093E2008091D8008062A6
:103690008093D80019BC85E08093A9028091E10055
:1036A00084FF2BC08091E20084FF27C080E189BDA8
:1036B00082E189BD89B5982F917080FFFBCF809101
:1036C000D8008F7D8093D8008091E1008F7E809319
:1036D000E1008091E2008F7E8093E2008091E20021
:1036E00081608093E2008091AA02882309F447C098
:1036F00084E08093A9028091A9028091E10083FF78
:1037000027C08091E20083FF23C08091E100877F82
:103710008093E10082E08093A9021092AA02809136
:10372000E1008E7F8093E1008091E2008E7F8093A4
:10373000E2008091E20080618093E20042E060E07C
:1037400080E00E943C0F8091F00088608093F00040
:10375000FF91EF91BF91AF919F918F917F916F9169
:103760005F914F913F912F910F900FBE0F901F903F
:10377000189519BC1092A90210929C0274CF8091E6
:10378000E30087FD93E09093A902B5CF78941F9250
:103790001FB61F9211248F939F93AF93BF93809175
:1037A000950290919602A0919702B091980201968D
:1037B000A11DB11D8093950290939602A09397024C
:1037C000B0939802BF91AF919F918F911F901FBEB0
:1037D0001F9018959C014FB7F89480919502909195
:1037E0009602A0919702B09198024FBF821B930B53
:1037F00008952FB7F8948091950290919602A09128
:103800009702B09198022FBF08950F931F93CF9303
:10381000DF93C62FD42F022FFC0182818823A1F0D1
:103820006093B5020E94F91B9093B4028093B30297
:10383000C77081E001C0880FCA95EAF7DF91CF9188
:103840001F910F910C94BD178091B502681335C07C
:103850008091B3029091B4020E94EA1B883C9105CA
:1038600060F510E21D0FCD17B9F080E28C0F8830A3
:1038700040F4C77081E001C0880FCA95EAF70E9442
:10388000B617183048F481E09D2F977001C0880F5B
:103890009A95EAF70E94BD17802F0E94C61818302B
:1038A00098F4D77081E001C0880FDA95EAF7DF91CC
:1038B000CF911F910F910C94B617C77081E001C092
:1038C000880FCA95EAF7F3CFDF91CF911F910F913F
:1038D00008952F923F924F925F926F927F928F92B4
:1038E0009F92AF92BF92CF92DF92EF92FF920F938F
:1038F0001F93CF93DF93CDB7DEB728970FB6F89419
:10390000DEBF0FBECDBF3C01DC0113968D919C91B3
:103910001497892B41F08C9111969C9189238F3FAC
:1039200011F00C94D62428960FB6F894DEBF0FBE83
:10393000CDBFDF91CF911F910F91FF90EF90DF905E
:10394000CF90BF90AF909F908F907F906F905F903F
:103950004F903F902F9008950E94BD19182F682F07
:1039600089819A810E94BA1269817A81812F0E948D
:10397000B019FC01D3011296BC91B887BB2359F151
:103980009056811520E2920750F0905E811530E14B
:10399000930728F0915C81159F4108F062C0CF0128
:1039A00099279C01245031092432310518F08B9756
:1039B0000E9788F4A0910C02B0E0AA0FBB1FAF5E77
:1039C000BD4F8D919C9111978F3F2FE7920719F072
:1039D00001968D939C93CF01815095458F3F910522
:1039E00008F048C04F0135E59326A885A1110C9435
:1039F000EC2420E48216910408F097C2A09088017C
:103A0000B0908901C0908A01D0908B01E0908C0128
:103A1000F0908D01A0918E0110918F0121E030E096
:103A200040E050E060E070E080E090E0082D0E940F
:103A3000A131A222B322C422D522E622F722082FE6
:103A40000A2319230E94BA3169F1E0312FE5F20708
:103A500009F44EC34F01E131FF4509F086C782E00A
:103A600048C390E080E0EF3FF10511F008F099CFF6
:103A7000CF0197CFB885BB2309F450C2EF3FF105C2
:103A800009F008F4A8C7EA322DE5F20729F01092F0
:103A9000A8014F010C9435258091A80191E0892758
:103AA0008093A8018091EB01877009F43CCFF3016A
:103AB0008281882309F437CF8091000282FD33CFC1
:103AC00082E028960FB6F894DEBF0FBECDBFDF911F
:103AD000CF911F910F91FF90EF90DF90CF90BF900B
:103AE000AF909F908F907F906F905F904F903F909E
:103AF0002F900C94B714AFEF8A16910411F008F0D0
:103B000081C721E030E040E050E060E070E080E01C
:103B100090E08401005C11090E94A131E091A001B4
:103B20002E2BE091A1013E2BE091A2014E2BE091C2
:103B3000A3015E2BE091A4016E2BE091A5017E2BE9
:103B4000E091A6018E2BE091A7019E2B2093A0016E
:103B50003093A1014093A2015093A3016093A4016B
:103B60007093A5018093A6019093A7017EC721E0E1
:103B700030E040E050E060E070E080E090E0840100
:103B8000005411090E94A131E09190012E2BE09187
:103B900091013E2BE09192014E2BE09193015E2B1F
:103BA000E09194016E2BE09195017E2BE0919601BE
:103BB0008E2BE09197019E2B2093900130939101E1
:103BC00040939201509393016093940170939501F7
:103BD000809396019093970148C721E030E040E040
:103BE00050E060E070E080E090E08401005811094E
:103BF0000E94A131E09198012E2BE09199013E2B7A
:103C0000E0919A014E2BE0919B015E2BE0919C018B
:103C10006E2BE0919D017E2BE0919E018E2BE09119
:103C20009F019E2B209398013093990140939A0114
:103C300050939B0160939C0170939D0180939E0122
:103C400090939F0112C7B0E48B16910408F06EC0E8
:103C50004090880150908901B0918A01A0918B0118
:103C600030908C0120908D0120918E012E83309117
:103C70008F013F8321E030E040E050E060E070E001
:103C800080E090E0082D0E94A131A22EA420B32E46
:103C9000B520C42ECB22D52EDA22E62EE320F72E35
:103CA000F2200E8108231F8119230E94BA3109F0E6
:103CB000F0CE80EC8816910408F09AC090E889163E
:103CC000910408F0FBC0E0E48E16910408F0C6C031
:103CD00021E030E040E050E060E070E080E090E023
:103CE000082D0E94A1312095309540955095609502
:103CF000709580959095242135214B235A2363217B
:103D00007221AE818A23BF819B2320938801309347
:103D1000890140938A0150938B0160938C017093C9
:103D20008D0180938E0190938F01BCCE80E8881620
:103D30009104F0F44090900150909101B091920163
:103D4000A09193013090940120909501909196015B
:103D50009E83209197012F8321E030E040E050E0E6
:103D600060E070E080E090E08401005411098BCFA6
:103D700030EC83169104F0F4409098015090990132
:103D8000B0919A01A0919B0130909C0120909D01DF
:103D900080919E018E8390919F019F8321E030E06E
:103DA00040E050E060E070E080E090E08401005886
:103DB000110969CF4090A0015090A101B091A201DA
:103DC000A091A3013090A4012090A5012091A6010B
:103DD0002E833091A7013F8321E030E040E050E0A6
:103DE00060E070E080E090E08401005C11094BCF5E
:103DF000FFEF8F16910411F008F06ACF8401005C88
:103E0000110921E030E040E050E060E070E080E047
:103E100090E00E94A1312095309540955095609595
:103E2000709580959095242135214B235A23632149
:103E30007221EE818E23FF819F232093A001309376
:103E4000A1014093A2015093A3016093A401709338
:103E5000A5018093A6019093A70124CE840100546C
:103E6000110921E030E040E050E060E070E080E0E7
:103E700090E00E94A1312095309540955095609535
:103E8000709580959095242135214B235A236321E9
:103E90007221EE818E23FF819F2320939001309326
:103EA0009101409392015093930160939401709318
:103EB00095018093960190939701F4CD8401005869
:103EC000110921E030E040E050E060E070E080E087
:103ED00090E00E94A13120953095409550956095D5
:103EE000709580959095242135214B235A23632189
:103EF0007221AE818A23BF819B2320939801309346
:103F0000990140939A0150939B0160939C01709397
:103F10009D0180939E0190939F01C4CDEF3FF105D9
:103F200011F008F009C64F0164CD30E88316910402
:103F3000A0F4A0909001B0909101C0909201D09017
:103F40009301E0909401F0909501A0919601109159
:103F5000970180E4881A910861CD90EC891691044C
:103F6000A0F4A0909801B0909901C0909A01D090CF
:103F70009B01E0909C01F0909D01A0919E01109109
:103F80009F01B0E88B1A910849CDA090A001B09094
:103F9000A101C090A201D090A301E090A401F090F3
:103FA000A501A091A6011091A70120EC821A910809
:103FB00035CDA11434E0B30609F474CDC5010E94D7
:103FC000E831811101C001508FEFA81AB80A5FC50E
:103FD000580183C5923039F40E5F1F4F0E94FA17C3
:103FE0000F5F1F4F7DC5933029F40E5F1F4F0E9456
:103FF000C717F6CF943019F00F5F1F4FF1CF0E5F48
:104000001F4F30E020E0B8016F5F7F4FF801418122
:104010008053990B8A30910550F02150310900F3FB
:104020008FE99FE00197F1F700C00000F6CF329EC4
:10403000F001339EF00D11249C012E0F3F1F842FA1
:104040008B01E1CFE22FF0E0E05BFA4E5490822F3B
:1040500086958695869590E0FC01E05CFA4EE490AA
:104060002770F12C022E02C0F594E7940A94E2F72F
:10407000A1E0EA22FF24FC01E05DFA4EC490D12CBD
:10408000022E02C0D594C7940A94E2F7B1E0CB2285
:10409000DD24FC01E05EFA4E8490912C02C09594E0
:1040A00087942A95E2F7E1E08E229924E114F10445
:1040B00019F081EE0E94FA17C114D10419F086EEAE
:1040C0000E94FA17852D0E94C618CD2819F086EE99
:1040D0000E94C717EF2819F081EE0E94C7178928A0
:1040E00009F47ECF8CE20DC581E00E94D31403C099
:1040F00081E00E94AB140E94A014D4CCF885FF2369
:1041000009F4ADCC82E0F1CFB5EF8B16BCE59B0690
:1041100009F46AC008F464C0F6EF8F16FCE59F0648
:1041200009F436C5A885AA2309F4EEC41092B50295
:10413000B3E08B16BDE59B0608F05DC0EAEF8E1676
:10414000ECE59E0630F4C40182509C45449708F08B
:104150005EC00E94311A909300028093FF0131E10A
:1041600083163CE5930609F445C108F0B5C099E013
:1041700089169CE5990609F42FC108F077C0B5E0CF
:104180008B16BCE59B0609F41BC108F05CC0F3E08C
:104190008F16FCE59F0609F409C108F00DC1809156
:1041A000FF01816032E083163CE5930609F401C10A
:1041B0006091FF011091000284E090E00E94F631CE
:1041C000612F82E290E00E94F6310E94E2146ACCF4
:1041D00027E245EE65EEE6C326E241EE60EEE2C37D
:1041E00027E245EE64EEDEC326E241EE62EEDAC37C
:1041F00028E241E0EFCFF1E68F16FDE59F0609F4D6
:10420000A8CF25EA82162DE5920609F4A2CF86E111
:1042100088168CE5980609F019C1A885AA2309F427
:1042200078C48091F5018A7A91E009F490E0909346
:10423000A90169E2811165E38EE791E00E944F10C8
:104240000E9453142FCC87E088168CE5980609F459
:10425000BFC08091FF01806198E089169CE59906B6
:1042600008F4A7C08091FF018064A3C08091FF0182
:104270008B7FADE08A16ACE59A0609F49AC0B0F4DB
:104280008091FF018E7FEBE08E16ECE59E0609F42F
:1042900090C08091FF018C60FCE08F16FCE59F06CA
:1042A00008F487C08091FF018D7F83C08091FF015A
:1042B0008F7E2FE082162CE5920609F47AC0809159
:1042C000FF01877F30E183163CE5930608F471C057
:1042D0008091FF018F7D6DC08DEF88168CE598066B
:1042E00009F484C078F5A5E18A16ACE59A0609F4CC
:1042F0008BC0A0F48091FF01837FE3E18E16ECE593
:104300009E0609F456C008F479C00E94E214909108
:10431000FF01892F97FB87F980584BC02BEF82163E
:104320002CE5920609F450C008F05CC08AEF8816AC
:104330008CE5980609F03CCF809100028160809363
:10434000000236CF91E089169DE5990609F468C010
:10435000C8F4809100028C7FBFEF8B16BCE59B06F2
:1043600071F38091000283608114EDE59E0638F3BD
:1043700080910002982F909591708E7F892B90FBF1
:1043800081F9DDCFF1E68F16FDE59F0609F44EC0F9
:1043900025EA82162DE5920609F44FC032E0831615
:1043A0003DE5930609F004CF60E03BC08091FF013A
:1043B00082608093FF01FCCE8091FF018460F9CF81
:1043C0008091FF018860F5CF809100028260B7CFB5
:1043D0008091FF018062EDCF0E94E2148091FF0185
:1043E0008068E7CF809100028E7FA9CF8091000284
:1043F0008D7FA5CF8091FF018F7BDBCF0E94E214E0
:104400008091FF018F77D5CF8091FF0182FB9927A3
:1044100090F921E0922790FB82F990FB83F9C9CFB4
:1044200061E08EE090E00E94F631C2CE9091FF01F3
:10443000892F8F7E94FF8061BCCF9091FF01892FDF
:104440008E7F90FF8160B5CF85E368C3BAE58B1698
:10445000BDE59B0609F47CC008F055C08114FCE55D
:104460009F0609F465C02EED82162CE5920609F42C
:104470006CC0D30112968C9112970D911C918823D8
:1044800009F46AC0C8010E94BD19F82E682FC8013E
:104490000E94BA12B8018F2D0E94B0190E94FD101F
:1044A0008C01A82EF301F280D580D2943FE0D32274
:1044B0008091EB018770C1F0CF2CFF20B1F0812FEC
:1044C000807F803421F080E2800F883068F0809116
:1044D000000282FD09C082E00E94B7148091EB01C6
:1044E0008770CC24C3948111C12CB12EB2942FE0DB
:1044F000B222FBE0FB1508F49FC0EB2DF0E0EA5C74
:10450000FD4C0C9481313BE583163DE5930611F19A
:104510008CE588168DE5980609F0ABCF80910002F6
:1045200082FB882780F991E089270E946D19A1CF2D
:104530000E94E2149FEFA4E3BCE09150A040B04081
:10454000E1F700C000000E9432100E943F1AAACA80
:1045500081E0EBCF80E0E9CFC8010E949112F82EF4
:1045600099CF212F2F70E22E107F19F0E29490EF57
:10457000E922FF20B9F0EE2069F080E2800F883058
:1045800010F0A11009C08091F501E82AE092F50130
:104590000E945314802F4EC08091F401E82AE092CB
:1045A000F401F6CF802F0E94C717EE2009F444C013
:1045B000005E083010F0A11004C08E2D0E94801201
:1045C00006C0E0948091F401E822E092F4010E9498
:1045D000531432C0312F3F70E32E107F103219F088
:1045E000E29480EFE822AA20A1F081E0A81609F465
:1045F00084C0FF2009F48EC0DD2009F484C0D301FB
:1046000015968C91159780FFC5CF8F7015968C935A
:104610007AC02091000222FF4DC0FF2009F444C05F
:10462000EE2039F08091F501E82AE092F5010E9430
:10463000531480E00E94FA17EB2DE850FF0B3497DB
:1046400010F40E949510CC2009F46DC98091EB0103
:1046500080FD69C9D30112961C9285958595859533
:104660000E94D314C3010E94691C8091EB018595BF
:104670008595859528960FB6F894DEBF0FBECDBF01
:10468000DF91CF911F910F91FF90EF90DF90CF902E
:10469000BF90AF909F908F907F906F905F904F9062
:1046A0003F902F900C94AB1480E00E94C717EE202F
:1046B00019F283CFFF20A1F09091F6018E2D892B66
:1046C000D11003C00E94BD17B7CFA1E0DA12FACF14
:1046D00022FDB2CF891709F4AFCF8093F601ACCF9A
:1046E000D11006C00E947A128E2D0E94B617A4CF58
:1046F000B1E0DB1609F4A0CFF5CFFF2031F0E2E006
:10470000ED1508F499CF8E2DDDCFF1E0FD1508F4FD
:1047100093CFEACFDD2041F3B9E3AB1209C0EFEF4D
:10472000F7EE23E0E150F0402040E1F700C0000048
:10473000802F0E94C71780CF812F86958695837022
:1047400061F0813009F078CFC8019370F11002C098
:1047500090E080E00E9469106FCFC8019370F11063
:1047600002C090E080E00E947F1066CF812F8370AE
:1047700089F5F11061CF402F429546954770440F5F
:10478000440F802F8F70042E01C0880F0A94EAF71F
:10479000202F207104FF07C02FE030E001C0220F5E
:1047A0004A95EAF72095169516951370123069F020
:1047B00050F43091F701113029F0822B83230E94AD
:1047C000DE143ACF832B822BFACF282B8091F7016E
:1047D0008227F5CF8695FF2011F0812F81708823E5
:1047E00009F42ACF402F429546954770440F440F55
:1047F000802F8F70042E01C0880F0A94EAF7202FB3
:10480000207104FF07C02FE030E001C0220F4A955D
:10481000EAF72095169516951370123069F050F44A
:104820003091B602113029F0822B83230E949C1410
:1048300003CF832B822BFACF282B8091B6028227BD
:10484000F5CF1F70FF2029F0812F0E94D314802FF5
:1048500039CF802F0E94B617812F0E94AB14ECCE67
:10486000802F32EFA316A9F13A1570F090EFA91638
:10487000D1F0A1EFAA1691F0FF2009F45AC0D1108F
:1048800089CE812F8F7129C0B3EFAB1649F1E4EFC8
:10489000AE12F2CF8091000282FF2DC0812F8F7166
:1048A000FF20D9F21AC0FF2079F0F1E0FD1508F4DD
:1048B000C3CE1F7181E090E001C0880F1A95EAF71E
:1048C0009091B6028927B2CF22E02D1508F4B4CE1C
:1048D000F0CF812F8F71F110C0CF0E94D314ACCED6
:1048E00080E0FF2009F4A2CF1F7181E001C0880F92
:1048F0001A95EAF79BCFFF2089F01F71812F0E9444
:10490000D3148091000282FD07C038E0139FC001DC
:10491000112483608093EB01812FDFCF81E00E941F
:10492000B71481E08D1508F087CE82E00E94B7149D
:1049300083CEDD2059F0893309F0FACE9FEFA7EE40
:10494000B3E09150A040B040E1F7F0CE812F8F71DD
:1049500084CFB0E18B16BFE59B0609F4C5CBE1E13E
:104960008E16EFE59E0609F4C9CB23EF82162CE5DF
:10497000920609F431CC08F0C7CB88ED88168CE597
:10498000980609F425CC99ED89169CE5990609F459
:104990002FCCA7ED8A16ACE59A0609F0C3CB26E228
:1049A00041EE61EEC3010E94051C7CC885E0F30165
:1049B000DE01119601900D928A95E1F7D3011296CE
:1049C0002C9189819A8121110C94AC1C0E94911226
:1049D000182F0C94B41C4F018091A801882309F46E
:1049E00032C91092A80130EC8316910408F083C8F4
:1049F00080E88816910408F0F0C890E489169104C4
:104A000008F0B5C821E030E040E050E060E070E040
:104A100080E090E0082D0E94A131E09188012E2BCA
:104A2000E09189013E2BE0918A014E2BE0918B01B0
:104A30005E2BE0918C016E2BE0918D017E2BE0913D
:104A40008E018E2BE0918F019E2B20938801309355
:104A5000890140938A0150938B0160938C0170937C
:104A60008D0180938E0190938F01C40182519F45E7
:104A7000409708F06ECF8FEF93E00E94E8310EEE82
:104A8000080D57ECA52EB12C81110C94521D01116B
:104A900090CA1C821B82442443944AE0342E850130
:104AA0000F5F1F4FC5010E94E83189831A82882356
:104AB00011F40C94521D9FEF980F933008F088CAA0
:104AC0008A83498292E0A90EB11CC8010E94E83194
:104AD0008B83882311F40C94521D8E010F5F1F4F9E
:104AE000D8012C912223D9F2213009F0ABCA1196BA
:104AF0009C91119712968C91913009F06BCA0E5FC0
:104B00001F4F0E94C6186CCAF401E631FC4509F03B
:104B1000B0CC8091A901811197CC89E2E0E8F1E065
:104B200026E831E09191891303C0DF0111971C92AF
:104B30002E173F07B9F784CBE0312FE5F20709F4D0
:104B4000D7CAE1313FE5F30711F40C942F1DE33F81
:104B50009CE5F90709F440CB78F4E83DBCE5FB0798
:104B600009F436CBE93D2CE5F20709F441CBE73DEA
:104B70003CE5F30751F613CFE53F8CE5F80709F460
:104B800033CB08F42DCBE63FACE5FA0709F0BDCFF7
:104B900027E245EE66EE06CF1F93CF93DF93809119
:104BA000B801807FA9F48091B501882389F08091B4
:104BB000EA01D091B9016091B3017091B401A09163
:104BC000B601B091B701C62FC72316E0D81304C0B1
:104BD000DF91CF911F91089590E0109711F0CF3F92
:104BE00019F401968770F2CF189F9001199F300D2C
:104BF0001124F901E654FE4F41814713F2CF408161
:104C00004613EFCF42814111ECCF438154814A1BBF
:104C10005B0B483C510528F78091B8018F7080618B
:104C20008093B801F901E154FE4F80818F7080615B
:104C3000808383EB91E00E94691CDF91CF911F91EB
:104C40000C948712AF92BF92CF92DF92EF92FF92B5
:104C50000F931F93CF93DF93CDB7DEB761970FB656
:104C6000F894DEBF0FBECDBF8C0185E0F801DE01F8
:104C70001D9601900D928A95E1F7F801E28083EB91
:104C8000A82E81E0B82E6091B6017091B701611530
:104C9000710509F432C19091B3014091B401892F9B
:104CA00084238F3F09F429C120813181C380D480BE
:104CB000F090B501F601E61BF70BFF2009F4E8C000
:104CC0008091B801582F507FE83CF10508F0ABC047
:104CD000511177C0FE2C431321C092131FC0E11065
:104CE0001DC08F7080618093B801C5010E94691C4E
:104CF0008091B801F80185838F2D61960FB6F894E5
:104D0000DEBF0FBECDBFDF91CF911F910F91FF90FE
:104D1000EF90DF90CF90BF90AF900895CD2829F00D
:104D2000822F83238F3F09F003C180E0F82FF170B9
:104D3000DF2E80FF3CC08091EA014091B90156E02E
:104D4000841315C02D873E878D859E850E94EC19A2
:104D5000292F22952F702230F0F0243018F59F7003
:104D6000F1F0F8019581907FD1F4D12C1EC090E034
:104D7000589FF001599FF00D1124E654FE4F6181B8
:104D8000361306C06081261303C06281E6120FC08D
:104D900001968770D5CF9F7011F0882331F3805E24
:104DA000883018F3C8010E94691CFD2CA5CFEE20A5
:104DB00009F4A2CF8091B80181608093B801F12CF1
:104DC0009BCF431306C0921304C0F801EE2009F4F0
:104DD00079C0C8010E94F819882309F1EE20F9F082
:104DE0008091B801803270F02091B3013091B4010C
:104DF00038872F831986DB86CA868C87CE01079673
:104E00000E94691C86E0F801A3EBB1E001900D92CD
:104E10008A95E1F70E94CC25FF24F3946DCFC80159
:104E20000E94691CF9CF51110AC083EB91E00E94E6
:104E3000691C86E0F50111928A95E9F7C0CF43130A
:104E40000FC092130DC0E1100BC0F8018583C8019B
:104E50000E94691C86E0F50111928A95E9F74CCF12
:104E6000C8010E94F8198823D1F2EE20C1F2809186
:104E7000B801803238F22091B3013091B4013A8305
:104E800029831B82DD82CC828E83CE010196B8CF2E
:104E9000E83CF105F8F6FE2CEE2009F243131FC0A2
:104EA00092131DC08091B80180FD10C0982F907F93
:104EB00069F0F8018583903F31F0982F907F905FE3
:104EC0008F70892B8583C8010E94691C86E0F801D8
:104ED000A3EBB1E001900D928A95E1F70DCFC801E7
:104EE0000E94F81981118ECF8091B8018160809362
:104EF000B801C8010E94691CFFCEEE2009F48FCFD3
:104F0000C8010E94F819F82E882309F488CF86E09A
:104F1000F801A3EBB1E001900D928A95E1F7809141
:104F2000B3019091B4010E94EC190E94CC25E4CE0B
:104F300081E08E25FBCE1F93CF93DF93CDB7DEB7F5
:104F400067970FB6F894DEBF0FBECDBF4B8B5C8B5F
:104F50006D8B7E8B8F8B61111092F4011A8A198AE6
:104F600085E0FE017396DE011D9601900D928A95F3
:104F7000E1F786E0FE013D96DE01179601900D9265
:104F80008A95E1F7CE0107960E942226811112C070
:104F900086E0FE013796DE01119601900D928A950A
:104FA000E1F78A859B85892B29F088859F81892354
:104FB0008F3FB1F516E08091EA019091B901891314
:104FC0001DC067960FB6F894DEBF0FBECDBFDF9150
:104FD000CF911F91089596E0929FD001939FB00DBD
:104FE0001124A654BE4FFE01319601900D929A9560
:104FF000E1F78093B9010E948712DCCF819FC00145
:10500000112486549E4F0E9422268823D1F280913B
:10501000EA0190E00196877099278093EA01CBCF4F
:105020002091B90130E0C90101968770992740911C
:10503000EA014817190679F60E94E2141092B901A4
:105040001092EA0186E0E3EBF1E0DF011D928A9520
:10505000E9F7B0CFBF92CF92DF92EF92FF920F931A
:105060001F93CF93DF9300D000D0CDB7DEB7198266
:105070001A821B821C8287E4C82E81E0D82E10E0A1
:1050800000E0EE24E394F12CF60181916F018F3F53
:1050900009F446C0F894E82FE295EF70F0E021A102
:1050A0008F70A70102C0440F551F8A95E2F7CA010D
:1050B000922F982B91A392A18095892382A3789413
:1050C00000C0EBE4F1E0B12C31E021912F3F09F475
:1050D0006CC0A22FA295AF70B0E090968C9190E03A
:1050E0002F7002C0959587952A95E2F780FD5DC0E7
:1050F000832FB82A330F51E0E035F50731F7F60179
:10510000319780818F3F11F00E94A31080EA8A9529
:10511000F1F7E1E0F0E0EC0FFD1FE00FF11FB082CE
:105120000F5F1F4F0430110509F0AECF44E050E08F
:10513000BE016F5F7F4F8BEF91E00E94DB3111E08A
:10514000009709F410E0892B91F189819A81AB8154
:10515000BC818093FB019093FC01A093FD01B0936F
:10516000FE0181E08093FA010E94F91B9093F901FE
:105170008093F8018091F8019091F9010E94EA1B57
:105180000597C8F08091FB01809384028091FC0117
:10519000809385028091FD01809386028091FE01BB
:1051A000809387021092FA0106C080E0A2CF80911E
:1051B000FA018111DFCF812F0F900F900F900F9088
:1051C000DF91CF911F910F91FF90EF90DF90CF90E3
:1051D000BF9008951F921FB61F9211248F939F9323
:1051E000AF93BF9380919402811113C08091950277
:1051F00090919602A0919702B09198024196A11DBC
:10520000B11D8093950290939602A0939702B0935C
:105210009802BF91AF919F918F911F901FBE1F90D9
:105220001895CDB7DEB7AE970FB6F894DEBF0FBEB8
:10523000CDBF84B7877F84BF0FB6F894A8958091BF
:105240006000886180936000109260000FBE80E86B
:1052500090E00FB6F89480936100909361000FBEC8
:1052600085B7806885BF85B7806885BF81EA90E192
:1052700090937D0180937C010E94A30E0E946E0F8B
:105280008091E20084608093E20078948091A9028A
:105290008823A1F01091E9001F709091EC00892FF4
:1052A000817090FD80E8182B1092E9008091E80051
:1052B00083FD0E94ED141F701093E90082E084BD0D
:1052C00093E095BD9AEF97BD80936E000E94181AE7
:1052D000811102C00E945E1984EF0E94A31085EF25
:1052E0000E94A31086EF0E94A31087EF0E94A310D4
:1052F0000BE411E070E5E72E71E0F72ED8018D91F7
:105300008D018F3F11F00E94A310E016F106B1F756
:1053100084E0E4E8F2E0DF01282F1D922A95E9F706
:10532000EBEFF1E0DF011D928A95E9F790E080E074
:105330000E94F031893E9E4F21F40E94181A81117B
:1053400002C00E943F1A82E090E00E94E831809300
:1053500001020E94311A909300028093FF010E9483
:105360002A28EFE3FCE93197F1F700C000000E9422
:105370002A288091840280FF08C06FEF7FEF90E0C1
:1053800080E00E9414320E94321083E090E00E947C
:10539000E8310E94DE141092810280E88093B70207
:1053A0000E9405306DE070E083EE95E10E942413C9
:1053B000892BE9F58091810263E070E081FD3BC3B8
:1053C00080EE95E10E942413892B89F56DE070E051
:1053D00080ED95E10E942413892B49F50E9443102A
:1053E000605A75418F4F9F4F609388027093890276
:1053F00080938A0290938B02E0ECF2E080E092E0EE
:10540000DF019C011D9221503040E1F7F093C1046F
:10541000E093C0048FEF9FEF9093BF028093BE0292
:1054200081E080938D0280938C021092820264E668
:1054300071E040E651E0A2E6B1E021E030E08D917C
:10544000E82FE295EF70F0E0F1A08F70890101C0C4
:10545000000F8A95EAF7902F90959F2191A382A142
:10546000802B82A3FA018191AF01E82FE295EF70C2
:10547000F0E0F1A08F70890101C0000F8A95EAF772
:10548000902F90959F2191A382A1802B82A36A17D0
:105490007B07A9F68FE891E00197F1F700C00000C3
:1054A00083B1829581701D99C9C290E0892B809348
:1054B00047028CB186FB882780F929B130E0220FA2
:1054C000232F221F330B90E0232B09F092E0892B2E
:1054D0008093480280E091E0909391028093900243
:1054E00084E892E0A4E0A80FACA78091A90250E460
:1054F000F52E00E112E1853009F4D9C20E942A2874
:105500008BA781110E944310A4E8B2E0E2E0F2E030
:1055100010E000E0302F8D912191281709F4D6C2B8
:1055200090E0FF24F3942827422F4F2109F4C9C2A9
:1055300099A33AA38F2191E009F490E09BA30E94E4
:10554000F91B8160782F9DA38CA349A15AA16BA15F
:105550008DA10E949B27F801EE5FFD4F8081F82608
:10556000F0828090110290901202092C000CAA087F
:10557000BB0880910C0190E0E1E1F2E021E030E035
:105580003296821793070CF0B8C280910D02909169
:105590000E02A0910F02B09110026FB7F894C09064
:1055A0009502D0909602E0909702F09098026FBF1B
:1055B000C81AD90AEA0AFB0A10910C0139ECC31681
:1055C000D104E104F10414F180910C0290E0019601
:1055D00069E170E00E942C3180930C02880F991FC2
:1055E000FC01EF5EFD4F11821082812F183108F00F
:1055F00087E18F5F80930C010E94431060930D023E
:1056000070930E0280930F029093100282E088162E
:105610009104A104B1040CF47DC2A0E6BAEEA50188
:1056200094010E948E314B015C0198EC199F90010E
:105630001124032E000C440B550B2C0D3D1D4E1D4B
:105640005F1DA5E0B0E00E948E319B01AC01C50159
:10565000B4010E94403169017A01A1EFCA16D10458
:10566000E104F1042CF030EFC32ED12CE12CF12C0D
:105670008091080290910902A0910A02B0910B0258
:105680002FB7F8948090950290909602A090970280
:10569000B09098022FBF881A990AAA0ABB0AB5E6E9
:1056A0008B169104A104B10484F00E94431060930E
:1056B00008027093090280930A0290930B02809172
:1056C000510280930702C092060210910702A09136
:1056D0000602A11BBB0BA50194010E94993124E68F
:1056E00030E040E050E00E946231120F109351020E
:1056F000A7E4CA2EA2E0DA2E05E412E0B3E4EB2E12
:10570000B2E0FB2E80E6A82E81E0B82E92E6892E2C
:1057100091E0992E212C312C24E0622E712CD6019F
:10572000ED916D01EE0FEE0FD4012D914D01A22FE1
:10573000A295AF70B0E090968C9190E02F7002C06F
:10574000959587952A95E2F781709927D5014D9116
:105750005D01A42FA295AF70B0E090962C9130E03F
:105760004F7002C0359527954A95E2F7A90141701F
:10577000552720FF02C042E050E0842BE82BD601E1
:105780001197EC932801EF70F0E0E05BFE4F808111
:10579000F8019081890F808320E0843054F0D70194
:1057A0008C918F5F8C938AEA21108CEA0E94C61834
:1057B00021E0F80180818D3F54F4D7018C91815014
:1057C0008C9389EA21108BEA0E94C61821E00F5FB2
:1057D0001F4FF8013197D2018C91082E000C990BC4
:1057E000B3010E942C318083322ABFEFEB1AFB0AEF
:1057F000E1E02E1293C131100E94431080918D027E
:10580000882309F4E2C080EC92E09093C104809375
:10581000C00480915102882309F483C10E946F1350
:1058200040914D0250914E0260914F027091500292
:105830002FB7F8948091950290919602A0919702CB
:10584000B09198022FBF841B950BA60BB70B893C18
:105850009105A105B10560F00E94431060934D02CF
:1058600070934E0280934F02909350020E94E81270
:105870000E9443106093490270934A0280934B0246
:1058800090934C0280EC92E09093C1048093C0040A
:105890008DEF95E10E944514C090510280910D0159
:1058A0008C1105C080915602803309F44AC0C09221
:1058B0000D0180E380935602D12CF12CE12C109243
:1058C0005502C701B6012AE030E040E050E00E94F6
:1058D0004031605D603331F0C114D104E104F10462
:1058E00009F460E36093540260E32AE0C216D10435
:1058F000E104F10490F0FAE08F2E912CA12CB12C50
:10590000C701B601A50194010E944031CA01B90145
:10591000A50194010E944031605D6093530220E331
:1059200034E6C316D104E104F10448F0C701B6011E
:1059300024E630E040E050E00E944031205D2093BA
:10594000520282E592E00E944F1887E592E00E94A1
:105950004F180E9495102091B70230E020543D4F1F
:105960003093C1042093C00481FD24C180EF95E1F0
:105970000E94451480918D02882371F02091BE020F
:105980003091BF022115310539F08091820261E02A
:1059900070E0882309F412C180918C028823A9F059
:1059A0000E944310009188021091890220918A027E
:1059B00030918B02601B710B820B930B6F3F7F4FFB
:1059C0008F4F9F4710F40E9454132BA5211101C043
:1059D00031100E946F130E949510909183028913D9
:1059E000809383028091A902843009F07ECD83E008
:1059F0008093E9008091E80082FF77CD8091E800F4
:105A000090E085FF06C00E94C20E882309F4A2C15F
:105A100091E08091E8008B778093E800992309F466
:105A200064CDE981E150E33108F007C2F0E0EE5BBC
:105A3000FD4C0C9481318DED95E1C4CC92E036CDD6
:105A40008091A902843029F10E945413109294028B
:105A5000E8E1F0E00FB6F894A895E09360000FBE7F
:105A6000F092600083B7817F846083BF83B78160D9
:105A700083BF7894889583B78E7F83BF0FB6F894E1
:105A8000A89580916000886180936000109260000A
:105A90000FBE8091A802882351F00E942A28E4E8D2
:105AA000F2E08191811193C22CA52E13FACF80913F
:105AB000A902853009F4C4CF0E94E2140E94951017
:105AC0001DCD9F5FFF0C953009F02ECD0F5F1F4F4E
:105AD0000430110509F01ECD8FEF8EA38FA318A6F9
