:100000000C943E0E0C945B0E0C945B0E0C945B0EE9
:100010000C945B0E0C945B0E0C945B0E0C945B0EBC
:100020000C945B0E0C945B0E0C94372E0C940F2FDB
:100030000C94E71A0C945B0E0C945B0E0C945B0E04
:100040000C945B0E0C945B0E0C945B0E0C945B0E8C
:100050000C945B0E0C94132E0C945B0E0C945B0EA4
:100060000C945B0E0C945B0E0C945B0E0C945B0E6C
:100070000C945B0E0C945B0E0C945B0E0C945B0E5C
:100080000C945B0E0C945B0E0C945B0E0C945B0E4C
:100090000C945B0E0C945B0E0C945B0E0C945B0E3C
:1000A0000C945B0E0C945B0E0C945B0E05010980A6
:1000B000A101850319012AB700150126B700950192
:1000C00075108100C0050C0901A101850419012AE0
:1000D000A002150126A002950175108100C00660DE
:1000E000FF0961A1010962150026FF00952075082E
:1000F00081020963150026FF00952075089102C052
:1001000005010906A101050719E029E715002501E8
:10011000950875018102950175088101050719008F
:1001200029FF150026FF00950675088100050819AE
:10013000012905950575019102950175039101C08D
:1001400000AF00AE07087F0807003E5B4F5B3E0034
:100150003E6B4F6B3E001C3E7C3E1C00183C7E3CC0
:1001600018001C577D571C001C5E7F5E1C00001889
:100170003C180000FFE7C3E7FF0000182418000048
:10018000FFE7DBE7FF0030483A060E002629792911
:100190002600407F05050700407F05253F005A3CAB
:1001A000E73C5A007F3E1C1C0800081C1C3E7F00D8
:1001B00014227F2214005F5F005F5F0006097F0149
:1001C0007F00006689956A0060606060600094A2AC
:1001D000FFA2940008047E04080010207E20100076
:1001E00008082A1C0800081C2A0808001E10101005
:1001F00010000C1E0C1E0C0030383E383000060E6D
:100200003E0E060000000000000000005F0000003D
:10021000000700070000147F147F1400242A7F2A9F
:10022000120023130864620036495620500000086B
:1002300007030000001C224100000041221C0000B6
:100240002A1C7F1C2A0008083E0808000080703025
:100250000000080808080800000060600000201086
:10026000080402003E5149453E0000427F40000024
:100270007249494946002141494D33001814127F03
:1002800010002745454539003C4A49493100412184
:1002900011090700364949493600464949291E00D7
:1002A0000000140000000040340000000008142288
:1002B0004100141414141400004122140800020117
:1002C000590906003E415D594E007C1211127C0016
:1002D0007F49494936003E41414122007F41414129
:1002E0003E007F49494941007F09090901003E411B
:1002F000415173007F0808087F0000417F410000E2
:100300002040413F01007F08142241007F404040CF
:1003100040007F021C027F007F0408107F003E41E6
:1003200041413E007F09090906003E4151215E001E
:100330007F091929460026494949320003017F01F6
:1003400003003F4040403F001F2040201F003F402F
:1003500038403F006314081463000304780403006A
:100360006159494D4300007F41414100020408109A
:100370002000004141417F0004020102040040408E
:10038000404040000003070800002054547840001B
:100390007F284444380038444444280038444428E2
:1003A0007F0038545454180000087E09020018A435
:1003B000A49C78007F080404780000447D4000007D
:1003C0002040403D00007F102844000000417F4055
:1003D00000007C04780478007C0804047800384429
:1003E00044443800FC182424180018242418FC0065
:1003F0007C080404080048545454240004043F4476
:1004000024003C4040207C001C2040201C003C403C
:1004100030403C004428102844004C9090907C00D0
:100420004464544C4400000836410000000077004A
:1004300000000041360800000201020402003C26D0
:1004400023263C00000000000000404040F0F8F887
:10045000FF38FFF8F83FF8F8FF38FFF8F8F04040B1
:100460004000000000000080C0C0C0800000C0C08C
:100470008000000080C0C000C0C0000080C0C0007C
:1004800000000000C0C0C0C0C000C0C0000000002C
:10049000000000000000000000000000000000005C
:1004A000000000000000000000000000000000004C
:1004B000000000000000000000000000000000003C
:1004C000000000C0F0F8FC3E1E06010000007F4165
:1004D00041417F007F4141417F000080C0E07E5B61
:1004E0004F5BFEC00000C000DCD7DEDEDED7DC00E4
:1004F000C00000000000000000000000000000003C
:1005000000000000000000000000494949FFFFFF13
:10051000FFE0DFBFBF00BFBFDFE0FFFFFFFF4949D4
:100520004900000000001F3F6060E0BF1F007F7FA8
:10053000071E381E077F7F007F7F0E1F3B71600004
:10054000000000007F7F0C0C0C007E7E007F7E038D
:1005500003007F7E03037E7E03037F7E000F3E70D9
:100560003C063C703E0F00327B49493F7E007F7E57
:100570000303001E3F69696F2600000000000000B1
:10058000000000030F1F3F3C7870600000007F41B7
:1005900041417F007F4141417F00307B7F783020A7
:1005A0002030787F3B0003000F7F0F0F0F7F0F007D
:1005B0000300000000000000000000000000000038
:1005C00000000000000000000000010101070F0F03
:1005D0007F0F7F0F0F7E0F0F7F0F7F0F0F07010120
:1005E0000100000000000000000000010100000008
:1005F00000000000000000000000000000000000FB
:1006000000000000000000000000000000000000EA
:1006100000000000000000000000000000000000DA
:1006200000000000000000000000000000000000CA
:1006300000000000000000000000000000000000BA
:1006400000000000000000000000000000000000AA
:10065000000000000000000000000000000000009A
:10066000000000000000000000000000000000008A
:10067000000000000000000000000000000000007A
:100680000000000009025B00030100A0FA09040059
:1006900000010301010009211101000122400007AE
:1006A000058103080001090401000203000000099C
:1006B0002111010001222200070582032000010709
:1006C00005030320000109040200010300000009E2
:1006D00021110100012232000705840320000112CC
:1006E00001000200000008EDFE13090100010200F4
:1006F000011003640075006D006200700061006409
:10070000000000160369006D006300680069007056
:100710000077006F006F006400000004030904000C
:10072000002400250026002A0000002100220023CA
:1007300000290000001E001F0020002B00A800015F
:100740005827003762280000000100010001000066
:100750005C000001000100010057000000010001E1
:1007600000010056002A5D0100010001002E00007A
:100770000001000100010001000000010001000172
:100780000001000000010001000100010001000162
:100790000001000100010000000100010001000152
:1007A0000000000100010001000100000001000143
:1007B0000001000100010001000100010001000032
:1007C000DA0281FFD9F1DB20A4A62EAF00A0C00081
:1007D000A1C800AED580A81FD300408D14200020F2
:1007E0002020202020200043415053000000000022
:1007F00000000000000000000000000000000000F9
:1008000000000000000000000000000000000000E8
:100810007E0F00D4FFFFFFC700000078000000003B
:10082000000000002A2B280000000000000000004B
:100830000000000000000029000000002C1E3420F1
:10084000212224342627252E362D3738271E1F2017
:100850002122232425263333362E37381F0405065C
:100860000708090A0B0C0D0E0F10111213141516A0
:100870001718191A1B1C1D2F3130232D350405069E
:100880000708090A0B0C0D0E0F1011121314151680
:100890001718191A1B1C1D2F3130354C0000000091
:1008A0000000000000000000000000000000000048
:1008B0000000000000000000000000000000000038
:1008C0000000000000000000000000000000000028
:1008D0000000000000000000000000000000808018
:1008E00080404020201008040204081010202040FE
:1008F00040808000000000000000000000000000B8
:1009000000000000000000000000000000000000E7
:1009100000000000000000000000000000000000D7
:1009200000000000000000000000000000000000C7
:1009300000000000000000000000000000000000B7
:100940000000000000000000000000000000003F68
:10095000C1010102020404040402020101010000B9
:100960000000000080000040808040000030300027
:10097000000000010264180412C2CA2488F08080BA
:100980004040404020202020101010100808080887
:10099000040404040202020201010101000000003B
:1009A0000000000000000000000000000000000047
:1009B0000000000000000000000000000000000037
:1009C0000000000000000000000000000000E0182F
:1009D000060100000000000000000000008083838A
:1009E0004040404020212120101010100808080825
:1009F00004040404020202020101010100000000DB
:100A000000000000000000000000000000000000E6
:100A100000000000000000000000000000000000D6
:100A200000000000000000000000000000000000C6
:100A300000000000000000000000000080808080B6
:100A4000404040402020202010101010080F0808BF
:100A500004040404020408101020204040414224F1
:100A600098C088888C9C1C1E0E06000000000000A8
:100A70000000000000000000000000000000000076
:100A80000000000000000000000000000000000066
:100A90000000000000000000000000000000000056
:100AA0000000000000000000000000000000000046
:100AB0000000000000000000000000000000000036
:100AC0000000000000000000000000000000000026
:100AD0000000000000000000000000000000000016
:100AE0000000000000000000000000000000000006
:100AF00000000000000000000000000000000000F6
:100B000000000000000000000000000000000000E5
:100B100000000000000000000000000000000000D5
:100B200000000000000000000000000000000000C5
:100B300000000000000000000000000000000000B5
:100B400000000000000000000000000000000000A5
:100B50000000000000000000000080808040402075
:100B6000201008040204081010202040408080005B
:100B70000000000000000000000000000000000075
:100B80000000000000000000000000000000000065
:100B90000000000000000000000000000000000055
:100BA0000000000000000000000000000000000045
:100BB0000000000000000000000000000000000035
:100BC00000000000000000000000003FC101010221
:100BD000020484444442820101010000000000003C
:100BE00080000040808040000030300000000001A4
:100BF000020404080810204080808080404040406B
:100C000020202020101010100808080804040404F4
:100C100002020202010101010000000000000000C8
:100C200000000000000000000000000000000000C4
:100C300000000000000000000000000000000000B4
:100C400000000000000000000000E01806010000A5
:100C50000C03000218190005FE80838340404040C9
:100C60002021212010101010080808080404040492
:100C70000408304080800000018698600000000079
:100C80000000000000000000000000000000000064
:100C90000000000000000000000000000000000054
:100CA0000000000000000000000000000000000044
:100CB0000000000000000000808080804040404034
:100CC0002020202010101010080F0808040404042D
:100CD0000202020201010101000000000000000008
:100CE0000000000000000000000000060F0F0703D6
:100CF0000361F0F8FC600101013C78F8F07000003D
:100D000000000000000000000000000000000000E3
:100D100000000000000000000000000000000000D3
:100D200000000000000000000000000000000000C3
:100D300000000000000000000000000000000000B3
:100D400000000000000000000000000000000000A3
:100D50000000000000000000000000000000000093
:100D60000000000000000000000000000000000083
:100D70000000000000000000000000000000000073
:100D80000000000000000000000000000000000063
:100D90000000000000000000000000000000000053
:100DA0000000000000000000000000000000000043
:100DB0000000000000000000000000000000000033
:100DC0000000000000000000000000000000000023
:100DD00000000000000080808040402020100804B7
:100DE0000204081010202040408080000000000015
:100DF00000000000000000000000000000000000F3
:100E000000000000000000000000000000000000E2
:100E100000000000000000000000000000000000D2
:100E200000000000000000000000000000000000C2
:100E300000000000000000000000000000000000B2
:100E4000000000000000003FC101010202048444D0
:100E500044428201010100000000000080000040C7
:100E6000808040000030300000000001026418045F
:100E700012C2CA2488F080804040404020202020B8
:100E800010101010080808080404040402020202EA
:100E9000010101010000000000000000000000004E
:100EA0000000000000000000000000000000000042
:100EB0000000000000000000000000000000000032
:100EC000000000000000E018060100000C03000212
:100ED00018190005FE8083834040404020212120D6
:100EE000101010100808080804040404020202028A
:100EF00001010101000000000000000000000000EE
:100F000000000000000000000000000000000000E1
:100F100000000000000000000000000000000000D1
:100F200000000000000000000000000000000000C1
:100F30000000000080808080404040402020202031
:100F400010101010080F0808040404040202020222
:100F5000010101010000000000000000000000008D
:100F60000000000000000000000000000000000081
:100F70000000000000000000000000000000000071
:100F80000000000000000000000000000000000061
:100F90000000000000000000000000000000000051
:100FA0000000000000000000000000000000000041
:100FB0000000000000000000000000000000000031
:100FC0000000000000000000000000000000000021
:100FD0000000000000000000000000000000000011
:100FE0000000000000000000000000000000000001
:100FF00000000000000000000000000000000000F1
:1010000000000000000000000000000000000000E0
:1010100000000000000000000000000000000000D0
:1010200000000000000000000000000000000000C0
:1010300000000000000000000000000000000000B0
:101040000000000000000000000000000000008020
:101050008040404020202020201804020102040883
:1010600010202040408080000000000000000000B0
:101070000000000000000000000000000000000070
:101080000000000000000000000000000000000060
:101090000000000000000000000000000000000050
:1010A0000000000000000000000000000000000040
:1010B0000000000000000000000000000000000030
:1010C0000000003FC1010102020404040402020105
:1010D0000000000000000000800000408080400010
:1010E0000030300000000001020404080810204015
:1010F0008080808040404040202020201010101030
:1011000008080808040404040202020201010101A3
:1011100000000000000000000000000000000000CF
:1011200000000000000000000000000000000000BF
:1011300000000000000000000000000000000000AF
:101140000000E018060100000000000000000000A0
:101150000080838340404040202121201010101047
:1011600008080808040404040408304080800000D3
:1011700001869860000000000000000000000000F0
:10118000000000000000000000000000000000005F
:10119000000000000000000000000000000000004F
:1011A000000000000000000000000000000000003F
:1011B000808080804040404020202020101010106F
:1011C000080F08080404040402040810102020403A
:1011D0004041422418000000000000000000000010
:1011E00000000000000000000000000000000101FD
:1011F00001000000000000000000000000000000EE
:1012000000000000000000000000000000000000DE
:1012100000000000000000000000000000000000CE
:1012200000000000000000000000000000000000BE
:1012300000000000000000000000000000000000AE
:10124000000000000000000000000000000000009E
:10125000000000000000000000000000000000008E
:10126000000000000000000000000000000000007E
:10127000000000000000000000000000000000006E
:10128000000000000000000000000000000000005E
:10129000000000000000000000000000000000004E
:1012A000000000000000000000000000000000003E
:1012B000000000000000000000000000000000002E
:1012C000000000000000000000000000000080801E
:1012D0004040402010080402010204081020408011
:1012E000800000000000000000000000000000007E
:1012F00000000000000000000000000000000000EE
:1013000000000000000000000000000000000000DD
:1013100000000000000000000000000000000000CD
:1013200000000000000000000000000000000000BD
:101330000000000000000000000000000000003F6E
:10134000C1010102020404040402020101010000BF
:1013500000000000000000800000800000606000CD
:1013600000010204040808101020204080808080C2
:10137000404040402020202010101010080808088D
:101380000404040402020202010101010000000041
:10139000000000000000000000000000000000004D
:1013A000000000000000000000000000000000003D
:1013B0000000000000000000000000000000C0303D
:1013C0000C03000000000000000000000080868682
:1013D0004040404021222220111110100808080826
:1013E00004040404040830408080000001869860F2
:1013F00000000000000000000000000000000000ED
:1014000000000000000000000000000000000000DC
:1014100000000000000000000000000000000000CC
:1014200000000000000000000000000080808080BC
:10143000404040402020202010101010080F0808C5
:1014400004040404020408101020204040414224F7
:101450001800000000000000000000000000000074
:101460000000000000000000000001010100000079
:10147000000000000000000000000000000000006C
:10148000000000000000000000000000000000005C
:10149000000000000000000000000000000000004C
:1014A000000000000000000000000000000000003C
:1014B000000000000000000000000000000000002C
:1014C000000000000000000000000000000000001C
:1014D000000000000000000000000000000000000C
:1014E00000000000000000000000000000000000FC
:1014F00000000000000000000000000000000000EC
:1015000000000000000000000000000000000000DB
:1015100000000000000000000000000000000000CB
:1015200000000000000000000000000000000000BB
:1015300000000000000000000000000000000000AB
:10154000000000000000000000008080808040401B
:1015500020100804020408102040808000000000D1
:10156000000000000000000000000000000000007B
:10157000000000000000000000000000000000006B
:10158000000000000000000000000000000000005B
:10159000000000000000000000000000000000004B
:1015A000000000000000000000000000000000003B
:1015B00000000000000000000000007E8202020423
:1015C00004080808080404020101000000000000EB
:1015D0000000008000008000006060000101020443
:1015E0000408081010202040808080804040404047
:1015F00020202020101010100808080804040404FB
:1016000002020202010101010000000000000000CE
:1016100000000000000000000000000000000000CA
:1016200000000000000000000000000000000000BA
:1016300000000000000000000000C0300C030000AB
:10164000000000000000000000808686404040400E
:101650002122222011111010080808080404040493
:10166000040830408080000001869860000000007F
:10167000000000000000000000000000000000006A
:10168000000000000000000000000000000000005A
:10169000000000000000000000000000000000004A
:1016A000000000000000000080808080404040403A
:1016B0002020202010101010080F08080404040433
:1016C000020408101020204040414224180000006D
:1016D000000000000000000000000000000000000A
:1016E00000000000000001010100000000000000F7
:1016F00000000000000000000000000000000000EA
:1017000000000000000000000000000000000000D9
:1017100000000000000000000000000000000000C9
:1017200000000000000000000000000000000000B9
:1017300000000000000000000000000000000000A9
:101740000000000000000000000000000000000099
:101750000000000000000000000000000000000089
:101760000000000000000000000000000000000079
:101770000000000000000000000000000000000069
:101780000000000000000000000000000000000059
:101790000000000000000000000000000000000049
:1017A0000000000000000000000000000000000039
:1017B0000000000000000000000000000000000029
:1017C000000000000000808080804040201008045D
:1017D000020408102040808000000000000000008B
:1017E00000000000000000000000000000000000F9
:1017F00000000000000000000000000000000000E9
:1018000000000000000000000000000000000000D8
:1018100000000000000000000000000000000000C8
:1018200000000000000000000000000000000000B8
:101830000000000000001C34C40404040808080868
:1018400008040402010100000000000080000040C4
:1018500080804000003030000101020204040408CE
:101860000810204080808080404040402020202080
:1018700010101010080808080404040402020202F0
:101880000101010100000000000000000000000054
:101890000000000000000000000000000000000048
:1018A0000000000000000000000000000000000038
:1018B000000000000000E018060100000000000029
:1018C0000000000000808383404040402021212010
:1018D000101010100808080804040404040830401C
:1018E0008080000001869860000000000000000079
:1018F00000000000000000000000000000000000E8
:1019000000000000000000000000000000000000D7
:1019100000000000000000000000000000000000C7
:101920000000000080808080404040402020202037
:1019300010101010080F0808040404040204081012
:101940001020204040414224180000000000000008
:101950000000000000000000000000000000000087
:101960000000010101000000000000000000000074
:101970000000000000000000000000000000000067
:101980000000000000000000000000000000000057
:101990000000000000000000000000000000000047
:1019A0000000000000000000000000000000000037
:1019B0000000000000000000000000000000000027
:1019C0000000000000000000000000000000000017
:1019D0000000000000000000000000000000000007
:1019E00000000000000000000000000000000000F7
:1019F00000000000000000000000000000000000E7
:101A000000000000000000000000000000000000D6
:101A100000000000000000000000000000000000C6
:101A200000000000000000000000000000000000B6
:101A30000000000000000000000000000000008026
:101A40008040404020202020201804020102040889
:101A500010202040408080000000000000000000B6
:101A60000000000000000000000000000000000076
:101A70000000000000000000000000000000000066
:101A80000000000000000000000000000000000056
:101A90000000000000000000000000000000000046
:101AA0000000000000000000000000000000000036
:101AB00000060D31C101010102020204040202010B
:101AC0000000000000000000800000408080400016
:101AD000003030000000000102040408081020401B
:101AE0008080808040404040202020201010101036
:101AF00008080808040404040202020201010101AA
:101B000000000000000000000000000000000000D5
:101B100000000000000000000000000000000000C5
:101B200000000000000000000000000000000000B5
:101B30000000E018060100000000000000000000A6
:101B4000008083834040404020212120101010104D
:101B500008080808040404040408304080800000D9
:101B600001869860000000000000000000000000F6
:101B70000000000000000000000000000000000065
:101B80000000000000000000000000000000000055
:101B90000000000000000000000000000000000045
:101BA0008080808040404040202020201010101075
:101BB000080F080804040404020408101020204040
:101BC0004041422418000000000000000000000016
:101BD0000000000000000000000000000000010103
:101BE00001000000000000000000000000000000F4
:101BF00000000000000000000000000000000000E5
:101C000000000000000000000000000000000000D4
:101C100000000000000000000000000000000000C4
:101C200000000000000000000000000000000000B4
:101C300000000000000000000000000000000000A4
:101C40000000000000000000000000000000000094
:101C50000000000000000000000000000000000084
:101C60000000000000000000000000000000000074
:101C700000000000000000000000000011241FBE52
:101C8000CFEFDAE0DEBFCDBF11E0A0E0B1E0E2E2ED
:101C9000F9E602C005900D92A438B107D9F724E007
:101CA000A4E8B1E001C01D92A53CB207E1F70E9493
:101CB00075270C9457340C940000E92FEE0FEE0FAB
:101CC000E90FE80F8E2F877041E001C0440F8A951D
:101CD000EAF7E695E695E69583E0E89FF0011124A2
:101CE000ED5DFB4F30E020E070E05191DF01119796
:101CF000CB01022E02C0969587950A94E2F7817077
:101D000081958527842385278C932F5F3F4F233030
:101D1000310559F70895E92FEE0FEE0FE90FE80F9F
:101D20009E2F9770E695E695E69583E0E89FF00193
:101D30001124ED5DFB4F50E040E080E0219130E068
:101D4000092E02C0369527950A94E2F721703327B1
:101D5000042E01C0220F0A94EAF7822B4F5F5F4FD7
:101D60004330510559F7089580918B0490918A046E
:101D7000981301C008958F5F8770FACFE8E8F1E00B
:101D80009191891303C0DF0111971C9291E0EE3805
:101D9000F907B1F70895982F9095809182048923CF
:101DA00080938204089580918304811110928304AA
:101DB00008959091870492FF06C0282F287128303B
:101DC000F9F4877F846093FF06C0282F287128319B
:101DD000F1F4877E84612091880420FF06C0382FAB
:101DE00038713830D9F4877F816021FF06C0282FF1
:101DF00028712831D1F4877E816194FD877E089512
:101E0000282F24712430F9F68B7F8860DCCF282FAF
:101E10002471243101F78B7E8861DDCF382F317139
:101E2000313019F78E7F8860E0CF282F2171213162
:101E300021F78E7E8861E1CFCF93DF93EC01803E66
:101E4000910509F45EC048F58133910509F4A1C0FC
:101E500088F48932910509F495C08A9709F4A0C0E5
:101E6000C130D10529F1CE010497813A910508F0DE
:101E700054C01EC089339105E9F182389105D1F132
:101E8000C59709F478C0C83AD10508F090C0C53AA2
:101E9000D10530F3A497D0640BC0843E910509F4BA
:101EA0004FC050F4823E9105D9F1833E9105E9F18E
:101EB000CE01DF91CF910895863E910509F44BC084
:101EC000873E910509F44CC0811523E5920708F07F
:101ED0008BC0811532E5930708F0FDC0C11580E580
:101EE000D80708F077C0C11520E4D20760F2DF7090
:101EF000D06ADECF809187048370D1F2C0EED0E04B
:101F0000D7CF8091870480FD11C19091880490FF04
:101F1000CFCFC3EED0E084FFCBCFD0E0C0E0C8CFBE
:101F20008091870482FDF5CFC3CF8091870482FD25
:101F300000C19091880490FDE1CF84FFB9CFEDCF2F
:101F40008091880481FFB4CF80918704C7EED0E0F0
:101F500084FDE3CFADCF8091870483FDF7CFA8CF79
:101F60008091870483FDE8C09091880491FFE5CFBC
:101F7000C4EED0E09DCF8091870485FF99CFC9E260
:101F8000D0E096CF8091870485FF92CFC5E3D0E063
:101F90008FCF8091870486FF8BCFCAE2D0E088CFB5
:101FA0008091870486FF84CFC1E3D0E081CFCF3B0F
:101FB000D10508F468C0C83ED10528F4C03ED1055B
:101FC00008F4ABCF75CFCE019A9581159F4108F0EB
:101FD000A4CF6ECFC11581E5D80708F45FC0DC2F10
:101FE000CC27C16FD06A64CF811529E59207A0F58F
:101FF000811538E5930708F086C0C11585E5D80737
:10200000C8F4C11524E5D20708F078C09E012370FA
:10201000332781E090E002C0880F991F2A95E2F7EC
:10202000C695C69530E2C39FE0011124C82BD92B79
:10203000DA683ECFCE0195558F3F910511F008F03B
:102040006CCF8C2F0E94D90EC82FD0E0DC2FCC276C
:10205000CC27DF71D0622CCFC1158AE5D80708F4F0
:1020600057C0CE0190568115904208F056CF8D2F63
:102070008F710E94D90E90E0982F882788279F7132
:102080008C2BEC01E7CFC85AD0E0CC0FDD1FCA5A29
:10209000DE4F0990D881C02DD4640ACF9E0174E030
:1020A000369527957A95E1F723708C2F869586953E
:1020B000837030E2839FC0011124922BC37021E012
:1020C00030E002C0220F331FCA95E2F7822B932B18
:1020D000EC01DC68EDCE9C012370332781E090E0B9
:1020E00002C0880F991F2A95E2F7C695C69520E28F
:1020F000C29FE0011124C82BD92BEBCFDC2FCC27BA
:10210000C46FD06AD5CED82FCC27C06FD06AD0CEBE
:102110008C2F8F700E94D90E34E0D695C7953A95D2
:10212000E1F7CF709C2FEC01D069C2CEC9E3D0E0BB
:10213000BFCEC2EED0E0BCCEC6EED0E0B9CE80E0DD
:102140000895F894E82FE295EF70F0E041A18F70C8
:1021500021E030E0B90102C0660F771F8A95E2F7EF
:10216000CB01962F9095942391A392A1892B82A3C2
:1021700078940895E0911904F0911A04309721F0B1
:102180000190F081E02D099480E008952091B40140
:102190003091B5012817390771F09093B5018093FC
:1021A000B401E0911904F0911A04309721F00680EF
:1021B000F781E02D099408952091B2013091B30187
:1021C0002817390771F09093B3018093B201E09121
:1021D0001904F0911A04309721F00084F185E02D64
:1021E000099408959C01FC0132968FEF90E0419193
:1021F000461751F08F3F19F4411101C0892F9F5F9D
:102200009630A9F78F3F09F40895280F311D87FDF7
:102210003A95F90162830895CF93DF9300D000D0FF
:10222000CDB7DEB78FB7F8942091AE013091AF01F2
:102230004091B0015091B10129833A834B835C8373
:102240008FBF69817A818B819C810F900F900F9055
:102250000F90DF91CF9108950F931F93CF93DF934A
:1022600000D000D0CDB7DEB7462F572FBC012FB717
:10227000F8948091AE019091AF01A091B001B0911E
:10228000B1012FBF8C019D01041B150B260B370BD1
:10229000C901B8010F900F900F900F90DF91CF916F
:1022A0001F910F91089587E797E790930108809316
:1022B000000888E19AE00FB6F894A8958093600032
:1022C0000FBE90936000FFCF8091AD0108950895F7
:1022D0000895FC01CB012091A0013091A1012617A6
:1022E000370790F0009729F42091E8002E7720938B
:1022F000E80040E0009751F4411108C08091E800E7
:1023000082FF31C080E00895C901F3CF20910D0410
:102310002223A9F12530A9F12091E80023FD2DC049
:102320002091E80022FDEACF2091E80020FFE2CFD3
:102330003091F3002091F200009719F02830310518
:1023400058F041E02830310509F040E02091E800E4
:102350002E772093E800CECF41914093F100019772
:102360002F5F3F4FE9CF80910D04882341F08530E6
:1023700041F08091E80083FFC1CF81E0089582E0C1
:10238000089583E0089580919A0187FF13C080919A
:10239000E80082FF06C08091E8008B778093E80018
:1023A00004C080910D048111F2CF089580910D0435
:1023B0008823D9F38091E80080FFF8CF8091E8006E
:1023C0008E77ECCF2091E4003091E50095E6A901ED
:1023D0002091EC00822F817020FF06C08091E800E0
:1023E00080FF06C080E008952091E80022FD1AC019
:1023F00080910D04882389F0853089F08091EB006D
:1024000085FD0FC02091E4003091E500421753078D
:10241000F9F29150E1F684E0089582E0089583E0B6
:10242000089581E00895E8EDF0E080818E7F80835B
:102430001092E2001092DA001092E100A0EEB0E0FB
:102440008C9181608C9380818F77808319BCA7EDFC
:10245000B0E08C918E7F8C9380818F7E80831092F0
:1024600099010895EF92FF920F931F93CF937C01F0
:102470008B010E94E211C82F811117C08091E800E2
:1024800085FD0BC08091E8008E778093E8000E9464
:10249000E211882399F3C82F08C0F70181917F01C9
:1024A0008093F1000150110949F78C2FCF911F91B2
:1024B0000F91FF90EF900895CF93DF93482F2091D5
:1024C000CD013091CE01B9016250724026583F4F84
:1024D00021303240C8F020E032E0261B370BC0919B
:1024E0000404D0910504E42FF92FCB01260F371FE8
:1024F00061E070E08217930750F0D0930504C09319
:102500000404DF91CF9108952CE732E0E8CF4491A5
:10251000DC01AE5FBD4F5C91451781F04C93AC017F
:10252000A5E056954795AA95E1F7DB0102C0AA0FF1
:10253000BB1F4A95E2F7AD01CA2BD52B0196319608
:10254000D9CF8091C2048531F0F48091C40490E029
:10255000019665E070E00E9488308093C40424E016
:1025600030E0281B390B4CE752E0249FC001259F27
:10257000900D349F900D1124805F9F4E0C945C123F
:1025800084E99DE0FBCF8832D8F38091C30490E0CA
:102590000196817099278093C30421E030E0281BC5
:1025A000390B4CE752E0249FC001259F900D349FCA
:1025B000900D11248456974FE1CF982F9093E90006
:1025C000242F762F50E0891731F07091EC00209184
:1025D000ED005091F00021FD06C09F5F973071F72C
:1025E0008093E90008953091EB003E7F3093EB003B
:1025F0003091ED003D7F3093ED003091EB00316084
:102600003093EB007093EC002093ED005093F000BA
:102610002091EE0027FDE1CF0895CF92DF92EF9257
:10262000FF920F931F93CF93DF93C8EDD0E0888183
:102630008F7E8883E7EDF0E080818160808384E095
:1026400082BF81E08093990188818E7F888302EE2A
:1026500010E0F80110821092DA0081EEC82ED12C21
:10266000F601108288818F778883888180688883CB
:1026700088818F7D888319BC10920D041092980177
:102680001092B7011092970190EEE92EF12CF7010C
:1026900080818B7F808388818160888342E060E0D5
:1026A00080E00E94DD12F60180818E7F8083F80138
:1026B000808181608083808188608083F701808150
:1026C0008E7F8083888180618883DF91CF911F9185
:1026D0000F91FF90EF90DF90CF900895CF93DF930D
:1026E000D82FC92F81E08093E9008FEF9091E80007
:1026F000815095FD06C095ED9A95F1F70000811186
:10270000F5CF8091E80085FF16C050E040E068E01A
:1027100070E08D2F9C2F0E9432128091E8008E77FE
:102720008093E80088E0ED2FFC2FA5EAB1E001904E
:102730000D928A95E1F7DF91CF9108958093A201E0
:102740007093A4016093A30180910D048430F9F487
:102750008093E9008FEF9091E800815095FD06C0CD
:1027600095ED9A95F1F700008111F5CF8091E80081
:1027700085FF0DC050E040E063E070E082EA91E048
:102780000E9432128091E8008E778093E8000895CD
:10279000BC0183E00C949E13BC0184E00C949E1356
:1027A0004F925F926F927F928F929F92AF92BF9261
:1027B000CF92DF92EF92FF920F931F93CF93DF930D
:1027C00010E000E038E2632E712CE801CC0FDD1F31
:1027D00058011CC0F60185909490692DC7010E9494
:1027E0002334682DC70101960E94233422E0C20ED3
:1027F000D11C32E0E30EF11C4E145F0459F72A9607
:1028000085E0A80EB11CC615D70581F0C501880F5B
:10281000991F9C01215E384F69017E0137E2E30E6A
:10282000F11C2E0181E3480E511CD4CF3E0128E259
:10283000620E711C0C5E1F4F0035110531F6DF91E1
:10284000CF911F910F91FF90EF90DF90CF90BF90AD
:10285000AF909F908F907F906F905F904F90089572
:10286000CF93C82F6FEF811162E283E290E00E9464
:1028700023346FEFC11164E084E290E00E942334BE
:102880006FEFC11163E185E290E0CF910C942334A6
:10289000CF93DF93C7ECD0E060E0CE010E942334F9
:1028A0002196C11584E0D807B9F7DF91CF9108953B
:1028B00080E00E94301460E086E290E00E942334C1
:1028C0000E94D0130E94481481E00C943014CF93DE
:1028D00084E090E00E941534C82F82E290E00E94CC
:1028E0001534982F8C2FCF91089583E290E00E94A9
:1028F0001534823289F484E290E00E9415348430E9
:1029000059F485E290E00E94153491E0833109F09A
:1029100090E0892F8170089580E0FCCF0F931F9382
:10292000CF93DF93C42FD0E0CC0FDD1F2AE0629F4E
:10293000C00DD11D112438E2839FC00DD11D11247B
:10294000CE0187960E941534082F10E0102F002723
:10295000CE0188960E9415349801282BC901DF9179
:10296000CF911F910F910895462F672F982F972B86
:10297000943020F4453010F40C948E1490E080E0F4
:102980000895DF92EF92FF920F931F93CF93DF93FF
:102990007C010091850480918404082BC7E0D0E07D
:1029A00010E0DC2EC8010C2E02C0959587950A9484
:1029B000E2F780FD0CC02197A0F7D12C8D2DDF917F
:1029C000CF911F910F91FF90EF90DF900895B70185
:1029D0008C2F0E94B4140E941C0F019761F3EECF5C
:1029E0000F931F93CF93FC01828100811181882373
:1029F00089F0662379F0C8010E94C114C82F682F9E
:102A0000C8010E945D0EB8018C2FCF911F910F91CC
:102A10000C94B414C8010E948B0EC82FF4CFCF932E
:102A2000DF93D82FC92F0E94C1146D2F7C2F0E94D5
:102A3000B414DF91CF910C941C0F0E940F15282F16
:102A400092959F70963091F060F4925F9F709230F3
:102A500030F481E0203F81F030F4283E30F080E017
:102A600008959A5FF3CF243FD1F7089581E0283E7F
:102A7000E0F3213FA1F7F9CF08958091820490916E
:102A80008904892B8093860190918304992391F086
:102A9000892B8093860120E088E891E0FC01308159
:102AA000019631112F5F31E08E389307B9F721116C
:102AB0000E94D30E48E050E06BE174E086E891E0BC
:102AC0000E946E31892BA9F088E0E6E8F1E0ABE1E5
:102AD000B4E001900D928A95E1F7E0911904F0912C
:102AE0001A04309731F00280F381E02D86E891E0FE
:102AF00009940895CF93C82F882309F445C08CEF1B
:102B00008C0F813A88F4E8E8F1E08191C817B1F1BF
:102B100021E0EE38F207C9F76C2F86E891E00E94B9
:102B2000F210CF910C943D1580E28C0F883068F440
:102B3000C77021E030E001C0220FCA95EAF780910A
:102B40008204822B80938204ECCF8BE58C0F833040
:102B500038F42C2F2452330BC901CF910C94C6109A
:102B6000C85AC73188F4EC2FF0E0EE0FFF1FEA5A85
:102B7000FE4F80819181CF910C94DC108C2F0E94AC
:102B8000BE0E0E943D15C8CFCF910895882329F12C
:102B90009CEF980F913A20F40E94BE0E0C943D15C4
:102BA00090E2980F983050F4877091E001C0990F2F
:102BB0008A95EAF7892F0E94CB0EF0CF9BE5980FFC
:102BC000933020F490E080E00C94C610885A87314E
:102BD00020F490E080E00C94DC1008950F931F9394
:102BE000CF93C82F10E000E0893311F400E510E026
:102BF0008C2F0E947A150115110531F48C2FCF917D
:102C00001F910F910C94C6158FE99FE00197F1F782
:102C100000C0000001501109EECF882339F09091D7
:102C20008204892B809382040C943D150895882397
:102C300021F00E94CB0E0C943D15089590E080E0A9
:102C40000E94C61090E080E00E94DC10109289047F
:102C50000C943D1510928204E8E8F1E086E0DF0173
:102C60001D928A95E9F70C941E161F93CF93DF935C
:102C7000CDB7DEB7AA970FB6F894DEBF0FBECDBFB3
:102C80008AE991E0FC0101962091F100208321E086
:102C9000823A9207B9F780919B01893009F456C0B6
:102CA000C8F4823009F4B3C0833009F482C08130A3
:102CB00071F18091E80083FF84C280919A01909124
:102CC0009B019A3008F07DC2E92FF0E0E75AFB4CF7
:102CD0000C94DD308A3009F489C08B3051F7809133
:102CE0009A01813231F780919E0190919F01892B49
:102CF00001F78091E800877F8093E8000E94C3116C
:102D000080919C01809300010E942A16D2CF80916D
:102D10009A01813A71F68091E800877F8093E800FC
:102D200080919E0190919F01892B61F468E085EA72
:102D300091E070E00E9469118091E8008B778093A8
:102D4000E800B7CF60E090E080E0F3CF80919A0197
:102D5000813209F0AECF80919E0190919F018D7FCD
:102D6000892B09F0A6CF8091E800877F8093E80047
:102D70008091E80082FF18C09091F3008091F200EA
:102D8000029731F48091F100813011F0863021F406
:102D90008091F1008093AD018091E8008B77809362
:102DA000E8000E94C31185CF80910D048111E0CF0E
:102DB00080CF80919A01813A09F07BCF80919E016A
:102DC00090919F01892B09F074CF8091E800877F53
:102DD0008093E8008091E80080FFFCCF80910001A3
:102DE0008093F1008091E8008E77D9CF80919A018D
:102DF000813209F05ECF8091E800877F8093E80000
:102E00000E94C31180919D018093960152CF8091C1
:102E10009A01813A09F04DCF8091E800877F809335
:102E2000E8008091E80080FFFCCF80919601D8CF28
:102E3000803899F0823809F0C4C180919E018F706A
:102E4000873008F0BEC18093E9008091EB0085FBDC
:102E5000882780F91092E90006C08091970190912F
:102E6000B701911182609091E800977F9093E800FC
:102E70008093F1001092F1008091E8008E779DC15F
:102E8000882309F48BC1823009F09BC180919C0199
:102E900081118EC180919E018F702FEF280F2630F7
:102EA00008F08FC18093E9002091EB0020FF80C1E2
:102EB000933031F48091EB0080628093EB0078C115
:102EC0009091EB0090619093EB0021E030E001C025
:102ED000220F8A95EAF72093EA001092EA00809187
:102EE000EB008860EACF81116CC110919C011F77C3
:102EF0008091E3008078812B8093E3008091E8004B
:102F0000877F8093E8000E94C3118091E80080FFD2
:102F1000FCCF8091E30080688093E30082E0111190
:102F200083E080930D044DC18058823008F049C180
:102F300040919C0150919D014C3D83E0580799F5CB
:102F400083E08A838AE289834FB7F894DE0113967F
:102F500020E03EE051E2E32FF0E0509357008491EF
:102F600020FF03C082958F703F5F8F708A30C8F05A
:102F7000895C90E08D939D932F5F243161F74FBF63
:102F80008091E800877F8093E8006AE270E0CE01DC
:102F900001960E9469118091E8008B778093E80088
:102FA00010C1805DE6CF80919E0190919F01252FF9
:102FB00033272330310509F44AC078F52130310533
:102FC00009F479C08BE590E0E4E8F6E022303105C1
:102FD00009F0F7C02091E800277F2093E8002091B6
:102FE000A0013091A1018217930708F49C0140E0F1
:102FF0002115310509F064C0411162C08091E800DB
:1030000082FDC9CF80910D04882329F2853019F201
:103010008091E80083FFF2CFBECF2132310509F461
:103020003BC02232310509F0CCC08330910508F055
:10303000C8C0FC01EE0FFF1FEB5DFE4F0190F08159
:10304000E02D8E5D9E4FDC018C9190E011C0CA0195
:103050009927413089F082309105B1F0892B09F030
:10306000B0C0EBE1F7E0E4918E2F90E0EBE1F7E008
:10307000009709F4A6C0AECFE3E0F7E0E4918E2F0D
:1030800090E0E3E0F7E0F4CFE1EFF6E0E4918E2F9B
:1030900090E0E1EFF6E0ECCF8330910508F091C0CD
:1030A000880F991FFC01E55DFE4F0190F081E02D36
:1030B00089E090E08FCF82E190E0EFEDF6E08ACFFB
:1030C00080910D04882309F466CF853009F463CF1D
:1030D0008091E80083FD5FCF8091E80082FD8ECF74
:1030E0008091E80080FF84CF9091F3008091F200FE
:1030F0002115310519F08830910550F041E008970D
:1031000009F040E08091E8008E778093E80070CF6E
:1031100044914093F1003196215031090196E8CF56
:10312000803809F04EC08091E800877F8093E800E6
:10313000809198018093F1009FCE811142C010913F
:103140009C011230F0F58091E800877F8093E800C1
:10315000109398010E94C311112311F084E005C05F
:103160008091E30087FDFACF81E080930D0442E077
:1031700061EC81E00E94DD1242E261EC84E00E9499
:10318000DD1242E261EC82E00E94DD1242E260EC7C
:1031900083E00E94DD1280910D0413C080919C0198
:1031A000813079F481E0933009F080E08093B701B9
:1031B0001092E9008091E800877F8093E8000E94E8
:1031C000C3118091E80083FF0AC08091E800877FE7
:1031D0008093E8008091EB0080628093EB00AA96D8
:1031E0000FB6F894DEBF0FBECDBFDF91CF911F9118
:1031F0000895809384040C941E16809385040C9487
:103200001E1621E030E001C0220F8A95EAF7809176
:103210008504822B0C94FD1821E030E001C0220FC0
:103220008A95EAF720958091850482230C94FD18F5
:10323000909186048095892380938604282F277097
:1032400091F4282F082E000C330B9217130659F017
:103250009091880492FD07C08595859585950E947B
:103260000C19109286040895CF93C0918804C2FB74
:10327000992790F9981799F080FBC2F9C0938804B8
:103280006091870484E090E00E9423346C2F82E2F6
:1032900090E00E94233482E0CF910C941819CF91D2
:1032A000089580918504982F9670963019F488605F
:1032B0000C94FD18877FFCCF69EE7EEF90E080E0F4
:1032C0000E94413460E082E090E00E94233460E09C
:1032D00083E090E00E9423341092840460E084E054
:1032E00090E00E94233460E082E290E00E94233468
:1032F00060E085E090E00E94233460E086E090E0AA
:103300000E9423346FEF87E090E00E94233440E076
:1033100050E0BA0188E090E00E94353460E08DE032
:1033200090E00E94233440E050E0BA0188E190E050
:103330000E94353460E087E190E00E94233440E051
:1033400050E0BA018CE190E00E94353470E060E01A
:1033500080E290E00E94413440E050E0BA0188E110
:1033600090E00E94353480E00E9430140E9458148E
:1033700040E050E0BA018FE090E00E94353440E038
:1033800050E0BA0183E190E00C943534CF93DF93A1
:10339000682F8091CD019091CE016A30B9F42091CF
:1033A000CF0182509240622F70E00E946830281B4B
:1033B000822F66E00E947C30C82FC15018F4DF9144
:1033C000CF91089580E20E94C619F7CF6D30F9F4CD
:1033D0009C01225032404091CF01642F70E0C9011E
:1033E0000E946830481B842FA901480F511D4115C8
:1033F000524018F080E030E020E0820F932F911DC2
:103400008E5F9D4F9093CE018093CD01D8CF26E063
:10341000FC01A0E9B1E001900D922A95E1F7603E30
:1034200008F458C026E0FC0111922A95E9F7C091F2
:10343000CD01D091CE0146E050E0BE0180E991E09F
:103440000E946E319E0122503240892B41F1C90108
:1034500045E0969587954A95E1F741E050E0BA013D
:1034600002C0660F771F8A95E2F7CB0160910404D2
:1034700070910504862B972BB9016B5F7F4FE5E0B8
:1034800076956795EA95E1F702C0440F551F6A9556
:10349000E2F7842B952B90930504809304042A5F14
:1034A0003F4F4091CF01642F70E0C9010E94683006
:1034B000481B463010F4240F311D211572E03707E8
:1034C00010F030E020E02E5F3D4F3093CE0120938E
:1034D000CD0175CFF6E06F9FB00111246C5B7E4F7C
:1034E00046E050E00E946531A2CFCF92DF92EF928A
:1034F000FF920F931F93CF93DF936C017B0164E6E0
:1035000070E088E70E945E2FEC018601EC0CFD1C48
:1035100097FD0EC0F801849164E670E00E94D72FF9
:10352000EC01892B29F40F5F1F4FE016F10691F78C
:103530000E946430CE01DF91CF911F910F91FF90D7
:10354000EF90DF90CF90089580910B04882371F065
:1035500080910A04882351F062E070E082E491E0F7
:103560000E94751A892B11F410920A040895CF93C2
:10357000DF9300D000D0CDB7DEB780910B04882355
:10358000F9F00E940C11DC01CB01805A9541AF4F3C
:10359000BF4F8093060490930704A0930804B09350
:1035A000090480910A0481110BC062E070E080E49C
:1035B00091E00E94751A892B19F481E080930A0426
:1035C0000F900F900F900F90DF91CF9108951F9261
:1035D0001FB61F9211248F939F93AF93BF93809137
:1035E000B601811113C08091AE019091AF01A091FD
:1035F000B001B091B1014196A11DB11D8093AE0102
:103600009093AF01A093B001B093B101BF91AF917E
:103610009F918F911F901FBE1F9018952FB7F89400
:103620008091AE019091AF01A091B001B091B10134
:103630002FBF08959C014FB7F8948091AE019091EF
:10364000AF01A091B001B091B1014FBF821B930BAC
:1036500008955F926F927F928F929F92AF92BF92E6
:10366000CF92DF92EF92FF920F931F93CF93DF934E
:1036700000D000D0CDB7DEB71A8219821C821B821F
:103680008DE4E82E81E0F82E8E010F5F1F4F91E54B
:10369000C92E91E0D92E3801AA24A394B12C36E585
:1036A000832E31E0932EF70181917F018F3F09F442
:1036B00040C0F894E82FE295EF70F0E021A18F7000
:1036C000A50102C0440F551F8A95E2F7CA01922F47
:1036D000982B91A392A18095892382A3789400C00E
:1036E000E1E5F1E031E0512C21912F3F09F465C073
:1036F000A22FA295AF70A05EB0E08C9190E02F70E9
:1037000002C0959587952A95E2F780FD56C0832FD4
:10371000582A330F8E169F0639F7F70131978081AB
:103720008F3F11F00E94A11050EA5A95F1F7F8016D
:1037300050820F5F1F4FCE14DF0409F0B4CF44E076
:1037400050E0B30185E194E00E946E319C0111E0EC
:10375000892B09F410E0232B91F189819A81AB81A7
:10376000BC818093150490931604A0931704B09322
:10377000180481E0809310040E940E1B90930F04A4
:1037800080930E0480910E0490910F040E941A1BE6
:103790000597C8F08091150490911604A091170424
:1037A000B09118048093110490931204A093130411
:1037B000B09314041092100406C080E0A9CF809149
:1037C00010048111DFCF812F0F900F900F900F9079
:1037D000DF91CF911F910F91FF90EF90DF90CF90ED
:1037E000BF90AF909F908F907F906F905F90089563
:1037F000FF920F931F93CF93DF93C62FD42F122FD7
:103800008823A9F0609380040E940E1B90938F017F
:1038100080938E01C77081E001C0880FCA95EAF7D6
:10382000DF91CF911F910F91FF900C940D16809115
:103830008004681334C080918E0190918F010E94A2
:103840001A1B883C910558F500E20D0FCD17A9F021
:10385000C770FF24F3948F2D01C0880FCA95EAF733
:103860000E941716083048F48D2F877001C0FF0C96
:103870008A95EAF78F2D0E940D16812F0E94EE1572
:103880000830A0F4D77081E001C0880FDA95EAF71C
:10389000DF91CF911F910F91FF900C941716C77075
:1038A00081E001C0880FCA95EAF7F2CFDF91CF918E
:1038B0001F910F91FF9008952F923F924F925F9228
:1038C0006F927F928F929F92AF92BF92CF92DF9230
:1038D000EF92FF920F931F93CF93DF93CDB7DEB795
:1038E00028970FB6F894DEBF0FBECDBF1C01DC01D8
:1038F0009C9111968C91119713962D913C91232BAD
:1039000029F089238F3F11F00C94822428960FB65A
:10391000F894DEBF0FBECDBFDF91CF911F910F9105
:10392000FF90EF90DF90CF90BF90AF909F908F90DF
:103930007F906F905F904F903F902F90089590E010
:1039400080E0EF3FF10519F010F00C94A024CF01B6
:103950000C94A024B885BB2309F4DDC2EF3FF10528
:10396000B9F1B0F1EA322DE5F20721F010927F04AF
:103970004F01B0C080917F0491E0892780937F043C
:1039800080918604877011F2F1018281882309F405
:10399000BDCF8091880482FDB9CF82E028960FB612
:1039A000F894DEBF0FBECDBFDF91CF911F910F9175
:1039B000FF90EF90DF90CF90BF90AF909F908F904F
:1039C0007F906F905F904F903F902F900C941819BC
:1039D0004F0180917F04882309F43BC110927F043A
:1039E00030EC8316910408F040C040E8841691043E
:1039F00008F0F9C08401005411090034110508F4DD
:103A0000BFC021E030E040E050E060E070E080E0E6
:103A100090E0082D0E94FD30E0915F042E2BE09194
:103A200060043E2BE09161044E2BE09162045E2B1A
:103A3000E09163046E2BE09164047E2BE0916504B9
:103A40008E2BE0916604E92B20935F043093600491
:103A50004093610450936204609363047093640420
:103A600080936504E093660435C021E030E040E0D7
:103A700050E060E070E080E090E08401005C1109BB
:103A80000E94FD30E09177042E2BE09178043E2BCC
:103A9000E09179044E2BE0917A045E2BE0917B0457
:103AA0006E2BE0917C047E2BE0917D048E2BE091C7
:103AB0007E04E92B209377043093780440937904B3
:103AC00050937A0460937B0470937C0480937D040C
:103AD000E0937E04C40182519F45409708F002C7DD
:103AE0008FEF93E00E9415341EEE180D37EC632E15
:103AF000712C811145CF111159C2809115019091FE
:103B00001601A0911701B091180189839A83AB83A4
:103B1000BC83882483942AE0522E83010F5F1F4FB9
:103B2000C3010E94153489831A82882309F428CF9F
:103B30009FEF980F933008F048C28A838982F2E0A1
:103B40006F0E711CC8010E9415348B83882309F401
:103B500017CF8E010F5F1F4FD8012C912223E9F25E
:103B600011969C911197213009F06BC212968C919D
:103B7000913009F02CC20E5F1F4F0E94EE152DC22E
:103B800021E030E040E050E060E070E080E090E074
:103B90000E94FD30E09167042E2BE09168043E2BDB
:103BA000E09169044E2BE0916A045E2BE0916B0476
:103BB0006E2BE0916C047E2BE0916D048E2BE091D6
:103BC0006E04E92B209367043093680440936904E2
:103BD00050936A0460936B0470936C0480936D043B
:103BE000E0936E0477CF21E030E040E050E060E009
:103BF00070E080E090E08401005811090E94FD30DF
:103C0000E0916F042E2BE09170043E2BE091710443
:103C10004E2BE09172045E2BE09173046E2BE091C9
:103C200074047E2BE09175048E2BE0917604E92BD1
:103C300020936F0430937004409371045093720486
:103C4000609373047093740480937504E093760416
:103C500041CF80E48816910408F070C040905F0462
:103C6000509060046090610470906204B0916304AD
:103C7000A0916404909165049E83209166042F8333
:103C800021E030E040E050E060E070E080E090E073
:103C9000082D0E94FD30A22EA420B32EB520C42EE4
:103CA000C620D52ED720E62EEB22FA2EF7220E8143
:103CB00008231F8119230E94163109F059CE84016F
:103CC00090EC8916910408F09BC0E0E88E169104F0
:103CD00008F0F2C0005411090034110508F4BFC007
:103CE00021E030E040E050E060E070E080E090E013
:103CF000082D0E94FD302095309540955095609597
:103D000070958095909524213521462157216B236C
:103D10007A23BE818B23EF819E2320935F0430930F
:103D20006004409361045093620460936304709351
:103D30006404809365049093660422CE30E8831671
:103D40009104F0F440906704509068046090690416
:103D500070906A04B0916B04A0916C0440916D0462
:103D60004E8380916E048F8321E030E040E050E08C
:103D700060E070E080E090E084010054110989CF98
:103D800090EC89169104F0F440906F045090700408
:103D90006090710470907204B0917304A0917404E7
:103DA000209175042E83309176043F8321E030E02A
:103DB00040E050E060E070E080E090E08401005876
:103DC000110967CF4090770450907804609079048F
:103DD00070907A04B0917B04A0917C0440917D04A2
:103DE0004E8380917E048F8321E030E040E050E0FC
:103DF00060E070E080E090E08401005C110949CF50
:103E0000005C110921E030E040E050E060E070E04B
:103E100080E090E00E94FD302095309540955095CF
:103E200060957095809590952421352146215721E4
:103E30006B237A23FE818F23AF819A23209377040B
:103E4000309378044093790450937A0460937B0410
:103E500070937C0480937D0490937E0491CD21E047
:103E600030E040E050E060E070E080E090E00E94F0
:103E7000FD302095309540955095609570958095D2
:103E8000909524213521462157216B237A23FE81E9
:103E90008F23AF819A232093670430936804409363
:103EA000690450936A0460936B0470936C0480936C
:103EB0006D0490936E0464CD0058110921E030E048
:103EC00040E050E060E070E080E090E00E94FD3073
:103ED000209530954095509560957095809590957A
:103EE00024213521462157216B237A23BE818B2340
:103EF000EF819E2320936F043093700440937104EC
:103F000050937204609373047093740480937504E7
:103F10009093760435CDEF3FF10511F008F068C5B8
:103F20004F0138C530E883169104A0F4A0906704CF
:103F3000B0906804C0906904D0906A04E0906B046B
:103F4000F0906C04B0916D0410916E0440E4841AFA
:103F5000910835C580EC88169104A0F4A0906F04F8
:103F6000B0907004C0907104D0907204E09073041B
:103F7000F0907404B09175041091760490E8891A59
:103F800091081DC5A0907704B0907804C090790482
:103F9000D0907A04E0907B04F0907C04B0917D0492
:103FA00010917E04A0EC8A1A910809C56114B4E04E
:103FB0007B0609F4E5CCC3010E941534811101C0D0
:103FC0001150EFEF6E1A7E0A96CD3801C2CD9230B5
:103FD00039F40E5F1F4F0E947A150F5F1F4FBCCD43
:103FE000933029F40E5F1F4F0E94C615F6CF943010
:103FF00019F00F5F1F4FF1CF0E5F1F4F20E030E031
:10400000B8016F5F7F4FF80141818053990B8A306F
:10401000910560F02115310501F38FE99FE00197CB
:10402000F1F700C0000021503109F4CF529EF00199
:10403000539EF00D11249C012E0F3F1F842F8B01E6
:10404000DFCFE22FF0E0E45EF74F9490822F869569
:104050008695869590E0FC01E45FF74FC490277049
:10406000D12C022E02C0D594C7940A94E2F7A1E0A5
:10407000CA22DD24FC01E450F84FA490B12C022E9A
:1040800002C0B594A7940A94E2F7B1E0AB22BB2436
:10409000FC01E451F84FE490F12C02C0F594E79450
:1040A0002A95E2F7E1E0EE22FF24C114D10419F0D1
:1040B00081EE0E947A15A114B10419F086EE0E94D7
:1040C0007A15892D0E94EE15AB2819F086EE0E9414
:1040D000C615CD2819F081EE0E94C615EF2809F407
:1040E0007CCF8CE24ACDF88581E0F11108C481E0F3
:1040F0000E940C190E94511943CC23EF82162CE523
:10410000920609F472C008F052C048ED84164CE5DE
:10411000940609F466C028E241E089ED88168CE532
:10412000980609F460C026E241EE61EE97ED89162B
:104130009CE5990609F451C0F885FF2309F464C48D
:104140001092800421E682162DE5920671F008F0A7
:1041500075C046E184164CE5940608F04EC082E036
:1041600088168CE5980608F45CC00E94671490934A
:10417000880480938704A6E18A16ACE59A0608F0C5
:10418000DBC0B2E08B16BCE59B0608F0C8C06091AE
:1041900087041091880484E090E00E942334612F0A
:1041A00082E290E00E9423340E942A16E9CBA5EF18
:1041B0008A16ACE59A06E9F027E245EE66EEB6EF20
:1041C0008B16BCE59B0649F027E245EE64EEE4EF72
:1041D0008E16ECE59E0609F0AFCF88850E94F81B8D
:1041E000CFCB27E245EE65EEF8CF26E241EE60EE5A
:1041F000F4CF26E241EE62EEF0CFC4018A5F9C4527
:10420000099708F4B2CFF6E18F16FCE59F0609F492
:1042100001C4BAE58B16BDE59B0609F473C108F02D
:104220004FC18114FCE59F0609F45FC12EED821693
:104230002CE5920649F40E945C19A2CB95EA8916F6
:104240009DE5990609F491CFD10112968C911297B0
:10425000ED90FC90882309F459C1C7010E94C11454
:10426000182F682FC7010E945D0EB701812F0E9491
:10427000B4140E941C0F8C01F101F280E580E294DD
:104280009FE0E922809186048770C1F0CF2CFF2047
:10429000B1F0812F807F803421F080E2800F883060
:1042A00068F08091880482FD09C082E00E9418199C
:1042B000809186048770CC24C3948111C12CD12EA7
:1042C000D2948FE0D822F8E0DF1609F422C2FD155F
:1042D00008F460C123E02D1508F41DC1812F807FF3
:1042E0001F7031E03D1508F069C1803211F0129560
:1042F000107F002309F498C1013009F4D2C1FF20D6
:1043000009F4DCC1EE2009F4D2C1D10115968C91DB
:10431000159780FF68C18F7015968C93C8C1F40102
:10432000E350FC45809187048160E331F10558F545
:10433000ED59FB4C0C94DD30E3E08E16EDE59E0666
:1043400080F4FAEF8F16FCE59F0608F420CFF40105
:10435000EB5FFC45E830F10528F5EA58FB4C0C947E
:10436000DD3021E682162DE5920609F498C0909181
:104370008704892F8E7F90FF816035EA83163DE5A3
:10438000930609F004CF8093870401CF80918704BE
:104390008260F9CF809187048460F5CF8091870493
:1043A0008860F1CF80918804816080938804EFCE8B
:1043B000809188048260F9CF809187048061E3CF87
:1043C000809187048062DFCF809187048064DBCF97
:1043D0000E942A16809187048068D5CF8091870437
:1043E0008C60D1CF809188048360DFCF8091870477
:1043F0008E7FC9CF809187048D7FC5CF8091870440
:104400008B7FC1CF80918704877FBDCF8091880447
:104410008E7FCBCF809188048D7FC7CF809187041A
:104420008F7EB1CF809187048F7DADCF809187043F
:104430008F7BA9CF0E942A16809187048F77A3CF04
:1044400080918704837F9FCF809188048C7FADCF3C
:104450008091870482FB992790F921E0922790FBB5
:1044600082F990FB83F98FCF80918804982F9095E3
:1044700091708E7F892B90FB81F997CF0E942A162D
:1044800090918704892F97FB87F980587CCF61E052
:104490008EE090E00E9423347ACE60E0F9CF9091D4
:1044A0008704892F8F7E94FF80616DCF8091810476
:1044B000811104C089E20E94BE0EBFC285E3FBCF1A
:1044C0003BE583163DE59306F9F04CE584164DE592
:1044D000940609F0B9CE8091880482FB882780F980
:1044E00091E089270E943419AFCE0E942A168FEFDF
:1044F00094E3ACE081509040A040E1F700C00000A0
:104500000E94531181E0EECF80E0ECCFC7010E9402
:104510008B0E182FAACE44E0D41609F4E0C0ED2D7E
:10452000E850FF0B349710F40E94BA10CC20B1F081
:104530008091860480FD12C0D10112961C9285954F
:10454000859585950E940119C1010E945C1C80918E
:1045500086048595859585950E940C1960E0C101BA
:1045600028960FB6F894DEBF0FBECDBFDF91CF9176
:104570001F910F91FF90EF90DF90CF90BF90AF9081
:104580009F908F907F906F905F904F903F902F9073
:104590000C94F01489E0D81609F42BC186E08D0D37
:1045A0008F70823008F0BBCF023F09F031C1812FFC
:1045B0008F71F1102AC10E940119B1CF882311F027
:1045C0001295107FFF20B9F0112369F080E2800F6F
:1045D000883010F0011109C080918204812B8093F2
:1045E00082040E943D15802F2FC080918904812B69
:1045F00080938904F6CF802F0E94C615112309F4F9
:104600008ECF80E2800F883010F0011104C0812F1E
:104610000E94CB0E06C0109580918904812380935F
:1046200089040E943D157BCF2091880422FF16C08B
:10463000FF2069F0112339F080918204812B80934F
:1046400082040E943D1580E00E947A1568CF80E0C8
:104650000E94C615112309F462CFD9CFFF20A1F023
:1046600090918304812F892BE11003C00E940D16C5
:1046700056CFA1E0EA12FACF22FD51CF891709F4F3
:104680004ECF809383044BCFE11006C00E94D30E1F
:10469000812F0E94171643CFB1E0EB1609F43FCFEC
:1046A000F5CFFF2031F0E2E0EE1508F438CF812F8E
:1046B000DDCFF1E0FE1508F432CFEACFEE2041F372
:1046C000093349F4BFEFE7EEF3E0B150E040F040CA
:1046D000E1F700C00000802F0E94C61520CF812F77
:1046E00086958695837061F0813009F018CFC801F6
:1046F0009370F11002C090E080E00E94DC100FCFB8
:10470000C8019370F11002C090E080E00E94C610D2
:1047100006CF812F8370A1F5F11001CF802F8295F4
:1047200086958770880F880F402F4F70082E01C024
:10473000440F0A94EAF7202F207104FF07C02FE0EE
:1047400030E001C0220F8A95EAF72095169516955C
:104750001370123081F0822F842B133031F080914E
:104760008404113029F0242B82230E94F918D7CE1B
:10477000842B822BFACF242B809184048227F5CFBF
:10478000FF2061F110FFCBCE802F82958695877038
:10479000880F880F402F4F70082E01C0440F0A94D5
:1047A000EAF7202F207104FF07C02FE030E001C09E
:1047B000220F8A95EAF720951695169513701230F8
:1047C00099F0822F842B133031F0809185041130C1
:1047D00041F0242B82230E94FD18A1CE11FF9FCE11
:1047E000D3CF842B822BF7CF242B80918504822773
:1047F000F2CF1F70FF2029F0812F0E940119802F16
:1048000035CF802F0E941716812F0E940C1987CE5A
:10481000033F60F4003FB9F0013F81F0FF2009F44D
:1048200051C0E110E0CE812F8F71C5CE033F09F159
:10483000043FA1F78091880482FF26C0812F8F71E9
:10484000FF2019F3B8CEFF2079F021E02E1508F4EF
:1048500066CE1F7181E090E001C0880F1A95EAF7DB
:10486000909185048927B7CF32E03E1508F457CEE2
:10487000F0CF80E0FF2009F4AECF1F7181E001C0CE
:10488000880F1A95EAF7A7CFFF2089F01F71812FB3
:104890000E9401198091880482FD07C048E0149F9E
:1048A000C0011124836080938604812F84CE81E02F
:1048B0000E94181981E08E1508F031CE82E00E9426
:1048C00018192DCEEE2059F0093309F004CF9FEFCF
:1048D000A7EEB3E09150A040B040E1F7FACE812FAF
:1048E0008F7193CFB0E18B16BFE59B0609F4FBCB2C
:1048F000E1E18E16EFE59E0609F0FFCB82E00E9413
:104900000119F8CB61E0C1010E94F014FC01D10152
:104910001296BC91B887BB2379F1CF0190568115CF
:10492000B0E29B0758F0905E811520E1920730F0CD
:10493000915C81159F4110F00C949F1CCF01992729
:104940009C01245031092432310518F08B970E97C1
:1049500098F480915E0490E0880F991F845D9B4FCE
:10496000DC012D913C912F3FBFE73B0729F02F5FE2
:104970003F4FDC012D933C93CF01815095458F3FF4
:10498000910510F00C94AA1C4F01B5E59B26A88553
:10499000A1111FC820E48216910408F0C3CAA09098
:1049A0005F04B0906004C0906104D0906204E09015
:1049B0006304F0906404B09165041091660421E0F2
:1049C00030E040E050E060E070E080E090E0082DF2
:1049D0000E94FD30A222B322C422D522E622F72271
:1049E000082F0B2319230E94163111F40C94C01CBC
:1049F000E0312FE5F20709F47ACB4F01E131FF45B1
:104A000009F07BCB82E074CBE6E18E16ECE59E06E6
:104A100009F01ACC80918204A885AA2309F446CD16
:104A20008A7A91E009F490E09093810469E281111F
:104A300065E386E891E00E94F2100E943D150C9417
:104A4000C01C1F93CF93DF938091C104807FA9F492
:104A50008091BE04882389F080918B04C0918A04E0
:104A60007091BC046091BD04A091BF04B091C004DA
:104A7000D62FD72316E0C81304C0DF91CF911F9122
:104A8000089590E0109711F0DF3F19F401968770B8
:104A9000F2CF189F9001199F300D1124F901E457AE
:104AA000FB4F41816413F2CF40814713EFCF428126
:104AB0004111ECCF438154814A1B5B0B483C5105AB
:104AC00028F78091C1048F7080618093C104F9013F
:104AD000EF56FB4F80818F70806180838CEB94E078
:104AE0000E945C1CDF91CF911F910C94B40E8F92A9
:104AF0009F92AF92BF92DF92EF92FF920F931F931C
:104B0000CF93DF93CDB7DEB72B970FB6F894DEBF08
:104B10000FBECDBF8C0185E0F801DE011796019034
:104B20000D928A95E1F7F801E280A380B4808CEBC6
:104B3000882E84E0982E9091BC048091BD04209131
:104B4000BF043091C0042115310529F0482F4923B5
:104B50004F3F09F028C1EE2009F433C1F8018081EC
:104B600091810E941D15F82E882309F42AC186E040
:104B7000F801ACEBB4E001900D928A95E1F70E9448
:104B8000212521C0D090C1044D2D407F283C310506
:104B900008F0A8C0F80121814111C3C0FE2C2813E0
:104BA00025C08081891322C0E11020C08D2D8F7017
:104BB00080618093C1048CEB94E00E945C1C809126
:104BC000C104F80185838F2D2B960FB6F894DEBFB4
:104BD0000FBECDBFDF91CF911F910F91FF90EF904E
:104BE000DF90BF90AF909F908F9008953F81AB284A
:104BF00029F0822F83238F3F09F090C080E0F82FA7
:104C0000F170DF2EE0918B0440918A0456E080FD24
:104C10001CC0EE20C1F28091C10481608093C10468
:104C2000F12CD1CF8E2F90E05E9FF0011124E4573C
:104C3000FB4F6181261306C06081361303C0628179
:104C4000E612E7CF0196E82FE770E413EBCF8F81F0
:104C500098850E940F15292F22952F70903260F0B1
:104C6000225F2F70223078F49F7051F0F801958107
:104C7000907F31F4D12C0AC09F7011F08823D1F3BA
:104C8000805E8830B8F3C8010E945C1CFD2C9BCF6D
:104C9000F801808191810E941D15882309F491C03B
:104CA000EE2009F48EC08091C104803270F08091B2
:104CB000BC049091BD049A8389831B82BD82AC821F
:104CC000DE82CE0101960E945C1C86E0F801ACEB0E
:104CD000B4E001900D928A95E1F70E942125FF240E
:104CE000F39471CF411132C08CEB94E00E945C1CB4
:104CF00086E0F40111928A95E9F792CFF80180815C
:104D000091810E941D158111E0CF8091C1048160C5
:104D10008093C104C8010E945C1C55CF81E08E25A0
:104D20006ECF2813B5CFF80180818913B1CFE11080
:104D3000AFCFD582C8010E945C1C86E0F801ACEBC5
:104D4000B4E001900D928A95E1F73DCFF801218101
:104D500082139ECFF801808189139ACFE11098CFFA
:104D6000D582C8010E945C1C86E0F40111928A95EC
:104D7000E9F729CFF80121818213C0CFF8018081A2
:104D80008913BCCF8091C10480FDD7CF982F907F2D
:104D9000A1F28583903F71F2982F907F905F8F7082
:104DA000892B8583C7CFF090BE04A501421B530B0E
:104DB0009A01F110E7CE283C3105B0F6FE2CE11047
:104DC000D9CFC8010E945C1C8ACF1F93CF93DF9379
:104DD000CDB7DEB767970FB6F894DEBF0FBECDBF75
:104DE000342F4B8B252F5C8B962F6D8B7E8B8F8B6F
:104DF0004E895F896111109289041A8A3D872E8736
:104E00009F87598B488B86E0FE013D96DE01179601
:104E100001900D928A95E1F7CE0107960E947725C1
:104E2000882389F016E080918B0490918A0489137D
:104E300049C067960FB6F894DEBF0FBECDBFDF91B5
:104E4000CF911F91089586E0FE013796DE011196FD
:104E500001900D928A95E1F79F81888520918A04BF
:104E600040918B046A857B85672BE1F289238F3F14
:104E7000C9F230E0C90101968770992748171906D1
:104E800071F40E942A1610928A0410928B0486E014
:104E9000ECEBF4E0DF011D928A95E9F7C3CF96E0D1
:104EA000929FD001939FB00D1124A457BB4FFE01D8
:104EB000319601900D929A95E1F780938A040E94B1
:104EC000B40EB0CF819FC001112484579B4F0E9424
:104ED0007725882309F4ADCF80918B0490E001966B
:104EE0008770992780938B049ECFCDB7DEB7A897A4
:104EF0000FB6F894DEBF0FBECDBF84B7877F84BFE7
:104F00000FB6F894A8958091600088618093600046
:104F1000109260000FBE80E890E00FB6F894809386
:104F20006100909361000FBE85B7806885BF85B72B
:104F3000806885BF8FE990E190938501809384011B
:104F40000E9413120E940D138091E20084608093EE
:104F5000E200789480910D04882399F08091E90013
:104F60001091EC001795112717958F70182B109240
:104F7000E9008091E80083FD0E9435161F701093B0
:104F8000E90082E084BD93E095BD9AEF97BD8093E0
:104F90006E000E947514811102C00E94581484EFA3
:104FA0000E94A11085EF0E94A11086EF0E94A1101F
:104FB00087EF0E94A11001E511E056E5E52E51E0D2
:104FC000F52ED8018D918D018F3F11F00E94A11017
:104FD000E016F106B1F784E0E1E1F4E0DF01282F0B
:104FE0001D922A95E9F7E5E1F4E0DF011D928A952B
:104FF000E9F790E080E00E941D34893E9E4F21F445
:105000000E947514811102C00E945C1982E090E038
:105010000E9415348093B8010E946714909388040D
:10502000809387040E94291BEFE3FCE93197F1F795
:1050300000C000000E94291B8091110480FF08C05D
:105040006FEF7FEF90E080E00E9441340E945311A7
:1050500083E090E00E9415340E94F9181092020437
:1050600080E88093CF010E94582F6DE070E082EDC0
:1050700097E00E94751A892B09F043C080910204C1
:1050800063E070E081FDF5C28FEC97E00E94751A35
:10509000892BB9F56DE070E08FEB97E00E94751AEF
:1050A000892B79F50E940C1169A37AA38BA39CA389
:1050B000DC01CB01805A9541AF4FBF4F809306046E
:1050C00090930704A0930804B0930904E2E0F2E08F
:1050D00080E092E0DF019C011D9221503040E1F719
:1050E000F093CE01E093CD018FEF9FEF90930504F5
:1050F0008093040481E080930B0480930A0410924F
:10510000030465E471E041E451E0A3E4B1E021E08F
:1051100030E08D91E82FE295EF70F0E091A18F7073
:10512000890101C0000F8A95EAF7802F80958923B5
:1051300081A382A1802B82A3FA018191AF01E82F84
:10514000E295EF70F0E091A18F70890101C0000F2E
:105150008A95EAF7802F8095892381A382A1802BED
:1051600082A36A177B07A9F68FE891E00197F1F710
:1051700000C0000093B183B182958170880F95FBC8
:10518000992790F9892B8093CB0189B19CB196FB2B
:10519000992790F9990F881F8827881F892B80935A
:1051A000CC0181E091E090931A04809319048091DE
:1051B0000D0400E112E1853009F498C20E94291B18
:1051C000282E81110E940C11A1E1B4E0E9EBF1E07D
:1051D00010E000E0302F8D919191981709F495C25D
:1051E000292F282790E0FF24F394422F4F2109F420
:1051F00087C299833A838F2191E009F490E09B83E1
:105200000E940E1B8160782F9D838C8349815A8177
:105210006B81892F0E94E526F801E754FE4F8081BB
:105220008F25808380902C0490902D04092C000CF5
:10523000AA08BB0810910D01212F30E0ECE2F4E048
:1052400081E090E03296281739070CF075C2809102
:10525000C3019091C401A091C501B091C601BC01E8
:10526000CD010E942C116B017C0199ECC916D1046F
:10527000E104F10414F180915E0490E0019669E18B
:1052800070E00E94883080935E04880F991FFC01B3
:10529000E45DFB4F11821082812F183108F087E105
:1052A0008F5F80930D010E940C116093C301709376
:1052B000C4018093C5019093C601A2E08A169104AF
:1052C000A104B1040CF444C2A0E6BAEEA501940115
:1052D0000E94EA3069A37AA38BA39CA3B8EC1B9F1E
:1052E00090011124032E000C440B550B2C0D3D1D79
:1052F0004E1D5F1DA5E0B0E00E94EA306DA37EA3C5
:105300008FA398A769A17AA18BA19CA12DA13EA1F1
:105310004FA158A50E949C3069017A01E1EFCE1699
:10532000D104E104F10414F030EFC32E2091BF0149
:105330003091C0014091C1015091C201CA01B9012F
:105340000E942C114B015C0135E683169104A104E7
:10535000B10484F00E940C116093BF017093C001EE
:105360008093C1019093C2018091C2048093BE01D9
:10537000C092BD011091BE01A091BD01A11BBB0B4C
:10538000A50194010E94F53069A37AA38BA39CA385
:1053900024E630E040E050E00E94BE30120F10934F
:1053A000C2041BECA12E11E0B12E09ECC02E01E0CD
:1053B000D02E07EC11E081E4482E81E0582E93E4D2
:1053C000692E91E0792E19A2312C24E0822E912CA5
:1053D000D501ED915D01D3014D913D01A42FA29521
:1053E000AF70A05EB0E02C91D2013D912D01A32FB2
:1053F000A295AF70A05EB0E08C9190E03F7002C0CB
:10540000959587953A95E2F7880F991F82709927AD
:1054100030E04F7002C0359527954A95E2F721702C
:105420003327822BEE0FEE0FE82BD5011197EC936B
:10543000D6018D916D01EF70F0E0EF5CFE4F908131
:10544000890FFD0182937F0120E084305CF0D80158
:105450008C918F5F8C93B9A18BEAB11189EA0E947C
:10546000EE1521E0F70180818D3F5CF4D8018C912D
:1054700081508C93B9A18CEAB1118AEA0E94EE1591
:1054800021E0F7018081082E000C990BB4010E94E5
:1054900088308083322A0F5F1F4FF9A1F13009F065
:1054A00059C131100E940C1180910B04882309F41A
:1054B000ABC082E092E09093CE018093CD018091C9
:1054C000C204882309F449C10E94B71A2091D4016B
:1054D0003091D5014091D6015091D701CA01B9014F
:1054E0000E942C1169A37AA38BA39CA3693C71052C
:1054F0008105910560F00E940C116093D4017093B6
:10550000D5018093D6019093D7010E94A1120E94E9
:105510000C116093D0017093D1018093D2019093CC
:10552000D30182E092E09093CE018093CD018091EF
:10553000C2041F928F9389E191E09F938F9308EDAE
:1055400011E01F930F930E947B31D8010D90002032
:10555000E9F78D01015011090F900F900F900F90F6
:105560000F900F90A8EDEA2EA1E0FA2EE016F106BA
:1055700008F42EC10E94BA102091CF0130E02E5FB6
:105580003D4F3093CE012093CD010FED17E081FF09
:1055900002C007EE17E0F801849181111FC18091CC
:1055A0000B04882371F02091040430910504211527
:1055B000310539F08091030461E070E0882309F43B
:1055C00013C180910A048823F9F00E940C1169A389
:1055D0007AA38BA39CA38091060490910704A091C9
:1055E0000804B091090429A13AA14BA15CA1281B90
:1055F000390B4A0B5B0BDA01C9018F3F9F4FAF4F4D
:10560000BF4710F40E94A41A211001C031100E945B
:10561000B71A0E94BA1090910C04891380930C045D
:1056200080910D04843009F0C2CD83E08093E900BD
:105630008091E80082FFBBCD8091E80090E085FF7B
:1056400006C00E94E211882309F494C191E0809180
:10565000E8008B778093E800992309F4A8CDE981CD
:10566000E150E33108F0FFC1F0E0E258FB4C0C944C
:10567000DD308CEC97E00ACD80910D04843031F15F
:105680000E94A41A1092B601A8E1B0E0E0E40FB6BF
:10569000F894A895A09360000FBEE093600083B7D4
:1056A000817F846083BF83B7816083BF789488954E
:1056B00083B78E7F83BF0FB6F894A8958091600062
:1056C000886180936000109260000FBE8091B701E6
:1056D000882361F00E94291BE1E1F4E081918111AE
:1056E00084C225E134E02E173F07C1F780910D04F5
:1056F000853009F4C1CF0E942A160E94BA105ECDEF
:105700009F5FFF0C953009F070CD0F5F1F4F043085
:10571000110509F05FCD8FEF89838A831B820E9478
:105720000E1B8160782F9D838C8349815A816B8108
:10573000892F0E94E52676CD40815181052E000CEF
:10574000660B770B840E951EA61EB71E01967ACDAA
:10575000C12CECCD41E049A33BCE8091D00190918A
:10576000D101A091D201B091D301BC01CD010E9421
:105770002C1169A37AA38BA39CA361367A4E810571
:10578000910518F00E94A41ACCCE2091D40130913A
:10579000D5014091D6015091D701CA01B9010E94AB
:1057A0002C1169A37AA38BA39CA3693C7105810585
:1057B000910508F4B6CE0E940C116093D401709349
:1057C000D5018093D6019093D7010E94A112A9CE52
:1057D000F70181917F010E94C619C8CE0E94C619A7
:1057E0000F5F1F4FD8CE8F5F082F10E03B01082EB0
:1057F00002C0660C771C0A94E2F7A90146215721E2
:10580000452B89F320910204922F917020FD44C012
:10581000980136952795369527958295880F80763D
:105820003FE1380F80931001209313013093110151
:105830009093140124E630E047E050E06EE071E020
:1058400088E70E940630892B09F0BBCEA801E5E06D
:10585000440F551FEA95E1F78091020480FD24C0B2
:105860004E5F5D4F04E610E020E230E060E488E740
:105870000E943330892B09F0A4CE0E94B71A60949D
:10588000709480910404909105048621972190934F
:1058900005048093040495CE880F880F880F37E0A5
:1058A000380F20E093E0BECFE2EEF1E080E2DF01CE
:1058B0001D928A95E9F7E9E4F1E0FAA3E9A305E48A
:1058C00011E07DE4872E71E0972EBB24B394A9A14B
:1058D000BAA16D91BAA3A9A3F80181918F01840F98
:1058E000952F911D9C012E5F3D4F2901E62FF0E081
:1058F000EE51FE4F30E020E067E0C62EC21ADB2CEE
:10590000022E01C0DD0C0A94EAF7720190E0D70183
:105910008D917D018D216C2D691B6770A62E062E41
:10592000000C770BB82F01C0BB0FAA94EAF7719552
:10593000619571096770772701C086956A95EAF7C6
:105940008B2B6081862B80839F5F983001F72F5FC0
:105950003F4F31962830310579F6E9A1FAA18E162C
:105960009F0609F0B4CF04E610E020E230E042EEFA
:1059700051E07CCF00E210E0AE014F5F5F4F7A0153
:105980008091E80085FD0AC08091E8008B778093C4
:10599000E8000E94E211882399F358CE8091F1002B
:1059A000D7018D937D010150110951F74FCE1A8215
:1059B00089E08B8311C08A81823009F42CC1833045
:1059C00089F1813009F04FC00E940C110E94E33030
:1059D0006B837C838D839E8380910D04843009F0DA
:1059E000E6CB8091E9001091EC00179511271795EF
:1059F0008F70182B82E08093E9008091E80080FF8F
:105A00000DC050E040E060E270E0CE0101960E94DF
:105A100032128091E8008E778093E8001F70109317
:105A2000E900C5CB809111048B83809112048C8393
:105A3000809113048D83809114048E83CDCF8A814D
:105A4000823089F42B813C814D815E8129A33AA368
:105A50004BA35CA3CA01B9010E94E33086E290E047
:105A60000E942334B9CF8FEF8983B6CF4C816B81ED
:105A70008A810E948E149827892798279E838D8378
:105A8000ABCFED80FE80FE24EF24FE248A810B81C3
:105A90003AE0039F8001112448E2849F000D111D0C
:105AA00011248C8190E0880F991F080F191F6F2D0A
:105AB000C80187960E9423346E2DC8018896D0CFE6
:105AC0000E94D01389CF80E18A8386CF83E08A83C6
:105AD00089E36FCFCA80DB80DC24CD24DC248C8179
