:100000000C9493060C947E270C94B0060C94B006C6
:100010000C94B0060C94B0060C94B0060C94B00688
:100020000C94B0060C94B0060C94672D0C943B2EE7
:100030000C94FD250C94B0060C94B0060C94B006FC
:100040000C94B0060C94B0060C94B0060C94B00658
:100050000C94B0060C94A0260C94B0060C94B00638
:100060000C94B0060C94B0060C94B0060C94B00638
:100070000C94B0060C94B0060C94B0060C94B00628
:100080000C94B0060C94B0060C94B0060C94B00618
:100090000C94B0060C94B0060C94B0060C94B00608
:1000A0000C94B0060C94B0060C94B0062900140011
:1000B0001A0008001500170000002B0004001600AD
:1000C000070009000A000000E1001D001B000600F7
:1000D000190005000000E000E200E30021522C417D
:1000E000000000001C0018000C00120013004C005F
:1000F0002A000B000D000E000F0034000000280045
:10010000110000001000360037003800E5002A42D8
:1001100000000000E700E6002252E40035001E0067
:100120001F002000210022000000017C2378257898
:100130002778A9002F0000002178247826782878D5
:10014000AA002F0200002078010001000100010038
:1001500000000000230024002500260027002D00B9
:100160002E00300021002200230033000000010097
:10017000300200001E001F002000520001004C0051
:10018000000000002700500051004F0035021E0201
:100190001F022002210222020000010001000100D2
:1001A00049004B004A0000000100010001004C0022
:1001B0004E004D00000001000100010001004C0054
:1001C00000000000230224022502260227022D023D
:1001D0002E020100010001000100330200000100B5
:1001E0000100000001000100010001000100010008
:1001F00000000000010001000100010044454255DB
:10020000473A2064697361626C65642E0A00444554
:100210004255473A20656E61626C65642E0A000A99
:100220000025303258006C65645F7461736B3A204E
:10023000004F6E6573686F743A2061637469766508
:100240003A2025640A000A0025303862003A20006E
:1002500025303258000A722F632030313233343562
:1002600036370A0054617267657420636F6E6E657D
:10027000637465640D0A0054617267657420646973
:1002800073636F6E6E65637465642C207468726F3F
:1002900074746C696E6720636F6E6E656374696FEA
:1002A0006E20617474656D7074730D0A0046616927
:1002B0006C656420746F20657865637574652025AE
:1002C000730A007267626C696768742073657420D2
:1002D000687376205B4E4F454550524F4D5D3A2036
:1002E00025752C25752C25750A007267626C696767
:1002F00068742073657420687376205B454550529E
:100300004F4D5D3A2025752C25752C25750A0072F8
:1003100067626C696768742064697361626C6520E8
:100320005B4E4F454550524F4D5D3A207267626CAF
:10033000696768745F636F6E6669672E656E616278
:100340006C65203D2025750A007267626C696768DC
:10035000742064697361626C65205B454550524F3F
:100360004D5D3A207267626C696768745F636F6E97
:100370006669672E656E61626C65203D2025750A91
:10038000007267626C6967687420656E61626C6593
:10039000205B454550524F4D5D3A207267626C6953
:1003A0006768745F636F6E6669672E656E61626C05
:1003B00065203D2025750A007267626C6967687464
:1003C00020746F67676C65205B454550524F4D5DEB
:1003D0003A207267626C696768745F636F6E666902
:1003E000672E656E61626C65203D2025750A00727E
:1003F00067626C69676874206D6F6465205B4E4F3F
:10040000454550524F4D5D3A2025750A007267628E
:100410006C69676874206D6F6465205B4545505258
:100420004F4D5D3A2025750A007267626C696768F6
:10043000745F696E6974207267626C696768745F63
:10044000636F6E6669672E6D6F6465203D20302E88
:100450002057726974652064656661756C742076D6
:10046000616C75657320746F20454550524F4D2E59
:100470000A007267626C696768745F696E697420EC
:100480006565636F6E666967206973206E6F74209F
:10049000656E61626C65642E0A007267626C6967E2
:1004A00068745F696E6974207374617274210A00E4
:1004B0007267626C696768745F696E6974206361F2
:1004C0006C6C65642E0A007267626C696768745FA1
:1004D000636F6E6669672E7370656564203D2025C5
:1004E000640A007267626C696768745F636F6E6646
:1004F00069672E76616C203D2025640A0072676270
:100500006C696768745F636F6E6669672E73617488
:10051000203D2025640A007267626C696768745F19
:10052000636F6E6669672E687565203D2025640AD5
:10053000007267686C696768745F636F6E6669678D
:100540002E6D6F6465203D2025640A007267626C21
:10055000696768745F636F6E6669672E76656C6F36
:1005600063696B6579203D2025640A007267626CBF
:10057000696768745F636F6E6669672E656E616236
:100580006C65203D2025640A007267626C696768AB
:10059000745F636F6E66696720454550524F4D3AF0
:1005A0000A00000101010101010101010202020230
:1005B000020202020203030303030303030404040D
:1005C00004040404050505050506060606060707D6
:1005D00007070708080808090909090A0A0A0B0B8E
:1005E0000B0C0C0C0D0D0D0E0E0E0F0F0F1010112D
:1005F00011111212131314141515161617171818B3
:1006000019191A1A1B1B1C1D1D1E1E1F202021221A
:1006100022232424252626272829292A2B2C2D2D60
:100620002E2F30313232333435363738393A3B3C7D
:100630003D3E3F404142434445464748494A4C4D70
:100640004E4F50515354555658595A5B5D5E5F6139
:100650006264656668696B6C6D6F707273757778CC
:100660007A7B7D7E8082838587888A8C8E8F91932A
:100670009596989A9C9EA0A2A3A5A7A9ABADAFB151
:10068000B3B5B7BABCBEC0C2C4C6C9CBCDCFD1D436
:10069000D6D8DBDDDFE2E4E7E9EBEEF0F3F5F8FADC
:1006A000FDFF3F00433E20004C25640A000A092D4F
:1006B00020537461747573202D0A686F73745F6BB7
:1006C0006579626F6172645F6C65647328293A2092
:1006D000253032580A6B6579626F6172645F70729F
:1006E0006F746F636F6C3A20253032580A6B6579EE
:1006F000626F6172645F69646C653A2025303258BC
:100700000A6B65796D61705F636F6E6669672E6EE7
:100710006B726F3A20253032580A74696D65725FCA
:1007200072656164333228293A202530386C580AC2
:10073000002573000A092D20436F6E736F6C6520CE
:100740002D0A4553432F713A09717569740A000ADD
:10075000092D204D61676963202D0A443A094465DB
:10076000627567204D65737361676520546F6767B5
:100770006C650A583A094D61747269782044656263
:100780007567204D6F646520546F67676C65202D19
:100790002053686F77206B6579707265737365732A
:1007A00020696E206D617472697820677269640ACD
:1007B0004B3A094B6579626F6172642044656275DA
:1007C0006720546F67676C65202D2053686F772012
:1007D0006B65797072657373207265706F72740ADD
:1007E0004D3A094465627567204D6F7573652054F5
:1007F0006F67676C650A563A0956657273696F6E62
:100800000A533A095374617475730A433A09416390
:1008100074697661746520436F6E736F6C65204DEB
:100820006F64650A46312D4631303A095377697451
:10083000636820746F204C6179657220302D3920F7
:1008400028463130203D204C30290A302D393A09D4
:1008500053776974636820746F204C6179657220E6
:10086000302D390A47524156453A09537769746326
:100870006820746F204C6179657220302028616C8B
:100880007465726E617465290A423A094A756D7021
:1008900020746F20426F6F746C6F616465720A45DB
:1008A00053433A094A756D7020746F20426F6F741C
:1008B0006C6F616465722028616C7465726E61741E
:1008C00065290A453A095072696E742045455052AF
:1008D0004F4D2053657474696E67730A4241434BF0
:1008E00053504143453A09436C6561722045455078
:1008F000524F4D0A4E3A094E4B524F20546F676784
:100900006C650A006B65796D61705F636F6E666917
:10091000672E7261773A20253032580A2E7377613C
:10092000705F636F6E74726F6C5F636170736C6F16
:10093000636B3A2025750A2E636170736C6F636B6D
:100940005F746F5F636F6E74726F6C3A2025750A07
:100950002E737761705F6C63746C5F6C6775693A56
:100960002025750A2E737761705F7263746C5F72F5
:100970006775693A2025750A2E737761705F6C611F
:100980006C745F6C6775693A2025750A2E73776100
:10099000705F72616C745F726775693A2025750AC1
:1009A0002E6E6F5F6775693A2025750A2E73776121
:1009B000705F67726176655F6573633A2025750ABB
:1009C0002E737761705F6261636B736C6173685FD4
:1009D0006261636B73706163653A2025750A2E6EE0
:1009E0006B726F3A2025750A2E737761705F65739D
:1009F000636170655F636170736C6F636B3A202530
:100A0000750A0064656275675F636F6E6669672E5D
:100A10007261773A20253032580A2E656E61626C19
:100A2000653A2025750A2E6D61747269783A202521
:100A3000750A2E6B6579626F6172643A2025750ABA
:100A40002E6D6F7573653A2025750A006565636FB5
:100A50006E6669673A0A64656661756C745F6C619D
:100A60007965723A2025750A003F004E4B524F3A85
:100A7000206F66660A004E4B524F3A206F6E0A0096
:100A80000A6D6F7573653A206F66660A000A6D6FAE
:100A90007573653A206F6E0A000A6B6579626F6143
:100AA00072643A206F66660A000A6B6579626F614C
:100AB00072643A206F6E0A000A6D61747269783A46
:100AC000206F66660A000A6D61747269783A206F59
:100AD0006E0A000A64656275673A206F66660A00EE
:100AE0000A64656275673A206F6E0A000A0A4A75E1
:100AF0006D70696E6720746F20626F6F746C6F61C8
:100B00006465722E2E2E2000433E2000436C6561EA
:100B100072696E6720454550524F4D0A000A002504
:100B200030325820006E6B726F5F7265706F727436
:100B30003A2025303258207C20000A0025303258D7
:100B400020006B6579626F6172645F7265706F72AD
:100B5000743A2025303258207C200064656C5F6B2D
:100B600065795F6269743A2063616E2774206465F9
:100B70006C3A20253032580A006164645F6B6579F5
:100B80005F6269743A2063616E2774206164643A1D
:100B900020253032580A0073757370656E64696E73
:100BA00067206B6579626F6172640D0A005B575D47
:100BB000005B535D005B525D005B445D005B435D29
:100BC00000100346006F0075007200690065007236
:100BD0000000000C034B00450045004200440000AB
:100BE000000403090409025B00030100A0FA0904E0
:100BF000000001030101000921110100012244004C
:100C00000705810308000109040100010300000039
:100C1000092111010001226D000705820320000156
:100C20000904020002030000000921110100012251
:100C300022000705830320000107050303200001AC
:100C4000120100020000000810CB4712010001024F
:100C500000010631FF0974A1010975150026FF0086
:100C60009520750881020976150026FF00952075EC
:100C7000089102C005010980A101850319012AB765
:100C800000150126B700950175108100C0050C09FB
:100C900001A101850419012AA002150126A00295CF
:100CA0000175108100C005010906A101850605072F
:100CB00019E029E71500250195087501810205074E
:100CC000190029EF1500250195F07501810205082D
:100CD0001901290595057501910295017503910189
:100CE000C005010906A101050719E029E71500253E
:100CF00001950875018102950175088101050719A3
:100D00000029FF150026FF009506750881000508DB
:100D10001901290515002501950575019102950117
:100D200075039101C00011241FBECFEFDAE0DEBFD2
:100D3000CDBF12E0A0E0B1E0E2E1F3E602C0059031
:100D40000D92AE39B107D9F724E0AEE9B2E001C0A7
:100D50001D92AA31B207E1F70E94CD1A0C94F4302B
:100D60000C940000FF93EF93E0919E02F0919F029C
:100D7000309709F00995EF91FF910895FC01859155
:100D8000803011F0EFDFFBCF0895FF27E0E230E283
:100D900047FF0CC0419597FF09C0EDE26095709543
:100DA00080959095611D711D811D911D27FF02C0C9
:100DB000219530E350E2AA27660F771F881F991FFD
:100DC000AA1FA41710F0A41B63955A95A9F7AA307F
:100DD00008F0A95FA05DAF93F395611571058105DA
:100DE000910541F7ED3211F4EF93F395F21718F4F2
:100DF0003F93F395FBCF8F91B5DFFA95E1F7089517
:100E0000E991F9918591803021F0853219F0AADFBE
:100E1000F9CF089520E0E89455915532C1F350334D
:100E200011F4689455915A3348F4505390F3220FBB
:100E3000022E220F220F200D250FF4CF0EF4219544
:100E400089919991533619F3533729F1533559F153
:100E5000BC0188279927E8945C3621F489919991FF
:100E600068945591543639F446EF7EF077FF0DC003
:100E70008FEF9FEF0AC055374AE039F0583540E10F
:100E800021F0523642E009F00895FF93EF937DDFA1
:100E9000EF91FF91B7CFFF93EF93FC0181918030E9
:100EA000B9F360DFFBCFFF93EF9368DFF1CFDF9300
:100EB000CF93CDB7DEB72596A3DFCF91DF9108950D
:100EC0008330B8F46830A8F4473098F450E097E0E5
:100ED000699F400D511D1124FA0198E3899FE00D8F
:100EE000F11D1124EE0FFF1FE455FF4F85919491E2
:100EF000089581E090E008950E946007089581E0E0
:100F000008950E947F07089581E008950E947F0759
:100F100008950E948607089508950E948C070895F9
:100F2000A6E0B0E0E6E9F7E00C94283049835A8364
:100F30009E833091A50289819A8131111AC03E8128
:100F4000332399F0222389F00E94CD0D182F682FAA
:100F500089819A810E94A90D69817A81812F0E94DD
:100F6000D6142696E3E00C9444300E94BB0D182F53
:100F7000F3CF0E94CD0D69817A81F1CFFC01262F3C
:100F80004081518162817381848195810E949007A3
:100F90000895CF93DF93EC0161E00E94BE07BE018C
:100FA0000E948107DF91CF910895CF93DF93EC01E9
:100FB00060E00E94BE07BE010E948D07DF91CF91C5
:100FC000089581E008950E94E1070895CF93C82F06
:100FD0000E947E0C8C2F0E94E3072FEF84E39CE09D
:100FE000215080409040E1F700C00000CF9108956B
:100FF00081E00E94E6070E94C426089580E00E94D6
:10100000E6070E94D52608950F931F93CF93DF9391
:101010008C0161E00E94BE07EC01F801858181111D
:101020000E94A31FB801CE010E948907811106C04A
:1010300080E0DF91CF911F910F910895B801CE010B
:101040000E9462238823A1F3B801CE010E942222CC
:10105000882371F3B801CE010E94F821882341F35F
:10106000B801CE010E94AB1F882311F3F8018581DE
:10107000882369F0C330FCE7DF0781F160F4C130F9
:10108000ECE7DE0769F1C0F4C115DC4791F0C80157
:101090000E948407CECFCB35ECE7DE0739F1CC35A3
:1010A000FCE7DF0701F1CA35DC4789F70E94271208
:1010B000EECF0E94F807BCCF90916E03892F8E7FF0
:1010C00090FF816080936E0380FF05C08EE092E008
:1010D0000E94BE06ADCF8CEF91E0FACF0E942F1296
:1010E0000E94FE07A5CF0E941D12D1CF0E942B1295
:1010F000CECF0E94DA250E94B80808950E94BC084D
:101100000E94DF250895829590E09C01220F331FF5
:10111000220F331F2C7C9595879595958795837322
:10112000282B30E0C901880F991F8A7A35952795B9
:101130002575822B0895089581E008950895CF9331
:10114000DF93D82F0E949C08C82F882319F08D2F79
:101150000E949E088C2FDF91CF9108950895CF9320
:10116000C82F0E949B088C2F0E949F08CF91089542
:1011700080E00E94AF0808950E94AB230E94AF0850
:101180000895CF930E94AB23C82F8091A0028C17A3
:1011900089F1C093A0020E9469266093A102709316
:1011A000A2028093A3029093A40280916E0382FF17
:1011B0001EC080FF1CC086E292E00E94BE068091A5
:1011C0006E0380FF14C01F92CF9381E292E09F9341
:1011D0008F930E94570780916E030F900F900F908E
:1011E0000F9080FF04C08FE192E00E94BE068C2F1A
:1011F0000E94AF08CF910895ADE0B0E0E2E0F9E0E1
:101200000C942930488759876A877B878C879D870C
:1012100091110E941A111F8286E0FE013896DE01AC
:10122000119601900D928A95E1F78D8181110DC083
:1012300029813A814B815C816D817E818F810E9401
:1012400064102D96E2E00C944530CE0101960E9488
:10125000C9078111EDCFF5CFFC012481213021F4A4
:10126000808191810E94FF0D0895CF93C82F88231C
:10127000C9F08238C9F40E94BF2381FD13C089E3FD
:101280000E9470250E94AE112FEF87EE93E021504F
:1012900080409040E1F700C0000089E30E9487256C
:1012A0000E94AE11CF9108958338A1F40E94BF230C
:1012B00080FDF8CF83E50E9470250E94AE112FEFCC
:1012C00081EE94E0215080409040E1F700C00000A2
:1012D00083E5E4CF8438A1F40E94BF2382FDE2CFEE
:1012E00087E40E9470250E94AE112FEF81EE94E0FA
:1012F000215080409040E1F700C0000087E4CECF4D
:101300008CEF8C0F813A98F48C2F0E949D218111D3
:10131000C9CF8C2F0E94C524882329F08C2F0E94CE
:1013200087250E94AE118C2F0E947025B9CF80E2D4
:101330008C0F883048F4C77081E001C0880FCA95CF
:10134000EAF70E94FD10ACCFEBE5EC0FE33040F480
:10135000F0E0E559FE4F808190E00E945924A2CF31
:10136000C85ACB3108F09ECFEC2FF0E0EE0FFF1FF4
:10137000EB5CFE4F808191810E947E2493CF882375
:1013800009F44DC0823879F40E94BF2381FF47C021
:1013900089E30E9470250E94AE1189E30E9487258F
:1013A0000E94AE110895833859F40E94BF2380FF34
:1013B00036C083E50E9470250E94AE1183E5EECF12
:1013C000843859F40E94BF2382FF29C087E40E9419
:1013D00070250E94AE1187E4E1CF9CEF980F913AFF
:1013E000E8F290E2980F983050F4877091E001C0D5
:1013F000990F8A95EAF7892F0E940311D1CF9BE5B7
:10140000980F933028F490E080E00E9459240895CA
:10141000885A8B3120F490E080E00E947E24089569
:101420001F93CF93DF93182FEB010E94350920976C
:1014300039F4812F0E94BF09DF91CF911F91089548
:101440008FE99FE00197F1F700C000002197EFCFEF
:1014500070E060E0893311F460E570E00E94100AEA
:101460000895882321F00E94FD100E94AE11089576
:10147000882321F00E9403110E94AE110895B0E06C
:10148000A0E0E5E4FAE00C9422306C01D62FC72FDF
:10149000FC011581068102950F700E94F310E82E61
:1014A0008823F9F0E12E1123E1F08C2F807F803426
:1014B00061F080E28D0F883008F18C2F807E8032C1
:1014C00021F4D230D8F00023C9F08091C40382FF08
:1014D00015C082E00E94DE110E94F31091E0E82E18
:1014E000E926BC2EB2949FE0B922FBE0FB15B8F1CF
:1014F000EB2DF0E0EA50FF4C0C941330E12CF1CFCF
:101500000C2F0F70C07F11F00295007F112399F00E
:10151000002359F080E28D0F883010F0D11107C000
:10152000802F0E94FD100E94AE118D2F5AC0802F77
:101530000E940D11F8CF8D2F0E94BF09002379F072
:1015400080E28D0F883010F0D11104C0802F0E94EE
:10155000031103C0802F0E9413110E94AE11EB2DC6
:10156000E850FF0B349720F40E94AB230E94AF0891
:10157000EE2089F00E94EF1080FD0DC0F60115826B
:101580000E94E9100E94070DC6010E94490C0E94AA
:10159000E9100E94170DCDB7DEB7E9E00C943E309C
:1015A0002C2F2F70F22EC07FC03219F0F29480EFF2
:1015B000F822DD2341F0D130D1F1112309F444C0E8
:1015C0000023F1F0B2CF8091C40382FD15C0112336
:1015D00059F0FF2029F08F2D0E94FD100E94AE11BE
:1015E00080E00E943509BBCF80E00E94BF09FF2048
:1015F00009F4B5CF8F2DABCF112369F0011104C0D1
:101600008F2D0E94310AABCF013009F0A8CF8F2D6A
:101610000E943111A4CF0111A2CF8F2D0E94380A50
:101620008F2D0E943D118F2D0E94211198CF1123E3
:1016300021F0063008F093CFE3CF053008F08FCFCC
:101640008F2D0E94380A8BCF0023D1F3D93349F470
:101650003FEF87EE93E0315080409040E1F700C0CB
:1016600000008D2F0E94BF097ACF8C2F869586951A
:10167000837069F0813009F072CF8D2F9C2F9370A9
:10168000111102C080E090E00E947E2468CF8D2F6F
:101690009C2F9370111102C080E090E00E945924A9
:1016A0005ECF8C2F8370A1F5111159CF4D2F42952C
:1016B00046954770440F440F2D2F2F7030E0042EB5
:1016C00002C0220F331F0A94E2F790E080E0D4FFBB
:1016D00009C08FE090E002C0880F991F4A95E2F799
:1016E00080959095C695C695C370822B932BC2307A
:1016F00049F058F4C13019F00E94D70C30CF0E9445
:10170000CE0C2DCF0E94E00C2ACF0E94CB0C27CF0D
:101710008695112311F08C2F8170882309F41FCF37
:101720004D2F429546954770440F440F2D2F2F7033
:1017300030E0042E02C0220F331F0A94E2F790E03B
:1017400080E0D4FF09C08FE090E002C0880F991FAD
:101750004A95E2F780959095C695C695C370822B01
:10176000932BC23049F058F4C13019F00E94420D59
:10177000F6CE0E94390DF3CE0E944B0DF0CE0E94A2
:10178000EF0CEDCECF70112329F08C2F0E94070DA6
:101790008D2F37CF8D2F0E94380A8C2F0E94170D66
:1017A000DECED23F41F160F4D03FB9F0D13F81F0BD
:1017B000112309F446C00111B8CE8C2F8F711FC0C0
:1017C000D33F01F1D43FA1F78091C40382FD24C02F
:1017D0008C2F8F71112311F312C0112341F00530AA
:1017E00008F0BDCE8C2F8F710E94290DB8CE063027
:1017F00008F0B5CEF7CF8C2F8F711111CFCF0E948B
:10180000070DADCE112329F08C2F8F710E94FB0C98
:10181000A6CE0E94F60CA3CE112349F0CF718C2FD7
:101820000E94070D63E08C2F0E94C01198CE81E0CA
:101830000E94DE11023008F492CE82E00E94DE1196
:101840008ECE002359F0D93309F00BCFEFEFF7EE2E
:1018500023E0E150F0402040E1F701CF8C2F8F7161
:101860009DCF0F931F93CF93DF93EC016881798114
:101870008D810E940A0E8C010E94540D0E94CA0C98
:10188000B801CE010E943F0ADF91CF911F910F91C5
:101890000895CF93DF93EC018C81882399F0CE01DA
:1018A0000E940408811111C00E94F310882351F096
:1018B0008D81882339F08091C40382FF03C082E0C8
:1018C0000E94DE11DF91CF910895CE010E94310C6C
:1018D000CE010E94D507F6CF90E080E00E94592407
:1018E00090E080E00E947E240E941A110E94AE11B6
:1018F00008950E949E250E946C0C08950E940A1172
:101900000E94790C089592959F70963091F058F44A
:10191000925F9F70923058F4803F19F030F4883E07
:1019200030F481E008959A5FF4CF843FD1F380E0F2
:101930000895883EB0F3813FD1F7F3CFFC012481B5
:10194000222339F0808191810E94FF0D0E94830C37
:10195000089580E00895A6E0B0E0E1EBFCE00C948F
:1019600029302696E2E00C944530A7E0B0E0EBEB9E
:10197000FCE00C9429302796E2E00C944530089561
:101980000E94BF0C08950E94C00C9093C5028093E2
:10199000C402089508950E94C30C08952091C402C2
:1019A0003091C502822B932B0E94C30C0895209185
:1019B000C4023091C502822393230E94C30C089570
:1019C0002091C4023091C502822793270E94C30C44
:1019D00008950E94BF0C08950E94E90C08950E948A
:1019E000EC0C9093C3028093C202089590E080E0D3
:1019F0000E94EF0C089521E030E0A90102C0440FDD
:101A0000551F8A95E2F7CA010E94EF0C089521E064
:101A100030E002C0220F331F8A95E2F78091C202A4
:101A20009091C302822B932B0E94EF0C089521E02A
:101A300030E002C0220F331F8A95E2F720953095DF
:101A40008091C2029091C302822393230E94EF0CE3
:101A5000089521E030E002C0220F331F8A95E2F79B
:101A60008091C2029091C302822793270E94EF0CBB
:101A700008952091C2023091C302822B932B0E94C1
:101A8000EF0C08952091C2023091C3028223932368
:101A90000E94EF0C08952091C2023091C302822768
:101AA00093270E94EF0C08950895262F277091E048
:101AB00001C0990F2A95EAF723E0769567952A9554
:101AC000E1F7660F771F660F771FFA01E60FF71F22
:101AD00050E040E0682F70E08191DF0111979B0199
:101AE000042E02C0369527950A94E2F721702195BD
:101AF0002827292328272C934F5F5F4F4430510517
:101B000059F70895A82FA77023E0969587952A95F1
:101B1000E1F7880F991F880F991FFB01E80FF91F44
:101B200050E040E080E0219130E00A2E02C036957E
:101B300027950A94E2F721703327042E01C0220F63
:101B40000A94EAF7822B4F5F5F4F4430510559F7F3
:101B50000895262F983070F4873060F4682F70E075
:101B600087E0989F600D711D112446EA52E0822F94
:101B70000E94550D0895292F983068F4873058F445
:101B800090E066EA72E037E0239F800D911D1124FA
:101B90000E94820D089580E00895B0E0A0E0E3ED9A
:101BA000FDE00C9422307C010091C2021091C3022E
:101BB0008091C4029091C502082B192BCFE0D0E090
:101BC000CC24C394D12CBC2EC6010C2E02C0880F8D
:101BD000991F0A94E2F780239123892B49F42197D6
:101BE00090F7B12C8B2DCDB7DEB7E9E00C943E30E9
:101BF000B7018C2F0E94E214019789F3F3CFCF93A2
:101C0000DF93EC010E94CD0DBE010E94E214DF9132
:101C1000CF9108951F93CF93DF93EB019091A5028D
:101C2000992339F0CB010E94FF0DDF91CF911F91D5
:101C30000895882369F0CB010E94CD0D182F682FDD
:101C4000CE010E94A90DBE01812F0E94E214EDCFAA
:101C5000CB010E94BB0D182FF6CF1F93CF93DF93BC
:101C6000C091C60217E08091C7028C1304C0DF91B7
:101C7000CF911F910895D0E01C9FF0011D9FF00DA2
:101C80001124E853FD4F20813181428153816481C9
:101C9000758186810E94B50C2196C770E4CF209192
:101CA00000033091010340910203509103036091BE
:101CB000040370910503809106030E94B50C0895FA
:101CC000CF93DF9380910603807F09F04DC0809110
:101CD0000503882309F448C0E091C6025091C70269
:101CE000C0910103D091000360910203709103033E
:101CF00047E05E17C9F18E2F90E0E49FF0011124B8
:101D0000E853FD4F2481222391F1489FF001499F20
:101D1000F00D1124DF01A853BD4F11962C9111979E
:101D20002C1325C02C912D1322C015962C9115979C
:101D300021111DC012962D913C91261B370B283C7A
:101D40003105A8F4809106038F70806180930603AB
:101D5000E253FD4F80818F708061808380E093E04B
:101D60000E94490C0E942D0EDF91CF910895FC0135
:101D70003196E770BECF482F2091C6029091C702DE
:101D800057E0291302C080E0089530E0529FF0012F
:101D9000539FF00D1124E853FD4F8181681306C055
:101DA0008081481303C085818111EECF2F5F3F4FA3
:101DB0002770E7CFA4E1B0E0E0EEFEE00C941F3026
:101DC0008C0186E0F801DE011F9601900D928A9544
:101DD000E1F7F8018481E58090E0A92E93E0B92E27
:101DE0009091040391111FC08823D1F0EE20A9F037
:101DF000C8010E949E0CF82E882379F087E0F80134
:101E0000D50101900D928A95E1F7C5010E942C0938
:101E10000E94600E0E944F0E5FC0C8010E94490CD4
:101E2000FF24F39459C0C080D18082809380F090C9
:101E300005032091020330910303A401421B530BBD
:101E4000FF2009F4F9C0483C510508F0A7C08823D9
:101E500009F442C09091010380910603282F207F4E
:101E600009F05CC09D1116C090910003C91212C008
:101E7000E1104EC08F708061809306030E944F0E68
:101E800080E093E00E94490C80910603F80186836C
:101E9000F12C22C0E1103CC06D2D8C2D0E94BB0E98
:101EA0006D2D8C2D0E94BB0EE82E8111F1CFCF86B7
:101EB000D88A8F8598890E94FF0D292F22952F702F
:101EC000243078F49F702230A8F09923B9F0F801FB
:101ED0009681907F99F4FE2C8F2D6496ECE00C9403
:101EE0003B302A5F2F70223068F0C8010E94490CF5
:101EF000EF2CF1CF992311F0882369F3805E8830AD
:101F000050F3F3CF803F38F3815F833070F7E3CF36
:101F100080910603816080930603BACF9D1113C0A0
:101F200090910003C9120FC0E1100DC08683C80153
:101F30000E94490C87E0F801A0E0B3E001900D9207
:101F40008A95E1F767CFC8010E949E0C882309F4A7
:101F500064CFEE2009F461CF80910603803288F0CF
:101F60002091000330910103398728879B868A8658
:101F7000909104039C871D868E87CE0108960E944F
:101F8000490C87E0F801A0E0B3E001900D928A953A
:101F9000E1F70E94600E0E944F0E42CF909106031F
:101FA000292F207FA1F4682D9A8A898AA6017A892F
:101FB0009E2D0E94AB0C80E093E00E94490C87E0CC
:101FC000F50111928A95E9F70E944F0E61CF88239F
:101FD00009F482CF809101038D1110C0809100031C
:101FE000C8120CC0E1100AC09683C8010E94490CB7
:101FF00087E0F50111928A95E9F76ECFC8010E943A
:102000009E0C882309F409CFEE2009F406CF8091B5
:102010000603803208F4B5CF20910003309101030C
:102020003A8329839C828B82909104039D831E8234
:102030008F83CE010196A3CF483C5105B8F5882384
:1020400009F4EECEFE2CEE2009F4E7CE80910103D8
:102050008D111EC080910003C8121AC08091060322
:1020600080FD0DC0982F907F51F08683903F09F43A
:102070005ECF982F907F905F8F70892B57CF87E02E
:10208000F801A0E0B3E001900D928A95E1F724CF2A
:10209000C8010E949E0C811174CF8091060381605B
:1020A00080930603C8010E94490C16CF682D9A8AB6
:1020B000898AA6017A899E2D0E94AB0C87E0F501E2
:1020C00011928A95E9F7A6CEAEE0B0E0EAE6F0E13B
:1020D0000C942830288739874A875B876C877D87EF
:1020E0008E87CE0108960E94DA0E8823B1F06C85A7
:1020F000662341F0288539854A855B857D858E85F7
:102100000E94B50C17E08091C6029091C702891316
:102110003DC02E96E3E00C94443087E0FE013896F3
:10212000DE01119601900D928A95E1F78C85882346
:1021300049F32091C70230E0C901019687709927C1
:102140004091C6024817190699F097E0929FD00176
:10215000939FB00D1124A853BD4FFE0131960190FD
:102160000D929A95E1F78093C7020E942D0ECACF77
:102170000E947E0C1092C7021092C60287E0E0E037
:10218000F3E0DF011D928A95E9F7BCCF819FC00182
:10219000112488539D4F0E94DA0E882309F4B9CF89
:1021A000E091C6021E9FF0011124E853FD4F2081EB
:1021B0003181428153816481758186810E94B50C91
:1021C0008091C60290E00196877099278093C6029D
:1021D0009ACF80912F038695869586950895809154
:1021E0002F038770089590912F03977081E009F471
:1021F00080E0089580915B03089590915B03892BA3
:1022000080935B030895809590915B03982390934E
:102210005B03089510925B03089590915A03892BF4
:1022200080935A030895809590915A039823909330
:102230005A03089510925A03089508950E941D119B
:10224000089590913003292F282331F08095892318
:10225000809330030E941E11089508950E942D114D
:10226000089590913103292F2823281729F0982BBE
:10227000909331030E942E11089590913103292FDC
:10228000282331F080958923809331030E942E11F9
:10229000089580913103882329F01092310380E062
:1022A0000E942E110895CF93C0915B0380915A0331
:1022B000C82B80913103882331F0C82B0E94A324BE
:1022C00081110E9449118C2FCF910895CF93DF93F4
:1022D000C0910201D09103010E9453118883C091E3
:1022E0000201D091030148E050E067E273E0CE01C3
:1022F0000E948630892B59F088E0FE01A7E2B3E006
:1023000001900D928A95E1F7CE010E94C223DF91E0
:10231000CF910895CF93DF93C0910001D091010137
:102320000E9453118983C0910001D091010140E2C4
:1023300050E067E073E0CE010E948630892B59F0AF
:1023400080E2FE01A7E0B3E001900D928A95E1F7EB
:10235000CE010E940C24DF91CF9108958091340129
:10236000882339F08091C30387FF03C00E948A113C
:1023700008950E946611089508950E94BC11089561
:102380009091C40392FF11C098E0899F900111249D
:10239000622B60932F030E94070D80912F03869577
:1023A000869586950E94BD1108950E94070D089597
:1023B00010922F0380E00E94BD11089590912F0389
:1023C0008095892380932F03282F277069F489171C
:1023D00059F09091C40392FF07C086958695869523
:1023E0000E94170D0E94D8110895CF93C82F809195
:1023F000C40382FB992790F99C17E9F0C0FB82F98E
:102400008093C4038091C3039091C4030E9450122F
:1024100082E00E94DE1180916E0380FF0CC01F924B
:10242000CF9381E392E09F938F930E9457070F9081
:102430000F900F900F90CF9108958091C40382FB6D
:10244000882780F991E089270E94F511089581E09D
:102450000E94F511089580E00E94F51108956FEF34
:102460007FEF90E080E00E94DE30089590E080E011
:102470000E94AA3021E0863E9E4F09F020E0822F84
:10248000089582E090E00E949C30089583E090E0FF
:102490000E949C30089584E090E00E94AA30089544
:1024A000BC0184E090E00E94DE300895AB01BC01E5
:1024B0008FE090E00E94D2300895AB01BC0183E12F
:1024C00090E00E94D230089560E070E0CB010E945D
:1024D0005D12089560E070E0CB010E9456120E94E8
:1024E00064120895A8E0B0E0E8E7F2E10C94293026
:1024F00066EE7EEF90E080E00E94DE3060E082E0F9
:1025000090E00E94C03081E090E09093C5028093FB
:10251000C40261E083E090E00E94C03060E074E1BA
:1025200084E090E00E94DE3060E086E090E00E946F
:10253000C0306FEF87E090E00E94C03040E050E094
:10254000BA0188E090E00E94D23060E084E290E03E
:102550000E94C03060E087E190E00E94C03060E0FF
:102560008CE090E00E94C03060E08DE090E00E943E
:10257000C03019821A821B821C821D821E821F8219
:10258000188648E050E068E170E0CE0101960E94B4
:10259000B03040E050E0BA0180E290E00E94D230DA
:1025A0000E946A122896E2E00C9445300E94721252
:1025B0000895682F8EE090E00E94C0300895A6E054
:1025C000B0E0E5EEF2E10C9427300E945D268C012C
:1025D00080915C0390915D038017910781F01982CF
:1025E0001A820E945D26682F49815A81792F80E0E6
:1025F00090E00E94FC0810935D0300935C03269614
:10260000E4E00C9443300E94FE1560936A037093DB
:102610006B0380936C0390936D03609366037093D8
:10262000670380936803909369030895089508955C
:102630000E941613089508950E941B13089581E0C7
:10264000089585E39AE20E94DA1A0E9417130E9405
:10265000181308950E943F180895089508950E9440
:102660002D130E942E1308950E9419160E94AE0881
:1026700008950E9454260E94D8150E9442180E9474
:1026800089170E9434130E94E0210E94EF1E0E94CD
:102690005E180E941C130895A6E0B0E0E2E5F3E1A5
:1026A0000C9420300E941F1381110CC00E94DF1275
:1026B0000E943F180E94A41F0E94C1082696EBE0CA
:1026C0000C943C300E94AC178EE5A82E83E0B82E07
:1026D000750110E0F70101917F01812F0E943F16E3
:1026E0001F5F183009F441C00817A1F380916E03F1
:1026F00081FD0E9445160E942A13C82E10E09924DD
:102700009394812F0E943F16082FF50181915F015C
:10271000081729F1D02ED826F12CEE24E3948D2D24
:102720008E21A9F0CC2099F0F9821A830E945D26AF
:102730009C838B839D8291E0802F8E2109F490E011
:1027400049815A816B817C818D810E94FC08F394C0
:10275000EE0CF7E0FF12E3CFF501319700831F5F26
:10276000183079F60E940313A3CF0813BFCF9ECF72
:102770001F93CF93DF930E94E714EC01C11580E50E
:10278000D807F0F5C11580E4D80708F09CC0C03E1A
:10279000D10520F5CD3CD10508F082C0C83AD1055D
:1027A00078F4C53AD10508F073C0C130D10519F1EC
:1027B000209709F1C430D105F0F4D0E0C0E01BC08F
:1027C000C33CD105D0F7C85AD0E0CC0FDD1FC259A9
:1027D000DE4F0990D881C02DD4640DC0C11580E2B0
:1027E000D80708F0D1C0C11581E0D80708F05AC059
:1027F000C83ED10510F7CE01DF91CF911F9108950A
:10280000C03682E5D80718F5C03482E5D80708F04D
:102810006BC0C03282E5D80708F05FC0C11582E501
:10282000D80708F497C02C2F2695269580E2289F7C
:10283000900111248C2F8370C1E0D0E002C0CC0F36
:10284000DD1F8A95E2F7C22BD32BDD68D4CFC03AC7
:1028500082E5D80760F4C03882E5D80708F459C08B
:10286000CF71D0E0DC2FCC27C46FD06AC4CFC03C7E
:1028700082E5D80708F462C0C03E82E5D80708F0B8
:102880009CCFDC2FCC27CC27DF71C06FD06AB3CFB1
:10289000C55AD0E0CC55DE4FC881D0E0D064ABCF74
:1028A000D065A9CF8D2F0E948915182FCE019927A9
:1028B0000E94E714C12FD0E0DC2FCC27CC27DF719A
:1028C000C82BD92B98CFCE0199270E94E714CC278B
:1028D000DF70C82BD92BD06A8ECFCF71D0E0DC2F20
:1028E000CC27C16FD06A87CF2C2F269526952770CD
:1028F00080E2289F900111248C2F8370C1E0D0E0EA
:1029000002C0CC0FDD1F8A95E2F7C22BD32BDC6807
:1029100072CF2C2F26952695277080E2289F900154
:1029200011248C2F8370C1E0D0E002C0CC0FDD1FDA
:102930008A95E2F7C22BD32BDA685DCF8C2F8F718B
:102940000E948915C82FD0E0DC2FCC27CC27DF715F
:10295000D06251CF8C2F8F710E94891555E0D6958A
:10296000C7955A95E1F7CF70D0E0DC2FCC27282F00
:1029700030E084FF05C044E0220F331F4A95E1F7A1
:10298000C22BD32BD06937CF8D2F8F710E94891521
:10299000182FCE0199270E94E714C12FD0E0DC2F19
:1029A000CC27CC27DF71C82BD92BD2CF462F78303C
:1029B00030F4673020F4672F0E947C07089590E080
:1029C00080E008950E94D6140E94B81308958238BA
:1029D0009105B9F1B0F48133910509F47DC048F453
:1029E0008932910509F46DC08A32910509F47BC0E2
:1029F00008958533910509F45FC08933910509F184
:102A00000895833E9105D9F138F4803E910529F16E
:102A1000823E910579F10895863E9105D9F1873E70
:102A2000910509F43EC0843E910541F52091C4030F
:102A300021FF24C08091C30384FD19C087EE90E07C
:102A400008952091C303237009F05AC02091C40354
:102A500023FF14C089E290E008952091C30320FD74
:102A600038C03091C40330FF09C024FF43C090E058
:102A700080E008952091C30322FDF7CF08952091AF
:102A8000C30322FD3AC03091C40330FD39C024FF96
:102A9000F5CFEDCF2091C30323FFF0CF24FDE7CF87
:102AA000CDCF2091C30323FD2EC03091C40331FF4D
:102AB000EECF84EE90E008952091C30325FFDECF92
:102AC000C9CF2091C30325FD21C02091C40323FF5A
:102AD000D5CF89E390E0D2CF2091C30326FFCECF9C
:102AE0008AE290E008952091C30326FFC7CF81E3D7
:102AF00090E0089583EE90E0089582EE90E00895CE
:102B000080EE90E0089586EE90E0089585E390E0F1
:102B100008959091C30392FF10C041E0282F2471C3
:102B2000243009F040E031E0282F2871283009F0E6
:102B300030E0431711F02CE0822793FF10C041E0F2
:102B4000282F2471243109F040E031E0282F28712A
:102B5000283109F030E0431711F02CE08227309142
:102B6000C40330FF10C051E0282F2171213009F03B
:102B700050E041E0282F2871283009F040E0541738
:102B800011F029E0822731FF10C041E0282F217188
:102B9000213109F040E031E0282F2871283109F077
:102BA00030E0431711F029E0822794FD877E0895D5
:102BB0001092BF031092C0031092C1031092C2037F
:102BC0000895CF92DF92EF92FF926B017C010E94F9
:102BD0003F1881110EC00E946926C61AD70AE80A5A
:102BE000F90AC092BF03D092C003E092C103F092F1
:102BF000C203FF90EF90DF90CF9008950F931F9343
:102C00000E943F18882329F00E9469261F910F9186
:102C100008950E9469260091BF031091C00320917E
:102C2000C1033091C203600F711F821F931FEECF4B
:102C300008950E943612811102C00E94D6120E948D
:102C4000411280936E030E944B129093C4038093B1
:102C5000C3030E9418160E94461290E00E94CB0CFB
:102C60008091C2029091C3020E94EC0C08950895D5
:102C70000E943716089508950E943B160895E82F84
:102C8000F0E0E253FC4F80810895B0E0A0E0EBE477
:102C9000F6E10C94233085E592E00E94BE068EECAE
:102CA000E82E83E0F82ED0E0C0E090E5C92E92E057
:102CB000D92E08E412E0DF93CF93DF92CF920E94E7
:102CC00057078DE492E00E94BE06F70181917F01D3
:102CD0000E9483081F928F931F930F930E945707A0
:102CE00086E492E00E94BE0621968DB79EB70896B4
:102CF0000FB6F8949EBF0FBE8DBFC830D105D9F670
:102D0000CDB7DEB7E8E00C943F3080EA8A95F1F762
:102D1000089500C008950E948516089508950E94A0
:102D20008E160895EF92FF921F93CF93DF9300D0FA
:102D300000D0CDB7DEB70E943F18182F6091D603A0
:102D4000882309F447C019821A821B821C82862FAD
:102D500090E09E012F5F3F4F7901B90182539C4F54
:102D60000E946C188823E9F08091C50390E044E04C
:102D700050E0B70182539C4F0E94863021E020939F
:102D80006F03892BC9F410E00E943C16812F0F902D
:102D90000F900F900F90DF91CF911F91FF90EF90C8
:102DA000089580916F03882371F384E0F7011192F5
:102DB0008A95E9F710926F03E091C503F0E0E253C2
:102DC000FC4F89819A81AB81BC8180839183A283EE
:102DD000B383DACF70E062537C4F8091C50390E0FB
:102DE00082539C4F0E9407190E948F16CFCFF894F0
:102DF000E82FE295EF70F0E031A1282F2F7081E0ED
:102E000090E001C0880F2A95EAF7982F90959323B8
:102E100091A392A1892B82A378940895CF93DF93F5
:102E200084EF0E94F71687E90E94F71686EC0E944D
:102E3000F71684E30E94F716C7EAD1E089918F3F25
:102E400011F00E94F71681E0CE3AD807B9F7DF916A
:102E5000CF910895B0E0A0E0E0E3F7E10C942330D7
:102E6000EC01D62E062F10E0C80182559E4F7C0142
:102E7000FC0180818F3F09F445C0F894E82FE2956A
:102E8000EF70F0E091A18F7021E030E001C0220FDF
:102E90008A95EAF7892F822B81A382A12095282386
:102EA00022A378940E948916E7EAF1E04EEA51E005
:102EB00031E0C12C21912F3F51F1A22FA295AF708B
:102EC000B0E090968C9190E02F7002C09595879518
:102ED0002A95E2F780FD1BC0832FC82A330F4E17B7
:102EE0005F0741F7F70180818F3F11F00E94F716CD
:102EF00061E0C11001C060E08D2D0E948B16C00FF3
:102F0000D11FC882CDB7DEB7E8E00C943F3080E037
:102F1000E4CF809104018091040194E0811190E05C
:102F20009093D60384E0891B8093C5030E940E17FB
:102F300088E0EEECF3E0DF01982F1D929A95E9F717
:102F4000E6ECF3E0DF011D928A95E9F784E00E9448
:102F5000EA170E9438160895A8E0B0E0E2EBF7E126
:102F60000C9426308E010F5F1F4F88E0F8011192FC
:102F70008A95E9F7F12C6F2DC8010E942A17F39466
:102F8000F4E0FF12F8CF48E050E0B80186EC93E09F
:102F90000E94863021E0009709F420E0892B41F05F
:102FA00088E0F801A6ECB3E001900D928A95E1F774
:102FB0006091D60370E062537C4F44E086EC93E06E
:102FC0000E94EB17182F0E949216812B2896E5E09D
:102FD0000C9442300895B0E0A0E0E1EFF7E10C94EA
:102FE00023306C017B01042FC22F222379F081E072
:102FF000809372030E945D26909371038093700307
:1030000080E0CDB7DEB7E8E00C943F30D09172039A
:10301000DD23B1F380917003909171030E947526B6
:10302000059770F310E0A801B601C7010E94863031
:10303000892B31F0A801B601C7010E949330CD2F32
:10304000109272038C2FDDCF52985A988FE891E03E
:103050000197F1F700C0000089B182FB882780F951
:103060000895CF930E94E62FC82F811102C00E94BD
:10307000E12F8C2FCF910895809176030895809150
:10308000750308950E943118809375030E942418D7
:10309000809376030E943C18809304010E943C18A0
:1030A00067E0882349F080E00E94761B0E943F1869
:1030B00081110E94B618089587E0F6CF0E943F184C
:1030C000811102C00E94B918089581E090917703A0
:1030D0009A3008F080E00895EF92FF920F931F93CB
:1030E000CF93DF938C017B01D0917703DA30D0F45A
:1030F000B701C8010E940419C82F81112AC080910C
:1031000077038F3FF9F40E945D26909374038093B8
:10311000730380916E0380FF0EC087E792E00E94E8
:10312000BE060AC080917303909174030E947526B5
:10313000843F9140E8F6C0E08C2FCDB7DEB7E6E0E3
:103140000C9441308F5F809377038A30E0F6C1E0C2
:10315000F3CFDA3040F080916E0380FF04C084E644
:1031600092E00E94BE0610927703E6CF0E943827B5
:1031700008950E943B270895B0E0A0E0E2ECF8E15A
:103180000C9424307901C82F880FDD0B41155105AF
:10319000A9F0FE0193E0EE0FFF1F9A95E1F7EB5FB8
:1031A000FE4F8181928188589C4F208130E04217E8
:1031B000530708F49A01A9010E949330CE010E949E
:1031C0002428D82E8823D1F001151105B9F083E009
:1031D000CC0FDD1F8A95E1F7FE01EB5FFE4F4381C7
:1031E00050E00417150708F4A801CB5FDE4F6C818F
:1031F0007D8168587C4FC7010E9493308D2DCDB7DB
:10320000DEB7E7E00C9440300E944D1A08950E940A
:10321000741A0895A4E0B0E0E0E1F9E10C942730DD
:10322000609198037091990380919A0390919B0308
:103230000E94842611E0643671058105910518F11C
:103240000E94FE156E5F7F4F8F4F9F4F69837A8379
:103250008B839C8310E000E030E020E044E050E00D
:10326000BE016F5F7F4F82E00E94BC18182F882339
:1032700051F00E946926609398037093990380939C
:103280009A0390939B03812F2496E4E00C9443309F
:10329000B0E0A0E0EEE4F9E10C941E307C015B01AB
:1032A000842E752E69010E94651801E010E08823C4
:1032B00011F00AE010E0C1E0D0E0B501C701F6016D
:1032C0000995982E811114C021960C171D07B4F48E
:1032D00080916E0380FF0CC07F928F928DEA92E006
:1032E0009F938F930E9457070F900F900F900F900E
:1032F000892DCDB7DEB7EDE00C943A30CC9F90012C
:10330000CD9F300D300D112490E080E045E34A95CB
:10331000F1F70000019628173907C1F7CECFABE0CF
:10332000B0E0E5E9F9E10C942730CE0101960E9466
:103330006B1F1B8560919C0370919D0380919E0380
:1033400090919F030E948426643671058105910542
:1033500010F41123C1F010E000E030E020E04BE079
:1033600050E0BE016F5F7F4F83E00E94BC1888234E
:1033700069F00E94692660939C0370939D0380937B
:103380009E0390939F030E94681F81E02B96E4E0C8
:103390000C944330A5E0B0E0E0EDF9E10C9421306D
:1033A0005B01E090B201F090B30101E010E09E01FA
:1033B0002B5F3F4F50E040E070E060E080E00E9413
:1033C000BC18182F882309F44BC067018FEFC81A67
:1033D000D80A60919403709195038091960390911F
:1033E00097030E948426643671058105910580F15A
:1033F00004E010E09E012F5F3F4F50E040E070E09E
:1034000060E081E00E94BC18F82E64E070E0C60124
:103410000E94E12111E09D81981310E01F2159F1D4
:103420000E9469266093940370939503809396039A
:103430009093970389819A81AB81BC81809390039B
:1034400090939103A0939203B093930311E013C060
:1034500064E070E0C6010E94E1219D818913C8CF1C
:10346000F70181819281A381B48189839A83AB839F
:10347000BC831111DFCF8091900390919103A091B3
:103480009203B0919303F50180839183A283B38368
:10349000812F2596EAE00C943D300F931F93CF9334
:1034A000DF93EC018B012AEC39E144EB51E00E94FF
:1034B0004819811106C080E0DF91CF911F910F91D3
:1034C00008952AE039E141EC51E0B801CE010E94B3
:1034D0004819882381F32FE839E14CEC51E0B80119
:1034E000CE010E944819E8CFABE0B0E0EAE7FAE18C
:1034F0000C9423300091B2011091B301C8010196E0
:1035000024E0FB01DC0101900D922A95E1F764E0D3
:1035100070E00E94E121F8018083658176818781D6
:103520009085C0908C03D0908D03E0908E03F09036
:103530008F036C157D058E059F0551F060938C03FC
:1035400070938D0380938E0390938F030E94E115F7
:103550008BE0F8013996DE01119601900D928A9563
:10356000E1F7F801138A8B85882329F060E0CE010A
:1035700001960E947E1F2B96E8E00C943F300E943B
:10358000B12A0E9439130E94BE2A08950E94C32ABC
:103590000E944C130E94E52A08950E94F6250E947D
:1035A000972A0E9421130E94BF1A0E94C61A0E94E5
:1035B0002F13FBCF90939F0280939E020895EF926A
:1035C000FF920F931F93CF93DF93EB01E82FD1115D
:1035D0000EC0442321F0F0E0EE55FA4FE4916E2F37
:1035E0007E2F8E2FCDB7DEB7E6E00C9441300D2F45
:1035F00010E0282F30E0442329F02E553A4FF901EE
:10360000249130E0F6E0CF9FC0011124EFEFF0E00D
:10361000BF010E94FF2FAB018C2F90E0880F991FF4
:10362000A5E5A49FB001A59F700D1124861B970BE3
:10363000982F990F980FBF01601B710B629FD001EB
:10364000639FB00D729FB00D11248B2F9D9FB00111
:103650001124672F7727EF01C61BD70BBE01629F8E
:10366000E001639FD00D729FD00D11247F01E91AF4
:10367000F108E09EB001E19E700DF09E700D1124E6
:10368000672F7727E61BF70BE29F8001E39F100D62
:10369000F29F100D1124E12F722F4230510599F045
:1036A00048F44115510569F04130510581F0EB2F87
:1036B0008D2F07C04430510569F080F04630510528
:1036C000B1F76E2F8FCFE22F7B2F812FFACFE22F12
:1036D0007D2FF7CFEB2F822F712FF3CF7B2F822FF0
:1036E000ED2FEFCF41E00E94DF1A0895E5E2F1E00F
:1036F0008083618308950E94721B0895CF93DF93A6
:10370000762FE901682F842F0E947B1B79836883C1
:103710008A83DF91CF9108958091D703982F9C7F62
:1037200039F48091D703837084608093D703089520
:103730008830B8F70895B0E0A0E0E1EAFBE10C942E
:10374000233088E090E00E94A4306B017C0184E289
:1037500090E00E949C30282F30E040E050E060E094
:1037600070E080E090E000E20E945030B22FA32F82
:10377000F42FE52FD62FC72F97018601BC29A12B47
:10378000FE295E2F532B2B2F3A2F4F2F6D2F7C2F7F
:10379000CDB7DEB7E8E00C943F30B0E0A0E0E3ED59
:1037A000FBE10C941F3049015A016B017C010E941E
:1037B0008C1B8401A4016A2D7B2D88E090E00E947F
:1037C000D23094014A2D5B2DB601C70100E20E9460
:1037D0006B30622F84E290E00E94C030CDB7DEB73C
:1037E000ECE00C943B30E7EDF3E085E08083118260
:1037F0008FEF828383831482A1EAB3E012968C91C7
:103800001297836012968C93758125E030E04FEF1C
:103810005FEF60E0868197810E94CD1B08958091C3
:103820006E0380FF8BC089E895E09F938F930E9481
:10383000570780916E030F900F9080FF7FC080919B
:10384000D70381701F928F938CE695E09F938F939F
:103850000E94570780916E030F900F900F900F906A
:1038600080FF6CC08091D703869581701F928F93E3
:103870008CE495E09F938F930E94570780916E038D
:103880000F900F900F900F9080FF58C08091D7033A
:10389000869586951F928F9381E395E09F938F93F2
:1038A0000E94570780916E030F900F900F900F901A
:1038B00080FF44C08091D8031F928F9387E195E0E9
:1038C0009F938F930E94570780916E030F900F90E4
:1038D0000F900F9080FF32C08091D9031F928F9379
:1038E0008DEF94E09F938F930E94570780916E0312
:1038F0000F900F900F900F9080FF20C08091DA03FF
:103900001F928F9383EE94E09F938F930E945707AB
:1039100080916E030F900F900F900F9080FF0EC05C
:103920008091DB031F928F9387EC94E09F938F939A
:103930000E9457070F900F900F900F90089590914D
:10394000DB03933018F49F5F9093DB03882391F09F
:103950002091D7033091D8034091D9035091DA03D5
:103960006091DB037091DC038091DD039091DE03B5
:103970000E94CD1B089581E00E949F1C08959091A4
:10398000DB03992319F091509093DB03882391F086
:103990002091D7033091D8034091D9035091DA0395
:1039A0006091DB037091DC038091DD039091DE0375
:1039B0000E94CD1B089581E00E94BF1C089570E015
:1039C0000E9402200895609126018091D70380FF14
:1039D0000BC08091250123E0829FC00111248152F8
:1039E0009C4F0E94DF1C089580912701909128012F
:1039F00023E0829FF0011124E152FC4F891748F720
:103A00001182108212828F5F3396F8CF2091D703F4
:103A10002E7F2093D7033091D8034091D903509142
:103A2000DA036091DB037091DC038091DD039091F8
:103A3000DE030E94CD1B80916E0380FF0FC080913A
:103A4000D70381701F928F9389E493E09F938F93A4
:103A50000E9457070F900F900F900F908091A30333
:103A600081608093A3030E94E31C08958091D70393
:103A70008E7F8093D70380916E0380FF0CC01F92CE
:103A80001F928FE093E09F938F930E9457070F90B0
:103A90000F900F900F908091A30381608093A303F8
:103AA0000E94E31C08959091D70390FF0EC090915F
:103AB00027012091280133E0939FF0011124E15266
:103AC000FC4F921718F00E94E31C089581836083D5
:103AD00042839F5F3396F5CFA3E0B0E0E2E7FDE1DC
:103AE0000C942530182F062FF42EE22E8091D70348
:103AF00080FF5CC09091D803911308C09091D903C6
:103B0000961304C09091DA03941729F09091A303BF
:103B100092609093A303E82FE695E695F0E0EB52D0
:103B2000FE4F90819093A1038C7F843069F49E01B5
:103B30002F5F3F4F4F2D602F812F0E947E1B4B81A7
:103B400069818A810E94531D1093D8030093D90381
:103B5000F092DA03EE2071F12091D7036091DB033C
:103B60007091DC03312F402F5F2D8091DD03909108
:103B7000DE030E94CD1B80916E0380FF17C08091F1
:103B8000DA031F928F938091D9031F928F938091B4
:103B9000D8031F928F938AEE92E09F938F930E9497
:103BA00057070FB6F894DEBF0FBECDBF2396E6E0F1
:103BB0000C94413080916E0380FFF8CF1F92FF92EA
:103BC0001F920F931F921F9383EC92E0E6CFE7EDD5
:103BD000F3E09181282F4381628188E0890F0E9460
:103BE0006C1D089581E00E94E71D0895E7EDF3E064
:103BF0009181282F4381628188EF890F0E946C1D7B
:103C0000089581E00E94F61D0895E7EDF3E06281DA
:103C100021E1620F08F46FEF282F438181810E9418
:103C20006C1D089581E00E94051E0895E7EDF3E004
:103C3000628121E1621B08F460E0282F43818181C9
:103C40000E946C1D089581E00E94161E0895E7ED04
:103C5000F3E0438121E1420F08F44FEF282F628106
:103C600081810E946C1D089581E00E94271E0895A5
:103C7000E7EDF3E0438121E1421B08F440E0282F07
:103C8000628181810E946C1D089581E00E94381E2E
:103C9000089520E00E946C1D08952091D70320FF15
:103CA00037C0237024602093D7038091A3038160E1
:103CB0008093A303662369F13091D8034091D9031F
:103CC0005091DA036091DB037091DC038091DD0396
:103CD0009091DE030E94CD1B80916E0380FF10C087
:103CE0008091D703869586951F928F938DE094E0FF
:103CF0009F938F930E9457070F900F900F900F90F4
:103D00004091DA036091D9038091D8030E94491E43
:103D1000089580916E0380FFF3CF1F9281E08F930F
:103D20008FEE93E0E5CF682F81E00E944D1E08954D
:103D300081E00E94931E0895682F9091D703969575
:103D400096958FEF890F09F481E00E944D1E08952A
:103D500081E00E949C1E089561E00E944D1E08951E
:103D60008091D70381608093D70380916E0380FF99
:103D70000DC01F9281E08F9381E893E09F938F9312
:103D80000E9457070F900F900F900F908091D703CC
:103D9000869586950E94AC1E089580916E0380FFE3
:103DA00010C08091D703809581701F928F9388EB0C
:103DB00093E09F938F930E9457070F900F900F905F
:103DC0000F908091D70380FF03C00E94061D0895C5
:103DD0000E94B01E089560E00E944D1E08958091DB
:103DE000A003811174C080916E0380FF14C080EB2A
:103DF00094E09F938F930E94570780916E030F90DA
:103E00000F9080FF08C08AE994E09F938F930E94EF
:103E100057070F900F900E943612811110C08091A9
:103E20006E0380FF08C082E794E09F938F930E9407
:103E300057070F900F900E94D6120E94F31B0E940A
:103E40009B1B2093D7033093D8034093D9035093FF
:103E5000DA036093DB037093DC038093DD039093BC
:103E6000DE038091A30383608093A3032C7F01F57D
:103E700080916E0380FF08C089E294E09F938F9346
:103E80000E9457070F900F900E94F31B0E949B1BEC
:103E90002093D7033093D8034093D9035093DA0388
:103EA0006093DB037093DC038093DD039093DE0368
:103EB0000E948C1B0E940F1C8091D70380FF04C0BE
:103EC000869586950E94EB1E81E08093A00308955D
:103ED0001092A303089528E0E7EDF3E0DC010190E0
:103EE0000D922A95E1F72091A1033091A203409110
:103EF000A303FC0120873187428708951F93CF9346
:103F0000DF93EC01162F8A8580FF0DC0888180FF2A
:103F100017C08091D70381608093D70388818695ED
:103F200086950E944D1E8A8581FF06C0212F4B81F8
:103F30006A8189810E946C1DDF91CF911F91089544
:103F40000E94361DF0CF08950895FA01811101C035
:103F5000FB01099508951F93CF93DF93EC01FB01BB
:103F60001581111110C00E94FA108272FE01E052F8
:103F7000F847E531F10508F043C0EE5FFE4C0C94C4
:103F800013300E94CD1E812FDF91CF911F91089594
:103F900048EA5EE168E97EE10E94A51FF4CF48E9A6
:103FA0005EE168EA7EE1F8CF41E05EE162EF7DE14B
:103FB000F3CF42EF5DE161E07EE1EECF43E25EE10F
:103FC00062E17EE1E9CF42E15EE163E27EE1E4CFDE
:103FD00045E45EE164E37EE1DFCF44E35EE165E476
:103FE0007EE1DACF4BED5CE16BEB7CE1D5CF4BEBC7
:103FF0005CE16BED7CE1D0CF81E00E94AC1EC3CFD1
:1040000011E0C1CF539A4BB1477F5BB15860EFB716
:10401000F8949B01220F331F260F371F280F391FDB
:104020002817390741F4EFBF8FE594E00197F1F7C6
:1040300000C000000895DC016D91CD0178E05BB90E
:10404000000000C067FF4BB9660F000000C000C051
:1040500000C04BB900C07A9591F7E2CFCF93C82F3B
:104060001F928F9388EA96E09F938F930E94570741
:1040700081E090E002C0880F991FCA95E2F70E9484
:10408000CB0C0E947E0C0F900F900F900F90CF9151
:104090000895B0E0A0E0EFE4F0E20C942430EBEF00
:1040A000E80FEF3308F03EC1F0E0E95EFE4C0C94FF
:1040B00013300E9446121F928F938CE49AE09F93D4
:1040C0008F930E9457070E94411283FB992790F912
:1040D0001F929F9382FB992790F91F929F9381FBD8
:1040E000992790F91F929F93982F91701F929F93F9
:1040F0001F928F9383E09AE09F938F930E945707BC
:104100000E944B1293FB222720F91F922F9387FBCB
:10411000222720F91F922F9386FB222720F91F9236
:104120002F9385FB222720F91F922F9384FB2227B0
:1041300020F91F922F9383FB222720F91F922F93A0
:1041400082FB222720F91F922F9391FB222720F92F
:104150001F922F93292F21701F922F9381FB2227CB
:1041600020F91F922F93282F21701F922F939F9336
:104170008F9384E099E09F938F930E9457078DB7A8
:104180009EB78A960FB6F8949EBF0FBE8DBF81E092
:104190001CC08CE09BE00E94BE060E94D612F7CFA6
:1041A0008FE497E00E94BE06F2CF80916E03807F7D
:1041B00080936E0384E397E00E94BE0688E09BE054
:1041C0000E94BE0681E08093A403CDB7DEB7E7E08E
:1041D0000C9440308CEE9AE00E94BE060E94F807D4
:1041E000D6CF90916E03892F8E7F90FF8160809350
:1041F0006E0380FF03C080EE9AE0D4CF83ED9AE097
:104200000E94BE0680916E03817F80936E03BFCFB4
:1042100090916E03892F8D7F91FF826080936E0352
:1042200081FF08C086EC9AE00E94BE0680916E0372
:104230008160EBCF88EB9AE0B5CF90916E03892F28
:104240008B7F92FF846080936E0382FF03C089EAB4
:104250009AE0EACF89E99AE0A5CF90916E03892F81
:10426000877F93FF886080936E0383FF03C08DE890
:104270009AE0DACF80E89AE095CF87ED91E09F93BE
:104280008F9381E397E09F938F930E9457070F903E
:104290000F900F900F907BCF0E946926062FF72E6C
:1042A000E82ED92EC091C303C7FBCC27C0F91091CB
:1042B000BE03D09134010E94AB23DF92EF92FF92B4
:1042C0000F931F92CF931F921F931F92DF931F9202
:1042D0008F938DEA96E09F938F930E9457078DB737
:1042E0009EB70E960FB6F8949EBF0FBE8DBF4FCFF0
:1042F0000E947E0C9091C303892F97FB87F9805809
:104300008093C30387FF03C086E79AE04BCF8BE619
:104310009AE048CF80E00E942E2039CF8953FBCF0E
:104320008D51F9CF89E69AE00E94BE0680E04DCF1C
:1043300080E008950E9498210895CF93C82F80911E
:10434000A403882331F0813099F01092A40380E017
:104350000DC00E94FA108232D1F78C2F0E94982152
:10436000811119C08C2F0E9449208170CF9108952E
:104370000E94FA10823289F38C2F0E949A218111B7
:1043800019C0C431C9F050F4CB3061F082EA96E034
:104390000E94BE0613C081E090E0E7CFC93261F011
:1043A000C833A1F784E397E00E94BE0684EA96E052
:1043B0000E94BE0681E0D9CF1092A40380E0D5CF41
:1043C0000895FC01680F791F8FEF91E36E177F0747
:1043D00009F408952191822728E030E087FF06C084
:1043E000880F892721503109C9F7F0CF880FFACFFC
:1043F000CF93DF93EB0186319C4711F50E94FA10B1
:104400009D81992399F08A7A91E009F490E0909344
:10441000A503811109C089E20E9470250E94AE1196
:1044200080E0DF91CF91089585E3F6CF8091A503D9
:10443000811104C089E20E948725F0CF85E3FBCF7C
:1044400081E0EFCFCF93DF93EC01FB0185818823DF
:1044500009F4D2C09E0130572332310508F0B2C0B2
:104460000E944B129093C4038093C303FE01E1505A
:10447000F047E232F10520F4EA5AFE4C0C94133076
:104480008091C30381608093C30393C08091C40370
:1044900088608093C4038DC08091C3038260F3CF92
:1044A0008091C3038460EFCF8091C3038860EBCF1A
:1044B0008091C4038160EDCF8091C4038260E9CF15
:1044C0008091C3038061DFCF8091C3038062DBCF23
:1044D0008091C3038064D7CF0E947E0C8091C30378
:1044E0008068D1CF8091C3038C60CDCF8091C4030D
:1044F0008360CFCF8091C3038E7FC5CF8091C403EB
:10450000877FC7CF8091C3038D7FBDCF8091C303C9
:104510008B7FB9CF8091C303877FB5CF8091C403D0
:104520008E7FB7CF8091C4038D7FB3CF8091C303BB
:104530008F7EA9CF8091C3038F7DA5CF8091C303C8
:104540008F7BA1CF0E947E0C8091C3038F779BCF7E
:104550008091C303837F97CF8091C4038C7F99CFD1
:104560008091C30382FB992790F921E0922790FB69
:1045700082F990FB83F987CF8091C403982F90959F
:1045800091708E7F892B90FB81F983CF9091C3032B
:10459000892F8F7B96FF806476CF0E947E0C90914E
:1045A000C303892F97FB87F980586DCF81E00E9464
:1045B000D9128091C3039091C4030E9450120E94AB
:1045C0007E0C80E0DF91CF91089580E0F0CF909154
:1045D000C303892F8F7E94FF806155CF9091C303D1
:1045E000892F8E7F90FF81604ECF9091C403892FD9
:1045F000877F93FF88604DCF81E0E4CF0F931F93B7
:10460000CF93DF93C42FD22FFC0185818823C9F07B
:104610004093A8030E945D269093A7038093A6036E
:1046200080E28C0F883040F4C77081E001C0880FB1
:10463000CA95EAF70E94310ADF91CF911F910F913D
:1046400008951091A803141332C08091A60390918D
:10465000A7030E947526883C910548F5C0E2CD0F5E
:104660001D17B9F080E2810F883040F4177081E0A7
:1046700001C0880F1A95EAF70E94380AC83048F43A
:1046800081E09D2F977001C0880F9A95EAF70E94EC
:10469000310A802F0E94280AC83070F6D77081E056
:1046A00001C0880FDA95EAF70E94380AC5CF80E288
:1046B0008C0F883008F6C77081E001C0880FCA955A
:1046C000EAF7F2CF0F93DB0188519C4787309105C1
:1046D000A0F5FC01E858FE4C0C94133006E221EEE4
:1046E00041EE6AE17CE7CD010E94FE2280E00F915D
:1046F000089507E225EE45EE6BE17CE7F4CF06E294
:1047000021EE40EE68E17CE7EECF07E225EE44EED5
:1047100069E17CE7E8CF06E221EE42EE6CE17CE75E
:10472000E2CF07E225EE46EE6DE17CE7DCCF08E262
:1047300021E045EE6EE17CE7D6CF15968C9188237B
:1047400019F01092A803D3CF81E0D1CF9093AF039B
:104750008093AE0308950E943F18811103C0809199
:10476000A9030895E091AE03F091AF03309729F0CB
:104770000190F081E02D0995089580E008950E9450
:10478000AB230895EF92FF920F931F93CF93DF9384
:10479000EC01E091AE03F091AF033097C1F10280DC
:1047A000F381E02D099580916E0382FF30C080FF78
:1047B0000DC088811F928F9382E49BE09F938F931B
:1047C0000E9457070F900F900F900F907E0186E088
:1047D000E80EF11C0CE31BE080916E0380FF0BC020
:1047E0008A811F928F931F930F930E9457070F90F8
:1047F0000F900F900F902196CE15DF0569F78091ED
:104800006E0380FF04C08AE39BE00E94BE06CDB722
:10481000DEB7E6E00C944130EF92FF920F931F93C6
:10482000CF93DF93EC01E091AE03F091AF033097AB
:10483000D9F186E088830480F581E02DCE010995C9
:1048400080916E0382FF30C080FF0DC089811F926E
:104850008F9385E29BE09F938F930E9457070F9061
:104860000F900F900F907E018EE1E80EF11C0FE18A
:104870001BE080916E0380FF0BC08A811F928F9393
:104880001F930F930E9457070F900F900F900F9058
:104890002196CE15DF0569F780916E0380FF04C075
:1048A0008DE19BE00E94BE06CDB7DEB7E6E00C943A
:1048B0004130A3E0B0E0EFE5F4E20C942930209120
:1048C000AC033091AD0328173907A1F09093AD03E5
:1048D0008093AC03E091AE03F091AF03309751F0B9
:1048E00023E029839B838A830084F185E02DCE0118
:1048F000019609952396E2E00C944530A3E0B0E0E0
:10490000E4E8F4E20C9429302091AA033091AB033F
:1049100028173907A1F09093AB038093AA03E09185
:10492000AE03F091AF03309751F024E029839B83CD
:104930008A830084F185E02DCE01019609952396A6
:10494000E2E00C94453020910201309103012E5F8A
:104950003F4F80913401882379F08091C30387FF12
:104960000BC020910001309101012E5F3F4F9EE16D
:1049700080E0915018F4089596E0FACFF901419142
:104980009F014423B1F38F5FF4CF882321F19091ED
:104990003401992311F19091C30397FF1EC0E82FB2
:1049A000E695E695E695EE31B0F420910001309160
:1049B0000101E20FF32FF11D228130E0877041E009
:1049C00050E002C0440F551F8A95E2F72423352397
:1049D00081E0232B91F480E0089520910201309131
:1049E0000301F9013296285F3F4F9191981721F00A
:1049F000E217F307D1F7EFCF81E008959C01FC01A6
:104A000032969FEF80E04191461751F09F3F19F495
:104A1000411101C0982F8F5F8630A9F79F3F09F49D
:104A20000895290F311D97FD3A95F9016283089584
:104A3000FC01329608962191261303C0DF011197DD
:104A40001C92E817F907B9F70895E62FE695E69561
:104A5000E695EE3170F4E80FF92FF11D677021E053
:104A600030E001C0220F6A95EAF78281822B8283AF
:104A7000089580916E0380FF0CC01F926F9389E7A9
:104A80009BE09F938F930E9457070F900F900F907A
:104A90000F900895E62FE695E695E695EE3178F4C9
:104AA000E80FF92FF11D677021E030E001C0220FFF
:104AB0006A95EAF7209582812823228308958091C0
:104AC0006E0380FF0CC01F926F938BE59BE09F935A
:104AD0008F930E9457070F900F900F900F9008959B
:104AE000682F80913401882359F08091C30387FF98
:104AF00007C080910001909101010E942525089531
:104B000080910201909103010E94FE240895682F74
:104B100080913401882359F08091C30387FF07C037
:104B200080910001909101010E944A250895809191
:104B30000201909103010E9418250895809134018B
:104B4000882379F08091C30387FF0BC0E0910001B7
:104B5000F091010132968EE1DF011D928A95E9F70D
:104B60000895E0910201F0910301329686E0F4CFBE
:104B700008950E94B8250895811106C081E08093B0
:104B8000B0030E94B925089582E0F9CF83E08093B5
:104B9000B0030E94B92508950E94BC25089581E0C4
:104BA0008093B0030E94B92508950E94CF250895EF
:104BB000089508950E94D9250895089508950E94A2
:104BC000D8250895CF930E94DD250E94AC170E943E
:104BD000DE25C0E08C2F0E943F16811105C0CF5FFB
:104BE000C830C1F7CF91089581E0FCCF85B78068C8
:104BF00085BF85B7806885BF08951F921FB61F9235
:104C000011248F939F93AF93BF938091B103811130
:104C100013C08091090490910A04A0910B04B091F3
:104C20000C044196A11DB11D8093090490930A04C0
:104C3000A0930B04B0930C04BF91AF919F918F91FF
:104C40001F901FBE1F90189580911104843031F180
:104C50000E9479081092B10388E190E020E40FB639
:104C6000F894A895809360000FBE2093600083B7EE
:104C7000817F846083BF83B7816083BF7894889588
:104C800083B78E7F83BF0FB6F894A895809160009C
:104C9000886180936000109260000FBE08950E94AA
:104CA0007E0C0E947E08089582E084BD93E095BD4D
:104CB0009AEF97BD80936E0008952FB7F894809176
:104CC000090490910A04A0910B04B0910C042FBF29
:104CD00008952FB7F8946091090470910A048091A7
:104CE0000B0490910C042FBF08959C014FB7F894CA
:104CF0008091090490910A04A0910B04B0910C04D6
:104D00004FBF821B930B0895CF92DF92EF92FF92D9
:104D10002FB7F894C0900904D0900A04E0900B04D7
:104D2000F0900C042FBFA7019601261B370B480BF0
:104D3000590BCA01B901FF90EF90DF90CF90089511
:104D400078941F921FB61F9211248F939F93AF9355
:104D5000BF938091090490910A04A0910B04B09133
:104D60000C040196A11DB11D8093090490930A04BF
:104D7000A0930B04B0930C04BF91AF919F918F91BE
:104D80001F901FBE1F90189587E797E79093010823
:104D90008093000888E19AE00FB6F894A895809374
:104DA00060000FBE90936000FFCF88E19AE00FB6DD
:104DB000F894A895809360000FBE90936000FFCF99
:104DC0008EE1489B02C08150E1F7489BFECF0895D9
:104DD000589880E28A95F1F7589A0895FC013BE0D3
:104DE0003A95F1F798E020E080E031E040E14A9523
:104DF000F1F7880F489B02C08160232742E04A9563
:104E0000F1F7000040E14A95F1F7915079F790E110
:104E10009A95F1F799B132E03A95F1F7000040E147
:104E20004A95F1F7917092272081920F908308950F
:104E3000A1E0B0E0EEE1F7E20C94253019828C019C
:104E40007C01E60EF11C0E151F0541F481E09981ED
:104E5000911180E02196E6E00C9441300E94E0261A
:104E6000CE0101960E94EE26F80181938F01EBCFCF
:104E7000509A589A08955098589AE89AE9E6F0E0BE
:104E800080818C7F808308956150770B91E001C011
:104E9000990F6A95EAF720E031E0911108C02223CA
:104EA00091F0589A80E28A95F1F758980895492F21
:104EB000482339F0589A232740E24A95F1F796950E
:104EC000ECCF5898F9CF5898EDCFFF920F931F93DE
:104ED000CF93DF93EC018C01060F111DC017D10792
:104EE00029F4CDB7DEB7E5E00C944230F9900E948A
:104EF000E82668E08F2D0E944427F0CF1F920F9282
:104F00000FB60F9211240F931F932F933F934F933C
:104F10005F936F937F938F939F93AF93BF93EF9321
:104F2000FF93CF93DF930F92CDB7DEB719820E9424
:104F3000E026CE0101960E94EE26082F06950695E2
:104F40000695282F22952570902F9570290F922F66
:104F5000937026952695920F982797708981982BA4
:104F600009F05CC0053008F059C080E18A95F1F77E
:104F7000589A509A82E08A95F1F700C0589888E0D4
:104F8000089F80011124D801AB5FBE4F1696ED91AA
:104F9000FC9117973097A9F06091B2017091B3011D
:104FA00014962D913C911597260F371F11968D91D0
:104FB0009C911297680F791F13964C9113978C91BF
:104FC0000995F801EB5FFE4F6381662351F0209154
:104FD000B2013091B30184819581820F931F0E94A9
:104FE00065270E94E82680E18A95F1F75898509845
:104FF000589A80E18A95F1F7F801EB5FFE4F6081E6
:10500000662351F02091B2013091B30181819281E8
:10501000820F931F0E9418270E94E0260F90DF91B5
:10502000CF91FF91EF91BF91AF919F918F917F9120
:105030006F915F914F913F912F911F910F910F9021
:105040000FBE0F901F9018950F931F93CF93DF9370
:10505000EC0105970CF04CC0F894509A589885E0F4
:105060008A95F1F700009C2F969595708C2F85708E
:10507000980F892F83709695969523E0CC0FDD1FAE
:105080002A95E1F7980F8E01092B0E94E82600C0AF
:1050900068E0802F0E94442780E18A95F1F75098BC
:1050A000589A489B1EC087E090E048991CC0FE01BA
:1050B000EB5FFE4F63816623F9F02091B2013091DE
:1050C000B30184819581820F931F0E94182781115B
:1050D00013C0509A589A7894DF91CF911F910F91F5
:1050E000089500C0DECF019729F4509A589A789419
:1050F00080E0F2CF00C0D9CF0E94E02680E28A95FE
:10510000F1F75898509A80E18A95F1F7CB5FDE4F1E
:105110006881662351F02091B2013091B3018981F9
:105120009A81820F931F0E9465270E94E826789437
:1051300081E0D2CF8091BD03089508959B01BA010B
:10514000909111049430E9F48F708093E9009FEFFF
:105150008091E800915085FD06C085ED8A95F1F7B4
:1051600000009111F5CF8091E80085FF0AC050E062
:1051700040E0C9010E945B2B8091E8008E7780930C
:10518000E800089543E050E0BC0182E00E949E28C0
:10519000089540E250E0BC0182E00E949E280895FC
:1051A000CF93DF93EC0148E050E0BC0181E00E9426
:1051B0009E2888E0FE01A5EBB3E001900D928A9550
:1051C000E1F7DF91CF9108958DEB9BE00E94BE0641
:1051D00080911004811109C00E94EB2C0E94482D7F
:1051E0008091E20084608093E200089589EB9BE067
:1051F0000E94BE0610921004089585EB9BE00E9469
:10520000BE060E94CF25089581EB9BE00E94BE065A
:1052100060910D0481E0611101C080E00E94C6250B
:1052200008958DEA9BE00E94BE069091110481E0F2
:10523000943009F080E060910D040E94CC2508951F
:105240002091B3032F5F822F62E30E94F32F9923F3
:1052500019F02093B30308951092B3038091B4031F
:105260008823F1F0809111048430C1F49091E90019
:105270009F702091EC00822F817020FD80E8892BA7
:1052800093E09093E9009091EB0090FF04C090911F
:10529000EE0097FD08C08F708093E9001092B40370
:1052A00008951092F1009091E80095FDFACF909149
:1052B000E80090FFF0CF9091E8009E779093E8008F
:1052C000EACF42E061EC81E00E94672C42E261ECAF
:1052D00082E00E94672C42E261EC83E00E94672C2E
:1052E0009091110481E0943009F080E060910D0408
:1052F0000E94BC25089580911304833009F461C095
:1053000030F48130D1F1823009F49EC008958A30A2
:1053100009F48AC08B3009F46FC0893009F050C09D
:1053200080911204813209F04BC080911604909153
:105330001704029708F044C08091E800877F8093AB
:10534000E8008091E80082FF37C09091F3008091DF
:10535000F200029731F48091F100813011F0863033
:1053600021F48091F1008093BD038091E8008B7758
:105370008093E8000E949B2C23C080911204813A04
:10538000F9F48091E800877F8093E800809116040B
:1053900090911704892B61F468E085EB93E070E04D
:1053A0000E94AA2B8091E8008B778093E8000895F3
:1053B00060E090E080E0F3CF809111048111C1CFD3
:1053C000089580911204813AD9F780911604909142
:1053D0001704892BA9F78091E800877F8093E80064
:1053E0008091E80080FFFCCF809134018093F10030
:1053F0008091E8008E77BCCF80911204813201F752
:105400008091160490911704892BD1F68091E800C1
:10541000877F8093E8000E949B2C809114048093E6
:1054200034010E947E0C089580911204813241F66D
:105430008091E800877F8093E8000E949B2C8091F8
:1054400015048093BE03089580911204813A09F0F7
:10545000B7CF8091E800877F8093E8008091E800D3
:1054600080FFFCCF8091BE03C1CF9FB7F89410920C
:10547000B4039FBF90911104943009F048C020916B
:10548000E9002F703091EC00932F917030FD90E87F
:10549000922B23E02093E9002091EB0020FF34C001
:1054A0002091EE0027FF30C02091B203222321F08B
:1054B0002091E80025FF28C01092B20326E0309129
:1054C000E80035FF14C08093F1008091E80085FD6D
:1054D00027C08091E80080FFFCCF8091E8008E77A4
:1054E0008093E8009F709093E90080E008953091E8
:1054F0001104343049F43091EB0035FD05C02150E2
:1055000041F481E08093B2039F709093E9008FEFA4
:105510000895EFE9FFE03197F1F700C00000CFCF29
:105520008FB7F89421E02093B4038FBFDBCF84B70B
:10553000877F84BF0FB6F894A8958091600088613A
:1055400080936000109260000FBE80E890E00FB67C
:10555000F89480936100909361000FBE0E94D5255E
:1055600008950E94EB2C0E94482DE2EEF0E080812D
:105570008460808378940E94C62F08958AE291E027
:105580000E94A623089580911104853071F48091C2
:105590006E0380FF04C087E99BE00E94BE068091F5
:1055A0001104853019F00E944F2608950E94242688
:1055B00080910F04882399F30E94E225882379F3D0
:1055C0000E94452B0E947E0CEACF08959A014091DB
:1055D0001804509119040E94EE2A0895492F552766
:1055E0004330510521F168F44130510509F443C0BD
:1055F0004230510509F444C090E080E050E040E0C2
:1056000026C04132510551F142325105A9F76330AC
:10561000710590F7FB01EE0FFF1FEE56FD4F408125
:10562000518161577D4FFB01808190E010C0992727
:105630008130910581F0009729F00297E9F6E1ECBD
:10564000FBE002C0E1EEFBE0849190E0AF01F901E4
:10565000518340830895E3EDFBE0F6CF633071059D
:1056600058F6660F771FFB01E856FD4F40815181C8
:1056700089E090E0ECCF82E190E040E45CE0E7CFAD
:105680008BE590E045EE5BE0E2CF80E189BD82E111
:1056900089BD09B400FEFDCF8091D8008F7D809335
:1056A000D8008091E00082608093E0008091E0006B
:1056B00081FDFCCF0895AF92BF92CF92DF92FF920F
:1056C0000F931F93CF93DF936C01EB018A010E942C
:1056D000BA2CF82E811123C00115110539F0F801FB
:1056E00080819181C81BD90BC80ED91EB12CA12C69
:1056F0002097A9F08091E80085FD22C08091E80004
:105700008E778093E80001151105A1F0F8018081E2
:105710009181A80EB91EB182A08285E0F82E8F2D4E
:10572000DF91CF911F910F91FF90DF90CF90BF90AD
:10573000AF9008950E94BA2C8823D1F2F82EEFCFB3
:10574000F60181916F018093F1002197FFEFAF1A6D
:10575000BF0ACECFFC0180911804909119048617DE
:105760009707A0F06115710529F49091E8009E77E4
:105770009093E80090E06115710551F4911108C013
:105780008091E80082FF34C080E00895BC01F2CF30
:10579000809111048823C1F18530C1F18091E80026
:1057A00083FD30C08091E80082FDEACF8091E8005F
:1057B00080FFE1CF8091F3002091F200382F611536
:1057C000710519F02830310558F091E02830310585
:1057D00009F090E02091E8002E772093E800CBCFED
:1057E00081918093F100615071092F5F3F4FE7CFA6
:1057F00080911104882341F0853041F08091E800C8
:1058000083FFBECF81E0089582E0089583E008958C
:10581000FC01809118049091190486179707A0F055
:105820006115710529F48091E8008E778093E80076
:1058300090E06115710551F4911108C08091E80064
:1058400082FF35C080E00895BC01F2CF8091110441
:105850008823C9F18530C9F18091E80083FD31C00A
:105860008091E80082FDEACF8091E80080FFE1CFDF
:105870008091F3002091F200382F6115710519F025
:105880002830310558F091E02830310509F090E0DA
:105890008091E8008E778093E800CBCF849180934D
:1058A000F1003196615071092F5F3F4FE6CF809133
:1058B0001104882341F0853041F08091E80083FF96
:1058C000BDCF81E0089582E0089583E00895982F88
:1058D000973028F08F708093E90081E008959093CD
:1058E000E900242F762F50E0981731F07091EC00EA
:1058F0002091ED005091F00021FD02C09F5FE8CFA4
:105900003091EB003E7F3093EB003091ED003D7F16
:105910003093ED003091EB0031603093EB007093E9
:10592000EC002093ED005093F0002091EE0027FD55
:10593000E5CF80E008958091120487FF13C0809125
:10594000E80082FF06C08091E8008B778093E80032
:1059500004C0809111048111F2CF08958091110447
:105960008823D9F38091E80080FFF8CF8091E80088
:105970008E77ECCF2091E4003091E50095E6A90107
:105980002091EC00822F817020FF06C08091E800FA
:1059900080FF06C080E008952091E80022FD1AC033
:1059A00080911104882389F0853089F08091EB0083
:1059B00085FD0FC02091E4003091E50042175307A8
:1059C000F9F29150E1F684E0089582E0089583E0D1
:1059D000089581E008950E945A2D0E94622DE0EE04
:1059E000F0E0808181608083E8EDF0E080818F7756
:1059F000808319BCA7EDB0E08C918E7F8C93808161
:105A00008F7E80831092100408950F931F93CF937D
:105A1000DF930E945A2D0E94622DC8EDD0E088814C
:105A20008F77888388818068888388818F7D888349
:105A300019BC1092110410920D0410920F041092D0
:105A40000E0400EE10E0F80180818B7F8083888156
:105A50008160888342E060E080E00E94672CE1EE94
:105A6000F0E080818E7F8083E2EEF0E080818160D3
:105A70008083808188608083F80180818E7F80832D
:105A8000888180618883DF91CF911F910F91089564
:105A9000E8EDF0E080818F7E8083E7EDF0E08081AB
:105AA0008160808384E082BF81E0809310040E9443
:105AB000052D0895E8EDF0E080818E7F80831092BF
:105AC000E20008951092DA001092E10008951F920A
:105AD0000F920FB60F9211242F933F934F935F9322
