:100000000C9445040C9462040C9462040C94A11F9B
:100010000C9462040C9462040C9462040C946204C8
:100020000C9462040C9462040C945B260C942E27AE
:100030000C949D210C9462040C9462040C94620450
:100040000C9462040C9462040C9462040C94620498
:100050000C9462040C945E220C9462040C9462046E
:100060000C9462040C9462040C9462040C94620478
:100070000C9462040C9462040C9462040C94620468
:100080000C9462040C9462040C9462040C94620458
:100090000C9462040C9462040C9462040C94620448
:1000A0000C9462040C9462040C94620429001E00F7
:1000B0001F002000210022002B0014001A0008005D
:1000C00015001700E00004001600070009000A00F0
:1000D000E1001D001B000600190005000000E20001
:1000E000E30001512C002F003500270026002500D9
:1000F000240023002D00130012000C0018001C0027
:10010000340033000F000E000D000B00E500380036
:1001100037003600100011000000E7002A000251ED
:100120002800300001000100010001000100010071
:100130003A003B003C003D003E003F0035001E02FF
:100140001F02200221022202010001000100010021
:100150000100010000000100010001000100010098
:100160000100010001000100010001004500440000
:1001700043004200410040003502270226022502CA
:1001800024022302310230022F022E022D0200002F
:100190000000010001000100010001000100010058
:1001A000010001000100010035001E001F002000B9
:1001B000210022003A003B003C003D003E003F0091
:1001C000400041004200430044004500000001009F
:1001D0000100010001000100010001000100010017
:1001E0000100010001002700260025002400230053
:1001F00000004F005200510050000000310030005C
:100200002F002E002D002E02000001000100010031
:1002100001000100000000000000000000000000DC
:1002200000000000000000000000000000000000CE
:1002300000000000000000000000000000000000BE
:1002400000000000000001000100010001000000AA
:10025000000000000000000000000000000000009E
:10026000000000000000000000000000000000008E
:10027000000000000000000000000000000000007E
:1002800000000100010001000100000000AE00AF0D
:1002900000DA0281FFD9F1DB20A4A62EAF00A0C0B6
:1002A00000A1C800AED580A81FD300408D14200047
:1002B0000000000000003E5B4F5B3E003E6B4F6B5A
:1002C0003E001C3E7C3E1C00183C7E3C18001C5727
:1002D0007D571C001C5E7F5E1C0000183C1800004F
:1002E000FFE7C3E7FF00001824180000FFE7DBE783
:1002F000FF0030483A060E00262979292600407F63
:1003000005050700407F05253F005A3CE73C5A00A1
:100310007F3E1C1C0800081C1C3E7F0014227F220C
:1003200014005F5F005F5F0006097F017F000066C9
:1003300089956A0060606060600094A2FFA29400EA
:1003400008047E04080010207E20100008082A1CE3
:100350000800081C2A0808001E10101010000C1EAF
:100360000C1E0C0030383E383000060E3E0E0600E3
:1003700000000000000000005F0000000007000710
:100380000000147F147F1400242A7F2A12002313F4
:100390000864620036495620500000080703000038
:1003A000001C224100000041221C00002A1C7F1C6E
:1003B0002A0008083E080800008070300000080885
:1003C0000808080000006060000020100804020017
:1003D0003E5149453E0000427F4000007249494974
:1003E00046002141494D33001814127F1000274563
:1003F000454539003C4A494931004121110907006E
:10040000364949493600464949291E000000140072
:1004100000000040340000000008142241001414C1
:1004200014141400004122140800020159090600A6
:100430003E415D594E007C1211127C007F494949B2
:1004400036003E41414122007F4141413E007F490B
:10045000494941007F09090901003E4141517300AA
:100460007F0808087F0000417F4100002040413F95
:1004700001007F08142241007F40404040007F027D
:100480001C027F007F0408107F003E4141413E0076
:100490007F09090906003E4151215E007F091929A3
:1004A000460026494949320003017F0103003F40CD
:1004B00040403F001F2040201F003F4038403F0089
:1004C0006314081463000304780403006159494D60
:1004D0004300007F41414100020408102000004118
:1004E00041417F00040201020400404040404000BE
:1004F0000003070800002054547840007F2844443B
:100500003800384444442800384444287F00385494
:100510005454180000087E0902001824241C780096
:100520007F080404780000447D4000002040403DE6
:1005300000007F102844000000417F4000007C0440
:10054000780478007C080404780038444444380077
:100550007C1824241800182424187C007C08040427
:10056000080048545454240004043F4424003C40F0
:1005700040207C001C2040201C003C4030403C00BF
:100580004428102844004C9090907C004464544CC3
:1005900044000008364100000000770000000041E0
:1005A000360800000201020402003C2623263C001B
:1005B000000000000080808080000000000080E0DB
:1005C00070180C1830E080000010F890103078306F
:1005D00010B8FC3810000000000000F8FCF8000023
:1005E00000000000000000000000001C9C1C000037
:1005F0000000F8FCF80000000000001CFCF8C0003F
:10060000000000000080E0F87C1C000000F0FCFC12
:10061000FC1C1C1C1C1C1C1C1C000000000000C03E
:10062000F0F8381C1C1C1C1C1C3CF8F0E000E0F02E
:10063000F0F0E0ECEEF7F37020007C7C7C7E007E36
:100640007E7E7F7F7F000080C0E07E5B4F5BFEC0D0
:100650000000C000DCD7DEDEDED7DC00C00000001A
:10066000000000000000000000000000000000008A
:1006700000000000000FBCE0818181838382870C31
:10068000183060C000001FFE90B9FFBB91983C1865
:1006900011133F1100000000000000FFFFFF0000E9
:1006A0000000000000000000000000FFFFFF00004D
:1006B0000000FFFFFF0000000000000000030F7FAC
:1006C000F8E080F0FC3F0F0100000000003F3F3FDA
:1006D0001C1C1C1C1C3C78F8F0E08000000000C3CF
:1006E000E7FF7E3C3878787070F8FFDF87000F1FD7
:1006F0003F7F7F7F7F7F3F1E0C001F1F1F3F003FFC
:100700003F3F7F7F7F00307B7F7830202030787FB5
:100710003B0003000F7F0F0F0F7F0F00030000004F
:1007200000000000000000000000000000000000C9
:10073000183C24666341C18180808080808081C1B3
:100740004162386C4CC68181808080808081C14349
:1007500062361C1800000000000000FFFFFFC0C050
:10076000C0C0C0C0C0C0C0800000007FFF7F0000CC
:1007700000007FFFFFC080000000E0E0C0C0C0E0DC
:10078000F97F1F0700000000000000000070F0E08B
:10079000E0C0C0C0C0E0F0F87F3F0F0000000F3F96
:1007A0007FF9E0E0C0C0C0C0C0E0F97F3F1F00009B
:1007B0000000000000000000000000000000000039
:1007C0000000000000000000000000000000000029
:1007D0000000000000000000000000000000000019
:1007E0000000000000000000000000000000000009
:1007F0000E034C0069006C007900350038000000E1
:1008000010036C0069006C00690075006D007300D6
:1008100000000403090409022200010100A0FA09F2
:10082000040000010301010009211101000122401F
:100830000007058103080001120100020000000802
:10084000D8042DEB00010102000105010906A101F8
:10085000050719E029E715002501950875018102B2
:100860009501750881010507190029FF150026FF6C
:10087000009506750881000508190129059505757B
:10088000019102950175039101C011241FBECFEFA4
:10089000DAE0DEBFCDBF12E0A0E0B1E0E2E2F9E5D0
:1008A00002C005900D92A433B107D9F725E0A4E367
:1008B000B2E001C01D92AA3AB207E1F70E94AC185B
:1008C0000C946A2C0C94000080918F0290919002FD
:1008D000A0919102B091920284309105A105B105D9
:1008E000E1F128F50097A105B10571F16DE871E01E
:1008F00082309105A105B10549F1BF93AF939F9354
:100900008F9388EA91E09F938F931F9288E18F9352
:100910008DE593E09F938F930E9448298DB79EB7F2
:100920000A960FB6F8949EBF0FBE8DBF13C08830D5
:100930009105A105B10529F08E309105A105B105FC
:10094000E1F66AE971E002C061E771E08DE593E0EC
:100950000E9441298DE593E0089560E871E0F6CFAB
:1009600080E091E00895CF939C01FB01C0E28C33BD
:10097000910520F4DC01A653BE4FCC911F92CF937A
:100980003F932F9380811F928F9381811F928F932A
:1009900089EB91E09F938F931F9288E18F938DE471
:1009A00092E09F938F930E9448298DB79EB70E9631
:1009B0000FB6F8949EBF0FBE8DBF80913602909106
:1009C0003702449761F4109237021092360244E1E4
:1009D00050E060E270E088E392E00E943A29809162
:1009E000360290913702FC01E85CFD4FC08301960E
:1009F0009093370280933602CF9108958DE492E070
:100A0000089588E392E008950F9303E022E041E027
:100A10000E948A050F910895CF93C82F0E94551602
:100A2000811101C0C2E08C2FCF9108950E9455160C
:100A3000882389F00E94640460E00E94681A0E9482
:100A4000FE0460E00E94681A0E94010560E00E94B6
:100A5000681A80E008950E94B00460E00E944C1A79
:100A6000F8CFFB01228121110E94B30481E0089597
:100A700081E008950C94310508950C943C051F9372
:100A8000CF93DF9300D000D00F92CDB7DEB749836C
:100A90005A836B833091660289819A8131111DC01E
:100AA0006623B9F02223A9F00E945F0C182F682F4B
:100AB00089819A810E94080C69817A81812F0F9027
:100AC0000F900F900F900F90DF91CF911F910C948A
:100AD000F1120E94360C182FEFCF0E945F0C698133
:100AE0007A81EDCFFC01262F408151816281738193
:100AF00084810C943F0581E00895CF93DF93D82F34
:100B0000C92F60E00E9472056D2F7C2FDF91CF917D
:100B10000C943D058F929F92AF92BF92CF92DF923D
:100B2000EF92FF920F931F93CF93DF9300D000D0EB
:100B3000CDB7DEB76B017C0181E090E0A0E0B0E0D2
:100B40004C015D0104C0880C991CAA1CBB1C4A9571
:100B5000D2F7B501A4014C015D0104C0880C991CB9
:100B6000AA1CBB1C2A95D2F7482959296A297B2936
:100B700004C0880F991FAA1FBB1F0A95D2F78A01CC
:100B80009B010C211D212E213F210417150726074B
:100B90003707F9F49C01AD012C293D294E295F2925
:100BA00029833A834B835C8369817A818B819C8121
:100BB0000F900F900F900F90DF91CF911F910F9199
:100BC000FF90EF90DF90CF90BF90AF909F908F906D
:100BD000089580959095A095B0954C015D018C206D
:100BE0009D20AE20BF2089829A82AB82BC82DCCF5E
:100BF0000C9483140C94861408950E94EE090E94AC
:100C0000FC052FEF84E39CE0215080409040E1F709
:100C100000C000000C9482220F931F93CF93DF93A8
:100C20008C0161E00E947205EC01B8010E943A0556
:100C30008823A9F1B801CE010E94941D882379F17F
:100C4000B801CE010E94021C882349F1B801CE01EF
:100C50000E94FE1C882319F1F8018281882361F02B
:100C6000CB35FDE5DF0721F170F4C115ECE5DE07BA
:100C7000A1F0CF3DDC45C9F0C801DF91CF911F91B4
:100C80000F910C943805CC358DE5D807A1F0CD3502
:100C9000DD4591F70E948210EFCF0E94FD0580E0B4
:100CA000DF91CF911F910F9108950E943611F7CFD8
:100CB0000E948B10E1CF0E948E10DECF0E94822115
:100CC0000E9478060C94941B0E947B060C9486214B
:100CD00008950C94680681E008950C946B060895BD
:100CE000CF93C82F0E9469068C2FCF910C946D066C
:100CF00080E00C9470060E94C8200C9470060E943C
:100D0000C82090916502981721F0809365020C9499
:100D100070060895EF92FF920F931F93CF93DF9386
:100D2000CDB7DEB72B970FB6F894DEBF0FBECDBFA1
:100D3000042F4F83152F588769877A878B87EA841A
:100D4000FB8461110E94D00F1E8285E0FE01379660
:100D5000DE01119601900D928A95E1F7EF28A9F432
:100D600049815A816B817C818D819E810E94EF0E29
:100D70002B960FB6F894DEBF0FBECDBFDF91CF919B
:100D80001F910F91FF90EF90089510231F3F41F3A3
:100D9000CE0101960E947B058111E2CFE9CFFC01D3
:100DA000808191810C94A10CCF93C82F882329F1C5
:100DB0008CEF8C0F813AA0F46C2F809142019091BE
:100DC00043010E942421882329F08C2F0E94900F38
:100DD0000E94F00F8C2F0E94890FCF910C94F00F7E
:100DE00080E28C0F883048F4C77081E001C0880F22
:100DF000CA95EAF70E94B10FF0CFCF9108958823EA
:100E000029F19CEF980F913A20F40E94900F0C94D6
:100E1000F00F90E2980F983050F4877091E001C085
:100E2000990F8A95EAF7892F0E94B70FF0CF9BE5BB
:100E3000980F933020F490E080E00C94E620885ADC
:100E4000873120F490E080E00C94FC2008951F93FB
:100E5000CF93DF93182FEB010E94D406209731F433
:100E6000812FDF91CF911F910C94FF068FE99FE0B6
:100E70000197F1F700C000002197F0CF70E060E02B
:100E8000893311F460E570E00C942707882321F082
:100E90000E94B10F0C94F00F0895882321F00E9456
:100EA000B70F0C94F00F0895BF92CF92DF92EF929C
:100EB000FF920F931F93CF93DF9300D000D00F9238
:100EC000CDB7DEB76C016D837983FC011281F580AB
:100ED000F2949FE0F9220E94A70FE82E8823C1F028
:100EE000E12E1123A9F08981807F803429F08D8142
:100EF000805E883008F44BC080917A0382FD47C041
:100F000082E00E9451100E94A70F91E0E82EE9268E
:100F1000B980B2948FE0B822F8E0BF1609F4F3C0AC
:100F2000FB15B8F101E00B1508F047C08EE08B0D02
:100F30008F70823008F475C0EB2DE850FF0B3497AA
:100F400020F40E94C8200E947006EE2009F4ECC133
:100F50000E94A30F80FDE8C1F60112820E949D0F3E
:100F60000E94F80AC6010E94BA090E949D0F0F90C4
:100F70000F900F900F900F90DF91CF911F910F91D5
:100F8000FF90EF90DF90CF90BF900C94290BE12C55
:100F9000BFCF29E0B21609F462C186E08B0D8F70D5
:100FA000823050F60D81023F09F06AC189818F714C
:100FB000111163C10E94F80ABFCF09810F70298106
:100FC000207F11F00295007F1123A1F0002361F032
:100FD0008D81805E883018F01D81111107C0802F2F
:100FE0000E94B10F0E94F00F8D8144C0802F0E949B
:100FF000C20FF8CF8D810E94FF06002309F49CCF19
:101000008D81805E883018F01D81111104C0802F01
:101010000E94B70F03C0802F0E94C80F0E94F00FDC
:101020008BCF09810F702981207F203211F002952A
:10103000007F3D81332381F0313009F445C0112315
:1010400009F44FC0FF2009F445C0F601858180FFF7
:10105000CBCF8F7085833EC080917A0382FF14C00E
:10106000112359F0002329F0802F0E94B10F0E9414
:10107000F00F80E00E94D4065FCF80E00E94FF0660
:10108000002309F459CFC3CF112389F0F11006C012
:101090000E94D30F802B0E9446074ECF81E0F812AA
:1010A000F7CF0E94D30F802B0E94D90F45CFF110AC
:1010B00006C00E94E60F802F0E944D073DCF91E0B1
:1010C000F91609F439CFF5CF112331F0E5E0EF152A
:1010D00008F432CF802FDFCFF4E0FF1508F42CCFD7
:1010E000EACFFF2041F30D81093349F41FEF27EECA
:1010F00033E0115020403040E1F700C000008D8106
:101100000E94FF0619CF8981837009F050C0111128
:1011100013CF2D81229526952770220F220F4D8106
:101120004F7050E070E060E0022E04C0440F551F85
:10113000661F771F0A94D2F70D8180E090E0DC01F2
:1011400004FF0FC08FE090E0A0E0B0E004C0880F83
:10115000991FAA1FBB1F2A95D2F780959095A0953D
:10116000B09519811695169513701D838C019D01FC
:10117000042B152B262B372B09831A832B833C83B7
:101180001D8169817A818B819C81123051F01330ED
:1011900059F0113019F00E94700ACECE0E94480A10
:1011A000CBCE0E94980AC8CE0E94460AC5CE112313
:1011B00009F448C0098100FFBFCE2D8122952695F4
:1011C0002770220F220F4D814F7050E070E060E0D9
:1011D000022E04C0440F551F661F771F0A94D2F7D2
:1011E0000D8180E090E0DC0104FF0FC08FE090E013
:1011F000A0E0B0E004C0880F991FAA1FBB1F2A956A
:10120000D2F780959095A095B09519811695169571
:1012100013701D838C019D01042B152B262B372B5E
:1012200009831A832B833C831D8169817A818B8199
:101230009C81123071F0133079F0113039F00E9436
:10124000B70B7ACE198111FF77CEB7CF0E948F0BE3
:1012500073CE0E94DF0B70CE0E94C20A6DCE098150
:101260000F700983112329F0802F0E94F80A8D81C5
:1012700012CF8D810E944D0789810E94290B5CCE7F
:101280000D81033F60F4003FC1F0013F89F011235D
:1012900009F445C0F110A8CE89818F718BCE0D81E4
:1012A000033FD9F0043F99F780917A0382FF1FC072
:1012B00089818F71112309F37DCE112349F014E048
:1012C0001F1508F439CE89818F710E945E0B34CED0
:1012D00025E02F1508F430CEF6CF112329F08981AF
:1012E0008F710E94D30A28CE0E94CE0A25CE1123E8
:1012F00059F009810F710983802F0E94F80A63E079
:1013000089810E94361018CE81E00E94511011E0B0
:101310001F1508F011CE82E00E9451100DCEF11081
:10132000E2CE89818F71A9CF0F900F900F900F900F
:101330000F90DF91CF911F910F91FF90EF90DF9071
:10134000CF90BF9008950F931F93CF93DF93EC013D
:10135000688179818A810E94AD0C8C010E94070C02
:101360000E94450AB801CE01DF91CF911F910F91E4
:101370000C945407CF93DF93EC01988189812B81E2
:101380003C81232B19F089238F3F59F4DF91CF91B2
:101390000895CE010E94A309CE01DF91CF910C9454
:1013A0007D05CE010E940C068111F3CF0E94A70F8C
:1013B000882361F38A81882349F380917A0382FD2F
:1013C000E5CF82E0DF91CF910C9451100E94D00FB5
:1013D0000C94F00F0E94970F0C94E6090E94BF0F27
:1013E0000C94EA09282F92959F70963091F060F442
:1013F000925F9F70923030F481E0203F81F030F4B2
:10140000283E30F080E008959A5FF3CF243FD1F773
:10141000089581E0283EE0F3213FA1F7F9CF089538
:10142000FC01808191810E94A10C0C94F209CF9360
:10143000DF9300D000D00F92CDB7DEB70F900F90A2
:101440000F900F900F90DF91CF910895CF93DF937E
:1014500000D000D000D0CDB7DEB726960FB6F894F6
:10146000DEBF0FBECDBFDF91CF91089508950C94DC
:10147000360A0E94370A6093930270939402809315
:101480009502909396020C94E60908950C94390AFB
:10149000CF93DF9300D000D0CDB7DEB769837A83D6
:1014A0008B839C838091930290919402A0919502EA
:1014B000B091960229813A814B815C81282B392B8E
:1014C0004A2B5B2B29833A834B835C83CA01B90186
:1014D0000F900F900F900F90DF91CF910C94390ADD
:1014E000CF93DF9300D000D0CDB7DEB769837A8386
:1014F0008B839C838091930290919402A09195029A
:10150000B091960229813A814B815C81282339234D
:101510004A235B2329833A834B835C83CA01B90145
:101520000F900F900F900F90DF91CF910C94390A8C
:10153000CF93DF9300D000D0CDB7DEB769837A8335
:101540008B839C838091930290919402A091950249
:10155000B091960229813A814B815C8128273927F5
:101560004A275B2729833A834B835C83CA01B901ED
:101570000F900F900F900F90DF91CF910C94390A3C
:101580000C9404050E94C00A60938F02709390022D
:1015900080939102909392020C94E60960E070E0CF
:1015A000CB010C94C20A0F931F93CF93DF9300D00B
:1015B00000D0CDB7DEB741E050E060E070E08A01D6
:1015C0009B0104C0000F111F221F331F8A95D2F701
:1015D00009831A832B833C83C901B8010F900F90B4
:1015E0000F900F90DF91CF911F910F910C94C20A31
:1015F0000F931F93CF93DF9300D000D0CDB7DEB70A
:1016000041E050E060E070E004C0440F551F661FE9
:10161000771F8A95D2F780918F0290919002A091C6
:101620009102B09192028A019B01082B192B2A2B5F
:101630003B2B09831A832B833C83C901B8010F908C
:101640000F900F900F90DF91CF911F910F910C94FD
:10165000C20A0F931F93CF93DF9300D000D0CDB772
:10166000DEB741E050E060E070E004C0440F551F79
:10167000661F771F8A95D2F74095509560957095B3
:1016800080918F0290919002A0919102B09192026C
:101690008A019B01082319232A233B2309831A83E8
:1016A0002B833C83C901B8010F900F900F900F90CE
:1016B000DF91CF911F910F910C94C20A0F931F934A
:1016C000CF93DF9300D000D0CDB7DEB741E050E03C
:1016D00060E070E004C0440F551F661F771F8A95B5
:1016E000D2F780918F0290919002A0919102B091D7
:1016F00092028A019B01082719272A273B27098381
:101700001A832B833C83C901B8010F900F900F906F
:101710000F90DF91CF911F910F910C94C20ACF933C
:10172000DF9300D000D0CDB7DEB769837A838B8397
:101730009C8380918F0290919002A0919102B09130
:10174000920229813A814B815C81282B392B4A2BCB
:101750005B2B29833A834B835C83CA01B9010F90C9
:101760000F900F900F90DF91CF910C94C20ACF93FE
:10177000DF9300D000D0CDB7DEB769837A838B8347
:101780009C8380918F0290919002A0919102B091E0
:10179000920229813A814B815C81282339234A2393
:1017A0005B2329833A834B835C83CA01B9010F9081
:1017B0000F900F900F90DF91CF910C94C20ACF93AE
:1017C000DF9300D000D0CDB7DEB769837A838B83F7
:1017D0009C8380918F0290919002A0919102B09190
:1017E000920229813A814B815C81282739274A2737
:1017F0005B2729833A834B835C83CA01B9010F902D
:101800000F900F900F90DF91CF910C94C20A089522
:10181000E92FEE0FE90FEE0FE80F8E2F877041E0F2
:1018200001C0440F8A95EAF7E695E695E69585E0CE
:10183000E89FF0011124E959FD4F30E020E070E00D
:101840005191DF011197CB01022E02C09695879529
:101850000A94E2F7817081958527842385278C93EC
:101860002F5F3F4F2530310559F70895E92FEE0FCF
:10187000E90FEE0FE80F9E2F9770E695E695E69537
:1018800085E0E89FF0011124E959FD4F50E040E068
:1018900080E0219130E0092E02C0369527950A9408
:1018A000E2F721703327042E01C0220F0A94EAF7D1
:1018B000822B4F5F5F4F4530510559F70895BF9216
:1018C000CF92DF92EF92FF920F931F93CF93DF930C
:1018D0008C01C0908F02D0909002E0909102F09025
:1018E00092028091930290919402A0919502B091FE
:1018F0009602C82AD92AEA2AFB2ACFE1D0E0BC2ED8
:10190000D701C6010C2E04C0B695A795979587956B
:101910000A94D2F780FD0EC0219788F7B12C8B2D49
:10192000DF91CF911F910F91FF90EF90DF90CF90BB
:10193000BF900895B8018C2F0E940513019761F3A1
:10194000EECFCF93DF93D82FC92F0E945F0C6D2F5E
:101950007C2FDF91CF910C9405131F93CF93DF93CE
:10196000162FD72F90916602992339F0862F972F43
:10197000DF91CF911F910C94A10C882391F0862FB9
:10198000972F0E945F0CC82F682F812F9D2F0E94D8
:10199000080C612F7D2F8C2FDF91CF911F910C941C
:1019A0000513862F972F0E94360CC82FF2CF1F9356
:1019B000CF93DF93E091970216E0809198028E1307
:1019C00004C0DF91CF911F910895CE2FD0E01E9FCC
:1019D000F0011124E756FD4F4081518162817381EE
:1019E000848195810E94260A2196EC2FE770E5CF2D
:1019F0004091C9025091CA026091CB027091CC0211
:101A00008091CD029091CE020C94260AFF920F9302
:101A10001F93CF93DF938091CE02807FD1F480918A
:101A2000CB028823B1F080919702109198027091B7
:101A3000C9026091CA02A091CC02B091CD02062FDA
:101A40000723C0914001D091410196E0F92E18136F
:101A500006C0DF91CF911F910F91FF90089590E004
:101A6000109711F00F3F19F401968770F0CFF89E90
:101A70009001F99E300D1124F901E756FD4F418187
:101A80006413F2CF40814713EFCF42814111ECCF75
:101A9000438154814A1B5B0B4C175D0728F78091EB
:101AA000CE028F7080618093CE02F901E256FD4F25
:101AB00080818F708061808389EC92E00E94BA09F6
:101AC000DF91CF911F910F91FF900C94D70CAF92A3
:101AD000BF92CF92DF92EF92FF920F931F93CF931B
:101AE000DF93CDB7DEB72B970FB6F894DEBF0FBEEE
:101AF000CDBF8C0185E0F801DE01179601900D92B3
:101B00008A95E1F7D8011296EC9012971396CD9032
:101B1000DC9089ECA82E82E0B82E2091C902909129
:101B2000CA024091CC025091CD024115510529F0D5
:101B3000892F82238F3F09F03BC1EE2009F44BC16E
:101B4000C8010E94100AF82E882309F444C186E0D7
:101B5000F801A9ECB2E001900D928A95E1F789ECC9
:101B600092E00E94CF060E94060DFAC08091CE023C
:101B7000E82FE07F4617570708F0ABC0D801119651
:101B80003C911197E111D8C0FE2C391325C09C91CE
:101B9000921322C0E11020C08F7080618093CE022A
:101BA0000E94F80C89EC92E00E94BA098091CE0262
:101BB000F80185838F2D2B960FB6F894DEBF0FBEEC
:101BC000CDBFDF91CF911F910F91FF90EF90DF90EC
:101BD000CF90BF90AF9008952F81CD2829F0832F0B
:101BE00082238F3F09F0A5C080E0F82FF170DF2E2F
:101BF000E09197024091980256E080FD1CC0EE20D3
:101C0000C9F28091CE0281608093CE02F12CD2CFB6
:101C10008E2F90E05E9FF0011124E756FD4F618109
:101C2000361306C06081621303C06281E612E7CFFB
:101C30000196E82FE770E413EBCF8F8198850E941F
:101C4000A10C292F22952F70903268F0225F2F70FF
:101C5000223080F49F7059F0D80115969C91907FA6
:101C600031F4D12C0AC09F7011F08823D1F3805E2B
:101C70008830B8F3C8010E94BA09FD2C9BCFC80177
:101C80000E94100A882309F4A6C0EE2009F4A3C01C
:101C90008091CE02803270F02091C9023091CA0248
:101CA0003A8329831B82DD82CC828E83CE0101960A
:101CB0000E94BA0986E0F801A9ECB2E001900D9209
:101CC0008A95E1F70E94060D0E94F80CFF24F39418
:101CD00071CFE11148C04F81588569857A858B8520
:101CE0000E94170A89EC92E00E94BA0986E0D501A9
:101CF0001D928A95E9F70E94F80C88CFC8010E94CE
:101D0000100A8111D7CF8091CE0281608093CE02DC
:101D1000C8010E94BA094ECF4F81588569857A85DE
:101D20008B850E94170A86E0D5011D928A95E9F7F6
:101D300017C081E08E2559CF3913A1CFF8019081CA
:101D400092139DCFE1109BCF8583C8010E94BA09F1
:101D500086E0F801A9ECB2E001900D928A95E1F7D6
:101D60000E94F80C27CFF8013181931388CFF80136
:101D70009081921384CFE11082CF8583C8010E94A5
:101D8000BA0986E0D5011D928A95E9F713CFD801EB
:101D900011968C919813B2CFF80180818213AECF47
:101DA00086E0A9ECB2E001900D928A95E1F702CFAE
:101DB000F090CB02F601E41BF50BAF0160914001FE
:101DC00070914101F110D2CE4617570708F0A4CF09
:101DD000FE2CE110DCCFC8010E94BA0977CF1F9317
:101DE000CF93DF93CDB7DEB72C970FB6F894DEBF55
:101DF0000FBECDBF4F83588769877A878B879C87B3
:101E0000CE0107960E94670D882369F08A859B851D
:101E1000892B39F058854F81852F84238F3F09F016
:101E200071C016E05FC086E0FE013796DE011196B4
:101E300001900D928A95E1F78F8198852091980203
:101E4000409197026A857B85672B59F389238F3FE1
:101E500041F330E0C90101968770992748171906A8
:101E600071F40E94EE09109298021092970286E097
:101E7000E9ECF2E0DF011D928A95E9F7D2CF96E016
:101E8000929FD001939FB00D1124A756BD4FFE0124
:101E9000319601900D929A95E1F7809398020E94F5
:101EA000D70CBFCF819FC001112487569D4F0E9440
:101EB000670D8823E9F0E09197021E9FF00111243D
:101EC000E756FD4F40815181628173818481958104
:101ED0000E94260A8091970290E0019687709927C8
:101EE0008093970280919702909198028913DACF9C
:101EF0002C960FB6F894DEBF0FBECDBFDF91CF9109
:101F00001F91089569857A858B859C850E94260A94
:101F100088CF682F80914201909143010C945E21FB
:101F2000682F80914201909143010C94602180912F
:101F30004201909143010C9462218091D7028595D2
:101F40008595859508958091D70287700895909121
:101F5000D702977081E009F480E008958091E20251
:101F600008959091E202982B9093E2020895982FA1
:101F700090958091E20289238093E2020895109265
:101F8000E20208959091E102982B9093E102089566
:101F9000982F90958091E10289238093E102089522
:101FA0001092E10208958091D802089508950C944A
:101FB000D60F90917A0392FD08C09091D80298179D
:101FC00021F08093D8020C94D70F08958091D80205
:101FD000882329F01092D80280E00C94D70F08953E
:101FE000CF93DF93E0914201F09143018091E202AF
:101FF0008083E0914201F091430180819091E10260
:10200000892B80839091D802992381F0E09142013D
:10201000F09143018081892B8083809142019091CE
:1020200043010E94122181110E94E60FC0914201DA
:10203000D091430148E050E06FEC72E0CE010E9485
:102040002429892B69F088E0FE01AFECB2E0019011
:102050000D928A95E1F7CE01DF91CF910C94DB20B0
:10206000DF91CF91089508950C94331090917A03E5
:1020700092FD10C098E0899F90011124622B60931B
:10208000D7020E94F80A8091D7028595859585959B
:102090000C9434100C94F80A1092D70280E00C943F
:1020A00034109091D702809589238093D702282FEE
:1020B000277091F4282F082E000C330B921713066B
:1020C00059F090917A0392FD07C085958595859585
:1020D0000E94290B0C944C10089590917A0392FB66
:1020E000222720F9281769F080FB92F990937A0350
:1020F0008091790390917A030E94B21082E00C944F
:102100005110089580917A0382FB882780F991E02D
:1021100089270C946D1081E00C946D1080E00C9474
:102120006D1090E080E00E94F92B9C0181E0293E37
:102130003E4F09F080E0089582E090E00C94F12B8E
:1021400083E090E00C94F12BCF9384E090E00E9428
:10215000F12BC82F82E290E00E94F12B982F8C2F58
:10216000CF910895CF93682FC92F84E090E00E940B
:10217000FF2B6C2F82E290E0CF910C94FF2BAB01F0
:10218000BC018FE090E00C94112CAB01BC0183E109
:1021900090E00C94112C60E070E0CB010C94C51021
:1021A00060E070E0CB010E94BF100C94CB1069EE90
:1021B0007EEF90E080E00E941D2C60E082E090E0E5
:1021C0000E94FF2B60E083E090E00E94FF2B1092C2
:1021D000930210929402109295021092960260E07F
:1021E00084E090E00E94FF2B60E082E290E00E9499
:1021F000FF2B60E085E090E00E94FF2B60E086E02E
:1022000090E00E94FF2B6FEF87E090E00E94FF2B91
:1022100040E050E0BA0188E090E00E94112C60E0BC
:102220008DE090E00E94FF2B40E050E0BA0188E191
:1022300090E00E94112C60E087E190E00E94FF2B6B
:1022400040E050E0BA018CE190E00E94112C70E077
:1022500060E080E290E00E941D2C40E050E0BA0176
:1022600088E190E00E94112C0C94D0100C94D710AF
:10227000682F8EE090E00C94FF2B0E940822609360
:10228000F1027093F2028093F3029093F402609350
:10229000ED027093EE028093EF029093F0020895A6
:1022A00085B7806885BF85B7806885BF0895089524
:1022B00008950C94581108950C945B110E945011CC
:1022C00087E494E10E94BE200E9457110C9459119A
:1022D0000C945516089508950E946A110C946B1180
:1022E0000E944A140C946F060E94F3210E94E4138A
:1022F0000E946F160E94A0150E9470110E94B918CA
:1023000080E00E9416190E9479160C945C119F922D
:10231000AF92BF92CF92DF92EF92FF920F931F93F3
:10232000CF93DF9300D000D00F92CDB7DEB70E94DD
:10233000C215D82E81110E943D1183EEA82E82E095
:10234000B82E10E000E0902E802F0E948814F82E06
:10235000F501E1905F01E81609F444C08091F502AF
:1023600081FD0E948E148E2D8F25C12CEE24E394C6
:10237000982F9E2191F10E946811882399F0C982BB
:102380009A82FE2081E009F480E08B830E94FC2188
:102390008160782F9D838C8349815A816B81892F3D
:1023A0000E948A06F801ED51FD4F80818E258083C1
:1023B00081E0D11001C080E00F900F900F900F903E
:1023C0000F90DF91CF911F910F91FF90EF90DF90D1
:1023D000CF90BF90AF909F900895C394EE0CF6E01D
:1023E000CF12C6CF0F5F1F4F0A30110509F0ABCFD8
:1023F0008FEF89838A831B820E94FC218160782F62
:102400009D838C8349815A816B81892F0E948A0622
:10241000CFCFCF930E948711C82F0E9455160E94DC
:10242000B11BC1110E946D1ACF910C947F06CF93FE
:10243000DF930E940913EC01811523E59207E0F573
:10244000811532E5930708F0A2C0C11580E2D807D4
:10245000E8F4CF3FD10509F068F4C53AD10570F42E
:10246000C430D10538F481E0219709F080E0C82F0D
:1024700020E0D22FCE01DF91CF910895CE01805E72
:1024800091090897B8F3D0E0C0E0F4CFC11531E569
:10249000D30768F4C11580E5D80708F05BC0CE010A
:1024A00090548115904178F7DF70D06AE3CFDC2F2C
:1024B000CC27C16FD06ADECF811539E59307A0F52F
:1024C000C11588E5D80708F07AC0C11525E5D207FF
:1024D000C8F4C11534E5D30708F06CC09E01237021
:1024E000332781E090E002C0880F991F2A95E2F718
:1024F000C695C69520E2C29FE0011124C82BD92BB6
:10250000DA68B8CFCE0195558F3F910511F008F0EC
:10251000BACF8C2F0E94A113C82FD0E0DC2FCC277C
:10252000CC27DF71D062A6CF81153AE5930708F476
:102530004BC090568115904208F0A5CF8D2F8F711A
:102540000E94A11390E0982F882788279F718C2BD9
:10255000EC01E8CF9E0174E0369527957A95E1F776
:1025600023708C2F86958695837030E2839FC001FF
:102570001124922BC37021E030E002C0220F331FE0
:10258000CA95E2F7822B932BEC01DC6873CF9C0198
:102590002370332781E090E002C0880F991F2A95AD
:1025A000E2F7C695C69520E2C29FE0011124C82B30
:1025B000D92BEBCFDC2FCC27C46FD06A5BCFDC2FBD
:1025C000CC27C06FD06A56CF8F700E94A11334E021
:1025D000D695C7953A95E1F7CF709C2FEC01D0695D
:1025E00049CF972F70E026E0929F600D711D112456
:1025F000FB019CE3899FE00DF11D1124EE0FFF1FED
:10260000E455FF4F8591949108950E94F1120C9426
:102610001712803E910599F1C8F48133910509F4B0
:1026200076C048F48932910509F46AC08A3291056E
:1026300009F474C0089589339105D1F08238910569
:10264000B9F08533910509F454C00895843E91058D
:1026500099F138F4823E9105F9F0833E910509F134
:102660000895863E910599F1873E9105B9F1089547
:10267000209179032370A1F080EE90E008952091DD
:10268000790320FD52C030917A0330FF09C024FF46
:102690004FC090E080E004C02091790322FDF7CF85
:1026A00008952091790322FD46C030917A0330FDD0
:1026B000E3CF24FFF5CFEDCF20917A0321FFF0CFB8
:1026C0008091790384FDE5CF87EE90E00895209115
:1026D000790323FFE5CF24FDDCCFF6CF20917903EA
:1026E00023FD2CC030917A0331FFE3CF84EE90E0DC
:1026F00008952091790325FFD3CF89E290E00895D2
:102700002091790325FFCCCF85E390E008952091B7
:10271000790326FFC5CF8AE290E0089520917903DE
:1027200026FFBECF81E390E0089589E390E008950D
:1027300083EE90E0089582EE90E0089586EE90E0BA
:1027400008959091790392FF06C0282F28712830B0
:10275000F9F4877F846093FF06C0282F2871283101
:10276000F1F4877E846120917A0320FF06C0382F20
:1027700038713830D9F4877F816021FF06C0282F57
:1027800028712831D1F4877E816194FD877E089578
:10279000282F24712430F9F68B7F8860DCCF282F16
:1027A0002471243101F78B7E8861DDCF382F3171A0
:1027B000313019F78E7F8860E0CF282F21712131C9
:1027C00021F78E7E8861E1CF109275031092760317
:1027D00010927703109278030895CF92DF92EF92D0
:1027E000FF92CF93DF9300D000D0CDB7DEB76B015F
:1027F0007C010E94551681110EC00E940822C61A43
:10280000D70AE80AF90AC0927503D0927603E092DB
:102810007703F09278030F900F900F900F90DF9155
:10282000CF91FF90EF90DF90CF900895CF93DF93FB
:1028300000D000D0CDB7DEB70E945516882341F0F6
:102840000F900F900F900F90DF91CF910C94082272
:102850000E94082269837A838B839C83809175030D
:1028600090917603A0917703B091780329813A8102
:102870004B815C81280F391F4A1F5B1FCA01B901B8
:102880000F900F900F900F90DF91CF91089580E0FF
:1028900008950895CF93DF9300D000D0CDB7DEB771
:1028A0000E949110811102C00E9436110E949C105A
:1028B0008093F5020E94A41090937A038093790389
:1028C0000E9449140E94A010282F30E050E040E000
:1028D000CA01B9010E94460A80918F02909190022C
:1028E000A0919102B091920289839A83AB83BC83B9
:1028F000BC01CD010F900F900F900F90DF91CF9101
:102900000C94C00A08950C94821408950C948514B4
:10291000E82FF0E0EA57FC4F80810895089580EA9F
:102920008A95F1F7089500C008950C948F140895C6
:102930000C949714DF92EF92FF920F931F93CF9313
:10294000DF9300D000D00F92CDB7DEB70E945516AE
:10295000182F60919003882309F44EC01A821982BF
:10296000FE01339683E0DF011D928A95E9F7862FF9
:1029700090E032977F01BF018A579C4F0E948716D3
:10298000DE2C0F2D882301F180917B0390E045E040
:1029900050E0B7018A579C4F0E94242921E02093E0
:1029A000F602892BE1F410E00E94FA05812F0F90C6
:1029B0000F900F900F900F90DF91CF911F910F917B
:1029C000FF90EF90DF9008958091F602882359F3ED
:1029D00085E0D7011D928A95E9F71092F602A09141
:1029E0007B03B0E0AA57BC4F85E0ED2DF02F01909E
:1029F0000D928A95E1F7D8CF70E06A577C4F8091AD
:102A00007B0390E08A579C4F0E9415170E949814F0
:102A1000CDCFF894E82FE295EF70F0E041A18F70F0
:102A200021E030E0B90102C0660F771F8A95E2F716
:102A3000CB01962F9095942391A392A1892B82A3E9
:102A400078940895CF93DF93CCE0D2E089918F3FC3
:102A500011F00E94091582E0C131D807B9F7C6E02C
:102A6000D2E089918F3F11F00E94091582E0CC30AD
:102A7000D807B9F7DF91CF910895CF92DF92EF9207
:102A8000FF920F931F93CF93DF93EC01D62E062F67
:102A900010E0C801845F9D4F7C01FC0180818F3F65
:102AA00009F445C0F894E82FE295EF70F0E091A1A9
:102AB0008F7021E030E001C0220F8A95EAF7892F5C
:102AC000822B81A382A12095282322A378940E949F
:102AD0009314E6E0F2E04CE052E091E0C12C8191E9
:102AE0008F3F79F0A82FA295AF70A05EB0E02C9137
:102AF00030E08F7002C0359527958A95E2F7892FCF
:102B000020FD80E0C82A990F4E175F0741F7F701B3
:102B100080818F3F11F00E94091561E0C11001C052
:102B200060E08D2D0E949514C00FD11FC882DF91E7
:102B3000CF911F910F91FF90EF90DF90CF9008956C
:102B4000809144018091440195E0811190E090933F
:102B5000900385E0891B80937B030E9422158AE005
:102B6000E6E8F3E0DF01982F1D929A95E9F7ECE78C
:102B7000F3E0DF011D928A95E9F785E00E941E16B9
:102B80000C94F805DF92EF92FF920F931F93CF936F
:102B9000DF93CDB7DEB72A970FB6F894DEBF0FBE2E
:102BA000CDBF1A821982FE01339688E0DF011D92A3
:102BB0008A95E9F7F12C8E010F5F1F4F6F2DC80129
:102BC0000E943D15F394D02EE12EB5E0FB12F6CF16
:102BD0004AE050E0B8018CE793E00E9424298C0180
:102BE00021E0892B09F420E00115110549F08AE064
:102BF000ED2DFE2DACE7B3E001900D928A95E1F743
:102C00006091900370E06A577C4F45E08CE793E059
:102C10000E941F1681E090E0012B11F40E949A148B
:102C20002A960FB6F894DEBF0FBECDBFDF91CF91CD
:102C30001F910F91FF90EF90DF9008950895FF92FC
:102C40000F931F93CF93DF93F82E092F162FD72FB3
:102C5000C42F222349F081E08093F9020E94FC21D5
:102C60009093F8028093F7028091F9028823A1F0F3
:102C70008091F7029091F8020E942822059760F057
:102C8000EF2DF02FA12FBD2FCF018C0F911DE81735
:102C9000F90741F41092F902DF91CF911F910F9142
:102CA000FF90089521912D93F2CF8091FC02811124
:102CB00007C00E94E828882351F081E08093FC023D
:102CC00081E09091FC02913009F080E0089582E06B
:102CD0008093FC020E94E328F3CF0C9455160E94C7
:102CE0006D16809344010E94551681110C94BF16F5
:102CF00008950E945516811102C00C94C1160895C2
:102D000081E09091FD029A3008F080E008950F93E1
:102D10001F93CF93DF93EC01162F072F8091FD02B5
:102D20008A30C0F4612F702FCE010E941317C82F74
:102D3000811122C08091FD028F3FB9F40E94FC21D5
:102D40009093FB028093FA028C2FDF91CF911F9119
:102D50000F9108958091FA029091FB020E9428221F
:102D6000843F9140F8F6C0E0EFCF8F5F8093FD0283
:102D70008A3020F7C1E0E8CF1092FD02E5CF0C9435
:102D80005A1F0C945D1FCF92DF92EF92FF920F9328
:102D90001F93CF93DF93FA0169017801C82F880F41
:102DA000DD0B3097B1F0DE0193E0AA0FBB1F9A95BF
:102DB000E1F7AB5BBE4F11968D919C9112978250BB
:102DC0009D4F4C9150E0E417F50708F4AF010E94C5
:102DD0003129CE010E944820182F8823D1F0E11418
:102DE000F104B9F083E0CC0FDD1F8A95E1F7FE0115
:102DF000EB5BFE4F438150E0E416F50608F4A701B3
:102E0000CB5BDE4F6C817D8162507D4FC6010E949D
:102E10003129812FDF91CF911F910F91FF90EF907A
:102E2000DF90CF9008950C9444180C9466180F937B
:102E30001F93CF93DF93CDB7DEB728970FB6F894E3
:102E4000DEBF0FBECDBF8091150390911603A091F8
:102E50001703B0911803BC01CD010E94372211E085
:102E6000643671058105910520F10E941614DC017C
:102E7000CB010296A11DB11D89839A83AB83BC83CC
:102E800010E000E030E020E044E050E0BE016F5F81
:102E90007F4F82E00E94C316182F882351F00E94B2
:102EA0000822609315037093160380931703909381
:102EB0001803812F28960FB6F894DEBF0FBECDBF42
:102EC000DF91CF911F910F910895AF92BF92CF9252
:102ED000DF92EF92FF920F931F93CF93DF93F82E21
:102EE000E92ED62EC72E89010E948016AA24A3940B
:102EF000B12C882319F08AE0A82EB12CC1E0D0E0D3
:102F0000F8946D2D7C2D8F2D9E2DF80109957894C8
:102F1000811104C02196AC16BD065CF4DF91CF91FF
:102F20001F910F91FF90EF90DF90CF90BF90AF90E7
:102F30000895CC9F9001CD9F300D300D112490E06D
:102F400080E045E34A95F1F700000196281739071C
:102F5000C1F7D6CFAF92BF92CF92DF92EF92FF929E
:102F60000F931F93CF93DF93CDB7DEB72A970FB69A
:102F7000F894DEBF0FBECDBF7B01A0901102B090D0
:102F8000120201E010E09E012A5F3F4F50E040E056
:102F900070E060E080E00E94C316182F882309F4D7
:102FA0004EC065018FEFC81AD80A80911103909125
:102FB0001203A0911303B0911403BC01CD010E9430
:102FC00037226F83788789879A87643671058105F0
:102FD000910568F105E010E09E012F5F3F4F50E042
:102FE00040E070E060E081E00E94C316082F65E0D9
:102FF00070E0C6010E94BA1811E09E81981310E09B
:10300000102341F10E940822609311037093120370
:10301000809313039093140385E0FE013196ACE096
:10302000B3E001900D928A95E1F711E013C065E0DD
:1030300070E0C6010E94BA189E818913CBCF85E04B
:10304000F5013196DE01119601900D928A95E1F716
:103050001111E2CF85E0ECE0F3E0D70101900D9291
:103060008A95E1F7812F2A960FB6F894DEBF0FBE3E
:10307000CDBFDF91CF911F910F91FF90EF90DF9027
:10308000CF90BF90AF9008950F931F93CF93DF938E
:10309000D82FC92F8B012AEA37E143E152E00E9481
:1030A0006517882369F027E137E140E252E0B80173
:1030B0008D2F9C2FDF91CF911F910F910C9465174D
:1030C00080E0DF91CF911F910F9108950F931F938F
:1030D000CF93DF93FB01F894C0911102D0911202BB
:1030E000CE01019625E0DC0101900D922A95E1F7D1
:1030F00065E070E00E94BA1888837894F8946E8135
:103100007F8188859985009108031091090320919A
:103110000A0330910B03601771078207930751F080
:10312000609308037093090380930A0390930B0341
:103130000E94ED137894DF91CF911F910F91089524
:103140000E94CE230E9474110C94DA230E94DE2385
:103150000E9409120C94F8230E949C210E94B5231E
:103160000E945E110E94A0180E94A6180E946C1175
:10317000FBCF0895FC01680F791F8FEF91E36E1765
:103180007F0709F408952191822728E030E087FF26
:1031900006C0880F892721503109C9F7F0CF880F61
:1031A000FACFCF92DF92EF92FF920F931F93CF93BC
:1031B000DF936C017B0164E670E088E70E94EF1DFD
:1031C000EC018601EC0CFD1C97FD0EC0F80184910A
:1031D00064E670E00E94681EEC01892B29F40F5F01
:1031E0001F4FE016F10691F70E94F51ECE01DF9108
:1031F000CF911F910F91FF90EF90DF90CF900895A6
:103200000895E1E9F3E080E092E0DF019C011D9286
:1032100021503040E1F7F0939805E09397058FEF48
:103220009FEF90934503809344030895CF93DF93DA
:1032300000D000D0CDB7DEB70E9400190E940C0567
:1032400090E280FF90E88093400390933F030E94B8
:10325000E91D6DE070E083EA92E00E94D118892BAD
:1032600041F080E00F900F900F900F90DF91CF9181
:1032700008958091400363E070E081FD28C080EAFA
:1032800092E00E94D118892B61F76DE070E080E92F
:1032900092E00E94D118892B21F70E940822DC01BC
:1032A000CB01805A9541AF4FBF4F809393059093C8
:1032B0009405A0939505B09396050E94011981E0AD
:1032C000809343038093420310924103CBCF8DE957
:1032D00092E0D7CF20913F0336E0839FC0011124B5
:1032E000629F800D911D1124811522E0920714F038
:1032F00090E080E08F569C4F9093980580939705BF
:10330000089520919705309198052B5833404091AE
:103310003F03642F70E0C9010E940129481B463019
:1033200010F4240F311D211582E0380710F030E031
:1033300020E02F563C4F3093980520939705089531
:103340001F93CF93DF93982F162F81E09A3019F0B7
:103350009D3031F480E0DF91CF911F910C941A1AC7
:10336000C0919705D091980586E0FE01A9E1B3E0F0
:1033700001900D928A95E1F7903EC8F086E0FE013B
:1033800011928A95E9F711111EC0C0919705D0914D
:10339000980546E050E0BE0189E193E00E942429AF
:1033A000892BF9F4DF91CF911F910C948119F6E0EC
:1033B0009F9FB001112460557D4F46E050E0CE0143
:1033C0000E941B29E0CFE0919705F09198059F019D
:1033D0002A5F3F4F2E173F07C1F28081809581936E
:1033E000F9CFC159D340CE0125E0969587952A950E
:1033F000E1F721E030E0A90102C0440F551F8A9592
:10340000E2F7CA014091440350914503842B952B68
:10341000259645E0D695C7954A95E1F702C0220F5B
:10342000331FCA95E2F7822B932B90934503809329
:103430004403B8CFCF93E82F20919705309198059A
:103440002159334040913F03642F70E0C9010E942D
:103450000129481B842FEE2369F066E00E94F528BD
:10346000C82FC15010F4CF91089560E080E20E940F
:10347000A019F7CFA901480F511D4115524018F06E
:1034800080E030E020E0280F311D2F563C4F309374
:10349000980520939705E7CFFF920F931F93CF9343
:1034A000DF93EC01F62EFC0101900020E9F78F017B
:1034B00001501109C017D10730F0DF91CF911F9152
:1034C0000F91FF9008956F2D89910E94A019F2CF5E
:1034D0000E944C1A81E00C941A1ACF93DF9300D00B
:1034E00000D0CDB7DEB780914303811109C0809130
:1034F00042030F900F900F900F90DF91CF9108959E
:103500000E940822DC01CB01805A9541AF4FBF4F8A
:103510008093930590939405A0939505B093960599
:10352000809142038111E3CF62E070E08EE892E087
:103530000E94D118892BD9F681E080934203D7CF1E
:103540002F923F925F926F927F928F929F92AF9253
:10355000BF92CF92DF92EF92FF920F931F93CF9380
:10356000DF9380914303882369F0209144033091D5
:1035700045032115310531F08091410361E070E090
:10358000882399F0DF91CF911F910F91FF90EF90D9
:10359000DF90CF90BF90AF909F908F907F906F9073
:1035A0005F903F902F9008958F5F082F10E01B01D0
:1035B000082E02C0220C331C0A94E2F7A901422112
:1035C0005321452B89F320914003922F917020FDC8
:1035D00045C0980136952795369527958295880F91
:1035E00080763FE1380F80935F0120936201309332
:1035F00060019093630124E630E047E050E06DE520
:1036000071E088E70E94971E892B09F0BBCFA801C3
:1036100025E0440F551F2A95E1F78091400380FD76
:1036200025C04F565C4F04E610E020E230E060E435
:1036300088E70E94C41E892B09F0A4CF0E946D1A4E
:10364000E101C095D0958091440390914503C82332
:10365000D923D0934503C093440394CF880F880F98
:10366000880F37E0380F20E093E0BDCFEFE1F3E0C3
:1036700080E2DF011D928A95E9F7AFE2B2E00BE24A
:1036800012E083E3C82E82E0D82E97E0592E7724EB
:1036900073949D91E80189918E01BA01680F711DA3
:1036A0006F567C4FE92FF0E0E15EFC4F90E080E048
:1036B000652C681A872C082E01C0880C0A94EAF73A
:1036C0007B01A12CE701B9907E01B820262D2A1993
:1036D0002770922E022E000C330BDB2D01C0DD0F64
:1036E0009A94EAF79D2E3195219531092770332759
:1036F00001C0B6942A95EAF79B282081922A9082ED
:10370000A39428E0A212DECF01963196883091056D
:1037100079F6CA16DB0609F0BCCF04E610E020E219
:1037200030E04FE153E083CF809142039091430317
:10373000911103C091E089270895882369F062E020
:1037400070E08CE892E00E94D118892B19F08091EA
:10375000420308951092420380914203EBCF0C94F0
:103760001605CF93DF9300D000D0CDB7DEB78091A0
:103770004303882309F43FC08091910590919205FD
:103780000E942822C29760F00E94FC21909392052B
:103790008093910560E080E00E946A190E94AF1B4F
:1037A0000E94A01A80914203882329F10E940822D6
:1037B00069837A838B839C83809193059091940590
:1037C000A0919505B091960529813A814B815C8144
:1037D000281B390B4A0B5B0BDA01C9018F3F9F4F46
:1037E000AF4FBF4740F40F900F900F900F90DF91B5
:1037F000CF910C94941B0F900F900F900F90DF912E
:10380000CF910895CF93DF93EC01FB018281882350
:1038100009F4F2C0C236FDE5DF0749F048F5C631CC
:10382000ECE5DE07E0F4C230FCE5DF07F0F00E94D3
:10383000A41090937A0380937903C631ECE5DE07F8
:1038400048F5C230FCE5DF07C0F480917903909120
:103850007A030E94B2100E94EE0980E006C09E0129
:103860002B5F3C452930310510F3DF91CF9108954E
:10387000C63A9DE5D907C9F7DACFFE01E350FC450A
:10388000809179038160E331F10528F5E459F34D26
:103890000C941529C4308DE5D80770F4CB3F9CE516
:1038A000D90798F2FE01EC5FFC45E830F10510F510
:1038B000E158F34D0C941529C236EDE5DE0709F405
:1038C00094C090917903892F8E7F90FF8160C63AD2
:1038D000DD4509F0BACF80937903B7CF80917903A2
:1038E0008260F9CF809179038460F5CF809179036C
:1038F0008860F1CF80917A03816080937A03A5CFAD
:1039000080917A038260F9CF809179038061E3CF5F
:10391000809179038062DFCF809179038064DBCF6F
:103920000E94EE09809179038068D5CF8091790358
:103930008C60D1CF80917A038360DFCF809179034F
:103940008E7FC9CF809179038D7FC5CF8091790318
:103950008B7FC1CF80917903877FBDCF80917A0320
:103960008E7FCBCF80917A038D7FC7CF80917903F3
:103970008F7EB1CF809179038F7DADCF8091790318
:103980008F7BA9CF0E94EE09809179038F77A3CF17
:1039900080917903837F9FCF80917A038C7FADCF15
:1039A0008091790382FB992790F921E0922790FB7F
:1039B00082F990FB83F98FCF80917A03982F9095AD
:1039C00091708E7F892B90FB81F997CF0E94EE0931
:1039D00090917903892F97FB87F980587CCF81E0FC
:1039E0000E94381132CF80E0FBCF90917903892F6C
:1039F0008F7E94FF80616FCF81E037CFCF93DF93CD
:103A0000EB0186319C4511F50E94AE0F9A819923F6
:103A100099F08A7A91E009F490E09093460381113D
:103A200009C089E20E94890F0E94F00F80E0DF91B7
:103A3000CF91089585E3F6CF80914603811104C0AC
:103A400089E20E94900FF0CF85E3FBCF81E0EFCFBA
:103A50000F931F93CF93DF93C42FD22FFC0182814A
:103A60008823C9F0409349030E94FC2190934803A6
:103A70008093470380E28C0F883008F050C0C770F5
:103A800081E001C0880FCA95EAF7DF91CF911F91BD
:103A90000F910C94460710914903141335C080917F
:103AA0004703909148030E9428228436910560F5CF
:103AB000C0E2CD0F1D17B9F080E2810F883040F4CD
:103AC000177081E001C0880F1A95EAF70E944D0730
:103AD000C83048F481E09D2F977001C0880F9A95F7
:103AE000EAF70E944607802F0E943E07C830B8F4CC
:103AF000D77081E001C0880FDA95EAF7DF91CF91A6
:103B00001F910F910C944D0780E28C0F883038F490
:103B1000C77081E001C0880FCA95EAF7EFCFDF9147
:103B2000CF911F910F9108950F939C01CB01243FDA
:103B30004CE53407A1F190F4293DFCE53F0749F13C
:103B40002A3D4CE53407E9F1283D3C45C1F0FC0134
:103B500082818823E1F11092490319C0263FFCE5D8
:103B60003F0719F1273F4CE5340729F1253F3C4534
:103B700071F707E225EE44EE65EF7CE505C006E24D
:103B800021EE41EE68ED7CE50E94281D80E00F915A
:103B9000089507E225EE45EE69ED7CE5F5CF06E2F6
:103BA00021EE40EE64EF7CE5EFCF06E221EE42EE3F
:103BB00066EF7CE5E9CF07E225EE46EE67EF7CE5B0
:103BC000E3CF08E221E045EE6AED7CE5DDCF81E060
:103BD000DECF1092B9008CE08093B80008959F92D8
:103BE000AF92BF92CF92DF92EF92FF920F931F930B
:103BF000CF93DF93B82EEB010E94FC216C01EE24E1
:103C0000E394F12CC431D10560F025E0E22EF12CD3
:103C1000CF3FDC0731F0CE0164E170E00E94012962
:103C20007B0184EAA82E94E8992E1092BC00A09201
:103C3000BC000E94FC218C018091BC0087FF0CC05D
:103C40008091B900887F883031F18091B900887FF8
:103C5000803109F10FEF08C00E94FC21801B910BFD
:103C60008E159F0548F30EEF1FEFCF3FDC07E9F2FB
:103C7000C6010E9428228C179D07B8F2C801DF9167
:103C8000CF911F910F91FF90EF90DF90CF90BF9059
:103C9000AF909F900895B092BB009092BC000E949C
:103CA000FC218C018091BC0087FF0AC02091B900E3
:103CB000287F283111F0203469F600E010E0DECFD3
:103CC0000E94FC21801B910B8E159F0558F3CBCFD2
:103CD0000F931F93CF93DF93EB018093BB0084E896
:103CE0008093BC000E94FC218C018091BC0087FF66
:103CF00011C02091B900287F81E090E0283211F4B2
:103D000090E080E0919581959109DF91CF911F918D
:103D10000F910895CF3FDC0741F30E94FC21801BE7
:103D2000910B8C179D0708F38EEF9FEFEECFCF928C
:103D3000DF92EF92FF920F931F93CF93DF936B016C
:103D40008A01F22EE32E622F732F0E94EF1DAC0129
:103D5000E6010C0D1D1DC017D10711F057FF0DC056
:103D600084E98093BC00CA01DF91CF911F910F912C
:103D7000FF90EF90DF90CF9008956F2D7E2D899169
:103D80000E94681EAC01E7CFCF92DF92EF92FF92C4
:103D90000F931F93CF93DF93C62F6A017901B80168
:103DA0000E94EF1D9C0197FD0DC0B8018C2F0E9451
:103DB000681E9C01E601EC0CFD1CCE15DF0511F020
:103DC00037FF0DC084E98093BC00C901DF91CF911A
:103DD0001F910F91FF90EF90DF90CF900895B80161
:103DE00089910E94681E9C01E8CF84E98093BC0001
:103DF00008958EE14A9B02C08150E1F74A9BFECFB5
:103E000008955A9880E28A95F1F75A9A0895FC012C
:103E10003BE03A95F1F798E020E080E031E040E1C6
:103E20004A95F1F7880F4A9B02C08160232742E040
:103E30004A95F1F7000040E14A95F1F7915079F782
:103E400090E19A95F1F799B132E03A95F1F70000D7
:103E500040E14A95F1F792FB992790F9922720814A
:103E6000920F90830895EF92FF920F931F93CF9339
:103E7000DF930F92CDB7DEB719828C017C01E60E7D
:103E8000F11C0E151F0561F481E09981911180E00C
:103E90000F90DF91CF911F910F91FF90EF900895B8
:103EA0000E94F91ECE0101960E94071FF80181931E
:103EB0008F01E7CF529A5A9A089552985A9AEA9ADD
:103EC000E9E6F0E080818F7C808308956150770B74
:103ED00091E001C0990F6A95EAF720E031E0911175
:103EE00008C0222391F05A9A80E28A95F1F75A98F5
:103EF0000895492F482339F05A9A232740E24A95DA
:103F0000F1F79695ECCF5A98F9CF5A98EDCFFF92EA
:103F10000F931F93CF93DF93EC018C01060F111DBC
:103F2000C017D10731F4DF91CF911F910F91FF900E
:103F30000895F9900E94011F68E08F2D0E94661F6E
:103F4000EFCF1F920F920FB60F9211240F931F9372
:103F50002F933F934F935F936F937F938F939F9391
:103F6000AF93BF93EF93FF93CF93DF930F92CDB7B0
:103F7000DEB719820E94F91ECE0101960E94071F2A
:103F8000282F082F069506950695982F92959570DF
:103F9000802F8570980F892F837096959695890F3D
:103FA000822787709981892B09F05CC0043008F062
:103FB00059C080E18A95F1F75A9A529A82E08A951F
:103FC000F1F700C05A9888E0089F80011124D801B9
:103FD000AB5BBE4F1696ED91FC9117973097A9F009
:103FE000609111027091120214962D913C911597D7
:103FF000260F371F11968D919C911297680F791F8C
:1040000013964C9113978C910995F801EB5BFE4F39
:104010006381662351F02091110230911202848154
:104020009581820F931F0E94871F0E94011F80E1CC
:104030008A95F1F75A9852985A9A80E18A95F1F741
:10404000F801EB5BFE4F6081662351F02091110275
:104050003091120281819281820F931F0E94331F3F
:104060000E94F91E0F90DF91CF91FF91EF91BF91C8
:10407000AF919F918F917F916F915F914F913F9100
:104080002F911F910F910F900FBE0F901F901895B9
:104090000F931F93CF93DF93EC0104970CF04CC068
:1040A000F894529A5A9885E08A95F1F700008C2F7F
:1040B000869585709C2F9570890F982F93708695A3
:1040C000869523E0CC0FDD1F2A95E1F7890F8E013D
:1040D000082B0E94011F00C068E0802F0E94661F0D
:1040E00080E18A95F1F752985A9A4A9B1EC087E060
:1040F00090E04A991CC0FE01EB5BFE4F6381662392
:10410000F9F0209111023091120284819581820F81
:10411000931F0E94331F811113C0529A5A9A7894A8
:10412000DF91CF911F910F91089500C0DECF0197CD
:1041300029F4529A5A9A789480E0F2CF00C0D9CFED
:104140000E94F91E80E28A95F1F75A98529A80E10E
:104150008A95F1F7CB5BDE4F6881662351F02091A1
:1041600011023091120289819A81820F931F0E945D
:10417000871F0E94011F789481E0D2CF909335026F
:104180008093340208959093500380934F030895D1
:104190000E945516811103C080914A030895E09151
:1041A0004F03F0915003309721F00190F081E02D02
:1041B000099480E00895E0914F03F0915003309707
:1041C00021F00280F381E02D0994089520914D03A0
:1041D00030914E032817390771F090934E03809366
:1041E0004D03E0914F03F0915003309721F006808A
:1041F000F781E02D0994089520914B0330914C03F1
:104200002817390771F090934C0380934B03E0918A
:104210004F03F0915003309721F00084F185E02D99
:1042200009940895AC019C012E5F3F4F485F5F4F9A
:1042300080E02417350709F40895F90191919F0151
:104240009923B9F38F5FF5CF9C01662351F0FC01F0
:104250003296285F3F4F8191861729F0E217F307C6
:10426000D1F780E0089581E008959C01FC01329629
:104270008FEF90E04191461751F08F3F19F44111B3
:1042800001C0892F9F5F9630A9F78F3F09F40895E9
:10429000280F311D87FD3A95F901628308959C012D
:1042A000FC013296285F3F4F8191861303C0DF01E6
:1042B00011971C92E217F307B9F708950C94352172
:1042C0000C944F21FC01329686E0DF011D928A9505
:1042D000E9F7089508950C946A218F5F8093510344
:1042E0000C946B2183E0809351030C946B210C940C
:1042F0006D2181E0809351030C946B210C94792102
:10430000089508950C948121089508950C948021B6
:10431000CF930E9484210E94C2150E948521C0E093
:104320008C2F0E948814811105C0CF5FCA30C1F75D
:10433000CF91089581E0FCCF08951F921FB61F9280
:1043400011248F939F93AF93BF9380915203811158
:1043500013C08091990590919A05A0919B05B09109
:104360009C054196A11DB11D8093990590939A05D6
:10437000A0939B05B0939C05BF91AF919F918F91A6
:104380001F901FBE1F9018958091A105843031F1B8
:104390000E945E061092520388E190E020E40FB67E
:1043A000F894A895809360000FBE2093600083B7B7
:1043B000817F846083BF83B7816083BF7894889551
:1043C00083B78E7F83BF0FB6F894A8958091600065
:1043D000886180936000109260000FBE08950E9473
:1043E000EE090C94640682E084BD93E095BD9AEFDB
:1043F00097BD80936E0008952FB7F894809199052A
:1044000090919A05A0919B05B0919C052FBF0895AE
:10441000CF93DF9300D000D0CDB7DEB78FB7F8943D
:104420002091990530919A0540919B0550919C05EA
:1044300029833A834B835C838FBF69817A818B8127
:104440009C810F900F900F900F90DF91CF91089566
:104450009C014FB7F8948091990590919A05A0918D
:104460009B05B0919C054FBF821B930B08950F9342
:104470001F93CF93DF9300D000D0CDB7DEB7462F88
:10448000572FBC012FB7F8948091990590919A0508
:10449000A0919B05B0919C052FBF8C019D01041B31
:1044A000150B260B370BC901B8010F900F900F9019
:1044B0000F90DF91CF911F910F91089578941F92E3
:1044C0001FB61F9211248F939F93AF93BF93809138
:1044D000990590919A05A0919B05B0919C05019634
:1044E000A11DB11D8093990590939A05A0939B05FA
:1044F000B0939C05BF91AF919F918F911F901FBE6C
:104500001F90189587E797E790930108809300081C
:1045100088E19AE00FB6F894A895809360000FBEEA
:1045200090936000FFCF80915B03089508950895F4
:10453000CF93DF93D82FC92F81E08093E9008FEFCD
:104540009091E800815095FD06C095ED9A95F1F7A0
:1045500000008111F5CF8091E80085FF16C050E082
:1045600040E068E070E08D2F9C2F0E9458248091DD
:10457000E8008E778093E80088E0ED2FFC2FA3E51C
:10458000B3E001900D928A95E1F7DF91CF91089504
:10459000089508958091A005811109C00E94E02529
:1045A0000E943D268091E20084608093E20008959D
:1045B0001092A00508950C94792160919D0581E0E9
:1045C000611101C080E00C9472219091A10581E0FD
:1045D000943009F080E060919D050C94772142E0D1
:1045E00061EC81E00E945C259091A10581E094300E
:1045F00009F080E060919D050C946D218091A305E8
:10460000893089F148F4823009F49EC0833009F47E
:1046100059C0813041F008958A3009F485C08B304B
:1046200009F46BC008958091A205813A09F049C050
:104630008091E800877F8093E8008091A6059091A3
:10464000A705892B61F468E083E593E070E00E94A0
:10465000A7248091E8008B778093E800089560E0BC
:1046600090E080E0F3CF8091A205813251F58091F6
:10467000A6059091A705892B21F58091E800877FF9
:104680008093E8008091E80082FF17C09091F300CA
:104690008091F200029731F48091F100813011F0A5
:1046A000863021F48091F10080935B038091E800D3
:1046B0008B778093E8000C9490258091A10581115F
:1046C000E1CF08958091A205813AD9F78091A6059E
:1046D0009091A705892BA9F78091E800877F8093A7
:1046E000E8008091E80080FFFCCF8091700180930A
:1046F000F1008091E8008E77DCCF8091A2058132B5
:1047000001F78091A6059091A705892BD1F680919C
:10471000E800877F8093E8000E9490258091A4059F
:10472000809370010C94EE098091A205813249F6C4
:104730008091E800877F8093E8000E949025809117
:10474000A50580935C0308958091A205813A09F044
:10475000B8CF8091E800877F8093E8008091E800DF
:1047600080FFFCCF80915C03C2CF84B7877F84BF7A
:104770000FB6F894A89580916000886180936000DE
:10478000109260000FBE80E890E00FB6F89480931E
:104790006100909361000FBE0C947E210E94E02581
:1047A0000E943D26E2EEF0E0808184608083789470
:1047B0000C94C92884E691E00C94C3208091A10553
:1047C0008530A9F48091A105853011F00C94EF217A
:1047D0000E94C42180919F058823A1F30E94882113
:1047E000882381F30E9442240E94EE09EBCF0895B2
:1047F00008950C94FB239C01FB01DA01832F992778
:1048000083309105B9F060F481309105B1F10297E0
:1048100061F482E290E026E138E02D933C93089524
:1048200081329105E1F0829709F190E080E030E07B
:1048300020E0F3CFC9019927213059F0823091054A
:1048400059F0E2E1F8E0892B81F7849190E09F0133
:10485000E4CFE0E0F8E0F9CFE0EFF7E0F6CF89E071
:1048600090E028E238E0EF2B01F7D7CF80E490E02A
:104870002AE438E0EF2BC9F6D0CF82E190E028E3BC
:1048800038E0CBCF80E189BD82E189BD09B400FE6B
:10489000FDCF8091D8008F7D8093D8008091E0007B
:1048A00082608093E0008091E00081FDFCCF08955C
:1048B000AF92BF92CF92DF92FF920F931F93CF934D
:1048C000DF936C01EB018A010E94AF25F82E811164
:1048D00023C00115110539F0F80180819181C81BB1
:1048E000D90BC80ED91EB12CA12C2097A9F080910C
:1048F000E80085FD22C08091E8008E778093E80073
:1049000001151105A1F0F801808191818A0D9B1D8F
:104910009183808385E0F82E8F2DDF91CF911F91B9
:104920000F91FF90DF90CF90BF90AF9008950E94BD
:10493000AF258823D1F2F82EEFCFF60181916F01D8
:104940008093F1002197FFEFAF1ABF0ACECFFC0191
:10495000CB012091A8053091A9052617370790F0C3
:10496000009729F42091E8002E772093E80040E09A
:10497000009751F4411108C08091E80082FF31C0D6
:1049800080E00895C901F3CF2091A1052223A9F168
:104990002530A9F12091E80023FD2DC02091E800E9
:1049A00022FDEACF2091E80020FFE2CF3091F30012
:1049B0002091F200009719F02830310558F041E0BD
:1049C0002830310509F040E02091E8002E7720934F
:1049D000E800CECF41914093F10001972F5F3F4F08
:1049E000E9CF8091A105882341F0853041F0809185
:1049F000E80083FFC1CF81E0089582E0089583E05D
:104A00000895FC01CB012091A8053091A905261736
:104A1000370790F0009729F42091E8002E77209333
:104A2000E80040E0009751F4411108C08091E8008F
:104A300082FF32C080E00895C901F3CF2091A10523
:104A40002223B1F12530B1F12091E80023FD2EC0E1
:104A50002091E80022FDEACF2091E80020FFE2CF7C
:104A60003091F3002091F200009719F028303105C1
:104A700058F041E02830310509F040E02091E8008D
:104A80002E772093E800CECF44914093F1003196E9
:104A900001972F5F3F4FE8CF8091A105882341F018
:104AA000853041F08091E80083FFC0CF81E0089518
:104AB00082E0089583E00895982F973028F08F7052
:104AC0008093E90081E008959093E900242F762FE8
:104AD00050E0981731F07091EC002091ED0050916A
:104AE000F00021FD02C09F5FE8CF3091EB003E7FD8
:104AF0003093EB003091ED003D7F3093ED0030912D
:104B0000EB0031603093EB007093EC002093ED00EC
:104B10005093F0002091EE0027FDE5CF80E008954E
:104B20008091A20587FF13C08091E80082FF06C034
:104B30008091E8008B778093E80004C08091A10504
:104B40008111F2CF08958091A1058823D9F3809136
:104B5000E80080FFF8CF8091E8008E77ECCF2091BD
:104B6000E4003091E50095E6A9012091EC00822F48
:104B7000817020FF06C08091E80080FF06C080E0C1
:104B800008952091E80022FD1AC08091A105882394
:104B900089F0853089F08091EB0085FD0FC0209170
:104BA000E4003091E50042175307F9F29150E1F625
:104BB00084E0089582E0089583E0089581E00895F7
:104BC0000E944E260E945626E0EEF0E08081816031
:104BD0008083E8EDF0E080818F77808319BCA7EDBA
:104BE000B0E08C918E7F8C9380818F7E8083109239
:104BF000A00508950F931F93CF93DF930E944E2635
:104C00000E945626C8EDD0E088818F7788838881FE
:104C10008068888388818F7D888319BC1092A10564
:104C200010929D0510929F0510929E0500EE10E0D7
:104C3000F80180818B7F808388818160888342E056
:104C400060E080E00E945C25E1EEF0E080818E7FF4
:104C50008083E2EEF0E080818160808380818860E3
:104C60008083F80180818E7F808388818061888342
:104C7000DF91CF911F910F910895E8EDF0E08081D1
:104C80008F7E8083E7EDF0E080818160808384E027
:104C900082BF81E08093A0050C94FA25E8EDF0E056
:104CA00080818E7F80831092E20008951092DA0056
:104CB0001092E10008951F920F920FB60F921124E7
:104CC0002F933F934F935F936F937F938F939F9314
:104CD000AF93BF93EF93FF938091E10082FF0BC0EE
:104CE0008091E20082FF07C08091E1008B7F80937A
:104CF000E1000E94C8288091DA0080FF19C08091ED
:104D0000D80080FF15C08091DA008E7F8093DA0092
:104D10008091D90080FF94C080E189BD82E189BD86
:104D200009B400FEFDCF81E08093A1050E94CA2254
:104D30008091E10080FF19C08091E20080FF15C0E2
:104D40008091E2008E7F8093E2008091E20080619A
:104D50008093E2008091D80080628093D80019BCD3
:104D600085E08093A1050E94DD228091E10084FF0F
:104D700029C08091E20084FF25C080E189BD82E1E5
:104D800089BD09B400FEFDCF8091D8008F7D80934E
:104D9000D8008091E1008F7E8093E1008091E20055
:104DA0008F7E8093E2008091E20081608093E20038
:104DB00080919D05882309F449C084E08093A10572
:104DC0000E94E5228091E10083FF29C08091E200EA
:104DD00083FF25C08091E100877F8093E10082E01E
:104DE0008093A10510929D058091E1008E7F8093B4
:104DF000E1008091E2008E7F8093E2008091E200EA
:104E000080618093E20042E060E080E00E945C25E7
:104E10008091F00088608093F0000E94DB22FF9177
:104E2000EF91BF91AF919F918F917F916F915F9122
:104E30004F913F912F910F900FBE0F901F9018959B
:104E400019BC1092A1050E94D82272CF8091E30074
:104E500087FD02C081E0B2CF83E0B0CF1F920F92F6
:104E60000FB60F921124FF920F931F932F933F932E
:104E70004F935F936F937F938F939F93AF93BF9362
:104E8000CF93DF93EF93FF9309EE10E0F801808159
:104E9000C091EC00C795CC27C7958F70FC2EF82ADF
:104EA0001082C0EFD0E08881877F888378940E9449
:104EB0007727F8011082888188608883CF2DCF7092
:104EC000C083FF91EF91DF91CF91BF91AF919F91FF
:104ED0008F917F916F915F914F913F912F911F9192
:104EE0000F91FF900F900FBE0F901F9018951F937A
:104EF000CF93DF93CDB7DEB7AA970FB6F894DEBF96
:104F00000FBECDBF82EA95E0FC0101962091F10031
:104F1000208325E08A3A9207B9F70E94FE22809109
:104F2000E80083FF1DC18091A2059091A3059A30EE
:104F300008F016C1E92FF0E0E957F34D0C9415295C
:104F4000803899F0823809F00BC18091A6058F70E6
:104F5000873008F005C18093E9008091EB0085FB64
:104F6000882780F91092E90006C080919E059091F3
:104F70009F05911182609091E800977F9093E800DF
:104F80008093F1001092F1008091E8008E77E4C0E8
:104F9000882309F4D2C0823009F0E2C08091A405D0
:104FA0008111D5C08091A6058F702FEF280F263074
:104FB00008F0D6C08093E9002091EB0020FFC7C025
:104FC000933031F48091EB0080628093EB00BFC09E
:104FD0009091EB0090619093EB0021E030E001C0F4
:104FE000220F8A95EAF72093EA001092EA00809156
:104FF000EB008860EACF8111B3C01091A4051F7740
:105000008091E3008078812B8093E3008091E80019
:10501000877F8093E8000E9490258091E80080FFC0
:10502000FCCF8091E30080688093E30082E011115F
:1050300083E08093A10594C08058823008F090C02E
:105040008091A4059091A5058C3D23E0920799F5E8
:1050500083E08A838AE289834FB7F894DE0113964E
:1050600020E03EE051E2E32FF0E0509357008491BE
:1050700020FF03C082958F703F5F8F708A30C8F029
:10508000895C90E08D939D932F5F243161F74FBF32
:105090008091E800877F8093E8006AE270E0CE01AB
:1050A00001960E94A7248091E8008B778093E80006
:1050B00057C0805DE6CF6091A6057091A705AE014F
:1050C0004F5F5F4F0E94F923BC01892B09F448C050
:1050D0008091E800877F8093E80089819A810E940F
:1050E0000125E1CF8038E1F58091E800877F80934A
:1050F000E80080919D058093F10046CF811130C07A
:105100009091A405923060F58091E800877F8093AC
:10511000E80090939D050E94902580919D0588232D
:1051200011F084E005C08091E30087FDFACF81E0B3
:105130008093A1050E94EF2213C08091A4058130C5
:1051400079F481E0933009F080E080939F0510921C
:10515000E9008091E800877F8093E8000E94902515
:105160008091E80083FF0AC08091E800877F8093E8
:10517000E8008091EB0080628093EB00AA960FB666
:10518000F894DEBF0FBECDBFDF91CF911F91089580
:105190000895CF938091A105882399F08091E9002B
:1051A000C091EC00C795CC27C7958F70C82B109283
:1051B000E9008091E80083FD0E947727CF70C093BB
:1051C000E900CF9108950E94E0251092A10508956D
:1051D000E8EDF0E08081806180838AE18A95F1F7D3
:1051E00000C08091D90081700895991B79E004C0B6
:1051F000991F961708F0961B881F7A95C9F7809516
:105200000895AA1BBB1B51E107C0AA1FBB1FA6170D
:10521000B70710F0A61BB70B881F991F5A95A9F75F
:1052200080959095BC01CD010895EE0FFF1F05906C
:10523000F491E02D0994FB01DC0102C005900D9270
:1052400041505040D8F70895FB01DC0104C08D9116
:105250000190801921F441505040C8F7881B990BE8
:105260000895FB01DC0102C001900D9241505040B5
:10527000D8F70895DC0101C06D9341505040E0F72C
:105280000895FB01DC0101900D920020E1F70895E3
:10529000AEE0B0E0EEE4F9E20C94412C0D891E89F9
:1052A00086E08C831A8309838F89988D813020E86A
:1052B000920710F080E090E801979E838D83AE0105
:1052C000455E5F4F698D7A8DCE0101960E947A29E5
:1052D0004D815E8157FD0AC02F81388542175307E3
:1052E0000CF49A01020F131FF80110822E96E4E0CD
:1052F0000C945D2CAFE0B0E0E0E8F9E20C94332CC4
:105300007C013B018A01DC0117961C921E921697C4
:1053100013968C9181FFBEC19AE0292EFE01319631
:105320004F01D70113969C91F30193FD859193FF53
:1053300081913F01882309F444C1853239F493FDFA
:10534000859193FF81913F01853229F4B70190E067
:105350000E94632BE6CFB12C412C512CBFE1B51537
:1053600038F08B3209F188F4803201F1833221F177
:1053700057FC3AC020ED280F2A3040F556FE1FC0DA
:10538000B29C200D1124B22E06C08D3291F08033D4
:1053900079F7689450F8F30193FD859193FF81911B
:1053A0003F018111DBCF20C0689451F8689452F816
:1053B000F2CF689453F8EFCF689454F8ECCF429C46
:1053C000200D1124422E689455F8E5CF8E3229F431
:1053D00056FCF7C0689456F8DECF8C3619F4689402
:1053E00057F8D9CF8836B9F2982F9F7D95549330CE
:1053F000C0F0833681F18337A1F1833509F05BC0BA
:10540000D801CD90DD908D016B2D70E056FC02C06F
:105410006FEF7FEFC6010E944D2B5C01689457F837
:105420000AC00C5F1F4FEFE3E983AA24A394B12CB9
:105430006401E89457F853FE29C0342CA114B10438
:1054400051F5332009F46DCFB70180E290E00E945E
:10545000632B3A94F6CFD8018C9189830E5F1F4F4E
:10546000E4CFF801C190D1908F016B2D70E056FC14
:1054700002C06FEF7FEFC6010E94582B5C01D9CFAD
:10548000B70180E290E00E94632B4A944A141B0407
:1054900009F0B0F7D2CFF60157FC859157FE819104
:1054A0006F01B70190E00E94632B31103A94B1E094
:1054B000AB1AB108C3CF843619F0893609F071C030
:1054C000F80157FE67C061917191819191918F01AF
:1054D000E52DEF76DE2E97FF09C0909580957095AB
:1054E00061957F4F8F4F9F4F6894D7F82AE030E047
:1054F000A4010E94932BC82EC818AC2C5D2CD6FE9C
:105500000CC0E89450F8CB1440F4D4FE05C0D2FC93
:1055100003C05D2D5E7E552EAB2C54FE93C0FE0164
:10552000EC0DF11D8081803309F085C0652D697E09
:10553000562E752D7870372E53FC93C050FE8DC0BB
:10554000BC2CA41410F4B40CBA1854FE90C0B701CB
:1055500080E390E00E94632B52FE07C088E751FC75
:1055600088E590E0B7010E94632BCB1408F48BC050
:10557000CA94D12C8FEFC81AD80AC80CD91CD601EE
:105580008E916D01B70190E00E94632B8C149D04F5
:10559000B1F757CF61917191072E000C880B990BD1
:1055A00096CFD52CE894D4F82AE0853729F1F52D4B
:1055B000F97FDF2E8037A1F058F48835A1F08F36BF
:1055C000D1F0F701868197812F96E2E10C944F2C60
:1055D0008837B9F7D4FE02C06894D2F820E10CC035
:1055E0006894D4F8F7CF54FE03C02F2F2660D22E34
:1055F00020E132E002C028E030E0F801D7FE15C01B
:1056000041915191619171914C875D876E877F8740
:105610008F01A4016C857D858E859F850E94932BCB
:10562000C82EC818E894D7F868CF81919191AC0141
:1056300070E060E0E9CF52FC02C0A3947ACFA3945B
:10564000A39477CF852D867809F473CFF6CFB70171
:1056500080E290E00E94632BA394A414C0F3312C49
:1056600074CF342C3A18A41408F46FCFF8CF852DDA
:10567000867809F47ACF8BE251FE80E257FC8DE206
:10568000B70190E070CFB70180E390E00E94632BF8
:10569000BA946BCF8FEF9FEF97CFFC0105906150CD
:1056A00070400110D8F7809590958E0F9F1F089538
:1056B000FC016150704001900110D8F780959095E1
:1056C0008E0F9F1F08950F931F93CF93DF93182F73
:1056D000092FEB018B8181FD09C01FEF0FEF812F97
:1056E000902FDF91CF911F910F91089582FF14C0E9
:1056F0002E813F818C819D81281739073CF4E881F8
:10570000F981CF0101969983888310838E819F81CF
:1057100001969F838E83E3CFE885F985812F0995D4
:10572000892BA1F3DACFFA01AA27283051F12031D1
:1057300081F1E8946F936E7F6E5F7F4F8F4F9F4F25
:10574000AF4FB1E03ED0B4E03CD0670F781F891F67
:105750009A1FA11D680F791F8A1F911DA11D6A0F35
:10576000711D811D911DA11D20D009F468943F91E8
:105770002AE0269F11243019305D3193DEF6CF01E7
:105780000895462F4770405D4193B3E00FD0C9F7AD
:10579000F6CF462F4F70405D4A3318F0495D31FD1A
:1057A0004052419302D0A9F7EACFB4E0A69597956D
:1057B000879577956795BA95C9F700976105710543
:1057C00008959B01AC010A2E06945795479537958D
:1057D0002795BA95C9F7620F731F841F951FA01DE7
:1057E0000895F999FECF92BD81BDF89A992780B5A9
:1057F0000895A8E1B0E042E050E00C94252C262F5B
:10580000F999FECF92BD81BDF89A019700B40216B6
:1058100039F01FBA20BD0FB6F894FA9AF99A0FBE64
:1058200008950396272F0E94002C0E94FF2B252FFE
:105830000E94002C242F0C94002C0196272F0E94EC
:10584000002C0C94FF2BDC01CB01FC01F999FECF5D
:1058500006C0F2BDE1BDF89A319600B40D924150F8
:105860005040B8F708952F923F924F925F926F92F7
:105870007F928F929F92AF92BF92CF92DF92EF92E0
:10588000FF920F931F93CF93DF93CDB7DEB7CA1B61
:10589000DB0B0FB6F894DEBF0FBECDBF09942A888C
:1058A000398848885F846E847D848C849B84AA8434
:1058B000B984C884DF80EE80FD800C811B81AA81C1
:1058C000B981CE0FD11D0FB6F894DEBF0FBECDBF8C
:1058D000ED010895F894FFCF6E1C721C761C841C99
:1058E000881C8C1C901C961C9E1CA21CA61CAA1C0E
:1058F000B61CBA1CBE1CC21CC81CE61CD01C801CDA
:10590000AE1CB21C9A1CCC1CDC1CEF1CF31CA02788
:10591000C827B028C827B028FB271C28B028722821
:025920007E28DF
:10592200808182838485868788898A8B8C8D8E8FFD
:105932009091929394A0A1A2A3A4A5A6A7A8A9AA74
:10594200ABACADAEAFB0B1B2B3B4C0C1C2C3C4C5EB
:10595200C6C7C8C9CACBCCCDCECFD0D1D2D3D40042
:105962006400D902010000000100000000000000F4
:1059720005010000000406000000000000002100F4
:105982007F22000393229822C8229622C9229722BC
:10599200014C617965723A2044656661756C7400E8
:1059A2004C617965723A205261697365004C617984
:1059B20065723A204C6F776572004C617965723A74
:1059C2002041646A757374004C617965723A20559E
:1059D2006E6465662D256C640025647825642C2030
:1059E2006B253264203A202563002020202061624A
:1059F200636465666768696A6B6C6D6E6F707172FD
:105A0200737475767778797A31323334353637383C
:105A1200393052454254202020202020203B27208C
:105A22002C2E2F202020F6F7313332366697C634DB
:105A320035FE02736C6176655F6D61747269780020
:105A420073796E635F74696D6572000008101818CF
:045A52001008000038
:00000001FF
