:100000000C946E060C94B5060C94B5060C94B506CB
:100010000C94B5060C94B5060C94B5060C94B50674
:100020000C94B5060C94B5060C94E02C0C94B42DED
:100030000C9402280C94B5060C94B5060C94B506E5
:100040000C94B5060C94B5060C94B5060C94B50644
:100050000C94B5060C9459280C94B5060C94B5066E
:100060000C94B5060C94B5060C94B5060C94B50624
:100070000C94B5060C94B5060C94B5060C94B50614
:100080000C94B5060C94B5060C94B5060C94B50604
:100090000C94B5060C94B5060C94B5060C94B506F4
:1000A0000C94B5060C94B5060C94B506556E6465B3
:1000B00066696E6564003E2020003E5F20003E635E
:1000C000757320003E6375735F003E6D6F75200091
:1000D0003E6D6F755F003E62726320003E62726328
:1000E0005F003E73796D20003E73796D5F003E6E58
:1000F000617620003E6E61765F003E6E756D200079
:100100003E6E756D5F003E2020003E5F2000252082
:1001100020202000255F2020002573637220002509
:100120007363725F00256E756D2000256E756D5FBF
:1001300000256361702000256361705F002420202A
:10014000202000245F202000246775692000246798
:1001500075695F0024616C74200024616C745F0019
:10016000247366742000247366745F002463746CC7
:1001700020002463746C5F00210004431500170005
:10018000164108421C000C0012461E001F002000F1
:10019000210021002200230024001E023100330030
:1001A0003500360038022D002E004F0026022702AF
:1001B0002F0230022F00300030024A0052004D0062
:1001C0004B00500051004F004E00F100ED00F200D6
:1001D0004B00EF00EE00F0004E007F004900800071
:1001E0008100E5004600810082003118321E201B8C
:1001F000191A1F001118101E201B191A1F00044382
:100200001C000C0012460000810082000000164114
:1002100012460000520050004F0000004900E50067
:1002200081000000ED00EF00F00000002602300227
:1002300030000000310036002D0000001F002100BA
:1002400023000000150008420C000000F100F2003D
:10025000EE0000007F008000460000004A004D00D4
:10026000510000004F0027022F0000001E02330043
:10027000380200001E002000220000000443170086
:100280001C000000220023000000210022000000CA
:100290001F00200000001E001F0000004900460053
:1002A0000000ED00EE0000005200510000002602A8
:1002B0002F0000003100380200001F002200000063
:1002C00015001C0000007F00490080008200000033
:1002D000F100ED00F2004E0000004A0052004D0017
:1002E0004E0000004F0026022702300200001E02CE
:1002F000310033002E0000001E001F0020002400EB
:10030000000004431500170012460000E5004600F7
:10031000810082000000EF00EE00F0004E000000BF
:10032000500051004F004E00000030022F003000FE
:1003300030020000360038022D002E00000021009F
:10034000220023002400000008421C000C0012467A
:1003500000008100810000004B00F00000004B0015
:100360004F0000002F023000000035002D0000007B
:1003700021002300000016410C000000810046000F
:1003800000004B00EE0000004B00510000002F0267
:100390002F0000003500380200002100220000007C
:1003A00016411C0000008100E50000004B00EF003A
:1003B00000004B00500000002F023002000035000A
:1003C0003600000021002100000016410842000014
:1003D0007F00490082000000F100ED004E000000A7
:1003E0004A0052004E0000004F002602300200007A
:1003F0001E0231002E0000001E001F00240000001D
:1004000004431500124600007F00E5000000F100E3
:10041000EF0000004A00500000004F0030020000D2
:100420001E02360000001E002100000004430842A6
:100430000000490080008100E5000000ED00F200AE
:100440004B00EF00000052004D004B005000000038
:10045000260227022F02300200003100330035004F
:10046000360000001F0020002100210000001500C0
:1004700017001641084200004900E5000000ED00A9
:10048000EF00000052005000000026023002000081
:100490003100360000001F00210000001500084256
:1004A000000004431246000017000C000000044343
:1004B0000C00000004431C00000004431C000C005E
:1004C0000000044315001700164100001C000C003A
:1004D0001246000008420C001246000008421C00B0
:1004E0001246000008421C000C0000000C001246DE
:1004F00000001C00124600001C000C000000084216
:100500001246000008420C00000008421C000000D7
:1005100015001700164100000443170016410000A3
:1005200004431500164100000443150017000000A5
:1005300017001641000015001641000015001700B5
:100540000000044316410000044317000000044368
:100550001500000000000000000000002A2B280009
:100560000000000000000000000000000000002962
:10057000000000002C1E3420212224342627252EA2
:10058000362D3738271E1F202122232425263333DA
:10059000362E37381F0405060708090A0B0C0D0E06
:1005A0000F101112131415161718191A1B1C1D2FD2
:1005B0003130232D350405060708090A0B0C0D0EF2
:1005C0000F101112131415161718191A1B1C1D2FB2
:1005D0003130354C00000000000000000000000039
:1005E000000000000000000000000000000000000B
:1005F00000000000000000007E0F00D4FFFFFFC7D6
:100600000000007800AE00AF00DA0281FFD9F1DB14
:1006100020A4A62EAF00A0C000A1C800AED580A81F
:100620001FD300408D1420000000000000003E5B3E
:100630004F5B3E003E6B4F6B3E001C3E7C3E1C0001
:10064000183C7E3C18001C577D571C001C5E7F5ECA
:100650001C0000183C180000FFE7C3E7FF0000186B
:1006600024180000FFE7DBE7FF0030483A060E00E1
:10067000262979292600407F05050700407F0525AA
:100680003F005A3CE73C5A007F3E1C1C0800081CF7
:100690001C3E7F0014227F2214005F5F005F5F001A
:1006A00006097F017F00006689956A0060606060CE
:1006B000600094A2FFA2940008047E0408001020A9
:1006C0007E20100008082A1C0800081C2A080800C0
:1006D0001E10101010000C1E0C1E0C0030383E387E
:1006E0003000060E3E0E0600000000000000000074
:1006F0005F000000000700070000147F147F140053
:10070000242A7F2A120023130864620036495620E7
:100710005000000807030000001C224100000041B7
:10072000221C00002A1C7F1C2A0008083E08080022
:1007300000807030000008080808080000006060B1
:1007400000002010080402003E5149453E000042CE
:100750007F4000007249494946002141494D33001C
:100760001814127F10002745454539003C4A494975
:1007700031004121110907003649494936004649EF
:1007800049291E0000001400000000403400000051
:1007900000081422410014141414140000412214FF
:1007A00008000201590906003E415D594E007C12C5
:1007B00011127C007F49494936003E4141412200E7
:1007C0007F4141413E007F49494941007F09090974
:1007D00001003E41415173007F0808087F0000413D
:1007E0007F4100002040413F01007F08142241006A
:1007F0007F40404040007F021C027F007F040810C1
:100800007F003E4141413E007F09090906003E410B
:1008100051215E007F0919294600264949493200C5
:1008200003017F0103003F4040403F001F20402064
:100830001F003F4038403F00631408146300030466
:10084000780403006159494D4300007F4141410054
:10085000020408102000004141417F00040201020F
:1008600004004040404040000003070800002054BE
:10087000547840007F2844443800384444442800D9
:10088000384444287F0038545454180000087E0926
:10089000020018A4A49C78007F0804047800004497
:1008A0007D4000002040403D00007F1028440000B3
:1008B00000417F4000007C04780478007C08040438
:1008C0007800384444443800FC18242418001824C4
:1008D0002418FC007C0804040800485454542400E4
:1008E00004043F4424003C4040207C001C20402065
:1008F0001C003C4030403C004428102844004C90F0
:1009000090907C004464544C440000083641000040
:1009100000007700000000413608000002010204D8
:1009200002003C2623263C0000000000000040405E
:1009300040F0F8F8FF38FFF8F83FF8F8FF38FFF814
:10094000F8F040404000000000000080C0C0C080BF
:100950000000C0C08000000080C0C000C0C0000017
:1009600080C0C00000000000C0C0C0C0C000C0C047
:100970000000000000000000000000000000000077
:100980000000000000000000000000000000000067
:100990000000000000000000000000000000000057
:1009A00000000000000000C0F0F8FC3E1E06010040
:1009B00000007F4141417F007F4141417F00008035
:1009C000C0E07E5B4F5BFEC00000C000DCD7DEDE17
:1009D000DED7DC00C00000000000000000000000C6
:1009E0000000000000000000000000000000494975
:1009F00049FFFFFFFFE0DFBFBF00BFBFDFE0FFFF3A
:100A0000FFFF49494900000000001F3F6060E0BF50
:100A10001F007F7F071E381E077F7F007F7F0E1F0E
:100A20003B716000000000007F7F0C0C0C007E7E9C
:100A3000007F7E0303007F7E03037E7E03037F7EB1
:100A4000000F3E703C063C703E0F00327B49493F30
:100A50007E007F7E0303001E3F69696F2600000051
:100A600000000000000000030F1F3F3C7870600092
:100A700000007F4141417F007F4141417F00307B49
:100A80007F7830202030787F3B0003000F7F0F0FEE
:100A90000F7F0F00030000000000000000000000B6
:100AA0000000000000000000000000000000010144
:100AB00001070F0F7F0F7F0F0F7E0F0F7F0F7F0F2D
:100AC0000F0701010100000000000000000000010C
:100AD0000100000000000000000000000000000015
:100AE0000000000000000000000000000000000006
:100AF00000000000000000000000000000000000F6
:100B000000000000000000000000000000000000E5
:100B100000000000000000000000000000000000D5
:100B200000000000000000000000000000000000C5
:100B300000000000000000000000000000000000B5
:100B400000000000000000000000000000000000A5
:100B50000000000000000000000000000000000095
:100B6000000000000000000012036B006500790027
:100B700062006F00610072006400000016037100E3
:100B80006D006B006200750069006C006400650018
:100B9000720000000403090409023B00020100A0E6
:100BA000FA090400000103010100092111010001FB
:100BB0002240000705810308000A0904010001031F
:100BC00000000009211101000122B600070582037F
:100BD00020000A1201100100000008EDFE60600113
:100BE000000102000105010902A10185020901A11C
:100BF00000050919012908150025019508750181CD
:100C0000020501093009311581257F95027508819A
:100C10000609381581257F950175088106050C0A9E
:100C200038021581257F950175088106C0C0050130
:100C30000980A101850319012AB700150126B70013
:100C4000950175108100C0050C0901A101850419E9
:100C5000012AA002150126A002950175108100C08D
:100C600005010906A1018505050719E029E7150019
:100C700025019508750181020507190029EF150066
:100C8000250195F0750181020508190129059505D1
:100C900075019102950175039101C005010906A135
:100CA00001050719E029E71500250195087501815F
:100CB000029501750881010507190029FF15002615
:100CC000FF0095067508810005081901290595059D
:100CD00075019102950175039101C00011241FBE99
:100CE000CFEFDAE0DEBFCDBF04B603FE27C08091B0
:100CF0009E0890919F08A091A008B091A10887300C
:100D0000904BA740B04BD1F410929E0810929F08D0
:100D10001092A0081092A10814BE84B7877F84BFE8
:100D20000FB6F894A8958091600088618093600068
:100D3000109260000FBEE0E0F8E3099515E0A0E036
:100D4000B1E0ECE4F1E602C005900D92AC31B107E0
:100D5000D9F728E0ACE1B5E001C01D92AE39B20789
:100D6000E1F70E941A2A0C94F82F0C9400000895C1
:100D7000DB018D529D458637910598F4FC01E650C4
:100D8000F04D0C949A2F12968C91882351F08091FB
:100D90001E05811108C081E080931E0581EE0E942E
:100DA000161C81E0089510921E0581EE0E94A81C79
:100DB000F8CF12968C918823A1F389E00E94151D2B
:100DC000F0CF12968C91882361F38AE1F7CF1296C7
:100DD0008C91882331F38AE0F1CF12968C9188238D
:100DE00001F389E1EBCF12968C918823D1F28DE04B
:100DF000E5CF12968C918823A1F287E0DFCF12967F
:100E00008C91882371F284E1D9CF12968C9188233A
:100E100041F28BE1D3CF12968C91882311F286E0B8
:100E2000CDCF12968C91882309F4BBCF8BE0C6CF2F
:100E300012968C91882309F4B4CF85E0BFCF129627
:100E40008C91882309F4ADCF88E1B8CF12968C91AC
:100E5000882309F4A6CF8EE0B1CF12968C91882317
:100E600009F49FCF81E1AACF12968C91882309F4CF
:100E700098CF8FE0A3CF12968C91882309F491CF5D
:100E800083E19CCF12968C91882309F48ACF80E16C
:100E900095CF12968C91882309F483CF8DE18ECF64
:100EA00012968C91882309F47CCF84E387CF129625
:100EB0008C91882309F475CF86E380CF12968C91AC
:100EC000882309F46ECF87E379CF12968C9188231B
:100ED00009F467CF88E791E00E94FE0A62CF12967C
:100EE0008C91882309F45DCF88E368CF12968C91AA
:100EF000882309F456CF8AE261CF12968C91882319
:100F000009F44FCF82E00E94AF254BCF12968C910F
:100F1000882309F446CF88E251CF12968C9188231A
:100F200009F43FCF89E24ACF12968C91882309F4C5
:100F300038CF81E0E8CF12968C91882309F431CF25
:100F400088E0E1CF12968C91882309F42ACF84E0BF
:100F5000DACF12968C91882309F423CF8CE22ECF1E
:100F600012968C91882309F41CCF8BE227CF12961E
:100F70008C91882309F415CF84E220CF12968C91AE
:100F8000882309F40ECF85E219CF12968C9188231D
:100F900009F407CF86E212CF12968C91882309F4C8
:100FA00000CF87E20BCF12968C91882309F4F9CEFB
:100FB00085E00E94BC23F5CE12968C91882309F41B
:100FC000F0CE80E0F6CF12968C91882309F4E9CE1A
:100FD00084E0EFCF12968C91882309F4E2CE86E06C
:100FE000E8CF12968C91882309F4DBCE89E3E6CE14
:100FF00083E008950F931F93CF930E94322868EEE9
:1010000073E00E94722F8C010E947625C82F0E94E7
:10101000A9258C2B982F917171F0043F114040F05D
:101020008CE691E060E0CF911F910F910C94A61295
:1010300082E791E0F7CF982F927249F0043F114078
:1010400018F080E691E0EECF86E691E0EBCF982FA6
:10105000947449F0043F114018F084E591E0E2CF28
:101060008AE591E0DFCF887849F0043F114018F01D
:1010700088E491E0D7CF8EE491E0D4CF043F1140D3
:1010800018F08DE391E0CECF83E491E0CBCFCF9306
:10109000C82F0E94322868EE73E00E94722FC1FFB1
:1010A0000CC0843F914030F081E391E060E0CF914B
:1010B0000C94A61287E391E0F9CFC0FF09C0843FEA
:1010C000914018F085E291E0F1CF8BE291E0EECF14
:1010D000C2FF09C0843F914018F089E191E0E6CF5A
:1010E0008FE191E0E3CF843F914018F08EE091E0F2
:1010F000DDCF84E191E0DACFCF93DF930E943228F5
:1011000068EE73E00E94722FEC01609130067091DE
:10111000310680913206909133060E94010B873090
:1011200008F049C0E82FF0E0E059FF4C0C949A2FEA
:10113000C43FD14038F086E091E060E0DF91CF918C
:101140000C94A6128AE091E0F8CFC43FD14018F089
:101150008AEF90E0F2CF80E091E0EFCFC43FD14042
:1011600018F08EEE90E0E9CF84EF90E0E6CFC43F38
:10117000D14018F082EE90E0E0CF88EE90E0DDCF35
:10118000C43FD14018F086ED90E0D7CF8CED90E0D1
:10119000D4CFC43FD14018F08AEC90E0CECF80EDA0
:1011A00090E0CBCFC43FD14018F08EEB90E0C5CF9C
:1011B00084EC90E0C2CFC43FD14018F086EB90E0C1
:1011C000BCCF8AEB90E0B9CF6091300670913106C8
:1011D00080913206909133060E94010B873008F00F
:1011E00059C0E82FF0E0E958FF4C0C949A2F0E9468
:1011F000762581FF05C060E084E994E00C947812C4
:101200000E94A92581FDF7CF0E948A1A81FDF3CFA4
:1012100060E08FE994E0F2CF0E94762581FF04C060
:1012200060E08EE794E0EACF0E94A92581FDF8CF27
:1012300060E089E894E0E2CF60E084EF91E00C9414
:1012400094120E94762581FF04C060E088E694E055
:10125000D5CF0E94A92581FDF8CF60E083E794E017
:10126000CDCF0E94762581FF04C060E082E594E046
:10127000C5CF0E94A92581FDF8CF60E08DE594E0FF
:10128000BDCF60E08AEE91E0DACF60E08CEA90E0DA
:101290000C94A6120C943A110E94E40863E080E0DA
:1012A0000E9495110E947C0865E080E00E949511E3
:1012B0000E94FA0767E080E00E9495110E948A1A56
:1012C0000E9447086DE080E00C94951181E008953C
:1012D0000C94B80608950C946A091F93CF93DF937A
:1012E00000D000D00F92CDB7DEB749835A836B830D
:1012F0003091E00589819A8131111DC06623B9F0D2
:101300002223A9F00E94C024182F682F89819A8176
:101310000E946D2469817A81812F0F900F900F9028
:101320000F900F90DF91CF911F910C94610B0E9451
:101330009924182FEFCF0E94C02469817A81EDCFC4
:10134000FC01262F86819781009739F440815181D5
:101350006281738184810C946D090895CF93DF932A
:10136000EC0161E00E94A009BE01DF91CF910C94D5
:10137000D517CF93DF93EC0160E00E94A009BE0176
:10138000DF91CF910C946B090E94880D0C94AD0DE8
:101390000E9494170C94B00D08950E949D1F0E9406
:1013A000CC092FEF84E39CE0215080409040E1F78E
:1013B00000C000000C947D280F931F93CF93DF9300
:1013C0008C0161E00E94A009EC01B8010E9468094B
:1013D0008823A9F1B801CE010E947A14882379F1FB
:1013E000B801CE010E94CC14882349F1B801CE0186
:1013F0000E94EF15882319F1F8018281882361F09A
:10140000C932FDE5DF0721F170F4C115ECE5DE0717
:10141000A1F0CF3DDC45C9F0C801DF91CF911F910C
:101420000F910C946609CA328DE5D807A1F0CB3232
:10143000DD4591F70E946725EFCF0E94CD0980E03E
:10144000DF91CF911F910F9108950E94EC26F7CF65
:101450000E947025E1CF0E947325DECFDF92EF92CC
:10146000FF920F931F93CF93DF93E82FF0E0EC5A96
:10147000FA4FD490282F26952695269530E0F9012D
:10148000EC50FA4F0491877010E0082E02C01595B9
:1014900007950A94E2F701701127F901EC51FA4F10
:1014A000E490F12C082E02C0F594E7940A94E2F738
:1014B00091E0E922FF24F901EC52FA4FC491D0E007
:1014C00002C0D595C7958A95E2F7C170DD27011551
:1014D000110519F081EE0E94161CE114F10419F0B7
:1014E00086EE0E94161C8D2D0E94151DEF2819F006
:1014F00086EE0E94A81C012B19F081EE0E94A81C08
:10150000CD2B51F08CE2DF91CF911F910F91FF9085
:10151000EF90DF900C94151DDF91CF911F910F91EB
:10152000FF90EF90DF900895EF92FF920F931F933B
:10153000CF93DF938C01F62E8AE0E82EF801849198
:10154000882309F454C0813009F04DC0E801219688
:10155000FE018491813091F42196FE0184910E94D4
:10156000151D8E010F5F1F4F8F2D815038F3EFE94E
:10157000FFE03197F1F700C00000F7CF823039F477
:10158000E8012296FE0184910E94161CEACF833066
:1015900039F4E8012296FE0184910E94A81CE1CF53
:1015A0008430F9F6E8012296FE01249190E080E073
:1015B000FE0131962053330B2A30310548F0019754
:1015C00080F2EFE9FFE03197F1F700C00000F7CFBC
:1015D000E89EA001E99E500D1124C901840F951FBA
:1015E0002491EF01E5CF0E942E0AE801BACFDF91E6
:1015F000CF911F910F91FF90EF90089560E00C94B0
:10160000940ACF92DF92EF92FF926C01EE24FF24B6
:1016100020E0C114D104E104F10419F0C701B601BE
:1016200020E1C72ED82EE92EFF24C114D104E104F5
:10163000F10419F0285FC701B6016B017C0154E089
:10164000F694E794D794C7945A95D1F7C114D1046E
:10165000E104F10419F02C5FC701B6016B017C01B4
:1016600042E0F694E794D794C7944A95D1F7C11411
:10167000D104E104F10419F02E5FC701B60196957B
:10168000879577956795672B682B692B09F02F5FF6
:10169000822FFF90EF90DF90CF90089508950C94E3
:1016A0004E0B81E008950C94510BCF93C82F0E94EC
:1016B0004F0B8C2FCF910C94530B90E080E008954A
:1016C0000895E82FF0E0EE0FFF1FE70FF11DEE0F7A
:1016D000FF1FEE0FFF1FE60FF11DEE0FFF1FE65875
:1016E000FE4F859194910895FC01EE0FFF1FEC5F72
:1016F000F94F859194910895CF93DF930E94930CB5
:10170000EC01811520E5920708F042C0811530E414
:10171000930708F0BDC0883E910528F5803E9105ED
:1017200008F09DC0883A910588F4853A910508F043
:101730008FC08130910509F492C0009709F48FC0E1
:10174000049708F08CC0D0E0C0E089C08F3B9105C1
:1017500008F489C0805C9109C03CD105A0F30E94C7
:10176000740BEC017CC08115904250F4C11581E0EE
:10177000D80708F074C0CD3ED10528F3D0656FC0FE
:10178000C11590E3D90708F079C0CE019F70E7CF6B
:10179000811525E5920758F5811534E5930708F082
:1017A000A6C0811542E5940750F4C11581E5D8071C
:1017B00008F471C0DC2FCC27C16FD06A50C0982FBD
:1017C000969596959E0123703327C115D34508F051
:1017D0007FC0C1E0D0E002C0CC0FDD1F2A95E2F748
:1017E00020E2929FC0011124C82BD92B6FC0C115D4
:1017F00089E5D807A8F4C11598E5D90708F07CC099
:10180000C11526E5D20708F09ECF8C2F0E942A0D25
:10181000C82FD0E0DC2FCC27CC27DF71D0621FC0CF
:10182000C1153AE5D30708F46CC0CE019056811576
:10183000904208F088CF8D2F8F710E942A0D90E082
:10184000982F882788279F719C012C2BE901E6CFD0
:10185000C55AD0E0C852DB4FC881D0E0D064CE0179
:10186000DF91CF910895C85AD0E0CC0FDD1FC65547
:10187000DB4F0990D881C02DD464F1CFCE019927D8
:10188000D3FF03C0EC01D86CEACFEC01D06CE7CFFA
:10189000DF70D06AE4CFCE01E4E096958795EA95B3
:1018A000E1F783702C2F26952695237090E2299FCF
:1018B00090011124382B8C2F8370C1E0D0E002C03E
:1018C000CC0FDD1F8A95E2F7C22BD32BDC68C7CF84
:1018D000C1E0D0E002C0CC0FDD1F2A95E2F730E274
:1018E000939FC0011124C82BD92BDA68B8CFD82F09
:1018F000CC27C46FD06AB3CFDC2FCC27C06FD06A9F
:10190000AECF8C2F8F700E942A0D34E0D695C795EC
:101910003A95E1F7CF709C2FEC01D069A0CF0E94DF
:10192000610B0C947C0B82389105B1F1B0F48133DA
:10193000910509F475C048F48932910509F469C02C
:101940008A32910509F473C008958533910509F42D
:1019500059C08933910501F10895833E9105A9F19C
:1019600038F4803E9105F9F0823E910549F10895E1
:10197000863E9105A9F1873E9105C9F1843E910506
:1019800019F52091820621FF1FC08091810684FDF8
:1019900014C087EE90E00895209181062370A1F095
:1019A00080EE90E008952091810620FD47C030919F
:1019B000820630FF09C024FF44C090E080E004C0EC
:1019C0002091810622FDF7CF08952091810622FD06
:1019D0003BC03091820630FDE3CF24FFF5CFEDCF41
:1019E0002091810623FFF0CF24FDE7CFD2CF2091B5
:1019F000810623FD2CC03091820631FFEECF84EEAC
:101A000090E008952091810625FFDECF89E290E0E5
:101A100008952091810625FFD7CF85E390E00895B2
:101A20002091810626FFD0CF8AE290E00895209190
:101A3000810626FFC9CF81E390E0089589E390E015
:101A4000089583EE90E0089582EE90E0089586EE8A
:101A500090E008959091810692FF06C0282F28718A
:101A60002830F9F4877F846093FF06C0282F2871FF
:101A70002831F1F4877E84612091820620FF06C020
:101A8000382F38713830D9F4877F816021FF06C044
:101A9000282F28712831D1F4877E816194FD877EBB
:101AA0000895282F24712430F9F68B7F8860DCCFCD
:101AB000282F2471243101F78B7E8861DDCF382FE8
:101AC0003171313019F78E7F8860E0CF282F217176
:101AD000213121F78E7E8861E1CF0C9441260E944E
:101AE000F30D2FEF86E791E0215080409040E1F721
:101AF00000C000000E94F30D80E00E94B20D80FF44
:101B000004C00E946D0D0C947D2808950C946F0DF7
:101B10000E944726811102C00E94EC260E94522694
:101B200080935D060E945A269093820680938106D8
:101B30000E94860D0E945626682F70E090E080E09B
:101B40000E946F23609130067091310680913206B9
:101B5000909133060C94A92308950C94AC0D08952C
:101B60000C94AF0DE82FF0E0EB57F94F808108950A
:101B700008951F93CF93DF932BED34E0C1E0D0E0C5
:101B8000D90150E040E08D918F3F91F0E82FE29530
:101B9000EF70F0E011A18F70BE0101C0660F8A9551
:101BA000EAF7962F9095912391A382A1862B82A389
:101BB0004F5F5F4F4430510531F72C5F3F4F84E05A
:101BC000233E3807E9F6109283061092850610929C
:101BD00084061092860682E00E94480EDF91CF9123
:101BE0001F910C94C409EF92FF920F931F93CF9310
:101BF000DF93E3E8F6E06BED74E0C0E001E010E0B5
:101C00007B0150E040E030E0D7012D917D012F3F76
:101C1000B9F0822F82958F7090E0DC0190968C91C4
:101C200090E02F7002C0959587952A95E2F780FD88
:101C30002BC0C801042E01C0880F0A94EAF7382B84
:101C40004F5F5F4F44305105F9F680818317F1F003
:101C5000308381E0C82B31966C5F7F4FB4E0633EE8
:101C60007B0771F62C2F42E065E876E083E896E08A
:101C70000E94490E0E94C8098C2FDF91CF911F91BD
:101C80000F91FF90EF90089580E0D9CF80E0E2CFF0
:101C90000895FF920F931F93CF93DF93F82E092F90
:101CA000162FD72FC42F222349F081E080932105DE
:101CB0000E9432289093200580931F058091210572
:101CC0008823A1F080911F05909120050E944A2849
:101CD000069760F0EF2DF02FA12FBD2FCE0FDF2F35
:101CE000D11DEC17FD0741F410922105DF91CF9132
:101CF0001F910F91FF90089581918D93F2CF809164
:101D0000280580FF12C060913A0485E0689FB00109
:101D10001124759567957595679560387105A8F5D7
:101D200061157105A1F1862F089581FF09C06091A9
:101D30003A0485E0689FB001112475956795EDCF51
:101D400060913A0482FD0AC0809127058823D1F072
:101D50009091390460913A04891728F085E0689FD2
:101D6000B0011124DACF869FB001112485E0869F4F
:101D70009001879F300D1124692F70E0C9010E94E6
:101D8000862FCBCF65E070E0CECF8FE7089581E05E
:101D900008958091280580FF0CC06091360470E0A2
:101DA00075956795759567956115710549F1862F4C
:101DB000089581FF06C06091360470E075956795BF
:101DC000F3CF6091360482FD0BC0909126059923D4
:101DD000A1F06091350480913604961738F0682F91
:101DE00070E06038710500F38FE70895899FC001A6
:101DF000112470E00E94862FF4CF61E070E0D7CF0D
:101E000081E008958D3E31F40E947F0E819580938C
:101E10002C0508958E3E19F40E947F0EF8CF8F3E58
:101E200031F40E947F0E819580932B050895803FA9
:101E300019F40E947F0EF8CF893F29F40E94C90E41
:101E400080932D0508958A3F21F40E94C90E819543
:101E5000F7CF8B3F31F40E94C90E819580932E05F8
:101E600008958C3F19F40E94C90EF8CF9FE0980F97
:101E7000983070F4815F990B21E030E001C0220FAF
:101E80008A95EAF780912A05822B80932A05089586
:101E90008D3F31F480912805816080932805089555
:101EA0008E3F21F4809128058260F7CF8F3FB9F7EC
:101EB000809128058460F1CF40912B058D3E59F427
:101EC00080912C0587FF0DC010922C0541110BC08D
:101ED0001092270508C08E3E81F480912C051816BB
:101EE0009CF3442381F080912D0590912E05892B40
:101EF00009F05AC01092260508958F3E49F447FF15
:101F0000F0CF10922B0580912C058111ECCFE0CF02
:101F1000803F19F41416ACF3E4CF90912D05893F5E
:101F200029F41916F4F610922D05DBCF8A3F19F427
:101F300097FFD7CFF8CF90912E058B3F29F497FFCD
:101F4000D0CF10922E05CDCF8C3F19F41916CCF3BB
:101F5000C8CF9FE0980F983090F4815F990B21E0F3
:101F600030E0B90102C0660F771F8A95E2F7CB0116
:101F7000809590912A05892380932A05B2CF8D3FC1
:101F800031F4809128058E7F80932805AACF8E3F5B
:101F900021F4809128058D7FF7CF8F3F09F0A1CFE5
:101FA000809128058B7FF0CF08950E9432289C01F4
:101FB00090912B0580912C05982B21F030932505CD
:101FC0002093240590912D0580912E05982B21F0CA
:101FD000309323052093220589E295E00C94B01AF2
:101FE000EF92FF920F931F93CF93DF9300D000D017
:101FF00000D0CDB7DEB786E0E9E2F5E0DE0111966C
:1020000001900D928A95E1F7E0902B05F0902C0558
:1020100000912D0510912E0510922B0510922C0584
:1020200010922D0510922E058E2D8F2991F0809102
:102030002405909125050E944A28AC01909127051E
:10204000992309F43FC080913B048417150608F4D6
:1020500047C0802F812B91F080912205909123051C
:102060000E944A28AC0190912605992309F477C073
:10207000809137048417150608F47FC080912B05E2
:1020800090912C05892B90912D05892B90912E05EF
:10209000892B11F00E94D50F86E0FE013196A9E24E
:1020A000B5E001900D928A95E1F726960FB6F89467
:1020B000DEBF0FBECDBFDF91CF911F910F91FF907B
:1020C000EF90089520913C048AE0289F900111240C
:1020D0002417350708F0BDCF9F5F9093270502C0F6
:1020E0009F3FD1F7EE2059F00E947F0E9FEF1E1404
:1020F0000CF491E0899F802D112480932B05FF2003
:1021000059F00E947F0E9FEF1F140CF491E0899FFD
:10211000802D112480932C0530912B05332309F455
:1021200098CF20912C05222309F493CF45EB34035B
:10213000C0011124992359F090932B0545EB2403FA
:1021400090011124332339F030932C0582CF81E0A4
:1021500080932B05F3CF81E080932C057ACF2091DB
:1021600038048AE0289F900111242417350708F0CD
:1021700085CF9F5F9093260502C09F3FD1F7002334
:1021800059F00E94C90E9FEF10160CF491E0899F40
:10219000802D112480932D05112359F00E94C90E22
:1021A0009FEF11160CF491E0899F802D11248093EC
:1021B0002E0530912D05332309F460CF20912E0593
:1021C000222309F45BCF45EB3403C001112499238A
:1021D00059F090932D0545EB2403900111243323EE
:1021E00039F030932E054ACF81E080932D05F3CF4F
:1021F00081E080932E0542CF86E0E9E2F5E0DF0141
:102200001D928A95E9F710922705109226051092E3
:1022100028050895CF92DF92EF92FF920F931F93BC
:10222000CF93DF936C017B0164E670E088E70E9446
:10223000A219EC0197FD12C010E000E0F601E00FDA
:10224000F11F849164E670E00E94FE19EC01892B75
:1022500029F40F5F1F4F0E151F0581F70E94811A89
:10226000CE01DF91CF911F910F91FF90EF90DF9002
:10227000CF900895E7E8F6E080E092E0DF019C016E
:102280001D9221503040E1F7F0938C08E0938B08C9
:102290008FEF9FEF90935B0580935A0508950E94FE
:1022A000F8078093560580FD0FC080E880935505A0
:1022B0000E949C196DE070E08BE196E00E940A118B
:1022C000892B21F080E0089580E2F0CF80915605BF
:1022D00063E070E081FD26C088E196E00E940A116B
:1022E000892B81F76DE070E088E096E00E940A118A
:1022F000892B41F70E943E28605A75418F4F9F4FAE
:1023000060938708709388088093890890938A085F
:102310000E943A1181E080935905809358051092EC
:102320005705089585E196E0D9CF2091550536E00F
:10233000839FC0011124629F800D911D112481157E
:1023400022E0920714F090E080E08957994F909333
:102350008C0880938B08089520918B0830918C080D
:102360002158364040915505642F70E0C9010E9404
:10237000722F481B463010F4240F311D211582E0C6
:10238000380710F030E020E02957394F30938C089F
:1023900020938B0808951F93CF93DF93162F8A30D5
:1023A00031F481E0DF91CF911F910C9445128D3073
:1023B00011F480E0F7CFC0918B08D0918C0896E0A3
:1023C000FE01AFE2B5E001900D929A95E1F7803EF3
:1023D000C8F086E0FE0111928A95E9F711111EC03E
:1023E000C0918B08D0918C0846E050E0BE018FE28E
:1023F00095E00E94A92F892BF9F4DF91CF911F91CD
:102400000C94AC11F6E08F9FB0011124685D794FF8
:1024100046E050E0CE010E94A02FE0CFE0918B0873
:10242000F0918C089F012A5F3F4F2E173F07C1F2A2
:10243000808180958193F9CFC758D640CE0125E0A1
:10244000969587952A95E1F721E030E0A90102C031
:10245000440F551F8A95E2F7CA0140915A055091E1
:102460005B05842B952B259645E0D695C7954A9517
:10247000E1F702C0220F331FCA95E2F7822B932B9C
:1024800090935B0580935A05B8CFCF93382FE09196
:102490008B08F0918C08E758F64020915505622F83
:1024A00070E0CF010E94722F281B822F332369F026
:1024B00066E00E94662FC82FC15010F4CF91089596
:1024C00060E080E20E94CB11F7CF9F01280F311D01
:1024D0002115324018F080E0F0E0E0E08E0F9F2FF1
:1024E000911D8957994F90938C0880938B08E6CF64
:1024F000FF920F931F93CF93DF93EC01F62EFC0115
:1025000001900020E9F78F0101501109C017D10790
:1025100030F0DF91CF911F910F91FF9008956F2DB3
:1025200089910E94CB11F2CF1F93CF93DF93EC01DF
:10253000162FFE018491811104C0DF91CF911F916C
:102540000895612F0E94CB112196F3CF0E9494121F
:1025500081E00C94451280915905811103C080914E
:10256000580508950E943E28605A75418F4F9F4F2D
:1025700060938708709388088093890890938A08ED
:10258000809158058111EBCF62E070E086E096E023
:102590000E940A11892B19F781E080935805DFCF3B
:1025A0002F923F925F926F927F928F929F92AF9203
:1025B000BF92CF92DF92EF92FF920F931F93CF9330
:1025C000DF9380915905882369F020915A05309155
:1025D0005B052115310531F08091570561E070E010
:1025E000882399F0DF91CF911F910F91FF90EF9089
:1025F000DF90CF90BF90AF909F908F907F906F9023
:102600005F903F902F9008958F5F082F10E01B017F
:10261000082E02C0220C331C0A94E2F7A9014221C1
:102620005321452B89F39091560590FD44C0829526
:10263000880F807680933F049801369527953695CC
:10264000279520934204815E8093400410924304B6
:1026500024E630E047E050E06DE374E088E70E9454
:102660002D1A892B09F0BECFA80125E0440F551F74
:102670002A95E1F78091560580FD2BC04957594FA7
:1026800004E610E020E230E060E488E70E94541A9B
:10269000892B09F0A7CF0E94AB12E101C095D0951C
:1026A00080915A0590915B05C823D923D0935B058F
:1026B000C0935A0597CF880F880F880F80933F04E7
:1026C00010924204895F8093400483E08093430426
:1026D000BFCFE5E3F5E080E2DF011D928A95E9F7DF
:1026E000A7EEB4E003EE14E08BEEC82E84E0D82E03
:1026F00097E0592E772473948D91E80129918E01EA
:10270000240F352F311D2957394FE82FF0E0EB5CAE
:10271000FA4F90E080E0652C681A872C082E01C0E3
:10272000880C0A94EAF77901A12CE701B9907E019F
:10273000B820662D6A196770962E062E000C770B4E
:10274000DB2D01C0DD0F9A94EAF77195619571094F
:102750006770772701C0B6946A95EAF7BD2A608151
:10276000962E9B289082A39468E0A612DECF019655
:1027700031968830910579F6CA16DB0609F0BCCF90
:1027800004E610E020E230E045E355E07DCF8091A3
:10279000580590915905911103C091E0892708953A
:1027A000882369F062E070E084E096E00E940A11FC
:1027B000892B19F080915805089510925805809141
:1027C0005805EBCF0F931F9380915905882319F17A
:1027D00060E080E00E9495110E944C090E94D01296
:1027E000809158058823B9F00E943E2800918708FF
:1027F000109188082091890830918A08601B710B1C
:10280000820B930B6F3F7F4F8F4F9F4720F41F9199
:102810000F910C94C7131F910F9108950F931F935D
:10282000CF93DF93C42FD22FFC0182818823C9F07C
:1028300040935E050E94322890935D0580935C056D
:1028400080E28C0F883008F050C0C77081E001C072
:10285000880FCA95EAF7DF91CF911F910F910C94E1
:102860001D1D10915E05141335C080915C0590917B
:102870005D050E944A28883C910560F5C0E2CD0FB5
:102880001D17B9F080E2810F883040F4177081E0A5
:1028900001C0880F1A95EAF70E94241DC83048F439
:1028A00081E09D2F977001C0880F9A95EAF70E94EA
:1028B0001D1D802F0E94151DC830B8F4D77081E00F
:1028C00001C0880FDA95EAF7DF91CF911F910F9140
:1028D0000C94241D80E28C0F883038F4C77081E09E
:1028E00001C0880FCA95EAF7EFCFDF91CF911F9112
:1028F0000F9108950F939C01CB01243F4CE53407C1
:1029000059F1A8F4293DFCE53F0701F12A3D4CE5CA
:102910003407D1F1283D3C4591F406E221EE41EE29
:1029200068ED7CE50E940E1480E00F910895263F2B
:10293000FCE53F07E9F0B0F0273F3C45F9F0FC012A
:102940008281882339F110925E05EFCF07E225EEF0
:1029500045EE69ED7CE5E6CF06E221EE40EE64EF60
:102960007CE5E0CF07E225EE44EE65EF7CE5DACFCB
:1029700006E221EE42EE66EF7CE5D4CF07E225EEDB
:1029800046EE67EF7CE5CECF08E221E045EE6AED4A
:102990007CE5C8CF81E0C9CFCF93DF93EC01FB0189
:1029A0008281882309F419C1C230FCE5DF07C0F138
:1029B000C6319CE5D90730F09E012B5F3C4529309C
:1029C000310570F50E945A26909382068093810605
:1029D000C031ECE5DE0709F4CFC008F05BC0C830B9
:1029E0008CE5D80709F4B6C088F5C430ECE5DE07FD
:1029F00009F4A8C0C0F4C2308CE5D80709F49CC023
:102A0000809181068260C330DC4509F498C08091D2
:102A10008106909182060E9468260E949D1F80E098
:102A2000DF91CF910895809181068061C630ECE5F9
:102A3000DE0709F484C0809181068860C730DC45D8
:102A400008F47DC080918106806279C0CC308CE52D
:102A5000D80709F489C070F4809181068C60CA306F
:102A6000ECE5DE0709F46BC008F478C080918106BC
:102A70008E7F65C0CE308CE5D80709F479C080918F
:102A800081068B7FCF30DC4508F459C080918106E8
:102A90008F7E55C0CC3FECE5DE0709F457C030F51A
:102AA000C3318CE5D80709F46FC078F4C131ECE587
:102AB000DE0709F465C0C231DC4509F0A8CF0E94E9
:102AC0009D1F809181068F773AC0C5318CE5D8076C
:102AD00009F462C008F476C0809182068160CB3F21
:102AE000DC4509F094CF8093820691CFC115FDE5B6
:102AF000DF0709F44DC088F4809182068D7FCE3FB8
:102B00009CE5D90781F3809182068E7FCF3FDC451B
:102B100050F3809182068360E6CFC230FDE5DF0787
:102B200009F459C008F444C080E0C330DD4509F021
:102B30006ECF0E94EE266BCF8091810681608093DC
:102B4000810665CF809181068460F9CF80918206ED
:102B50008260C9CF809181068064F1CF0E949D1F61
:102B6000809181068068EBCF809181068D7FE7CFD1
:102B700080918106877FE3CF809181068F7DDFCFB3
:102B8000809181068F7BDBCF80918106837FD7CFB9
:102B9000809182068C7FA7CF8091810682FB992746
:102BA00090F921E0922790FB82F990FB83F9C7CF3F
:102BB00080918206982F909591708E7F892B90FB43
:102BC00081F991CF0E949D1F90918106892F97FBDB
:102BD00087F98058B4CF81E0ACCF81E021CFCF938B
:102BE000DF93EB0186319C4511F50E9476259A8191
:102BF000992399F08A7A91E009F490E090935F0527
:102C0000811109C089E20E9430250E94D22580E00E
:102C1000DF91CF91089585E3F6CF80915F05811113
:102C200004C089E20E943725F0CF85E3FBCF81E025
:102C3000EFCF0F931F93CF93DF938091CA05C0E02E
:102C4000DCE0811116C0DF91CF911F910F910895A3
:102C50000C2F10E0CD9FF0011124E659FA4F83812B
:102C60009481892B29F08081918189238F3FD9F428
:102C7000CF5F8091CA05C81758F31092CA05E3CFF9
:102C800018968D919C918F3F9807D1F061E00E943A
:102C9000B706D09FF001D19FF00D1124E659FA4FED
:102CA00014821382E5CFD09FD001D19FB00D1124A3
:102CB000A659BA4F16968D919C911797892B01F3BF
:102CC0002081318142815381648175818681978120
:102CD0000E944722DECF1092CC051092CB052091A6
:102CE000330430913404E0E0F1E090E080E0281714
:102CF000390709F408954581411102C014821682F2
:102D000001963796F4CFDC016091680580916905E2
:102D1000962F891301C00895292F30E0F901EE0F95
:102D2000FF1FE05AFA4F408151814A175B07A1F417
:102D300087E08A9FA0018B9F500D112440505F4F68
:102D400081E0FA0184839613E6CF2F5F3F4F237013
:102D500033272093680508952F5F3F4F922F93707C
:102D6000D8CF7F928F929F92AF92BF92CF92DF92F5
:102D7000EF92FF920F931F93CF93DF93EB012C8180
:102D8000211165C07090CA05AAE6B5E030E020E0E8
:102D9000812C61E070E0271508F042C01A96CD90B2
:102DA000DC901B97A880B9804FEF5FEF912CE92C46
:102DB000F12CF701EE0FFF1FEA0DFB1D0591149199
:102DC000C016D10609F4A701012B11F09394EFCF9F
:102DD0004F3F5407C1F1FB0102C0EE0FFF1F4A95A0
:102DE000E2F78E2AAB0102C0440F551F9A94E2F716
:102DF000415051098416150611F54A815B816CE03A
:102E0000629FF001639FF00D1124E659FA4F57833A
:102E100046832EEF208321839187808721E02D83B5
:102E2000DF91CF911F910F91FF90EF90DF90CF90A6
:102E3000BF90AF909F908F907F900C9483161496C4
:102E40001C921E9213972F5F3F4F1C96A4CFDF91C9
:102E5000CF911F910F91FF90EF90DF90CF90BF9097
:102E6000AF909F908F907F9008951F93CF93DF93A3
:102E7000C091680517E0809169058C1307C00E9416
:102E80001916DF91CF911F910C946B16D0E0FE01C3
:102E9000EE0FFF1FE05AFA4F80819181189FB00119
:102EA000199F700D112460507F4F0E94B11621961A
:102EB000C370E1CFEF92FF921F93CF93DF93FC019A
:102EC0002081318110E040E050E0E52FF0E0EE0F8E
:102ED000FF1FE20FF31FA591B4911097B9F0FB010A
:102EE000C081D18140E005C0AE15BF0509F411E0F5
:102EF0004F5FE42FF0E0EE0FFF1FEC0FFD1FE5909A
:102F0000F490E114F10481F75F5FDFCF112349F002
:102F1000451708F4CB01DF91CF911F91FF90EF90FF
:102F2000089590E080E0F7CF80914404882341F138
:102F30008091CD059091CE05009711F10E944A280D
:102F40002091CB053091CC0528173907C8F4909112
:102F5000680580916905981759F00E9435171092FD
:102F6000CC051092CB051092CE051092CD05089598
:102F70000E9419161092CE051092CD050C946B1676
:102F800008951092CE051092CD05109244048091C0
:102F900069058093680508958091440481110C941B
:102FA000C11781E08093440408952F923F924F927D
:102FB0005F926F927F928F929F92AF92BF92CF92C9
:102FC000DF92EF92FF920F931F93CF93DF93CDB7D2
:102FD000DEB72A970FB6F894DEBF0FBECDBF5C01F7
:102FE0007B01883F2CE5920709F5FB011281112333
:102FF00091F181E080934404812F2A960FB6F894D2
:10300000DEBF0FBECDBFDF91CF911F910F91FF901B
:10301000EF90DF90CF90BF90AF909F908F907F9078
:103020006F905F904F903F902F900895893FFCE5FF
:103030009F0739F4FB011281112369F00E94C11727
:10304000DBCF8A3F9C4539F4FB011281112319F033
:103050000E94CC17D1CFF0914404FA8711E0FF23EE
:1030600059F200E011E0D12CC12C198688248394F8
:10307000912C8091330490913404C816D906C0F184
:10308000F7018281882309F445C1F985FF2309F4FA
:1030900041C10E9432289093CE058093CD05809146
:1030A000CA05883008F591E0980F9093CA0598E01A
:1030B000F701DE01119601900D929A95E1F72CE04F
:1030C000829FC001112486599A4F28E0FE01319653
:1030D000DC0101900D922A95E1F72FEF3FEFFC0103
:1030E00031872087B386A28611E0F9851F2784CF18
:1030F000F8016081718166246A94762C20E0422F69
:1031000050E0FA01EE0FFF1FE60FF71F8591949133
:10311000A816B90609F43A01892B11F02F5FEFCFF9
:10312000312CFFEF6F167F06C9F1F7013280F801ED
:10313000448155808681332009F48BC0411189C0B8
:10314000511013C0A40101C0440F6A94EAF7842B04
:1031500086838091CB059091CC05C29730F462E3D1
:1031600070E07093CC056093CB05C40102C0880F5A
:10317000991F2A95E2F70197F80126812817190669
:1031800069F48091CD059091CE05009781F00E9461
:103190004A28C39760F021E0F8012483F985F329D8
:1031A000F9872FEFC21AD20A095F1F4F62CF209012
:1031B000680590E080E020916905221215C0801713
:1031C000910761F3622C712CF301EE0FFF1FE05A9F
:1031D000FA4FD182C0826FEF661A760A73E06722D7
:1031E000772460926905DACF622C712CF301EE0F1F
:1031F000FF1FE05AFA4F2081318147E0429FC00112
:10320000439F900D1124BC0160507F4F2B01B801EA
:10321000C2010E945A170097A9F021E0FC01248303
:103220008017910709F4BACF2091680522120AC0CD
:103230004816590639F493012F5F3F4F2370332707
:10324000209368053FEF631A730A462D4370242EBE
:10325000B2CF90E051101FC0F40102C0EE0FFF1F6B
:103260002A95E2F79F01215031092817390731F4D7
:10327000442309F44DC0C6010E948316C40101C055
:10328000880F6A94EAF7982F9095F8018681892330
:103290008683352C83CF9C01062C02C0359527955B
:1032A0000A94E2F7A90141705527BC0161507109E8
:1032B00086239723892B41F5452B31F1F801828133
:1032C0009381892BE1F01B821C821D821E82FEEFFE
:1032D000F983FA830E9432288160582F9D838C8362
:1032E000F801828193818F83988729813A814B816C
:1032F0006D817E810E944722F8011582BFCF60E078
:10330000C6010E94B706F8CFF22FF1705F2EB6CF3C
:103310005A84B4CF9091680580916905981719F087
:103320000E943517E1CE0E9419161092CE05109218
:10333000CD050E946B16D8CE1092B9008CE0809318
:10334000B8000895EF92FF920F931F93CF93DF93EE
:10335000182FEB011092BC0084EA8093BC000E94FD
:1033600032287C018091BC0087FF27C08091B90082
:10337000887F883029F08091B900887F8031D9F525
:103380001093BB0084E88093BC000E9432288C011B
:103390008091BC0087FF24C02091B900287F90E075
:1033A00080E02831B1F081E090E0203411F490E029
:1033B00080E09195819591090CC0CF3FDC0791F297
:1033C0000E9432288E199F098C179D0758F28EEFA4
:1033D0009FEFDF91CF911F910F91FF90EF90089594
:1033E000CF3FDC07A9F20E943228801B910B8C177B
:1033F0009D0770F2ECCF8FEF9FEFEBCF0F931F93F2
:10340000CF93DF93EB018093BB0084E88093BC00F3
:103410000E9432288C018091BC0087FF11C020914E
:10342000B900287F81E090E0283211F490E080E03C
:10343000919581959109DF91CF911F910F910895F9
:10344000CF3FDC0741F30E943228801B910B8C1781
:103450009D0708F38EEF9FEFEECFCF92DF92EF92B2
:10346000FF920F931F93CF93DF936B018A01790132
:10347000B9010E94A219E6010C0D1D1DC017D1074C
:1034800061F424E92093BC00DF91CF911F910F914B
:10349000FF90EF90DF90CF90089597FDF2CFB701A6
:1034A00089910E94FE19EACFCF92DF92EF92FF92AC
:1034B0000F931F93CF93DF93C62F6A017901B80151
:1034C0000E94A21997FD0CC0B8018C2F0E94FE1912
:1034D000E601EC0CFD1CCE15DF0511F097FF0CC0CA
:1034E00024E92093BC00DF91CF911F910F91FF90B1
:1034F000EF90DF90CF900895B80189910E94FE1956
:10350000EACF84E98093BC0008959093D40580931A
:10351000D3050895E091D305F091D405309721F0BB
:103520000190F081E02D099480E00895E091D305A9
:10353000F091D405309799F020915104222359F04D
:103540002091810627FF07C0DC012C9111962C9356
:10355000119725E02C930280F381E02D09940895C2
:10356000E091D305F091D405309739F022E0DC01E9
:103570002C930480F581E02D099408952091D105C4
:103580003091D2052817390771F09093D2058093B6
:10359000D105E091D305F091D405309721F0068054
:1035A000F781E02D099408952091CF053091D00541
:1035B0002817390771F09093D0058093CF05E091DB
:1035C000D305F091D405309721F00084F185E02DEA
:1035D000099408950E943E286093DC057093DD05F0
:1035E0008093DE059093DF056093D8057093D9052D
:1035F0008093DA059093DB05089585B7806885BFD1
:1036000085B7806885BF0895089508950C94041BBC
:1036100008950C94081B0E94FD1A8FE396E20E9405
:10362000A1280E94051B0C94061B81E008950C94B0
:10363000151B089508950E9429280E94B90D80E065
:103640000E944F110C94091B9F92AF92BF92CF9290
:10365000DF92EF92FF920F931F93CF93DF93CDB73B
:10366000DEB72A970FB6F894DEBF0FBECDBF0E941B
:10367000191B0E941A1B0E94F30DC82E81110E9473
:10368000EA1A86EDA82E85E0B82E10E000E0902E14
:10369000802F0E94B20DE82EF501F1905F01F8161F
:1036A00009F457C080915D0681FD0E94B80D8F2DF1
:1036B0008E25D12CFF24F394982F9F2109F444C028
:1036C0000E94171B882399F0DE829F82EF2081E001
:1036D00009F480E088870E9432288160782F9A87D9
:1036E00089874E815F8168858A850E94CF1BF8019A
:1036F000EA52FA4F8081F826F0820E94E213C1104C
:103700000E94AB120E94F00F0E948A1A9091D50578
:10371000891799F10E948A1A8093D5052A960FB6C7
:10372000F894DEBF0FBECDBFDF91CF911F910F91F7
:10373000FF90EF90DF90CF90BF90AF909F900C9450
:10374000550B01E010E0A3CFD394FF0CF4E0DF129F
:10375000B3CF01301105A9F78FEF89838A831B82CC
:103760000E9432288160782F9D838C8349815A8101
:103770006B818D810E94CF1BC0CF2A960FB6F89423
:10378000DEBF0FBECDBFDF91CF911F910F91FF9094
:10379000EF90DF90CF90BF90AF909F900895CF9320
:1037A000DF93CDB7DEB72D970FB6F894DEBF0FBE0F
:1037B000CDBF49875A876B877C878D8761110E94AF
:1037C00096251D821E821F82188685E0FE0139968D
:1037D000DE01119601900D928A95E1F78C819D8111
:1037E000892B99F429813A814B815C816D817E819D
:1037F0008F8198850E9447222D960FB6F894DEBFE0
:103800000FBECDBFDF91CF91089589819A81892321
:103810008F3F41F3CE0101960E94AE098111E2CFA4
:10382000EBCFFC01808191810C940225CF93C82FAE
:10383000882309F48BC08238C1F40E948A1A81FD62
:1038400085C089E30E9430250E94D2252FEF81EEAA
:1038500094E0215080409040E1F700C0000089E3EF
:103860000E943725CF910C94D2258338A1F40E9471
:103870008A1A80FD6BC083E50E9430250E94D22504
:103880002FEF81EE94E0215080409040E1F700C09E
:10389000000083E5E5CF8438A1F40E948A1A82FDF6
:1038A00055C087E40E9430250E94D2252FEF81EE7B
:1038B00094E0215080409040E1F700C0000087E490
:1038C000CFCF8CEF8C0F813A90F46C2F8091450410
:1038D000909146040E940727882329F08C2F0E948C
:1038E00037250E94D2258C2F0E943025BBCF80E245
:1038F0008C0F883048F4C77081E001C0880FCA95EA
:10390000EAF70E947925AECFEBE5EC0FE33040F407
:10391000F0E0E75EFA4F808190E0CF910C94BE1A00
:10392000E8E5EC0FE73150F4F0E0EE0FFF1FE55152
:10393000FB4F80819181CF910C94D41ACD3E30F011
:103940008C2F0E94020FCF910C94D50FCF91089528
:10395000882309F452C0823871F40E948A1A81FFC8
:103960004CC089E30E9430250E94D22589E30E9441
:1039700037250C94D225833859F40E948A1A80FF87
:103980003CC083E50E9430250E94D22583E5EFCF1D
:10399000843859F40E948A1A82FF2FC087E40E945B
:1039A00030250E94D22587E4E2CF9CEF980F913A10
:1039B000F0F290E2980F983050F4877091E001C0D7
:1039C000990F8A95EAF7892F0E947F25D2CF9BE530
:1039D000980F933020F490E080E00C94BE1A98E5A4
:1039E000980F973120F490E080E00C94D41A8D3E2B
:1039F00020F00E945C0F0C94D50F08951F93CF9375
:103A0000DF93182FEB010E94161C209731F4812FB1
:103A1000DF91CF911F910C94A81C8FE99FE0019733
:103A2000F1F700C000002197F0CF70E060E089332B
:103A300011F460E570E00C94FE1C882321F00E94D4
:103A400079250C94D2250895882321F00E947F25A2
:103A50000C94D2250895BF92CF92DF92EF92FF92FD
:103A60000F931F93CF93DF936C01D62FC72FFC01C9
:103A70001281058102950F700E944E25E82E882341
:103A8000A1F0E12E112389F08C2F807F803429F062
:103A900080E28D0FE12C883040F082E00E942326E6
:103AA0000E944E2591E0E82EE926BC2EB2949FE0BC
:103AB000B922EB2DF0E0E258FF4C0C949A2F0C2F1A
:103AC0000F70C07F11F00295007F1123A9F0002331
:103AD00059F080E28D0F883010F0D11109C0802F8D
:103AE0000E9479250E94D2258D2F0E94161C14C099
:103AF000802F0E948925F6CF8D2F0E94A81C0023BD
:103B000059F080E28D0F883010F0D1112CC0802F39
:103B10000E947F250E94D2252B2D2850330B243064
:103B2000310520F40E948A1A0E94550BEE2009F4F8
:103B30009EC10E944A2580FD9AC1F60112820E9410
:103B400044250E94D123C6010E945F1F0E94442584
:103B5000DF91CF911F910F91FF90EF90DF90CF9069
:103B6000BF900C94F223802F0E948F25D3CFFC2F7F
:103B7000FF70FF2EC07FC03219F0F29480EFF82260
:103B8000DD2369F0D13049F1112391F1002351F186
:103B9000F601858180FFA8CF8F70858323C0112314
:103BA00081F0011106C00E94A9258F290E941D1DC8
:103BB000B3CF0130C1F70E94A9258F290E94BB25F0
:103BC000ABCF011106C00E94C8258F2D0E94241D75
:103BD000A3CF013009F4A0CFF6CF112329F006308E
:103BE00008F09ACF8F2DE2CF053008F095CFEDCFBA
:103BF000002359F3D93349F4FFEF27EE33E0F150B6
:103C000020403040E1F700C000008D2F0E94A81C2A
:103C100083CF8C2F86958695837069F0813009F06B
:103C20007BCF8D2F9C2F9370111102C090E080E00C
:103C30000E94D41A71CF8D2F9C2F9370111102C046
:103C400090E080E00E94BE1A67CF8D2F112329F0EB
:103C50000E94020F0E94D50F5FCF0E945C0FFACF27
:103C60008C2F837009F041C0111156CF4D2F429512
:103C700046954770440F440F0D2F0F7010E030E051
:103C800020E0042E04C0000F111F221F331F0A94CE
:103C9000D2F760E070E0CB01D4FF0FC06FE070E0BE
:103CA00080E090E004C0660F771F881F991F4A9537
:103CB000D2F76095709580959095C695C695C3701E
:103CC000602B712B822B932BC23049F058F4C130FA
:103CD00019F00E94832320CF0E9471231DCF0E94E0
:103CE00095231ACF0E946F2317CF8695112311F0C9
:103CF0008C2F8170882309F40FCF4D2F4295469564
:103D00004770440F440F0D2F0F7010E030E020E09B
:103D1000042E04C0000F111F221F331F0A94D2F774
:103D200060E070E0CB01D4FF0FC06FE070E080E096
:103D300090E004C0660F771F881F991F4A95D2F73D
:103D40006095709580959095C695C695C370602BCB
:103D5000712B822B932BC23049F058F4C13019F0EB
:103D60000E944824D9CE0E943624D6CE0E945A24DE
:103D7000D3CE0E94AB23D0CECF70112329F08C2F4D
:103D80000E94D1238D2F12CF8D2F0E94241D8C2FA6
:103D90000E94F223C1CED23F89F160F4D03FC9F036
:103DA000D13F29F1112309F442C001119DCE8C2F7E
:103DB0008F7121C0D33F39F1D43FA1F7112369F1AD
:103DC000CF718C2F0E94D12363E08C2F0E94082694
:103DD000A3CE112341F0053008F09ECE8C2F8F71B9
:103DE0000E94152499CE063008F096CEF7CF8C2F7E
:103DF0008F71112369F20E94D1238ECE8C2F8F7187
:103E00001123C9F3C5CF112329F08C2F8F710E9484
:103E1000BC2382CE0E94B7237FCE81E00E9423265E
:103E2000023008F479CE82E00E94232675CE00236A
:103E300059F0D93309F0E9CE8FEF97EEE3E08150E6
:103E40009040E040E1F7DFCE8C2F8F71A1CF4C2F57
:103E50004F706D2FC6010E945D0B0E94E7225CCE61
:103E60004C2F4F706D2FC6010E94600B55CEDF9115
:103E7000CF911F910F91FF90EF90DF90CF90BF9067
:103E800008950F931F93CF93DF93EC018E819F8151
:103E9000009779F00E947C0B8C010E946C240E9498
:103EA0006E23B801CE01DF91CF911F910F910C9439
:103EB0002B1D688179818A810E940C25EDCFCF93DB
:103EC000DF93EC018B819C81892B29F0888199817A
:103ED00089238F3F59F4DF91CF910895CE010E943D
:103EE000411FCE01DF91CF910C94B909CE010E9400
:103EF000DC098111F3CF0E944E25882361F38A816A
:103F0000882349F382E0DF91CF910C94232690E03F
:103F100080E00E94BE1A90E080E00E94D41A0E94C5
:103F200096250E94A6250E94D2250E94FC100C9482
:103F3000D50F0E943E250C94871F0E9486250C9465
:103F4000991FE92FE295EF70E250EE3070F4F0E047
:103F5000E257FF4C0C949A2F803F19F020F4883ED2
:103F600020F481E00895843FE1F380E00895883EE5
:103F7000C0F3813FD1F7F5CF93FB882780F90895EF
:103F8000FC0186819781009721F00E947C0B0C94A4
:103F9000A11F808191810E940225F9CFCF93DF93E9
:103FA00000D000D00F92CDB7DEB70F900F900F90DA
:103FB0000F900F90DF91CF910895CF93DF93CDB7FE
:103FC000DEB728970FB6F894DEBF0FBECDBF289698
:103FD0000FB6F894DEBF0FBECDBFDF91CF9108952D
:103FE000CF93DF93C091E1058091E2058C1303C06C
:103FF000DF91CF910895D0E0FE0183E0EE0FFF1F27
:104000008A95E1F7ED51FA4F208131814281538148
:1040100064817581868197810E94DD1F2196C7701A
:10402000E3CF20912306309124064091250650913C
:1040300026066091270670912806809129069091A6
:104040002A060C94DD1FCF93DF9380912806807F92
:10405000A1F480912506882381F08091E105C0912B
:10406000E2056091230670912406A0912606B09186
:104070002706D62FD723C81303C0DF91CF91089509
:1040800090E0109711F0DF3F19F401968770F3CF9D
:104090009C0143E0220F331F4A95E1F7F901ED51EE
:1040A000FA4F41814713F1CF40814613EECF428151
:1040B0004111EBCF438154814A1B5B0B483C5105B6
:1040C00020F7809128068F70806180932806F9017F
:1040D000E851FA4F80818F708061808383E296E09F
:1040E0000E945F1FDF91CF910C94F01FAF92BF929F
:1040F000CF92DF92EF92FF920F931F93CF93DF93B4
:10410000CDB7DEB765970FB6F894DEBF0FBECDBF53
:104110008C0185E0F801DE01519601900D928A959F
:10412000E1F7F801E28043E2C42E46E0D42E60912C
:104130002606709127066115710509F48CC19091CE
:10414000230620912406892F82238F3F09F483C1FF
:1041500040815181A380B480F0902506F501E61BD3
:10416000F70BFF2009F42CC180912806382F307FEF
:10417000E83CF10508F0D6C0311183C0FE2C2513B0
:104180002DC094132BC06091290670912A06F80166
:10419000268137816217730709F5E1101FC08F7000
:1041A0008061809328060E941120C6010E945F1F33
:1041B00080912806F80185838F2D65960FB6F894B7
:1041C000DEBF0FBECDBFDF91CF911F910F91FF904A
:1041D000EF90DF90CF90BF90AF900895AB2829F07B
:1041E000842F85238F3F09F04FC180E0F82FF170B5
:1041F000DF2E80FF3CC08091E1052091E205821313
:1042000015C0498B5A8B89899A890E940225292FCA
:1042100022952F702230F8F0243020F59F70F9F0AD
:10422000F8019581907FD9F4D12C1FC090E0FC015A
:1042300033E0EE0FFF1F3A95E1F7ED51FA4F318170
:10424000351306C03081341303C032813E110FC0D4
:1042500001968770D4CF9F7011F0882329F3805E78
:10426000883010F3C8010E945F1FFD2CA5CFEE20FF
:1042700009F4A2CF80912806816080932806F12C52
:104280009BCF25131DC094131BC04091290650914C
:104290002A06F801268137814217530789F4E11075
:1042A0000FC08583C8010E945F1F88E0F801A3E268
:1042B000B6E001900D928A95E1F70E9411207CCF23
:1042C000C8010E94C01F882349F1EE2039F1809176
:1042D00028068032A0F020912306309124063A87E8
:1042E00029871B86BD86AC868E8780912906909192
:1042F0002A06988B8F87CE0109960E945F1F88E05F
:10430000F801A3E2B6E001900D928A95E1F70E94D0
:1043100023200E941120FF24F3944ECFC8010E9455
:104320005F1FF9CF311113C07A2DBD8AAC8A6E2D73
:104330008D890E94CE1F83E296E00E945F1F88E075
:10434000F60111928A95E9F70E94112098CF251362
:1043500018C0941316C04091290650912A06F801FE
:10436000268137814217530761F4E1100AC0858323
:10437000C8010E945F1F88E0F60111928A95E9F753
:104380001BCFC8010E94C01F882341F2EE2031F2EA
:1043900080912806803208F4B2CF20912306309114
:1043A00024063A8329831B82BD82AC828E8380914E
:1043B000290690912A0698878F83CE0101969DCF7A
:1043C000E83CF105D8F5FE2CEE2009F4A7CF251323
:1043D00027C0941325C02091290630912A06F801A0
:1043E0008681978128173907D9F49091280690FD86
:1043F0000EC0907F61F0809128068583903F09F47C
:1044000051CF982F907F905F8F70892B4ACF88E093
:10441000F801A3E2B6E001900D928A95E1F7CCCEC7
:10442000C8010E94C01F81116ACF80912806816057
:1044300080932806C8010E945F1FBECE7A2DBD8AD8
:10444000AC8A6E2D8D890E94CE1F88E0F6011192F4
:104450008A95E9F732CFEE2009F460CFC8010E94B7
:10446000C01FF82E882309F459CF88E0F801A3E291
:10447000B6E001900D928A95E1F783E296E00E9402
:10448000111C0E94232019CF81E08E25AFCECF933F
:10449000DF93CDB7DEB760970FB6F894DEBF0FBEDF
:1044A000CDBF29873A874B875C876D877E878F874B
:1044B000988BCE0109960E9476208823D1F08C85B6
:1044C0009D85892B39F029853A85822F83238F3F5B
:1044D00009F074C08091E1059091E205891348C00C
:1044E00060960FB6F894DEBF0FBECDBFDF91CF91BF
:1044F000089588E0FE013996DE01119601900D9233
:104500008A95E1F78C859D85892B21F389859A858C
:1045100089238F3FF9F2A091E205B0E0CD01019629
:10452000877099272091E1052817190671F40E94D8
:104530009D1F1092E2051092E10588E0E3E2F6E0AB
:10454000DF011D928A95E9F7C5CF93E0AA0FBB1F43
:104550009A95E1F7AD51BA4F98E0FE01319601907E
:104560000D929A95E1F78093E2050E94F01FB2CF79
:10457000B8E08B9FC00111248D519A4F0E94762084
:10458000882309F4ADCFE091E10528E0E29FF00136
:104590001124ED51FA4F2081318142815381648190
:1045A0007581868197810E94DD1F8091E10590E0F1
:1045B0000196877099278093E1058CCF4B855C85A8
:1045C0006D857E858F8598890E94DD1F83CFEF9250
:1045D000FF920F931F93CF93DF938C01892B81F070
:1045E000F12CEE24E394E8012196F80184918437BC
:1045F00070F4843008F05FC08130B1F08230A1F1F6
:10460000DF91CF911F910F91FF90EF900895853723
:1046100009F44CC008F43DC09CE7980F903780F730
:104620008F770E94A81C49C00E5F1F4FFE01849126
:1046300090E2980F983060F48770FE2D01C0FF0F54
:104640008A95EAF78F2F0E9499250E94D22502C0F1
:104650000E94161C8F2D815030F2EFE9FFE0319758
:10466000F1F700C00000F7CF0E5F1F4FFE018491ED
:1046700090E2980F983050F48770FE2D01C0FF0F24
:104680008A95EAF78F2F0E949F25DFCF0E94A81CF2
:10469000E1CF0E5F1F4FFE01C491C150D8F28FE9E8
:1046A0009FE00197F1F700C00000F7CF0E5F1F4FAA
:1046B000FE01F490CFCF0E94161C8E01CBCF08953F
:1046C0000C945F230E946023609334067093350638
:1046D00080933606909337060C94871F08950C94A8
:1046E00062230F931F930091340610913506209199
:1046F000360630913706602B712B822B932B1F913E
:104700000F910C9462230F931F9300913406109124
:1047100035062091360630913706602371238223B7
:1047200093231F910F910C9462230F931F93009179
:1047300034061091350620913606309137066027F1
:104740007127822793271F910F910C9462230C9459
:104750005F230C94A7230E94A923609330067093D3
:10476000310680933206909333060C94871F60E0E5
:1047700070E0CB010C94AB230F931F9341E050E00A
:1047800060E070E08A019B0104C0000F111F221F2E
:10479000331F8A95D2F7C901B8011F910F910C946C
:1047A000AB230F931F9341E050E060E070E004C042
:1047B000440F551F661F771F8A95D2F780913006E8
:1047C00090913106A0913206B09133068A019B0187
:1047D000082B192B2A2B3B2BC901B8011F910F91D4
:1047E0000C94AB230F931F9341E050E060E070E026
:1047F00004C0440F551F661F771F8A95D2F7CB015F
:10480000BA01609570958095909500913006109151
:1048100031062091320630913306602371238223C2
:1048200093231F910F910C94AB230F931F9341E09F
:1048300050E060E070E004C0440F551F661F771F12
:104840008A95D2F78091300690913106A091320678
:10485000B09133068A019B01082719272A273B2795
:10486000C901B8011F910F910C94AB230F931F93B3
:1048700000913006109131062091320630913306B6
:10488000602B712B822B932B1F910F910C94AB23D8
:104890000F931F930091300610913106209132063C
:1048A0003091330660237123822393231F910F914C
:1048B0000C94AB230F931F93009130061091310697
:1048C0002091320630913306602771278227932783
:1048D0001F910F910C94AB230895990F990F890F95
:1048E000982F977041E001C0440F9A95EAF786959A
:1048F0008695869595E0899FF0011124E55DF94F35
:1049000030E020E070E05191DF011197CB01022EE1
:1049100002C0969587950A94E2F781708195852764
:10492000842385278C932F5F3F4F2530310559F71E
:104930000895990F990F890F982F977086958695EE
:10494000869525E0829FF0011124E55DF94F50E046
:1049500040E080E0219130E0092E02C03695279595
:104960000A94E2F721703327042E01C0220F0A9423
:10497000EAF7822B4F5F5F4F4530510559F7089595
:10498000BF92CF92DF92EF92FF920F931F93CF933C
:10499000DF938C01C0903006D0903106E090320653
:1049A000F09033068091340690913506A09136063A
:1049B000B0913706C82AD92AEA2AFB2ACFE1D0E0EB
:1049C000BC2ED701C6010C2E04C0B695A7959795AD
:1049D00087950A94D2F780FD0EC0219788F7B12CF5
:1049E0008B2DDF91CF911F910F91FF90EF90DF9072
:1049F000CF90BF900895B8018C2F0E948F0C019723
:104A000061F3EECFCF93DF93EC010E94C024BE018F
:104A1000DF91CF910C948F0C1F93CF93DF93EB0119
:104A20009091E005992331F0CB01DF91CF911F9157
:104A30000C940225882379F0CB010E94C024182F02
:104A4000682FCE010E946D24BE01812FDF91CF918E
:104A50001F910C948F0CCB010E949924182FF4CF36
:104A6000682F80914504909146040C948727682F05
:104A700080914504909146040C94922780914504BE
:104A8000909146040C949D278091380685958595D4
:104A9000859508958091380687700895909138061D
:104AA000977081E009F480E008959091820692FB6E
:104AB000222720F9281751F080FB92F99093820663
:104AC00080918106909182060C94682608958091C9
:104AD000820682FB882780F991E089270C9455256E
:104AE00081E00C94552580E00C94552580915C065E
:104AF000089590915C06892B80935C0608958095BB
:104B000090915C06982390935C06089510925C0641
:104B1000089590915B06892B80935B06089580959C
:104B200090915B06982390935B06089510925B0624
:104B3000089590915A06892B80935A06089580957E
:104B400090915A06982390935A06089510925A0607
:104B5000089580913906089508950C94AC2590919C
:104B60003906292F2823281729F0982B90933906E6
:104B70000C94AD2508959091820692FD08C0909105
:104B80003906981721F0809339060C94AD250895C5
:104B900080913906882329F01092390680E00C9420
:104BA000AD250895E0914504F091460480915C069E
:104BB0008083E0914504F0914604808190915B06EA
:104BC000892B8083E0914504F09146048081909187
:104BD0005A06892B808390913906992381F0E091C0
:104BE0004504F09146048081892B8083809145049F
:104BF000909146040E94F32681110E94C82580915D
:104C00004504909146040C94961A08950C94052638
:104C10009091820692FD10C098E0899F9001112426
:104C2000622B609338060E94D123809138068595C7
:104C3000859585950C9406260C94D1231092380600
:104C400080E00C9406269091380680958923809305
:104C50003806282F277039F4282F082E000C330B24
:104C60009217130621F49091820692FF07C0859552
:104C7000859585950E94F2230C941E26089580E068
:104C800008956FEF7FEF90E080E00C94E22F90E0CA
:104C900080E00E94BE2F21E08A3E9E4F09F020E076
:104CA000822F089582E090E00C94B62F83E090E08C
:104CB0000C94B62FCF9384E090E00E94B62FC82FBB
:104CC00082E290E00E94B62F982F8C2FCF9108950A
:104CD000CF93C92F682F84E090E00E94C42F6C2FDF
:104CE00082E290E0CF910C94C42FAB01BC018FE025
:104CF00090E00C94D62FAB01BC0183E190E00C94C2
:104D0000D62F60E070E0CB010C947B2660E070E071
:104D1000CB010E9475260C9481266AEE7EEF90E00E
:104D200080E00E94E22F60E082E090E00E94C42FC9
:104D300060E083E090E00E94C42F1092340610924D
:104D40003506109236061092370660E084E090E057
:104D50000E94C42F60E082E290E00E94C42F60E0D5
:104D600085E090E00E94C42F60E086E090E00E9421
:104D7000C42F6FEF87E090E00E94C42F40E050E026
:104D8000BA0188E090E00E94D62F60E08DE090E0CC
:104D90000E94C42F40E050E0BA0188E190E00E94F8
:104DA000D62F60E087E190E00E94C42F40E050E001
:104DB000BA018CE190E00E94D62F70E060E080E2C2
:104DC00090E00E94E22F40E050E0BA0188E190E0DC
:104DD0000E94D62F0C9486260C948D26682F8EE088
:104DE00090E00C94C42FFC013296809151048823EA
:104DF00021F0809181069EE187FF96E080E091504E
:104E000008F4089521912223D1F38F5FF8CF662310
:104E100001F1209151042223F1F02091810627FF16
:104E20001AC0462F4695469546954E3190F46770C8
:104E300021E030E002C0220F331F6A95E2F7840FB1
:104E4000911DFC01828190E02823392381E0232BEE
:104E500069F480E00895FC013296089621912617A6
:104E600021F0E817F907D1F7F4CF81E008959C010C
:104E7000FC0132969FEF80E04191461751F09F3F31
:104E800019F4411101C0982F8F5F8630A9F79F3F19
:104E900009F40895290F311D97FD3A95F9016283B0
:104EA0000895FC01329608962191261303C0DF0174
:104EB00011971C92E817F907B9F70895E62FE695C0
:104EC000E695E695EE3168F4E80FF92FF11D67706D
:104ED00021E030E001C0220F6A95EAF78281822B3F
:104EE00082830895E62FE695E695E695EE3170F417
:104EF000E80FF92FF11D677021E030E001C0220FAB
:104F00006A95EAF7209582812823228308952091CB
:104F10005104222329F02091810627FD0C945E275D
:104F20000C94372720915104222329F020918106E7
:104F300027FD0C9472270C945127FC013296809126
:104F40005104882351F08091810687FF06C08EE1CD
:104F5000DF011D928A95E9F7089586E0F9CF08955B
:104F600008950C94B02780919508843049F10E94EF
:104F7000B12780E00E94550B10925E0688E190E018
:104F800020E40FB6F894A895809360000FBE20939C
:104F9000600083B7817F846083BF83B7816083BFF4
:104FA0007894889583B78E7F83BF0FB6F894A895C1
:104FB00080916000886180936000109260000FBE55
:104FC000089508950E94AF270E94F30D0E94E127E3
:104FD00080E00E94B20D91E0811107C081E00E9443
:104FE000B20D91E0811101C090E0892F08950895DC
:104FF0000C94F7270E949D1F0E948A1A0E94550B4D
:105000000C94F8271F921FB61F9211248F939F9321
:10501000AF93BF9380915E06811113C080918D087C
:1050200090918E08A0918F08B09190084196A11D93
:10503000B11D80938D0890938E08A0938F08B09334
:105040009008BF91AF919F918F911F901FBE1F90AD
:10505000189582E084BD93E095BD9AEF97BD80934B
:105060006E0008952FB7F89480918D0890918E0866
:10507000A0918F08B09190082FBF08952FB7F89492
:1050800060918D0870918E0880918F0890919008A2
:105090002FBF08959C014FB7F89480918D0890918F
:1050A0008E08A0918F08B09190084FBF821B930B80
:1050B000089578941F921FB61F9211248F939F9387
:1050C000AF93BF9380918D0890918E08A0918F0827
:1050D000B09190080196A11DB11D80938D08909309
:1050E0008E08A0938F08B0939008BF91AF919F91C5
:1050F0008F911F901FBE1F90189581E08093E00054
:1051000080E28093D8001092C9008FE19EE401975D
:10511000F1F700C0000087E090EBDC0180939E086F
:1051200090939F08A093A008B093A10888E19CE009
:105130000FB6F894A895809360000FBE909360001E
:10514000FFCF90931D0580931C05089580917F06E5
:105150000895CF93DF9300D00F92CDB7DEB7909133
:105160009508943019F589837B836A8382E0809364
:10517000E9008FEF9091E800815095FD06C095ED14
:105180009A95F1F700008111F5CF8091E80085FF35
:105190000DC050E040E063E070E0CE0101960E9457
:1051A000D52A8091E8008E778093E8000F900F90C9
:1051B0000F90DF91CF910895BC0184E00C94A92851
:1051C000BC0183E00C94A9289C0182E08093E90053
:1051D0009FEF8091E800915085FD06C085ED8A958E
:1051E000F1F700009111F5CF8091E80085FF0CC028
:1051F00050E040E066E070E0C9010E94D52A80914D
:10520000E8008E778093E8000895CF93DF93EC0158
:10521000809151048823B1F18091810687FF32C0CB
:1052200060E282E08093E9008FEF9091E800815086
:1052300095FD06C095ED9A95F1F700008111F5CF27
:105240008091E80085FF1BC08091510470E050E020
:1052500040E0811104C050E040E068E070E0CE0121
:105260000E94D52A8091E8008E778093E80080E242
:10527000FE01AFE5B6E001900D928A95E1F7DF916E
:10528000CF91089568E081E0CDCF8091940881119D
:1052900009C00E94652C0E94C22C8091E2008460AB
:1052A0008093E20008951092940808950895089557
:1052B000089542E061EC81E00E94E12B42E261EC62
:1052C00082E00C94E12B80919708833009F45FC051
:1052D00030F48130C1F1823009F49BC008958A30E6
:1052E00009F487C08B3009F46DC0893009F04EC0D5
:1052F00080919608813209F049C080919A08909176
:105300009B08029708F042C08091E800877F809355
:10531000E8008091E80082FF35C09091F300809111
:10532000F200029729F48091F1008B7F813021F403
:105330008091F10080937F068091E8008B778093C5
:10534000E8000C94152C80919608813AF9F480912C
:10535000E800877F8093E80080919A0890919B08ED
:10536000892B61F460E28FE596E070E00E94242BC7
:105370008091E8008B778093E800089560E090E0EA
:1053800080E0F3CF809195088111C3CF089580917B
:105390009608813AD9F780919A0890919B08892BB9
:1053A000A9F78091E800877F8093E8008091E8006A
:1053B00080FFFCCF809151048093F1008091E80040
:1053C0008E77BDCF80919608813201F780919A083F
:1053D00090919B08892BD1F68091E800877F80937C
:1053E000E8000E94152C80919808809351040C9439
:1053F0009D1F80919608813249F68091E800877F51
:105400008093E8000E94152C809199088093800673
:10541000089580919608813A09F0B8CF8091E8000C
:10542000877F8093E8008091E80080FFFCCF809127
:105430008006C2CF84B7877F84BF0FB6F894A89543
:1054400080916000886180936000109260000FBEC0
:1054500080E890E00FB6F89480936100909361002B
:105460000FBE0E940B1B0E94652C0E94C22C8091D3
:10547000E20084608093E20078940E944B2F0E94A7
:105480001B1B87E494E00E94851A80919508853063
:10549000A9F00E94241B0E94191B0E941A1BF5CF21
:1054A0000E94B32780919308882341F00E94E2274D
:1054B000882321F00E94BF2A0E949D1F8091950899
:1054C000853071F30E94FA27E4CF0C94672A292FC4
:1054D00033272330310519F168F42130310509F4FF
:1054E00044C02230310509F445C090E080E030E04E
:1054F00020E025C02132310549F122323105A9F7DA
:1055000080E490E02BE93CE061157105C1F086EB89
:1055100090E025EE3BE06130710589F0E6CF9927F8
:105520008130910581F0009729F00297F1F6E8E6C5
:10553000FBE002C0E4E9FBE0849190E09F01FA0106
:10554000318320830895ECE7FBE0F6CF89E090E01B
:105550002AEA3BE06115710591F389E090E023ECC4
:105560003BE06130710559F3C0CF82E190E023ED5B
:105570003BE0E5CF8BE390E028E93BE0E0CF80E142
:1055800089BD82E189BD09B400FEFDCF8091D800BC
:105590008F7D8093D8008091E00082608093E0004E
:1055A0008091E00081FDFCCF0895AF92BF92CF9231
:1055B000DF92FF920F931F93CF93DF936C01EB0168
:1055C0008A010E94342CF82E811123C00115110587
:1055D00039F0F80180819181C81BD90BC80ED91E02
:1055E000B12CA12C2097A9F08091E80085FD22C064
:1055F0008091E8008E778093E80001151105A1F0F5
:10560000F80180819181A80EB91EB182A08285E047
:10561000F82E8F2DDF91CF911F910F91FF90DF908A
:10562000CF90BF90AF9008950E94342C8823D1F280
:10563000F82EEFCFF60181916F018093F100219751
:10564000FFEFAF1ABF0ACECFFC0180919C0890916A
:105650009D0886179707A0F06115710529F49091B0
:10566000E8009E779093E80090E06115710551F491
:10567000911108C08091E80082FF34C080E0089555
:10568000BC01F2CF809195088823C1F18530C1F12A
:105690008091E80083FD30C08091E80082FDEACF70
:1056A0008091E80080FFE1CF8091F3002091F2002B
:1056B000382F6115710519F02830310558F091E047
:1056C0002830310509F090E02091E8002E772093F2
:1056D000E800CBCF81918093F100615071092F5F79
:1056E0003F4FE7CF80919508882341F0853041F006
:1056F0008091E80083FFBECF81E0089582E00895A5
:1057000083E00895FC0180919C0890919D08861784
:105710009707A0F06115710529F48091E8008E7754
:105720008093E80090E06115710551F4911108C073
:105730008091E80082FF35C080E00895BC01F2CF7F
:10574000809195088823C9F18530C9F18091E800DE
:1057500083FD31C08091E80082FDEACF8091E800AE
:1057600080FFE1CF8091F3002091F200382F611586
:10577000710519F02830310558F091E028303105D5
:1057800009F090E08091E8008E778093E800CBCF1D
:1057900084918093F1003196615071092F5F3F4FE2
:1057A000E6CF80919508882341F0853041F08091C3
:1057B000E80083FFBDCF81E0089582E0089583E093
:1057C0000895982F973028F08F708093E90081E03A
:1057D00008959093E900242F762F50E0981731F028
:1057E0007091EC002091ED005091F00021FD02C07D
:1057F0009F5FE8CF3091EB003E7F3093EB0030911C
:10580000ED003D7F3093ED003091EB00316030933F
:10581000EB007093EC002093ED005093F00020918A
:10582000EE0027FDE5CF80E008958091960887FF80
:1058300013C08091E80082FF06C08091E8008B775A
:105840008093E80004C0809195088111F2CF0895FB
:10585000809195088823D9F38091E80080FFF8CFE4
:105860008091E8008E77ECCF2091E4003091E50044
:1058700095E6A9012091EC00822F817020FF06C0DF
:105880008091E80080FF06C080E008952091E80044
:1058900022FD1AC080919508882389F0853089F00F
:1058A0008091EB0085FD0FC02091E4003091E50070
:1058B00042175307F9F29150E1F684E0089582E02F
:1058C000089583E0089581E008950E94D32C0E94FA
:1058D000DB2CE0EEF0E0808181608083E8EDF0E099
:1058E00080818F77808319BCA7EDB0E08C918E7F8B
:1058F0008C9380818F7E80831092940808950F93FB
:105900001F93CF93DF930E94D32C0E94DB2CC8ED12
:10591000D0E088818F7788838881806888838881B8
:105920008F7D888319BC109295081092910810926F
:1059300093081092920800EE10E0F80180818B7FAE
:10594000808388818160888342E060E080E00E94FB
:10595000E12BE1EEF0E080818E7F8083E2EEF0E0EB
:10596000808181608083808188608083F80180816C
:105970008E7F8083888180618883DF91CF911F91A2
:105980000F910895E8EDF0E080818F7E8083E7ED50
:10599000F0E080818160808384E082BF81E0809339
:1059A00094080C947F2CE8EDF0E080818E7F80835A
:1059B0001092E20008951092DA001092E10008952A
:1059C0001F920F920FB60F9211242F933F934F9374
:1059D0005F936F937F938F939F93AF93BF93EF9357
:1059E000FF938091E10082FF0BC08091E20082FF73
:1059F00007C08091E1008B7F8093E1000E944A2FD5
:105A00008091DA0080FF19C08091D80080FF15C016
:105A10008091DA008E7F8093DA008091D90080FF38
:105A200096C080E189BD82E189BD09B400FEFDCF49
:105A300081E0809395080E9445298091E10080FFD4
:105A400019C08091E20080FF15C08091E2008E7F36
:105A50008093E2008091E20080618093E200809177
:105A6000D80080628093D80019BC85E080939508A7
:105A70000E9457298091E10084FF2BC08091E200B1
:105A800084FF27C080E189BD82E189BD89B5982F57
:105A9000917080FFFBCF8091D8008F7D8093D800DC
:105AA0008091E1008F7E8093E1008091E2008F7E03
:105AB0008093E2008091E20081608093E200809117
:105AC0009108882309F449C084E0809395080E94D6
:105AD00058298091E10083FF29C08091E20083FF73
