:100000000C9455050C9472050C9472050C947205B1
:100010000C9472050C9472050C9472050C94720584
:100020000C9472050C9472050C945A110C9454168D
:100030000C9439220C9472050C9472050C94720580
:100040000C9472050C9472050C9472050C94720554
:100050000C9472050C9433120C9472050C94720576
:100060000C9472050C9472050C9472050C94720534
:100070000C9472050C9472050C9472050C94720524
:100080000C9472050C9472050C9472050C94720514
:100090000C9472050C9472050C9472050C94720504
:1000A0000C9472050C9472050C94720505010902FA
:1000B000A10185020901A1000509190129081500FE
:1000C0002501950875018102050109300931158165
:1000D000257F95027508810609381581257F9501D0
:1000E00075088106050C0A38021581257F95017572
:1000F000088106C0C00660FF0961A1010962150000
:1001000026FF009520750881020963150026FF006F
:10011000952075089102C005010906A1010507197E
:10012000E029E71500250195087501810295017503
:100130000881010507190029FF150026FF00950613
:1001400075088100050819012905950575019102B9
:10015000950175039101C00000000000000000003F
:10016000000000000000000000000000000000008F
:1001700000000000000000000000007E0F00D4FF1F
:10018000FFFFC70000007800000000000000002A08
:100190002B2800000000000000000000000000000C
:1001A000000029000000002C1E34202122243426C7
:1001B00027252E362D3738271E1F202122232425C0
:1001C000263333362E37381F0405060708090A0B75
:1001D0000C0D0E0F101112131415161718191A1BE7
:1001E0001C1D2F3130232D350405060708090A0B85
:1001F0000C0D0E0F101112131415161718191A1BC7
:100200001C1D2F3130354C0102E3200103E30001B6
:1002100002E2600103E20000DA0281FFD9F1DB2093
:10022000A4A62EAF00A0C000A1C800AED580A81F14
:10023000D300408D1420007F3F1F643214783C1E91
:100240000001010101010101010102020202020299
:10025000020202030303030303030304040404046C
:100260000404050505050506060606060707070733
:100270000708080808090909090A0A0A0B0B0B0CE8
:100280000C0C0D0D0D0E0E0E0F0F0F101011111185
:100290001212131314141515161617171818191906
:1002A0001A1A1B1B1C1D1D1E1E1F2020212222236B
:1002B0002424252626272829292A2B2C2D2D2E2FAC
:1002C00030313232333435363738393A3B3C3D3EC3
:1002D0003F404142434445464748494A4C4D4E4FB2
:1002E00050515354555658595A5B5D5E5F61626474
:1002F000656668696B6C6D6F7072737577787A7B01
:100300007D7E8082838587888A8C8E8F9193959657
:10031000989A9C9EA0A2A3A5A7A9ABADAFB1B3B577
:10032000B7BABCBEC0C2C4C6C9CBCDCFD1D4D6D853
:10033000DBDDDFE2E4E7E9EBEEF0F3F5F8FAFDFFF1
:10034000FFAA7F554000AF00AE2A00130012000C38
:100350000018001C00287133000F000E000D000B68
:100360000052003800370036001000110087724F2D
:100370000051005000657403511700150008001A61
:1003800000140029000A0009000700160004002BD1
:10039000610500190006001B001D00E1002C422A27
:1003A000410000E300E200E000310030002F00894E
:1003B000002E002D0034710000000000000000003D
:1003C000004B0035008700000000004C0001004D8C
:1003D000004E004A00000001003E003D003C003B92
:1003E000003A00350043004200410040003F000158
:1003F00000AD5D0000000045004400010003510114
:100400000001000100010001002D00270026002549
:100410000024002300010000004F00520051005052
:10042000000000310037003600000000000100002D
:100430000000000000000001002200210020001F39
:10044000001E00010000000000000000000000018C
:100450000000000000000000000000010001000397
:1004600051010001000100010046004900000000A8
:100470000000000000530000004D004B004E004AF9
:1004800000F000F500F4000000000000000100F39F
:1004900000F100F2000000010000000A5C135CAEF5
:1004A0005D005C00000000C95CC75CC55CC25C39D3
:1004B000000000CA5CC85CC65CC35C0100000000B0
:1004C00000010001000100010009025B00030100BE
:1004D000A0FA090400000103010100092111010033
:1004E0000122400007058103080001090401000200
:1004F00003000000092111010001222200070582EA
:100500000320000107050303200001090402000184
:1005100003000000092111010001224900070584A0
:10052000032000011201000200000008EDFEA3DF1D
:100530002000010200011A037400720065006100CE
:100540006400730074006F006E00650034003800B2
:10055000000012036D00610072006B007300610007
:1005600072006400000004030904000000000000A1
:100570003E5B4F5B3E003E6B4F6B3E001C3E7C3E45
:100580001C00183C7E3C18001C577D571C001C5E4C
:100590007F5E1C0000183C180000FFE7C3E7FF0067
:1005A000001824180000FFE7DBE7FF0030483A0698
:1005B0000E00262979292600407F05050700407F87
:1005C00005253F005A3CE73C5A007F3E1C1C0800B2
:1005D000081C1C3E7F0014227F2214005F5F005F16
:1005E0005F0006097F017F00006689956A006060F0
:1005F0006060600094A2FFA2940008047E040800DA
:1006000010207E20100008082A1C0800081C2A0858
:1006100008001E10101010000C1E0C1E0C003038AC
:100620003E383000060E3E0E0600000000000000BE
:1006300000005F000000000700070000147F147F27
:100640001400242A7F2A120023130864620036490A
:1006500056205000000807030000001C2241000043
:100660000041221C00002A1C7F1C2A0008083E08AA
:10067000080000807030000008080808080000002A
:10068000606000002010080402003E5149453E0011
:1006900000427F4000007249494946002141494DCE
:1006A00033001814127F10002745454539003C4A95
:1006B00049493100412111090700364949493600AD
:1006C000464949291E000000140000000040340083
:1006D00000000008142241001414141414000041F6
:1006E000221408000201590906003E415D594E00DE
:1006F0007C1211127C007F49494936003E4141413C
:1007000022007F4141413E007F49494941007F0924
:10071000090901003E41415173007F0808087F002C
:1007200000417F4100002040413F01007F0814222A
:1007300041007F40404040007F021C027F007F0458
:1007400008107F003E4141413E007F090909060033
:100750003E4151215E007F09192946002649494939
:10076000320003017F0103003F4040403F001F2053
:1007700040201F003F4038403F00631408146300CE
:100780000304780403006159494D4300007F41414F
:100790004100020408102000004141417F00040292
:1007A00001020400404040404000000307080000F0
:1007B0002054547840007F2844443800384444444E
:1007C0002800384444287F00385454541800000846
:1007D0007E0902001824241C78007F080404780095
:1007E00000447D4000002040403D00007F10284430
:1007F000000000417F4000007C04780478007C0801
:1008000004047800384444443800FC1824241800B8
:1008100018242418FC007C0804040800485454548C
:10082000240004043F4424003C4040207C001C2061
:1008300040201C003C4030403C004428102844002C
:100840004C1010107C004464544C440000083641A5
:10085000000000007700000000413608000002019F
:10086000020402003C2623263C0000000000000099
:100870000000000000000000000000000000000078
:100880000000000000000000000000000000000068
:100890000000000000000000000000000000000058
:1008A0000000000000000000000000000000000048
:100AA0000000000000000000000011241FBECFEF76
:100AB000DAE0DEBFCDBF12E0A0E0B1E0E4EFFBE59D
:100AC00002C005900D92A439B107D9F725E0A4E939
:100AD000B2E001C01D92A53BB207E1F70E9460227F
:100AE0000C94CF2D0C9400008A3221E4920731F04F
:100AF0008C32924419F08EEB90E008958CE890E0EF
:100B00000895E8EDF0E080818E7F80831092E2000E
:100B10001092DA001092E100A0EEB0E08C918160BA
:100B20008C9380818F77808319BCA7EDB0E08C9186
:100B30008E7F8C9380818F7E8083109292030895A4
:100B40002091E4003091E50095E6A9012091EC00A8
:100B5000822F817020FF06C08091E80080FF06C0D0
:100B600080E008952091E80022FD1AC080919F0343
:100B7000882389F0853089F08091EB0085FD0FC0D6
:100B80002091E4003091E50042175307F9F29150AB
:100B9000E1F684E0089582E0089583E0089581E01D
:100BA0000895EF92FF920F931F93CF937C018B01D7
:100BB0000E94A005C82F811117C08091E80085FD13
:100BC0000BC08091E8008E778093E8000E94A0051A
:100BD000882399F3C82F08C0F70181917F01809382
:100BE000F1000150110949F78C2FCF911F910F91FE
:100BF000FF90EF9008958091A10387FF13C080912B
:100C0000E80082FF06C08091E8008B778093E800BF
:100C100004C080919F038111F2CF089580919F03BA
:100C20008823D9F38091E80080FFF8CF8091E80015
:100C30008E77ECCF982F9093E900242F762F50E0F9
:100C4000891731F07091EC002091ED005091F00087
:100C500021FD07C09F5F973071F78093E90081E025
:100C600008953091EB003E7F3093EB003091ED0022
:100C70003D7F3093ED003091EB0031603093EB001D
:100C80007093EC002093ED005093F0002091EE0063
:100C900027FDE0CF80E00895B0E0A0E0E2E5F6E0D7
:100CA0000C946B2AC8EDD0E088818F7E8883E7EDB5
:100CB000F0E080818160808384E082BF81E0809366
:100CC000920388818E7F888302EE10E0F801108203
:100CD0001092DA0081EEC82ED12CF60110828881A4
:100CE0008F77888388818068888388818F7D8883D7
:100CF00019BC10929F031092A00310929E031092B1
:100D00009D0390EEE92EF12CF70180818B7F80838B
:100D100088818160888342E060E080E00E941A065A
:100D2000F60180818E7F8083F801808181608083DD
:100D3000808188608083F70180818E7F80838881B5
:100D400080618883CDB7DEB7E8E00C94872AFC0188
:100D50008091A7039091A80386179707A0F06115CB
:100D6000710529F49091E8009E779093E80090E057
:100D70006115710551F4911108C08091E80082FF5E
:100D800034C080E00895BC01F2CF80919F03882396
:100D9000C1F18530C1F18091E80083FD30C08091C0
:100DA000E80082FDEACF8091E80080FFE1CF8091EA
:100DB000F3002091F200382F6115710519F02830E9
:100DC000310558F091E02830310509F090E020918C
:100DD000E8002E772093E800CBCF81918093F1003B
:100DE000615071092F5F3F4FE7CF80919F038823A8
:100DF00041F0853041F08091E80083FFBECF81E073
:100E0000089582E0089583E008950895089508956F
:100E100080919403089587E797E790930108809362
:100E2000000888E19AE00FB6F894A89580936000D6
:100E30000FBE90936000FFCF2FB7F89460918E03A0
:100E400070918F0380919003909191032FBF08952B
:100E5000E0918B03F0918C03309729F00190F081A1
:100E6000E02D0995089580E00895FA01811101C0EF
:100E7000FB0109950895089580917D03982F9E7F29
:100E800061F48170826080937D03809180038D3D49
:100E900018F08CED8093800308958033B0F3817057
:100EA0008E62F1CFAF92BF92DF92EF92FF920F93DB
:100EB0001F93CF93DF93082F162FE901E42FF0E063
:100EC000E05CFD4F611110C0E4915E2F4E2F49830D
:100ED000E8835A83DF91CF911F910F91FF90EF909C
:100EE000DF90BF90AF900895E62EF12C4491D42E60
:100EF000E42FF0E026E0829FC00111242FEF30E0C4
:100F0000B9010E944D2A802F90E0880F991F55E566
:100F1000569FD001579FB00D11248A1B9B0B982F11
:100F2000990F890F5901AE18BF08AE9ED001AF9E30
:100F3000B00DBE9EB00D11245B2F189F80011124AF
:100F4000012F11275901A01AB10AAE9E8001AF9E50
:100F5000100DBE9E100D11245901A81AB108AE9CA7
:100F6000C001AF9C900DBE9C900D1124892F992734
:100F7000281B390B2E9FC0012F9F900D3E9F900D77
:100F80001124E92F62307105A1F050F4611571054B
:100F900009F49DCF6130710581F0EB2F512F97CF70
:100FA0006430710569F080F06630710509F48FCF07
:100FB000F4CFE42F4B2F592F8ACFE42F412F87CF27
:100FC000EB2F542F492F83CF4B2F5D2DE12F7FCF58
:100FD00040914C03803F59F480914D0387FF0DC031
:100FE00010924D0341110BC01092440308C0813F81
:100FF00081F480914D0318169CF3442381F0809175
:101000004E0390914F03892B09F05AC0109243036D
:101010000895823F49F447FFF0CF10924C0380912E
:101020004D038111ECCFE0CF833F19F41416ACF3DC
:10103000E4CF90914E03893F29F41916F4F61092EB
:101040004E03DBCF8A3F19F497FFD7CFF8CF9091AB
:101050004F038B3F29F497FFD0CF10924F03CDCF92
:101060008C3F19F41916CCF3C8CF9CE0980F95303B
:1010700090F4845F990B21E030E0B90102C0660F63
:10108000771F8A95E2F7CB01809590914B038923D6
:1010900080934B03B2CF8D3F31F4809145038E7F17
:1010A00080934503AACF8E3F21F4809145038D7F25
:1010B000F7CF8F3F09F0A1CF809145038B7FF0CF11
:1010C00008958091450380FD16C081FD16C082FD04
:1010D00016C0809143038823A1F0883280F428E071
:1010E000829FC001112468E270E00E94A42A862F2A
:1010F000672B39F0089582E0089584E0089588E030
:10110000089581E008958091450380FD16C081FD1A
:1011100016C082FD18C080914403882391F086395F
:1011200090F42CE0829FC001112466E970E00E94D7
:10113000A42A862F672B49F0089583E0089586E05E
:10114000089584E008958CE0089581E00895803F3B
:1011500031F40E948308819580934D030895813F67
:1011600019F40E948308F8CF823F31F40E9483086B
:10117000819580934C030895833F19F40E9483085E
:10118000F8CF893F29F40E94610880934E030895A7
:101190008A3F21F40E9461088195F7CF8B3F31F49B
:1011A0000E946108819580934F0308958C3F19F444
:1011B0000E946108F8CF9CE0980F953070F4845F2E
:1011C000990B21E030E001C0220F8A95EAF7809167
:1011D0004B03822B80934B0308958D3F31F4809114
:1011E000450381608093450308958E3F21F48091EB
:1011F00045038260F7CF8F3FB9F780914503846044
:10120000F1CF80E00895F894E82FE295EF70F0E0D8
:1012100031A1282F2F7081E090E001C0880F2A951E
:10122000EAF7982F9095932391A392A1892B82A3FB
:10123000789408959091160392FF06C0282F287184
:101240002830F9F4877F846093FF06C0282F287127
:101250002831F1F4877E84612091170320FF06C0B6
:10126000382F38713830D9F4877F816021FF06C06C
:10127000282F28712831D1F4877E816194FD877EE3
:101280000895282F24712430F9F68B7F8860DCCFF5
:10129000282F2471243101F78B7E8861DDCF382F10
:1012A0003171313019F78E7F8860E0CF282F21719E
:1012B000213121F78E7E8861E1CFCF93DF93EC015E
:1012C0008238910589F1B8F58133910509F492C00E
:1012D00028F58932910509F486C08A9709F491C0EE
:1012E000C11522E5D20708F0AAC0C11531E5D30720
:1012F00008F014C1CF3FD10511F008F090C0C03FF5
:10130000D10508F0E9C0C53AD10508F081C0C43064
:10131000D105F8F4C130D105E1F040C08533910525
:1013200009F45AC0C997E1F680911603837089F0D9
:10133000C0EED0E00EC0833E910599F170F4803E7E
:10134000910501F1823E910559F68091160382FDC7
:1013500021C0CE01DF91CF910895863E910561F1C4
:10136000873E910571F1843E910509F0B9CF8091D6
:10137000170381FFEECF80911603C7EED0E084FD06
:101380000DC0E7CF8091160380FDF9C0909117033F
:1013900090FFDFCFC3EED0E084FFDBCFD0E0C0E032
:1013A000D8CF8091160382FDEDC09091170390FD78
:1013B000BFCF84FFCECFF2CF8091160383FDDDCF68
:1013C000C8CF8091160383FDE0C09091170391FF71
:1013D000F0CFC4EED0E0BDCF8091160385FFB9CF2A
:1013E000C9E2D0E0B6CF8091160385FFB2CFC5E346
:1013F000D0E0AFCF8091160386FFABCFCAE2D0E03A
:10140000A8CF8091160386FFA4CFC1E3D0E0A1CF7F
:10141000CE01815E9109079708F49BCFBFCFC1151C
:1014200040E5D40708F05DC0C11580E4D80708F096
:1014300055C0C11590E2D90708F48BCFAFCFC115C5
:1014400026E5D20718F5C11535E5D30708F07EC0AB
:10145000C11544E5D40708F074C09C2F9695969565
:101460009E0123703327C115D34508F45CC0C1E049
:10147000D0E002C0CC0FDD1F2A95E2F730E2939F47
:10148000C0011124C82BD92BDA6863CFC1159AE5A6
:10149000D90778F4C11529E5D20708F062C0C11553
:1014A00038E5D30708F47ACFDC2FCC27C06FD06A99
:1014B00050CFCE0190568115904208F06FCF8D2FFE
:1014C0008F710E941A0990E0982F882788279F71B2
:1014D0009C012C2BE90143C0D0653BCFDF70D06A63
:1014E00038CFCE01E4E096958795EA95E1F78370D1
:1014F0002C2F26952695237090E2299F9001112488
:10150000382B8C2F8370C1E0D0E002C0CC0FDD1FE0
:101510008A95E2F7C22BD32BDC681BCFDC2FCC27BC
:10152000C16FD06A16CFC1E0D0E002C0CC0FDD1F82
:101530002A95E2F720E2929FC0011124C82BD92BF3
:10154000EBCFDC2FCC27C46FD06A03CF8C2F0E9447
:101550001A09C82FD0E0DC2FCC27CC27DF71D0624E
:10156000F8CE8C2F8F700E941A0934E0D695C7955B
:101570003A95E1F7CF709C2FEC01D069EACEC9E330
:10158000D0E0E7CEC2EED0E0E4CEC6EED0E0E1CED1
:101590008091F80281111092F8020895809590913F
:1015A000F70298239093F7020895E8E9F2E0919109
:1015B000891303C0DF0111971C9292E0EE39F907FD
:1015C000B1F70895A8E9B2E0EFEF90E02D9182170E
:1015D00051F0EF3F19F4211101C0E92F9F5F9630C0
:1015E000A9F7EF3F09F408950E2E000CFF0BEA5601
:1015F000FD4F828308952091EC029091BB0256E04A
:10160000291302C080E0089530E0529FF001539FFB
:10161000F00D1124E454FD4F7181761306C07081E2
:10162000781303C07281741304C02F5F3F4F27707B
:10163000E7CF81E00895452B39F0682381E06F3FC3
:1016400009F080E08170089581E0FCCF8091EC0288
:101650009091BB02981301C008958F5F8770FACFF5
:10166000292F983078F5863068F590E036E0239F92
:10167000800D911D1124682F677023E09695879542
:101680002A95E1F7FC01EE0FFF1FE80FF91FED555A
:10169000FD4F50E040E080E0219130E0062E02C096
:1016A000369527950A94E2F721703327042E01C05E
:1016B000220F0A94EAF7822B4F5F5F4F43305105A8
:1016C00059F7089580E00895292F983098F58630CD
:1016D00088F590E036E0239F800D911D1124282F7E
:1016E000277041E001C0440F2A95EAF723E0969560
:1016F00087952A95E1F7FC01EE0FFF1FE80FF91F10
:10170000ED55FD4F30E020E070E05191DF01119781
:10171000CB01022E02C0969587950A94E2F781705C
:1017200081958527842385278C932F5F3F4F233016
:10173000310559F70895CF93DF93C091B305D09148
:10174000B4058A30C1F42091AA03CE018D5A93408A
:10175000622F70E00E944D2A281B822F66E00E94B3
:10176000982AC82FC15018F4DF91CF91089580E2D4
:101770000E949B0BF7CF8D30E9F4CD5AD3402091D6
:10178000AA03622F70E0CE010E944D2A281B822FEF
:101790009E01280F311D2115324018F080E0D0E065
:1017A000C0E0C80FD11DC355DC4FD093B405C09322
:1017B000B305DACF96E0FE01ADEAB5E001900D92F7
:1017C0009A95E1F7803E08F458C086E0FE01119238
:1017D0008A95E9F7C091B305D091B40546E050E091
:1017E000BE018DEA95E00E94DB2A9E012D5A33400E
:1017F000892B41F1C90145E0969587954A95E1F716
:1018000041E050E0BA0102C0660F771F8A95E2F707
:10181000CB016091AB037091AC03862B972BB90180
:101820006B5F7F4FE5E076956795EA95E1F702C03B
:10183000440F551F6A95E2F7842B952B9093AC03C8
:101840008093AB032A5F3F4F4091AA03642F70E05F
:10185000C9010E944D2A481B463010F4240F311D47
:10186000211572E0370710F030E020E023553C4F9F
:101870003093B4052093B30577CFF6E08F9FB00186
:10188000112466597A4F46E050E0CE010E94C52AE5
:10189000A1CF8091F7029091F602892B8093960256
:1018A0009091F802992391F0892B8093960220E081
:1018B00088E992E0FC013191CF0131112F5FF2E014
:1018C0008E399F07B9F721110E94C80A48E050E0FD
:1018D0006EEE72E086E992E00E94DB2A892BA9F085
:1018E00088E0E6E9F2E0AEEEB2E001900D928A9572
:1018F000E1F7E0918B03F0918C03309731F0028097
:10190000F381E02D86E992E009950895882321F07E
:101910000E94CE0A0E94490C0895882339F09091C4
:10192000F702982B9093F7020E94490C08950F93A9
:101930001F93CF93DF93EC01FC0101900020E9F7A6
:101940008F0101501109C017D10728F0DF91CF9105
:101950001F910F91089589910E949B0BF4CFB0E0E5
:10196000A0E0E5EBFCE00C946B2A6C017B0164E6E3
:1019700070E088E70E946429EC0197FD12C010E036
:1019800000E0F601E00FF11F849164E670E00E9430
:10199000D229EC01892B29F40F5F1F4F0E151F056B
:1019A00081F70E94492ACE01CDB7DEB7E8E00C945A
:1019B000872A8091860390918703911103C091E05B
:1019C00089270895882369F062E070E087E493E056
:1019D0000E94AF0C892B19F0809186030895109214
:1019E000860380918603EBCFCF93C09186038091CD
:1019F00087038823D1F00E941C07605A75418F4FDE
:101A00009F4F60938203709383038093840390932A
:101A10008503C11108C062E070E085E493E00E9494
:101A2000AF0C892B29F0C09186038C2FCF9108959C
:101A300081E080938603F7CF9C0184E08093E900E6
:101A40009FEF8091E800915085FD06C085ED8A9555
:101A5000F1F700009111F5CF8091E80085FF0CC0EF
:101A600050E040E066E070E0C9010E94D10580913D
:101A7000E8008E778093E8000895CF93DF93EC0120
:101A800081E08093E9008FEF9091E800815095FD0F
:101A900006C095ED9A95F1F700008111F5CF809180
:101AA000E80085FF14C050E040E068E070E0CE013F
:101AB0000E94D1058091E8008E778093E80088E04D
:101AC000FE01A5E9B3E001900D928A95E1F7DF915F
:101AD000CF91089580917D0380FD0AC0E9E5F3E090
:101AE000118210821282339653E0ED37F507C1F769
:101AF000539A3BB1377F2BB128604FB7F89489E5F3
:101B000093E0FC015191CF0168E02BB9000000C0C7
:101B100057FF3BB9550F000000C000C000C03BB9E3
:101B200000C06A9591F7F3E08D379F0751F74FBFDB
:101B30008FE594E00197F1F700C0000008950F933E
:101B40001F93CF93DF93C9E5D3E0FE01118210828A
:101B50001282339683E0ED37F807C1F710E000E01A
:101B600080915803082E000C990B08171907A4F14F
:101B700080917F01082E000C990B8017910764F16A
:101B8000409180034D3D08F04CED9E0160917F0334
:101B900080917E030E9452070F5F1F4F23960C30E7
:101BA0001105F1F60E946A0D80917E019091580313
:101BB000980F9093580320917F01280F20937F0165
:101BC000121614F49B301CF0819580937E01DF91F6
:101BD000CF911F910F910895198218821A82DCCF3C
:101BE000EF92FF921F93CF93DF93EC0189E5E82EEC
:101BF00083E0F82E10E0409180034D3D08F04CED5D
:101C00008C81970160917F03810F0E9452071B5EB8
:101C100083E0E80EF11C1C3F71F70E946A0D9A8167
:101C20008C8190FF08C08F5F8C83DF91CF911F91D3
:101C3000FF90EF9008958150F7CF90917D0390FF32
:101C40000CC0E9E5F3E0818360834283339693E03F
:101C5000ED37F907C1F70E946A0D0895A3E0B0E0DF
:101C6000E4E3FEE00C946F2A8C0180917D0380FFF9
:101C700013C0409180034D3D08F04CED9E012F5F55
:101C80003F4F60917F03F80184810E9452074B818E
:101C900069818A810E941D0EF80184818F5F84838F
:101CA0002396E4E00C948B2ACF93DF93C7EAD1E02C
:101CB00060E0CE010E949B2D2196C11584E0D807DB
:101CC000B9F7DF91CF9108951F93CF93DF93122F30
:101CD0008430E0F46830D0F44630C0F4C42FD0E053
:101CE000CC0FDD1F9CE0699FC00DD11D112490E633
:101CF000899FC00DD11D1124632FCE0187960E94AC
:101D00009B2D612FCE0188960E949B2DDF91CF9154
:101D10001F910895AF92BF92CF92DF92EF92FF9200
:101D20001F93CF93DF9389E4C82E83E0D82ED0E0B1
:101D30007601C0E014C0F50125913491412F6C2F3C
:101D40008D2F0E94640E82E0A80EB11C1F5F16301A
:101D500091F78CE0E80EF11CCF5FC83019F0570105
:101D600010E0E9CFDF5F80E6C80ED11CD43001F768
:101D7000DF91CF911F91FF90EF90DF90CF90BF90B8
:101D8000AF900895CF93C82F6FEF811162E283E285
:101D900090E00E949B2D6FEFC11166E084E290E01D
:101DA0000E949B2D6FEFC11168E185E290E00E94D7
:101DB0009B2DCF91089580E00E94C20E60E086E2E4
:101DC00090E00E949B2D0E948A0E0E94540E81E09A
:101DD0000E94C20E08950F931F93CF93DF93843018
:101DE00030F5683020F5463010F5C42FD0E0CC0F28
:101DF000DD1F2CE0629FC00DD11D112430E6839FB2
:101E0000C00DD11D1124CE0187960E94872D082F69
:101E100010E0102F0027CE0188960E94872D980190
:101E2000282BC901DF91CF911F910F91089590E068
:101E300080E0F8CF462F843040F4783030F46630BC
:101E400020F4672F0E94EB0E089590E080E0089543
:101E5000CF92DF92FF920F931F93CF93DF936C018A
:101E60000091A90380911503082BC7E0D0E010E092
:101E7000FC2EC8010C2E02C0959587950A94E2F7B6
:101E800080FD0CC02197A0F7F12C8F2DDF91CF9111
:101E90001F910F91FF90DF90CF900895B6018C2F86
:101EA0000E941A0F0E945D09019761F3EECFCF9354
:101EB000DF93EC010E94280FBE010E941A0F0E94BE
:101EC0005D09DF91CF910895FC01808191810E948D
:101ED000570F92959F70963091F058F4925F9F70D3
:101EE000923058F4803F19F030F4883E30F481E0AD
:101EF00008959A5FF4CF843FD1F380E00895883E3F
:101F0000B0F3813FD1F7F3CFA5E0B0E0EAE8FFE01E
:101F10000C94702A25E0FC01DE01119601900D92CF
:101F20002A95E1F7FC01228189819A81222399F087
:101F3000662389F00E94280F182F682F89819A81C3
:101F40000E94640B69817A81812F0E941A0F259665
:101F5000E3E00C948C2A0E94300B182FF3CF83E21D
:101F600090E00E94872D823289F484E290E00E9402
:101F7000872D863059F485E290E00E94872D91E00C
:101F8000883109F090E0892F8170089580E0FCCFBE
:101F9000CF9384E090E00E94872DC82F82E290E0EA
:101FA0000E94872D982F8C2FCF910895CF92DF928A
:101FB000EF92FF926B017C010E943C07B701A601E2
:101FC00088E090E00E94AD2DFF90EF90DF90CF90E1
:101FD0000895A3E0B0E0EFEEFFE00C94642AE82E51
:101FE000762EF42E622E80917D0380FF2EC0E82F86
:101FF000E695AE2FB0E0A359BD4F9C919093560348
:102000008E7F823031F58CED841708F44CED9E0103
:102010002F5F3F4F672D8E2D0E9452074B816981A4
:102020008A810E941D0EE0927E0370927F03F092DF
:102030008003662051F060917D0370917E03809152
:102040007F03909180030E94D60F2396EFE00C94BB
:10205000802A923019F4E0907E03E5CF9530D9F3D1
:102060009E3009F7EE509E2F9170592EE695F0E0C4
:10207000E05CFC4FE4910E2F10E089E5C82E83E070
:10208000D82EB12CA12C9CE0892E912CC501B40135
:102090000E944D2A8E2D511017C0860F4F2D9CED9A
:1020A0009F1508F44CED9601672D0E945207A00E73
:1020B000B11E83E0C80ED11C9DE7C91693E0D90676
:1020C00029F70E946A0DAFCF861BE8CFEDE7F3E05A
:1020D000438128E0421B08F440E021E062818181D5
:1020E0000E94E90F0895EDE7F3E0438128E0420FF5
:1020F00008F44FEF21E0628181810E94E90F089589
:10210000EDE7F3E0628128E0621B08F460E021E083
:10211000438181810E94E90F0895EDE7F3E0628138
:1021200028E0620F08F46FEF21E0438181810E9473
:10213000E90F0895EDE7F3E0818121E043816281B9
:1021400088500E94E90F0895EDE7F3E0818121E0D6
:1021500043816281885F0E94E90F08958091810325
:10216000882319F081508093810360917D037091E1
:102170007E0380917F03909180030E94D60F089583
:1021800080918103833018F48F5F80938103609185
:102190007D0370917E0380917F03909180030E9464
:1021A000D60F0895EDE7F3E083E0808311828FEF8F
:1021B00082838CED8383148260817181828193811B
:1021C0000E94D60F089568EE7EEF90E080E00E94B6
:1021D000B92D60E082E090E00E949B2D60E083E0FA
:1021E00090E00E949B2D1092150360E084E090E047
:1021F0000E949B2D64E082E290E00E949B2D60E0B3
:1022000085E090E00E949B2D60E086E090E00E94D7
:102210009B2D6FEF87E090E00E949B2D40E050E007
:10222000BA0188E090E00E94AD2D60E08DE090E082
:102230000E949B2D40E050E0BA0188E190E00E94AE
:10224000AD2D60E087E190E00E949B2D40E050E0E2
:10225000BA018CE190E00E94AD2D70E060E080E278
:1022600090E00E94B92D40E050E0BA0188E190E092
:102270000E94AD2D80E00E94C20E0E94DB0E40E065
:1022800050E0BA018FE090E00E94AD2D40E050E0B8
:10229000BA0183E190E00E94AD2D089590E080E0C6
:1022A0000E94952D883E9E4F19F40E94AF0F08950D
:1022B00080E008951F920F920FB60F9211242F9372
:1022C0003F934F935F936F937F938F939F93AF93BE
:1022D000BF93EF93FF938091E10082FF09C080914B
:1022E000E20082FF05C08091E1008B7F8093E100D6
:1022F0008091DA0080FF24C08091D80080FF20C048
:102300008091DA008E7F8093DA008091D90080FF7F
:102310009DC080E189BD82E189BD09B400FEFDCF89
:1023200081E080939F0380919203811109C00E94F4
:1023300081050E944C068091E20084608093E20057
:102340008091E10080FF17C08091E20080FF13C000
:102350008091E2008E7F8093E2008091E2008061B4
:102360008093E2008091D80080628093D80019BCED
:1023700085E080939F038091E10084FF2BC08091D2
:10238000E20084FF27C080E189BD82E189BD89B573
:10239000982F917080FFFBCF8091D8008F7D809324
:1023A000D8008091E1008F7E8093E1008091E2006F
:1023B0008F7E8093E2008091E20081608093E20052
:1023C0008091A003882309F447C084E080939F0391
:1023D00080919F038091E10083FF27C08091E200FC
:1023E00083FF23C08091E100877F8093E10082E03A
:1023F00080939F031092A0038091E1008E7F8093D1
:10240000E1008091E2008E7F8093E2008091E20003
:1024100080618093E20042E060E080E00E941A0662
:102420008091F00088608093F000FF91EF91BF9160
:10243000AF919F918F917F916F915F914F913F915C
:102440002F910F900FBE0F901F90189519BC1092EE
:102450009F031092920374CF8091E30087FD93E075
:1024600090939F03B5CF78941F921FB61F921124AB
:102470008F939F93AF93BF9380918E0390918F031F
:10248000A0919003B09191030196A11DB11D80937D
:102490008E0390938F03A0939003B0939103BF9109
:1024A000AF919F918F911F901FBE1F9018959C0117
:1024B0004FB7F89480918E0390918F03A091900371
:1024C000B09191034FBF821B930B08952FB7F894DF
:1024D00080918E0390918F03A0919003B09191030E
:1024E0002FBF089560917D03669570E04BE050E04A
:1024F00083E791E00E94CE2A892B19F481E0809332
:1025000057030E94661290935103809350030895DD
:1025100090917D0390FF2CC0917081112AC0926030
:1025200090937D03662351F060917D0370917E034B
:1025300080917F03909180030E94D60F60917D036C
:10254000669570E04BE050E083E791E00E94CE2A70
:10255000892BB1F01092570381E08093530320E060
:102560004091800360917F0380917E030E94E90F78
:102570000895883110F09E62D3CF880F982BD0CF6A
:102580000E947212E9CF80917D038695815009F4F3
:1025900087E161E00E948812089580917D0386950D
:1025A0008F5F883108F081E061E00E948812089511
:1025B00090917D0390FF08C09695981728F0961784
:1025C00018F40E94CD12089561E00E9488120895C7
:1025D0000E9466129C0190914C0380914D03982BB0
:1025E00021F0309349032093480390914E0380914A
:1025F0004F03982B21F03093470320934603E0913B
:102600008B03F0918C03309749F082E080934A036A
:102610000480F581E02D8AE493E0099508951092F5
:10262000F6020E94490C86E0EAE4F3E0DF011D9225
:102630008A95E9F7109244031092430310924503E0
:102640000E94E81208958093A9030E940F13089531
:102650008091A903982F9670963021F488600E948B
:1026600023130895877FFBCF21E030E001C0220FC4
:102670008A95EAF720958091A90382230E9423136B
:1026800008959091ED02809589238093ED02282F83
:10269000277091F4282F082E000C330B9217130685
:1026A00059F09091170392FF07C085958595859500
:1026B0000E9434131092ED020895CF93C091170336
:1026C000C2FB992790F9981791F080FBC2F9C0934B
:1026D00017036091160384E090E00E949B2D6C2FFD
:1026E00082E290E00E949B2D82E00E944113CF91F4
:1026F000089521E030E001C0220F8A95EAF7809129
:10270000A903822B0E9423130895809315030E942E
:102710000F1308951092F702E8E9F2E086E0DF0176
:102720001D928A95E9F70E940F130895AAE2B0E07E
:10273000ECE9F3E10C94702A81EA93E02091F10036
:10274000DC012D93CD01B3E0893A9B07B9F7809165
:10275000A203833009F472C0B8F4813009F449C08F
:10276000823009F4B3C08091E80083FF8BC280916E
:10277000A1039091A2039A3008F084C2E92FF0E0FF
:10278000EF52F24D0C94B82A8A3009F48EC08B3087
:1027900009F471C0893039F78091A103813219F7AA
:1027A0008091A5039091A603009711F00297D9F6A6
:1027B0008091E800877F8093E8008091E80082FFA5
:1027C00038C09091F3008091F200029731F480912B
:1027D000F100813011F0863021F48091F100809376
:1027E00094038091E8008B778093E8000E94FB05BA
:1027F000BACF8091A103813A09F0B5CF8091E8006A
:10280000877F8093E8008091A5039091A603892B90
:1028100061F468E085E993E070E00E94A70680918A
:10282000E8008B778093E8009ECF60E090E080E046
:10283000F3CF80919F038111C0CF95CF8091A103E9
:10284000813A09F090CF8091A5039091A603892B3E
:1028500009F089CF8091E800877F8093E80080911C
:10286000E80080FFFCCF809180018093F10080918F
:10287000E8008E77B9CF8091A103813209F073CF40
:102880008091A5039091A603892B09F06CCF8091CC
:10289000E800877F8093E8000E94FB058091A303F6
:1028A000809380010E948A135ECF8091A1038132C0
:1028B00009F059CF8091E800877F8093E8000E945B
:1028C000FB058091A403809393034DCF8091A103D6
:1028D000813A09F048CF8091E800877F8093E80033
:1028E0008091E80080FFFCCF80919303BECF8038B9
:1028F00099F0823809F0C6C18091A5038F708730A6
:1029000008F0C0C18093E9008091EB0085FB882727
:1029100080F91092E90006C080919D0390919E037A
:10292000911182609091E800977F9093E8008093E6
:10293000F1001092F1008091E8008E779FC188230A
:1029400009F48DC1823009F09DC18091A3038111EA
:1029500090C18091A5038F702FEF280F263008F0CB
:1029600091C18093E9002091EB0020FF82C1933058
:1029700031F48091EB0080628093EB007AC19091FA
:10298000EB0090619093EB0021E030E001C0220F5A
:102990008A95EAF72093EA001092EA008091EB0012
:1029A0008860EACF81116EC11091A3031F778091D7
:1029B000E3008078812B8093E3008091E800877F9B
:1029C0008093E8000E94FB058091E80080FFFCCF27
:1029D0008091E30080688093E30082E0111183E03E
:1029E00080939F034FC18058823008F04BC12091E3
:1029F000A3033091A4032C3DE3E03E07A1F583E05F
:102A00008A838AE289834FB7F894DE01139620E027
:102A10003EE051E2E32FF0E050935700E49120FFB5
:102A200003C0E295EF703F5FEF708E2F90E0EA30C9
:102A3000C0F0C7968D939D932F5F243159F74FBFF8
:102A40008091E800877F8093E8006AE270E0CE0121
:102A500001960E94A7068091E8008B778093E8009A
:102A600011C1C096E7CF8091A5039091A603432F93
:102A700055274330510509F44AC078F541305105D6
:102A800009F47AC08BE590E0E9ECF4E042305105BE
:102A900009F0F8C02091E800277F2093E8002091FA
:102AA000A7033091A8038217930708F49C0140E024
:102AB0002115310509F065C0411163C08091E8001E
:102AC00082FDC9CF80919F03882329F2853019F2B6
:102AD0008091E80083FFF2CFBECF4132510509F467
:102AE0003CC04232510509F0CDC08330910508F059
:102AF000C9C0FC01EE0FFF1FE857FD4F0190F081A8
:102B0000E02D8B579D4FDC018C9190E01AC033274C
:102B100021303105D1F02115310561F02230310528
:102B200009F0B0C0E6E3F5E0E4918E2F90E0E6E333
:102B3000F5E007C0E6E6F5E0E4918E2F90E0E6E6EA
:102B4000F5E0009709F49EC0A5CFE2E5F5E0E49139
:102B50008E2F90E0E2E5F5E0F4CF8330910508F0A8
:102B600091C0880F991FFC01E257FD4F0190F08141
:102B7000E02D89E090E08ECF82E190E0E4E2F5E0A4
:102B800089CF80919F03882309F465CF853009F4AC
:102B900062CF8091E80083FD5ECF8091E80082FDE6
:102BA0008DCF8091E80080FF83CF9091F3008091DA
:102BB000F2002115310519F08830910550F041E0FF
:102BC000089709F040E08091E8008E778093E80054
:102BD0006FCF44914093F100319621503109019615
:102BE000E8CF803809F04EC08091E800877F80935D
:102BF000E8008091A0038093F1009DCE811142C036
:102C00001091A3031230F0F58091E800877F809344
:102C1000E8001093A0030E94FB05112311F084E04B
:102C200005C08091E30087FDFACF81E080939F0388
:102C300042E061EC81E00E941A0642E261EC84E02D
:102C40000E941A0642E261EC82E00E941A0642E209
:102C500060EC83E00E941A0680919F0313C080916C
:102C6000A303813079F481E0933009F080E0809310
:102C70009E031092E9008091E800877F8093E8002E
:102C80000E94FB058091E80083FF0AC08091E80064
:102C9000877F8093E8008091EB0080628093EB0057
:102CA000AA96E3E00C948C2A1F920F920FB60F9213
:102CB00011242F933F934F935F936F937F938F9341
:102CC0009F93AF93BF93CF93DF93EF93FF93D091F5
:102CD000E900DF708091EC00C82FC17080FDC0E872
:102CE0001092E9008091F000877F8093F000789443
:102CF0000E9496131092E9008091F0008860809302
:102D0000F000CD2BCF70C093E900FF91EF91DF91E0
:102D1000CF91BF91AF919F918F917F916F915F9173
:102D20004F913F912F910F900FBE0F901F901895CC
:102D30000E948A132FEF84E39CE021508040904052
:102D4000E1F700C0000088E19AE00FB6F894A8957A
:102D5000809360000FBE90936000FFCF882309F43A
:102D600076C0823879F40E94280781FF70C089E319
:102D70000E94E20A0E94490C89E30E94D50A0E943F
:102D8000490C0895833859F40E94280780FF5FC0DA
:102D900083E50E94E20A0E94490C83E5EECF843865
:102DA00059F40E94280782FF52C087E40E94E20A79
:102DB0000E94490C87E4E1CF9CEF980F913AE8F22A
:102DC00090E2980F983050F4877091E001C0990F0D
:102DD0008A95EAF7892F0E94CE0AD1CF9BE5980FFA
:102DE0009330B8F480919F029091A002892B79F1E1
:102DF0001092A00210929F02E0918B03F0918C033D
:102E0000309729F10680F781E02D90E080E0099568
:102E1000089598E5980F9731A0F48091A1029091C0
:102E2000A202892BA1F01092A2021092A102E091BD
:102E30008B03F0918C03309751F00084F185E02DE5
:102E4000E4CF803F20F00E94E8070E94E812089536
:102E5000CF93C82F8823C9F08238C9F40E9428076D
:102E600081FD13C089E30E94E20A0E94490C2FEF02
:102E700081EE94E0215080409040E1F700C00000D6
:102E800089E30E94D50A0E94490CCF9108958338A6
:102E9000A1F40E94280780FDF8CF83E50E94E20A92
:102EA0000E94490C2FEF81EE94E021508040904029
:102EB000E1F700C0000083E5E4CF8438A1F40E946C
:102EC000280782FDE2CF87E40E94E20A0E94490CB3
:102ED0002FEF81EE94E0215080409040E1F700C058
:102EE000000087E4CECF8CEF8C0F813A68F4E8E9DC
:102EF000F2E08191C81711F122E0EE39F207C9F72B
:102F00008C2F0E94E20ABFCF80E28C0F883068F4D9
:102F1000C77021E030E001C0220FCA95EAF7809126
:102F2000F702822B8093F702AECFC03F08F4ADCFFB
:102F30008C2F0E94A7080E94E812A7CF8C2F0E9416
:102F4000D50A0E94490CDCCF1F93CF93DF93182F33
:102F5000D0E0C0E0893311F4C0E5D0E0812F0E94B9
:102F60002817209739F4812F0E94AE16DF91CF9158
:102F70001F9108958FE99FE00197F1F700C00000CD
:102F80002197EFCFB0E0A0E0E8ECF7E10C946B2ADA
:102F90006B01C42FD22FFC0182818823A9F04093BA
:102FA0008A030E9466129093890380938803C770F6
:102FB00081E001C0880FCA95EAF70E948D0CCDB759
:102FC000DEB7E8E00C94872A10918A03141337C007
:102FD00080918803909189030E9457127C01C60159
:102FE0000E947405E816F90650F5C0E2CD0F1D17D2
:102FF000C1F080E2810F883048F4177081E0012E23
:1030000001C0880F0A94EAF70E94860CC83048F481
:1030100081E09D2F977001C0880F9A95EAF70E9472
:103020008D0C802F0E94A417C83048F6D77081E01D
:1030300001C0880FDA95EAF70E94860CC0CFC770EE
:1030400081E001C0880FCA95EAF7F6CFB0E0A0E0B2
:10305000ECE2F8E10C946C2AE82FF0E0E957FE4F1F
:10306000D490282F26952695269530E0F901E95829
:10307000FE4F0491877010E0082E02C01595079549
:103080000A94E2F701701127F901E959FE4FE49023
:10309000F12C082E02C0F594E7940A94E2F791E02F
:1030A000E922FF24F901E95AFE4FC491D0E002C0A1
:1030B000D595C7958A95E2F7C170DD2701151105F1
:1030C00019F081EE0E942817E114F10419F086EE40
:1030D0000E9428178D2D0E94A417E114F10419F005
:1030E00086EE0E94AE160115110519F081EE0E94C0
:1030F000AE16CD2B19F08CE20E94A417CDB7DEB727
:10310000E7E00C94882AFF920F931F93CF93DF93ED
:103110008C018AE0F82EF8018491882309F44BC0D1
:10312000813009F044C0E8012196FE01849181308C
:1031300049F42196FE0184910E94A4178E010F5F2D
:103140001F4FE9CF823039F4E8012296FE018491C5
:103150000E942817F3CF833039F4E8012296FE014C
:1031600084910E94AE16EACF843041F7E80122969E
:10317000FE01249190E080E0FE0131962053330B54
:103180002A30310548F00197C8F2EFE9FFE03197A6
:10319000F1F700C00000F7CFF89EA001F99E500D96
:1031A0001124C901840F951F2491EF01E5CF0E94DE
:1031B0002618E801C3CFCDB7DEB7E5E00C948A2A24
:1031C000A4E0B0E0E6EEF8E10C94672A7C01FC0193
:1031D00043815481618180810E941B0BA82E811143
:1031E0004BC061E0C7010E94840F8C01F70182810E
:1031F000882309F41DC5C80182519F45409708F0F6
:10320000BFC48FEF93E00E94872D811126C0025129
:1032100057EAC52EDD24D394011132C01C821B82D3
:10322000BB24B3944AE0A42E86010F5F1F4FC60152
:103230000E94872D89831A82882379F09FEF980F47
:10324000933060F58A83B98232E0C30ED11CC80185
:103250000E94872D8B83811122C08091ED0287709F
:1032600059F0F7018281882339F08091170382FF9A
:1032700003C082E00E9441132496ECE00C94832A60
:10328000C114F4E0DF0649F3C6010E94872D8111C5
:1032900001C001502FEFC21AD20ABECF68018E01C1
:1032A0000F5F1F4FF8018081882309F4BDCF813063
:1032B00009F041C091818281913039F40E5F1F4F36
:1032C0000E94A4170F5F1F4FEDCF923029F40E5FBD
:1032D0001F4F0E942817F6CF933029F40E5F1F4F1F
:1032E0000E94AE16EFCF943019F00F5F1F4FEACF58
:1032F0000E5F1F4F30E020E0B8016F5F7F4FF80195
:1033000041818053990B8A30910550F02150310949
:10331000C8F28FE99FE00197F1F700C00000F6CFF7
:10332000A29EF001A39EF00D11249C012E0F3F1FC1
:10333000842F8B01E1CF0E942618C4CF81E00E9428
:1033400079130E94281389CF81E00E943413F9CFAA
:1033500082E0F5CFF7018281882309F47ECF809146
:10336000160382FF05C08FE092E00E94831875CF9C
:1033700087E092E0FACFF7018281882309F46DCFCC
:103380000E94D21080917D03816080937D0361E073
:1033900086950E94881261CF053FECE51E0709F46F
:1033A00069C008F461C0063F2CE5120709F468C043
:1033B000F7018281882309F446C410928A030330FE
:1033C000FDE51F0708F068C00A3F2CE5120730F43E
:1033D000C80182509C45449708F068C00E94C80FFD
:1033E000909317038093160301319CE5190709F4A4
:1033F00036C108F0B2C00930FCE51F0709F419C155
:1034000008F07DC005303CE5130709F40AC108F057
:1034100062C003309CE5190709F4F9C008F0FDC04B
:103420008091160381600230FCE51F0709F4F2C0A9
:10343000609116031091170384E090E00E949B2D89
:10344000612F82E290E00E949B2D0E948A1305CF9B
:1034500007E225EE45EE68ED7CE5E6C306E221EEE7
:1034600040EE63EF7CE5E0C307E225EE44EE64EF57
:103470007CE5DAC306E221EE42EE65EF7CE5D4C3DB
:1034800007E225EE46EE66EF7CE5CEC308E221E0DA
:1034900045EE69ED7CE5C8C301363DE5130709F447
:1034A0009DCF053A8DE5180709F498CF06312CE534
:1034B000120709F0D4C38091F7028A7A91E009F4E7
:1034C00090E090939E028111F4C089E20E94E20A8A
:1034D0000E94490CC2CE80911603806207302CE511
:1034E000120709F497C080911603806108303CE50B
:1034F000130708F48FC08091160380648BC00D30D1
:103500008CE5180709F49FC0A0F4809116038E7F04
:103510000B30ECE51E0709F47DC0809116038C602A
:103520000C30FCE51F0708F475C0809116038D7FF1
:1035300071C0809116038F7E0F302CE5120709F4BD
:1035400069C080911603877F00313CE5130708F4BA
:1035500061C0809116038F7D5DC00D3F8CE518071B
:1035600009F479C058F50531ECE51E0709F481C06E
:1035700098F480911603837F03312CE5120709F438
:1035800049C008F470C00E948A1390911603892FD5
:1035900097FB87F980583EC00B3F8CE5180709F46C
:1035A00044C008F054C08091170381600A3FECE5E5
:1035B0001E0709F03DCF809317033ACF0130FDE598
:1035C0001F0709F462C090F4809117038C7F0F3FAE
:1035D0003CE5130781F398F180911703982F90959C
:1035E00091708E7F892B90FB81F9E5CF01369DE5A7
:1035F000190709F450C0053AEDE51E0709F452C059
:103600000230FDE51F0709F013CF60E03FC0809155
:1036100016038260809316030BCF8091160384609B
:10362000F9CF809116038860F5CF809117038260EF
:10363000C2CF0E948A13809116038068EBCF8091DD
:1036400017038360B8CF809116038B7FE3CF8091FF
:1036500017038E7FB0CF809117038D7FACCF809101
:1036600016038F7BD7CF0E948A13809116038F7722
:10367000D1CF8091160382FB992790F921E0922700
:1036800090FB82F990FB83F9C5CF61E08EE090E07A
:103690000E949B2DCDCE90911603892F8F7E94FF93
:1036A0008061B8CF90911603892F8E7F90FF816043
:1036B000B1CF85E30BCF85E3CFC243EC52E16DEC94
:1036C00072E10E943507C9CD4DEC52E163EC72E125
:1036D000F8CF44EA50E16AE970E1F3CF40E850E105
:1036E0006DE870E1EECF46E650E163E770E1E9CFC7
:1036F00043E750E166E670E1E4CF40EC50E16EEA6A
:1037000070E1DFCF61E081E044CE64E082E00E94BE
:10371000D812A3CD6DE08BE0FACF67E18EE0F7CF52
:103720000E948A13EFEFF4E32CE0E150F0402040D8
:10373000E1F700C000000E940B078091170382FB95
:10374000882780F991E089270E945D13F701828123
:1037500000811181882309F444C0C8010E94280F08
:10376000D82E682FC8010E94640BB8018D2D0E94CD
:103770001A0F0E945D098C01882EF701C280B58066
:10378000B2943FE0B3228091ED028770C1F0CC206B
:10379000A9F0812F807F803421F080E2800F883073
:1037A00070F08091170382FF0AC082E00E944113EB
:1037B0008091ED028770AA24A3948111A12C912EEF
:1037C00092942FE09222FBE0F91508F46FC0E92DE6
:1037D000F0E0E552F24D0C94B82A81E0B5CF80E0DC
:1037E000B3CFC8010E94300BD82EBFCF212F2F702E
:1037F000D22E107F19F0D29490EFD922CC20B9F0BC
:10380000DD2069F080E2800F883010F0811009C05F
:103810008091F702D82AD092F7020E94490C802F9B
:1038200043C08091F602D82AD092F602F6CF802FBC
:103830000E94AE16DD20D1F1005E083010F081103C
:1038400004C08D2D0E94CE0A06C0D0948091F6024D
:10385000D822D092F6020E94490C28C0312F3F7026
:10386000D32E107F103219F0D29480EFD822882006
:1038700059F081E0881609F464C0CC2009F46EC0C8
:10388000BB2009F464C0CBCF2091170322FD37C0C1
:10389000CC2079F1DD2039F08091F702D82AD0923E
:1038A000F7020E94490C80E00E942817E92DE85099
:1038B000FF0B349710F40E942807AA20A9F08091EA
:1038C000ED0280FD11C0F7011282859585958595E1
:1038D0000E947913C7010E94E0188091ED0285953E
:1038E000859585950E94341360E0C7010E94840F7E
:1038F000C3CC80E00E94AE16DD20C1F2A2CFCC2066
:1039000099F09091F8028D2D892BB11003C00E947F
:103910008D0CCCCFE1E0BE12FACF22FFC7CF8917C2
:1039200029F28093F802C2CFB11006C00E94C80AE3
:103930008D2D0E94860CBACFF1E0BF1609F4B6CFE8
:10394000F5CFCC2031F025E02B1508F4AFCF8D2D2D
:10395000DECF34E03B1508F4A9CFEACFBB2041F31A
:1039600089E3881209C09FEFE7EEF3E09150E04051
:10397000F040E1F700C00000802F0E94AE1696CF05
:10398000802FCC2029F00E94A7080E94E8128ECF39
:103990000E94E807FACF812F837089F5C11086CF86
:1039A000402F429546954770440F440F802F8F70EB
:1039B000042E01C0880F0A94EAF7202F207104FF1B
:1039C00007C02FE030E001C0220F4A95EAF72095AA
:1039D000169516951370123069F050F43091150356
:1039E000113029F0822B83230E9485135FCF832B14
:1039F000822BFACF282B809115038227F5CF86954D
:103A0000CC2011F0812F8170882309F44FCF402FF3
:103A1000429546954770440F440F802F8F70042EB7
:103A200001C0880F0A94EAF7202F207104FF07C015
:103A30002FE030E001C0220F4A95EAF72095169555
:103A400016951370123069F050F43091A9031130BB
:103A500029F0822B83230E94231328CF832B822BD0
:103A6000FACF282B8091A9038227F5CF1F70CC2095
:103A700029F0812F0E947913802F49CF802F0E9437
:103A8000860C812F0E94341311CF802F22EF8216D3
:103A9000B1F1281570F030EF8316D1F091EF89164F
:103AA00091F0CC2009F45CC0B110B9CE812F8F7198
:103AB0002AC0E3EF8E1651F1F4EF8F12F2CF80910E
:103AC000170382FD2FC0812F8F71CC20D9F21BC02C
:103AD000CC2081F024E02B1508F4E8CE1F7181E0A2
:103AE00090E0012E01C0880F0A94EAF79091A90393
:103AF0008927B1CF35E03B1508F4D8CEEFCF812F21
:103B00008F71C110BFCF0E947913D0CE80E0CC203E
:103B100009F4A1CF1F7181E0012E01C0880F0A9422
:103B2000EAF799CFCC2089F01F71812F0E94791379
:103B30008091170382FF07C0E8E01E9FC001112497
:103B400083608093ED02812FDECF81E00E944113DC
:103B5000F1E0FB1508F0AACE82E00E944113A6CE48
:103B6000BB2059F0893309F007CF2FEF37EE83E000
:103B7000215030408040E1F7FDCE812F8F7182CF00
:103B80000031FFE51F0709F4D9CB01312FE51207FA
:103B900009F4DECB80E20C33110520F4F801EB517F
:103BA000FE4F80811F928F931F930F93F7018081A7
:103BB0001F928F9381811F928F9381E891E09F9351
:103BC0008F931F9287E18F9384E591E09F938F936A
:103BD0000E94E82A0FB6F894DEBF0FBECDBF0D3AA3
:103BE0003DE5130709F4B6CB0E3A8DE5180709F445
:103BF000C2CB033FFCE51F0709F430CC08F0CCCB67
:103C0000083D3CE5130709F423CC093D8CE5180772
:103C100009F43CCC073D9CE5190709F0C9CB06E245
:103C200021EE41EE67ED7CE5C7010E94C21715CB7E
:103C300000313FE5130709F487CB01318FE5180701
:103C400071F682E082CB06319CE5190731F580914F
:103C50009E02811130CD89E20E94D50A39CC0A3505
:103C6000EDE51E0709F4B9CD68F401152CE512073E
:103C700009F456CD0E3D1C4509F068CD0E94E310B5
:103C80000E9498160C358DE5180709F456CD08F4F6
:103C9000A6CD073A1D45A1F359CD8091F702827256
:103CA0000C3CFCE51F0709F428CD08F063C0063C76
:103CB0003CE5130709F40DCDC8F5033CECE51E0700
:103CC00009F4FBCC20F5023C2CE5120709F03ECDAF
:103CD00080917D0380FF58CB8E7F80937D03609120
:103CE0007D0370917E0380917F03909180030E94F9
:103CF000D60F109257033FEF80E792E0315080409B
:103D00009040E1F700C000000E946A0DA6CA043C82
:103D10003CE5130709F4D8CC4AE950E164EA70E1C4
:103D2000053C9CE5190709F4CCCC10CD093CECE529
:103D30001E0709F4D8CC78F4073C2CE5120709F4E7
:103D4000CDCC4DE850E160E870E1083C3CE513075C
:103D500009F4B7CCFBCC0A3C9CE5190709F4C8CCA4
:103D60004EEA50E160EC70E10B3CECE51E0709F413
:103D7000A8CCECCC013DFCE51F0709F46ECAA0F409
:103D80000E3C3CE5130709F468CA08F4BBCC0F3CB1
:103D90009CE5190709F4B9CC6AE085E0003DECE543
:103DA0001E0709F4B4CCD2CC043DFCE51F0709F48E
:103DB000B4CC58F4023D3CE5130709F4ABCC033D09
:103DC0008CE5180709F449CAC1CC053D9CE51907E3
:103DD00009F443CA0D35100709F43FCAB7CCB0E067
:103DE000A0E0E5EFFEE10C946A2A8091BA02807FA0
:103DF00009F050C08091B702882309F44BC0C091EC
:103E0000EC0286E0B82E8091BB028C1709F442C008
:103E1000F090B502E090B602C090B802D090B9021E
:103E2000A6016E2D8F2D0E941B0BD0E0811137C093
:103E3000BC9E8001BD9E100D1124F801E454FD4F7D
:103E400081818E112CC080818F1129C082818111C6
:103E500026C0E380F480EC18FD0860E085EB92E07A
:103E60000E94840F0E947405E816F906C0F4809140
:103E7000BA028F7080618093BA02F801EF53FD4F50
:103E800080818F708061808385EB92E00E94E018D2
:103E90000E94260BCDB7DEB7E9E00C94862A219666
:103EA000C770B1CFA1E1B0E0E8E5FFE10C94622A70
:103EB0008C0185E0F801DE011D9601900D928A9536
:103EC000E1F7D8016C9011967C9011971296EC90C6
:103ED00012971396CD90DC9060E085EB92E00E9403
:103EE000840F4C0185EB482E82E0582EA090B8023A
:103EF000B090B902A5016091B6028091B5020E940E
:103F00001B0B811171C1F090B702F601EA19FB0990
:103F10005F0160E0FF2009F424C1C2010E94840F08
:103F20000E9474053090BA02A816B90608F0DBC0EA
:103F30004091B8025091B902B090B502A090B6027B
:103F4000832D807F6A2D09F086C08B2D0E941B0B6C
:103F5000FE2C81111CC0D80111968C9111978A11E9
:103F600016C08C918B1113C0E11011C0832D8F707E
:103F700080618093BA02C2010E94E0188091BA0267
:103F8000F80185838F2D6196E1E10C947E2AC401AE
:103F90000E9474055C01A601672D862D0E941B0BF3
:103FA000D82EF4EFAF16F1E0BF06D0F081E08E25F9
:103FB000D11080E080FF14C04E2D672D862D0E9409
:103FC000FB0A882369F085EB92E00E94E01886E006
:103FD000E5EBF2E0DF011D928A95E9F7F12CD2CFF3
:103FE00081E08E25D11080E0B82FB170CB2E80FFFC
:103FF00029C04E2D672D862D0E94FB0AD82E8111D7
:1040000021C06D867E868D859E850E94570F292F43
:1040100022952F70223050F0243078F49F7051F0A8
:10402000F8019581907F31F4FD2CACCF9F7011F099
:104030008823D1F3805E8830B8F3C8010E94E0186D
:10404000DC2CF2CFEE2009F49DCF8091BA02816082
:104050008093BA02C3CF8B2D0E941B0B811119C014
:10406000D80111968C9111978A1113C08C918B11E4
:1040700010C0E1100EC015963C92C8010E94E018D5
:1040800086E0F801A5EBB2E001900D928A95E1F788
:1040900079CFC8010E94640F882309F1EE20F9F05E
:1040A0008091BA02803270F02091B5023091B60250
:1040B00038872F831986DB86CA868C87CE010796C0
:1040C0000E94E01886E0F801A5EBB2E001900D92A5
:1040D0008A95E1F70E94EF1EFF24F39453CFC801A5
:1040E0000E94E018F9CF832D807F09F46CCFB09047
:1040F000B502A090B6024091B8025091B9026A2D63
:104100008B2D0E941B0B811113C0F80181818A1134
:104110000FC080818B110CC0E1100AC03582C8012C
:104120000E94E01886E0D2011D928A95E9F72ACF15
:10413000C8010E94640F882391F2EE2081F28091E1
:10414000BA02803208F4BECF2091B5023091B60297
:104150003A8329831B82DD82CC828E83CE01019635
:10416000AFCF85EB92E00E94840F0E947405A816E1
:10417000B906C0F6FE2CEE2009F4B1CFE090B502EE
:10418000D090B6024091B8025091B9026D2D8E2D9B
:104190000E941B0B81111AC0F80181818D1116C07C
:1041A00080818E1113C08091BA0280FD69CF982F53
:1041B000907F09F465CF8583903F09F45ECF982FF7
:1041C000907F905F8F70892B858357CFC8010E94A5
:1041D000640F811177CF8091BA0281608093BA0217
:1041E000C8010E94E018CECEEE2009F478CFC801B5
:1041F0000E94640FF82E882309F471CF86E0F8013D
:10420000A5EBB2E001900D928A95E1F78091B5029D
:104210009091B6020E94570F0E94EF1EB3CEA7E105
:10422000B0E0E5E1F1E20C94702A4B8B5C8B6D8B76
:104230007E8B8F8B61111092F6021A8A198A85E0A3
:10424000FE017396DE011D9601900D928A95E1F7AD
:1042500086E0FE013D96DE01179601900D928A954B
:10426000E1F7CE0107960E94521F81112FC086E010
:10427000FE013796DE01119601900D928A95E1F7C5
:104280004A855B8568858F810E941B0B81111EC04A
:104290002091BB0230E0C9010196877099274091B7
:1042A000EC0248171906E9F096E0929FD001939F1F
:1042B000B00D1124A454BD4FFE01319601900D9212
:1042C0009A95E1F78093BB020E94260B16E080913D
:1042D000EC029091BB02891312C06796E3E00C9444
:1042E0008C2A0E948A131092BB021092EC0286E084
:1042F000E5EBF2E0DF011D928A95E9F7E7CF819FB8
:10430000C001112484549D4F0E94521F882329F319
:104310008091EC0290E00196877099278093EC02DF
:10432000D6CFA8E0B0E0E7E9F1E20C94682A8E016C
:104330000F5F1F4F88E0F80111928A95E9F781E23B
:10434000C82E82E0D82EF12CE12CAA24A394B12C03
:10435000F60181916F018F3F09F443C0F894E82F73
:10436000E295EF70F0E021A18F70A50102C0440F2B
:10437000551F8A95E2F7CA01922F982B91A392A11B
:104380008095892382A3789400C0E9E2F2E0912C21
:1043900031E021912F3F09F461C0A22FA295AF70A7
:1043A000B0E090968C9190E02F7002C09595879523
:1043B0002A95E2F780FD52C0832F982A330F52E0EE
:1043C000EF32F50731F7F601319780818F3F11F019
:1043D0000E94030980EA8A95F1F7F801EE0DFF1DAE
:1043E0009082EFEFEE1AFE0AF8E0EF16F10409F002
:1043F000AFCF48E050E0B8018CEF92E00E94DB2A9A
:10440000FF24F394009709F4F12C892B49F188E0FB
:10441000F801ACEFB2E001900D928A95E1F781E0EE
:104420008093FB020E9466129093FA028093F90235
:104430008091F9029091FA020E9457120597A0F01C
:10444000ECEFF2E0ABE3B3E084E093E021912D9355
:104450008E179F07D9F71092FB0206C080E0ADCF00
:104460008091FB028111E4CF8F2D2896EBE00C9414
:10447000842A1F921FB61F9211248F939F93AF938C
:10448000BF9380918D03811113C080918E03909111
:104490008F03A0919003B09191034196A11DB11D8E
:1044A00080938E0390938F03A0939003B093910316
:1044B000BF91AF919F918F911F901FBE1F90189534
:1044C000CDB7DEB7AC970FB6F894DEBF0FBECDBF49
:1044D00085B7806885BF85B7806885BF84B7877FCB
:1044E00084BF0FB6F894A89580916000886180938E
:1044F0006000109260000FBE80E890E00FB6F89464
:1045000080936100909361000FBE81E099E09093E9
:104510009502809394020E9481050E944C0680912E
:10452000E20084608093E200789480919F03882366
:10453000A1F01091E9001F709091EC00892F81701B
:1045400090FD80E8182B1092E9008091E80083FD2F
:104550000E9496131F701093E90082E084BD93E0DF
:1045600095BD9AEF97BD80936E000E94AF0F8111A9
:1045700002C00E94DB0E01E212E0D8018D918D0194
:104580008F3F11F00E940309B2E009321B07A9F71F
:1045900009E212E0BFE2EB2EB2E0FB2EF8018191BE
:1045A0008F018F3F11F00E940309E016F106B1F769
:1045B00088E0EBE3F3E0DF01282F1D922A95E9F76D
:1045C000ECEFF2E0DF011D928A95E9F70E944E11AF
:1045D000811102C00E94E31082E090E00E94872DCA
:1045E000809307030E94C80F9093170380931603CC
:1045F0000E949121EFE3FCE93197F1F700C0000040
:104600000E94912180913B0380FF08C06FEF7FEFF4
:1046100090E080E00E94B92D0E940B0783E090E0BB
:104620000E94872D0E9485131092380380E88093A2
:10463000AA030E945E296DE070E08AE292E00E9487
:10464000AF0C892BE9F58091380363E070E081FDC0
:10465000DBC287E292E00E94AF0C892B89F56DE006
:1046600070E087E192E00E94AF0C892B49F50E942F
:104670001C07605A75418F4F9F4F60938203709360
:1046800083038093840390938503EDEAF3E080E055
:1046900092E0DF019C011D9221503040E1F7F09340
:1046A000B405E093B3058FEF9FEF9093AC03809335
:1046B000AB0381E0809387038093860310923903D4
:1046C00080910403811133C00E944E11811104C0F6
:1046D0000E94E3100E94D21088E090E00E948F2D8B
:1046E00060937D0370937E0380937F039093800398
:1046F0006E7F71F40E94D21088E090E00E948F2DAE
:1047000060937D0370937E0380937F039093800377
:104710000E943C071092570380917D0380FF04C0E4
:1047200060E086950E94881281E08093040380E017
:1047300091E090938C0380938B03A8E18A2E912CB7
:1047400080919F03FF24F39400E112E1853009F486
:10475000B3C20E949121D82E81110E941C07FBE355
:104760004F2EF3E05F2EE8E0F3E0D20110E000E02E
:10477000302F8D912191281709F4BEC290E0FF24BB
:10478000F3942827422F4F2109F4B1C299A33AA3E9
:104790008F2191E009F490E09BA30E946612816052
:1047A000782F9DA38CA349A15AA16BA18DA10E9432
:1047B0000F21F801E85FFC4F8081F826F08280919C
:1047C00057038823D1F180915603E0917D03E6954C
:1047D000E81BE0935203823009F0A5C2F0E0E35CED
:1047E000FD4FE4910E2F10E0EEE2EE2EEEE0FE2EF5
:1047F00080915303882361F0109253030E94661244
:1048000090935103809350031092550310925403D8
:104810000E946612E0915003F09151038E1B9F0B92
:104820008F3F9F4750F40E0F1F1F109351030093AB
:10483000500380E593E0F701099580918703882371
:1048400009F4E7C08DEA93E09093B4058093B30533
:1048500030917D0380917E0390917F0320918003AE
:104860004091100343130CC040911103841308C0FE
:1048700040911203491304C040911303241799F186
:104880002695269526959695969596958695869540
:104890008695432F469530FD68C23EE21F922F93C6
:1048A0001F929F931F928F931F924F931F923F933C
:1048B0008BEA91E09F938F931F9287E18F938CE017
:1048C00091E09F938F930E94E82A85E0EDE7F3E063
:1048D000A0E1B3E001900D928A95E1F70FB6F8944C
:1048E000DEBF0FBECDBF8CE091E00E94970C80919F
:1048F000A90340911503EFE2F2E030E020E090815F
:10490000811135C2491336C249E0429FC001439F1D
:10491000900D1124805D9D4F2091160322FD34C21D
:1049200029E931E09F938F933F932F9386EC91E099
:104930009F938F931F9287E18F9384E291E09F93DF
:104940008F930E94E82A84E291E00E94970C0E94D3
:1049500028070FB6F894DEBF0FBECDBF22E931E0C5
:1049600080FF02C02DE931E042E951E081FF02C041
:1049700041EA51E082FD0BC282E991E09F938F935F
:104980005F934F933F932F9386ED91E09F938F9387
:104990001F9287E18F938CE391E09F938F930E9406
:1049A000E82A8CE391E00E94970C84E591E00E9454
:1049B000970C0FB6F894DEBF0FBECDBF8091870372
:1049C000882371F02091AB033091AC0321153105A0
:1049D00039F08091390361E070E0882309F4DBC18C
:1049E000809186038823A9F00E941C07009182030E
:1049F000109183032091840330918503601B710B18
:104A0000820B930B6F3F7F4F8F4F9F4710F40E9495
:104A1000D90CD1100E94F40C86E0EAE4F3E0DE0148
:104A2000119601900D928A95E1F710924C03109225
:104A30004D0310924E0310924F038B819C81892B62
:104A400009F44DC080914803909149030E94571288
:104A5000AC019091440321E030E0911102C030E0BC
:104A600020E024173507D8F59F3F19F09F5F9093FA
:104A700044031B81112359F00E9483089FEF1116F4
:104A80000CF491E0899F802D112480934C031C81AC
:104A9000112359F00E9483089FEF11160CF491E046
:104AA000899F802D112480934D0330914C03332333
:104AB000B1F020914D03222391F045EB3403C00166
:104AC0001124992309F42EC290934C0345EB24033F
:104AD00090011124332309F429C230934D038D81B1
:104AE0009E81892B09F44AC0809146039091470327
:104AF0000E9457129C0190914303992309F4D9C352
:104B000021353105D8F19F3F19F09F5F9093430302
:104B10001D81112359F00E9461089FEF11160CF4BA
:104B200091E0899F802D112480934E031E811123D3
:104B300059F00E9461089FEF11160CF491E0899FD3
:104B4000802D112480934F0330914E033323B1F015
:104B500020914F03222391F045EB3403C00111242F
:104B6000992309F4E7C190934E0345EB2403900188
:104B70001124332309F4E2C130934F0346E050E09F
:104B8000BE016F5F7F4F8AE493E00E94DB2A892B8E
:104B900011F00E94E81286E0FE013196AAE4B3E02B
:104BA00001900D928A95E1F70E94280790913A03AF
:104BB000891380933A0380919F03843009F0C0CD1C
:104BC00083E08093E9008091E80082FFB9CD809175
:104BD000E80090E085FF06C00E94A005882309F444
:104BE000B1C191E08091E8008B778093E800992330
:104BF00009F4A6CDE981E150E33108F017C2F0E0F5
:104C0000E951F24D0C94B82A84E292E024CD8091CF
:104C10009F03843009F440C010925703809106032B
:104C2000811116C0F092060380917D03982F917038
:104C3000909305038E7F80937D033FEF40E782E0F2
:104C4000315040408040E1F700C000000E946A0DF2
:104C50000E94D90C10928D0390E40FB6F894A89599
:104C6000809260000FBE9093600083B7817F846064
:104C700083BF83B7816083BF7894889583B78E7F25
:104C800083BF0FB6F894A8958091600088618093E7
:104C90006000109260000FBE80919E03882361F037
:104CA0000E949121EBE3F3E081918111E3C2A3E43F
:104CB000B3E0AE17BF07C1F780919F03853009F4B9
:104CC000A6CF0E948A130E942807109206038091A3
:104CD0000503882349F080917D03816080937D03E3
:104CE00060E086950E9488120E94721232CD9F5F0A
:104CF000FF0C963009F046CD0F5F1F4F08301105AD
:104D000009F036CD8FEF8EA38FA318A60E946612EE
:104D10008160782F9AA789A74EA15FA168A58AA56F
:104D20000E940F214CCD853061F4E695F0E0E65C01
:104D3000FD4FE4910E2F10E070EFE72E7DE0F72E8F
:104D400057CD00ED17E05BE3E52E57E0F52E8B30F5
:104D500009F04ECDF0E0E95CFD4FE4910E2F10E03C
:104D60006FE9E62E6DE0F62E43CD3AE297CD891736
:104D700009F4CACD2F5F3F4F39962630310509F02F
:104D8000BECD83E991E0C8CD25E931E0CBCD86EAFF
:104D900091E0F4CD8F5F082F10E07B01082E02C058
:104DA000EE0CFF1C0A94E2F7A9014E215F21452B6E
:104DB00089F39091380390FD43C08295880F8076E7
:104DC00080936E0198013695279536952795209307
:104DD0007101815E80936F011092720124E630E0D0
:104DE00047E050E06CE671E088E70E94012A892BD9
:104DF00009F0F6CDA80125E0440F551F2A95E1F7EB
:104E00008091380380FD2AC043555C4F04E610E0D2
:104E100020E230E060E488E70E94222A892B09F032
:104E2000DFCD0E94F40CE094F0948091AB0390915C
:104E3000AC03E822F922F092AC03E092AB03D0CDB0
:104E4000880F880F880F80936E0110927101895F1F
:104E500080936F0183E080937201C0CFE8E1F3E0BB
:104E600080E2DF011D928A95E9F7E9E6F2E0FCA70E
:104E7000EBA705E612E0ABA5BCA52D91BCA7ABA79F
:104E8000F80121908F01240E352E311CC10183556C
:104E90009C4F1C01E22FF0E0E85EFC4F30E020E088
:104EA00097E0692E621ACC24C394022E01C0CC0C68
:104EB0000A94EAF7510190E0D5018D915D018C21B2
:104EC000662D691B6770762E062E000C770BB82FA7
:104ED00001C0BB0F7A94EAF77B2E71956195710939
:104EE0006770772701C086956A95EAF7782A8081EE
:104EF000782A70829F5F9830F9F62F5F3F4F319686
:104F00002830310569F6EDE6F2E02BA53CA5E21765
:104F1000F30709F0B0CF04E610E020E230E048E10A
:104F200053E078CF81E080934C03D0CD81E0809333
:104F30004D03D5CD81E080934E0317CE81E0809361
:104F40004F031CCE80E2E82EF12C8E010F5F1F4F25
:104F50008091E80085FD0AC08091E8008B778093FE
:104F6000E8000E94A005882399F33BCE8091F100D0
:104F7000D8018D938D01B1E0EB1AF10849F731CEDC
:104F80001A8289E08B8311C08A81823009F488C13A
:104F9000833091F1813009F049C00E941C070E94C2
:104FA000BE2A6B837C838D839E8380919F03843094
:104FB00009F0C6CB1091E9001F709091EC00892F89
:104FC000817090FD80E8182B82E08093E900809149
:104FD000E80080FF0DC050E040E060E270E0CE01EC
:104FE00001960E94D1058091E8008E778093E800B9
:104FF0001F701093E900A4CBFE013396D2018D916E
:105000002D018193B3E44B16B3E05B06B9F7CDCF26
:105010008A81823059F46B817C818D819E810E94CE
:10502000BE2A86E290E00E949B2DBFCF8FEF89833E
:10503000BCCF4C816B818A810E94EB0E9827892717
:1050400098279E838D83B1CF2D813E8132272327E0
:1050500032274C816B818A810E94640EA6CF0E9408
:105060008A0EA3CF8A818138C1F060F4803809F0BC
:105070009CCF20E04B8160917F0380917E030E9452
:10508000E90F93CF823859F1833809F08ECF20E0B1
:10509000409180036C818B81F2CF60E08B810E9414
:1050A00088129B8180917D03911111C08E7F809326
:1050B0007D0310925703EFEFF0E722E0E150F0405C
:1050C0002040E1F700C000000E946A0D6ECF8160B1
:1050D00080937D0360E086950E94881266CF8B8165
:1050E0008093810362CF8A81813899F030F48038CF
:1050F00009F05BCF8091800345CF823891F08338EF
:1051000009F053CF80917E038B8380917F038C8342
:105110004CCF80917D0380FF02C0869533CF80E025
:1051200031CF809181032ECF60917D0370917E03FA
:1051300080917F03909180030E94D60F36CF80E14B
:105140008A8333CF82E08A8389E51CCF0A811B8161
:10515000102701271027CE0101966C01EC80DC019D
:10516000AE0DB11D7D01C80189559E4FCE14DF04DF
:1051700009F41BCF0935B2E01B0750F40E94872DBC
:10518000F60184830F5F1F4FBFEFCB1ADB0AEBCF13
:10519000D60114961C92F6CF0A811B811027012795
:1051A0001027FE0131966F01EC80E00EF12EF11C0C
:1051B000C80189559E4FE016F10609F4F6CE09356F
:1051C000F2E01F0728F4D60114966C910E949B2DE3
:1051D000BFEFCB1ADB0A0F5F1F4FEACF0E94540EBE
:1051E000E4CE84E0ADCF0A811B8110270127102770
:1051F000FE0131966F01EC809F012E0D311D79016A
:10520000C8018796EC14FD0409F4CFCE003831E0D4
:10521000130758F40E94872DD60114968C930F5FC4
:105220001F4FFFEFCF1ADF0AEBCFF6011482F7CF43
:105230000A811B811027012710279E012F5F3F4FF6
:105240006901EC80E00EF12EF11CC8018796E01692
:10525000F10609F4AACE003831E0130728F4D6018C
:1052600014966C910E949B2DBFEFCB1ADB0A0F5F47
:105270001F4FEBCF09BD19BD09B400FEFDCF8091D2
:10528000D8008F7D8093D8008091E0008260809369
:10529000E0008091E00081FDFCCF0E948A130CCDDC
:1052A00086E290E00E94872D1B821C821D828E83E5
:1052B0007CCE2B30310508F028CC60CC1092B900A0
:1052C0008CE08093B8000895B0E0A0E0EAE6F9E24F
:1052D0000C94682AB82EEB010E9466126C01EE2431
:1052E000E394F12CC431D10560F025E0E22EF12CDD
:1052F000CF3FDC0731F0CE0164E170E00E944D2A1F
:105300007B0184EAA82E94E8992E1092BC00A0920A
:10531000BC000E9466128C018091BC0087FF0DC00A
:105320008091B900887F883001F18091B900887F31
:105330008031D9F00FEF1FEF09C00E946612801B69
:10534000910B8E159F0540F30EEF1FEFCF3FDC074B
:10535000E1F2C6010E9457128C179D07B0F2C801F6
:10536000CDB7DEB7EBE00C94842AB092BB009092EC
:10537000BC000E9466128C018091BC0087FF0AC0AD
:105380008091B900887F883111F0803499F610E05F
:1053900000E0E5CF0E946612801B910B8E159F05E1
:1053A00058F3D2CF0F931F93CF93DF93EB018093EA
:1053B000BB0084E88093BC000E9466128C0180913F
:1053C000BC0087FF11C02091B900287F81E090E0E8
:1053D000283211F490E080E0919581959109DF9158
:1053E000CF911F910F910895CF3FDC0741F30E94A9
:1053F0006612801B910B8C179D0708F38EEF9FEFB1
:10540000EECFB0E0A0E0E7E0FAE20C946B2A6B018B
:105410008A017901B9010E946429E6010C0D1D1D64
:10542000C017D10711F097FF08C024E92093BC00F2
:10543000CDB7DEB7E8E00C94872AB70189910E94C6
:10544000D229EECFB0E0A0E0E8E2FAE20C946B2AB9
:10545000C62F6A017901B8010E94642997FD0CC02A
:10546000B8018C2F0E94D229E601EC0CFD1CCE1550
:10547000DF0511F097FF08C024E92093BC00CDB7E9
:10548000DEB7E8E00C94872AB80189910E94D229FE
:10549000EECF84E98093BC000895AA1BBB1B51E1A9
:1054A00007C0AA1FBB1FA617B70710F0A61BB70B94
:1054B000881F991F5A95A9F780959095BC01CD0139
:1054C00008952F923F924F925F926F927F928F92A8
:1054D0009F92AF92BF92CF92DF92EF92FF920F9383
:1054E0001F93CF93DF93CDB7DEB7CA1BDB0B0FB68D
:1054F000F894DEBF0FBECDBF09942A88398848884A
:105500005F846E847D848C849B84AA84B984C884DF
:10551000DF80EE80FD800C811B81AA81B981CE0FD6
:10552000D11D0FB6F894DEBF0FBECDBFED010895BB
:10553000991B79E004C0991F961708F0961B881FE5
:105540007A95C9F78095089597FB072E16F4009475
:1055500007D077FD09D00E944D2A07FC05D03EF404
:10556000909581959F4F0895709561957F4F08950F
:10557000EE0FFF1F0590F491E02D099469279627FF
:1055800069277827872778270895FB01DC0102C067
:1055900005900D9241505040D8F70895FC014150BC
:1055A000504030F001900616D1F73197CF010895A1
:1055B000882799270895FB01DC0104C08D91019093
:1055C000801921F441505040C8F7881B990B089569
:1055D000AEE0B0E0EEEEFAE20C946F2A0D891E897F
:1055E0008F89988D26E02C831A83098397FF02C048
:1055F00080E090E801979E838D83AE01455E5F4F0A
:10560000698D7A8DCE0101960E94182B4D815E81A5
:1056100057FD0AC02F813885421753070CF49A01B1
:10562000020F131FF80110822E96E4E00C948B2ACF
:10563000ABE0B0E0EEE1FBE20C94612A7C013B01BF
:105640008A01FC0117821682838181FFB9C19AE029
:10565000292ECE0101965C01F7019381F30193FDA0
:10566000859193FF81913F01882309F446C18532DA
:1056700039F493FD859193FF81913F01853229F49F
:10568000B70190E00E94F92CE7CF912C412C512CCE
:10569000FFE1F51538F08B3209F188F4803201F121
:1056A000833221F157FC3AC020ED280F2A3040F513
:1056B00056FE1FC0929C200D1124922E06C08D32E2
:1056C00091F0803379F7689450F8F30193FD859158
:1056D00093FF81913F018111DBCF20C0689451F885
:1056E000689452F8F2CF689453F8EFCF689454F866
:1056F000ECCF429C200D1124422E689455F8E5CF42
:105700008E3229F456FCF9C0689456F8DECF8C36F8
:1057100019F4689457F8D9CF8836B9F2982F9F7D3D
:1057200095549330C0F08336A1F18337C1F18335AE
:1057300009F05BC0F801C190D1908F01692D70E034
:1057400056FC02C06FEF7FEFC6010E94E32C4C01B4
:10575000689457F80AC00C5F1F4F2FE329838824F1
:105760008394912C6501E89457F853FC04C04814C5
:10577000190409F018F5342C8114910431F5332003
:1057800009F46ACFB70180E290E00E94F92C3A94C4
:10579000F6CFF801808189830E5F1F4FE0CFF801BB
:1057A000C190D1908F01692D70E056FC02C06FEF5F
:1057B0007FEFC6010E94EE2C4C01D5CFB70180E2ED
:1057C00090E00E94F92C4A94D2CFF60157FC8591C3
:1057D00057FE81916F01B70190E00E94F92C3110C2
:1057E0003A94F1E08F1A9108C7CF843619F08936C0
:1057F00009F074C0F80157FE6AC0619171918191FE
:1058000091918F01252D2F76D22E97FF09C090956B
:105810008095709561957F4F8F4F9F4F6894D7F813
:105820002AE030E0A5010E94292DC82ECA188C2C30
:105830005D2CD6FE0CC0E89450F8C91440F4D4FE98
:1058400005C0D2FC03C0FD2DFE7E5F2E892C54FEC8
:105850008FC0FE01EC0DF11D8081803309F081C005
:10586000252D297E522E852D8870382E53FC8FC011
:1058700050FE89C09C2C841418F44C0C942C98185D
:1058800054FE8BC0B70180E390E00E94F92C52FED9
:1058900009C088E790E051FE02C088E590E0B701BA
:1058A0000E94F92CC91408F484C0CA94D12C9FEF2B
:1058B000C91AD90ACA0CDB1CF60182916F01B70123
:1058C00090E00E94F92CAC14BD04B1F758CF61915F
:1058D0007191072E000C880B990B93CFD52CE8946F
:1058E000D4F82AE030E0853739F1952D997FD92E0B
:1058F0008F3601F148F48835A9F0F7018681978148
:105900002B96E2E10C947D2A803749F08837A9F77D
:10591000D4FE02C06894D2F820E130E00DC0689453
:10592000D4F8F6CF54FE03C0E92FE660DE2E20E166
:1059300032E002C028E030E0F801D7FE0DC06191EE
:105940007191819191918F01A5010E94292DC82EFD
:10595000CA18E894D7F86BCF6191719190E080E01C
:10596000F2CF52FC02C083947ECF839483947BCF8A
:10597000852D867809F477CFF6CFB70180E290E0E5
:105980000E94F92C83948414C0F3312C79CF342CE9
:105990003818841408F474CFF8CF852D867809F46C
:1059A00081CF8BE251FE80E257FC8DE2B70190E09F
:1059B00077CFB70180E390E00E94F92C9A9472CFE0
:1059C0008FEF9FEF9DCFFC0105906150704001105B
:1059D000D8F7809590958E0F9F1F0895FC01615018
:1059E000704001900110D8F7809590958E0F9F1F01
:1059F00008950F931F93CF93DF93182F092FEB0177
:105A00008B8181FD09C01FEF0FEF812F902FDF9158
:105A1000CF911F910F91089582FF14C02E813F8175
:105A20008C819D81281739073CF4E881F981CF01E9
:105A300001969983888310838E819F8101969F832D
:105A40008E83E3CFE885F985812F0995892BA1F312
:105A5000DACFFA01AA27283051F1203181F1E894F8
:105A60006F936E7F6E5F7F4F8F4F9F4FAF4FB1E051
:105A70003ED0B4E03CD0670F781F891F9A1FA11D4C
:105A8000680F791F8A1F911DA11D6A0F711D811D4D
:105A9000911DA11D20D009F468943F912AE0269F12
:105AA00011243019305D3193DEF6CF010895462F71
:105AB0004770405D4193B3E00FD0C9F7F6CF462F52
:105AC0004F70405D4A3318F0495D31FD40524193BB
:105AD00002D0A9F7EACFB4E0A69597958795779578
:105AE0006795BA95C9F700976105710508959B01FF
:105AF000AC010A2E06945795479537952795BA9588
:105B0000C9F7620F731F841F951FA01D0895F9998F
:105B1000FECF92BD81BDF89A992780B50895A6E180
:105B2000B0E044E050E00C94C12DA8E1B0E042E0C8
:105B300050E00C94C12D262FF999FECF92BD81BD66
:105B4000F89A019700B4021639F01FBA20BD0FB6BB
:105B5000F894FA9AF99A0FBE08950396272F0E9497
:105B60009C2D0E949B2D252F0E949C2D242F0C9450
:105B70009C2D0196272F0E949C2D0C949B2DDC01BF
:105B8000CB01FC01F999FECF06C0F2BDE1BDF89A48
:105B9000319600B40D9241505040B8F70895F894F2
:105BA000FFCF77149F1442169F144216D214F31499
:105BB0004216F115FE15F61BF61B2E1C2E1C561C4C
:105BC000C01C561C561CCB1C361D451D451DC02730
:105BD000C4270828192824282F2832287328942815
:105BE000162816289F28A228A628CC28EE28F128B7
:045BF000F328182955
:105BF40008073D0D1C0D0607070705074C45442003
:105C040073746174652072656164792E0A00000002
:105C1400000000004C617965722073746174652022
:105C240072656164792E0A00000000004C6F636B9A
:105C34002073746174652072656164792E0A0000B2
:105C4400000000004B6579207374617465207265EF
:105C54006164792E0A000000000000000021007F2A
:105C6400220003010E0F101112131415161701024E
:105C7400014B65793A2564782564202532782025FE
:105C8400630A003F0077696E006D6163004E756DB5
:105C94000043617073005363726E004C4544256386
:105CA4003A253264206873763A25326420253264BA
:105CB400202532640A004F533A2573204C617965DC
:105CC400723A25730A004C6F636B3A25732025736F
